{
  "address": "0x8B4E110185d3f77049bBEBd496cd4867eE286CB9",
  "abi": [
    {
      "inputs": [],
      "stateMutability": "nonpayable",
      "type": "constructor"
    },
    {
      "anonymous": false,
      "inputs": [
        {
          "indexed": false,
          "internalType": "uint8",
          "name": "version",
          "type": "uint8"
        }
      ],
      "name": "Initialized",
      "type": "event"
    },
    {
      "anonymous": false,
      "inputs": [
        {
          "indexed": false,
          "internalType": "address",
          "name": "account",
          "type": "address"
        }
      ],
      "name": "Paused",
      "type": "event"
    },
    {
      "anonymous": false,
      "inputs": [
        {
          "indexed": true,
          "internalType": "address",
          "name": "cosigner",
          "type": "address"
        },
        {
          "indexed": false,
          "internalType": "contract Hotdrop",
          "name": "hotdrop",
          "type": "address"
        },
        {
          "indexed": false,
          "internalType": "uint256",
          "name": "generation",
          "type": "uint256"
        }
      ],
      "name": "Phlote",
      "type": "event"
    },
    {
      "anonymous": false,
      "inputs": [
        {
          "indexed": true,
          "internalType": "bytes32",
          "name": "role",
          "type": "bytes32"
        },
        {
          "indexed": true,
          "internalType": "bytes32",
          "name": "previousAdminRole",
          "type": "bytes32"
        },
        {
          "indexed": true,
          "internalType": "bytes32",
          "name": "newAdminRole",
          "type": "bytes32"
        }
      ],
      "name": "RoleAdminChanged",
      "type": "event"
    },
    {
      "anonymous": false,
      "inputs": [
        {
          "indexed": true,
          "internalType": "bytes32",
          "name": "role",
          "type": "bytes32"
        },
        {
          "indexed": true,
          "internalType": "address",
          "name": "account",
          "type": "address"
        },
        {
          "indexed": true,
          "internalType": "address",
          "name": "sender",
          "type": "address"
        }
      ],
      "name": "RoleGranted",
      "type": "event"
    },
    {
      "anonymous": false,
      "inputs": [
        {
          "indexed": true,
          "internalType": "bytes32",
          "name": "role",
          "type": "bytes32"
        },
        {
          "indexed": true,
          "internalType": "address",
          "name": "account",
          "type": "address"
        },
        {
          "indexed": true,
          "internalType": "address",
          "name": "sender",
          "type": "address"
        }
      ],
      "name": "RoleRevoked",
      "type": "event"
    },
    {
      "anonymous": false,
      "inputs": [
        {
          "indexed": true,
          "internalType": "address",
          "name": "submitter",
          "type": "address"
        },
        {
          "indexed": false,
          "internalType": "string",
          "name": "ipfsURI",
          "type": "string"
        },
        {
          "indexed": false,
          "internalType": "contract Hotdrop",
          "name": "hotdrop",
          "type": "address"
        }
      ],
      "name": "Submit",
      "type": "event"
    },
    {
      "anonymous": false,
      "inputs": [
        {
          "indexed": false,
          "internalType": "address",
          "name": "account",
          "type": "address"
        }
      ],
      "name": "Unpaused",
      "type": "event"
    },
    {
      "inputs": [],
      "name": "CURATOR",
      "outputs": [
        {
          "internalType": "bytes32",
          "name": "",
          "type": "bytes32"
        }
      ],
      "stateMutability": "view",
      "type": "function"
    },
    {
      "inputs": [],
      "name": "CURATOR_ADMIN",
      "outputs": [
        {
          "internalType": "bytes32",
          "name": "",
          "type": "bytes32"
        }
      ],
      "stateMutability": "view",
      "type": "function"
    },
    {
      "inputs": [],
      "name": "DEFAULT_ADMIN_ROLE",
      "outputs": [
        {
          "internalType": "bytes32",
          "name": "",
          "type": "bytes32"
        }
      ],
      "stateMutability": "view",
      "type": "function"
    },
    {
      "inputs": [],
      "name": "admin",
      "outputs": [
        {
          "internalType": "address",
          "name": "",
          "type": "address"
        }
      ],
      "stateMutability": "view",
      "type": "function"
    },
    {
      "inputs": [
        {
          "internalType": "contract Hotdrop",
          "name": "_hotdrop",
          "type": "address"
        }
      ],
      "name": "curate",
      "outputs": [],
      "stateMutability": "nonpayable",
      "type": "function"
    },
    {
      "inputs": [],
      "name": "curatorAdmin",
      "outputs": [
        {
          "internalType": "address",
          "name": "",
          "type": "address"
        }
      ],
      "stateMutability": "view",
      "type": "function"
    },
    {
      "inputs": [],
      "name": "curatorTokenMinimum",
      "outputs": [
        {
          "internalType": "uint256",
          "name": "",
          "type": "uint256"
        }
      ],
      "stateMutability": "view",
      "type": "function"
    },
    {
      "inputs": [
        {
          "internalType": "bytes32",
          "name": "role",
          "type": "bytes32"
        }
      ],
      "name": "getRoleAdmin",
      "outputs": [
        {
          "internalType": "bytes32",
          "name": "",
          "type": "bytes32"
        }
      ],
      "stateMutability": "view",
      "type": "function"
    },
    {
      "inputs": [
        {
          "internalType": "bytes32",
          "name": "role",
          "type": "bytes32"
        },
        {
          "internalType": "uint256",
          "name": "index",
          "type": "uint256"
        }
      ],
      "name": "getRoleMember",
      "outputs": [
        {
          "internalType": "address",
          "name": "",
          "type": "address"
        }
      ],
      "stateMutability": "view",
      "type": "function"
    },
    {
      "inputs": [
        {
          "internalType": "bytes32",
          "name": "role",
          "type": "bytes32"
        }
      ],
      "name": "getRoleMemberCount",
      "outputs": [
        {
          "internalType": "uint256",
          "name": "",
          "type": "uint256"
        }
      ],
      "stateMutability": "view",
      "type": "function"
    },
    {
      "inputs": [
        {
          "internalType": "address",
          "name": "_newCurator",
          "type": "address"
        }
      ],
      "name": "grantCuratorRole",
      "outputs": [],
      "stateMutability": "nonpayable",
      "type": "function"
    },
    {
      "inputs": [
        {
          "internalType": "bytes32",
          "name": "role",
          "type": "bytes32"
        },
        {
          "internalType": "address",
          "name": "account",
          "type": "address"
        }
      ],
      "name": "grantRole",
      "outputs": [],
      "stateMutability": "nonpayable",
      "type": "function"
    },
    {
      "inputs": [
        {
          "internalType": "bytes32",
          "name": "role",
          "type": "bytes32"
        },
        {
          "internalType": "address",
          "name": "account",
          "type": "address"
        }
      ],
      "name": "hasRole",
      "outputs": [
        {
          "internalType": "bool",
          "name": "",
          "type": "bool"
        }
      ],
      "stateMutability": "view",
      "type": "function"
    },
    {
      "inputs": [
        {
          "internalType": "contract PhloteVote",
          "name": "_vote",
          "type": "address"
        },
        {
          "internalType": "address",
          "name": "_treasury",
          "type": "address"
        },
        {
          "internalType": "address",
          "name": "_curatorAdmin",
          "type": "address"
        }
      ],
      "name": "initialize",
      "outputs": [],
      "stateMutability": "nonpayable",
      "type": "function"
    },
    {
      "inputs": [
        {
          "internalType": "contract PhloteVote",
          "name": "_vote",
          "type": "address"
        },
        {
          "internalType": "address",
          "name": "_treasury",
          "type": "address"
        },
        {
          "internalType": "address",
          "name": "_curatorAdmin",
          "type": "address"
        }
      ],
      "name": "onUpgrade",
      "outputs": [],
      "stateMutability": "nonpayable",
      "type": "function"
    },
    {
      "inputs": [],
      "name": "pause",
      "outputs": [],
      "stateMutability": "nonpayable",
      "type": "function"
    },
    {
      "inputs": [],
      "name": "paused",
      "outputs": [
        {
          "internalType": "bool",
          "name": "",
          "type": "bool"
        }
      ],
      "stateMutability": "view",
      "type": "function"
    },
    {
      "inputs": [
        {
          "internalType": "bytes32",
          "name": "role",
          "type": "bytes32"
        },
        {
          "internalType": "address",
          "name": "account",
          "type": "address"
        }
      ],
      "name": "renounceRole",
      "outputs": [],
      "stateMutability": "nonpayable",
      "type": "function"
    },
    {
      "inputs": [
        {
          "internalType": "address",
          "name": "_oldCurator",
          "type": "address"
        }
      ],
      "name": "revokeCuratorRole",
      "outputs": [],
      "stateMutability": "nonpayable",
      "type": "function"
    },
    {
      "inputs": [
        {
          "internalType": "bytes32",
          "name": "role",
          "type": "bytes32"
        },
        {
          "internalType": "address",
          "name": "account",
          "type": "address"
        }
      ],
      "name": "revokeRole",
      "outputs": [],
      "stateMutability": "nonpayable",
      "type": "function"
    },
    {
      "inputs": [
        {
          "internalType": "string",
          "name": "_ipfsURI",
          "type": "string"
        }
      ],
      "name": "submit",
      "outputs": [
        {
          "internalType": "contract Hotdrop",
          "name": "hotdrop",
          "type": "address"
        }
      ],
      "stateMutability": "nonpayable",
      "type": "function"
    },
    {
      "inputs": [
        {
          "internalType": "bytes4",
          "name": "interfaceId",
          "type": "bytes4"
        }
      ],
      "name": "supportsInterface",
      "outputs": [
        {
          "internalType": "bool",
          "name": "",
          "type": "bool"
        }
      ],
      "stateMutability": "view",
      "type": "function"
    },
    {
      "inputs": [],
      "name": "treasury",
      "outputs": [
        {
          "internalType": "address",
          "name": "",
          "type": "address"
        }
      ],
      "stateMutability": "view",
      "type": "function"
    },
    {
      "inputs": [],
      "name": "unpause",
      "outputs": [],
      "stateMutability": "nonpayable",
      "type": "function"
    },
    {
      "inputs": [],
      "name": "vote",
      "outputs": [
        {
          "internalType": "contract PhloteVote",
          "name": "",
          "type": "address"
        }
      ],
      "stateMutability": "view",
      "type": "function"
    },
    {
      "inputs": [
        {
          "internalType": "uint256",
          "name": "_amount",
          "type": "uint256"
        }
      ],
      "name": "withdraw",
      "outputs": [],
      "stateMutability": "nonpayable",
      "type": "function"
    },
    {
      "inputs": [],
      "name": "withdraw",
      "outputs": [],
      "stateMutability": "nonpayable",
      "type": "function"
    },
    {
      "inputs": [
        {
          "internalType": "contract IERC20",
          "name": "_token",
          "type": "address"
        },
        {
          "internalType": "uint256",
          "name": "_amount",
          "type": "uint256"
        }
      ],
      "name": "withdraw",
      "outputs": [],
      "stateMutability": "nonpayable",
      "type": "function"
    }
  ],
  "transactionHash": "0xdbd7ae424637abe5d713a54f47b71920181402eb493cb22164401da702e88042",
  "args": [],
  "numDeployments": 2,
  "solcInputHash": "3cb639eb446be7e66c6158383b935940",
  "bytecode": "0x608060405234801561001057600080fd5b50614c3d806100206000396000f3fe60806040523480156200001157600080fd5b5060043610620001e95760003560e01c80638456cb59116200010d578063c0c53b8b11620000a3578063d99a8dc3116200007a578063d99a8dc3146200040e578063e52582db1462000425578063f3fef3a3146200043c578063f851a440146200045357600080fd5b8063c0c53b8b14620003c9578063ca15c87314620003e0578063d547741f14620003f757600080fd5b806391d1485411620000e457806391d14854146200037e5780639faff0701462000395578063a217fddf14620003a9578063b5ceeb4814620003b257600080fd5b80638456cb5914620003465780638e9c0fe214620003505780639010d07c146200036757600080fd5b80633f4ba83a116200018357806361d027b3116200015a57806361d027b314620002d7578063632a9a5214620003045780636977dca1146200031857806373e9fbb7146200032f57600080fd5b80633f4ba83a14620002aa5780635a65275814620002b45780635c975abb14620002cb57600080fd5b80632e1a7d4d11620001c45780632e1a7d4d14620002595780632f2ff15d146200027257806336568abe14620002895780633ccfd60b14620002a057600080fd5b806301ffc9a714620001ee5780631260ecf4146200021a578063248a9ca31462000233575b600080fd5b62000205620001ff36600462001cd0565b62000467565b60405190151581526020015b60405180910390f35b6200022460fe5481565b60405190815260200162000211565b620002246200024436600462001cfc565b60009081526097602052604090206001015490565b620002706200026a36600462001cfc565b62000495565b005b620002706200028336600462001d2c565b6200056d565b620002706200029a36600462001d2c565b62000596565b6200027062000618565b620002706200069d565b62000270620002c536600462001d5f565b620006b7565b60335460ff1662000205565b60fd54620002eb906001600160a01b031681565b6040516001600160a01b03909116815260200162000211565b60fc54620002eb906001600160a01b031681565b620002706200032936600462001d7f565b62000dd6565b620002706200034036600462001d5f565b62000df6565b6200027062000e2c565b620002706200036136600462001d5f565b62000e43565b620002eb6200037836600462001dd1565b62000f43565b620002056200038f36600462001d2c565b62000f64565b60ff54620002eb906001600160a01b031681565b62000224600081565b6200022460008051602062004bc883398151915281565b62000270620003da36600462001d7f565b62000f8f565b62000224620003f136600462001cfc565b620010a6565b620002706200040836600462001d2c565b620010bf565b620002eb6200041f36600462001e0a565b620010e8565b6200022460008051602062004be883398151915281565b620002706200044d36600462001ec5565b620011d6565b60fb54620002eb906001600160a01b031681565b60006001600160e01b03198216635a05180f60e01b14806200048f57506200048f8262001389565b92915050565b6000620004a281620013c0565b60004711620004f15760405162461bcd60e51b81526020600482015260166024820152756e6565642066756e647320746f20776974686472617760501b60448201526064015b60405180910390fd5b478211156200053a5760405162461bcd60e51b81526020600482015260146024820152730c8dedc4ee840d0c2ecca40e8d0c2e840daeac6d60631b6044820152606401620004e8565b604051339083156108fc029084906000818181858888f1935050505015801562000568573d6000803e3d6000fd5b505050565b6000828152609760205260409020600101546200058a81620013c0565b620005688383620013cc565b6001600160a01b0381163314620006085760405162461bcd60e51b815260206004820152602f60248201527f416363657373436f6e74726f6c3a2063616e206f6e6c792072656e6f756e636560448201526e103937b632b9903337b91039b2b63360891b6064820152608401620004e8565b620006148282620013f2565b5050565b60006200062581620013c0565b60004711620006705760405162461bcd60e51b81526020600482015260166024820152756e6565642066756e647320746f20776974686472617760501b6044820152606401620004e8565b60405133904780156108fc02916000818181858888f1935050505015801562000614573d6000803e3d6000fd5b6000620006aa81620013c0565b620006b462001418565b50565b60008051602062004be8833981519152620006d281620013c0565b60405163114ea66760e01b81523360048201526000906001600160a01b0384169063114ea66790602401602060405180830381600087803b1580156200071757600080fd5b505af11580156200072c573d6000803e3d6000fd5b505050506040513d601f19601f8201168201806040525081019062000752919062001ef4565b90506200077f60405180604001604052806007815260200166636f7369676e7360c81b81525082620014ad565b6000836001600160a01b031663cf42d4d96040518163ffffffff1660e01b815260040160206040518083038186803b158015620007bb57600080fd5b505afa158015620007d0573d6000803e3d6000fd5b505050506040513d601f19601f82011682018060405250810190620007f6919062001ef4565b62000802908362001f24565b6001600160a01b0385166370166af76200081e60018662001f46565b6040518263ffffffff1660e01b81526004016200083d91815260200190565b60206040518083038186803b1580156200085657600080fd5b505afa1580156200086b573d6000803e3d6000fd5b505050506040513d601f19601f8201168201806040525081019062000891919062001ef4565b6200089d919062001f46565b60fc5460fd5460405163a9059cbb60e01b81526001600160a01b03918216600482015260248101849052929350169063a9059cbb90604401602060405180830381600087803b158015620008f057600080fd5b505af115801562000905573d6000803e3d6000fd5b505050506040513d601f19601f820116820180604052508101906200092b919062001f60565b5060fc60009054906101000a90046001600160a01b03166001600160a01b031663a9059cbb856001600160a01b0316638dc45d9a6040518163ffffffff1660e01b815260040160206040518083038186803b1580156200098a57600080fd5b505afa1580156200099f573d6000803e3d6000fd5b505050506040513d601f19601f82011682018060405250810190620009c5919062001f84565b866001600160a01b031663cf42d4d96040518163ffffffff1660e01b815260040160206040518083038186803b158015620009ff57600080fd5b505afa15801562000a14573d6000803e3d6000fd5b505050506040513d601f19601f8201168201806040525081019062000a3a919062001ef4565b6040516001600160e01b031960e085901b1681526001600160a01b0390921660048301526024820152604401602060405180830381600087803b15801562000a8157600080fd5b505af115801562000a96573d6000803e3d6000fd5b505050506040513d601f19601f8201168201806040525081019062000abc919062001f60565b5060005b62000acd60018462001f46565b81101562000d8b57604080518082018252600b81526a7472616e7366657220746f60a81b60208201529051630a20c39d60e31b81526004810183905262000bf4919083906001600160a01b038916906351061ce89060240160206040518083038186803b15801562000b3e57600080fd5b505afa15801562000b53573d6000803e3d6000fd5b505050506040513d601f19601f8201168201806040525081019062000b79919062001f84565b886001600160a01b031663cf42d4d96040518163ffffffff1660e01b815260040160206040518083038186803b15801562000bb357600080fd5b505afa15801562000bc8573d6000803e3d6000fd5b505050506040513d601f19601f8201168201806040525081019062000bee919062001ef4565b620014f6565b60fc54604051630a20c39d60e31b8152600481018390526001600160a01b039182169163a9059cbb91908816906351061ce89060240160206040518083038186803b15801562000c4357600080fd5b505afa15801562000c58573d6000803e3d6000fd5b505050506040513d601f19601f8201168201806040525081019062000c7e919062001f84565b876001600160a01b031663cf42d4d96040518163ffffffff1660e01b815260040160206040518083038186803b15801562000cb857600080fd5b505afa15801562000ccd573d6000803e3d6000fd5b505050506040513d601f19601f8201168201806040525081019062000cf3919062001ef4565b6040516001600160e01b031960e085901b1681526001600160a01b0390921660048301526024820152604401602060405180830381600087803b15801562000d3a57600080fd5b505af115801562000d4f573d6000803e3d6000fd5b505050506040513d601f19601f8201168201806040525081019062000d75919062001f60565b508062000d828162001fa4565b91505062000ac0565b50604080516001600160a01b03861681526020810184905233917f926d849ad756dace5fd2d3be7814fe6832ed0634595db617736aa68c22fbe57a910160405180910390a250505050565b600062000de381620013c0565b62000df084848462001543565b50505050565b60008051602062004bc883398151915262000e1181620013c0565b6200061460008051602062004be883398151915283620010bf565b600062000e3981620013c0565b620006b4620015cb565b60008051602062004bc883398151915262000e5e81620013c0565b60fe5460fc546040516370a0823160e01b81526001600160a01b038581166004830152909116906370a082319060240160206040518083038186803b15801562000ea757600080fd5b505afa15801562000ebc573d6000803e3d6000fd5b505050506040513d601f19601f8201168201806040525081019062000ee2919062001ef4565b101562000f285760405162461bcd60e51b8152602060048201526013602482015272746f6f2066657720766f746520746f6b656e7360681b6044820152606401620004e8565b6200061460008051602062004be8833981519152836200056d565b600082815260c96020526040812062000f5d908362001649565b9392505050565b60009182526097602090815260408084206001600160a01b0393909316845291905290205460ff1690565b600062000f9d600162001657565b9050801562000fb6576000805461ff0019166101001790555b62000fc0620016e7565b62000fca6200171d565b60fb80546001600160a01b0319163390811790915562000fed90600090620013cc565b6200100860008051602062004bc883398151915233620013cc565b6200103260008051602062004be883398151915260008051602062004bc883398151915262001747565b6200104d60008051602062004be883398151915233620013cc565b6200105a84848462001543565b801562000df0576000805461ff0019169055604051600181527f7f26b83ff96e1f2b6a682f133852f6798a09c465da95921460cefb38474024989060200160405180910390a150505050565b600081815260c9602052604081206200048f9062001792565b600082815260976020526040902060010154620010dc81620013c0565b620005688383620013f2565b600033604051620010f99062001cc2565b6001600160a01b039091168152602001604051809103906000f08015801562001126573d6000803e3d6000fd5b506040516302fe530560e01b81529091506001600160a01b038216906302fe530590620011589085906004016200201f565b600060405180830381600087803b1580156200117357600080fd5b505af115801562001188573d6000803e3d6000fd5b50505050336001600160a01b03167f146ddef386e47fc48e21592f2b3a3b7444ddcdf69c03ccd2946e33ab8329dd6c8383604051620011c992919062002034565b60405180910390a2919050565b6000620011e381620013c0565b6040516370a0823160e01b81523060048201526000906001600160a01b038516906370a082319060240160206040518083038186803b1580156200122657600080fd5b505afa1580156200123b573d6000803e3d6000fd5b505050506040513d601f19601f8201168201806040525081019062001261919062001ef4565b905060008111620012b55760405162461bcd60e51b815260206004820152601860248201527f6e6565642062616c616e636520746f20776974686472617700000000000000006044820152606401620004e8565b80831115620012fe5760405162461bcd60e51b81526020600482015260146024820152730c8dedc4ee840d0c2ecca40e8d0c2e840daeac6d60631b6044820152606401620004e8565b60405163a9059cbb60e01b8152336004820152602481018290526001600160a01b0385169063a9059cbb90604401602060405180830381600087803b1580156200134757600080fd5b505af11580156200135c573d6000803e3d6000fd5b505050506040513d601f19601f8201168201806040525081019062001382919062001f60565b5050505050565b60006001600160e01b03198216637965db0b60e01b14806200048f57506301ffc9a760e01b6001600160e01b03198316146200048f565b620006b481336200179d565b620013d882826200180c565b600082815260c96020526040902062000568908262001896565b620013fe8282620018ad565b600082815260c96020526040902062000568908262001917565b60335460ff16620014635760405162461bcd60e51b815260206004820152601460248201527314185d5cd8589b194e881b9bdd081c185d5cd95960621b6044820152606401620004e8565b6033805460ff191690557f5db9ee0a495bf2e6ff9c91a7834c1ba4fdd244a5e8aa4e537bd38aeae4b073aa335b6040516001600160a01b03909116815260200160405180910390a1565b620006148282604051602401620014c692919062002060565b60408051601f198184030181529190526020810180516001600160e01b03166309710a9d60e41b1790526200192e565b62000df08484848460405160240162001513949392919062002084565b60408051601f198184030181529190526020810180516001600160e01b0316632c24bd7f60e11b1790526200192e565b60fc80546001600160a01b038086166001600160a01b03199283161790925560fd8054858416921691909117905560ff54620015919160008051602062004bc88339815191529116620010bf565b60ff80546001600160a01b0319166001600160a01b038316908117909155620005689060008051602062004bc8833981519152906200056d565b60335460ff1615620016135760405162461bcd60e51b815260206004820152601060248201526f14185d5cd8589b194e881c185d5cd95960821b6044820152606401620004e8565b6033805460ff191660011790557f62e78cea01bee320cd4e420270b5ea74000d11b0c9f74754ebdbfc544b05a258620014903390565b600062000f5d83836200194f565b60008054610100900460ff1615620016a3578160ff1660011480156200167c5750303b155b6200169b5760405162461bcd60e51b8152600401620004e890620020be565b506000919050565b60005460ff808416911610620016cd5760405162461bcd60e51b8152600401620004e890620020be565b506000805460ff191660ff92909216919091179055600190565b600054610100900460ff16620017115760405162461bcd60e51b8152600401620004e8906200210c565b6200171b6200197c565b565b600054610100900460ff166200171b5760405162461bcd60e51b8152600401620004e8906200210c565b600082815260976020526040808220600101805490849055905190918391839186917fbd79b86ffe0ab8e8776151514217cd7cacd52c909f66475c3af44e129f0b00ff9190a4505050565b60006200048f825490565b620017a9828262000f64565b6200061457620017c4816001600160a01b03166014620019b2565b620017d1836020620019b2565b604051602001620017e492919062002157565b60408051601f198184030181529082905262461bcd60e51b8252620004e8916004016200201f565b62001818828262000f64565b620006145760008281526097602090815260408083206001600160a01b03851684529091529020805460ff19166001179055620018523390565b6001600160a01b0316816001600160a01b0316837f2f8788117e7eff1d82e926ec794901d17c78024a50270940304540a733656f0d60405160405180910390a45050565b600062000f5d836001600160a01b03841662001b6c565b620018b9828262000f64565b15620006145760008281526097602090815260408083206001600160a01b0385168085529252808320805460ff1916905551339285917ff6391f5c32d9c69d2a47ea670b442974b53935d1edc7fd64eb21e047a839171b9190a45050565b600062000f5d836001600160a01b03841662001bbe565b80516a636f6e736f6c652e6c6f67602083016000808483855afa5050505050565b6000826000018281548110620019695762001969620021d0565b9060005260206000200154905092915050565b600054610100900460ff16620019a65760405162461bcd60e51b8152600401620004e8906200210c565b6033805460ff19169055565b60606000620019c383600262001f24565b620019d0906002620021e6565b67ffffffffffffffff811115620019eb57620019eb62001df4565b6040519080825280601f01601f19166020018201604052801562001a16576020820181803683370190505b509050600360fc1b8160008151811062001a345762001a34620021d0565b60200101906001600160f81b031916908160001a905350600f60fb1b8160018151811062001a665762001a66620021d0565b60200101906001600160f81b031916908160001a905350600062001a8c84600262001f24565b62001a99906001620021e6565b90505b600181111562001b1b576f181899199a1a9b1b9c1cb0b131b232b360811b85600f166010811062001ad15762001ad1620021d0565b1a60f81b82828151811062001aea5762001aea620021d0565b60200101906001600160f81b031916908160001a90535060049490941c9362001b138162002201565b905062001a9c565b50831562000f5d5760405162461bcd60e51b815260206004820181905260248201527f537472696e67733a20686578206c656e67746820696e73756666696369656e746044820152606401620004e8565b600081815260018301602052604081205462001bb5575081546001818101845560008481526020808220909301849055845484825282860190935260409020919091556200048f565b5060006200048f565b6000818152600183016020526040812054801562001cb757600062001be560018362001f46565b855490915060009062001bfb9060019062001f46565b905081811462001c6757600086600001828154811062001c1f5762001c1f620021d0565b906000526020600020015490508087600001848154811062001c455762001c45620021d0565b6000918252602080832090910192909255918252600188019052604090208390555b855486908062001c7b5762001c7b6200221b565b6001900381819060005260206000200160009055905585600101600086815260200190815260200160002060009055600193505050506200048f565b60009150506200048f565b612996806200223283390190565b60006020828403121562001ce357600080fd5b81356001600160e01b03198116811462000f5d57600080fd5b60006020828403121562001d0f57600080fd5b5035919050565b6001600160a01b0381168114620006b457600080fd5b6000806040838503121562001d4057600080fd5b82359150602083013562001d548162001d16565b809150509250929050565b60006020828403121562001d7257600080fd5b813562000f5d8162001d16565b60008060006060848603121562001d9557600080fd5b833562001da28162001d16565b9250602084013562001db48162001d16565b9150604084013562001dc68162001d16565b809150509250925092565b6000806040838503121562001de557600080fd5b50508035926020909101359150565b634e487b7160e01b600052604160045260246000fd5b60006020828403121562001e1d57600080fd5b813567ffffffffffffffff8082111562001e3657600080fd5b818401915084601f83011262001e4b57600080fd5b81358181111562001e605762001e6062001df4565b604051601f8201601f19908116603f0116810190838211818310171562001e8b5762001e8b62001df4565b8160405282815287602084870101111562001ea557600080fd5b826020860160208301376000928101602001929092525095945050505050565b6000806040838503121562001ed957600080fd5b823562001ee68162001d16565b946020939093013593505050565b60006020828403121562001f0757600080fd5b5051919050565b634e487b7160e01b600052601160045260246000fd5b600081600019048311821515161562001f415762001f4162001f0e565b500290565b60008282101562001f5b5762001f5b62001f0e565b500390565b60006020828403121562001f7357600080fd5b8151801515811462000f5d57600080fd5b60006020828403121562001f9757600080fd5b815162000f5d8162001d16565b600060001982141562001fbb5762001fbb62001f0e565b5060010190565b60005b8381101562001fdf57818101518382015260200162001fc5565b8381111562000df05750506000910152565b600081518084526200200b81602086016020860162001fc2565b601f01601f19169290920160200192915050565b60208152600062000f5d602083018462001ff1565b60408152600062002049604083018562001ff1565b905060018060a01b03831660208301529392505050565b60408152600062002075604083018562001ff1565b90508260208301529392505050565b60808152600062002099608083018762001ff1565b6020830195909552506001600160a01b03929092166040830152606090910152919050565b6020808252602e908201527f496e697469616c697a61626c653a20636f6e747261637420697320616c72656160408201526d191e481a5b9a5d1a585b1a5e995960921b606082015260800190565b6020808252602b908201527f496e697469616c697a61626c653a20636f6e7472616374206973206e6f74206960408201526a6e697469616c697a696e6760a81b606082015260800190565b7f416363657373436f6e74726f6c3a206163636f756e74200000000000000000008152600083516200219181601785016020880162001fc2565b7001034b99036b4b9b9b4b733903937b6329607d1b6017918401918201528351620021c481602884016020880162001fc2565b01602801949350505050565b634e487b7160e01b600052603260045260246000fd5b60008219821115620021fc57620021fc62001f0e565b500190565b60008162002213576200221362001f0e565b506000190190565b634e487b7160e01b600052603160045260246000fdfe6000600590815567d02ab486cedc00006007556101206040526802b5e3af16b18800006080908152680340aad21b3b70000060a0526803cb71f51fc558000060c0526804563918244f40000060e0526804e1003b28d9280000610100526200006b916008919062000178565b5060056012556013805460ff191690553480156200008857600080fd5b506040516200299638038062002996833981016040819052620000ab916200025a565b6040518060600160405280602981526020016200296d60299139620000d0816200010d565b50620000dc3362000126565b6003805460ff60a01b19169055600680546001600160a01b0383166001600160a01b031990911617905550620002c9565b805162000122906002906020840190620001c6565b5050565b600380546001600160a01b038381166001600160a01b0319831681179093556040519116919082907f8be0079c531659141344cd1fd0a4f28419497f9722a3daafe3b4186f6b6457e090600090a35050565b8260058101928215620001b4579160200282015b82811115620001b457825182906001600160481b03169055916020019190600101906200018c565b50620001c292915062000243565b5090565b828054620001d4906200028c565b90600052602060002090601f016020900481019282620001f85760008555620001b4565b82601f106200021357805160ff1916838001178555620001b4565b82800160010185558215620001b4579182015b82811115620001b457825182559160200191906001019062000226565b5b80821115620001c2576000815560010162000244565b6000602082840312156200026d57600080fd5b81516001600160a01b03811681146200028557600080fd5b9392505050565b600181811c90821680620002a157607f821691505b60208210811415620002c357634e487b7160e01b600052602260045260246000fd5b50919050565b61269480620002d96000396000f3fe608060405234801561001057600080fd5b50600436106101d95760003560e01c806370166af711610104578063a22cb465116100a2578063f242432a11610071578063f242432a1461042e578063f2fde38b14610441578063f4fdccf814610454578063f5298aca1461045d57600080fd5b8063a22cb465146103b6578063bd85b039146103c9578063cf42d4d9146103e9578063e985e9c5146103f257600080fd5b80638456cb59116100de5780638456cb591461037d57806389275407146103855780638da5cb5b146103925780638dc45d9a146103a357600080fd5b806370166af71461034f578063715018a614610362578063731133e91461036a57600080fd5b80633f4ba83a1161017c5780634f558e791161014b5780634f558e79146102dd57806351061ce8146102ff5780635c975abb1461032a5780636b20c4541461033c57600080fd5b80633f4ba83a14610295578063404d21951461029d5780634ba7db30146102a65780634e1273f4146102bd57600080fd5b80630e89341c116101b85780630e89341c1461023c578063114ea6671461025c5780631f7fdffa1461026f5780632eb2c2d61461028257600080fd5b8062fdd58e146101de57806301ffc9a71461020457806302fe530514610227575b600080fd5b6101f16101ec366004611b41565b610470565b6040519081526020015b60405180910390f35b610217610212366004611b81565b610507565b60405190151581526020016101fb565b61023a610235366004611c46565b610559565b005b61024f61024a366004611c97565b61058f565b6040516101fb9190611cfd565b6101f161026a366004611d10565b610623565b61023a61027d366004611de0565b6106c6565b61023a610290366004611e79565b61073e565b61023a6107d5565b6101f160125481565b6005546000908152600460205260409020546101f1565b6102d06102cb366004611f23565b610809565b6040516101fb9190612029565b6102176102eb366004611c97565b600090815260046020526040902054151590565b61031261030d366004611c97565b610933565b6040516001600160a01b0390911681526020016101fb565b600354600160a01b900460ff16610217565b61023a61034a36600461203c565b610953565b6101f161035d366004611c97565b61099b565b61023a6109b2565b61023a6103783660046120b0565b6109e6565b61023a610ab8565b6013546102179060ff1681565b6003546001600160a01b0316610312565b600654610312906001600160a01b031681565b61023a6103c4366004612105565b610aea565b6101f16103d7366004611c97565b60009081526004602052604090205490565b6101f160075481565b610217610400366004612141565b6001600160a01b03918216600090815260016020908152604080832093909416825291909152205460ff1690565b61023a61043c366004612174565b610af9565b61023a61044f366004611d10565b610b3e565b6101f160055481565b61023a61046b3660046121d9565b610bd6565b60006001600160a01b0383166104e15760405162461bcd60e51b815260206004820152602b60248201527f455243313135353a2062616c616e636520717565727920666f7220746865207a60448201526a65726f206164647265737360a81b60648201526084015b60405180910390fd5b506000908152602081815260408083206001600160a01b03949094168352929052205490565b60006001600160e01b03198216636cdb3d1360e11b148061053857506001600160e01b031982166303a24d0760e21b145b8061055357506301ffc9a760e01b6001600160e01b03198316145b92915050565b6003546001600160a01b031633146105835760405162461bcd60e51b81526004016104d89061220c565b61058c81610c19565b50565b60606002805461059e90612241565b80601f01602080910402602001604051908101604052809291908181526020018280546105ca90612241565b80156106175780601f106105ec57610100808354040283529160200191610617565b820191906000526020600020905b8154815290600101906020018083116105fa57829003601f168201915b50505050509050919050565b6003546000906001600160a01b031633146106505760405162461bcd60e51b81526004016104d89061220c565b6013805460ff1916600117905560055460009081526004602052604081205461067a906001612292565b60405160200161068c91815260200190565b60405160208183030381529060405290506106ac836005546001846109e6565b50506005546000908152600460205260409020545b919050565b6003546001600160a01b031633146106f05760405162461bcd60e51b81526004016104d89061220c565b60405162461bcd60e51b815260206004820152601f60248201527f64697361626c656420666f72206e6f772e20757365205f6d696e74282e2e290060448201526064016104d8565b50505050565b6001600160a01b03851633148061075a575061075a8533610400565b6107c15760405162461bcd60e51b815260206004820152603260248201527f455243313135353a207472616e736665722063616c6c6572206973206e6f74206044820152711bdddb995c881b9bdc88185c1c1c9bdd995960721b60648201526084016104d8565b6107ce8585858585610d2c565b5050505050565b6003546001600160a01b031633146107ff5760405162461bcd60e51b81526004016104d89061220c565b610807610ed6565b565b6060815183511461086e5760405162461bcd60e51b815260206004820152602960248201527f455243313135353a206163636f756e747320616e6420696473206c656e677468604482015268040dad2e6dac2e8c6d60bb1b60648201526084016104d8565b6000835167ffffffffffffffff81111561088a5761088a611ba5565b6040519080825280602002602001820160405280156108b3578160200160208202803683370190505b50905060005b845181101561092b576108fe8582815181106108d7576108d76122aa565b60200260200101518583815181106108f1576108f16122aa565b6020026020010151610470565b828281518110610910576109106122aa565b6020908102919091010152610924816122c0565b90506108b9565b509392505050565b600d816005811061094357600080fd5b01546001600160a01b0316905081565b6001600160a01b03831633148061096f575061096f8333610400565b61098b5760405162461bcd60e51b81526004016104d8906122db565b610996838383610f73565b505050565b600881600581106109ab57600080fd5b0154905081565b6003546001600160a01b031633146109dc5760405162461bcd60e51b81526004016104d89061220c565b610807600061110f565b6003546001600160a01b03163314610a105760405162461bcd60e51b81526004016104d89061220c565b6005805460009081526004602052604090205410610a625760405162461bcd60e51b815260206004820152600f60248201526e63616e2774206d696e74206d6f726560881b60448201526064016104d8565b83600d610a7d60055460009081526004602052604090205490565b60058110610a8d57610a8d6122aa565b0180546001600160a01b0319166001600160a01b039290921691909117905561073884848484611161565b6003546001600160a01b03163314610ae25760405162461bcd60e51b81526004016104d89061220c565b610807611284565b610af533838361130c565b5050565b6001600160a01b038516331480610b155750610b158533610400565b610b315760405162461bcd60e51b81526004016104d8906122db565b6107ce85858585856113ed565b6003546001600160a01b03163314610b685760405162461bcd60e51b81526004016104d89061220c565b6001600160a01b038116610bcd5760405162461bcd60e51b815260206004820152602660248201527f4f776e61626c653a206e6577206f776e657220697320746865207a65726f206160448201526564647265737360d01b60648201526084016104d8565b61058c8161110f565b6001600160a01b038316331480610bf25750610bf28333610400565b610c0e5760405162461bcd60e51b81526004016104d8906122db565b610996838383611525565b8051610af5906002906020840190611a91565b8451811015610cc457838181518110610c4757610c476122aa565b6020026020010151600080878481518110610c6457610c646122aa565b602002602001015181526020019081526020016000206000886001600160a01b03166001600160a01b031681526020019081526020016000206000828254610cac9190612292565b90915550819050610cbc816122c0565b915050610c2c565b50846001600160a01b031660006001600160a01b0316826001600160a01b03167f4a39dc06d4c0dbc64b70af90fd698a233a518aa5d07e595d983b8c0526c8f7fb8787604051610d1592919061236c565b60405180910390a46107ce81600087878787611698565b8151835114610d4d5760405162461bcd60e51b81526004016104d890612324565b6001600160a01b038416610d735760405162461bcd60e51b81526004016104d89061239a565b33610d8281878787878761163d565b60005b8451811015610e68576000858281518110610da257610da26122aa565b602002602001015190506000858381518110610dc057610dc06122aa565b602090810291909101810151600084815280835260408082206001600160a01b038e168352909352919091205490915081811015610e105760405162461bcd60e51b81526004016104d8906123df565b6000838152602081815260408083206001600160a01b038e8116855292528083208585039055908b16825281208054849290610e4d908490612292565b9250508190555050505080610e61906122c0565b9050610d85565b50846001600160a01b0316866001600160a01b0316826001600160a01b03167f4a39dc06d4c0dbc64b70af90fd698a233a518aa5d07e595d983b8c0526c8f7fb8787604051610eb892919061236c565b60405180910390a4610ece818787878787611698565b505050505050565b600354600160a01b900460ff16610f265760405162461bcd60e51b815260206004820152601460248201527314185d5cd8589b194e881b9bdd081c185d5cd95960621b60448201526064016104d8565b6003805460ff60a01b191690557f5db9ee0a495bf2e6ff9c91a7834c1ba4fdd244a5e8aa4e537bd38aeae4b073aa335b6040516001600160a01b03909116815260200160405180910390a1565b6001600160a01b038316610f995760405162461bcd60e51b81526004016104d890612429565b8051825114610fba5760405162461bcd60e51b81526004016104d890612324565b6000339050610fdd8185600086866040518060200160405280600081525061163d565b60005b83518110156110a2576000848281518110610ffd57610ffd6122aa565b60200260200101519050600084838151811061101b5761101b6122aa565b602090810291909101810151600084815280835260408082206001600160a01b038c16835290935291909120549091508181101561106b5760405162461bcd60e51b81526004016104d89061246c565b6000928352602083815260408085206001600160a01b038b168652909152909220910390558061109a816122c0565b915050610fe0565b5060006001600160a01b0316846001600160a01b0316826001600160a01b03167f4a39dc06d4c0dbc64b70af90fd698a233a518aa5d07e595d983b8c0526c8f7fb86866040516110f392919061236c565b60405180910390a4604080516020810190915260009052610738565b600380546001600160a01b038381166001600160a01b0319831681179093556040519116919082907f8be0079c531659141344cd1fd0a4f28419497f9722a3daafe3b4186f6b6457e090600090a35050565b6001600160a01b0384166111c15760405162461bcd60e51b815260206004820152602160248201527f455243313135353a206d696e7420746f20746865207a65726f206164647265736044820152607360f81b60648201526084016104d8565b3360006111cd85611803565b905060006111da85611803565b90506111eb8360008985858961163d565b6000868152602081815260408083206001600160a01b038b1684529091528120805487929061121b908490612292565b909155505060408051878152602081018790526001600160a01b03808a1692600092918716917fc3d58168c5ae7397731d063d5bbf3d657854427343f4c083240f7aacaa2d0f62910160405180910390a461127b8360008989898961184e565b50505050505050565b600354600160a01b900460ff16156112d15760405162461bcd60e51b815260206004820152601060248201526f14185d5cd8589b194e881c185d5cd95960821b60448201526064016104d8565b6003805460ff60a01b1916600160a01b1790557f62e78cea01bee320cd4e420270b5ea74000d11b0c9f74754ebdbfc544b05a258610f563390565b816001600160a01b0316836001600160a01b031614156113805760405162461bcd60e51b815260206004820152602960248201527f455243313135353a2073657474696e6720617070726f76616c20737461747573604482015268103337b91039b2b63360b91b60648201526084016104d8565b6001600160a01b03838116600081815260016020908152604080832094871680845294825291829020805460ff191686151590811790915591519182527f17307eab39ab6107e8899845ad3d59bd9653f200f220920489ca2b5937696c31910160405180910390a3505050565b6001600160a01b0384166114135760405162461bcd60e51b81526004016104d89061239a565b33600061141f85611803565b9050600061142c85611803565b905061143c83898985858961163d565b6000868152602081815260408083206001600160a01b038c1684529091529020548581101561147d5760405162461bcd60e51b81526004016104d8906123df565b6000878152602081815260408083206001600160a01b038d8116855292528083208985039055908a168252812080548892906114ba908490612292565b909155505060408051888152602081018890526001600160a01b03808b16928c821692918816917fc3d58168c5ae7397731d063d5bbf3d657854427343f4c083240f7aacaa2d0f62910160405180910390a461151a848a8a8a8a8a61184e565b505050505050505050565b6001600160a01b03831661154b5760405162461bcd60e51b81526004016104d890612429565b33600061155784611803565b9050600061156484611803565b90506115848387600085856040518060200160405280600081525061163d565b6000858152602081815260408083206001600160a01b038a168452909152902054848110156115c55760405162461bcd60e51b81526004016104d89061246c565b6000868152602081815260408083206001600160a01b038b81168086529184528285208a8703905582518b81529384018a90529092908816917fc3d58168c5ae7397731d063d5bbf3d657854427343f4c083240f7aacaa2d0f62910160405180910390a460408051602081019091526000905261127b565b600354600160a01b900460ff161561168a5760405162461bcd60e51b815260206004820152601060248201526f14185d5cd8589b194e881c185d5cd95960821b60448201526064016104d8565b610ece868686868686611918565b6001600160a01b0384163b15610ece5760405163bc197c8160e01b81526001600160a01b0385169063bc197c81906116dc90899089908890889088906004016124b0565b602060405180830381600087803b1580156116f657600080fd5b505af1925050508015611726575060408051601f3d908101601f191682019092526117239181019061250e565b60015b6117d35761173261252b565b806308c379a0141561176c5750611747612547565b80611752575061176e565b8060405162461bcd60e51b81526004016104d89190611cfd565b505b60405162461bcd60e51b815260206004820152603460248201527f455243313135353a207472616e7366657220746f206e6f6e20455243313135356044820152732932b1b2b4bb32b91034b6b83632b6b2b73a32b960611b60648201526084016104d8565b6001600160e01b0319811663bc197c8160e01b1461127b5760405162461bcd60e51b81526004016104d8906125d1565b6040805160018082528183019092526060916000919060208083019080368337019050509050828160008151811061183d5761183d6122aa565b602090810291909101015292915050565b6001600160a01b0384163b15610ece5760405163f23a6e6160e01b81526001600160a01b0385169063f23a6e61906118929089908990889088908890600401612619565b602060405180830381600087803b1580156118ac57600080fd5b505af19250505080156118dc575060408051601f3d908101601f191682019092526118d99181019061250e565b60015b6118e85761173261252b565b6001600160e01b0319811663f23a6e6160e01b1461127b5760405162461bcd60e51b81526004016104d8906125d1565b6001600160a01b03851661199f5760005b835181101561199d57828181518110611944576119446122aa565b602002602001015160046000868481518110611962576119626122aa565b6020026020010151815260200190815260200160002060008282546119879190612292565b909155506119969050816122c0565b9050611929565b505b6001600160a01b038416610ece5760005b835181101561127b5760008482815181106119cd576119cd6122aa565b6020026020010151905060008483815181106119eb576119eb6122aa565b6020026020010151905060006004600084815260200190815260200160002054905081811015611a6e5760405162461bcd60e51b815260206004820152602860248201527f455243313135353a206275726e20616d6f756e74206578636565647320746f74604482015267616c537570706c7960c01b60648201526084016104d8565b60009283526004602052604090922091039055611a8a816122c0565b90506119b0565b828054611a9d90612241565b90600052602060002090601f016020900481019282611abf5760008555611b05565b82601f10611ad857805160ff1916838001178555611b05565b82800160010185558215611b05579182015b82811115611b05578251825591602001919060010190611aea565b50611b11929150611b15565b5090565b5b80821115611b115760008155600101611b16565b80356001600160a01b03811681146106c157600080fd5b60008060408385031215611b5457600080fd5b611b5d83611b2a565b946020939093013593505050565b6001600160e01b03198116811461058c57600080fd5b600060208284031215611b9357600080fd5b8135611b9e81611b6b565b9392505050565b634e487b7160e01b600052604160045260246000fd5b601f8201601f1916810167ffffffffffffffff81118282101715611be157611be1611ba5565b6040525050565b600067ffffffffffffffff831115611c0257611c02611ba5565b604051611c19601f8501601f191660200182611bbb565b809150838152848484011115611c2e57600080fd5b83836020830137600060208583010152509392505050565b600060208284031215611c5857600080fd5b813567ffffffffffffffff811115611c6f57600080fd5b8201601f81018413611c8057600080fd5b611c8f84823560208401611be8565b949350505050565b600060208284031215611ca957600080fd5b5035919050565b6000815180845260005b81811015611cd657602081850181015186830182015201611cba565b81811115611ce8576000602083870101525b50601f01601f19169290920160200192915050565b602081526000611b9e6020830184611cb0565b600060208284031215611d2257600080fd5b611b9e82611b2a565b600067ffffffffffffffff821115611d4557611d45611ba5565b5060051b60200190565b600082601f830112611d6057600080fd5b81356020611d6d82611d2b565b604051611d7a8282611bbb565b83815260059390931b8501820192828101915086841115611d9a57600080fd5b8286015b84811015611db55780358352918301918301611d9e565b509695505050505050565b600082601f830112611dd157600080fd5b611b9e83833560208501611be8565b60008060008060808587031215611df657600080fd5b611dff85611b2a565b9350602085013567ffffffffffffffff80821115611e1c57600080fd5b611e2888838901611d4f565b94506040870135915080821115611e3e57600080fd5b611e4a88838901611d4f565b93506060870135915080821115611e6057600080fd5b50611e6d87828801611dc0565b91505092959194509250565b600080600080600060a08688031215611e9157600080fd5b611e9a86611b2a565b9450611ea860208701611b2a565b9350604086013567ffffffffffffffff80821115611ec557600080fd5b611ed189838a01611d4f565b94506060880135915080821115611ee757600080fd5b611ef389838a01611d4f565b93506080880135915080821115611f0957600080fd5b50611f1688828901611dc0565b9150509295509295909350565b60008060408385031215611f3657600080fd5b823567ffffffffffffffff80821115611f4e57600080fd5b818501915085601f830112611f6257600080fd5b81356020611f6f82611d2b565b604051611f7c8282611bbb565b83815260059390931b8501820192828101915089841115611f9c57600080fd5b948201945b83861015611fc157611fb286611b2a565b82529482019490820190611fa1565b96505086013592505080821115611fd757600080fd5b50611fe485828601611d4f565b9150509250929050565b600081518084526020808501945080840160005b8381101561201e57815187529582019590820190600101612002565b509495945050505050565b602081526000611b9e6020830184611fee565b60008060006060848603121561205157600080fd5b61205a84611b2a565b9250602084013567ffffffffffffffff8082111561207757600080fd5b61208387838801611d4f565b9350604086013591508082111561209957600080fd5b506120a686828701611d4f565b9150509250925092565b600080600080608085870312156120c657600080fd5b6120cf85611b2a565b93506020850135925060408501359150606085013567ffffffffffffffff8111156120f957600080fd5b611e6d87828801611dc0565b6000806040838503121561211857600080fd5b61212183611b2a565b91506020830135801515811461213657600080fd5b809150509250929050565b6000806040838503121561215457600080fd5b61215d83611b2a565b915061216b60208401611b2a565b90509250929050565b600080600080600060a0868803121561218c57600080fd5b61219586611b2a565b94506121a360208701611b2a565b93506040860135925060608601359150608086013567ffffffffffffffff8111156121cd57600080fd5b611f1688828901611dc0565b6000806000606084860312156121ee57600080fd5b6121f784611b2a565b95602085013595506040909401359392505050565b6020808252818101527f4f776e61626c653a2063616c6c6572206973206e6f7420746865206f776e6572604082015260600190565b600181811c9082168061225557607f821691505b6020821081141561227657634e487b7160e01b600052602260045260246000fd5b50919050565b634e487b7160e01b600052601160045260246000fd5b600082198211156122a5576122a561227c565b500190565b634e487b7160e01b600052603260045260246000fd5b60006000198214156122d4576122d461227c565b5060010190565b60208082526029908201527f455243313135353a2063616c6c6572206973206e6f74206f776e6572206e6f7260408201526808185c1c1c9bdd995960ba1b606082015260800190565b60208082526028908201527f455243313135353a2069647320616e6420616d6f756e7473206c656e677468206040820152670dad2e6dac2e8c6d60c31b606082015260800190565b60408152600061237f6040830185611fee565b82810360208401526123918185611fee565b95945050505050565b60208082526025908201527f455243313135353a207472616e7366657220746f20746865207a65726f206164604082015264647265737360d81b606082015260800190565b6020808252602a908201527f455243313135353a20696e73756666696369656e742062616c616e636520666f60408201526939103a3930b739b332b960b11b606082015260800190565b60208082526023908201527f455243313135353a206275726e2066726f6d20746865207a65726f206164647260408201526265737360e81b606082015260800190565b60208082526024908201527f455243313135353a206275726e20616d6f756e7420657863656564732062616c604082015263616e636560e01b606082015260800190565b6001600160a01b0386811682528516602082015260a0604082018190526000906124dc90830186611fee565b82810360608401526124ee8186611fee565b905082810360808401526125028185611cb0565b98975050505050505050565b60006020828403121561252057600080fd5b8151611b9e81611b6b565b600060033d11156125445760046000803e5060005160e01c5b90565b600060443d10156125555790565b6040516003193d81016004833e81513d67ffffffffffffffff816024840111818411171561258557505050505090565b828501915081518181111561259d5750505050505090565b843d87010160208285010111156125b75750505050505090565b6125c660208286010187611bbb565b509095945050505050565b60208082526028908201527f455243313135353a204552433131353552656365697665722072656a656374656040820152676420746f6b656e7360c01b606082015260800190565b6001600160a01b03868116825285166020820152604081018490526060810183905260a06080820181905260009061265390830184611cb0565b97965050505050505056fea2646970667358221220712ffa69796dc98bd6d3575e4ebb65fe0acba32a28b833a220332d91537e75c164736f6c6343000809003368747470733a2f2f697066732e70686c6f74652e78797a2f686f7464726f702f7b69647d2e6a736f6eef14a10db1c6a9e9bc0361fb487716acd51f68d6d1b2831e0d8878dc26e2faae0aec9b08bc8c2cb62a91f52d33e3d77da4b3f3a63fc8b542a93abe3902ba929ca26469706673582212204346d5f61795fdba1c793b4649532c5c5b1f826f87defee6f0349257a452edd464736f6c63430008090033",
  "devdoc": {
    "author": "Zachary Fogg <me@zfo.gg>",
    "custom:security-contact": "nohackplz@phlote.xyz",
    "details": "Please check the tests for this contract when making changes!",
    "kind": "dev",
    "methods": {
      "constructor": {
        "custom:oz-upgrades-unsafe-allow": "constructor"
      },
      "curate(address)": {
        "details": "Curate a Hotdrop NFT (un-curated) that was submitted to us.",
        "params": {
          "_hotdrop": "The address of the hotdrop to curate."
        }
      },
      "getRoleAdmin(bytes32)": {
        "details": "Returns the admin role that controls `role`. See {grantRole} and {revokeRole}. To change a role's admin, use {_setRoleAdmin}."
      },
      "getRoleMember(bytes32,uint256)": {
        "details": "Returns one of the accounts that have `role`. `index` must be a value between 0 and {getRoleMemberCount}, non-inclusive. Role bearers are not sorted in any particular way, and their ordering may change at any point. WARNING: When using {getRoleMember} and {getRoleMemberCount}, make sure you perform all queries on the same block. See the following https://forum.openzeppelin.com/t/iterating-over-elements-on-enumerableset-in-openzeppelin-contracts/2296[forum post] for more information."
      },
      "getRoleMemberCount(bytes32)": {
        "details": "Returns the number of accounts that have `role`. Can be used together with {getRoleMember} to enumerate all bearers of a role."
      },
      "grantCuratorRole(address)": {
        "details": "Give an address the `CURATOR` role.",
        "params": {
          "_newCurator": "The address of the curator who has enough PhloteVote tokes to curate for us."
        }
      },
      "grantRole(bytes32,address)": {
        "details": "Grants `role` to `account`. If `account` had not been already granted `role`, emits a {RoleGranted} event. Requirements: - the caller must have ``role``'s admin role."
      },
      "hasRole(bytes32,address)": {
        "details": "Returns `true` if `account` has been granted `role`."
      },
      "initialize(address,address,address)": {
        "details": "The constructor function. It also calls the upgrade function.",
        "params": {
          "_vote": "Phlote's ERC20 DAO token."
        }
      },
      "onUpgrade(address,address,address)": {
        "details": "The upgrade function. To be called by the constructor as well.",
        "params": {
          "_vote": "Phlote's ERC20 DAO token."
        }
      },
      "pause()": {
        "details": "To allow functionality via contract owner action."
      },
      "paused()": {
        "details": "Returns true if the contract is paused, and false otherwise."
      },
      "renounceRole(bytes32,address)": {
        "details": "Revokes `role` from the calling account. Roles are often managed via {grantRole} and {revokeRole}: this function's purpose is to provide a mechanism for accounts to lose their privileges if they are compromised (such as when a trusted device is misplaced). If the calling account had been revoked `role`, emits a {RoleRevoked} event. Requirements: - the caller must be `account`."
      },
      "revokeCuratorRole(address)": {
        "details": "Revoke an address's `CURATOR` role.",
        "params": {
          "_oldCurator": "The address of the curator to disallow from Phlote curation."
        }
      },
      "revokeRole(bytes32,address)": {
        "details": "Revokes `role` from `account`. If `account` had been granted `role`, emits a {RoleRevoked} event. Requirements: - the caller must have ``role``'s admin role."
      },
      "submit(string)": {
        "details": "Create an NFT (\"Hotdrop\") of your musical internet findings that may be curated in the future.",
        "params": {
          "_ipfsURI": "The ipfs://Qm... URI of the metadata for this submission."
        },
        "returns": {
          "hotdrop": "The address of the new Hotdrop contract that was deployed from this submission."
        }
      },
      "supportsInterface(bytes4)": {
        "details": "See {IERC165-supportsInterface}."
      },
      "unpause()": {
        "details": "To disallow functionality via contract owner action."
      },
      "withdraw()": {
        "details": "The owner may withdraw all of the native funds."
      },
      "withdraw(address,uint256)": {
        "details": "The owner may withdraw any ERC20 token.",
        "params": {
          "_amount": "The balance of native currency to withdraw.",
          "_token": "An ERC20 token of which we have a balance."
        }
      },
      "withdraw(uint256)": {
        "details": "The owner may withdraw some of the native funds.",
        "params": {
          "_amount": "The balance of native currency to withdraw."
        }
      }
    },
    "title": "A factor and manager for \"Hotdrop\" NFTs (Phlote user-submitted-content).",
    "version": 1
  },
  "userdoc": {
    "kind": "user",
    "methods": {},
    "notice": "This contract's events should be indexed for use by front-ends.",
    "version": 1
  },
  "storageLayout": {
    "storage": [
      {
        "astId": 589,
        "contract": "contracts/Curator.sol:Curator",
        "label": "_initialized",
        "offset": 0,
        "slot": "0",
        "type": "t_uint8"
      },
      {
        "astId": 592,
        "contract": "contracts/Curator.sol:Curator",
        "label": "_initializing",
        "offset": 1,
        "slot": "0",
        "type": "t_bool"
      },
      {
        "astId": 1119,
        "contract": "contracts/Curator.sol:Curator",
        "label": "__gap",
        "offset": 0,
        "slot": "1",
        "type": "t_array(t_uint256)50_storage"
      },
      {
        "astId": 745,
        "contract": "contracts/Curator.sol:Curator",
        "label": "_paused",
        "offset": 0,
        "slot": "51",
        "type": "t_bool"
      },
      {
        "astId": 834,
        "contract": "contracts/Curator.sol:Curator",
        "label": "__gap",
        "offset": 0,
        "slot": "52",
        "type": "t_array(t_uint256)49_storage"
      },
      {
        "astId": 1440,
        "contract": "contracts/Curator.sol:Curator",
        "label": "__gap",
        "offset": 0,
        "slot": "101",
        "type": "t_array(t_uint256)50_storage"
      },
      {
        "astId": 184,
        "contract": "contracts/Curator.sol:Curator",
        "label": "_roles",
        "offset": 0,
        "slot": "151",
        "type": "t_mapping(t_bytes32,t_struct(RoleData)179_storage)"
      },
      {
        "astId": 483,
        "contract": "contracts/Curator.sol:Curator",
        "label": "__gap",
        "offset": 0,
        "slot": "152",
        "type": "t_array(t_uint256)49_storage"
      },
      {
        "astId": 33,
        "contract": "contracts/Curator.sol:Curator",
        "label": "_roleMembers",
        "offset": 0,
        "slot": "201",
        "type": "t_mapping(t_bytes32,t_struct(AddressSet)2077_storage)"
      },
      {
        "astId": 143,
        "contract": "contracts/Curator.sol:Curator",
        "label": "__gap",
        "offset": 0,
        "slot": "202",
        "type": "t_array(t_uint256)49_storage"
      },
      {
        "astId": 6907,
        "contract": "contracts/Curator.sol:Curator",
        "label": "admin",
        "offset": 0,
        "slot": "251",
        "type": "t_address"
      },
      {
        "astId": 6910,
        "contract": "contracts/Curator.sol:Curator",
        "label": "vote",
        "offset": 0,
        "slot": "252",
        "type": "t_contract(PhloteVote)7769"
      },
      {
        "astId": 6912,
        "contract": "contracts/Curator.sol:Curator",
        "label": "treasury",
        "offset": 0,
        "slot": "253",
        "type": "t_address"
      },
      {
        "astId": 6914,
        "contract": "contracts/Curator.sol:Curator",
        "label": "curatorTokenMinimum",
        "offset": 0,
        "slot": "254",
        "type": "t_uint256"
      },
      {
        "astId": 6916,
        "contract": "contracts/Curator.sol:Curator",
        "label": "curatorAdmin",
        "offset": 0,
        "slot": "255",
        "type": "t_address"
      }
    ],
    "types": {
      "t_address": {
        "encoding": "inplace",
        "label": "address",
        "numberOfBytes": "20"
      },
      "t_array(t_bytes32)dyn_storage": {
        "base": "t_bytes32",
        "encoding": "dynamic_array",
        "label": "bytes32[]",
        "numberOfBytes": "32"
      },
      "t_array(t_uint256)49_storage": {
        "base": "t_uint256",
        "encoding": "inplace",
        "label": "uint256[49]",
        "numberOfBytes": "1568"
      },
      "t_array(t_uint256)50_storage": {
        "base": "t_uint256",
        "encoding": "inplace",
        "label": "uint256[50]",
        "numberOfBytes": "1600"
      },
      "t_bool": {
        "encoding": "inplace",
        "label": "bool",
        "numberOfBytes": "1"
      },
      "t_bytes32": {
        "encoding": "inplace",
        "label": "bytes32",
        "numberOfBytes": "32"
      },
      "t_contract(PhloteVote)7769": {
        "encoding": "inplace",
        "label": "contract PhloteVote",
        "numberOfBytes": "20"
      },
      "t_mapping(t_address,t_bool)": {
        "encoding": "mapping",
        "key": "t_address",
        "label": "mapping(address => bool)",
        "numberOfBytes": "32",
        "value": "t_bool"
      },
      "t_mapping(t_bytes32,t_struct(AddressSet)2077_storage)": {
        "encoding": "mapping",
        "key": "t_bytes32",
        "label": "mapping(bytes32 => struct EnumerableSetUpgradeable.AddressSet)",
        "numberOfBytes": "32",
        "value": "t_struct(AddressSet)2077_storage"
      },
      "t_mapping(t_bytes32,t_struct(RoleData)179_storage)": {
        "encoding": "mapping",
        "key": "t_bytes32",
        "label": "mapping(bytes32 => struct AccessControlUpgradeable.RoleData)",
        "numberOfBytes": "32",
        "value": "t_struct(RoleData)179_storage"
      },
      "t_mapping(t_bytes32,t_uint256)": {
        "encoding": "mapping",
        "key": "t_bytes32",
        "label": "mapping(bytes32 => uint256)",
        "numberOfBytes": "32",
        "value": "t_uint256"
      },
      "t_struct(AddressSet)2077_storage": {
        "encoding": "inplace",
        "label": "struct EnumerableSetUpgradeable.AddressSet",
        "members": [
          {
            "astId": 2076,
            "contract": "contracts/Curator.sol:Curator",
            "label": "_inner",
            "offset": 0,
            "slot": "0",
            "type": "t_struct(Set)1776_storage"
          }
        ],
        "numberOfBytes": "64"
      },
      "t_struct(RoleData)179_storage": {
        "encoding": "inplace",
        "label": "struct AccessControlUpgradeable.RoleData",
        "members": [
          {
            "astId": 176,
            "contract": "contracts/Curator.sol:Curator",
            "label": "members",
            "offset": 0,
            "slot": "0",
            "type": "t_mapping(t_address,t_bool)"
          },
          {
            "astId": 178,
            "contract": "contracts/Curator.sol:Curator",
            "label": "adminRole",
            "offset": 0,
            "slot": "1",
            "type": "t_bytes32"
          }
        ],
        "numberOfBytes": "64"
      },
      "t_struct(Set)1776_storage": {
        "encoding": "inplace",
        "label": "struct EnumerableSetUpgradeable.Set",
        "members": [
          {
            "astId": 1771,
            "contract": "contracts/Curator.sol:Curator",
            "label": "_values",
            "offset": 0,
            "slot": "0",
            "type": "t_array(t_bytes32)dyn_storage"
          },
          {
            "astId": 1775,
            "contract": "contracts/Curator.sol:Curator",
            "label": "_indexes",
            "offset": 0,
            "slot": "1",
            "type": "t_mapping(t_bytes32,t_uint256)"
          }
        ],
        "numberOfBytes": "64"
      },
      "t_uint256": {
        "encoding": "inplace",
        "label": "uint256",
        "numberOfBytes": "32"
      },
      "t_uint8": {
        "encoding": "inplace",
        "label": "uint8",
        "numberOfBytes": "1"
      }
    }
  }
}