{
  "_format": "hh-sol-artifact-1",
  "contractName": "Phlote",
  "sourceName": "contracts/Phlote.sol",
  "abi": [
    {
      "anonymous": false,
      "inputs": [
        {
          "indexed": true,
          "internalType": "address",
          "name": "owner",
          "type": "address"
        },
        {
          "indexed": true,
          "internalType": "address",
          "name": "approved",
          "type": "address"
        },
        {
          "indexed": true,
          "internalType": "uint256",
          "name": "tokenId",
          "type": "uint256"
        }
      ],
      "name": "Approval",
      "type": "event"
    },
    {
      "anonymous": false,
      "inputs": [
        {
          "indexed": true,
          "internalType": "address",
          "name": "owner",
          "type": "address"
        },
        {
          "indexed": true,
          "internalType": "address",
          "name": "operator",
          "type": "address"
        },
        {
          "indexed": false,
          "internalType": "bool",
          "name": "approved",
          "type": "bool"
        }
      ],
      "name": "ApprovalForAll",
      "type": "event"
    },
    {
      "anonymous": false,
      "inputs": [
        {
          "indexed": false,
          "internalType": "address",
          "name": "sender",
          "type": "address"
        },
        {
          "indexed": true,
          "internalType": "uint256",
          "name": "editionId",
          "type": "uint256"
        }
      ],
      "name": "EditionCreated",
      "type": "event"
    },
    {
      "anonymous": false,
      "inputs": [
        {
          "indexed": true,
          "internalType": "address",
          "name": "buyer",
          "type": "address"
        },
        {
          "indexed": false,
          "internalType": "uint256",
          "name": "tokenId",
          "type": "uint256"
        },
        {
          "indexed": false,
          "internalType": "uint256",
          "name": "numSold",
          "type": "uint256"
        }
      ],
      "name": "EditionMinted",
      "type": "event"
    },
    {
      "anonymous": false,
      "inputs": [
        {
          "indexed": true,
          "internalType": "address",
          "name": "previousOwner",
          "type": "address"
        },
        {
          "indexed": true,
          "internalType": "address",
          "name": "newOwner",
          "type": "address"
        }
      ],
      "name": "OwnershipTransferred",
      "type": "event"
    },
    {
      "anonymous": false,
      "inputs": [
        {
          "indexed": true,
          "internalType": "address",
          "name": "from",
          "type": "address"
        },
        {
          "indexed": true,
          "internalType": "address",
          "name": "to",
          "type": "address"
        },
        {
          "indexed": true,
          "internalType": "uint256",
          "name": "tokenId",
          "type": "uint256"
        }
      ],
      "name": "Transfer",
      "type": "event"
    },
    {
      "inputs": [
        {
          "internalType": "address",
          "name": "to",
          "type": "address"
        },
        {
          "internalType": "uint256",
          "name": "tokenId",
          "type": "uint256"
        }
      ],
      "name": "approve",
      "outputs": [],
      "stateMutability": "nonpayable",
      "type": "function"
    },
    {
      "inputs": [
        {
          "internalType": "address",
          "name": "owner",
          "type": "address"
        }
      ],
      "name": "balanceOf",
      "outputs": [
        {
          "internalType": "uint256",
          "name": "",
          "type": "uint256"
        }
      ],
      "stateMutability": "view",
      "type": "function"
    },
    {
      "inputs": [],
      "name": "contractPrice",
      "outputs": [
        {
          "internalType": "uint256",
          "name": "",
          "type": "uint256"
        }
      ],
      "stateMutability": "view",
      "type": "function"
    },
    {
      "inputs": [
        {
          "internalType": "address",
          "name": "",
          "type": "address"
        },
        {
          "internalType": "uint256",
          "name": "",
          "type": "uint256"
        }
      ],
      "name": "curatorSubmissions",
      "outputs": [
        {
          "internalType": "address",
          "name": "curatorWallet",
          "type": "address"
        },
        {
          "internalType": "address",
          "name": "artistWallet",
          "type": "address"
        },
        {
          "internalType": "string",
          "name": "mediaURI",
          "type": "string"
        },
        {
          "internalType": "string",
          "name": "marketplace",
          "type": "string"
        },
        {
          "internalType": "string",
          "name": "artistName",
          "type": "string"
        },
        {
          "internalType": "string",
          "name": "mediaType",
          "type": "string"
        },
        {
          "internalType": "string",
          "name": "mediaTitle",
          "type": "string"
        },
        {
          "internalType": "uint256",
          "name": "numSold",
          "type": "uint256"
        },
        {
          "internalType": "string",
          "name": "tokenURI",
          "type": "string"
        },
        {
          "internalType": "uint256",
          "name": "submissionTime",
          "type": "uint256"
        }
      ],
      "stateMutability": "view",
      "type": "function"
    },
    {
      "inputs": [
        {
          "internalType": "uint256",
          "name": "",
          "type": "uint256"
        }
      ],
      "name": "editions",
      "outputs": [
        {
          "internalType": "address",
          "name": "curatorWallet",
          "type": "address"
        },
        {
          "internalType": "address",
          "name": "artistWallet",
          "type": "address"
        },
        {
          "internalType": "string",
          "name": "mediaURI",
          "type": "string"
        },
        {
          "internalType": "string",
          "name": "marketplace",
          "type": "string"
        },
        {
          "internalType": "string",
          "name": "artistName",
          "type": "string"
        },
        {
          "internalType": "string",
          "name": "mediaType",
          "type": "string"
        },
        {
          "internalType": "string",
          "name": "mediaTitle",
          "type": "string"
        },
        {
          "internalType": "uint256",
          "name": "numSold",
          "type": "uint256"
        },
        {
          "internalType": "string",
          "name": "tokenURI",
          "type": "string"
        },
        {
          "internalType": "uint256",
          "name": "submissionTime",
          "type": "uint256"
        }
      ],
      "stateMutability": "view",
      "type": "function"
    },
    {
      "inputs": [],
      "name": "getAllCurations",
      "outputs": [
        {
          "components": [
            {
              "internalType": "address",
              "name": "curatorWallet",
              "type": "address"
            },
            {
              "internalType": "address",
              "name": "artistWallet",
              "type": "address"
            },
            {
              "internalType": "string",
              "name": "mediaURI",
              "type": "string"
            },
            {
              "internalType": "string",
              "name": "marketplace",
              "type": "string"
            },
            {
              "internalType": "string[]",
              "name": "tags",
              "type": "string[]"
            },
            {
              "internalType": "string",
              "name": "artistName",
              "type": "string"
            },
            {
              "internalType": "string",
              "name": "mediaType",
              "type": "string"
            },
            {
              "internalType": "string",
              "name": "mediaTitle",
              "type": "string"
            },
            {
              "internalType": "uint256",
              "name": "numSold",
              "type": "uint256"
            },
            {
              "internalType": "string",
              "name": "tokenURI",
              "type": "string"
            },
            {
              "internalType": "uint256",
              "name": "submissionTime",
              "type": "uint256"
            }
          ],
          "internalType": "struct Phlote.Edition[]",
          "name": "",
          "type": "tuple[]"
        }
      ],
      "stateMutability": "view",
      "type": "function"
    },
    {
      "inputs": [
        {
          "internalType": "uint256",
          "name": "tokenId",
          "type": "uint256"
        }
      ],
      "name": "getApproved",
      "outputs": [
        {
          "internalType": "address",
          "name": "",
          "type": "address"
        }
      ],
      "stateMutability": "view",
      "type": "function"
    },
    {
      "inputs": [
        {
          "internalType": "address",
          "name": "_curatorWallet",
          "type": "address"
        }
      ],
      "name": "getCuratorSubmissions",
      "outputs": [
        {
          "components": [
            {
              "internalType": "address",
              "name": "curatorWallet",
              "type": "address"
            },
            {
              "internalType": "address",
              "name": "artistWallet",
              "type": "address"
            },
            {
              "internalType": "string",
              "name": "mediaURI",
              "type": "string"
            },
            {
              "internalType": "string",
              "name": "marketplace",
              "type": "string"
            },
            {
              "internalType": "string[]",
              "name": "tags",
              "type": "string[]"
            },
            {
              "internalType": "string",
              "name": "artistName",
              "type": "string"
            },
            {
              "internalType": "string",
              "name": "mediaType",
              "type": "string"
            },
            {
              "internalType": "string",
              "name": "mediaTitle",
              "type": "string"
            },
            {
              "internalType": "uint256",
              "name": "numSold",
              "type": "uint256"
            },
            {
              "internalType": "string",
              "name": "tokenURI",
              "type": "string"
            },
            {
              "internalType": "uint256",
              "name": "submissionTime",
              "type": "uint256"
            }
          ],
          "internalType": "struct Phlote.Edition[]",
          "name": "",
          "type": "tuple[]"
        }
      ],
      "stateMutability": "view",
      "type": "function"
    },
    {
      "inputs": [],
      "name": "initialize",
      "outputs": [],
      "stateMutability": "nonpayable",
      "type": "function"
    },
    {
      "inputs": [
        {
          "internalType": "address",
          "name": "owner",
          "type": "address"
        },
        {
          "internalType": "address",
          "name": "operator",
          "type": "address"
        }
      ],
      "name": "isApprovedForAll",
      "outputs": [
        {
          "internalType": "bool",
          "name": "",
          "type": "bool"
        }
      ],
      "stateMutability": "view",
      "type": "function"
    },
    {
      "inputs": [
        {
          "internalType": "uint256",
          "name": "editionId",
          "type": "uint256"
        }
      ],
      "name": "mintEdition",
      "outputs": [],
      "stateMutability": "payable",
      "type": "function"
    },
    {
      "inputs": [],
      "name": "name",
      "outputs": [
        {
          "internalType": "string",
          "name": "",
          "type": "string"
        }
      ],
      "stateMutability": "view",
      "type": "function"
    },
    {
      "inputs": [
        {
          "internalType": "address",
          "name": "",
          "type": "address"
        }
      ],
      "name": "nftHolders",
      "outputs": [
        {
          "internalType": "uint256",
          "name": "",
          "type": "uint256"
        }
      ],
      "stateMutability": "view",
      "type": "function"
    },
    {
      "inputs": [],
      "name": "owner",
      "outputs": [
        {
          "internalType": "address",
          "name": "",
          "type": "address"
        }
      ],
      "stateMutability": "view",
      "type": "function"
    },
    {
      "inputs": [
        {
          "internalType": "uint256",
          "name": "tokenId",
          "type": "uint256"
        }
      ],
      "name": "ownerOf",
      "outputs": [
        {
          "internalType": "address",
          "name": "",
          "type": "address"
        }
      ],
      "stateMutability": "view",
      "type": "function"
    },
    {
      "inputs": [],
      "name": "renounceOwnership",
      "outputs": [],
      "stateMutability": "nonpayable",
      "type": "function"
    },
    {
      "inputs": [
        {
          "internalType": "address",
          "name": "from",
          "type": "address"
        },
        {
          "internalType": "address",
          "name": "to",
          "type": "address"
        },
        {
          "internalType": "uint256",
          "name": "tokenId",
          "type": "uint256"
        }
      ],
      "name": "safeTransferFrom",
      "outputs": [],
      "stateMutability": "nonpayable",
      "type": "function"
    },
    {
      "inputs": [
        {
          "internalType": "address",
          "name": "from",
          "type": "address"
        },
        {
          "internalType": "address",
          "name": "to",
          "type": "address"
        },
        {
          "internalType": "uint256",
          "name": "tokenId",
          "type": "uint256"
        },
        {
          "internalType": "bytes",
          "name": "_data",
          "type": "bytes"
        }
      ],
      "name": "safeTransferFrom",
      "outputs": [],
      "stateMutability": "nonpayable",
      "type": "function"
    },
    {
      "inputs": [
        {
          "internalType": "address",
          "name": "operator",
          "type": "address"
        },
        {
          "internalType": "bool",
          "name": "approved",
          "type": "bool"
        }
      ],
      "name": "setApprovalForAll",
      "outputs": [],
      "stateMutability": "nonpayable",
      "type": "function"
    },
    {
      "inputs": [
        {
          "internalType": "address",
          "name": "_curatorWallet",
          "type": "address"
        },
        {
          "internalType": "string",
          "name": "_mediaURI",
          "type": "string"
        },
        {
          "internalType": "string",
          "name": "_marketplace",
          "type": "string"
        },
        {
          "internalType": "string[]",
          "name": "_tags",
          "type": "string[]"
        },
        {
          "internalType": "string",
          "name": "_artistName",
          "type": "string"
        },
        {
          "internalType": "address",
          "name": "_artistWallet",
          "type": "address"
        },
        {
          "internalType": "string",
          "name": "_mediaType",
          "type": "string"
        },
        {
          "internalType": "string",
          "name": "_mediaTitle",
          "type": "string"
        },
        {
          "internalType": "string",
          "name": "_tokenURI",
          "type": "string"
        }
      ],
      "name": "submitPost",
      "outputs": [],
      "stateMutability": "nonpayable",
      "type": "function"
    },
    {
      "inputs": [
        {
          "internalType": "bytes4",
          "name": "interfaceId",
          "type": "bytes4"
        }
      ],
      "name": "supportsInterface",
      "outputs": [
        {
          "internalType": "bool",
          "name": "",
          "type": "bool"
        }
      ],
      "stateMutability": "view",
      "type": "function"
    },
    {
      "inputs": [],
      "name": "symbol",
      "outputs": [
        {
          "internalType": "string",
          "name": "",
          "type": "string"
        }
      ],
      "stateMutability": "view",
      "type": "function"
    },
    {
      "inputs": [
        {
          "internalType": "uint256",
          "name": "",
          "type": "uint256"
        }
      ],
      "name": "tokenToSong",
      "outputs": [
        {
          "internalType": "uint256",
          "name": "",
          "type": "uint256"
        }
      ],
      "stateMutability": "view",
      "type": "function"
    },
    {
      "inputs": [
        {
          "internalType": "uint256",
          "name": "_tokenId",
          "type": "uint256"
        }
      ],
      "name": "tokenURI",
      "outputs": [
        {
          "internalType": "string",
          "name": "",
          "type": "string"
        }
      ],
      "stateMutability": "view",
      "type": "function"
    },
    {
      "inputs": [
        {
          "internalType": "address",
          "name": "from",
          "type": "address"
        },
        {
          "internalType": "address",
          "name": "to",
          "type": "address"
        },
        {
          "internalType": "uint256",
          "name": "tokenId",
          "type": "uint256"
        }
      ],
      "name": "transferFrom",
      "outputs": [],
      "stateMutability": "nonpayable",
      "type": "function"
    },
    {
      "inputs": [
        {
          "internalType": "address",
          "name": "newOwner",
          "type": "address"
        }
      ],
      "name": "transferOwnership",
      "outputs": [],
      "stateMutability": "nonpayable",
      "type": "function"
    },
    {
      "inputs": [
        {
          "internalType": "uint256",
          "name": "",
          "type": "uint256"
        }
      ],
      "name": "withdrawnForEdition",
      "outputs": [
        {
          "internalType": "uint256",
          "name": "",
          "type": "uint256"
        }
      ],
      "stateMutability": "view",
      "type": "function"
    }
  ],
  "bytecode": "0x608060405234801561001057600080fd5b506157bf80620000216000396000f3fe60806040526004361061019c5760003560e01c806370a08231116100ec578063a22cb4651161008a578063d3bb052811610064578063d3bb0528146105ef578063e2b18d3f1461062c578063e985e9c514610669578063f2fde38b146106a65761019c565b8063a22cb46514610560578063b88d4fde14610589578063c87b56dd146105b25761019c565b80638129fc1c116100c65780638129fc1c146104c85780638da5cb5b146104df57806395d89b411461050a57806397e9a0bf146105355761019c565b806370a0823114610437578063715018a6146104745780637df124a11461048b5761019c565b80631cfbcd5b1161015957806342842e0e1161013357806342842e0e1461036b57806353301ecf146103945780636352211e146103d15780636b1658541461040e5761019c565b80631cfbcd5b146102d157806323b872dd146102fc578063279c806e146103255761019c565b806301ffc9a7146101a157806305322b74146101de57806306fdde03146101fa578063081812fc14610225578063095ea7b3146102625780631125c3201461028b575b600080fd5b3480156101ad57600080fd5b506101c860048036038101906101c39190614442565b6106cf565b6040516101d59190614b80565b60405180910390f35b6101f860048036038101906101f39190614494565b6107b1565b005b34801561020657600080fd5b5061020f610986565b60405161021c9190614b9b565b60405180910390f35b34801561023157600080fd5b5061024c60048036038101906102479190614494565b610a18565b6040516102599190614a31565b60405180910390f35b34801561026e57600080fd5b5061028960048036038101906102849190614406565b610a9d565b005b34801561029757600080fd5b506102b260048036038101906102ad9190614406565b610bb5565b6040516102c89a99989796959493929190614a4c565b60405180910390f35b3480156102dd57600080fd5b506102e6610f96565b6040516102f39190614b5e565b60405180910390f35b34801561030857600080fd5b50610323600480360381019061031e9190614192565b6114fb565b005b34801561033157600080fd5b5061034c60048036038101906103479190614494565b61155b565b6040516103629a99989796959493929190614a4c565b60405180910390f35b34801561037757600080fd5b50610392600480360381019061038d9190614192565b61191f565b005b3480156103a057600080fd5b506103bb60048036038101906103b6919061412d565b61193f565b6040516103c89190614b5e565b60405180910390f35b3480156103dd57600080fd5b506103f860048036038101906103f39190614494565b611ee3565b6040516104059190614a31565b60405180910390f35b34801561041a57600080fd5b5061043560048036038101906104309190614298565b611f95565b005b34801561044357600080fd5b5061045e6004803603810190610459919061412d565b61257d565b60405161046b9190614e22565b60405180910390f35b34801561048057600080fd5b50610489612635565b005b34801561049757600080fd5b506104b260048036038101906104ad919061412d565b6126bd565b6040516104bf9190614e22565b60405180910390f35b3480156104d457600080fd5b506104dd6126d5565b005b3480156104eb57600080fd5b506104f461283f565b6040516105019190614a31565b60405180910390f35b34801561051657600080fd5b5061051f612869565b60405161052c9190614b9b565b60405180910390f35b34801561054157600080fd5b5061054a6128fb565b6040516105579190614e22565b60405180910390f35b34801561056c57600080fd5b506105876004803603810190610582919061425c565b612901565b005b34801561059557600080fd5b506105b060048036038101906105ab91906141e1565b612917565b005b3480156105be57600080fd5b506105d960048036038101906105d49190614494565b612979565b6040516105e69190614b9b565b60405180910390f35b3480156105fb57600080fd5b5061061660048036038101906106119190614494565b612ec4565b6040516106239190614e22565b60405180910390f35b34801561063857600080fd5b50610653600480360381019061064e9190614494565b612edc565b6040516106609190614e22565b60405180910390f35b34801561067557600080fd5b50610690600480360381019061068b9190614156565b612ef4565b60405161069d9190614b80565b60405180910390f35b3480156106b257600080fd5b506106cd60048036038101906106c8919061412d565b612f88565b005b60007f80ac58cd000000000000000000000000000000000000000000000000000000007bffffffffffffffffffffffffffffffffffffffffffffffffffffffff1916827bffffffffffffffffffffffffffffffffffffffffffffffffffffffff1916148061079a57507f5b5e139f000000000000000000000000000000000000000000000000000000007bffffffffffffffffffffffffffffffffffffffffffffffffffffffff1916827bffffffffffffffffffffffffffffffffffffffffffffffffffffffff1916145b806107aa57506107a982613080565b5b9050919050565b60006107bd60ca6130ea565b90506107c933826130f8565b61088a6040518060600160405280602881526020016157626028913960cd6000858152602001908152602001600020600701805461080690615114565b80601f016020809104026020016040519081016040528092919081815260200182805461083290615114565b801561087f5780601f106108545761010080835404028352916020019161087f565b820191906000526020600020905b81548152906001019060200180831161086257829003601f168201915b505050505083613116565b8060ce60003373ffffffffffffffffffffffffffffffffffffffff1673ffffffffffffffffffffffffffffffffffffffff168152602001908152602001600020819055506108d860ca6131b5565b60cd600083815260200190815260200160002060080160008154809291906108ff90615177565b91905055508160d16000838152602001908152602001600020819055503373ffffffffffffffffffffffffffffffffffffffff167fe1b60c9e07632933648666e5ede8b3b329ddfa2ab98c51b1a5b4b22ab4f1349c8260cd60008681526020019081526020016000206008015460405161097a929190614e3d565b60405180910390a25050565b60606065805461099590615114565b80601f01602080910402602001604051908101604052809291908181526020018280546109c190615114565b8015610a0e5780601f106109e357610100808354040283529160200191610a0e565b820191906000526020600020905b8154815290600101906020018083116109f157829003601f168201915b5050505050905090565b6000610a23826131cb565b610a62576040517f08c379a0000000000000000000000000000000000000000000000000000000008152600401610a5990614d82565b60405180910390fd5b6069600083815260200190815260200160002060009054906101000a900473ffffffffffffffffffffffffffffffffffffffff169050919050565b6000610aa882611ee3565b90508073ffffffffffffffffffffffffffffffffffffffff168373ffffffffffffffffffffffffffffffffffffffff161415610b19576040517f08c379a0000000000000000000000000000000000000000000000000000000008152600401610b1090614dc2565b60405180910390fd5b8073ffffffffffffffffffffffffffffffffffffffff16610b38613237565b73ffffffffffffffffffffffffffffffffffffffff161480610b675750610b6681610b61613237565b612ef4565b5b610ba6576040517f08c379a0000000000000000000000000000000000000000000000000000000008152600401610b9d90614ce2565b60405180910390fd5b610bb0838361323f565b505050565b60cf6020528160005260406000208181548110610bd157600080fd5b90600052602060002090600b0201600091509150508060000160009054906101000a900473ffffffffffffffffffffffffffffffffffffffff16908060010160009054906101000a900473ffffffffffffffffffffffffffffffffffffffff1690806002018054610c4190615114565b80601f0160208091040260200160405190810160405280929190818152602001828054610c6d90615114565b8015610cba5780601f10610c8f57610100808354040283529160200191610cba565b820191906000526020600020905b815481529060010190602001808311610c9d57829003601f168201915b505050505090806003018054610ccf90615114565b80601f0160208091040260200160405190810160405280929190818152602001828054610cfb90615114565b8015610d485780601f10610d1d57610100808354040283529160200191610d48565b820191906000526020600020905b815481529060010190602001808311610d2b57829003601f168201915b505050505090806005018054610d5d90615114565b80601f0160208091040260200160405190810160405280929190818152602001828054610d8990615114565b8015610dd65780601f10610dab57610100808354040283529160200191610dd6565b820191906000526020600020905b815481529060010190602001808311610db957829003601f168201915b505050505090806006018054610deb90615114565b80601f0160208091040260200160405190810160405280929190818152602001828054610e1790615114565b8015610e645780601f10610e3957610100808354040283529160200191610e64565b820191906000526020600020905b815481529060010190602001808311610e4757829003601f168201915b505050505090806007018054610e7990615114565b80601f0160208091040260200160405190810160405280929190818152602001828054610ea590615114565b8015610ef25780601f10610ec757610100808354040283529160200191610ef2565b820191906000526020600020905b815481529060010190602001808311610ed557829003601f168201915b505050505090806008015490806009018054610f0d90615114565b80601f0160208091040260200160405190810160405280929190818152602001828054610f3990615114565b8015610f865780601f10610f5b57610100808354040283529160200191610f86565b820191906000526020600020905b815481529060010190602001808311610f6957829003601f168201915b50505050509080600a015490508a565b606060cc805480602002602001604051908101604052809291908181526020016000905b828210156114f257838290600052602060002090600b0201604051806101600160405290816000820160009054906101000a900473ffffffffffffffffffffffffffffffffffffffff1673ffffffffffffffffffffffffffffffffffffffff1673ffffffffffffffffffffffffffffffffffffffff1681526020016001820160009054906101000a900473ffffffffffffffffffffffffffffffffffffffff1673ffffffffffffffffffffffffffffffffffffffff1673ffffffffffffffffffffffffffffffffffffffff16815260200160028201805461109a90615114565b80601f01602080910402602001604051908101604052809291908181526020018280546110c690615114565b80156111135780601f106110e857610100808354040283529160200191611113565b820191906000526020600020905b8154815290600101906020018083116110f657829003601f168201915b5050505050815260200160038201805461112c90615114565b80601f016020809104026020016040519081016040528092919081815260200182805461115890615114565b80156111a55780601f1061117a576101008083540402835291602001916111a5565b820191906000526020600020905b81548152906001019060200180831161118857829003601f168201915b5050505050815260200160048201805480602002602001604051908101604052809291908181526020016000905b8282101561127f5783829060005260206000200180546111f290615114565b80601f016020809104026020016040519081016040528092919081815260200182805461121e90615114565b801561126b5780601f106112405761010080835404028352916020019161126b565b820191906000526020600020905b81548152906001019060200180831161124e57829003601f168201915b5050505050815260200190600101906111d3565b50505050815260200160058201805461129790615114565b80601f01602080910402602001604051908101604052809291908181526020018280546112c390615114565b80156113105780601f106112e557610100808354040283529160200191611310565b820191906000526020600020905b8154815290600101906020018083116112f357829003601f168201915b5050505050815260200160068201805461132990615114565b80601f016020809104026020016040519081016040528092919081815260200182805461135590615114565b80156113a25780601f10611377576101008083540402835291602001916113a2565b820191906000526020600020905b81548152906001019060200180831161138557829003601f168201915b505050505081526020016007820180546113bb90615114565b80601f01602080910402602001604051908101604052809291908181526020018280546113e790615114565b80156114345780601f1061140957610100808354040283529160200191611434565b820191906000526020600020905b81548152906001019060200180831161141757829003601f168201915b505050505081526020016008820154815260200160098201805461145790615114565b80601f016020809104026020016040519081016040528092919081815260200182805461148390615114565b80156114d05780601f106114a5576101008083540402835291602001916114d0565b820191906000526020600020905b8154815290600101906020018083116114b357829003601f168201915b50505050508152602001600a8201548152505081526020019060010190610fba565b50505050905090565b61150c611506613237565b826132f8565b61154b576040517f08c379a000000000000000000000000000000000000000000000000000000000815260040161154290614de2565b60405180910390fd5b6115568383836133d6565b505050565b60cd6020528060005260406000206000915090508060000160009054906101000a900473ffffffffffffffffffffffffffffffffffffffff16908060010160009054906101000a900473ffffffffffffffffffffffffffffffffffffffff16908060020180546115ca90615114565b80601f01602080910402602001604051908101604052809291908181526020018280546115f690615114565b80156116435780601f1061161857610100808354040283529160200191611643565b820191906000526020600020905b81548152906001019060200180831161162657829003601f168201915b50505050509080600301805461165890615114565b80601f016020809104026020016040519081016040528092919081815260200182805461168490615114565b80156116d15780601f106116a6576101008083540402835291602001916116d1565b820191906000526020600020905b8154815290600101906020018083116116b457829003601f168201915b5050505050908060050180546116e690615114565b80601f016020809104026020016040519081016040528092919081815260200182805461171290615114565b801561175f5780601f106117345761010080835404028352916020019161175f565b820191906000526020600020905b81548152906001019060200180831161174257829003601f168201915b50505050509080600601805461177490615114565b80601f01602080910402602001604051908101604052809291908181526020018280546117a090615114565b80156117ed5780601f106117c2576101008083540402835291602001916117ed565b820191906000526020600020905b8154815290600101906020018083116117d057829003601f168201915b50505050509080600701805461180290615114565b80601f016020809104026020016040519081016040528092919081815260200182805461182e90615114565b801561187b5780601f106118505761010080835404028352916020019161187b565b820191906000526020600020905b81548152906001019060200180831161185e57829003601f168201915b50505050509080600801549080600901805461189690615114565b80601f01602080910402602001604051908101604052809291908181526020018280546118c290615114565b801561190f5780601f106118e45761010080835404028352916020019161190f565b820191906000526020600020905b8154815290600101906020018083116118f257829003601f168201915b50505050509080600a015490508a565b61193a83838360405180602001604052806000815250612917565b505050565b606060cf60008373ffffffffffffffffffffffffffffffffffffffff1673ffffffffffffffffffffffffffffffffffffffff168152602001908152602001600020805480602002602001604051908101604052809291908181526020016000905b82821015611ed857838290600052602060002090600b0201604051806101600160405290816000820160009054906101000a900473ffffffffffffffffffffffffffffffffffffffff1673ffffffffffffffffffffffffffffffffffffffff1673ffffffffffffffffffffffffffffffffffffffff1681526020016001820160009054906101000a900473ffffffffffffffffffffffffffffffffffffffff1673ffffffffffffffffffffffffffffffffffffffff1673ffffffffffffffffffffffffffffffffffffffff168152602001600282018054611a8090615114565b80601f0160208091040260200160405190810160405280929190818152602001828054611aac90615114565b8015611af95780601f10611ace57610100808354040283529160200191611af9565b820191906000526020600020905b815481529060010190602001808311611adc57829003601f168201915b50505050508152602001600382018054611b1290615114565b80601f0160208091040260200160405190810160405280929190818152602001828054611b3e90615114565b8015611b8b5780601f10611b6057610100808354040283529160200191611b8b565b820191906000526020600020905b815481529060010190602001808311611b6e57829003601f168201915b5050505050815260200160048201805480602002602001604051908101604052809291908181526020016000905b82821015611c65578382906000526020600020018054611bd890615114565b80601f0160208091040260200160405190810160405280929190818152602001828054611c0490615114565b8015611c515780601f10611c2657610100808354040283529160200191611c51565b820191906000526020600020905b815481529060010190602001808311611c3457829003601f168201915b505050505081526020019060010190611bb9565b505050508152602001600582018054611c7d90615114565b80601f0160208091040260200160405190810160405280929190818152602001828054611ca990615114565b8015611cf65780601f10611ccb57610100808354040283529160200191611cf6565b820191906000526020600020905b815481529060010190602001808311611cd957829003601f168201915b50505050508152602001600682018054611d0f90615114565b80601f0160208091040260200160405190810160405280929190818152602001828054611d3b90615114565b8015611d885780601f10611d5d57610100808354040283529160200191611d88565b820191906000526020600020905b815481529060010190602001808311611d6b57829003601f168201915b50505050508152602001600782018054611da190615114565b80601f0160208091040260200160405190810160405280929190818152602001828054611dcd90615114565b8015611e1a5780601f10611def57610100808354040283529160200191611e1a565b820191906000526020600020905b815481529060010190602001808311611dfd57829003601f168201915b5050505050815260200160088201548152602001600982018054611e3d90615114565b80601f0160208091040260200160405190810160405280929190818152602001828054611e6990615114565b8015611eb65780601f10611e8b57610100808354040283529160200191611eb6565b820191906000526020600020905b815481529060010190602001808311611e9957829003601f168201915b50505050508152602001600a82015481525050815260200190600101906119a0565b505050509050919050565b6000806067600084815260200190815260200160002060009054906101000a900473ffffffffffffffffffffffffffffffffffffffff169050600073ffffffffffffffffffffffffffffffffffffffff168173ffffffffffffffffffffffffffffffffffffffff161415611f8c576040517f08c379a0000000000000000000000000000000000000000000000000000000008152600401611f8390614d22565b60405180910390fd5b80915050919050565b60006040518061016001604052808b73ffffffffffffffffffffffffffffffffffffffff1681526020018673ffffffffffffffffffffffffffffffffffffffff1681526020018a81526020018981526020018881526020018781526020018581526020018481526020016000815260200183815260200142815250905060cc8190806001815401808255809150506001900390600052602060002090600b020160009091909190915060008201518160000160006101000a81548173ffffffffffffffffffffffffffffffffffffffff021916908373ffffffffffffffffffffffffffffffffffffffff16021790555060208201518160010160006101000a81548173ffffffffffffffffffffffffffffffffffffffff021916908373ffffffffffffffffffffffffffffffffffffffff16021790555060408201518160020190805190602001906120e8929190613ddd565b506060820151816003019080519060200190612105929190613ddd565b506080820151816004019080519060200190612122929190613e63565b5060a082015181600501908051906020019061213f929190613ddd565b5060c082015181600601908051906020019061215c929190613ddd565b5060e0820151816007019080519060200190612179929190613ddd565b5061010082015181600801556101208201518160090190805190602001906121a2929190613ddd565b5061014082015181600a015550508060cd600060cb54815260200190815260200160002060008201518160000160006101000a81548173ffffffffffffffffffffffffffffffffffffffff021916908373ffffffffffffffffffffffffffffffffffffffff16021790555060208201518160010160006101000a81548173ffffffffffffffffffffffffffffffffffffffff021916908373ffffffffffffffffffffffffffffffffffffffff1602179055506040820151816002019080519060200190612270929190613ddd565b50606082015181600301908051906020019061228d929190613ddd565b5060808201518160040190805190602001906122aa929190613e63565b5060a08201518160050190805190602001906122c7929190613ddd565b5060c08201518160060190805190602001906122e4929190613ddd565b5060e0820151816007019080519060200190612301929190613ddd565b50610100820151816008015561012082015181600901908051906020019061232a929190613ddd565b5061014082015181600a015590505060cf60008b73ffffffffffffffffffffffffffffffffffffffff1673ffffffffffffffffffffffffffffffffffffffff1681526020019081526020016000208190806001815401808255809150506001900390600052602060002090600b020160009091909190915060008201518160000160006101000a81548173ffffffffffffffffffffffffffffffffffffffff021916908373ffffffffffffffffffffffffffffffffffffffff16021790555060208201518160010160006101000a81548173ffffffffffffffffffffffffffffffffffffffff021916908373ffffffffffffffffffffffffffffffffffffffff160217905550604082015181600201908051906020019061244c929190613ddd565b506060820151816003019080519060200190612469929190613ddd565b506080820151816004019080519060200190612486929190613e63565b5060a08201518160050190805190602001906124a3929190613ddd565b5060c08201518160060190805190602001906124c0929190613ddd565b5060e08201518160070190805190602001906124dd929190613ddd565b506101008201518160080155610120820151816009019080519060200190612506929190613ddd565b5061014082015181600a0155505060cb547fa1cd98301e2a758f45871102b368fdcf3f56e13f8e8fd2886523ac87ca066ce0336040516125469190614a31565b60405180910390a261255960cb546107b1565b60cb600081548092919061256c90615177565b919050555050505050505050505050565b60008073ffffffffffffffffffffffffffffffffffffffff168273ffffffffffffffffffffffffffffffffffffffff1614156125ee576040517f08c379a00000000000000000000000000000000000000000000000000000000081526004016125e590614d02565b60405180910390fd5b606860008373ffffffffffffffffffffffffffffffffffffffff1673ffffffffffffffffffffffffffffffffffffffff168152602001908152602001600020549050919050565b61263d613237565b73ffffffffffffffffffffffffffffffffffffffff1661265b61283f565b73ffffffffffffffffffffffffffffffffffffffff16146126b1576040517f08c379a00000000000000000000000000000000000000000000000000000000081526004016126a890614da2565b60405180910390fd5b6126bb600061363d565b565b60ce6020528060005260406000206000915090505481565b600060019054906101000a900460ff166126fd5760008054906101000a900460ff1615612706565b612705613703565b5b612745576040517f08c379a000000000000000000000000000000000000000000000000000000000815260040161273c90614d42565b60405180910390fd5b60008060019054906101000a900460ff161590508015612795576001600060016101000a81548160ff02191690831515021790555060016000806101000a81548160ff0219169083151502179055505b61279f60ca6131b5565b600160cb8190555061281b6040518060400160405280600f81526020017f50686c6f7465204375726174696f6e00000000000000000000000000000000008152506040518060400160405280600681526020017f50484c4f54450000000000000000000000000000000000000000000000000000815250613714565b801561283c5760008060016101000a81548160ff0219169083151502179055505b50565b6000609760009054906101000a900473ffffffffffffffffffffffffffffffffffffffff16905090565b60606066805461287890615114565b80601f01602080910402602001604051908101604052809291908181526020018280546128a490615114565b80156128f15780601f106128c6576101008083540402835291602001916128f1565b820191906000526020600020905b8154815290600101906020018083116128d457829003601f168201915b5050505050905090565b60c95481565b61291361290c613237565b8383613771565b5050565b612928612922613237565b836132f8565b612967576040517f08c379a000000000000000000000000000000000000000000000000000000000815260040161295e90614de2565b60405180910390fd5b612973848484846138de565b50505050565b6060600060cd600060d16000868152602001908152602001600020548152602001908152602001600020604051806101600160405290816000820160009054906101000a900473ffffffffffffffffffffffffffffffffffffffff1673ffffffffffffffffffffffffffffffffffffffff1673ffffffffffffffffffffffffffffffffffffffff1681526020016001820160009054906101000a900473ffffffffffffffffffffffffffffffffffffffff1673ffffffffffffffffffffffffffffffffffffffff1673ffffffffffffffffffffffffffffffffffffffff168152602001600282018054612a6b90615114565b80601f0160208091040260200160405190810160405280929190818152602001828054612a9790615114565b8015612ae45780601f10612ab957610100808354040283529160200191612ae4565b820191906000526020600020905b815481529060010190602001808311612ac757829003601f168201915b50505050508152602001600382018054612afd90615114565b80601f0160208091040260200160405190810160405280929190818152602001828054612b2990615114565b8015612b765780601f10612b4b57610100808354040283529160200191612b76565b820191906000526020600020905b815481529060010190602001808311612b5957829003601f168201915b5050505050815260200160048201805480602002602001604051908101604052809291908181526020016000905b82821015612c50578382906000526020600020018054612bc390615114565b80601f0160208091040260200160405190810160405280929190818152602001828054612bef90615114565b8015612c3c5780601f10612c1157610100808354040283529160200191612c3c565b820191906000526020600020905b815481529060010190602001808311612c1f57829003601f168201915b505050505081526020019060010190612ba4565b505050508152602001600582018054612c6890615114565b80601f0160208091040260200160405190810160405280929190818152602001828054612c9490615114565b8015612ce15780601f10612cb657610100808354040283529160200191612ce1565b820191906000526020600020905b815481529060010190602001808311612cc457829003601f168201915b50505050508152602001600682018054612cfa90615114565b80601f0160208091040260200160405190810160405280929190818152602001828054612d2690615114565b8015612d735780601f10612d4857610100808354040283529160200191612d73565b820191906000526020600020905b815481529060010190602001808311612d5657829003601f168201915b50505050508152602001600782018054612d8c90615114565b80601f0160208091040260200160405190810160405280929190818152602001828054612db890615114565b8015612e055780601f10612dda57610100808354040283529160200191612e05565b820191906000526020600020905b815481529060010190602001808311612de857829003601f168201915b5050505050815260200160088201548152602001600982018054612e2890615114565b80601f0160208091040260200160405190810160405280929190818152602001828054612e5490615114565b8015612ea15780601f10612e7657610100808354040283529160200191612ea1565b820191906000526020600020905b815481529060010190602001808311612e8457829003601f168201915b50505050508152602001600a820154815250509050806101200151915050919050565b60d06020528060005260406000206000915090505481565b60d16020528060005260406000206000915090505481565b6000606a60008473ffffffffffffffffffffffffffffffffffffffff1673ffffffffffffffffffffffffffffffffffffffff16815260200190815260200160002060008373ffffffffffffffffffffffffffffffffffffffff1673ffffffffffffffffffffffffffffffffffffffff16815260200190815260200160002060009054906101000a900460ff16905092915050565b612f90613237565b73ffffffffffffffffffffffffffffffffffffffff16612fae61283f565b73ffffffffffffffffffffffffffffffffffffffff1614613004576040517f08c379a0000000000000000000000000000000000000000000000000000000008152600401612ffb90614da2565b60405180910390fd5b600073ffffffffffffffffffffffffffffffffffffffff168173ffffffffffffffffffffffffffffffffffffffff161415613074576040517f08c379a000000000000000000000000000000000000000000000000000000000815260040161306b90614c22565b60405180910390fd5b61307d8161363d565b50565b60007f01ffc9a7000000000000000000000000000000000000000000000000000000007bffffffffffffffffffffffffffffffffffffffffffffffffffffffff1916827bffffffffffffffffffffffffffffffffffffffffffffffffffffffff1916149050919050565b600081600001549050919050565b61311282826040518060200160405280600081525061393a565b5050565b6131b083838360405160240161312e93929190614bbd565b6040516020818303038152906040527ff362ca59000000000000000000000000000000000000000000000000000000007bffffffffffffffffffffffffffffffffffffffffffffffffffffffff19166020820180517bffffffffffffffffffffffffffffffffffffffffffffffffffffffff8381831617835250505050613995565b505050565b6001816000016000828254019250508190555050565b60008073ffffffffffffffffffffffffffffffffffffffff166067600084815260200190815260200160002060009054906101000a900473ffffffffffffffffffffffffffffffffffffffff1673ffffffffffffffffffffffffffffffffffffffff1614159050919050565b600033905090565b816069600083815260200190815260200160002060006101000a81548173ffffffffffffffffffffffffffffffffffffffff021916908373ffffffffffffffffffffffffffffffffffffffff160217905550808273ffffffffffffffffffffffffffffffffffffffff166132b283611ee3565b73ffffffffffffffffffffffffffffffffffffffff167f8c5be1e5ebec7d5bd14f71427d1e84f3dd0314c0f7b2291e5b200ac8c7c3b92560405160405180910390a45050565b6000613303826131cb565b613342576040517f08c379a000000000000000000000000000000000000000000000000000000000815260040161333990614cc2565b60405180910390fd5b600061334d83611ee3565b90508073ffffffffffffffffffffffffffffffffffffffff168473ffffffffffffffffffffffffffffffffffffffff1614806133bc57508373ffffffffffffffffffffffffffffffffffffffff166133a484610a18565b73ffffffffffffffffffffffffffffffffffffffff16145b806133cd57506133cc8185612ef4565b5b91505092915050565b8273ffffffffffffffffffffffffffffffffffffffff166133f682611ee3565b73ffffffffffffffffffffffffffffffffffffffff161461344c576040517f08c379a000000000000000000000000000000000000000000000000000000000815260040161344390614c42565b60405180910390fd5b600073ffffffffffffffffffffffffffffffffffffffff168273ffffffffffffffffffffffffffffffffffffffff1614156134bc576040517f08c379a00000000000000000000000000000000000000000000000000000000081526004016134b390614c82565b60405180910390fd5b6134c78383836139be565b6134d260008261323f565b6001606860008573ffffffffffffffffffffffffffffffffffffffff1673ffffffffffffffffffffffffffffffffffffffff1681526020019081526020016000206000828254613522919061502a565b925050819055506001606860008473ffffffffffffffffffffffffffffffffffffffff1673ffffffffffffffffffffffffffffffffffffffff16815260200190815260200160002060008282546135799190614fd4565b92505081905550816067600083815260200190815260200160002060006101000a81548173ffffffffffffffffffffffffffffffffffffffff021916908373ffffffffffffffffffffffffffffffffffffffff160217905550808273ffffffffffffffffffffffffffffffffffffffff168473ffffffffffffffffffffffffffffffffffffffff167fddf252ad1be2c89b69c2b068fc378daa952ba7f163c4a11628f55a4df523b3ef60405160405180910390a46136388383836139c3565b505050565b6000609760009054906101000a900473ffffffffffffffffffffffffffffffffffffffff16905081609760006101000a81548173ffffffffffffffffffffffffffffffffffffffff021916908373ffffffffffffffffffffffffffffffffffffffff1602179055508173ffffffffffffffffffffffffffffffffffffffff168173ffffffffffffffffffffffffffffffffffffffff167f8be0079c531659141344cd1fd0a4f28419497f9722a3daafe3b4186f6b6457e060405160405180910390a35050565b600061370e306139c8565b15905090565b600060019054906101000a900460ff16613763576040517f08c379a000000000000000000000000000000000000000000000000000000000815260040161375a90614e02565b60405180910390fd5b61376d82826139eb565b5050565b8173ffffffffffffffffffffffffffffffffffffffff168373ffffffffffffffffffffffffffffffffffffffff1614156137e0576040517f08c379a00000000000000000000000000000000000000000000000000000000081526004016137d790614ca2565b60405180910390fd5b80606a60008573ffffffffffffffffffffffffffffffffffffffff1673ffffffffffffffffffffffffffffffffffffffff16815260200190815260200160002060008473ffffffffffffffffffffffffffffffffffffffff1673ffffffffffffffffffffffffffffffffffffffff16815260200190815260200160002060006101000a81548160ff0219169083151502179055508173ffffffffffffffffffffffffffffffffffffffff168373ffffffffffffffffffffffffffffffffffffffff167f17307eab39ab6107e8899845ad3d59bd9653f200f220920489ca2b5937696c31836040516138d19190614b80565b60405180910390a3505050565b6138e98484846133d6565b6138f584848484613a6c565b613934576040517f08c379a000000000000000000000000000000000000000000000000000000000815260040161392b90614c02565b60405180910390fd5b50505050565b6139448383613c03565b6139516000848484613a6c565b613990576040517f08c379a000000000000000000000000000000000000000000000000000000000815260040161398790614c02565b60405180910390fd5b505050565b60008151905060006a636f6e736f6c652e6c6f679050602083016000808483855afa5050505050565b505050565b505050565b6000808273ffffffffffffffffffffffffffffffffffffffff163b119050919050565b600060019054906101000a900460ff16613a3a576040517f08c379a0000000000000000000000000000000000000000000000000000000008152600401613a3190614e02565b60405180910390fd5b8160659080519060200190613a50929190613ddd565b508060669080519060200190613a67929190613ddd565b505050565b6000613a8d8473ffffffffffffffffffffffffffffffffffffffff166139c8565b15613bf6578373ffffffffffffffffffffffffffffffffffffffff1663150b7a02613ab6613237565b8786866040518563ffffffff1660e01b8152600401613ad89493929190614b12565b602060405180830381600087803b158015613af257600080fd5b505af1925050508015613b2357506040513d601f19601f82011682018060405250810190613b20919061446b565b60015b613ba6573d8060008114613b53576040519150601f19603f3d011682016040523d82523d6000602084013e613b58565b606091505b50600081511415613b9e576040517f08c379a0000000000000000000000000000000000000000000000000000000008152600401613b9590614c02565b60405180910390fd5b805181602001fd5b63150b7a0260e01b7bffffffffffffffffffffffffffffffffffffffffffffffffffffffff1916817bffffffffffffffffffffffffffffffffffffffffffffffffffffffff191614915050613bfb565b600190505b949350505050565b600073ffffffffffffffffffffffffffffffffffffffff168273ffffffffffffffffffffffffffffffffffffffff161415613c73576040517f08c379a0000000000000000000000000000000000000000000000000000000008152600401613c6a90614d62565b60405180910390fd5b613c7c816131cb565b15613cbc576040517f08c379a0000000000000000000000000000000000000000000000000000000008152600401613cb390614c62565b60405180910390fd5b613cc8600083836139be565b6001606860008473ffffffffffffffffffffffffffffffffffffffff1673ffffffffffffffffffffffffffffffffffffffff1681526020019081526020016000206000828254613d189190614fd4565b92505081905550816067600083815260200190815260200160002060006101000a81548173ffffffffffffffffffffffffffffffffffffffff021916908373ffffffffffffffffffffffffffffffffffffffff160217905550808273ffffffffffffffffffffffffffffffffffffffff16600073ffffffffffffffffffffffffffffffffffffffff167fddf252ad1be2c89b69c2b068fc378daa952ba7f163c4a11628f55a4df523b3ef60405160405180910390a4613dd9600083836139c3565b5050565b828054613de990615114565b90600052602060002090601f016020900481019282613e0b5760008555613e52565b82601f10613e2457805160ff1916838001178555613e52565b82800160010185558215613e52579182015b82811115613e51578251825591602001919060010190613e36565b5b509050613e5f9190613ec3565b5090565b828054828255906000526020600020908101928215613eb2579160200282015b82811115613eb1578251829080519060200190613ea1929190613ddd565b5091602001919060010190613e83565b5b509050613ebf9190613ee0565b5090565b5b80821115613edc576000816000905550600101613ec4565b5090565b5b80821115613f005760008181613ef79190613f04565b50600101613ee1565b5090565b508054613f1090615114565b6000825580601f10613f225750613f41565b601f016020900490600052602060002090810190613f409190613ec3565b5b50565b6000613f57613f5284614e8b565b614e66565b90508083825260208201905082856020860282011115613f7657600080fd5b60005b85811015613fc057813567ffffffffffffffff811115613f9857600080fd5b808601613fa589826140ee565b85526020850194506020840193505050600181019050613f79565b5050509392505050565b6000613fdd613fd884614eb7565b614e66565b905082815260208101848484011115613ff557600080fd5b6140008482856150d2565b509392505050565b600061401b61401684614ee8565b614e66565b90508281526020810184848401111561403357600080fd5b61403e8482856150d2565b509392505050565b60008135905061405581615705565b92915050565b600082601f83011261406c57600080fd5b813561407c848260208601613f44565b91505092915050565b6000813590506140948161571c565b92915050565b6000813590506140a981615733565b92915050565b6000815190506140be81615733565b92915050565b600082601f8301126140d557600080fd5b81356140e5848260208601613fca565b91505092915050565b600082601f8301126140ff57600080fd5b813561410f848260208601614008565b91505092915050565b6000813590506141278161574a565b92915050565b60006020828403121561413f57600080fd5b600061414d84828501614046565b91505092915050565b6000806040838503121561416957600080fd5b600061417785828601614046565b925050602061418885828601614046565b9150509250929050565b6000806000606084860312156141a757600080fd5b60006141b586828701614046565b93505060206141c686828701614046565b92505060406141d786828701614118565b9150509250925092565b600080600080608085870312156141f757600080fd5b600061420587828801614046565b945050602061421687828801614046565b935050604061422787828801614118565b925050606085013567ffffffffffffffff81111561424457600080fd5b614250878288016140c4565b91505092959194509250565b6000806040838503121561426f57600080fd5b600061427d85828601614046565b925050602061428e85828601614085565b9150509250929050565b60008060008060008060008060006101208a8c0312156142b757600080fd5b60006142c58c828d01614046565b99505060208a013567ffffffffffffffff8111156142e257600080fd5b6142ee8c828d016140ee565b98505060408a013567ffffffffffffffff81111561430b57600080fd5b6143178c828d016140ee565b97505060608a013567ffffffffffffffff81111561433457600080fd5b6143408c828d0161405b565b96505060808a013567ffffffffffffffff81111561435d57600080fd5b6143698c828d016140ee565b95505060a061437a8c828d01614046565b94505060c08a013567ffffffffffffffff81111561439757600080fd5b6143a38c828d016140ee565b93505060e08a013567ffffffffffffffff8111156143c057600080fd5b6143cc8c828d016140ee565b9250506101008a013567ffffffffffffffff8111156143ea57600080fd5b6143f68c828d016140ee565b9150509295985092959850929598565b6000806040838503121561441957600080fd5b600061442785828601614046565b925050602061443885828601614118565b9150509250929050565b60006020828403121561445457600080fd5b60006144628482850161409a565b91505092915050565b60006020828403121561447d57600080fd5b600061448b848285016140af565b91505092915050565b6000602082840312156144a657600080fd5b60006144b484828501614118565b91505092915050565b60006144c98383614635565b905092915050565b60006144dd83836148fa565b905092915050565b6144ee8161505e565b82525050565b6144fd8161505e565b82525050565b600061450e82614f39565b6145188185614f7f565b93508360208202850161452a85614f19565b8060005b85811015614566578484038952815161454785826144bd565b945061455283614f65565b925060208a0199505060018101905061452e565b50829750879550505050505092915050565b600061458382614f44565b61458d8185614f90565b93508360208202850161459f85614f29565b8060005b858110156145db57848403895281516145bc85826144d1565b94506145c783614f72565b925060208a019950506001810190506145a3565b50829750879550505050505092915050565b6145f681615070565b82525050565b600061460782614f4f565b6146118185614fa1565b93506146218185602086016150e1565b61462a8161524d565b840191505092915050565b600061464082614f5a565b61464a8185614fb2565b935061465a8185602086016150e1565b6146638161524d565b840191505092915050565b600061467982614f5a565b6146838185614fc3565b93506146938185602086016150e1565b61469c8161524d565b840191505092915050565b60006146b4603283614fc3565b91506146bf8261525e565b604082019050919050565b60006146d7602683614fc3565b91506146e2826152ad565b604082019050919050565b60006146fa602583614fc3565b9150614705826152fc565b604082019050919050565b600061471d601c83614fc3565b91506147288261534b565b602082019050919050565b6000614740602483614fc3565b915061474b82615374565b604082019050919050565b6000614763601983614fc3565b915061476e826153c3565b602082019050919050565b6000614786602c83614fc3565b9150614791826153ec565b604082019050919050565b60006147a9603883614fc3565b91506147b48261543b565b604082019050919050565b60006147cc602a83614fc3565b91506147d78261548a565b604082019050919050565b60006147ef602983614fc3565b91506147fa826154d9565b604082019050919050565b6000614812602e83614fc3565b915061481d82615528565b604082019050919050565b6000614835602083614fc3565b915061484082615577565b602082019050919050565b6000614858602c83614fc3565b9150614863826155a0565b604082019050919050565b600061487b602083614fc3565b9150614886826155ef565b602082019050919050565b600061489e602183614fc3565b91506148a982615618565b604082019050919050565b60006148c1603183614fc3565b91506148cc82615667565b604082019050919050565b60006148e4602b83614fc3565b91506148ef826156b6565b604082019050919050565b60006101608301600083015161491360008601826144e5565b50602083015161492660208601826144e5565b506040830151848203604086015261493e8282614635565b915050606083015184820360608601526149588282614635565b915050608083015184820360808601526149728282614503565b91505060a083015184820360a086015261498c8282614635565b91505060c083015184820360c08601526149a68282614635565b91505060e083015184820360e08601526149c08282614635565b9150506101008301516149d7610100860182614a13565b506101208301518482036101208601526149f18282614635565b915050610140830151614a08610140860182614a13565b508091505092915050565b614a1c816150c8565b82525050565b614a2b816150c8565b82525050565b6000602082019050614a4660008301846144f4565b92915050565b600061014082019050614a62600083018d6144f4565b614a6f602083018c6144f4565b8181036040830152614a81818b61466e565b90508181036060830152614a95818a61466e565b90508181036080830152614aa9818961466e565b905081810360a0830152614abd818861466e565b905081810360c0830152614ad1818761466e565b9050614ae060e0830186614a22565b818103610100830152614af3818561466e565b9050614b03610120830184614a22565b9b9a5050505050505050505050565b6000608082019050614b2760008301876144f4565b614b3460208301866144f4565b614b416040830185614a22565b8181036060830152614b5381846145fc565b905095945050505050565b60006020820190508181036000830152614b788184614578565b905092915050565b6000602082019050614b9560008301846145ed565b92915050565b60006020820190508181036000830152614bb5818461466e565b905092915050565b60006060820190508181036000830152614bd7818661466e565b90508181036020830152614beb818561466e565b9050614bfa6040830184614a22565b949350505050565b60006020820190508181036000830152614c1b816146a7565b9050919050565b60006020820190508181036000830152614c3b816146ca565b9050919050565b60006020820190508181036000830152614c5b816146ed565b9050919050565b60006020820190508181036000830152614c7b81614710565b9050919050565b60006020820190508181036000830152614c9b81614733565b9050919050565b60006020820190508181036000830152614cbb81614756565b9050919050565b60006020820190508181036000830152614cdb81614779565b9050919050565b60006020820190508181036000830152614cfb8161479c565b9050919050565b60006020820190508181036000830152614d1b816147bf565b9050919050565b60006020820190508181036000830152614d3b816147e2565b9050919050565b60006020820190508181036000830152614d5b81614805565b9050919050565b60006020820190508181036000830152614d7b81614828565b9050919050565b60006020820190508181036000830152614d9b8161484b565b9050919050565b60006020820190508181036000830152614dbb8161486e565b9050919050565b60006020820190508181036000830152614ddb81614891565b9050919050565b60006020820190508181036000830152614dfb816148b4565b9050919050565b60006020820190508181036000830152614e1b816148d7565b9050919050565b6000602082019050614e376000830184614a22565b92915050565b6000604082019050614e526000830185614a22565b614e5f6020830184614a22565b9392505050565b6000614e70614e81565b9050614e7c8282615146565b919050565b6000604051905090565b600067ffffffffffffffff821115614ea657614ea561521e565b5b602082029050602081019050919050565b600067ffffffffffffffff821115614ed257614ed161521e565b5b614edb8261524d565b9050602081019050919050565b600067ffffffffffffffff821115614f0357614f0261521e565b5b614f0c8261524d565b9050602081019050919050565b6000819050602082019050919050565b6000819050602082019050919050565b600081519050919050565b600081519050919050565b600081519050919050565b600081519050919050565b6000602082019050919050565b6000602082019050919050565b600082825260208201905092915050565b600082825260208201905092915050565b600082825260208201905092915050565b600082825260208201905092915050565b600082825260208201905092915050565b6000614fdf826150c8565b9150614fea836150c8565b9250827fffffffffffffffffffffffffffffffffffffffffffffffffffffffffffffffff0382111561501f5761501e6151c0565b5b828201905092915050565b6000615035826150c8565b9150615040836150c8565b925082821015615053576150526151c0565b5b828203905092915050565b6000615069826150a8565b9050919050565b60008115159050919050565b60007fffffffff0000000000000000000000000000000000000000000000000000000082169050919050565b600073ffffffffffffffffffffffffffffffffffffffff82169050919050565b6000819050919050565b82818337600083830152505050565b60005b838110156150ff5780820151818401526020810190506150e4565b8381111561510e576000848401525b50505050565b6000600282049050600182168061512c57607f821691505b602082108114156151405761513f6151ef565b5b50919050565b61514f8261524d565b810181811067ffffffffffffffff8211171561516e5761516d61521e565b5b80604052505050565b6000615182826150c8565b91507fffffffffffffffffffffffffffffffffffffffffffffffffffffffffffffffff8214156151b5576151b46151c0565b5b600182019050919050565b7f4e487b7100000000000000000000000000000000000000000000000000000000600052601160045260246000fd5b7f4e487b7100000000000000000000000000000000000000000000000000000000600052602260045260246000fd5b7f4e487b7100000000000000000000000000000000000000000000000000000000600052604160045260246000fd5b6000601f19601f8301169050919050565b7f4552433732313a207472616e7366657220746f206e6f6e20455243373231526560008201527f63656976657220696d706c656d656e7465720000000000000000000000000000602082015250565b7f4f776e61626c653a206e6577206f776e657220697320746865207a65726f206160008201527f6464726573730000000000000000000000000000000000000000000000000000602082015250565b7f4552433732313a207472616e736665722066726f6d20696e636f72726563742060008201527f6f776e6572000000000000000000000000000000000000000000000000000000602082015250565b7f4552433732313a20746f6b656e20616c7265616479206d696e74656400000000600082015250565b7f4552433732313a207472616e7366657220746f20746865207a65726f2061646460008201527f7265737300000000000000000000000000000000000000000000000000000000602082015250565b7f4552433732313a20617070726f766520746f2063616c6c657200000000000000600082015250565b7f4552433732313a206f70657261746f7220717565727920666f72206e6f6e657860008201527f697374656e7420746f6b656e0000000000000000000000000000000000000000602082015250565b7f4552433732313a20617070726f76652063616c6c6572206973206e6f74206f7760008201527f6e6572206e6f7220617070726f76656420666f7220616c6c0000000000000000602082015250565b7f4552433732313a2062616c616e636520717565727920666f7220746865207a6560008201527f726f206164647265737300000000000000000000000000000000000000000000602082015250565b7f4552433732313a206f776e657220717565727920666f72206e6f6e657869737460008201527f656e7420746f6b656e0000000000000000000000000000000000000000000000602082015250565b7f496e697469616c697a61626c653a20636f6e747261637420697320616c72656160008201527f647920696e697469616c697a6564000000000000000000000000000000000000602082015250565b7f4552433732313a206d696e7420746f20746865207a65726f2061646472657373600082015250565b7f4552433732313a20617070726f76656420717565727920666f72206e6f6e657860008201527f697374656e7420746f6b656e0000000000000000000000000000000000000000602082015250565b7f4f776e61626c653a2063616c6c6572206973206e6f7420746865206f776e6572600082015250565b7f4552433732313a20617070726f76616c20746f2063757272656e74206f776e6560008201527f7200000000000000000000000000000000000000000000000000000000000000602082015250565b7f4552433732313a207472616e736665722063616c6c6572206973206e6f74206f60008201527f776e6572206e6f7220617070726f766564000000000000000000000000000000602082015250565b7f496e697469616c697a61626c653a20636f6e7472616374206973206e6f74206960008201527f6e697469616c697a696e67000000000000000000000000000000000000000000602082015250565b61570e8161505e565b811461571957600080fd5b50565b61572581615070565b811461573057600080fd5b50565b61573c8161507c565b811461574757600080fd5b50565b615753816150c8565b811461575e57600080fd5b5056fe2a2a2a2a2a2a4d696e746564202573204e465420772f20746f6b656e4964202573202a2a2a2a2a2aa2646970667358221220f6e81401acb1c0236f05b545a62490c2cce3ad1fcbd3c25c24294aba2db73ba964736f6c63430008040033",
  "linkReferences": {},
  "deployedLinkReferences": {}
}