{
  "_format": "hh-sol-artifact-1",
  "contractName": "Phlote",
  "sourceName": "contracts/Phlote.sol",
  "abi": [
    {
      "inputs": [],
      "stateMutability": "nonpayable",
      "type": "constructor"
    },
    {
      "anonymous": false,
      "inputs": [
        {
          "indexed": true,
          "internalType": "address",
          "name": "owner",
          "type": "address"
        },
        {
          "indexed": true,
          "internalType": "address",
          "name": "approved",
          "type": "address"
        },
        {
          "indexed": true,
          "internalType": "uint256",
          "name": "tokenId",
          "type": "uint256"
        }
      ],
      "name": "Approval",
      "type": "event"
    },
    {
      "anonymous": false,
      "inputs": [
        {
          "indexed": true,
          "internalType": "address",
          "name": "owner",
          "type": "address"
        },
        {
          "indexed": true,
          "internalType": "address",
          "name": "operator",
          "type": "address"
        },
        {
          "indexed": false,
          "internalType": "bool",
          "name": "approved",
          "type": "bool"
        }
      ],
      "name": "ApprovalForAll",
      "type": "event"
    },
    {
      "anonymous": false,
      "inputs": [
        {
          "indexed": false,
          "internalType": "address",
          "name": "sender",
          "type": "address"
        },
        {
          "indexed": true,
          "internalType": "uint256",
          "name": "editionId",
          "type": "uint256"
        }
      ],
      "name": "EditionCreated",
      "type": "event"
    },
    {
      "anonymous": false,
      "inputs": [
        {
          "indexed": true,
          "internalType": "address",
          "name": "buyer",
          "type": "address"
        },
        {
          "indexed": false,
          "internalType": "uint256",
          "name": "tokenId",
          "type": "uint256"
        },
        {
          "indexed": false,
          "internalType": "uint256",
          "name": "numSold",
          "type": "uint256"
        }
      ],
      "name": "EditionMinted",
      "type": "event"
    },
    {
      "anonymous": false,
      "inputs": [
        {
          "indexed": true,
          "internalType": "address",
          "name": "previousOwner",
          "type": "address"
        },
        {
          "indexed": true,
          "internalType": "address",
          "name": "newOwner",
          "type": "address"
        }
      ],
      "name": "OwnershipTransferred",
      "type": "event"
    },
    {
      "anonymous": false,
      "inputs": [
        {
          "indexed": true,
          "internalType": "address",
          "name": "from",
          "type": "address"
        },
        {
          "indexed": true,
          "internalType": "address",
          "name": "to",
          "type": "address"
        },
        {
          "indexed": true,
          "internalType": "uint256",
          "name": "tokenId",
          "type": "uint256"
        }
      ],
      "name": "Transfer",
      "type": "event"
    },
    {
      "inputs": [
        {
          "internalType": "address",
          "name": "to",
          "type": "address"
        },
        {
          "internalType": "uint256",
          "name": "tokenId",
          "type": "uint256"
        }
      ],
      "name": "approve",
      "outputs": [],
      "stateMutability": "nonpayable",
      "type": "function"
    },
    {
      "inputs": [
        {
          "internalType": "address",
          "name": "owner",
          "type": "address"
        }
      ],
      "name": "balanceOf",
      "outputs": [
        {
          "internalType": "uint256",
          "name": "",
          "type": "uint256"
        }
      ],
      "stateMutability": "view",
      "type": "function"
    },
    {
      "inputs": [],
      "name": "contractPrice",
      "outputs": [
        {
          "internalType": "uint256",
          "name": "",
          "type": "uint256"
        }
      ],
      "stateMutability": "view",
      "type": "function"
    },
    {
      "inputs": [
        {
          "internalType": "address",
          "name": "",
          "type": "address"
        }
      ],
      "name": "curatorSubmissions",
      "outputs": [
        {
          "internalType": "address",
          "name": "curatorAddress",
          "type": "address"
        },
        {
          "internalType": "address",
          "name": "artistAddress",
          "type": "address"
        },
        {
          "internalType": "string",
          "name": "mediaURI",
          "type": "string"
        },
        {
          "internalType": "string",
          "name": "marketplace",
          "type": "string"
        },
        {
          "internalType": "string",
          "name": "artistName",
          "type": "string"
        },
        {
          "internalType": "string",
          "name": "mediaType",
          "type": "string"
        },
        {
          "internalType": "string",
          "name": "mediaTitle",
          "type": "string"
        },
        {
          "internalType": "uint256",
          "name": "numSold",
          "type": "uint256"
        },
        {
          "internalType": "string",
          "name": "tokenURI",
          "type": "string"
        }
      ],
      "stateMutability": "view",
      "type": "function"
    },
    {
      "inputs": [
        {
          "internalType": "uint256",
          "name": "",
          "type": "uint256"
        }
      ],
      "name": "editions",
      "outputs": [
        {
          "internalType": "address",
          "name": "curatorAddress",
          "type": "address"
        },
        {
          "internalType": "address",
          "name": "artistAddress",
          "type": "address"
        },
        {
          "internalType": "string",
          "name": "mediaURI",
          "type": "string"
        },
        {
          "internalType": "string",
          "name": "marketplace",
          "type": "string"
        },
        {
          "internalType": "string",
          "name": "artistName",
          "type": "string"
        },
        {
          "internalType": "string",
          "name": "mediaType",
          "type": "string"
        },
        {
          "internalType": "string",
          "name": "mediaTitle",
          "type": "string"
        },
        {
          "internalType": "uint256",
          "name": "numSold",
          "type": "uint256"
        },
        {
          "internalType": "string",
          "name": "tokenURI",
          "type": "string"
        }
      ],
      "stateMutability": "view",
      "type": "function"
    },
    {
      "inputs": [],
      "name": "getAllcontent",
      "outputs": [
        {
          "components": [
            {
              "internalType": "address",
              "name": "curatorAddress",
              "type": "address"
            },
            {
              "internalType": "address",
              "name": "artistAddress",
              "type": "address"
            },
            {
              "internalType": "string",
              "name": "mediaURI",
              "type": "string"
            },
            {
              "internalType": "string",
              "name": "marketplace",
              "type": "string"
            },
            {
              "internalType": "string[]",
              "name": "tags",
              "type": "string[]"
            },
            {
              "internalType": "string",
              "name": "artistName",
              "type": "string"
            },
            {
              "internalType": "string",
              "name": "mediaType",
              "type": "string"
            },
            {
              "internalType": "string",
              "name": "mediaTitle",
              "type": "string"
            },
            {
              "internalType": "uint256",
              "name": "numSold",
              "type": "uint256"
            },
            {
              "internalType": "string",
              "name": "tokenURI",
              "type": "string"
            }
          ],
          "internalType": "struct Phlote.Edition[]",
          "name": "",
          "type": "tuple[]"
        }
      ],
      "stateMutability": "view",
      "type": "function"
    },
    {
      "inputs": [
        {
          "internalType": "uint256",
          "name": "tokenId",
          "type": "uint256"
        }
      ],
      "name": "getApproved",
      "outputs": [
        {
          "internalType": "address",
          "name": "",
          "type": "address"
        }
      ],
      "stateMutability": "view",
      "type": "function"
    },
    {
      "inputs": [
        {
          "internalType": "address",
          "name": "owner",
          "type": "address"
        },
        {
          "internalType": "address",
          "name": "operator",
          "type": "address"
        }
      ],
      "name": "isApprovedForAll",
      "outputs": [
        {
          "internalType": "bool",
          "name": "",
          "type": "bool"
        }
      ],
      "stateMutability": "view",
      "type": "function"
    },
    {
      "inputs": [
        {
          "internalType": "uint256",
          "name": "editionId",
          "type": "uint256"
        }
      ],
      "name": "mintEdition",
      "outputs": [],
      "stateMutability": "payable",
      "type": "function"
    },
    {
      "inputs": [],
      "name": "name",
      "outputs": [
        {
          "internalType": "string",
          "name": "",
          "type": "string"
        }
      ],
      "stateMutability": "view",
      "type": "function"
    },
    {
      "inputs": [
        {
          "internalType": "address",
          "name": "",
          "type": "address"
        }
      ],
      "name": "nftHolders",
      "outputs": [
        {
          "internalType": "uint256",
          "name": "",
          "type": "uint256"
        }
      ],
      "stateMutability": "view",
      "type": "function"
    },
    {
      "inputs": [],
      "name": "owner",
      "outputs": [
        {
          "internalType": "address",
          "name": "",
          "type": "address"
        }
      ],
      "stateMutability": "view",
      "type": "function"
    },
    {
      "inputs": [
        {
          "internalType": "uint256",
          "name": "tokenId",
          "type": "uint256"
        }
      ],
      "name": "ownerOf",
      "outputs": [
        {
          "internalType": "address",
          "name": "",
          "type": "address"
        }
      ],
      "stateMutability": "view",
      "type": "function"
    },
    {
      "inputs": [],
      "name": "renounceOwnership",
      "outputs": [],
      "stateMutability": "nonpayable",
      "type": "function"
    },
    {
      "inputs": [
        {
          "internalType": "address",
          "name": "from",
          "type": "address"
        },
        {
          "internalType": "address",
          "name": "to",
          "type": "address"
        },
        {
          "internalType": "uint256",
          "name": "tokenId",
          "type": "uint256"
        }
      ],
      "name": "safeTransferFrom",
      "outputs": [],
      "stateMutability": "nonpayable",
      "type": "function"
    },
    {
      "inputs": [
        {
          "internalType": "address",
          "name": "from",
          "type": "address"
        },
        {
          "internalType": "address",
          "name": "to",
          "type": "address"
        },
        {
          "internalType": "uint256",
          "name": "tokenId",
          "type": "uint256"
        },
        {
          "internalType": "bytes",
          "name": "_data",
          "type": "bytes"
        }
      ],
      "name": "safeTransferFrom",
      "outputs": [],
      "stateMutability": "nonpayable",
      "type": "function"
    },
    {
      "inputs": [
        {
          "internalType": "address",
          "name": "operator",
          "type": "address"
        },
        {
          "internalType": "bool",
          "name": "approved",
          "type": "bool"
        }
      ],
      "name": "setApprovalForAll",
      "outputs": [],
      "stateMutability": "nonpayable",
      "type": "function"
    },
    {
      "inputs": [
        {
          "internalType": "address",
          "name": "_curatorWallet",
          "type": "address"
        },
        {
          "internalType": "string",
          "name": "_mediaURI",
          "type": "string"
        },
        {
          "internalType": "string",
          "name": "_marketplace",
          "type": "string"
        },
        {
          "internalType": "string[]",
          "name": "_tags",
          "type": "string[]"
        },
        {
          "internalType": "string",
          "name": "_artistName",
          "type": "string"
        },
        {
          "internalType": "address",
          "name": "_artistWallet",
          "type": "address"
        },
        {
          "internalType": "string",
          "name": "_mediaType",
          "type": "string"
        },
        {
          "internalType": "string",
          "name": "_mediaTitle",
          "type": "string"
        },
        {
          "internalType": "string",
          "name": "_tokenURI",
          "type": "string"
        }
      ],
      "name": "submitPost",
      "outputs": [],
      "stateMutability": "nonpayable",
      "type": "function"
    },
    {
      "inputs": [
        {
          "internalType": "bytes4",
          "name": "interfaceId",
          "type": "bytes4"
        }
      ],
      "name": "supportsInterface",
      "outputs": [
        {
          "internalType": "bool",
          "name": "",
          "type": "bool"
        }
      ],
      "stateMutability": "view",
      "type": "function"
    },
    {
      "inputs": [],
      "name": "symbol",
      "outputs": [
        {
          "internalType": "string",
          "name": "",
          "type": "string"
        }
      ],
      "stateMutability": "view",
      "type": "function"
    },
    {
      "inputs": [
        {
          "internalType": "uint256",
          "name": "",
          "type": "uint256"
        }
      ],
      "name": "tokenToSong",
      "outputs": [
        {
          "internalType": "uint256",
          "name": "",
          "type": "uint256"
        }
      ],
      "stateMutability": "view",
      "type": "function"
    },
    {
      "inputs": [
        {
          "internalType": "uint256",
          "name": "_tokenId",
          "type": "uint256"
        }
      ],
      "name": "tokenURI",
      "outputs": [
        {
          "internalType": "string",
          "name": "",
          "type": "string"
        }
      ],
      "stateMutability": "view",
      "type": "function"
    },
    {
      "inputs": [
        {
          "internalType": "address",
          "name": "from",
          "type": "address"
        },
        {
          "internalType": "address",
          "name": "to",
          "type": "address"
        },
        {
          "internalType": "uint256",
          "name": "tokenId",
          "type": "uint256"
        }
      ],
      "name": "transferFrom",
      "outputs": [],
      "stateMutability": "nonpayable",
      "type": "function"
    },
    {
      "inputs": [
        {
          "internalType": "address",
          "name": "newOwner",
          "type": "address"
        }
      ],
      "name": "transferOwnership",
      "outputs": [],
      "stateMutability": "nonpayable",
      "type": "function"
    },
    {
      "inputs": [
        {
          "internalType": "uint256",
          "name": "",
          "type": "uint256"
        }
      ],
      "name": "withdrawnForEdition",
      "outputs": [
        {
          "internalType": "uint256",
          "name": "",
          "type": "uint256"
        }
      ],
      "stateMutability": "view",
      "type": "function"
    }
  ],
  "bytecode": "0x608060405260016009553480156200001657600080fd5b506040518060400160405280600781526020017f636f6e74656e74000000000000000000000000000000000000000000000000008152506040518060400160405280600481526020017f534f4e470000000000000000000000000000000000000000000000000000000081525081600090805190602001906200009b929190620001d8565b508060019080519060200190620000b4929190620001d8565b505050620000d7620000cb620000f460201b60201c565b620000fc60201b60201c565b620000ee6008620001c260201b6200271f1760201c565b620002ed565b600033905090565b6000600660009054906101000a900473ffffffffffffffffffffffffffffffffffffffff16905081600660006101000a81548173ffffffffffffffffffffffffffffffffffffffff021916908373ffffffffffffffffffffffffffffffffffffffff1602179055508173ffffffffffffffffffffffffffffffffffffffff168173ffffffffffffffffffffffffffffffffffffffff167f8be0079c531659141344cd1fd0a4f28419497f9722a3daafe3b4186f6b6457e060405160405180910390a35050565b6001816000016000828254019250508190555050565b828054620001e69062000288565b90600052602060002090601f0160209004810192826200020a576000855562000256565b82601f106200022557805160ff191683800117855562000256565b8280016001018555821562000256579182015b828111156200025557825182559160200191906001019062000238565b5b50905062000265919062000269565b5090565b5b80821115620002845760008160009055506001016200026a565b5090565b60006002820490506001821680620002a157607f821691505b60208210811415620002b857620002b7620002be565b5b50919050565b7f4e487b7100000000000000000000000000000000000000000000000000000000600052602260045260246000fd5b614cf080620002fd6000396000f3fe6080604052600436106101665760003560e01c8063715018a6116100d1578063b5860a9b1161008a578063d3bb052811610064578063d3bb052814610563578063e2b18d3f146105a0578063e985e9c5146105dd578063f2fde38b1461061a57610166565b8063b5860a9b146104b8578063b88d4fde146104fd578063c87b56dd1461052657610166565b8063715018a6146103ba5780637df124a1146103d15780638da5cb5b1461040e57806395d89b411461043957806397e9a0bf14610464578063a22cb4651461048f57610166565b8063279c806e11610123578063279c806e1461027e57806342842e0e146102c357806357954dd1146102ec5780636352211e146103175780636b1658541461035457806370a082311461037d57610166565b806301ffc9a71461016b57806305322b74146101a857806306fdde03146101c4578063081812fc146101ef578063095ea7b31461022c57806323b872dd14610255575b600080fd5b34801561017757600080fd5b50610192600480360381019061018d9190613abb565b610643565b60405161019f919061418f565b60405180910390f35b6101c260048036038101906101bd9190613b0d565b610725565b005b3480156101d057600080fd5b506101d96108fa565b6040516101e691906141aa565b60405180910390f35b3480156101fb57600080fd5b5061021660048036038101906102119190613b0d565b61098c565b604051610223919061404f565b60405180910390f35b34801561023857600080fd5b50610253600480360381019061024e9190613a7f565b610a11565b005b34801561026157600080fd5b5061027c6004803603810190610277919061380b565b610b29565b005b34801561028a57600080fd5b506102a560048036038101906102a09190613b0d565b610b89565b6040516102ba9998979695949392919061406a565b60405180910390f35b3480156102cf57600080fd5b506102ea60048036038101906102e5919061380b565b610f47565b005b3480156102f857600080fd5b50610301610f67565b60405161030e919061416d565b60405180910390f35b34801561032357600080fd5b5061033e60048036038101906103399190613b0d565b6114c2565b60405161034b919061404f565b60405180910390f35b34801561036057600080fd5b5061037b60048036038101906103769190613911565b611574565b005b34801561038957600080fd5b506103a4600480360381019061039f91906137a6565b6119d2565b6040516103b191906143f1565b60405180910390f35b3480156103c657600080fd5b506103cf611a8a565b005b3480156103dd57600080fd5b506103f860048036038101906103f391906137a6565b611b12565b60405161040591906143f1565b60405180910390f35b34801561041a57600080fd5b50610423611b2a565b604051610430919061404f565b60405180910390f35b34801561044557600080fd5b5061044e611b54565b60405161045b91906141aa565b60405180910390f35b34801561047057600080fd5b50610479611be6565b60405161048691906143f1565b60405180910390f35b34801561049b57600080fd5b506104b660048036038101906104b191906138d5565b611bec565b005b3480156104c457600080fd5b506104df60048036038101906104da91906137a6565b611c02565b6040516104f49998979695949392919061406a565b60405180910390f35b34801561050957600080fd5b50610524600480360381019061051f919061385a565b611fc0565b005b34801561053257600080fd5b5061054d60048036038101906105489190613b0d565b612022565b60405161055a91906141aa565b60405180910390f35b34801561056f57600080fd5b5061058a60048036038101906105859190613b0d565b612563565b60405161059791906143f1565b60405180910390f35b3480156105ac57600080fd5b506105c760048036038101906105c29190613b0d565b61257b565b6040516105d491906143f1565b60405180910390f35b3480156105e957600080fd5b5061060460048036038101906105ff91906137cf565b612593565b604051610611919061418f565b60405180910390f35b34801561062657600080fd5b50610641600480360381019061063c91906137a6565b612627565b005b60007f80ac58cd000000000000000000000000000000000000000000000000000000007bffffffffffffffffffffffffffffffffffffffffffffffffffffffff1916827bffffffffffffffffffffffffffffffffffffffffffffffffffffffff1916148061070e57507f5b5e139f000000000000000000000000000000000000000000000000000000007bffffffffffffffffffffffffffffffffffffffffffffffffffffffff1916827bffffffffffffffffffffffffffffffffffffffffffffffffffffffff1916145b8061071e575061071d82612735565b5b9050919050565b6000610731600861279f565b905061073d33826127ad565b6107fe604051806060016040528060288152602001614c9360289139600b6000858152602001908152602001600020600701805461077a906146e3565b80601f01602080910402602001604051908101604052809291908181526020018280546107a6906146e3565b80156107f35780601f106107c8576101008083540402835291602001916107f3565b820191906000526020600020905b8154815290600101906020018083116107d657829003601f168201915b5050505050836127cb565b80600c60003373ffffffffffffffffffffffffffffffffffffffff1673ffffffffffffffffffffffffffffffffffffffff1681526020019081526020016000208190555061084c600861271f565b600b6000838152602001908152602001600020600801600081548092919061087390614746565b919050555081600f6000838152602001908152602001600020819055503373ffffffffffffffffffffffffffffffffffffffff167fe1b60c9e07632933648666e5ede8b3b329ddfa2ab98c51b1a5b4b22ab4f1349c82600b6000868152602001908152602001600020600801546040516108ee92919061440c565b60405180910390a25050565b606060008054610909906146e3565b80601f0160208091040260200160405190810160405280929190818152602001828054610935906146e3565b80156109825780601f1061095757610100808354040283529160200191610982565b820191906000526020600020905b81548152906001019060200180831161096557829003601f168201915b5050505050905090565b60006109978261286a565b6109d6576040517f08c379a00000000000000000000000000000000000000000000000000000000081526004016109cd90614351565b60405180910390fd5b6004600083815260200190815260200160002060009054906101000a900473ffffffffffffffffffffffffffffffffffffffff169050919050565b6000610a1c826114c2565b90508073ffffffffffffffffffffffffffffffffffffffff168373ffffffffffffffffffffffffffffffffffffffff161415610a8d576040517f08c379a0000000000000000000000000000000000000000000000000000000008152600401610a84906143b1565b60405180910390fd5b8073ffffffffffffffffffffffffffffffffffffffff16610aac6128d6565b73ffffffffffffffffffffffffffffffffffffffff161480610adb5750610ada81610ad56128d6565b612593565b5b610b1a576040517f08c379a0000000000000000000000000000000000000000000000000000000008152600401610b11906142d1565b60405180910390fd5b610b2483836128de565b505050565b610b3a610b346128d6565b82612997565b610b79576040517f08c379a0000000000000000000000000000000000000000000000000000000008152600401610b70906143d1565b60405180910390fd5b610b84838383612a75565b505050565b600b6020528060005260406000206000915090508060000160009054906101000a900473ffffffffffffffffffffffffffffffffffffffff16908060010160009054906101000a900473ffffffffffffffffffffffffffffffffffffffff1690806002018054610bf8906146e3565b80601f0160208091040260200160405190810160405280929190818152602001828054610c24906146e3565b8015610c715780601f10610c4657610100808354040283529160200191610c71565b820191906000526020600020905b815481529060010190602001808311610c5457829003601f168201915b505050505090806003018054610c86906146e3565b80601f0160208091040260200160405190810160405280929190818152602001828054610cb2906146e3565b8015610cff5780601f10610cd457610100808354040283529160200191610cff565b820191906000526020600020905b815481529060010190602001808311610ce257829003601f168201915b505050505090806005018054610d14906146e3565b80601f0160208091040260200160405190810160405280929190818152602001828054610d40906146e3565b8015610d8d5780601f10610d6257610100808354040283529160200191610d8d565b820191906000526020600020905b815481529060010190602001808311610d7057829003601f168201915b505050505090806006018054610da2906146e3565b80601f0160208091040260200160405190810160405280929190818152602001828054610dce906146e3565b8015610e1b5780601f10610df057610100808354040283529160200191610e1b565b820191906000526020600020905b815481529060010190602001808311610dfe57829003601f168201915b505050505090806007018054610e30906146e3565b80601f0160208091040260200160405190810160405280929190818152602001828054610e5c906146e3565b8015610ea95780601f10610e7e57610100808354040283529160200191610ea9565b820191906000526020600020905b815481529060010190602001808311610e8c57829003601f168201915b505050505090806008015490806009018054610ec4906146e3565b80601f0160208091040260200160405190810160405280929190818152602001828054610ef0906146e3565b8015610f3d5780601f10610f1257610100808354040283529160200191610f3d565b820191906000526020600020905b815481529060010190602001808311610f2057829003601f168201915b5050505050905089565b610f6283838360405180602001604052806000815250611fc0565b505050565b6060600a805480602002602001604051908101604052809291908181526020016000905b828210156114b957838290600052602060002090600a0201604051806101400160405290816000820160009054906101000a900473ffffffffffffffffffffffffffffffffffffffff1673ffffffffffffffffffffffffffffffffffffffff1673ffffffffffffffffffffffffffffffffffffffff1681526020016001820160009054906101000a900473ffffffffffffffffffffffffffffffffffffffff1673ffffffffffffffffffffffffffffffffffffffff1673ffffffffffffffffffffffffffffffffffffffff16815260200160028201805461106b906146e3565b80601f0160208091040260200160405190810160405280929190818152602001828054611097906146e3565b80156110e45780601f106110b9576101008083540402835291602001916110e4565b820191906000526020600020905b8154815290600101906020018083116110c757829003601f168201915b505050505081526020016003820180546110fd906146e3565b80601f0160208091040260200160405190810160405280929190818152602001828054611129906146e3565b80156111765780601f1061114b57610100808354040283529160200191611176565b820191906000526020600020905b81548152906001019060200180831161115957829003601f168201915b5050505050815260200160048201805480602002602001604051908101604052809291908181526020016000905b828210156112505783829060005260206000200180546111c3906146e3565b80601f01602080910402602001604051908101604052809291908181526020018280546111ef906146e3565b801561123c5780601f106112115761010080835404028352916020019161123c565b820191906000526020600020905b81548152906001019060200180831161121f57829003601f168201915b5050505050815260200190600101906111a4565b505050508152602001600582018054611268906146e3565b80601f0160208091040260200160405190810160405280929190818152602001828054611294906146e3565b80156112e15780601f106112b6576101008083540402835291602001916112e1565b820191906000526020600020905b8154815290600101906020018083116112c457829003601f168201915b505050505081526020016006820180546112fa906146e3565b80601f0160208091040260200160405190810160405280929190818152602001828054611326906146e3565b80156113735780601f1061134857610100808354040283529160200191611373565b820191906000526020600020905b81548152906001019060200180831161135657829003601f168201915b5050505050815260200160078201805461138c906146e3565b80601f01602080910402602001604051908101604052809291908181526020018280546113b8906146e3565b80156114055780601f106113da57610100808354040283529160200191611405565b820191906000526020600020905b8154815290600101906020018083116113e857829003601f168201915b5050505050815260200160088201548152602001600982018054611428906146e3565b80601f0160208091040260200160405190810160405280929190818152602001828054611454906146e3565b80156114a15780601f10611476576101008083540402835291602001916114a1565b820191906000526020600020905b81548152906001019060200180831161148457829003601f168201915b50505050508152505081526020019060010190610f8b565b50505050905090565b6000806002600084815260200190815260200160002060009054906101000a900473ffffffffffffffffffffffffffffffffffffffff169050600073ffffffffffffffffffffffffffffffffffffffff168173ffffffffffffffffffffffffffffffffffffffff16141561156b576040517f08c379a000000000000000000000000000000000000000000000000000000000815260040161156290614311565b60405180910390fd5b80915050919050565b6040518061014001604052808a73ffffffffffffffffffffffffffffffffffffffff1681526020018573ffffffffffffffffffffffffffffffffffffffff1681526020018981526020018881526020018781526020018681526020018481526020018381526020016000815260200182815250600b6000600954815260200190815260200160002060008201518160000160006101000a81548173ffffffffffffffffffffffffffffffffffffffff021916908373ffffffffffffffffffffffffffffffffffffffff16021790555060208201518160010160006101000a81548173ffffffffffffffffffffffffffffffffffffffff021916908373ffffffffffffffffffffffffffffffffffffffff16021790555060408201518160020190805190602001906116a6929190613361565b5060608201518160030190805190602001906116c3929190613361565b5060808201518160040190805190602001906116e09291906133e7565b5060a08201518160050190805190602001906116fd929190613361565b5060c082015181600601908051906020019061171a929190613361565b5060e0820151816007019080519060200190611737929190613361565b506101008201518160080155610120820151816009019080519060200190611760929190613361565b50905050600b60006009548152602001908152602001600020600d60008b73ffffffffffffffffffffffffffffffffffffffff1673ffffffffffffffffffffffffffffffffffffffff1681526020019081526020016000206000820160009054906101000a900473ffffffffffffffffffffffffffffffffffffffff168160000160006101000a81548173ffffffffffffffffffffffffffffffffffffffff021916908373ffffffffffffffffffffffffffffffffffffffff1602179055506001820160009054906101000a900473ffffffffffffffffffffffffffffffffffffffff168160010160006101000a81548173ffffffffffffffffffffffffffffffffffffffff021916908373ffffffffffffffffffffffffffffffffffffffff160217905550600282018160020190805461189a906146e3565b6118a5929190613447565b5060038201816003019080546118ba906146e3565b6118c5929190613447565b5060048201816004019080546118dc9291906134d4565b5060058201816005019080546118f1906146e3565b6118fc929190613447565b506006820181600601908054611911906146e3565b61191c929190613447565b506007820181600701908054611931906146e3565b61193c929190613447565b5060088201548160080155600982018160090190805461195b906146e3565b611966929190613447565b509050506009547fa1cd98301e2a758f45871102b368fdcf3f56e13f8e8fd2886523ac87ca066ce03360405161199c919061404f565b60405180910390a26119af600954610725565b600960008154809291906119c290614746565b9190505550505050505050505050565b60008073ffffffffffffffffffffffffffffffffffffffff168273ffffffffffffffffffffffffffffffffffffffff161415611a43576040517f08c379a0000000000000000000000000000000000000000000000000000000008152600401611a3a906142f1565b60405180910390fd5b600360008373ffffffffffffffffffffffffffffffffffffffff1673ffffffffffffffffffffffffffffffffffffffff168152602001908152602001600020549050919050565b611a926128d6565b73ffffffffffffffffffffffffffffffffffffffff16611ab0611b2a565b73ffffffffffffffffffffffffffffffffffffffff1614611b06576040517f08c379a0000000000000000000000000000000000000000000000000000000008152600401611afd90614371565b60405180910390fd5b611b106000612cd1565b565b600c6020528060005260406000206000915090505481565b6000600660009054906101000a900473ffffffffffffffffffffffffffffffffffffffff16905090565b606060018054611b63906146e3565b80601f0160208091040260200160405190810160405280929190818152602001828054611b8f906146e3565b8015611bdc5780601f10611bb157610100808354040283529160200191611bdc565b820191906000526020600020905b815481529060010190602001808311611bbf57829003601f168201915b5050505050905090565b60075481565b611bfe611bf76128d6565b8383612d97565b5050565b600d6020528060005260406000206000915090508060000160009054906101000a900473ffffffffffffffffffffffffffffffffffffffff16908060010160009054906101000a900473ffffffffffffffffffffffffffffffffffffffff1690806002018054611c71906146e3565b80601f0160208091040260200160405190810160405280929190818152602001828054611c9d906146e3565b8015611cea5780601f10611cbf57610100808354040283529160200191611cea565b820191906000526020600020905b815481529060010190602001808311611ccd57829003601f168201915b505050505090806003018054611cff906146e3565b80601f0160208091040260200160405190810160405280929190818152602001828054611d2b906146e3565b8015611d785780601f10611d4d57610100808354040283529160200191611d78565b820191906000526020600020905b815481529060010190602001808311611d5b57829003601f168201915b505050505090806005018054611d8d906146e3565b80601f0160208091040260200160405190810160405280929190818152602001828054611db9906146e3565b8015611e065780601f10611ddb57610100808354040283529160200191611e06565b820191906000526020600020905b815481529060010190602001808311611de957829003601f168201915b505050505090806006018054611e1b906146e3565b80601f0160208091040260200160405190810160405280929190818152602001828054611e47906146e3565b8015611e945780601f10611e6957610100808354040283529160200191611e94565b820191906000526020600020905b815481529060010190602001808311611e7757829003601f168201915b505050505090806007018054611ea9906146e3565b80601f0160208091040260200160405190810160405280929190818152602001828054611ed5906146e3565b8015611f225780601f10611ef757610100808354040283529160200191611f22565b820191906000526020600020905b815481529060010190602001808311611f0557829003601f168201915b505050505090806008015490806009018054611f3d906146e3565b80601f0160208091040260200160405190810160405280929190818152602001828054611f69906146e3565b8015611fb65780601f10611f8b57610100808354040283529160200191611fb6565b820191906000526020600020905b815481529060010190602001808311611f9957829003601f168201915b5050505050905089565b611fd1611fcb6128d6565b83612997565b612010576040517f08c379a0000000000000000000000000000000000000000000000000000000008152600401612007906143d1565b60405180910390fd5b61201c84848484612f04565b50505050565b60606000600b6000600f6000868152602001908152602001600020548152602001908152602001600020604051806101400160405290816000820160009054906101000a900473ffffffffffffffffffffffffffffffffffffffff1673ffffffffffffffffffffffffffffffffffffffff1673ffffffffffffffffffffffffffffffffffffffff1681526020016001820160009054906101000a900473ffffffffffffffffffffffffffffffffffffffff1673ffffffffffffffffffffffffffffffffffffffff1673ffffffffffffffffffffffffffffffffffffffff168152602001600282018054612114906146e3565b80601f0160208091040260200160405190810160405280929190818152602001828054612140906146e3565b801561218d5780601f106121625761010080835404028352916020019161218d565b820191906000526020600020905b81548152906001019060200180831161217057829003601f168201915b505050505081526020016003820180546121a6906146e3565b80601f01602080910402602001604051908101604052809291908181526020018280546121d2906146e3565b801561221f5780601f106121f45761010080835404028352916020019161221f565b820191906000526020600020905b81548152906001019060200180831161220257829003601f168201915b5050505050815260200160048201805480602002602001604051908101604052809291908181526020016000905b828210156122f957838290600052602060002001805461226c906146e3565b80601f0160208091040260200160405190810160405280929190818152602001828054612298906146e3565b80156122e55780601f106122ba576101008083540402835291602001916122e5565b820191906000526020600020905b8154815290600101906020018083116122c857829003601f168201915b50505050508152602001906001019061224d565b505050508152602001600582018054612311906146e3565b80601f016020809104026020016040519081016040528092919081815260200182805461233d906146e3565b801561238a5780601f1061235f5761010080835404028352916020019161238a565b820191906000526020600020905b81548152906001019060200180831161236d57829003601f168201915b505050505081526020016006820180546123a3906146e3565b80601f01602080910402602001604051908101604052809291908181526020018280546123cf906146e3565b801561241c5780601f106123f15761010080835404028352916020019161241c565b820191906000526020600020905b8154815290600101906020018083116123ff57829003601f168201915b50505050508152602001600782018054612435906146e3565b80601f0160208091040260200160405190810160405280929190818152602001828054612461906146e3565b80156124ae5780601f10612483576101008083540402835291602001916124ae565b820191906000526020600020905b81548152906001019060200180831161249157829003601f168201915b50505050508152602001600882015481526020016009820180546124d1906146e3565b80601f01602080910402602001604051908101604052809291908181526020018280546124fd906146e3565b801561254a5780601f1061251f5761010080835404028352916020019161254a565b820191906000526020600020905b81548152906001019060200180831161252d57829003601f168201915b5050505050815250509050806101200151915050919050565b600e6020528060005260406000206000915090505481565b600f6020528060005260406000206000915090505481565b6000600560008473ffffffffffffffffffffffffffffffffffffffff1673ffffffffffffffffffffffffffffffffffffffff16815260200190815260200160002060008373ffffffffffffffffffffffffffffffffffffffff1673ffffffffffffffffffffffffffffffffffffffff16815260200190815260200160002060009054906101000a900460ff16905092915050565b61262f6128d6565b73ffffffffffffffffffffffffffffffffffffffff1661264d611b2a565b73ffffffffffffffffffffffffffffffffffffffff16146126a3576040517f08c379a000000000000000000000000000000000000000000000000000000000815260040161269a90614371565b60405180910390fd5b600073ffffffffffffffffffffffffffffffffffffffff168173ffffffffffffffffffffffffffffffffffffffff161415612713576040517f08c379a000000000000000000000000000000000000000000000000000000000815260040161270a90614231565b60405180910390fd5b61271c81612cd1565b50565b6001816000016000828254019250508190555050565b60007f01ffc9a7000000000000000000000000000000000000000000000000000000007bffffffffffffffffffffffffffffffffffffffffffffffffffffffff1916827bffffffffffffffffffffffffffffffffffffffffffffffffffffffff1916149050919050565b600081600001549050919050565b6127c7828260405180602001604052806000815250612f60565b5050565b6128658383836040516024016127e3939291906141cc565b6040516020818303038152906040527ff362ca59000000000000000000000000000000000000000000000000000000007bffffffffffffffffffffffffffffffffffffffffffffffffffffffff19166020820180517bffffffffffffffffffffffffffffffffffffffffffffffffffffffff8381831617835250505050612fbb565b505050565b60008073ffffffffffffffffffffffffffffffffffffffff166002600084815260200190815260200160002060009054906101000a900473ffffffffffffffffffffffffffffffffffffffff1673ffffffffffffffffffffffffffffffffffffffff1614159050919050565b600033905090565b816004600083815260200190815260200160002060006101000a81548173ffffffffffffffffffffffffffffffffffffffff021916908373ffffffffffffffffffffffffffffffffffffffff160217905550808273ffffffffffffffffffffffffffffffffffffffff16612951836114c2565b73ffffffffffffffffffffffffffffffffffffffff167f8c5be1e5ebec7d5bd14f71427d1e84f3dd0314c0f7b2291e5b200ac8c7c3b92560405160405180910390a45050565b60006129a28261286a565b6129e1576040517f08c379a00000000000000000000000000000000000000000000000000000000081526004016129d8906142b1565b60405180910390fd5b60006129ec836114c2565b90508073ffffffffffffffffffffffffffffffffffffffff168473ffffffffffffffffffffffffffffffffffffffff161480612a5b57508373ffffffffffffffffffffffffffffffffffffffff16612a438461098c565b73ffffffffffffffffffffffffffffffffffffffff16145b80612a6c5750612a6b8185612593565b5b91505092915050565b8273ffffffffffffffffffffffffffffffffffffffff16612a95826114c2565b73ffffffffffffffffffffffffffffffffffffffff1614612aeb576040517f08c379a0000000000000000000000000000000000000000000000000000000008152600401612ae290614391565b60405180910390fd5b600073ffffffffffffffffffffffffffffffffffffffff168273ffffffffffffffffffffffffffffffffffffffff161415612b5b576040517f08c379a0000000000000000000000000000000000000000000000000000000008152600401612b5290614271565b60405180910390fd5b612b66838383612fe4565b612b716000826128de565b6001600360008573ffffffffffffffffffffffffffffffffffffffff1673ffffffffffffffffffffffffffffffffffffffff1681526020019081526020016000206000828254612bc191906145f9565b925050819055506001600360008473ffffffffffffffffffffffffffffffffffffffff1673ffffffffffffffffffffffffffffffffffffffff1681526020019081526020016000206000828254612c1891906145a3565b92505081905550816002600083815260200190815260200160002060006101000a81548173ffffffffffffffffffffffffffffffffffffffff021916908373ffffffffffffffffffffffffffffffffffffffff160217905550808273ffffffffffffffffffffffffffffffffffffffff168473ffffffffffffffffffffffffffffffffffffffff167fddf252ad1be2c89b69c2b068fc378daa952ba7f163c4a11628f55a4df523b3ef60405160405180910390a4505050565b6000600660009054906101000a900473ffffffffffffffffffffffffffffffffffffffff16905081600660006101000a81548173ffffffffffffffffffffffffffffffffffffffff021916908373ffffffffffffffffffffffffffffffffffffffff1602179055508173ffffffffffffffffffffffffffffffffffffffff168173ffffffffffffffffffffffffffffffffffffffff167f8be0079c531659141344cd1fd0a4f28419497f9722a3daafe3b4186f6b6457e060405160405180910390a35050565b8173ffffffffffffffffffffffffffffffffffffffff168373ffffffffffffffffffffffffffffffffffffffff161415612e06576040517f08c379a0000000000000000000000000000000000000000000000000000000008152600401612dfd90614291565b60405180910390fd5b80600560008573ffffffffffffffffffffffffffffffffffffffff1673ffffffffffffffffffffffffffffffffffffffff16815260200190815260200160002060008473ffffffffffffffffffffffffffffffffffffffff1673ffffffffffffffffffffffffffffffffffffffff16815260200190815260200160002060006101000a81548160ff0219169083151502179055508173ffffffffffffffffffffffffffffffffffffffff168373ffffffffffffffffffffffffffffffffffffffff167f17307eab39ab6107e8899845ad3d59bd9653f200f220920489ca2b5937696c3183604051612ef7919061418f565b60405180910390a3505050565b612f0f848484612a75565b612f1b84848484612fe9565b612f5a576040517f08c379a0000000000000000000000000000000000000000000000000000000008152600401612f5190614211565b60405180910390fd5b50505050565b612f6a8383613180565b612f776000848484612fe9565b612fb6576040517f08c379a0000000000000000000000000000000000000000000000000000000008152600401612fad90614211565b60405180910390fd5b505050565b60008151905060006a636f6e736f6c652e6c6f679050602083016000808483855afa5050505050565b505050565b600061300a8473ffffffffffffffffffffffffffffffffffffffff1661334e565b15613173578373ffffffffffffffffffffffffffffffffffffffff1663150b7a026130336128d6565b8786866040518563ffffffff1660e01b81526004016130559493929190614121565b602060405180830381600087803b15801561306f57600080fd5b505af19250505080156130a057506040513d601f19601f8201168201806040525081019061309d9190613ae4565b60015b613123573d80600081146130d0576040519150601f19603f3d011682016040523d82523d6000602084013e6130d5565b606091505b5060008151141561311b576040517f08c379a000000000000000000000000000000000000000000000000000000000815260040161311290614211565b60405180910390fd5b805181602001fd5b63150b7a0260e01b7bffffffffffffffffffffffffffffffffffffffffffffffffffffffff1916817bffffffffffffffffffffffffffffffffffffffffffffffffffffffff191614915050613178565b600190505b949350505050565b600073ffffffffffffffffffffffffffffffffffffffff168273ffffffffffffffffffffffffffffffffffffffff1614156131f0576040517f08c379a00000000000000000000000000000000000000000000000000000000081526004016131e790614331565b60405180910390fd5b6131f98161286a565b15613239576040517f08c379a000000000000000000000000000000000000000000000000000000000815260040161323090614251565b60405180910390fd5b61324560008383612fe4565b6001600360008473ffffffffffffffffffffffffffffffffffffffff1673ffffffffffffffffffffffffffffffffffffffff168152602001908152602001600020600082825461329591906145a3565b92505081905550816002600083815260200190815260200160002060006101000a81548173ffffffffffffffffffffffffffffffffffffffff021916908373ffffffffffffffffffffffffffffffffffffffff160217905550808273ffffffffffffffffffffffffffffffffffffffff16600073ffffffffffffffffffffffffffffffffffffffff167fddf252ad1be2c89b69c2b068fc378daa952ba7f163c4a11628f55a4df523b3ef60405160405180910390a45050565b600080823b905060008111915050919050565b82805461336d906146e3565b90600052602060002090601f01602090048101928261338f57600085556133d6565b82601f106133a857805160ff19168380011785556133d6565b828001600101855582156133d6579182015b828111156133d55782518255916020019190600101906133ba565b5b5090506133e3919061353c565b5090565b828054828255906000526020600020908101928215613436579160200282015b82811115613435578251829080519060200190613425929190613361565b5091602001919060010190613407565b5b5090506134439190613559565b5090565b828054613453906146e3565b90600052602060002090601f01602090048101928261347557600085556134c3565b82601f1061348657805485556134c3565b828001600101855582156134c357600052602060002091601f016020900482015b828111156134c25782548255916001019190600101906134a7565b5b5090506134d0919061353c565b5090565b82805482825590600052602060002090810192821561352b5760005260206000209182015b8281111561352a57828290805461350f906146e3565b61351a929190613447565b50916001019190600101906134f9565b5b5090506135389190613559565b5090565b5b8082111561355557600081600090555060010161353d565b5090565b5b808211156135795760008181613570919061357d565b5060010161355a565b5090565b508054613589906146e3565b6000825580601f1061359b57506135ba565b601f0160209004906000526020600020908101906135b9919061353c565b5b50565b60006135d06135cb8461445a565b614435565b905080838252602082019050828560208602820111156135ef57600080fd5b60005b8581101561363957813567ffffffffffffffff81111561361157600080fd5b80860161361e8982613767565b855260208501945060208401935050506001810190506135f2565b5050509392505050565b600061365661365184614486565b614435565b90508281526020810184848401111561366e57600080fd5b6136798482856146a1565b509392505050565b600061369461368f846144b7565b614435565b9050828152602081018484840111156136ac57600080fd5b6136b78482856146a1565b509392505050565b6000813590506136ce81614c36565b92915050565b600082601f8301126136e557600080fd5b81356136f58482602086016135bd565b91505092915050565b60008135905061370d81614c4d565b92915050565b60008135905061372281614c64565b92915050565b60008151905061373781614c64565b92915050565b600082601f83011261374e57600080fd5b813561375e848260208601613643565b91505092915050565b600082601f83011261377857600080fd5b8135613788848260208601613681565b91505092915050565b6000813590506137a081614c7b565b92915050565b6000602082840312156137b857600080fd5b60006137c6848285016136bf565b91505092915050565b600080604083850312156137e257600080fd5b60006137f0858286016136bf565b9250506020613801858286016136bf565b9150509250929050565b60008060006060848603121561382057600080fd5b600061382e868287016136bf565b935050602061383f868287016136bf565b925050604061385086828701613791565b9150509250925092565b6000806000806080858703121561387057600080fd5b600061387e878288016136bf565b945050602061388f878288016136bf565b93505060406138a087828801613791565b925050606085013567ffffffffffffffff8111156138bd57600080fd5b6138c98782880161373d565b91505092959194509250565b600080604083850312156138e857600080fd5b60006138f6858286016136bf565b9250506020613907858286016136fe565b9150509250929050565b60008060008060008060008060006101208a8c03121561393057600080fd5b600061393e8c828d016136bf565b99505060208a013567ffffffffffffffff81111561395b57600080fd5b6139678c828d01613767565b98505060408a013567ffffffffffffffff81111561398457600080fd5b6139908c828d01613767565b97505060608a013567ffffffffffffffff8111156139ad57600080fd5b6139b98c828d016136d4565b96505060808a013567ffffffffffffffff8111156139d657600080fd5b6139e28c828d01613767565b95505060a06139f38c828d016136bf565b94505060c08a013567ffffffffffffffff811115613a1057600080fd5b613a1c8c828d01613767565b93505060e08a013567ffffffffffffffff811115613a3957600080fd5b613a458c828d01613767565b9250506101008a013567ffffffffffffffff811115613a6357600080fd5b613a6f8c828d01613767565b9150509295985092959850929598565b60008060408385031215613a9257600080fd5b6000613aa0858286016136bf565b9250506020613ab185828601613791565b9150509250929050565b600060208284031215613acd57600080fd5b6000613adb84828501613713565b91505092915050565b600060208284031215613af657600080fd5b6000613b0484828501613728565b91505092915050565b600060208284031215613b1f57600080fd5b6000613b2d84828501613791565b91505092915050565b6000613b428383613cae565b905092915050565b6000613b568383613f2d565b905092915050565b613b678161462d565b82525050565b613b768161462d565b82525050565b6000613b8782614508565b613b91818561454e565b935083602082028501613ba3856144e8565b8060005b85811015613bdf5784840389528151613bc08582613b36565b9450613bcb83614534565b925060208a01995050600181019050613ba7565b50829750879550505050505092915050565b6000613bfc82614513565b613c06818561455f565b935083602082028501613c18856144f8565b8060005b85811015613c545784840389528151613c358582613b4a565b9450613c4083614541565b925060208a01995050600181019050613c1c565b50829750879550505050505092915050565b613c6f8161463f565b82525050565b6000613c808261451e565b613c8a8185614570565b9350613c9a8185602086016146b0565b613ca38161481c565b840191505092915050565b6000613cb982614529565b613cc38185614581565b9350613cd38185602086016146b0565b613cdc8161481c565b840191505092915050565b6000613cf282614529565b613cfc8185614592565b9350613d0c8185602086016146b0565b613d158161481c565b840191505092915050565b6000613d2d603283614592565b9150613d388261482d565b604082019050919050565b6000613d50602683614592565b9150613d5b8261487c565b604082019050919050565b6000613d73601c83614592565b9150613d7e826148cb565b602082019050919050565b6000613d96602483614592565b9150613da1826148f4565b604082019050919050565b6000613db9601983614592565b9150613dc482614943565b602082019050919050565b6000613ddc602c83614592565b9150613de78261496c565b604082019050919050565b6000613dff603883614592565b9150613e0a826149bb565b604082019050919050565b6000613e22602a83614592565b9150613e2d82614a0a565b604082019050919050565b6000613e45602983614592565b9150613e5082614a59565b604082019050919050565b6000613e68602083614592565b9150613e7382614aa8565b602082019050919050565b6000613e8b602c83614592565b9150613e9682614ad1565b604082019050919050565b6000613eae602083614592565b9150613eb982614b20565b602082019050919050565b6000613ed1602983614592565b9150613edc82614b49565b604082019050919050565b6000613ef4602183614592565b9150613eff82614b98565b604082019050919050565b6000613f17603183614592565b9150613f2282614be7565b604082019050919050565b600061014083016000830151613f466000860182613b5e565b506020830151613f596020860182613b5e565b5060408301518482036040860152613f718282613cae565b91505060608301518482036060860152613f8b8282613cae565b91505060808301518482036080860152613fa58282613b7c565b91505060a083015184820360a0860152613fbf8282613cae565b91505060c083015184820360c0860152613fd98282613cae565b91505060e083015184820360e0860152613ff38282613cae565b91505061010083015161400a610100860182614031565b506101208301518482036101208601526140248282613cae565b9150508091505092915050565b61403a81614697565b82525050565b61404981614697565b82525050565b60006020820190506140646000830184613b6d565b92915050565b600061012082019050614080600083018c613b6d565b61408d602083018b613b6d565b818103604083015261409f818a613ce7565b905081810360608301526140b38189613ce7565b905081810360808301526140c78188613ce7565b905081810360a08301526140db8187613ce7565b905081810360c08301526140ef8186613ce7565b90506140fe60e0830185614040565b8181036101008301526141118184613ce7565b90509a9950505050505050505050565b60006080820190506141366000830187613b6d565b6141436020830186613b6d565b6141506040830185614040565b81810360608301526141628184613c75565b905095945050505050565b600060208201905081810360008301526141878184613bf1565b905092915050565b60006020820190506141a46000830184613c66565b92915050565b600060208201905081810360008301526141c48184613ce7565b905092915050565b600060608201905081810360008301526141e68186613ce7565b905081810360208301526141fa8185613ce7565b90506142096040830184614040565b949350505050565b6000602082019050818103600083015261422a81613d20565b9050919050565b6000602082019050818103600083015261424a81613d43565b9050919050565b6000602082019050818103600083015261426a81613d66565b9050919050565b6000602082019050818103600083015261428a81613d89565b9050919050565b600060208201905081810360008301526142aa81613dac565b9050919050565b600060208201905081810360008301526142ca81613dcf565b9050919050565b600060208201905081810360008301526142ea81613df2565b9050919050565b6000602082019050818103600083015261430a81613e15565b9050919050565b6000602082019050818103600083015261432a81613e38565b9050919050565b6000602082019050818103600083015261434a81613e5b565b9050919050565b6000602082019050818103600083015261436a81613e7e565b9050919050565b6000602082019050818103600083015261438a81613ea1565b9050919050565b600060208201905081810360008301526143aa81613ec4565b9050919050565b600060208201905081810360008301526143ca81613ee7565b9050919050565b600060208201905081810360008301526143ea81613f0a565b9050919050565b60006020820190506144066000830184614040565b92915050565b60006040820190506144216000830185614040565b61442e6020830184614040565b9392505050565b600061443f614450565b905061444b8282614715565b919050565b6000604051905090565b600067ffffffffffffffff821115614475576144746147ed565b5b602082029050602081019050919050565b600067ffffffffffffffff8211156144a1576144a06147ed565b5b6144aa8261481c565b9050602081019050919050565b600067ffffffffffffffff8211156144d2576144d16147ed565b5b6144db8261481c565b9050602081019050919050565b6000819050602082019050919050565b6000819050602082019050919050565b600081519050919050565b600081519050919050565b600081519050919050565b600081519050919050565b6000602082019050919050565b6000602082019050919050565b600082825260208201905092915050565b600082825260208201905092915050565b600082825260208201905092915050565b600082825260208201905092915050565b600082825260208201905092915050565b60006145ae82614697565b91506145b983614697565b9250827fffffffffffffffffffffffffffffffffffffffffffffffffffffffffffffffff038211156145ee576145ed61478f565b5b828201905092915050565b600061460482614697565b915061460f83614697565b9250828210156146225761462161478f565b5b828203905092915050565b600061463882614677565b9050919050565b60008115159050919050565b60007fffffffff0000000000000000000000000000000000000000000000000000000082169050919050565b600073ffffffffffffffffffffffffffffffffffffffff82169050919050565b6000819050919050565b82818337600083830152505050565b60005b838110156146ce5780820151818401526020810190506146b3565b838111156146dd576000848401525b50505050565b600060028204905060018216806146fb57607f821691505b6020821081141561470f5761470e6147be565b5b50919050565b61471e8261481c565b810181811067ffffffffffffffff8211171561473d5761473c6147ed565b5b80604052505050565b600061475182614697565b91507fffffffffffffffffffffffffffffffffffffffffffffffffffffffffffffffff8214156147845761478361478f565b5b600182019050919050565b7f4e487b7100000000000000000000000000000000000000000000000000000000600052601160045260246000fd5b7f4e487b7100000000000000000000000000000000000000000000000000000000600052602260045260246000fd5b7f4e487b7100000000000000000000000000000000000000000000000000000000600052604160045260246000fd5b6000601f19601f8301169050919050565b7f4552433732313a207472616e7366657220746f206e6f6e20455243373231526560008201527f63656976657220696d706c656d656e7465720000000000000000000000000000602082015250565b7f4f776e61626c653a206e6577206f776e657220697320746865207a65726f206160008201527f6464726573730000000000000000000000000000000000000000000000000000602082015250565b7f4552433732313a20746f6b656e20616c7265616479206d696e74656400000000600082015250565b7f4552433732313a207472616e7366657220746f20746865207a65726f2061646460008201527f7265737300000000000000000000000000000000000000000000000000000000602082015250565b7f4552433732313a20617070726f766520746f2063616c6c657200000000000000600082015250565b7f4552433732313a206f70657261746f7220717565727920666f72206e6f6e657860008201527f697374656e7420746f6b656e0000000000000000000000000000000000000000602082015250565b7f4552433732313a20617070726f76652063616c6c6572206973206e6f74206f7760008201527f6e6572206e6f7220617070726f76656420666f7220616c6c0000000000000000602082015250565b7f4552433732313a2062616c616e636520717565727920666f7220746865207a6560008201527f726f206164647265737300000000000000000000000000000000000000000000602082015250565b7f4552433732313a206f776e657220717565727920666f72206e6f6e657869737460008201527f656e7420746f6b656e0000000000000000000000000000000000000000000000602082015250565b7f4552433732313a206d696e7420746f20746865207a65726f2061646472657373600082015250565b7f4552433732313a20617070726f76656420717565727920666f72206e6f6e657860008201527f697374656e7420746f6b656e0000000000000000000000000000000000000000602082015250565b7f4f776e61626c653a2063616c6c6572206973206e6f7420746865206f776e6572600082015250565b7f4552433732313a207472616e73666572206f6620746f6b656e2074686174206960008201527f73206e6f74206f776e0000000000000000000000000000000000000000000000602082015250565b7f4552433732313a20617070726f76616c20746f2063757272656e74206f776e6560008201527f7200000000000000000000000000000000000000000000000000000000000000602082015250565b7f4552433732313a207472616e736665722063616c6c6572206973206e6f74206f60008201527f776e6572206e6f7220617070726f766564000000000000000000000000000000602082015250565b614c3f8161462d565b8114614c4a57600080fd5b50565b614c568161463f565b8114614c6157600080fd5b50565b614c6d8161464b565b8114614c7857600080fd5b50565b614c8481614697565b8114614c8f57600080fd5b5056fe2a2a2a2a2a2a4d696e746564202573204e465420772f20746f6b656e4964202573202a2a2a2a2a2aa2646970667358221220c52b577936ad575a448b64ffa53b1536e2a8f66ec1dc65ecffe6622b4793336164736f6c63430008040033",
  "linkReferences": {},
  "deployedLinkReferences": {}
}