{
  "_format": "hh-sol-artifact-1",
  "contractName": "Phlote",
  "sourceName": "contracts/Phlote.sol",
  "abi": [
    {
      "inputs": [],
      "stateMutability": "nonpayable",
      "type": "constructor"
    },
    {
      "anonymous": false,
      "inputs": [
        {
          "indexed": true,
          "internalType": "address",
          "name": "owner",
          "type": "address"
        },
        {
          "indexed": true,
          "internalType": "address",
          "name": "approved",
          "type": "address"
        },
        {
          "indexed": true,
          "internalType": "uint256",
          "name": "tokenId",
          "type": "uint256"
        }
      ],
      "name": "Approval",
      "type": "event"
    },
    {
      "anonymous": false,
      "inputs": [
        {
          "indexed": true,
          "internalType": "address",
          "name": "owner",
          "type": "address"
        },
        {
          "indexed": true,
          "internalType": "address",
          "name": "operator",
          "type": "address"
        },
        {
          "indexed": false,
          "internalType": "bool",
          "name": "approved",
          "type": "bool"
        }
      ],
      "name": "ApprovalForAll",
      "type": "event"
    },
    {
      "anonymous": false,
      "inputs": [
        {
          "indexed": false,
          "internalType": "address",
          "name": "sender",
          "type": "address"
        },
        {
          "indexed": true,
          "internalType": "uint256",
          "name": "editionId",
          "type": "uint256"
        }
      ],
      "name": "EditionCreated",
      "type": "event"
    },
    {
      "anonymous": false,
      "inputs": [
        {
          "indexed": true,
          "internalType": "address",
          "name": "buyer",
          "type": "address"
        },
        {
          "indexed": false,
          "internalType": "uint256",
          "name": "tokenId",
          "type": "uint256"
        },
        {
          "indexed": false,
          "internalType": "uint256",
          "name": "numSold",
          "type": "uint256"
        }
      ],
      "name": "EditionMinted",
      "type": "event"
    },
    {
      "anonymous": false,
      "inputs": [
        {
          "indexed": true,
          "internalType": "address",
          "name": "previousOwner",
          "type": "address"
        },
        {
          "indexed": true,
          "internalType": "address",
          "name": "newOwner",
          "type": "address"
        }
      ],
      "name": "OwnershipTransferred",
      "type": "event"
    },
    {
      "anonymous": false,
      "inputs": [
        {
          "indexed": true,
          "internalType": "address",
          "name": "from",
          "type": "address"
        },
        {
          "indexed": true,
          "internalType": "address",
          "name": "to",
          "type": "address"
        },
        {
          "indexed": true,
          "internalType": "uint256",
          "name": "tokenId",
          "type": "uint256"
        }
      ],
      "name": "Transfer",
      "type": "event"
    },
    {
      "inputs": [
        {
          "internalType": "address",
          "name": "to",
          "type": "address"
        },
        {
          "internalType": "uint256",
          "name": "tokenId",
          "type": "uint256"
        }
      ],
      "name": "approve",
      "outputs": [],
      "stateMutability": "nonpayable",
      "type": "function"
    },
    {
      "inputs": [
        {
          "internalType": "address",
          "name": "owner",
          "type": "address"
        }
      ],
      "name": "balanceOf",
      "outputs": [
        {
          "internalType": "uint256",
          "name": "",
          "type": "uint256"
        }
      ],
      "stateMutability": "view",
      "type": "function"
    },
    {
      "inputs": [],
      "name": "contractPrice",
      "outputs": [
        {
          "internalType": "uint256",
          "name": "",
          "type": "uint256"
        }
      ],
      "stateMutability": "view",
      "type": "function"
    },
    {
      "inputs": [
        {
          "internalType": "address",
          "name": "",
          "type": "address"
        },
        {
          "internalType": "uint256",
          "name": "",
          "type": "uint256"
        }
      ],
      "name": "curatorSubmissions",
      "outputs": [
        {
          "internalType": "address",
          "name": "curatorAddress",
          "type": "address"
        },
        {
          "internalType": "address",
          "name": "artistAddress",
          "type": "address"
        },
        {
          "internalType": "string",
          "name": "mediaURI",
          "type": "string"
        },
        {
          "internalType": "string",
          "name": "marketplace",
          "type": "string"
        },
        {
          "internalType": "string",
          "name": "artistName",
          "type": "string"
        },
        {
          "internalType": "string",
          "name": "mediaType",
          "type": "string"
        },
        {
          "internalType": "string",
          "name": "mediaTitle",
          "type": "string"
        },
        {
          "internalType": "uint256",
          "name": "numSold",
          "type": "uint256"
        },
        {
          "internalType": "string",
          "name": "tokenURI",
          "type": "string"
        }
      ],
      "stateMutability": "view",
      "type": "function"
    },
    {
      "inputs": [
        {
          "internalType": "uint256",
          "name": "",
          "type": "uint256"
        }
      ],
      "name": "editions",
      "outputs": [
        {
          "internalType": "address",
          "name": "curatorAddress",
          "type": "address"
        },
        {
          "internalType": "address",
          "name": "artistAddress",
          "type": "address"
        },
        {
          "internalType": "string",
          "name": "mediaURI",
          "type": "string"
        },
        {
          "internalType": "string",
          "name": "marketplace",
          "type": "string"
        },
        {
          "internalType": "string",
          "name": "artistName",
          "type": "string"
        },
        {
          "internalType": "string",
          "name": "mediaType",
          "type": "string"
        },
        {
          "internalType": "string",
          "name": "mediaTitle",
          "type": "string"
        },
        {
          "internalType": "uint256",
          "name": "numSold",
          "type": "uint256"
        },
        {
          "internalType": "string",
          "name": "tokenURI",
          "type": "string"
        }
      ],
      "stateMutability": "view",
      "type": "function"
    },
    {
      "inputs": [],
      "name": "getAllcontent",
      "outputs": [
        {
          "components": [
            {
              "internalType": "address",
              "name": "curatorAddress",
              "type": "address"
            },
            {
              "internalType": "address",
              "name": "artistAddress",
              "type": "address"
            },
            {
              "internalType": "string",
              "name": "mediaURI",
              "type": "string"
            },
            {
              "internalType": "string",
              "name": "marketplace",
              "type": "string"
            },
            {
              "internalType": "string[]",
              "name": "tags",
              "type": "string[]"
            },
            {
              "internalType": "string",
              "name": "artistName",
              "type": "string"
            },
            {
              "internalType": "string",
              "name": "mediaType",
              "type": "string"
            },
            {
              "internalType": "string",
              "name": "mediaTitle",
              "type": "string"
            },
            {
              "internalType": "uint256",
              "name": "numSold",
              "type": "uint256"
            },
            {
              "internalType": "string",
              "name": "tokenURI",
              "type": "string"
            }
          ],
          "internalType": "struct Phlote.Edition[]",
          "name": "",
          "type": "tuple[]"
        }
      ],
      "stateMutability": "view",
      "type": "function"
    },
    {
      "inputs": [
        {
          "internalType": "uint256",
          "name": "tokenId",
          "type": "uint256"
        }
      ],
      "name": "getApproved",
      "outputs": [
        {
          "internalType": "address",
          "name": "",
          "type": "address"
        }
      ],
      "stateMutability": "view",
      "type": "function"
    },
    {
      "inputs": [
        {
          "internalType": "address",
          "name": "owner",
          "type": "address"
        },
        {
          "internalType": "address",
          "name": "operator",
          "type": "address"
        }
      ],
      "name": "isApprovedForAll",
      "outputs": [
        {
          "internalType": "bool",
          "name": "",
          "type": "bool"
        }
      ],
      "stateMutability": "view",
      "type": "function"
    },
    {
      "inputs": [
        {
          "internalType": "uint256",
          "name": "editionId",
          "type": "uint256"
        }
      ],
      "name": "mintEdition",
      "outputs": [],
      "stateMutability": "payable",
      "type": "function"
    },
    {
      "inputs": [],
      "name": "name",
      "outputs": [
        {
          "internalType": "string",
          "name": "",
          "type": "string"
        }
      ],
      "stateMutability": "view",
      "type": "function"
    },
    {
      "inputs": [
        {
          "internalType": "address",
          "name": "",
          "type": "address"
        }
      ],
      "name": "nftHolders",
      "outputs": [
        {
          "internalType": "uint256",
          "name": "",
          "type": "uint256"
        }
      ],
      "stateMutability": "view",
      "type": "function"
    },
    {
      "inputs": [],
      "name": "owner",
      "outputs": [
        {
          "internalType": "address",
          "name": "",
          "type": "address"
        }
      ],
      "stateMutability": "view",
      "type": "function"
    },
    {
      "inputs": [
        {
          "internalType": "uint256",
          "name": "tokenId",
          "type": "uint256"
        }
      ],
      "name": "ownerOf",
      "outputs": [
        {
          "internalType": "address",
          "name": "",
          "type": "address"
        }
      ],
      "stateMutability": "view",
      "type": "function"
    },
    {
      "inputs": [],
      "name": "renounceOwnership",
      "outputs": [],
      "stateMutability": "nonpayable",
      "type": "function"
    },
    {
      "inputs": [
        {
          "internalType": "address",
          "name": "from",
          "type": "address"
        },
        {
          "internalType": "address",
          "name": "to",
          "type": "address"
        },
        {
          "internalType": "uint256",
          "name": "tokenId",
          "type": "uint256"
        }
      ],
      "name": "safeTransferFrom",
      "outputs": [],
      "stateMutability": "nonpayable",
      "type": "function"
    },
    {
      "inputs": [
        {
          "internalType": "address",
          "name": "from",
          "type": "address"
        },
        {
          "internalType": "address",
          "name": "to",
          "type": "address"
        },
        {
          "internalType": "uint256",
          "name": "tokenId",
          "type": "uint256"
        },
        {
          "internalType": "bytes",
          "name": "_data",
          "type": "bytes"
        }
      ],
      "name": "safeTransferFrom",
      "outputs": [],
      "stateMutability": "nonpayable",
      "type": "function"
    },
    {
      "inputs": [
        {
          "internalType": "address",
          "name": "operator",
          "type": "address"
        },
        {
          "internalType": "bool",
          "name": "approved",
          "type": "bool"
        }
      ],
      "name": "setApprovalForAll",
      "outputs": [],
      "stateMutability": "nonpayable",
      "type": "function"
    },
    {
      "inputs": [
        {
          "internalType": "address",
          "name": "_curatorWallet",
          "type": "address"
        },
        {
          "internalType": "string",
          "name": "_mediaURI",
          "type": "string"
        },
        {
          "internalType": "string",
          "name": "_marketplace",
          "type": "string"
        },
        {
          "internalType": "string[]",
          "name": "_tags",
          "type": "string[]"
        },
        {
          "internalType": "string",
          "name": "_artistName",
          "type": "string"
        },
        {
          "internalType": "address",
          "name": "_artistWallet",
          "type": "address"
        },
        {
          "internalType": "string",
          "name": "_mediaType",
          "type": "string"
        },
        {
          "internalType": "string",
          "name": "_mediaTitle",
          "type": "string"
        },
        {
          "internalType": "string",
          "name": "_tokenURI",
          "type": "string"
        }
      ],
      "name": "submitPost",
      "outputs": [],
      "stateMutability": "nonpayable",
      "type": "function"
    },
    {
      "inputs": [
        {
          "internalType": "bytes4",
          "name": "interfaceId",
          "type": "bytes4"
        }
      ],
      "name": "supportsInterface",
      "outputs": [
        {
          "internalType": "bool",
          "name": "",
          "type": "bool"
        }
      ],
      "stateMutability": "view",
      "type": "function"
    },
    {
      "inputs": [],
      "name": "symbol",
      "outputs": [
        {
          "internalType": "string",
          "name": "",
          "type": "string"
        }
      ],
      "stateMutability": "view",
      "type": "function"
    },
    {
      "inputs": [
        {
          "internalType": "uint256",
          "name": "",
          "type": "uint256"
        }
      ],
      "name": "tokenToSong",
      "outputs": [
        {
          "internalType": "uint256",
          "name": "",
          "type": "uint256"
        }
      ],
      "stateMutability": "view",
      "type": "function"
    },
    {
      "inputs": [
        {
          "internalType": "uint256",
          "name": "_tokenId",
          "type": "uint256"
        }
      ],
      "name": "tokenURI",
      "outputs": [
        {
          "internalType": "string",
          "name": "",
          "type": "string"
        }
      ],
      "stateMutability": "view",
      "type": "function"
    },
    {
      "inputs": [
        {
          "internalType": "address",
          "name": "from",
          "type": "address"
        },
        {
          "internalType": "address",
          "name": "to",
          "type": "address"
        },
        {
          "internalType": "uint256",
          "name": "tokenId",
          "type": "uint256"
        }
      ],
      "name": "transferFrom",
      "outputs": [],
      "stateMutability": "nonpayable",
      "type": "function"
    },
    {
      "inputs": [
        {
          "internalType": "address",
          "name": "newOwner",
          "type": "address"
        }
      ],
      "name": "transferOwnership",
      "outputs": [],
      "stateMutability": "nonpayable",
      "type": "function"
    },
    {
      "inputs": [
        {
          "internalType": "uint256",
          "name": "",
          "type": "uint256"
        }
      ],
      "name": "withdrawnForEdition",
      "outputs": [
        {
          "internalType": "uint256",
          "name": "",
          "type": "uint256"
        }
      ],
      "stateMutability": "view",
      "type": "function"
    }
  ],
  "bytecode": "0x608060405260016009553480156200001657600080fd5b506040518060400160405280600781526020017f636f6e74656e74000000000000000000000000000000000000000000000000008152506040518060400160405280600481526020017f534f4e470000000000000000000000000000000000000000000000000000000081525081600090805190602001906200009b929190620001d8565b508060019080519060200190620000b4929190620001d8565b505050620000d7620000cb620000f460201b60201c565b620000fc60201b60201c565b620000ee6008620001c260201b620027641760201c565b620002ed565b600033905090565b6000600660009054906101000a900473ffffffffffffffffffffffffffffffffffffffff16905081600660006101000a81548173ffffffffffffffffffffffffffffffffffffffff021916908373ffffffffffffffffffffffffffffffffffffffff1602179055508173ffffffffffffffffffffffffffffffffffffffff168173ffffffffffffffffffffffffffffffffffffffff167f8be0079c531659141344cd1fd0a4f28419497f9722a3daafe3b4186f6b6457e060405160405180910390a35050565b6001816000016000828254019250508190555050565b828054620001e69062000288565b90600052602060002090601f0160209004810192826200020a576000855562000256565b82601f106200022557805160ff191683800117855562000256565b8280016001018555821562000256579182015b828111156200025557825182559160200191906001019062000238565b5b50905062000265919062000269565b5090565b5b80821115620002845760008160009055506001016200026a565b5090565b60006002820490506001821680620002a157607f821691505b60208210811415620002b857620002b7620002be565b5b50919050565b7f4e487b7100000000000000000000000000000000000000000000000000000000600052602260045260246000fd5b614d3580620002fd6000396000f3fe6080604052600436106101665760003560e01c806370a08231116100d1578063a22cb4651161008a578063d3bb052811610064578063d3bb052814610563578063e2b18d3f146105a0578063e985e9c5146105dd578063f2fde38b1461061a57610166565b8063a22cb465146104d4578063b88d4fde146104fd578063c87b56dd1461052657610166565b806370a08231146103c2578063715018a6146103ff5780637df124a1146104165780638da5cb5b1461045357806395d89b411461047e57806397e9a0bf146104a957610166565b806323b872dd1161012357806323b872dd1461029a578063279c806e146102c357806342842e0e1461030857806357954dd1146103315780636352211e1461035c5780636b1658541461039957610166565b806301ffc9a71461016b57806305322b74146101a857806306fdde03146101c4578063081812fc146101ef578063095ea7b31461022c5780631125c32014610255575b600080fd5b34801561017757600080fd5b50610192600480360381019061018d9190613b00565b610643565b60405161019f91906141d4565b60405180910390f35b6101c260048036038101906101bd9190613b52565b610725565b005b3480156101d057600080fd5b506101d96108fa565b6040516101e691906141ef565b60405180910390f35b3480156101fb57600080fd5b5061021660048036038101906102119190613b52565b61098c565b6040516102239190614094565b60405180910390f35b34801561023857600080fd5b50610253600480360381019061024e9190613ac4565b610a11565b005b34801561026157600080fd5b5061027c60048036038101906102779190613ac4565b610b29565b604051610291999897969594939291906140af565b60405180910390f35b3480156102a657600080fd5b506102c160048036038101906102bc9190613850565b610f04565b005b3480156102cf57600080fd5b506102ea60048036038101906102e59190613b52565b610f64565b6040516102ff999897969594939291906140af565b60405180910390f35b34801561031457600080fd5b5061032f600480360381019061032a9190613850565b611322565b005b34801561033d57600080fd5b50610346611342565b60405161035391906141b2565b60405180910390f35b34801561036857600080fd5b50610383600480360381019061037e9190613b52565b61189d565b6040516103909190614094565b60405180910390f35b3480156103a557600080fd5b506103c060048036038101906103bb9190613956565b61194f565b005b3480156103ce57600080fd5b506103e960048036038101906103e491906137eb565b611dd5565b6040516103f69190614436565b60405180910390f35b34801561040b57600080fd5b50610414611e8d565b005b34801561042257600080fd5b5061043d600480360381019061043891906137eb565b611f15565b60405161044a9190614436565b60405180910390f35b34801561045f57600080fd5b50610468611f2d565b6040516104759190614094565b60405180910390f35b34801561048a57600080fd5b50610493611f57565b6040516104a091906141ef565b60405180910390f35b3480156104b557600080fd5b506104be611fe9565b6040516104cb9190614436565b60405180910390f35b3480156104e057600080fd5b506104fb60048036038101906104f6919061391a565b611fef565b005b34801561050957600080fd5b50610524600480360381019061051f919061389f565b612005565b005b34801561053257600080fd5b5061054d60048036038101906105489190613b52565b612067565b60405161055a91906141ef565b60405180910390f35b34801561056f57600080fd5b5061058a60048036038101906105859190613b52565b6125a8565b6040516105979190614436565b60405180910390f35b3480156105ac57600080fd5b506105c760048036038101906105c29190613b52565b6125c0565b6040516105d49190614436565b60405180910390f35b3480156105e957600080fd5b5061060460048036038101906105ff9190613814565b6125d8565b60405161061191906141d4565b60405180910390f35b34801561062657600080fd5b50610641600480360381019061063c91906137eb565b61266c565b005b60007f80ac58cd000000000000000000000000000000000000000000000000000000007bffffffffffffffffffffffffffffffffffffffffffffffffffffffff1916827bffffffffffffffffffffffffffffffffffffffffffffffffffffffff1916148061070e57507f5b5e139f000000000000000000000000000000000000000000000000000000007bffffffffffffffffffffffffffffffffffffffffffffffffffffffff1916827bffffffffffffffffffffffffffffffffffffffffffffffffffffffff1916145b8061071e575061071d8261277a565b5b9050919050565b600061073160086127e4565b905061073d33826127f2565b6107fe604051806060016040528060288152602001614cd860289139600b6000858152602001908152602001600020600701805461077a90614728565b80601f01602080910402602001604051908101604052809291908181526020018280546107a690614728565b80156107f35780601f106107c8576101008083540402835291602001916107f3565b820191906000526020600020905b8154815290600101906020018083116107d657829003601f168201915b505050505083612810565b80600c60003373ffffffffffffffffffffffffffffffffffffffff1673ffffffffffffffffffffffffffffffffffffffff1681526020019081526020016000208190555061084c6008612764565b600b600083815260200190815260200160002060080160008154809291906108739061478b565b919050555081600f6000838152602001908152602001600020819055503373ffffffffffffffffffffffffffffffffffffffff167fe1b60c9e07632933648666e5ede8b3b329ddfa2ab98c51b1a5b4b22ab4f1349c82600b6000868152602001908152602001600020600801546040516108ee929190614451565b60405180910390a25050565b60606000805461090990614728565b80601f016020809104026020016040519081016040528092919081815260200182805461093590614728565b80156109825780601f1061095757610100808354040283529160200191610982565b820191906000526020600020905b81548152906001019060200180831161096557829003601f168201915b5050505050905090565b6000610997826128af565b6109d6576040517f08c379a00000000000000000000000000000000000000000000000000000000081526004016109cd90614396565b60405180910390fd5b6004600083815260200190815260200160002060009054906101000a900473ffffffffffffffffffffffffffffffffffffffff169050919050565b6000610a1c8261189d565b90508073ffffffffffffffffffffffffffffffffffffffff168373ffffffffffffffffffffffffffffffffffffffff161415610a8d576040517f08c379a0000000000000000000000000000000000000000000000000000000008152600401610a84906143f6565b60405180910390fd5b8073ffffffffffffffffffffffffffffffffffffffff16610aac61291b565b73ffffffffffffffffffffffffffffffffffffffff161480610adb5750610ada81610ad561291b565b6125d8565b5b610b1a576040517f08c379a0000000000000000000000000000000000000000000000000000000008152600401610b1190614316565b60405180910390fd5b610b248383612923565b505050565b600d6020528160005260406000208181548110610b4557600080fd5b90600052602060002090600a0201600091509150508060000160009054906101000a900473ffffffffffffffffffffffffffffffffffffffff16908060010160009054906101000a900473ffffffffffffffffffffffffffffffffffffffff1690806002018054610bb590614728565b80601f0160208091040260200160405190810160405280929190818152602001828054610be190614728565b8015610c2e5780601f10610c0357610100808354040283529160200191610c2e565b820191906000526020600020905b815481529060010190602001808311610c1157829003601f168201915b505050505090806003018054610c4390614728565b80601f0160208091040260200160405190810160405280929190818152602001828054610c6f90614728565b8015610cbc5780601f10610c9157610100808354040283529160200191610cbc565b820191906000526020600020905b815481529060010190602001808311610c9f57829003601f168201915b505050505090806005018054610cd190614728565b80601f0160208091040260200160405190810160405280929190818152602001828054610cfd90614728565b8015610d4a5780601f10610d1f57610100808354040283529160200191610d4a565b820191906000526020600020905b815481529060010190602001808311610d2d57829003601f168201915b505050505090806006018054610d5f90614728565b80601f0160208091040260200160405190810160405280929190818152602001828054610d8b90614728565b8015610dd85780601f10610dad57610100808354040283529160200191610dd8565b820191906000526020600020905b815481529060010190602001808311610dbb57829003601f168201915b505050505090806007018054610ded90614728565b80601f0160208091040260200160405190810160405280929190818152602001828054610e1990614728565b8015610e665780601f10610e3b57610100808354040283529160200191610e66565b820191906000526020600020905b815481529060010190602001808311610e4957829003601f168201915b505050505090806008015490806009018054610e8190614728565b80601f0160208091040260200160405190810160405280929190818152602001828054610ead90614728565b8015610efa5780601f10610ecf57610100808354040283529160200191610efa565b820191906000526020600020905b815481529060010190602001808311610edd57829003601f168201915b5050505050905089565b610f15610f0f61291b565b826129dc565b610f54576040517f08c379a0000000000000000000000000000000000000000000000000000000008152600401610f4b90614416565b60405180910390fd5b610f5f838383612aba565b505050565b600b6020528060005260406000206000915090508060000160009054906101000a900473ffffffffffffffffffffffffffffffffffffffff16908060010160009054906101000a900473ffffffffffffffffffffffffffffffffffffffff1690806002018054610fd390614728565b80601f0160208091040260200160405190810160405280929190818152602001828054610fff90614728565b801561104c5780601f106110215761010080835404028352916020019161104c565b820191906000526020600020905b81548152906001019060200180831161102f57829003601f168201915b50505050509080600301805461106190614728565b80601f016020809104026020016040519081016040528092919081815260200182805461108d90614728565b80156110da5780601f106110af576101008083540402835291602001916110da565b820191906000526020600020905b8154815290600101906020018083116110bd57829003601f168201915b5050505050908060050180546110ef90614728565b80601f016020809104026020016040519081016040528092919081815260200182805461111b90614728565b80156111685780601f1061113d57610100808354040283529160200191611168565b820191906000526020600020905b81548152906001019060200180831161114b57829003601f168201915b50505050509080600601805461117d90614728565b80601f01602080910402602001604051908101604052809291908181526020018280546111a990614728565b80156111f65780601f106111cb576101008083540402835291602001916111f6565b820191906000526020600020905b8154815290600101906020018083116111d957829003601f168201915b50505050509080600701805461120b90614728565b80601f016020809104026020016040519081016040528092919081815260200182805461123790614728565b80156112845780601f1061125957610100808354040283529160200191611284565b820191906000526020600020905b81548152906001019060200180831161126757829003601f168201915b50505050509080600801549080600901805461129f90614728565b80601f01602080910402602001604051908101604052809291908181526020018280546112cb90614728565b80156113185780601f106112ed57610100808354040283529160200191611318565b820191906000526020600020905b8154815290600101906020018083116112fb57829003601f168201915b5050505050905089565b61133d83838360405180602001604052806000815250612005565b505050565b6060600a805480602002602001604051908101604052809291908181526020016000905b8282101561189457838290600052602060002090600a0201604051806101400160405290816000820160009054906101000a900473ffffffffffffffffffffffffffffffffffffffff1673ffffffffffffffffffffffffffffffffffffffff1673ffffffffffffffffffffffffffffffffffffffff1681526020016001820160009054906101000a900473ffffffffffffffffffffffffffffffffffffffff1673ffffffffffffffffffffffffffffffffffffffff1673ffffffffffffffffffffffffffffffffffffffff16815260200160028201805461144690614728565b80601f016020809104026020016040519081016040528092919081815260200182805461147290614728565b80156114bf5780601f10611494576101008083540402835291602001916114bf565b820191906000526020600020905b8154815290600101906020018083116114a257829003601f168201915b505050505081526020016003820180546114d890614728565b80601f016020809104026020016040519081016040528092919081815260200182805461150490614728565b80156115515780601f1061152657610100808354040283529160200191611551565b820191906000526020600020905b81548152906001019060200180831161153457829003601f168201915b5050505050815260200160048201805480602002602001604051908101604052809291908181526020016000905b8282101561162b57838290600052602060002001805461159e90614728565b80601f01602080910402602001604051908101604052809291908181526020018280546115ca90614728565b80156116175780601f106115ec57610100808354040283529160200191611617565b820191906000526020600020905b8154815290600101906020018083116115fa57829003601f168201915b50505050508152602001906001019061157f565b50505050815260200160058201805461164390614728565b80601f016020809104026020016040519081016040528092919081815260200182805461166f90614728565b80156116bc5780601f10611691576101008083540402835291602001916116bc565b820191906000526020600020905b81548152906001019060200180831161169f57829003601f168201915b505050505081526020016006820180546116d590614728565b80601f016020809104026020016040519081016040528092919081815260200182805461170190614728565b801561174e5780601f106117235761010080835404028352916020019161174e565b820191906000526020600020905b81548152906001019060200180831161173157829003601f168201915b5050505050815260200160078201805461176790614728565b80601f016020809104026020016040519081016040528092919081815260200182805461179390614728565b80156117e05780601f106117b5576101008083540402835291602001916117e0565b820191906000526020600020905b8154815290600101906020018083116117c357829003601f168201915b505050505081526020016008820154815260200160098201805461180390614728565b80601f016020809104026020016040519081016040528092919081815260200182805461182f90614728565b801561187c5780601f106118515761010080835404028352916020019161187c565b820191906000526020600020905b81548152906001019060200180831161185f57829003601f168201915b50505050508152505081526020019060010190611366565b50505050905090565b6000806002600084815260200190815260200160002060009054906101000a900473ffffffffffffffffffffffffffffffffffffffff169050600073ffffffffffffffffffffffffffffffffffffffff168173ffffffffffffffffffffffffffffffffffffffff161415611946576040517f08c379a000000000000000000000000000000000000000000000000000000000815260040161193d90614356565b60405180910390fd5b80915050919050565b6040518061014001604052808a73ffffffffffffffffffffffffffffffffffffffff1681526020018573ffffffffffffffffffffffffffffffffffffffff1681526020018981526020018881526020018781526020018681526020018481526020018381526020016000815260200182815250600b6000600954815260200190815260200160002060008201518160000160006101000a81548173ffffffffffffffffffffffffffffffffffffffff021916908373ffffffffffffffffffffffffffffffffffffffff16021790555060208201518160010160006101000a81548173ffffffffffffffffffffffffffffffffffffffff021916908373ffffffffffffffffffffffffffffffffffffffff1602179055506040820151816002019080519060200190611a819291906133a6565b506060820151816003019080519060200190611a9e9291906133a6565b506080820151816004019080519060200190611abb92919061342c565b5060a0820151816005019080519060200190611ad89291906133a6565b5060c0820151816006019080519060200190611af59291906133a6565b5060e0820151816007019080519060200190611b129291906133a6565b506101008201518160080155610120820151816009019080519060200190611b3b9291906133a6565b50905050600d60008a73ffffffffffffffffffffffffffffffffffffffff1673ffffffffffffffffffffffffffffffffffffffff168152602001908152602001600020600b6000600954815260200190815260200160002090806001815401808255809150506001900390600052602060002090600a02016000909190919091506000820160009054906101000a900473ffffffffffffffffffffffffffffffffffffffff168160000160006101000a81548173ffffffffffffffffffffffffffffffffffffffff021916908373ffffffffffffffffffffffffffffffffffffffff1602179055506001820160009054906101000a900473ffffffffffffffffffffffffffffffffffffffff168160010160006101000a81548173ffffffffffffffffffffffffffffffffffffffff021916908373ffffffffffffffffffffffffffffffffffffffff1602179055506002820181600201908054611c9e90614728565b611ca992919061348c565b506003820181600301908054611cbe90614728565b611cc992919061348c565b506004820181600401908054611ce0929190613519565b506005820181600501908054611cf590614728565b611d0092919061348c565b506006820181600601908054611d1590614728565b611d2092919061348c565b506007820181600701908054611d3590614728565b611d4092919061348c565b50600882015481600801556009820181600901908054611d5f90614728565b611d6a92919061348c565b5050506009547fa1cd98301e2a758f45871102b368fdcf3f56e13f8e8fd2886523ac87ca066ce033604051611d9f9190614094565b60405180910390a2611db2600954610725565b60096000815480929190611dc59061478b565b9190505550505050505050505050565b60008073ffffffffffffffffffffffffffffffffffffffff168273ffffffffffffffffffffffffffffffffffffffff161415611e46576040517f08c379a0000000000000000000000000000000000000000000000000000000008152600401611e3d90614336565b60405180910390fd5b600360008373ffffffffffffffffffffffffffffffffffffffff1673ffffffffffffffffffffffffffffffffffffffff168152602001908152602001600020549050919050565b611e9561291b565b73ffffffffffffffffffffffffffffffffffffffff16611eb3611f2d565b73ffffffffffffffffffffffffffffffffffffffff1614611f09576040517f08c379a0000000000000000000000000000000000000000000000000000000008152600401611f00906143b6565b60405180910390fd5b611f136000612d16565b565b600c6020528060005260406000206000915090505481565b6000600660009054906101000a900473ffffffffffffffffffffffffffffffffffffffff16905090565b606060018054611f6690614728565b80601f0160208091040260200160405190810160405280929190818152602001828054611f9290614728565b8015611fdf5780601f10611fb457610100808354040283529160200191611fdf565b820191906000526020600020905b815481529060010190602001808311611fc257829003601f168201915b5050505050905090565b60075481565b612001611ffa61291b565b8383612ddc565b5050565b61201661201061291b565b836129dc565b612055576040517f08c379a000000000000000000000000000000000000000000000000000000000815260040161204c90614416565b60405180910390fd5b61206184848484612f49565b50505050565b60606000600b6000600f6000868152602001908152602001600020548152602001908152602001600020604051806101400160405290816000820160009054906101000a900473ffffffffffffffffffffffffffffffffffffffff1673ffffffffffffffffffffffffffffffffffffffff1673ffffffffffffffffffffffffffffffffffffffff1681526020016001820160009054906101000a900473ffffffffffffffffffffffffffffffffffffffff1673ffffffffffffffffffffffffffffffffffffffff1673ffffffffffffffffffffffffffffffffffffffff16815260200160028201805461215990614728565b80601f016020809104026020016040519081016040528092919081815260200182805461218590614728565b80156121d25780601f106121a7576101008083540402835291602001916121d2565b820191906000526020600020905b8154815290600101906020018083116121b557829003601f168201915b505050505081526020016003820180546121eb90614728565b80601f016020809104026020016040519081016040528092919081815260200182805461221790614728565b80156122645780601f1061223957610100808354040283529160200191612264565b820191906000526020600020905b81548152906001019060200180831161224757829003601f168201915b5050505050815260200160048201805480602002602001604051908101604052809291908181526020016000905b8282101561233e5783829060005260206000200180546122b190614728565b80601f01602080910402602001604051908101604052809291908181526020018280546122dd90614728565b801561232a5780601f106122ff5761010080835404028352916020019161232a565b820191906000526020600020905b81548152906001019060200180831161230d57829003601f168201915b505050505081526020019060010190612292565b50505050815260200160058201805461235690614728565b80601f016020809104026020016040519081016040528092919081815260200182805461238290614728565b80156123cf5780601f106123a4576101008083540402835291602001916123cf565b820191906000526020600020905b8154815290600101906020018083116123b257829003601f168201915b505050505081526020016006820180546123e890614728565b80601f016020809104026020016040519081016040528092919081815260200182805461241490614728565b80156124615780601f1061243657610100808354040283529160200191612461565b820191906000526020600020905b81548152906001019060200180831161244457829003601f168201915b5050505050815260200160078201805461247a90614728565b80601f01602080910402602001604051908101604052809291908181526020018280546124a690614728565b80156124f35780601f106124c8576101008083540402835291602001916124f3565b820191906000526020600020905b8154815290600101906020018083116124d657829003601f168201915b505050505081526020016008820154815260200160098201805461251690614728565b80601f016020809104026020016040519081016040528092919081815260200182805461254290614728565b801561258f5780601f106125645761010080835404028352916020019161258f565b820191906000526020600020905b81548152906001019060200180831161257257829003601f168201915b5050505050815250509050806101200151915050919050565b600e6020528060005260406000206000915090505481565b600f6020528060005260406000206000915090505481565b6000600560008473ffffffffffffffffffffffffffffffffffffffff1673ffffffffffffffffffffffffffffffffffffffff16815260200190815260200160002060008373ffffffffffffffffffffffffffffffffffffffff1673ffffffffffffffffffffffffffffffffffffffff16815260200190815260200160002060009054906101000a900460ff16905092915050565b61267461291b565b73ffffffffffffffffffffffffffffffffffffffff16612692611f2d565b73ffffffffffffffffffffffffffffffffffffffff16146126e8576040517f08c379a00000000000000000000000000000000000000000000000000000000081526004016126df906143b6565b60405180910390fd5b600073ffffffffffffffffffffffffffffffffffffffff168173ffffffffffffffffffffffffffffffffffffffff161415612758576040517f08c379a000000000000000000000000000000000000000000000000000000000815260040161274f90614276565b60405180910390fd5b61276181612d16565b50565b6001816000016000828254019250508190555050565b60007f01ffc9a7000000000000000000000000000000000000000000000000000000007bffffffffffffffffffffffffffffffffffffffffffffffffffffffff1916827bffffffffffffffffffffffffffffffffffffffffffffffffffffffff1916149050919050565b600081600001549050919050565b61280c828260405180602001604052806000815250612fa5565b5050565b6128aa83838360405160240161282893929190614211565b6040516020818303038152906040527ff362ca59000000000000000000000000000000000000000000000000000000007bffffffffffffffffffffffffffffffffffffffffffffffffffffffff19166020820180517bffffffffffffffffffffffffffffffffffffffffffffffffffffffff8381831617835250505050613000565b505050565b60008073ffffffffffffffffffffffffffffffffffffffff166002600084815260200190815260200160002060009054906101000a900473ffffffffffffffffffffffffffffffffffffffff1673ffffffffffffffffffffffffffffffffffffffff1614159050919050565b600033905090565b816004600083815260200190815260200160002060006101000a81548173ffffffffffffffffffffffffffffffffffffffff021916908373ffffffffffffffffffffffffffffffffffffffff160217905550808273ffffffffffffffffffffffffffffffffffffffff166129968361189d565b73ffffffffffffffffffffffffffffffffffffffff167f8c5be1e5ebec7d5bd14f71427d1e84f3dd0314c0f7b2291e5b200ac8c7c3b92560405160405180910390a45050565b60006129e7826128af565b612a26576040517f08c379a0000000000000000000000000000000000000000000000000000000008152600401612a1d906142f6565b60405180910390fd5b6000612a318361189d565b90508073ffffffffffffffffffffffffffffffffffffffff168473ffffffffffffffffffffffffffffffffffffffff161480612aa057508373ffffffffffffffffffffffffffffffffffffffff16612a888461098c565b73ffffffffffffffffffffffffffffffffffffffff16145b80612ab15750612ab081856125d8565b5b91505092915050565b8273ffffffffffffffffffffffffffffffffffffffff16612ada8261189d565b73ffffffffffffffffffffffffffffffffffffffff1614612b30576040517f08c379a0000000000000000000000000000000000000000000000000000000008152600401612b27906143d6565b60405180910390fd5b600073ffffffffffffffffffffffffffffffffffffffff168273ffffffffffffffffffffffffffffffffffffffff161415612ba0576040517f08c379a0000000000000000000000000000000000000000000000000000000008152600401612b97906142b6565b60405180910390fd5b612bab838383613029565b612bb6600082612923565b6001600360008573ffffffffffffffffffffffffffffffffffffffff1673ffffffffffffffffffffffffffffffffffffffff1681526020019081526020016000206000828254612c06919061463e565b925050819055506001600360008473ffffffffffffffffffffffffffffffffffffffff1673ffffffffffffffffffffffffffffffffffffffff1681526020019081526020016000206000828254612c5d91906145e8565b92505081905550816002600083815260200190815260200160002060006101000a81548173ffffffffffffffffffffffffffffffffffffffff021916908373ffffffffffffffffffffffffffffffffffffffff160217905550808273ffffffffffffffffffffffffffffffffffffffff168473ffffffffffffffffffffffffffffffffffffffff167fddf252ad1be2c89b69c2b068fc378daa952ba7f163c4a11628f55a4df523b3ef60405160405180910390a4505050565b6000600660009054906101000a900473ffffffffffffffffffffffffffffffffffffffff16905081600660006101000a81548173ffffffffffffffffffffffffffffffffffffffff021916908373ffffffffffffffffffffffffffffffffffffffff1602179055508173ffffffffffffffffffffffffffffffffffffffff168173ffffffffffffffffffffffffffffffffffffffff167f8be0079c531659141344cd1fd0a4f28419497f9722a3daafe3b4186f6b6457e060405160405180910390a35050565b8173ffffffffffffffffffffffffffffffffffffffff168373ffffffffffffffffffffffffffffffffffffffff161415612e4b576040517f08c379a0000000000000000000000000000000000000000000000000000000008152600401612e42906142d6565b60405180910390fd5b80600560008573ffffffffffffffffffffffffffffffffffffffff1673ffffffffffffffffffffffffffffffffffffffff16815260200190815260200160002060008473ffffffffffffffffffffffffffffffffffffffff1673ffffffffffffffffffffffffffffffffffffffff16815260200190815260200160002060006101000a81548160ff0219169083151502179055508173ffffffffffffffffffffffffffffffffffffffff168373ffffffffffffffffffffffffffffffffffffffff167f17307eab39ab6107e8899845ad3d59bd9653f200f220920489ca2b5937696c3183604051612f3c91906141d4565b60405180910390a3505050565b612f54848484612aba565b612f608484848461302e565b612f9f576040517f08c379a0000000000000000000000000000000000000000000000000000000008152600401612f9690614256565b60405180910390fd5b50505050565b612faf83836131c5565b612fbc600084848461302e565b612ffb576040517f08c379a0000000000000000000000000000000000000000000000000000000008152600401612ff290614256565b60405180910390fd5b505050565b60008151905060006a636f6e736f6c652e6c6f679050602083016000808483855afa5050505050565b505050565b600061304f8473ffffffffffffffffffffffffffffffffffffffff16613393565b156131b8578373ffffffffffffffffffffffffffffffffffffffff1663150b7a0261307861291b565b8786866040518563ffffffff1660e01b815260040161309a9493929190614166565b602060405180830381600087803b1580156130b457600080fd5b505af19250505080156130e557506040513d601f19601f820116820180604052508101906130e29190613b29565b60015b613168573d8060008114613115576040519150601f19603f3d011682016040523d82523d6000602084013e61311a565b606091505b50600081511415613160576040517f08c379a000000000000000000000000000000000000000000000000000000000815260040161315790614256565b60405180910390fd5b805181602001fd5b63150b7a0260e01b7bffffffffffffffffffffffffffffffffffffffffffffffffffffffff1916817bffffffffffffffffffffffffffffffffffffffffffffffffffffffff1916149150506131bd565b600190505b949350505050565b600073ffffffffffffffffffffffffffffffffffffffff168273ffffffffffffffffffffffffffffffffffffffff161415613235576040517f08c379a000000000000000000000000000000000000000000000000000000000815260040161322c90614376565b60405180910390fd5b61323e816128af565b1561327e576040517f08c379a000000000000000000000000000000000000000000000000000000000815260040161327590614296565b60405180910390fd5b61328a60008383613029565b6001600360008473ffffffffffffffffffffffffffffffffffffffff1673ffffffffffffffffffffffffffffffffffffffff16815260200190815260200160002060008282546132da91906145e8565b92505081905550816002600083815260200190815260200160002060006101000a81548173ffffffffffffffffffffffffffffffffffffffff021916908373ffffffffffffffffffffffffffffffffffffffff160217905550808273ffffffffffffffffffffffffffffffffffffffff16600073ffffffffffffffffffffffffffffffffffffffff167fddf252ad1be2c89b69c2b068fc378daa952ba7f163c4a11628f55a4df523b3ef60405160405180910390a45050565b600080823b905060008111915050919050565b8280546133b290614728565b90600052602060002090601f0160209004810192826133d4576000855561341b565b82601f106133ed57805160ff191683800117855561341b565b8280016001018555821561341b579182015b8281111561341a5782518255916020019190600101906133ff565b5b5090506134289190613581565b5090565b82805482825590600052602060002090810192821561347b579160200282015b8281111561347a57825182908051906020019061346a9291906133a6565b509160200191906001019061344c565b5b509050613488919061359e565b5090565b82805461349890614728565b90600052602060002090601f0160209004810192826134ba5760008555613508565b82601f106134cb5780548555613508565b8280016001018555821561350857600052602060002091601f016020900482015b828111156135075782548255916001019190600101906134ec565b5b5090506135159190613581565b5090565b8280548282559060005260206000209081019282156135705760005260206000209182015b8281111561356f57828290805461355490614728565b61355f92919061348c565b509160010191906001019061353e565b5b50905061357d919061359e565b5090565b5b8082111561359a576000816000905550600101613582565b5090565b5b808211156135be57600081816135b591906135c2565b5060010161359f565b5090565b5080546135ce90614728565b6000825580601f106135e057506135ff565b601f0160209004906000526020600020908101906135fe9190613581565b5b50565b60006136156136108461449f565b61447a565b9050808382526020820190508285602086028201111561363457600080fd5b60005b8581101561367e57813567ffffffffffffffff81111561365657600080fd5b80860161366389826137ac565b85526020850194506020840193505050600181019050613637565b5050509392505050565b600061369b613696846144cb565b61447a565b9050828152602081018484840111156136b357600080fd5b6136be8482856146e6565b509392505050565b60006136d96136d4846144fc565b61447a565b9050828152602081018484840111156136f157600080fd5b6136fc8482856146e6565b509392505050565b60008135905061371381614c7b565b92915050565b600082601f83011261372a57600080fd5b813561373a848260208601613602565b91505092915050565b60008135905061375281614c92565b92915050565b60008135905061376781614ca9565b92915050565b60008151905061377c81614ca9565b92915050565b600082601f83011261379357600080fd5b81356137a3848260208601613688565b91505092915050565b600082601f8301126137bd57600080fd5b81356137cd8482602086016136c6565b91505092915050565b6000813590506137e581614cc0565b92915050565b6000602082840312156137fd57600080fd5b600061380b84828501613704565b91505092915050565b6000806040838503121561382757600080fd5b600061383585828601613704565b925050602061384685828601613704565b9150509250929050565b60008060006060848603121561386557600080fd5b600061387386828701613704565b935050602061388486828701613704565b9250506040613895868287016137d6565b9150509250925092565b600080600080608085870312156138b557600080fd5b60006138c387828801613704565b94505060206138d487828801613704565b93505060406138e5878288016137d6565b925050606085013567ffffffffffffffff81111561390257600080fd5b61390e87828801613782565b91505092959194509250565b6000806040838503121561392d57600080fd5b600061393b85828601613704565b925050602061394c85828601613743565b9150509250929050565b60008060008060008060008060006101208a8c03121561397557600080fd5b60006139838c828d01613704565b99505060208a013567ffffffffffffffff8111156139a057600080fd5b6139ac8c828d016137ac565b98505060408a013567ffffffffffffffff8111156139c957600080fd5b6139d58c828d016137ac565b97505060608a013567ffffffffffffffff8111156139f257600080fd5b6139fe8c828d01613719565b96505060808a013567ffffffffffffffff811115613a1b57600080fd5b613a278c828d016137ac565b95505060a0613a388c828d01613704565b94505060c08a013567ffffffffffffffff811115613a5557600080fd5b613a618c828d016137ac565b93505060e08a013567ffffffffffffffff811115613a7e57600080fd5b613a8a8c828d016137ac565b9250506101008a013567ffffffffffffffff811115613aa857600080fd5b613ab48c828d016137ac565b9150509295985092959850929598565b60008060408385031215613ad757600080fd5b6000613ae585828601613704565b9250506020613af6858286016137d6565b9150509250929050565b600060208284031215613b1257600080fd5b6000613b2084828501613758565b91505092915050565b600060208284031215613b3b57600080fd5b6000613b498482850161376d565b91505092915050565b600060208284031215613b6457600080fd5b6000613b72848285016137d6565b91505092915050565b6000613b878383613cf3565b905092915050565b6000613b9b8383613f72565b905092915050565b613bac81614672565b82525050565b613bbb81614672565b82525050565b6000613bcc8261454d565b613bd68185614593565b935083602082028501613be88561452d565b8060005b85811015613c245784840389528151613c058582613b7b565b9450613c1083614579565b925060208a01995050600181019050613bec565b50829750879550505050505092915050565b6000613c4182614558565b613c4b81856145a4565b935083602082028501613c5d8561453d565b8060005b85811015613c995784840389528151613c7a8582613b8f565b9450613c8583614586565b925060208a01995050600181019050613c61565b50829750879550505050505092915050565b613cb481614684565b82525050565b6000613cc582614563565b613ccf81856145b5565b9350613cdf8185602086016146f5565b613ce881614861565b840191505092915050565b6000613cfe8261456e565b613d0881856145c6565b9350613d188185602086016146f5565b613d2181614861565b840191505092915050565b6000613d378261456e565b613d4181856145d7565b9350613d518185602086016146f5565b613d5a81614861565b840191505092915050565b6000613d726032836145d7565b9150613d7d82614872565b604082019050919050565b6000613d956026836145d7565b9150613da0826148c1565b604082019050919050565b6000613db8601c836145d7565b9150613dc382614910565b602082019050919050565b6000613ddb6024836145d7565b9150613de682614939565b604082019050919050565b6000613dfe6019836145d7565b9150613e0982614988565b602082019050919050565b6000613e21602c836145d7565b9150613e2c826149b1565b604082019050919050565b6000613e446038836145d7565b9150613e4f82614a00565b604082019050919050565b6000613e67602a836145d7565b9150613e7282614a4f565b604082019050919050565b6000613e8a6029836145d7565b9150613e9582614a9e565b604082019050919050565b6000613ead6020836145d7565b9150613eb882614aed565b602082019050919050565b6000613ed0602c836145d7565b9150613edb82614b16565b604082019050919050565b6000613ef36020836145d7565b9150613efe82614b65565b602082019050919050565b6000613f166029836145d7565b9150613f2182614b8e565b604082019050919050565b6000613f396021836145d7565b9150613f4482614bdd565b604082019050919050565b6000613f5c6031836145d7565b9150613f6782614c2c565b604082019050919050565b600061014083016000830151613f8b6000860182613ba3565b506020830151613f9e6020860182613ba3565b5060408301518482036040860152613fb68282613cf3565b91505060608301518482036060860152613fd08282613cf3565b91505060808301518482036080860152613fea8282613bc1565b91505060a083015184820360a08601526140048282613cf3565b91505060c083015184820360c086015261401e8282613cf3565b91505060e083015184820360e08601526140388282613cf3565b91505061010083015161404f610100860182614076565b506101208301518482036101208601526140698282613cf3565b9150508091505092915050565b61407f816146dc565b82525050565b61408e816146dc565b82525050565b60006020820190506140a96000830184613bb2565b92915050565b6000610120820190506140c5600083018c613bb2565b6140d2602083018b613bb2565b81810360408301526140e4818a613d2c565b905081810360608301526140f88189613d2c565b9050818103608083015261410c8188613d2c565b905081810360a08301526141208187613d2c565b905081810360c08301526141348186613d2c565b905061414360e0830185614085565b8181036101008301526141568184613d2c565b90509a9950505050505050505050565b600060808201905061417b6000830187613bb2565b6141886020830186613bb2565b6141956040830185614085565b81810360608301526141a78184613cba565b905095945050505050565b600060208201905081810360008301526141cc8184613c36565b905092915050565b60006020820190506141e96000830184613cab565b92915050565b600060208201905081810360008301526142098184613d2c565b905092915050565b6000606082019050818103600083015261422b8186613d2c565b9050818103602083015261423f8185613d2c565b905061424e6040830184614085565b949350505050565b6000602082019050818103600083015261426f81613d65565b9050919050565b6000602082019050818103600083015261428f81613d88565b9050919050565b600060208201905081810360008301526142af81613dab565b9050919050565b600060208201905081810360008301526142cf81613dce565b9050919050565b600060208201905081810360008301526142ef81613df1565b9050919050565b6000602082019050818103600083015261430f81613e14565b9050919050565b6000602082019050818103600083015261432f81613e37565b9050919050565b6000602082019050818103600083015261434f81613e5a565b9050919050565b6000602082019050818103600083015261436f81613e7d565b9050919050565b6000602082019050818103600083015261438f81613ea0565b9050919050565b600060208201905081810360008301526143af81613ec3565b9050919050565b600060208201905081810360008301526143cf81613ee6565b9050919050565b600060208201905081810360008301526143ef81613f09565b9050919050565b6000602082019050818103600083015261440f81613f2c565b9050919050565b6000602082019050818103600083015261442f81613f4f565b9050919050565b600060208201905061444b6000830184614085565b92915050565b60006040820190506144666000830185614085565b6144736020830184614085565b9392505050565b6000614484614495565b9050614490828261475a565b919050565b6000604051905090565b600067ffffffffffffffff8211156144ba576144b9614832565b5b602082029050602081019050919050565b600067ffffffffffffffff8211156144e6576144e5614832565b5b6144ef82614861565b9050602081019050919050565b600067ffffffffffffffff82111561451757614516614832565b5b61452082614861565b9050602081019050919050565b6000819050602082019050919050565b6000819050602082019050919050565b600081519050919050565b600081519050919050565b600081519050919050565b600081519050919050565b6000602082019050919050565b6000602082019050919050565b600082825260208201905092915050565b600082825260208201905092915050565b600082825260208201905092915050565b600082825260208201905092915050565b600082825260208201905092915050565b60006145f3826146dc565b91506145fe836146dc565b9250827fffffffffffffffffffffffffffffffffffffffffffffffffffffffffffffffff03821115614633576146326147d4565b5b828201905092915050565b6000614649826146dc565b9150614654836146dc565b925082821015614667576146666147d4565b5b828203905092915050565b600061467d826146bc565b9050919050565b60008115159050919050565b60007fffffffff0000000000000000000000000000000000000000000000000000000082169050919050565b600073ffffffffffffffffffffffffffffffffffffffff82169050919050565b6000819050919050565b82818337600083830152505050565b60005b838110156147135780820151818401526020810190506146f8565b83811115614722576000848401525b50505050565b6000600282049050600182168061474057607f821691505b6020821081141561475457614753614803565b5b50919050565b61476382614861565b810181811067ffffffffffffffff8211171561478257614781614832565b5b80604052505050565b6000614796826146dc565b91507fffffffffffffffffffffffffffffffffffffffffffffffffffffffffffffffff8214156147c9576147c86147d4565b5b600182019050919050565b7f4e487b7100000000000000000000000000000000000000000000000000000000600052601160045260246000fd5b7f4e487b7100000000000000000000000000000000000000000000000000000000600052602260045260246000fd5b7f4e487b7100000000000000000000000000000000000000000000000000000000600052604160045260246000fd5b6000601f19601f8301169050919050565b7f4552433732313a207472616e7366657220746f206e6f6e20455243373231526560008201527f63656976657220696d706c656d656e7465720000000000000000000000000000602082015250565b7f4f776e61626c653a206e6577206f776e657220697320746865207a65726f206160008201527f6464726573730000000000000000000000000000000000000000000000000000602082015250565b7f4552433732313a20746f6b656e20616c7265616479206d696e74656400000000600082015250565b7f4552433732313a207472616e7366657220746f20746865207a65726f2061646460008201527f7265737300000000000000000000000000000000000000000000000000000000602082015250565b7f4552433732313a20617070726f766520746f2063616c6c657200000000000000600082015250565b7f4552433732313a206f70657261746f7220717565727920666f72206e6f6e657860008201527f697374656e7420746f6b656e0000000000000000000000000000000000000000602082015250565b7f4552433732313a20617070726f76652063616c6c6572206973206e6f74206f7760008201527f6e6572206e6f7220617070726f76656420666f7220616c6c0000000000000000602082015250565b7f4552433732313a2062616c616e636520717565727920666f7220746865207a6560008201527f726f206164647265737300000000000000000000000000000000000000000000602082015250565b7f4552433732313a206f776e657220717565727920666f72206e6f6e657869737460008201527f656e7420746f6b656e0000000000000000000000000000000000000000000000602082015250565b7f4552433732313a206d696e7420746f20746865207a65726f2061646472657373600082015250565b7f4552433732313a20617070726f76656420717565727920666f72206e6f6e657860008201527f697374656e7420746f6b656e0000000000000000000000000000000000000000602082015250565b7f4f776e61626c653a2063616c6c6572206973206e6f7420746865206f776e6572600082015250565b7f4552433732313a207472616e73666572206f6620746f6b656e2074686174206960008201527f73206e6f74206f776e0000000000000000000000000000000000000000000000602082015250565b7f4552433732313a20617070726f76616c20746f2063757272656e74206f776e6560008201527f7200000000000000000000000000000000000000000000000000000000000000602082015250565b7f4552433732313a207472616e736665722063616c6c6572206973206e6f74206f60008201527f776e6572206e6f7220617070726f766564000000000000000000000000000000602082015250565b614c8481614672565b8114614c8f57600080fd5b50565b614c9b81614684565b8114614ca657600080fd5b50565b614cb281614690565b8114614cbd57600080fd5b50565b614cc9816146dc565b8114614cd457600080fd5b5056fe2a2a2a2a2a2a4d696e746564202573204e465420772f20746f6b656e4964202573202a2a2a2a2a2aa264697066735822122064cb51488e86c4044f3112b2820e37ab7584265ef07174a1befb5cb0c0f8ba5964736f6c63430008040033",
  "linkReferences": {},
  "deployedLinkReferences": {}
}