{
  "_format": "hh-sol-artifact-1",
  "contractName": "Phlote",
  "sourceName": "contracts/Phlote.sol",
  "abi": [
    {
      "anonymous": false,
      "inputs": [
        {
          "indexed": true,
          "internalType": "address",
          "name": "owner",
          "type": "address"
        },
        {
          "indexed": true,
          "internalType": "address",
          "name": "approved",
          "type": "address"
        },
        {
          "indexed": true,
          "internalType": "uint256",
          "name": "tokenId",
          "type": "uint256"
        }
      ],
      "name": "Approval",
      "type": "event"
    },
    {
      "anonymous": false,
      "inputs": [
        {
          "indexed": true,
          "internalType": "address",
          "name": "owner",
          "type": "address"
        },
        {
          "indexed": true,
          "internalType": "address",
          "name": "operator",
          "type": "address"
        },
        {
          "indexed": false,
          "internalType": "bool",
          "name": "approved",
          "type": "bool"
        }
      ],
      "name": "ApprovalForAll",
      "type": "event"
    },
    {
      "anonymous": false,
      "inputs": [
        {
          "indexed": false,
          "internalType": "address",
          "name": "cosigner",
          "type": "address"
        },
        {
          "indexed": true,
          "internalType": "uint256",
          "name": "editionId",
          "type": "uint256"
        }
      ],
      "name": "EditionCosigned",
      "type": "event"
    },
    {
      "anonymous": false,
      "inputs": [
        {
          "indexed": false,
          "internalType": "address",
          "name": "sender",
          "type": "address"
        },
        {
          "indexed": true,
          "internalType": "uint256",
          "name": "editionId",
          "type": "uint256"
        }
      ],
      "name": "EditionCreated",
      "type": "event"
    },
    {
      "anonymous": false,
      "inputs": [
        {
          "indexed": true,
          "internalType": "address",
          "name": "buyer",
          "type": "address"
        },
        {
          "indexed": false,
          "internalType": "uint256",
          "name": "tokenId",
          "type": "uint256"
        },
        {
          "indexed": false,
          "internalType": "uint256",
          "name": "numSold",
          "type": "uint256"
        }
      ],
      "name": "EditionMinted",
      "type": "event"
    },
    {
      "anonymous": false,
      "inputs": [
        {
          "indexed": true,
          "internalType": "address",
          "name": "previousOwner",
          "type": "address"
        },
        {
          "indexed": true,
          "internalType": "address",
          "name": "newOwner",
          "type": "address"
        }
      ],
      "name": "OwnershipTransferred",
      "type": "event"
    },
    {
      "anonymous": false,
      "inputs": [
        {
          "indexed": true,
          "internalType": "address",
          "name": "from",
          "type": "address"
        },
        {
          "indexed": true,
          "internalType": "address",
          "name": "to",
          "type": "address"
        },
        {
          "indexed": true,
          "internalType": "uint256",
          "name": "tokenId",
          "type": "uint256"
        }
      ],
      "name": "Transfer",
      "type": "event"
    },
    {
      "inputs": [
        {
          "internalType": "address",
          "name": "to",
          "type": "address"
        },
        {
          "internalType": "uint256",
          "name": "tokenId",
          "type": "uint256"
        }
      ],
      "name": "approve",
      "outputs": [],
      "stateMutability": "nonpayable",
      "type": "function"
    },
    {
      "inputs": [
        {
          "internalType": "address",
          "name": "owner",
          "type": "address"
        }
      ],
      "name": "balanceOf",
      "outputs": [
        {
          "internalType": "uint256",
          "name": "",
          "type": "uint256"
        }
      ],
      "stateMutability": "view",
      "type": "function"
    },
    {
      "inputs": [],
      "name": "contractPrice",
      "outputs": [
        {
          "internalType": "uint256",
          "name": "",
          "type": "uint256"
        }
      ],
      "stateMutability": "view",
      "type": "function"
    },
    {
      "inputs": [
        {
          "internalType": "uint256",
          "name": "editionId",
          "type": "uint256"
        }
      ],
      "name": "cosign",
      "outputs": [],
      "stateMutability": "payable",
      "type": "function"
    },
    {
      "inputs": [
        {
          "internalType": "address",
          "name": "",
          "type": "address"
        },
        {
          "internalType": "uint256",
          "name": "",
          "type": "uint256"
        }
      ],
      "name": "curatorSubmissions",
      "outputs": [
        {
          "internalType": "uint256",
          "name": "id",
          "type": "uint256"
        },
        {
          "internalType": "address",
          "name": "curatorWallet",
          "type": "address"
        },
        {
          "internalType": "address",
          "name": "artistWallet",
          "type": "address"
        },
        {
          "internalType": "string",
          "name": "mediaURI",
          "type": "string"
        },
        {
          "internalType": "string",
          "name": "marketplace",
          "type": "string"
        },
        {
          "internalType": "string",
          "name": "artistName",
          "type": "string"
        },
        {
          "internalType": "string",
          "name": "mediaType",
          "type": "string"
        },
        {
          "internalType": "string",
          "name": "mediaTitle",
          "type": "string"
        },
        {
          "internalType": "uint256",
          "name": "numSold",
          "type": "uint256"
        },
        {
          "internalType": "string",
          "name": "tokenURI",
          "type": "string"
        },
        {
          "internalType": "uint256",
          "name": "submissionTime",
          "type": "uint256"
        }
      ],
      "stateMutability": "view",
      "type": "function"
    },
    {
      "inputs": [
        {
          "internalType": "uint256",
          "name": "",
          "type": "uint256"
        },
        {
          "internalType": "uint256",
          "name": "",
          "type": "uint256"
        }
      ],
      "name": "editionIdToCosigns",
      "outputs": [
        {
          "internalType": "address",
          "name": "",
          "type": "address"
        }
      ],
      "stateMutability": "view",
      "type": "function"
    },
    {
      "inputs": [
        {
          "internalType": "uint256",
          "name": "",
          "type": "uint256"
        }
      ],
      "name": "editions",
      "outputs": [
        {
          "internalType": "uint256",
          "name": "id",
          "type": "uint256"
        },
        {
          "internalType": "address",
          "name": "curatorWallet",
          "type": "address"
        },
        {
          "internalType": "address",
          "name": "artistWallet",
          "type": "address"
        },
        {
          "internalType": "string",
          "name": "mediaURI",
          "type": "string"
        },
        {
          "internalType": "string",
          "name": "marketplace",
          "type": "string"
        },
        {
          "internalType": "string",
          "name": "artistName",
          "type": "string"
        },
        {
          "internalType": "string",
          "name": "mediaType",
          "type": "string"
        },
        {
          "internalType": "string",
          "name": "mediaTitle",
          "type": "string"
        },
        {
          "internalType": "uint256",
          "name": "numSold",
          "type": "uint256"
        },
        {
          "internalType": "string",
          "name": "tokenURI",
          "type": "string"
        },
        {
          "internalType": "uint256",
          "name": "submissionTime",
          "type": "uint256"
        }
      ],
      "stateMutability": "view",
      "type": "function"
    },
    {
      "inputs": [],
      "name": "getAllCurations",
      "outputs": [
        {
          "components": [
            {
              "internalType": "uint256",
              "name": "id",
              "type": "uint256"
            },
            {
              "internalType": "address",
              "name": "curatorWallet",
              "type": "address"
            },
            {
              "internalType": "address",
              "name": "artistWallet",
              "type": "address"
            },
            {
              "internalType": "string",
              "name": "mediaURI",
              "type": "string"
            },
            {
              "internalType": "string",
              "name": "marketplace",
              "type": "string"
            },
            {
              "internalType": "string[]",
              "name": "tags",
              "type": "string[]"
            },
            {
              "internalType": "string",
              "name": "artistName",
              "type": "string"
            },
            {
              "internalType": "string",
              "name": "mediaType",
              "type": "string"
            },
            {
              "internalType": "string",
              "name": "mediaTitle",
              "type": "string"
            },
            {
              "internalType": "uint256",
              "name": "numSold",
              "type": "uint256"
            },
            {
              "internalType": "string",
              "name": "tokenURI",
              "type": "string"
            },
            {
              "internalType": "uint256",
              "name": "submissionTime",
              "type": "uint256"
            }
          ],
          "internalType": "struct Phlote.Edition[]",
          "name": "",
          "type": "tuple[]"
        }
      ],
      "stateMutability": "view",
      "type": "function"
    },
    {
      "inputs": [
        {
          "internalType": "uint256",
          "name": "tokenId",
          "type": "uint256"
        }
      ],
      "name": "getApproved",
      "outputs": [
        {
          "internalType": "address",
          "name": "",
          "type": "address"
        }
      ],
      "stateMutability": "view",
      "type": "function"
    },
    {
      "inputs": [
        {
          "internalType": "uint256",
          "name": "editionId",
          "type": "uint256"
        }
      ],
      "name": "getCosigns",
      "outputs": [
        {
          "internalType": "address[]",
          "name": "",
          "type": "address[]"
        }
      ],
      "stateMutability": "view",
      "type": "function"
    },
    {
      "inputs": [
        {
          "internalType": "address",
          "name": "_curatorWallet",
          "type": "address"
        }
      ],
      "name": "getCuratorSubmissions",
      "outputs": [
        {
          "components": [
            {
              "internalType": "uint256",
              "name": "id",
              "type": "uint256"
            },
            {
              "internalType": "address",
              "name": "curatorWallet",
              "type": "address"
            },
            {
              "internalType": "address",
              "name": "artistWallet",
              "type": "address"
            },
            {
              "internalType": "string",
              "name": "mediaURI",
              "type": "string"
            },
            {
              "internalType": "string",
              "name": "marketplace",
              "type": "string"
            },
            {
              "internalType": "string[]",
              "name": "tags",
              "type": "string[]"
            },
            {
              "internalType": "string",
              "name": "artistName",
              "type": "string"
            },
            {
              "internalType": "string",
              "name": "mediaType",
              "type": "string"
            },
            {
              "internalType": "string",
              "name": "mediaTitle",
              "type": "string"
            },
            {
              "internalType": "uint256",
              "name": "numSold",
              "type": "uint256"
            },
            {
              "internalType": "string",
              "name": "tokenURI",
              "type": "string"
            },
            {
              "internalType": "uint256",
              "name": "submissionTime",
              "type": "uint256"
            }
          ],
          "internalType": "struct Phlote.Edition[]",
          "name": "",
          "type": "tuple[]"
        }
      ],
      "stateMutability": "view",
      "type": "function"
    },
    {
      "inputs": [],
      "name": "initialize",
      "outputs": [],
      "stateMutability": "nonpayable",
      "type": "function"
    },
    {
      "inputs": [
        {
          "internalType": "address",
          "name": "owner",
          "type": "address"
        },
        {
          "internalType": "address",
          "name": "operator",
          "type": "address"
        }
      ],
      "name": "isApprovedForAll",
      "outputs": [
        {
          "internalType": "bool",
          "name": "",
          "type": "bool"
        }
      ],
      "stateMutability": "view",
      "type": "function"
    },
    {
      "inputs": [
        {
          "internalType": "uint256",
          "name": "editionId",
          "type": "uint256"
        }
      ],
      "name": "mintEdition",
      "outputs": [],
      "stateMutability": "payable",
      "type": "function"
    },
    {
      "inputs": [],
      "name": "name",
      "outputs": [
        {
          "internalType": "string",
          "name": "",
          "type": "string"
        }
      ],
      "stateMutability": "view",
      "type": "function"
    },
    {
      "inputs": [
        {
          "internalType": "address",
          "name": "",
          "type": "address"
        }
      ],
      "name": "nftHolders",
      "outputs": [
        {
          "internalType": "uint256",
          "name": "",
          "type": "uint256"
        }
      ],
      "stateMutability": "view",
      "type": "function"
    },
    {
      "inputs": [],
      "name": "owner",
      "outputs": [
        {
          "internalType": "address",
          "name": "",
          "type": "address"
        }
      ],
      "stateMutability": "view",
      "type": "function"
    },
    {
      "inputs": [
        {
          "internalType": "uint256",
          "name": "tokenId",
          "type": "uint256"
        }
      ],
      "name": "ownerOf",
      "outputs": [
        {
          "internalType": "address",
          "name": "",
          "type": "address"
        }
      ],
      "stateMutability": "view",
      "type": "function"
    },
    {
      "inputs": [],
      "name": "renounceOwnership",
      "outputs": [],
      "stateMutability": "nonpayable",
      "type": "function"
    },
    {
      "inputs": [
        {
          "internalType": "address",
          "name": "from",
          "type": "address"
        },
        {
          "internalType": "address",
          "name": "to",
          "type": "address"
        },
        {
          "internalType": "uint256",
          "name": "tokenId",
          "type": "uint256"
        }
      ],
      "name": "safeTransferFrom",
      "outputs": [],
      "stateMutability": "nonpayable",
      "type": "function"
    },
    {
      "inputs": [
        {
          "internalType": "address",
          "name": "from",
          "type": "address"
        },
        {
          "internalType": "address",
          "name": "to",
          "type": "address"
        },
        {
          "internalType": "uint256",
          "name": "tokenId",
          "type": "uint256"
        },
        {
          "internalType": "bytes",
          "name": "_data",
          "type": "bytes"
        }
      ],
      "name": "safeTransferFrom",
      "outputs": [],
      "stateMutability": "nonpayable",
      "type": "function"
    },
    {
      "inputs": [
        {
          "internalType": "address",
          "name": "operator",
          "type": "address"
        },
        {
          "internalType": "bool",
          "name": "approved",
          "type": "bool"
        }
      ],
      "name": "setApprovalForAll",
      "outputs": [],
      "stateMutability": "nonpayable",
      "type": "function"
    },
    {
      "inputs": [
        {
          "internalType": "address",
          "name": "_curatorWallet",
          "type": "address"
        },
        {
          "internalType": "string",
          "name": "_mediaURI",
          "type": "string"
        },
        {
          "internalType": "string",
          "name": "_marketplace",
          "type": "string"
        },
        {
          "internalType": "string[]",
          "name": "_tags",
          "type": "string[]"
        },
        {
          "internalType": "string",
          "name": "_artistName",
          "type": "string"
        },
        {
          "internalType": "address",
          "name": "_artistWallet",
          "type": "address"
        },
        {
          "internalType": "string",
          "name": "_mediaType",
          "type": "string"
        },
        {
          "internalType": "string",
          "name": "_mediaTitle",
          "type": "string"
        },
        {
          "internalType": "string",
          "name": "_tokenURI",
          "type": "string"
        }
      ],
      "name": "submitPost",
      "outputs": [],
      "stateMutability": "nonpayable",
      "type": "function"
    },
    {
      "inputs": [
        {
          "internalType": "bytes4",
          "name": "interfaceId",
          "type": "bytes4"
        }
      ],
      "name": "supportsInterface",
      "outputs": [
        {
          "internalType": "bool",
          "name": "",
          "type": "bool"
        }
      ],
      "stateMutability": "view",
      "type": "function"
    },
    {
      "inputs": [],
      "name": "symbol",
      "outputs": [
        {
          "internalType": "string",
          "name": "",
          "type": "string"
        }
      ],
      "stateMutability": "view",
      "type": "function"
    },
    {
      "inputs": [
        {
          "internalType": "uint256",
          "name": "",
          "type": "uint256"
        }
      ],
      "name": "tokenToSong",
      "outputs": [
        {
          "internalType": "uint256",
          "name": "",
          "type": "uint256"
        }
      ],
      "stateMutability": "view",
      "type": "function"
    },
    {
      "inputs": [
        {
          "internalType": "uint256",
          "name": "_tokenId",
          "type": "uint256"
        }
      ],
      "name": "tokenURI",
      "outputs": [
        {
          "internalType": "string",
          "name": "",
          "type": "string"
        }
      ],
      "stateMutability": "view",
      "type": "function"
    },
    {
      "inputs": [
        {
          "internalType": "address",
          "name": "from",
          "type": "address"
        },
        {
          "internalType": "address",
          "name": "to",
          "type": "address"
        },
        {
          "internalType": "uint256",
          "name": "tokenId",
          "type": "uint256"
        }
      ],
      "name": "transferFrom",
      "outputs": [],
      "stateMutability": "nonpayable",
      "type": "function"
    },
    {
      "inputs": [
        {
          "internalType": "address",
          "name": "newOwner",
          "type": "address"
        }
      ],
      "name": "transferOwnership",
      "outputs": [],
      "stateMutability": "nonpayable",
      "type": "function"
    },
    {
      "inputs": [
        {
          "internalType": "uint256",
          "name": "",
          "type": "uint256"
        }
      ],
      "name": "withdrawnForEdition",
      "outputs": [
        {
          "internalType": "uint256",
          "name": "",
          "type": "uint256"
        }
      ],
      "stateMutability": "view",
      "type": "function"
    }
  ],
  "bytecode": "0x608060405234801561001057600080fd5b50615baa80620000216000396000f3fe6080604052600436106101cd5760003560e01c806379f7e04a116100f7578063a22cb46511610095578063e2b18d3f11610064578063e2b18d3f146106b8578063e985e9c5146106f5578063f2fde38b14610732578063fa990ce51461075b576101cd565b8063a22cb465146105ec578063b88d4fde14610615578063c87b56dd1461063e578063d3bb05281461067b576101cd565b80638129fc1c116100d15780638129fc1c146105545780638da5cb5b1461056b57806395d89b411461059657806397e9a0bf146105c1576101cd565b806379f7e04a146104be5780637df124a1146104fb5780637f504fdf14610538576101cd565b806323b872dd1161016f5780636352211e1161013e5780636352211e146104045780636b1658541461044157806370a082311461046a578063715018a6146104a7576101cd565b806323b872dd1461032e578063279c806e1461035757806342842e0e1461039e57806353301ecf146103c7576101cd565b8063081812fc116101ab578063081812fc14610256578063095ea7b3146102935780631125c320146102bc5780631cfbcd5b14610303576101cd565b806301ffc9a7146101d257806305322b741461020f57806306fdde031461022b575b600080fd5b3480156101de57600080fd5b506101f960048036038101906101f491906146fc565b610798565b6040516102069190614e5d565b60405180910390f35b6102296004803603810190610224919061474e565b61087a565b005b34801561023757600080fd5b50610240610a4f565b60405161024d9190614e78565b60405180910390f35b34801561026257600080fd5b5061027d6004803603810190610278919061474e565b610ae1565b60405161028a9190614db2565b60405180910390f35b34801561029f57600080fd5b506102ba60048036038101906102b591906146c0565b610b66565b005b3480156102c857600080fd5b506102e360048036038101906102de91906146c0565b610c7e565b6040516102fa9b9a9998979695949392919061511a565b60405180910390f35b34801561030f57600080fd5b50610318611065565b6040516103259190614e3b565b60405180910390f35b34801561033a57600080fd5b506103556004803603810190610350919061444c565b6115d4565b005b34801561036357600080fd5b5061037e6004803603810190610379919061474e565b611634565b6040516103959b9a9998979695949392919061511a565b60405180910390f35b3480156103aa57600080fd5b506103c560048036038101906103c0919061444c565b6119fe565b005b3480156103d357600080fd5b506103ee60048036038101906103e991906143e7565b611a1e565b6040516103fb9190614e3b565b60405180910390f35b34801561041057600080fd5b5061042b6004803603810190610426919061474e565b611fcc565b6040516104389190614db2565b60405180910390f35b34801561044d57600080fd5b5061046860048036038101906104639190614552565b61207e565b005b34801561047657600080fd5b50610491600480360381019061048c91906143e7565b61268f565b60405161049e91906150ff565b60405180910390f35b3480156104b357600080fd5b506104bc612747565b005b3480156104ca57600080fd5b506104e560048036038101906104e09190614777565b6127cf565b6040516104f29190614db2565b60405180910390f35b34801561050757600080fd5b50610522600480360381019061051d91906143e7565b61281d565b60405161052f91906150ff565b60405180910390f35b610552600480360381019061054d919061474e565b612835565b005b34801561056057600080fd5b506105696128e4565b005b34801561057757600080fd5b50610580612a4e565b60405161058d9190614db2565b60405180910390f35b3480156105a257600080fd5b506105ab612a78565b6040516105b89190614e78565b60405180910390f35b3480156105cd57600080fd5b506105d6612b0a565b6040516105e391906150ff565b60405180910390f35b3480156105f857600080fd5b50610613600480360381019061060e9190614516565b612b10565b005b34801561062157600080fd5b5061063c6004803603810190610637919061449b565b612b26565b005b34801561064a57600080fd5b506106656004803603810190610660919061474e565b612b88565b6040516106729190614e78565b60405180910390f35b34801561068757600080fd5b506106a2600480360381019061069d919061474e565b6130dd565b6040516106af91906150ff565b60405180910390f35b3480156106c457600080fd5b506106df60048036038101906106da919061474e565b6130f5565b6040516106ec91906150ff565b60405180910390f35b34801561070157600080fd5b5061071c60048036038101906107179190614410565b61310d565b6040516107299190614e5d565b60405180910390f35b34801561073e57600080fd5b50610759600480360381019061075491906143e7565b6131a1565b005b34801561076757600080fd5b50610782600480360381019061077d919061474e565b613299565b60405161078f9190614e19565b60405180910390f35b60007f80ac58cd000000000000000000000000000000000000000000000000000000007bffffffffffffffffffffffffffffffffffffffffffffffffffffffff1916827bffffffffffffffffffffffffffffffffffffffffffffffffffffffff1916148061086357507f5b5e139f000000000000000000000000000000000000000000000000000000007bffffffffffffffffffffffffffffffffffffffffffffffffffffffff1916827bffffffffffffffffffffffffffffffffffffffffffffffffffffffff1916145b8061087357506108728261333a565b5b9050919050565b600061088660ca6133a4565b905061089233826133b2565b610953604051806060016040528060288152602001615b4d6028913960cd600085815260200190815260200160002060080180546108cf906154ff565b80601f01602080910402602001604051908101604052809291908181526020018280546108fb906154ff565b80156109485780601f1061091d57610100808354040283529160200191610948565b820191906000526020600020905b81548152906001019060200180831161092b57829003601f168201915b5050505050836133d0565b8060ce60003373ffffffffffffffffffffffffffffffffffffffff1673ffffffffffffffffffffffffffffffffffffffff168152602001908152602001600020819055506109a160ca61346f565b60cd600083815260200190815260200160002060090160008154809291906109c890615562565b91905055508160d16000838152602001908152602001600020819055503373ffffffffffffffffffffffffffffffffffffffff167fe1b60c9e07632933648666e5ede8b3b329ddfa2ab98c51b1a5b4b22ab4f1349c8260cd600086815260200190815260200160002060090154604051610a439291906151ef565b60405180910390a25050565b606060658054610a5e906154ff565b80601f0160208091040260200160405190810160405280929190818152602001828054610a8a906154ff565b8015610ad75780601f10610aac57610100808354040283529160200191610ad7565b820191906000526020600020905b815481529060010190602001808311610aba57829003601f168201915b5050505050905090565b6000610aec82613485565b610b2b576040517f08c379a0000000000000000000000000000000000000000000000000000000008152600401610b229061505f565b60405180910390fd5b6069600083815260200190815260200160002060009054906101000a900473ffffffffffffffffffffffffffffffffffffffff169050919050565b6000610b7182611fcc565b90508073ffffffffffffffffffffffffffffffffffffffff168373ffffffffffffffffffffffffffffffffffffffff161415610be2576040517f08c379a0000000000000000000000000000000000000000000000000000000008152600401610bd99061509f565b60405180910390fd5b8073ffffffffffffffffffffffffffffffffffffffff16610c016134f1565b73ffffffffffffffffffffffffffffffffffffffff161480610c305750610c2f81610c2a6134f1565b61310d565b5b610c6f576040517f08c379a0000000000000000000000000000000000000000000000000000000008152600401610c6690614fbf565b60405180910390fd5b610c7983836134f9565b505050565b60cf6020528160005260406000208181548110610c9a57600080fd5b90600052602060002090600c0201600091509150508060000154908060010160009054906101000a900473ffffffffffffffffffffffffffffffffffffffff16908060020160009054906101000a900473ffffffffffffffffffffffffffffffffffffffff1690806003018054610d10906154ff565b80601f0160208091040260200160405190810160405280929190818152602001828054610d3c906154ff565b8015610d895780601f10610d5e57610100808354040283529160200191610d89565b820191906000526020600020905b815481529060010190602001808311610d6c57829003601f168201915b505050505090806004018054610d9e906154ff565b80601f0160208091040260200160405190810160405280929190818152602001828054610dca906154ff565b8015610e175780601f10610dec57610100808354040283529160200191610e17565b820191906000526020600020905b815481529060010190602001808311610dfa57829003601f168201915b505050505090806006018054610e2c906154ff565b80601f0160208091040260200160405190810160405280929190818152602001828054610e58906154ff565b8015610ea55780601f10610e7a57610100808354040283529160200191610ea5565b820191906000526020600020905b815481529060010190602001808311610e8857829003601f168201915b505050505090806007018054610eba906154ff565b80601f0160208091040260200160405190810160405280929190818152602001828054610ee6906154ff565b8015610f335780601f10610f0857610100808354040283529160200191610f33565b820191906000526020600020905b815481529060010190602001808311610f1657829003601f168201915b505050505090806008018054610f48906154ff565b80601f0160208091040260200160405190810160405280929190818152602001828054610f74906154ff565b8015610fc15780601f10610f9657610100808354040283529160200191610fc1565b820191906000526020600020905b815481529060010190602001808311610fa457829003601f168201915b50505050509080600901549080600a018054610fdc906154ff565b80601f0160208091040260200160405190810160405280929190818152602001828054611008906154ff565b80156110555780601f1061102a57610100808354040283529160200191611055565b820191906000526020600020905b81548152906001019060200180831161103857829003601f168201915b50505050509080600b015490508b565b606060cc805480602002602001604051908101604052809291908181526020016000905b828210156115cb57838290600052602060002090600c020160405180610180016040529081600082015481526020016001820160009054906101000a900473ffffffffffffffffffffffffffffffffffffffff1673ffffffffffffffffffffffffffffffffffffffff1673ffffffffffffffffffffffffffffffffffffffff1681526020016002820160009054906101000a900473ffffffffffffffffffffffffffffffffffffffff1673ffffffffffffffffffffffffffffffffffffffff1673ffffffffffffffffffffffffffffffffffffffff168152602001600382018054611173906154ff565b80601f016020809104026020016040519081016040528092919081815260200182805461119f906154ff565b80156111ec5780601f106111c1576101008083540402835291602001916111ec565b820191906000526020600020905b8154815290600101906020018083116111cf57829003601f168201915b50505050508152602001600482018054611205906154ff565b80601f0160208091040260200160405190810160405280929190818152602001828054611231906154ff565b801561127e5780601f106112535761010080835404028352916020019161127e565b820191906000526020600020905b81548152906001019060200180831161126157829003601f168201915b5050505050815260200160058201805480602002602001604051908101604052809291908181526020016000905b828210156113585783829060005260206000200180546112cb906154ff565b80601f01602080910402602001604051908101604052809291908181526020018280546112f7906154ff565b80156113445780601f1061131957610100808354040283529160200191611344565b820191906000526020600020905b81548152906001019060200180831161132757829003601f168201915b5050505050815260200190600101906112ac565b505050508152602001600682018054611370906154ff565b80601f016020809104026020016040519081016040528092919081815260200182805461139c906154ff565b80156113e95780601f106113be576101008083540402835291602001916113e9565b820191906000526020600020905b8154815290600101906020018083116113cc57829003601f168201915b50505050508152602001600782018054611402906154ff565b80601f016020809104026020016040519081016040528092919081815260200182805461142e906154ff565b801561147b5780601f106114505761010080835404028352916020019161147b565b820191906000526020600020905b81548152906001019060200180831161145e57829003601f168201915b50505050508152602001600882018054611494906154ff565b80601f01602080910402602001604051908101604052809291908181526020018280546114c0906154ff565b801561150d5780601f106114e25761010080835404028352916020019161150d565b820191906000526020600020905b8154815290600101906020018083116114f057829003601f168201915b5050505050815260200160098201548152602001600a82018054611530906154ff565b80601f016020809104026020016040519081016040528092919081815260200182805461155c906154ff565b80156115a95780601f1061157e576101008083540402835291602001916115a9565b820191906000526020600020905b81548152906001019060200180831161158c57829003601f168201915b50505050508152602001600b8201548152505081526020019060010190611089565b50505050905090565b6115e56115df6134f1565b826135b2565b611624576040517f08c379a000000000000000000000000000000000000000000000000000000000815260040161161b906150bf565b60405180910390fd5b61162f838383613690565b505050565b60cd6020528060005260406000206000915090508060000154908060010160009054906101000a900473ffffffffffffffffffffffffffffffffffffffff16908060020160009054906101000a900473ffffffffffffffffffffffffffffffffffffffff16908060030180546116a9906154ff565b80601f01602080910402602001604051908101604052809291908181526020018280546116d5906154ff565b80156117225780601f106116f757610100808354040283529160200191611722565b820191906000526020600020905b81548152906001019060200180831161170557829003601f168201915b505050505090806004018054611737906154ff565b80601f0160208091040260200160405190810160405280929190818152602001828054611763906154ff565b80156117b05780601f10611785576101008083540402835291602001916117b0565b820191906000526020600020905b81548152906001019060200180831161179357829003601f168201915b5050505050908060060180546117c5906154ff565b80601f01602080910402602001604051908101604052809291908181526020018280546117f1906154ff565b801561183e5780601f106118135761010080835404028352916020019161183e565b820191906000526020600020905b81548152906001019060200180831161182157829003601f168201915b505050505090806007018054611853906154ff565b80601f016020809104026020016040519081016040528092919081815260200182805461187f906154ff565b80156118cc5780601f106118a1576101008083540402835291602001916118cc565b820191906000526020600020905b8154815290600101906020018083116118af57829003601f168201915b5050505050908060080180546118e1906154ff565b80601f016020809104026020016040519081016040528092919081815260200182805461190d906154ff565b801561195a5780601f1061192f5761010080835404028352916020019161195a565b820191906000526020600020905b81548152906001019060200180831161193d57829003601f168201915b50505050509080600901549080600a018054611975906154ff565b80601f01602080910402602001604051908101604052809291908181526020018280546119a1906154ff565b80156119ee5780601f106119c3576101008083540402835291602001916119ee565b820191906000526020600020905b8154815290600101906020018083116119d157829003601f168201915b50505050509080600b015490508b565b611a1983838360405180602001604052806000815250612b26565b505050565b606060cf60008373ffffffffffffffffffffffffffffffffffffffff1673ffffffffffffffffffffffffffffffffffffffff168152602001908152602001600020805480602002602001604051908101604052809291908181526020016000905b82821015611fc157838290600052602060002090600c020160405180610180016040529081600082015481526020016001820160009054906101000a900473ffffffffffffffffffffffffffffffffffffffff1673ffffffffffffffffffffffffffffffffffffffff1673ffffffffffffffffffffffffffffffffffffffff1681526020016002820160009054906101000a900473ffffffffffffffffffffffffffffffffffffffff1673ffffffffffffffffffffffffffffffffffffffff1673ffffffffffffffffffffffffffffffffffffffff168152602001600382018054611b69906154ff565b80601f0160208091040260200160405190810160405280929190818152602001828054611b95906154ff565b8015611be25780601f10611bb757610100808354040283529160200191611be2565b820191906000526020600020905b815481529060010190602001808311611bc557829003601f168201915b50505050508152602001600482018054611bfb906154ff565b80601f0160208091040260200160405190810160405280929190818152602001828054611c27906154ff565b8015611c745780601f10611c4957610100808354040283529160200191611c74565b820191906000526020600020905b815481529060010190602001808311611c5757829003601f168201915b5050505050815260200160058201805480602002602001604051908101604052809291908181526020016000905b82821015611d4e578382906000526020600020018054611cc1906154ff565b80601f0160208091040260200160405190810160405280929190818152602001828054611ced906154ff565b8015611d3a5780601f10611d0f57610100808354040283529160200191611d3a565b820191906000526020600020905b815481529060010190602001808311611d1d57829003601f168201915b505050505081526020019060010190611ca2565b505050508152602001600682018054611d66906154ff565b80601f0160208091040260200160405190810160405280929190818152602001828054611d92906154ff565b8015611ddf5780601f10611db457610100808354040283529160200191611ddf565b820191906000526020600020905b815481529060010190602001808311611dc257829003601f168201915b50505050508152602001600782018054611df8906154ff565b80601f0160208091040260200160405190810160405280929190818152602001828054611e24906154ff565b8015611e715780601f10611e4657610100808354040283529160200191611e71565b820191906000526020600020905b815481529060010190602001808311611e5457829003601f168201915b50505050508152602001600882018054611e8a906154ff565b80601f0160208091040260200160405190810160405280929190818152602001828054611eb6906154ff565b8015611f035780601f10611ed857610100808354040283529160200191611f03565b820191906000526020600020905b815481529060010190602001808311611ee657829003601f168201915b5050505050815260200160098201548152602001600a82018054611f26906154ff565b80601f0160208091040260200160405190810160405280929190818152602001828054611f52906154ff565b8015611f9f5780601f10611f7457610100808354040283529160200191611f9f565b820191906000526020600020905b815481529060010190602001808311611f8257829003601f168201915b50505050508152602001600b8201548152505081526020019060010190611a7f565b505050509050919050565b6000806067600084815260200190815260200160002060009054906101000a900473ffffffffffffffffffffffffffffffffffffffff169050600073ffffffffffffffffffffffffffffffffffffffff168173ffffffffffffffffffffffffffffffffffffffff161415612075576040517f08c379a000000000000000000000000000000000000000000000000000000000815260040161206c90614fff565b60405180910390fd5b80915050919050565b600060405180610180016040528060cb5481526020018b73ffffffffffffffffffffffffffffffffffffffff1681526020018673ffffffffffffffffffffffffffffffffffffffff1681526020018a81526020018981526020018881526020018781526020018581526020018481526020016000815260200183815260200142815250905060cc8190806001815401808255809150506001900390600052602060002090600c02016000909190919091506000820151816000015560208201518160010160006101000a81548173ffffffffffffffffffffffffffffffffffffffff021916908373ffffffffffffffffffffffffffffffffffffffff16021790555060408201518160020160006101000a81548173ffffffffffffffffffffffffffffffffffffffff021916908373ffffffffffffffffffffffffffffffffffffffff16021790555060608201518160030190805190602001906121e3929190614097565b506080820151816004019080519060200190612200929190614097565b5060a082015181600501908051906020019061221d92919061411d565b5060c082015181600601908051906020019061223a929190614097565b5060e0820151816007019080519060200190612257929190614097565b50610100820151816008019080519060200190612275929190614097565b50610120820151816009015561014082015181600a01908051906020019061229e929190614097565b5061016082015181600b015550508060cd600060cb5481526020019081526020016000206000820151816000015560208201518160010160006101000a81548173ffffffffffffffffffffffffffffffffffffffff021916908373ffffffffffffffffffffffffffffffffffffffff16021790555060408201518160020160006101000a81548173ffffffffffffffffffffffffffffffffffffffff021916908373ffffffffffffffffffffffffffffffffffffffff1602179055506060820151816003019080519060200190612376929190614097565b506080820151816004019080519060200190612393929190614097565b5060a08201518160050190805190602001906123b092919061411d565b5060c08201518160060190805190602001906123cd929190614097565b5060e08201518160070190805190602001906123ea929190614097565b50610100820151816008019080519060200190612408929190614097565b50610120820151816009015561014082015181600a019080519060200190612431929190614097565b5061016082015181600b015590505060cf60008b73ffffffffffffffffffffffffffffffffffffffff1673ffffffffffffffffffffffffffffffffffffffff1681526020019081526020016000208190806001815401808255809150506001900390600052602060002090600c02016000909190919091506000820151816000015560208201518160010160006101000a81548173ffffffffffffffffffffffffffffffffffffffff021916908373ffffffffffffffffffffffffffffffffffffffff16021790555060408201518160020160006101000a81548173ffffffffffffffffffffffffffffffffffffffff021916908373ffffffffffffffffffffffffffffffffffffffff160217905550606082015181600301908051906020019061255d929190614097565b50608082015181600401908051906020019061257a929190614097565b5060a082015181600501908051906020019061259792919061411d565b5060c08201518160060190805190602001906125b4929190614097565b5060e08201518160070190805190602001906125d1929190614097565b506101008201518160080190805190602001906125ef929190614097565b50610120820151816009015561014082015181600a019080519060200190612618929190614097565b5061016082015181600b0155505060cb547fa1cd98301e2a758f45871102b368fdcf3f56e13f8e8fd2886523ac87ca066ce0336040516126589190614db2565b60405180910390a261266b60cb5461087a565b60cb600081548092919061267e90615562565b919050555050505050505050505050565b60008073ffffffffffffffffffffffffffffffffffffffff168273ffffffffffffffffffffffffffffffffffffffff161415612700576040517f08c379a00000000000000000000000000000000000000000000000000000000081526004016126f790614fdf565b60405180910390fd5b606860008373ffffffffffffffffffffffffffffffffffffffff1673ffffffffffffffffffffffffffffffffffffffff168152602001908152602001600020549050919050565b61274f6134f1565b73ffffffffffffffffffffffffffffffffffffffff1661276d612a4e565b73ffffffffffffffffffffffffffffffffffffffff16146127c3576040517f08c379a00000000000000000000000000000000000000000000000000000000081526004016127ba9061507f565b60405180910390fd5b6127cd60006138f7565b565b60d260205281600052604060002081815481106127eb57600080fd5b906000526020600020016000915091509054906101000a900473ffffffffffffffffffffffffffffffffffffffff1681565b60ce6020528060005260406000206000915090505481565b60d26000828152602001908152602001600020339080600181540180825580915050600190039060005260206000200160009091909190916101000a81548173ffffffffffffffffffffffffffffffffffffffff021916908373ffffffffffffffffffffffffffffffffffffffff160217905550807f415c5c8a626ad1819c82e5a7dc9b2dc5a12dd6cbd6c063f565d47aaa852d7616336040516128d99190614db2565b60405180910390a250565b600060019054906101000a900460ff1661290c5760008054906101000a900460ff1615612915565b6129146139bd565b5b612954576040517f08c379a000000000000000000000000000000000000000000000000000000000815260040161294b9061501f565b60405180910390fd5b60008060019054906101000a900460ff1615905080156129a4576001600060016101000a81548160ff02191690831515021790555060016000806101000a81548160ff0219169083151502179055505b6129ae60ca61346f565b600160cb81905550612a2a6040518060400160405280600f81526020017f50686c6f7465204375726174696f6e00000000000000000000000000000000008152506040518060400160405280600681526020017f50484c4f544500000000000000000000000000000000000000000000000000008152506139ce565b8015612a4b5760008060016101000a81548160ff0219169083151502179055505b50565b6000609760009054906101000a900473ffffffffffffffffffffffffffffffffffffffff16905090565b606060668054612a87906154ff565b80601f0160208091040260200160405190810160405280929190818152602001828054612ab3906154ff565b8015612b005780601f10612ad557610100808354040283529160200191612b00565b820191906000526020600020905b815481529060010190602001808311612ae357829003601f168201915b5050505050905090565b60c95481565b612b22612b1b6134f1565b8383613a2b565b5050565b612b37612b316134f1565b836135b2565b612b76576040517f08c379a0000000000000000000000000000000000000000000000000000000008152600401612b6d906150bf565b60405180910390fd5b612b8284848484613b98565b50505050565b6060600060cd600060d1600086815260200190815260200160002054815260200190815260200160002060405180610180016040529081600082015481526020016001820160009054906101000a900473ffffffffffffffffffffffffffffffffffffffff1673ffffffffffffffffffffffffffffffffffffffff1673ffffffffffffffffffffffffffffffffffffffff1681526020016002820160009054906101000a900473ffffffffffffffffffffffffffffffffffffffff1673ffffffffffffffffffffffffffffffffffffffff1673ffffffffffffffffffffffffffffffffffffffff168152602001600382018054612c84906154ff565b80601f0160208091040260200160405190810160405280929190818152602001828054612cb0906154ff565b8015612cfd5780601f10612cd257610100808354040283529160200191612cfd565b820191906000526020600020905b815481529060010190602001808311612ce057829003601f168201915b50505050508152602001600482018054612d16906154ff565b80601f0160208091040260200160405190810160405280929190818152602001828054612d42906154ff565b8015612d8f5780601f10612d6457610100808354040283529160200191612d8f565b820191906000526020600020905b815481529060010190602001808311612d7257829003601f168201915b5050505050815260200160058201805480602002602001604051908101604052809291908181526020016000905b82821015612e69578382906000526020600020018054612ddc906154ff565b80601f0160208091040260200160405190810160405280929190818152602001828054612e08906154ff565b8015612e555780601f10612e2a57610100808354040283529160200191612e55565b820191906000526020600020905b815481529060010190602001808311612e3857829003601f168201915b505050505081526020019060010190612dbd565b505050508152602001600682018054612e81906154ff565b80601f0160208091040260200160405190810160405280929190818152602001828054612ead906154ff565b8015612efa5780601f10612ecf57610100808354040283529160200191612efa565b820191906000526020600020905b815481529060010190602001808311612edd57829003601f168201915b50505050508152602001600782018054612f13906154ff565b80601f0160208091040260200160405190810160405280929190818152602001828054612f3f906154ff565b8015612f8c5780601f10612f6157610100808354040283529160200191612f8c565b820191906000526020600020905b815481529060010190602001808311612f6f57829003601f168201915b50505050508152602001600882018054612fa5906154ff565b80601f0160208091040260200160405190810160405280929190818152602001828054612fd1906154ff565b801561301e5780601f10612ff35761010080835404028352916020019161301e565b820191906000526020600020905b81548152906001019060200180831161300157829003601f168201915b5050505050815260200160098201548152602001600a82018054613041906154ff565b80601f016020809104026020016040519081016040528092919081815260200182805461306d906154ff565b80156130ba5780601f1061308f576101008083540402835291602001916130ba565b820191906000526020600020905b81548152906001019060200180831161309d57829003601f168201915b50505050508152602001600b820154815250509050806101400151915050919050565b60d06020528060005260406000206000915090505481565b60d16020528060005260406000206000915090505481565b6000606a60008473ffffffffffffffffffffffffffffffffffffffff1673ffffffffffffffffffffffffffffffffffffffff16815260200190815260200160002060008373ffffffffffffffffffffffffffffffffffffffff1673ffffffffffffffffffffffffffffffffffffffff16815260200190815260200160002060009054906101000a900460ff16905092915050565b6131a96134f1565b73ffffffffffffffffffffffffffffffffffffffff166131c7612a4e565b73ffffffffffffffffffffffffffffffffffffffff161461321d576040517f08c379a00000000000000000000000000000000000000000000000000000000081526004016132149061507f565b60405180910390fd5b600073ffffffffffffffffffffffffffffffffffffffff168173ffffffffffffffffffffffffffffffffffffffff16141561328d576040517f08c379a000000000000000000000000000000000000000000000000000000000815260040161328490614eff565b60405180910390fd5b613296816138f7565b50565b606060d2600083815260200190815260200160002080548060200260200160405190810160405280929190818152602001828054801561332e57602002820191906000526020600020905b8160009054906101000a900473ffffffffffffffffffffffffffffffffffffffff1673ffffffffffffffffffffffffffffffffffffffff16815260200190600101908083116132e4575b50505050509050919050565b60007f01ffc9a7000000000000000000000000000000000000000000000000000000007bffffffffffffffffffffffffffffffffffffffffffffffffffffffff1916827bffffffffffffffffffffffffffffffffffffffffffffffffffffffff1916149050919050565b600081600001549050919050565b6133cc828260405180602001604052806000815250613bf4565b5050565b61346a8383836040516024016133e893929190614e9a565b6040516020818303038152906040527ff362ca59000000000000000000000000000000000000000000000000000000007bffffffffffffffffffffffffffffffffffffffffffffffffffffffff19166020820180517bffffffffffffffffffffffffffffffffffffffffffffffffffffffff8381831617835250505050613c4f565b505050565b6001816000016000828254019250508190555050565b60008073ffffffffffffffffffffffffffffffffffffffff166067600084815260200190815260200160002060009054906101000a900473ffffffffffffffffffffffffffffffffffffffff1673ffffffffffffffffffffffffffffffffffffffff1614159050919050565b600033905090565b816069600083815260200190815260200160002060006101000a81548173ffffffffffffffffffffffffffffffffffffffff021916908373ffffffffffffffffffffffffffffffffffffffff160217905550808273ffffffffffffffffffffffffffffffffffffffff1661356c83611fcc565b73ffffffffffffffffffffffffffffffffffffffff167f8c5be1e5ebec7d5bd14f71427d1e84f3dd0314c0f7b2291e5b200ac8c7c3b92560405160405180910390a45050565b60006135bd82613485565b6135fc576040517f08c379a00000000000000000000000000000000000000000000000000000000081526004016135f390614f9f565b60405180910390fd5b600061360783611fcc565b90508073ffffffffffffffffffffffffffffffffffffffff168473ffffffffffffffffffffffffffffffffffffffff16148061367657508373ffffffffffffffffffffffffffffffffffffffff1661365e84610ae1565b73ffffffffffffffffffffffffffffffffffffffff16145b806136875750613686818561310d565b5b91505092915050565b8273ffffffffffffffffffffffffffffffffffffffff166136b082611fcc565b73ffffffffffffffffffffffffffffffffffffffff1614613706576040517f08c379a00000000000000000000000000000000000000000000000000000000081526004016136fd90614f1f565b60405180910390fd5b600073ffffffffffffffffffffffffffffffffffffffff168273ffffffffffffffffffffffffffffffffffffffff161415613776576040517f08c379a000000000000000000000000000000000000000000000000000000000815260040161376d90614f5f565b60405180910390fd5b613781838383613c78565b61378c6000826134f9565b6001606860008573ffffffffffffffffffffffffffffffffffffffff1673ffffffffffffffffffffffffffffffffffffffff16815260200190815260200160002060008282546137dc9190615415565b925050819055506001606860008473ffffffffffffffffffffffffffffffffffffffff1673ffffffffffffffffffffffffffffffffffffffff168152602001908152602001600020600082825461383391906153bf565b92505081905550816067600083815260200190815260200160002060006101000a81548173ffffffffffffffffffffffffffffffffffffffff021916908373ffffffffffffffffffffffffffffffffffffffff160217905550808273ffffffffffffffffffffffffffffffffffffffff168473ffffffffffffffffffffffffffffffffffffffff167fddf252ad1be2c89b69c2b068fc378daa952ba7f163c4a11628f55a4df523b3ef60405160405180910390a46138f2838383613c7d565b505050565b6000609760009054906101000a900473ffffffffffffffffffffffffffffffffffffffff16905081609760006101000a81548173ffffffffffffffffffffffffffffffffffffffff021916908373ffffffffffffffffffffffffffffffffffffffff1602179055508173ffffffffffffffffffffffffffffffffffffffff168173ffffffffffffffffffffffffffffffffffffffff167f8be0079c531659141344cd1fd0a4f28419497f9722a3daafe3b4186f6b6457e060405160405180910390a35050565b60006139c830613c82565b15905090565b600060019054906101000a900460ff16613a1d576040517f08c379a0000000000000000000000000000000000000000000000000000000008152600401613a14906150df565b60405180910390fd5b613a278282613ca5565b5050565b8173ffffffffffffffffffffffffffffffffffffffff168373ffffffffffffffffffffffffffffffffffffffff161415613a9a576040517f08c379a0000000000000000000000000000000000000000000000000000000008152600401613a9190614f7f565b60405180910390fd5b80606a60008573ffffffffffffffffffffffffffffffffffffffff1673ffffffffffffffffffffffffffffffffffffffff16815260200190815260200160002060008473ffffffffffffffffffffffffffffffffffffffff1673ffffffffffffffffffffffffffffffffffffffff16815260200190815260200160002060006101000a81548160ff0219169083151502179055508173ffffffffffffffffffffffffffffffffffffffff168373ffffffffffffffffffffffffffffffffffffffff167f17307eab39ab6107e8899845ad3d59bd9653f200f220920489ca2b5937696c3183604051613b8b9190614e5d565b60405180910390a3505050565b613ba3848484613690565b613baf84848484613d26565b613bee576040517f08c379a0000000000000000000000000000000000000000000000000000000008152600401613be590614edf565b60405180910390fd5b50505050565b613bfe8383613ebd565b613c0b6000848484613d26565b613c4a576040517f08c379a0000000000000000000000000000000000000000000000000000000008152600401613c4190614edf565b60405180910390fd5b505050565b60008151905060006a636f6e736f6c652e6c6f679050602083016000808483855afa5050505050565b505050565b505050565b6000808273ffffffffffffffffffffffffffffffffffffffff163b119050919050565b600060019054906101000a900460ff16613cf4576040517f08c379a0000000000000000000000000000000000000000000000000000000008152600401613ceb906150df565b60405180910390fd5b8160659080519060200190613d0a929190614097565b508060669080519060200190613d21929190614097565b505050565b6000613d478473ffffffffffffffffffffffffffffffffffffffff16613c82565b15613eb0578373ffffffffffffffffffffffffffffffffffffffff1663150b7a02613d706134f1565b8786866040518563ffffffff1660e01b8152600401613d929493929190614dcd565b602060405180830381600087803b158015613dac57600080fd5b505af1925050508015613ddd57506040513d601f19601f82011682018060405250810190613dda9190614725565b60015b613e60573d8060008114613e0d576040519150601f19603f3d011682016040523d82523d6000602084013e613e12565b606091505b50600081511415613e58576040517f08c379a0000000000000000000000000000000000000000000000000000000008152600401613e4f90614edf565b60405180910390fd5b805181602001fd5b63150b7a0260e01b7bffffffffffffffffffffffffffffffffffffffffffffffffffffffff1916817bffffffffffffffffffffffffffffffffffffffffffffffffffffffff191614915050613eb5565b600190505b949350505050565b600073ffffffffffffffffffffffffffffffffffffffff168273ffffffffffffffffffffffffffffffffffffffff161415613f2d576040517f08c379a0000000000000000000000000000000000000000000000000000000008152600401613f249061503f565b60405180910390fd5b613f3681613485565b15613f76576040517f08c379a0000000000000000000000000000000000000000000000000000000008152600401613f6d90614f3f565b60405180910390fd5b613f8260008383613c78565b6001606860008473ffffffffffffffffffffffffffffffffffffffff1673ffffffffffffffffffffffffffffffffffffffff1681526020019081526020016000206000828254613fd291906153bf565b92505081905550816067600083815260200190815260200160002060006101000a81548173ffffffffffffffffffffffffffffffffffffffff021916908373ffffffffffffffffffffffffffffffffffffffff160217905550808273ffffffffffffffffffffffffffffffffffffffff16600073ffffffffffffffffffffffffffffffffffffffff167fddf252ad1be2c89b69c2b068fc378daa952ba7f163c4a11628f55a4df523b3ef60405160405180910390a461409360008383613c7d565b5050565b8280546140a3906154ff565b90600052602060002090601f0160209004810192826140c5576000855561410c565b82601f106140de57805160ff191683800117855561410c565b8280016001018555821561410c579182015b8281111561410b5782518255916020019190600101906140f0565b5b509050614119919061417d565b5090565b82805482825590600052602060002090810192821561416c579160200282015b8281111561416b57825182908051906020019061415b929190614097565b509160200191906001019061413d565b5b509050614179919061419a565b5090565b5b8082111561419657600081600090555060010161417e565b5090565b5b808211156141ba57600081816141b191906141be565b5060010161419b565b5090565b5080546141ca906154ff565b6000825580601f106141dc57506141fb565b601f0160209004906000526020600020908101906141fa919061417d565b5b50565b600061421161420c8461523d565b615218565b9050808382526020820190508285602086028201111561423057600080fd5b60005b8581101561427a57813567ffffffffffffffff81111561425257600080fd5b80860161425f89826143a8565b85526020850194506020840193505050600181019050614233565b5050509392505050565b600061429761429284615269565b615218565b9050828152602081018484840111156142af57600080fd5b6142ba8482856154bd565b509392505050565b60006142d56142d08461529a565b615218565b9050828152602081018484840111156142ed57600080fd5b6142f88482856154bd565b509392505050565b60008135905061430f81615af0565b92915050565b600082601f83011261432657600080fd5b81356143368482602086016141fe565b91505092915050565b60008135905061434e81615b07565b92915050565b60008135905061436381615b1e565b92915050565b60008151905061437881615b1e565b92915050565b600082601f83011261438f57600080fd5b813561439f848260208601614284565b91505092915050565b600082601f8301126143b957600080fd5b81356143c98482602086016142c2565b91505092915050565b6000813590506143e181615b35565b92915050565b6000602082840312156143f957600080fd5b600061440784828501614300565b91505092915050565b6000806040838503121561442357600080fd5b600061443185828601614300565b925050602061444285828601614300565b9150509250929050565b60008060006060848603121561446157600080fd5b600061446f86828701614300565b935050602061448086828701614300565b9250506040614491868287016143d2565b9150509250925092565b600080600080608085870312156144b157600080fd5b60006144bf87828801614300565b94505060206144d087828801614300565b93505060406144e1878288016143d2565b925050606085013567ffffffffffffffff8111156144fe57600080fd5b61450a8782880161437e565b91505092959194509250565b6000806040838503121561452957600080fd5b600061453785828601614300565b92505060206145488582860161433f565b9150509250929050565b60008060008060008060008060006101208a8c03121561457157600080fd5b600061457f8c828d01614300565b99505060208a013567ffffffffffffffff81111561459c57600080fd5b6145a88c828d016143a8565b98505060408a013567ffffffffffffffff8111156145c557600080fd5b6145d18c828d016143a8565b97505060608a013567ffffffffffffffff8111156145ee57600080fd5b6145fa8c828d01614315565b96505060808a013567ffffffffffffffff81111561461757600080fd5b6146238c828d016143a8565b95505060a06146348c828d01614300565b94505060c08a013567ffffffffffffffff81111561465157600080fd5b61465d8c828d016143a8565b93505060e08a013567ffffffffffffffff81111561467a57600080fd5b6146868c828d016143a8565b9250506101008a013567ffffffffffffffff8111156146a457600080fd5b6146b08c828d016143a8565b9150509295985092959850929598565b600080604083850312156146d357600080fd5b60006146e185828601614300565b92505060206146f2858286016143d2565b9150509250929050565b60006020828403121561470e57600080fd5b600061471c84828501614354565b91505092915050565b60006020828403121561473757600080fd5b600061474584828501614369565b91505092915050565b60006020828403121561476057600080fd5b600061476e848285016143d2565b91505092915050565b6000806040838503121561478a57600080fd5b6000614798858286016143d2565b92505060206147a9858286016143d2565b9150509250929050565b60006147bf83836147f3565b60208301905092915050565b60006147d783836149a1565b905092915050565b60006147eb8383614c66565b905092915050565b6147fc81615449565b82525050565b61480b81615449565b82525050565b600061481c826152fb565b6148268185615359565b9350614831836152cb565b8060005b8381101561486257815161484988826147b3565b975061485483615332565b925050600181019050614835565b5085935050505092915050565b600061487a82615306565b614884818561536a565b935083602082028501614896856152db565b8060005b858110156148d257848403895281516148b385826147cb565b94506148be8361533f565b925060208a0199505060018101905061489a565b50829750879550505050505092915050565b60006148ef82615311565b6148f9818561537b565b93508360208202850161490b856152eb565b8060005b85811015614947578484038952815161492885826147df565b94506149338361534c565b925060208a0199505060018101905061490f565b50829750879550505050505092915050565b6149628161545b565b82525050565b60006149738261531c565b61497d818561538c565b935061498d8185602086016154cc565b61499681615638565b840191505092915050565b60006149ac82615327565b6149b6818561539d565b93506149c68185602086016154cc565b6149cf81615638565b840191505092915050565b60006149e582615327565b6149ef81856153ae565b93506149ff8185602086016154cc565b614a0881615638565b840191505092915050565b6000614a206032836153ae565b9150614a2b82615649565b604082019050919050565b6000614a436026836153ae565b9150614a4e82615698565b604082019050919050565b6000614a666025836153ae565b9150614a71826156e7565b604082019050919050565b6000614a89601c836153ae565b9150614a9482615736565b602082019050919050565b6000614aac6024836153ae565b9150614ab78261575f565b604082019050919050565b6000614acf6019836153ae565b9150614ada826157ae565b602082019050919050565b6000614af2602c836153ae565b9150614afd826157d7565b604082019050919050565b6000614b156038836153ae565b9150614b2082615826565b604082019050919050565b6000614b38602a836153ae565b9150614b4382615875565b604082019050919050565b6000614b5b6029836153ae565b9150614b66826158c4565b604082019050919050565b6000614b7e602e836153ae565b9150614b8982615913565b604082019050919050565b6000614ba16020836153ae565b9150614bac82615962565b602082019050919050565b6000614bc4602c836153ae565b9150614bcf8261598b565b604082019050919050565b6000614be76020836153ae565b9150614bf2826159da565b602082019050919050565b6000614c0a6021836153ae565b9150614c1582615a03565b604082019050919050565b6000614c2d6031836153ae565b9150614c3882615a52565b604082019050919050565b6000614c50602b836153ae565b9150614c5b82615aa1565b604082019050919050565b600061018083016000830151614c7f6000860182614d94565b506020830151614c9260208601826147f3565b506040830151614ca560408601826147f3565b5060608301518482036060860152614cbd82826149a1565b91505060808301518482036080860152614cd782826149a1565b91505060a083015184820360a0860152614cf1828261486f565b91505060c083015184820360c0860152614d0b82826149a1565b91505060e083015184820360e0860152614d2582826149a1565b915050610100830151848203610100860152614d4182826149a1565b915050610120830151614d58610120860182614d94565b50610140830151848203610140860152614d7282826149a1565b915050610160830151614d89610160860182614d94565b508091505092915050565b614d9d816154b3565b82525050565b614dac816154b3565b82525050565b6000602082019050614dc76000830184614802565b92915050565b6000608082019050614de26000830187614802565b614def6020830186614802565b614dfc6040830185614da3565b8181036060830152614e0e8184614968565b905095945050505050565b60006020820190508181036000830152614e338184614811565b905092915050565b60006020820190508181036000830152614e5581846148e4565b905092915050565b6000602082019050614e726000830184614959565b92915050565b60006020820190508181036000830152614e9281846149da565b905092915050565b60006060820190508181036000830152614eb481866149da565b90508181036020830152614ec881856149da565b9050614ed76040830184614da3565b949350505050565b60006020820190508181036000830152614ef881614a13565b9050919050565b60006020820190508181036000830152614f1881614a36565b9050919050565b60006020820190508181036000830152614f3881614a59565b9050919050565b60006020820190508181036000830152614f5881614a7c565b9050919050565b60006020820190508181036000830152614f7881614a9f565b9050919050565b60006020820190508181036000830152614f9881614ac2565b9050919050565b60006020820190508181036000830152614fb881614ae5565b9050919050565b60006020820190508181036000830152614fd881614b08565b9050919050565b60006020820190508181036000830152614ff881614b2b565b9050919050565b6000602082019050818103600083015261501881614b4e565b9050919050565b6000602082019050818103600083015261503881614b71565b9050919050565b6000602082019050818103600083015261505881614b94565b9050919050565b6000602082019050818103600083015261507881614bb7565b9050919050565b6000602082019050818103600083015261509881614bda565b9050919050565b600060208201905081810360008301526150b881614bfd565b9050919050565b600060208201905081810360008301526150d881614c20565b9050919050565b600060208201905081810360008301526150f881614c43565b9050919050565b60006020820190506151146000830184614da3565b92915050565b600061016082019050615130600083018e614da3565b61513d602083018d614802565b61514a604083018c614802565b818103606083015261515c818b6149da565b90508181036080830152615170818a6149da565b905081810360a083015261518481896149da565b905081810360c083015261519881886149da565b905081810360e08301526151ac81876149da565b90506151bc610100830186614da3565b8181036101208301526151cf81856149da565b90506151df610140830184614da3565b9c9b505050505050505050505050565b60006040820190506152046000830185614da3565b6152116020830184614da3565b9392505050565b6000615222615233565b905061522e8282615531565b919050565b6000604051905090565b600067ffffffffffffffff82111561525857615257615609565b5b602082029050602081019050919050565b600067ffffffffffffffff82111561528457615283615609565b5b61528d82615638565b9050602081019050919050565b600067ffffffffffffffff8211156152b5576152b4615609565b5b6152be82615638565b9050602081019050919050565b6000819050602082019050919050565b6000819050602082019050919050565b6000819050602082019050919050565b600081519050919050565b600081519050919050565b600081519050919050565b600081519050919050565b600081519050919050565b6000602082019050919050565b6000602082019050919050565b6000602082019050919050565b600082825260208201905092915050565b600082825260208201905092915050565b600082825260208201905092915050565b600082825260208201905092915050565b600082825260208201905092915050565b600082825260208201905092915050565b60006153ca826154b3565b91506153d5836154b3565b9250827fffffffffffffffffffffffffffffffffffffffffffffffffffffffffffffffff0382111561540a576154096155ab565b5b828201905092915050565b6000615420826154b3565b915061542b836154b3565b92508282101561543e5761543d6155ab565b5b828203905092915050565b600061545482615493565b9050919050565b60008115159050919050565b60007fffffffff0000000000000000000000000000000000000000000000000000000082169050919050565b600073ffffffffffffffffffffffffffffffffffffffff82169050919050565b6000819050919050565b82818337600083830152505050565b60005b838110156154ea5780820151818401526020810190506154cf565b838111156154f9576000848401525b50505050565b6000600282049050600182168061551757607f821691505b6020821081141561552b5761552a6155da565b5b50919050565b61553a82615638565b810181811067ffffffffffffffff8211171561555957615558615609565b5b80604052505050565b600061556d826154b3565b91507fffffffffffffffffffffffffffffffffffffffffffffffffffffffffffffffff8214156155a05761559f6155ab565b5b600182019050919050565b7f4e487b7100000000000000000000000000000000000000000000000000000000600052601160045260246000fd5b7f4e487b7100000000000000000000000000000000000000000000000000000000600052602260045260246000fd5b7f4e487b7100000000000000000000000000000000000000000000000000000000600052604160045260246000fd5b6000601f19601f8301169050919050565b7f4552433732313a207472616e7366657220746f206e6f6e20455243373231526560008201527f63656976657220696d706c656d656e7465720000000000000000000000000000602082015250565b7f4f776e61626c653a206e6577206f776e657220697320746865207a65726f206160008201527f6464726573730000000000000000000000000000000000000000000000000000602082015250565b7f4552433732313a207472616e736665722066726f6d20696e636f72726563742060008201527f6f776e6572000000000000000000000000000000000000000000000000000000602082015250565b7f4552433732313a20746f6b656e20616c7265616479206d696e74656400000000600082015250565b7f4552433732313a207472616e7366657220746f20746865207a65726f2061646460008201527f7265737300000000000000000000000000000000000000000000000000000000602082015250565b7f4552433732313a20617070726f766520746f2063616c6c657200000000000000600082015250565b7f4552433732313a206f70657261746f7220717565727920666f72206e6f6e657860008201527f697374656e7420746f6b656e0000000000000000000000000000000000000000602082015250565b7f4552433732313a20617070726f76652063616c6c6572206973206e6f74206f7760008201527f6e6572206e6f7220617070726f76656420666f7220616c6c0000000000000000602082015250565b7f4552433732313a2062616c616e636520717565727920666f7220746865207a6560008201527f726f206164647265737300000000000000000000000000000000000000000000602082015250565b7f4552433732313a206f776e657220717565727920666f72206e6f6e657869737460008201527f656e7420746f6b656e0000000000000000000000000000000000000000000000602082015250565b7f496e697469616c697a61626c653a20636f6e747261637420697320616c72656160008201527f647920696e697469616c697a6564000000000000000000000000000000000000602082015250565b7f4552433732313a206d696e7420746f20746865207a65726f2061646472657373600082015250565b7f4552433732313a20617070726f76656420717565727920666f72206e6f6e657860008201527f697374656e7420746f6b656e0000000000000000000000000000000000000000602082015250565b7f4f776e61626c653a2063616c6c6572206973206e6f7420746865206f776e6572600082015250565b7f4552433732313a20617070726f76616c20746f2063757272656e74206f776e6560008201527f7200000000000000000000000000000000000000000000000000000000000000602082015250565b7f4552433732313a207472616e736665722063616c6c6572206973206e6f74206f60008201527f776e6572206e6f7220617070726f766564000000000000000000000000000000602082015250565b7f496e697469616c697a61626c653a20636f6e7472616374206973206e6f74206960008201527f6e697469616c697a696e67000000000000000000000000000000000000000000602082015250565b615af981615449565b8114615b0457600080fd5b50565b615b108161545b565b8114615b1b57600080fd5b50565b615b2781615467565b8114615b3257600080fd5b50565b615b3e816154b3565b8114615b4957600080fd5b5056fe2a2a2a2a2a2a4d696e746564202573204e465420772f20746f6b656e4964202573202a2a2a2a2a2aa2646970667358221220bc32a3ab2fafbdd243954c265b5592cb9fbeedfb1bb0a4e215494cfe28afa68864736f6c63430008040033",
  "linkReferences": {},
  "deployedLinkReferences": {}
}