{
  "_format": "hh-sol-artifact-1",
  "contractName": "Phlote",
  "sourceName": "contracts/Phlote.sol",
  "abi": [
    {
      "anonymous": false,
      "inputs": [
        {
          "indexed": true,
          "internalType": "address",
          "name": "owner",
          "type": "address"
        },
        {
          "indexed": true,
          "internalType": "address",
          "name": "approved",
          "type": "address"
        },
        {
          "indexed": true,
          "internalType": "uint256",
          "name": "tokenId",
          "type": "uint256"
        }
      ],
      "name": "Approval",
      "type": "event"
    },
    {
      "anonymous": false,
      "inputs": [
        {
          "indexed": true,
          "internalType": "address",
          "name": "owner",
          "type": "address"
        },
        {
          "indexed": true,
          "internalType": "address",
          "name": "operator",
          "type": "address"
        },
        {
          "indexed": false,
          "internalType": "bool",
          "name": "approved",
          "type": "bool"
        }
      ],
      "name": "ApprovalForAll",
      "type": "event"
    },
    {
      "anonymous": false,
      "inputs": [
        {
          "indexed": false,
          "internalType": "address",
          "name": "sender",
          "type": "address"
        },
        {
          "indexed": true,
          "internalType": "uint256",
          "name": "editionId",
          "type": "uint256"
        }
      ],
      "name": "EditionCreated",
      "type": "event"
    },
    {
      "anonymous": false,
      "inputs": [
        {
          "indexed": true,
          "internalType": "address",
          "name": "buyer",
          "type": "address"
        },
        {
          "indexed": false,
          "internalType": "uint256",
          "name": "tokenId",
          "type": "uint256"
        },
        {
          "indexed": false,
          "internalType": "uint256",
          "name": "numSold",
          "type": "uint256"
        }
      ],
      "name": "EditionMinted",
      "type": "event"
    },
    {
      "anonymous": false,
      "inputs": [
        {
          "indexed": true,
          "internalType": "address",
          "name": "previousOwner",
          "type": "address"
        },
        {
          "indexed": true,
          "internalType": "address",
          "name": "newOwner",
          "type": "address"
        }
      ],
      "name": "OwnershipTransferred",
      "type": "event"
    },
    {
      "anonymous": false,
      "inputs": [
        {
          "indexed": true,
          "internalType": "address",
          "name": "from",
          "type": "address"
        },
        {
          "indexed": true,
          "internalType": "address",
          "name": "to",
          "type": "address"
        },
        {
          "indexed": true,
          "internalType": "uint256",
          "name": "tokenId",
          "type": "uint256"
        }
      ],
      "name": "Transfer",
      "type": "event"
    },
    {
      "inputs": [
        {
          "internalType": "address",
          "name": "to",
          "type": "address"
        },
        {
          "internalType": "uint256",
          "name": "tokenId",
          "type": "uint256"
        }
      ],
      "name": "approve",
      "outputs": [],
      "stateMutability": "nonpayable",
      "type": "function"
    },
    {
      "inputs": [
        {
          "internalType": "address",
          "name": "owner",
          "type": "address"
        }
      ],
      "name": "balanceOf",
      "outputs": [
        {
          "internalType": "uint256",
          "name": "",
          "type": "uint256"
        }
      ],
      "stateMutability": "view",
      "type": "function"
    },
    {
      "inputs": [],
      "name": "contractPrice",
      "outputs": [
        {
          "internalType": "uint256",
          "name": "",
          "type": "uint256"
        }
      ],
      "stateMutability": "view",
      "type": "function"
    },
    {
      "inputs": [
        {
          "internalType": "address",
          "name": "",
          "type": "address"
        },
        {
          "internalType": "uint256",
          "name": "",
          "type": "uint256"
        }
      ],
      "name": "curatorSubmissions",
      "outputs": [
        {
          "internalType": "address",
          "name": "curatorWallet",
          "type": "address"
        },
        {
          "internalType": "address",
          "name": "artistWallet",
          "type": "address"
        },
        {
          "internalType": "string",
          "name": "mediaURI",
          "type": "string"
        },
        {
          "internalType": "string",
          "name": "marketplace",
          "type": "string"
        },
        {
          "internalType": "string",
          "name": "artistName",
          "type": "string"
        },
        {
          "internalType": "string",
          "name": "mediaType",
          "type": "string"
        },
        {
          "internalType": "string",
          "name": "mediaTitle",
          "type": "string"
        },
        {
          "internalType": "uint256",
          "name": "numSold",
          "type": "uint256"
        },
        {
          "internalType": "string",
          "name": "tokenURI",
          "type": "string"
        },
        {
          "internalType": "uint256",
          "name": "submissionTime",
          "type": "uint256"
        }
      ],
      "stateMutability": "view",
      "type": "function"
    },
    {
      "inputs": [
        {
          "internalType": "uint256",
          "name": "",
          "type": "uint256"
        }
      ],
      "name": "editions",
      "outputs": [
        {
          "internalType": "address",
          "name": "curatorWallet",
          "type": "address"
        },
        {
          "internalType": "address",
          "name": "artistWallet",
          "type": "address"
        },
        {
          "internalType": "string",
          "name": "mediaURI",
          "type": "string"
        },
        {
          "internalType": "string",
          "name": "marketplace",
          "type": "string"
        },
        {
          "internalType": "string",
          "name": "artistName",
          "type": "string"
        },
        {
          "internalType": "string",
          "name": "mediaType",
          "type": "string"
        },
        {
          "internalType": "string",
          "name": "mediaTitle",
          "type": "string"
        },
        {
          "internalType": "uint256",
          "name": "numSold",
          "type": "uint256"
        },
        {
          "internalType": "string",
          "name": "tokenURI",
          "type": "string"
        },
        {
          "internalType": "uint256",
          "name": "submissionTime",
          "type": "uint256"
        }
      ],
      "stateMutability": "view",
      "type": "function"
    },
    {
      "inputs": [],
      "name": "getAllCurations",
      "outputs": [
        {
          "components": [
            {
              "internalType": "address",
              "name": "curatorWallet",
              "type": "address"
            },
            {
              "internalType": "address",
              "name": "artistWallet",
              "type": "address"
            },
            {
              "internalType": "string",
              "name": "mediaURI",
              "type": "string"
            },
            {
              "internalType": "string",
              "name": "marketplace",
              "type": "string"
            },
            {
              "internalType": "string[]",
              "name": "tags",
              "type": "string[]"
            },
            {
              "internalType": "string",
              "name": "artistName",
              "type": "string"
            },
            {
              "internalType": "string",
              "name": "mediaType",
              "type": "string"
            },
            {
              "internalType": "string",
              "name": "mediaTitle",
              "type": "string"
            },
            {
              "internalType": "uint256",
              "name": "numSold",
              "type": "uint256"
            },
            {
              "internalType": "string",
              "name": "tokenURI",
              "type": "string"
            },
            {
              "internalType": "uint256",
              "name": "submissionTime",
              "type": "uint256"
            }
          ],
          "internalType": "struct Phlote.Edition[]",
          "name": "",
          "type": "tuple[]"
        }
      ],
      "stateMutability": "view",
      "type": "function"
    },
    {
      "inputs": [],
      "name": "getAllCurationsButWithASmallChange",
      "outputs": [
        {
          "components": [
            {
              "internalType": "address",
              "name": "curatorWallet",
              "type": "address"
            },
            {
              "internalType": "address",
              "name": "artistWallet",
              "type": "address"
            },
            {
              "internalType": "string",
              "name": "mediaURI",
              "type": "string"
            },
            {
              "internalType": "string",
              "name": "marketplace",
              "type": "string"
            },
            {
              "internalType": "string[]",
              "name": "tags",
              "type": "string[]"
            },
            {
              "internalType": "string",
              "name": "artistName",
              "type": "string"
            },
            {
              "internalType": "string",
              "name": "mediaType",
              "type": "string"
            },
            {
              "internalType": "string",
              "name": "mediaTitle",
              "type": "string"
            },
            {
              "internalType": "uint256",
              "name": "numSold",
              "type": "uint256"
            },
            {
              "internalType": "string",
              "name": "tokenURI",
              "type": "string"
            },
            {
              "internalType": "uint256",
              "name": "submissionTime",
              "type": "uint256"
            }
          ],
          "internalType": "struct Phlote.Edition[]",
          "name": "",
          "type": "tuple[]"
        }
      ],
      "stateMutability": "view",
      "type": "function"
    },
    {
      "inputs": [
        {
          "internalType": "uint256",
          "name": "tokenId",
          "type": "uint256"
        }
      ],
      "name": "getApproved",
      "outputs": [
        {
          "internalType": "address",
          "name": "",
          "type": "address"
        }
      ],
      "stateMutability": "view",
      "type": "function"
    },
    {
      "inputs": [
        {
          "internalType": "address",
          "name": "_curatorWallet",
          "type": "address"
        }
      ],
      "name": "getCuratorSubmissions",
      "outputs": [
        {
          "components": [
            {
              "internalType": "address",
              "name": "curatorWallet",
              "type": "address"
            },
            {
              "internalType": "address",
              "name": "artistWallet",
              "type": "address"
            },
            {
              "internalType": "string",
              "name": "mediaURI",
              "type": "string"
            },
            {
              "internalType": "string",
              "name": "marketplace",
              "type": "string"
            },
            {
              "internalType": "string[]",
              "name": "tags",
              "type": "string[]"
            },
            {
              "internalType": "string",
              "name": "artistName",
              "type": "string"
            },
            {
              "internalType": "string",
              "name": "mediaType",
              "type": "string"
            },
            {
              "internalType": "string",
              "name": "mediaTitle",
              "type": "string"
            },
            {
              "internalType": "uint256",
              "name": "numSold",
              "type": "uint256"
            },
            {
              "internalType": "string",
              "name": "tokenURI",
              "type": "string"
            },
            {
              "internalType": "uint256",
              "name": "submissionTime",
              "type": "uint256"
            }
          ],
          "internalType": "struct Phlote.Edition[]",
          "name": "",
          "type": "tuple[]"
        }
      ],
      "stateMutability": "view",
      "type": "function"
    },
    {
      "inputs": [],
      "name": "initialize",
      "outputs": [],
      "stateMutability": "nonpayable",
      "type": "function"
    },
    {
      "inputs": [
        {
          "internalType": "address",
          "name": "owner",
          "type": "address"
        },
        {
          "internalType": "address",
          "name": "operator",
          "type": "address"
        }
      ],
      "name": "isApprovedForAll",
      "outputs": [
        {
          "internalType": "bool",
          "name": "",
          "type": "bool"
        }
      ],
      "stateMutability": "view",
      "type": "function"
    },
    {
      "inputs": [
        {
          "internalType": "uint256",
          "name": "editionId",
          "type": "uint256"
        }
      ],
      "name": "mintEdition",
      "outputs": [],
      "stateMutability": "payable",
      "type": "function"
    },
    {
      "inputs": [],
      "name": "name",
      "outputs": [
        {
          "internalType": "string",
          "name": "",
          "type": "string"
        }
      ],
      "stateMutability": "view",
      "type": "function"
    },
    {
      "inputs": [
        {
          "internalType": "address",
          "name": "",
          "type": "address"
        }
      ],
      "name": "nftHolders",
      "outputs": [
        {
          "internalType": "uint256",
          "name": "",
          "type": "uint256"
        }
      ],
      "stateMutability": "view",
      "type": "function"
    },
    {
      "inputs": [],
      "name": "owner",
      "outputs": [
        {
          "internalType": "address",
          "name": "",
          "type": "address"
        }
      ],
      "stateMutability": "view",
      "type": "function"
    },
    {
      "inputs": [
        {
          "internalType": "uint256",
          "name": "tokenId",
          "type": "uint256"
        }
      ],
      "name": "ownerOf",
      "outputs": [
        {
          "internalType": "address",
          "name": "",
          "type": "address"
        }
      ],
      "stateMutability": "view",
      "type": "function"
    },
    {
      "inputs": [],
      "name": "renounceOwnership",
      "outputs": [],
      "stateMutability": "nonpayable",
      "type": "function"
    },
    {
      "inputs": [
        {
          "internalType": "address",
          "name": "from",
          "type": "address"
        },
        {
          "internalType": "address",
          "name": "to",
          "type": "address"
        },
        {
          "internalType": "uint256",
          "name": "tokenId",
          "type": "uint256"
        }
      ],
      "name": "safeTransferFrom",
      "outputs": [],
      "stateMutability": "nonpayable",
      "type": "function"
    },
    {
      "inputs": [
        {
          "internalType": "address",
          "name": "from",
          "type": "address"
        },
        {
          "internalType": "address",
          "name": "to",
          "type": "address"
        },
        {
          "internalType": "uint256",
          "name": "tokenId",
          "type": "uint256"
        },
        {
          "internalType": "bytes",
          "name": "_data",
          "type": "bytes"
        }
      ],
      "name": "safeTransferFrom",
      "outputs": [],
      "stateMutability": "nonpayable",
      "type": "function"
    },
    {
      "inputs": [
        {
          "internalType": "address",
          "name": "operator",
          "type": "address"
        },
        {
          "internalType": "bool",
          "name": "approved",
          "type": "bool"
        }
      ],
      "name": "setApprovalForAll",
      "outputs": [],
      "stateMutability": "nonpayable",
      "type": "function"
    },
    {
      "inputs": [
        {
          "internalType": "address",
          "name": "_curatorWallet",
          "type": "address"
        },
        {
          "internalType": "string",
          "name": "_mediaURI",
          "type": "string"
        },
        {
          "internalType": "string",
          "name": "_marketplace",
          "type": "string"
        },
        {
          "internalType": "string[]",
          "name": "_tags",
          "type": "string[]"
        },
        {
          "internalType": "string",
          "name": "_artistName",
          "type": "string"
        },
        {
          "internalType": "address",
          "name": "_artistWallet",
          "type": "address"
        },
        {
          "internalType": "string",
          "name": "_mediaType",
          "type": "string"
        },
        {
          "internalType": "string",
          "name": "_mediaTitle",
          "type": "string"
        },
        {
          "internalType": "string",
          "name": "_tokenURI",
          "type": "string"
        }
      ],
      "name": "submitPost",
      "outputs": [],
      "stateMutability": "nonpayable",
      "type": "function"
    },
    {
      "inputs": [
        {
          "internalType": "bytes4",
          "name": "interfaceId",
          "type": "bytes4"
        }
      ],
      "name": "supportsInterface",
      "outputs": [
        {
          "internalType": "bool",
          "name": "",
          "type": "bool"
        }
      ],
      "stateMutability": "view",
      "type": "function"
    },
    {
      "inputs": [],
      "name": "symbol",
      "outputs": [
        {
          "internalType": "string",
          "name": "",
          "type": "string"
        }
      ],
      "stateMutability": "view",
      "type": "function"
    },
    {
      "inputs": [
        {
          "internalType": "uint256",
          "name": "",
          "type": "uint256"
        }
      ],
      "name": "tokenToSong",
      "outputs": [
        {
          "internalType": "uint256",
          "name": "",
          "type": "uint256"
        }
      ],
      "stateMutability": "view",
      "type": "function"
    },
    {
      "inputs": [
        {
          "internalType": "uint256",
          "name": "_tokenId",
          "type": "uint256"
        }
      ],
      "name": "tokenURI",
      "outputs": [
        {
          "internalType": "string",
          "name": "",
          "type": "string"
        }
      ],
      "stateMutability": "view",
      "type": "function"
    },
    {
      "inputs": [
        {
          "internalType": "address",
          "name": "from",
          "type": "address"
        },
        {
          "internalType": "address",
          "name": "to",
          "type": "address"
        },
        {
          "internalType": "uint256",
          "name": "tokenId",
          "type": "uint256"
        }
      ],
      "name": "transferFrom",
      "outputs": [],
      "stateMutability": "nonpayable",
      "type": "function"
    },
    {
      "inputs": [
        {
          "internalType": "address",
          "name": "newOwner",
          "type": "address"
        }
      ],
      "name": "transferOwnership",
      "outputs": [],
      "stateMutability": "nonpayable",
      "type": "function"
    },
    {
      "inputs": [
        {
          "internalType": "uint256",
          "name": "",
          "type": "uint256"
        }
      ],
      "name": "withdrawnForEdition",
      "outputs": [
        {
          "internalType": "uint256",
          "name": "",
          "type": "uint256"
        }
      ],
      "stateMutability": "view",
      "type": "function"
    }
  ],
  "bytecode": "0x608060405234801561001057600080fd5b50615d6a80620000216000396000f3fe6080604052600436106101b75760003560e01c8063715018a6116100ec578063a22cb4651161008a578063d3bb052811610064578063d3bb052814610635578063e2b18d3f14610672578063e985e9c5146106af578063f2fde38b146106ec576101b7565b8063a22cb465146105a6578063b88d4fde146105cf578063c87b56dd146105f8576101b7565b8063870614b3116100c6578063870614b3146104fa5780638da5cb5b1461052557806395d89b411461055057806397e9a0bf1461057b576101b7565b8063715018a61461048f5780637df124a1146104a65780638129fc1c146104e3576101b7565b806323b872dd1161015957806353301ecf1161013357806353301ecf146103af5780636352211e146103ec5780636b1658541461042957806370a0823114610452576101b7565b806323b872dd14610317578063279c806e1461034057806342842e0e14610386576101b7565b8063081812fc11610195578063081812fc14610240578063095ea7b31461027d5780631125c320146102a65780631cfbcd5b146102ec576101b7565b806301ffc9a7146101bc57806305322b74146101f957806306fdde0314610215575b600080fd5b3480156101c857600080fd5b506101e360048036038101906101de91906149ed565b610715565b6040516101f0919061512b565b60405180910390f35b610213600480360381019061020e9190614a3f565b6107f7565b005b34801561022157600080fd5b5061022a6109cc565b6040516102379190615146565b60405180910390f35b34801561024c57600080fd5b5061026760048036038101906102629190614a3f565b610a5e565b6040516102749190614fdc565b60405180910390f35b34801561028957600080fd5b506102a4600480360381019061029f91906149b1565b610ae3565b005b3480156102b257600080fd5b506102cd60048036038101906102c891906149b1565b610bfb565b6040516102e39a99989796959493929190614ff7565b60405180910390f35b3480156102f857600080fd5b50610301610fdc565b60405161030e9190615109565b60405180910390f35b34801561032357600080fd5b5061033e6004803603810190610339919061473d565b611541565b005b34801561034c57600080fd5b5061036760048036038101906103629190614a3f565b6115a1565b60405161037d9a99989796959493929190614ff7565b60405180910390f35b34801561039257600080fd5b506103ad60048036038101906103a8919061473d565b611965565b005b3480156103bb57600080fd5b506103d660048036038101906103d191906146d8565b611985565b6040516103e39190615109565b60405180910390f35b3480156103f857600080fd5b50610413600480360381019061040e9190614a3f565b611f29565b6040516104209190614fdc565b60405180910390f35b34801561043557600080fd5b50610450600480360381019061044b9190614843565b611fdb565b005b34801561045e57600080fd5b50610479600480360381019061047491906146d8565b6125c3565b60405161048691906153cd565b60405180910390f35b34801561049b57600080fd5b506104a461267b565b005b3480156104b257600080fd5b506104cd60048036038101906104c891906146d8565b612703565b6040516104da91906153cd565b60405180910390f35b3480156104ef57600080fd5b506104f861271b565b005b34801561050657600080fd5b5061050f612885565b60405161051c9190615109565b60405180910390f35b34801561053157600080fd5b5061053a612dea565b6040516105479190614fdc565b60405180910390f35b34801561055c57600080fd5b50610565612e14565b6040516105729190615146565b60405180910390f35b34801561058757600080fd5b50610590612ea6565b60405161059d91906153cd565b60405180910390f35b3480156105b257600080fd5b506105cd60048036038101906105c89190614807565b612eac565b005b3480156105db57600080fd5b506105f660048036038101906105f1919061478c565b612ec2565b005b34801561060457600080fd5b5061061f600480360381019061061a9190614a3f565b612f24565b60405161062c9190615146565b60405180910390f35b34801561064157600080fd5b5061065c60048036038101906106579190614a3f565b61346f565b60405161066991906153cd565b60405180910390f35b34801561067e57600080fd5b5061069960048036038101906106949190614a3f565b613487565b6040516106a691906153cd565b60405180910390f35b3480156106bb57600080fd5b506106d660048036038101906106d19190614701565b61349f565b6040516106e3919061512b565b60405180910390f35b3480156106f857600080fd5b50610713600480360381019061070e91906146d8565b613533565b005b60007f80ac58cd000000000000000000000000000000000000000000000000000000007bffffffffffffffffffffffffffffffffffffffffffffffffffffffff1916827bffffffffffffffffffffffffffffffffffffffffffffffffffffffff191614806107e057507f5b5e139f000000000000000000000000000000000000000000000000000000007bffffffffffffffffffffffffffffffffffffffffffffffffffffffff1916827bffffffffffffffffffffffffffffffffffffffffffffffffffffffff1916145b806107f057506107ef8261362b565b5b9050919050565b600061080360ca613695565b905061080f33826136a3565b6108d0604051806060016040528060288152602001615d0d6028913960cd6000858152602001908152602001600020600701805461084c906156bf565b80601f0160208091040260200160405190810160405280929190818152602001828054610878906156bf565b80156108c55780601f1061089a576101008083540402835291602001916108c5565b820191906000526020600020905b8154815290600101906020018083116108a857829003601f168201915b5050505050836136c1565b8060ce60003373ffffffffffffffffffffffffffffffffffffffff1673ffffffffffffffffffffffffffffffffffffffff1681526020019081526020016000208190555061091e60ca613760565b60cd6000838152602001908152602001600020600801600081548092919061094590615722565b91905055508160d16000838152602001908152602001600020819055503373ffffffffffffffffffffffffffffffffffffffff167fe1b60c9e07632933648666e5ede8b3b329ddfa2ab98c51b1a5b4b22ab4f1349c8260cd6000868152602001908152602001600020600801546040516109c09291906153e8565b60405180910390a25050565b6060606580546109db906156bf565b80601f0160208091040260200160405190810160405280929190818152602001828054610a07906156bf565b8015610a545780601f10610a2957610100808354040283529160200191610a54565b820191906000526020600020905b815481529060010190602001808311610a3757829003601f168201915b5050505050905090565b6000610a6982613776565b610aa8576040517f08c379a0000000000000000000000000000000000000000000000000000000008152600401610a9f9061532d565b60405180910390fd5b6069600083815260200190815260200160002060009054906101000a900473ffffffffffffffffffffffffffffffffffffffff169050919050565b6000610aee82611f29565b90508073ffffffffffffffffffffffffffffffffffffffff168373ffffffffffffffffffffffffffffffffffffffff161415610b5f576040517f08c379a0000000000000000000000000000000000000000000000000000000008152600401610b569061536d565b60405180910390fd5b8073ffffffffffffffffffffffffffffffffffffffff16610b7e6137e2565b73ffffffffffffffffffffffffffffffffffffffff161480610bad5750610bac81610ba76137e2565b61349f565b5b610bec576040517f08c379a0000000000000000000000000000000000000000000000000000000008152600401610be39061528d565b60405180910390fd5b610bf683836137ea565b505050565b60cf6020528160005260406000208181548110610c1757600080fd5b90600052602060002090600b0201600091509150508060000160009054906101000a900473ffffffffffffffffffffffffffffffffffffffff16908060010160009054906101000a900473ffffffffffffffffffffffffffffffffffffffff1690806002018054610c87906156bf565b80601f0160208091040260200160405190810160405280929190818152602001828054610cb3906156bf565b8015610d005780601f10610cd557610100808354040283529160200191610d00565b820191906000526020600020905b815481529060010190602001808311610ce357829003601f168201915b505050505090806003018054610d15906156bf565b80601f0160208091040260200160405190810160405280929190818152602001828054610d41906156bf565b8015610d8e5780601f10610d6357610100808354040283529160200191610d8e565b820191906000526020600020905b815481529060010190602001808311610d7157829003601f168201915b505050505090806005018054610da3906156bf565b80601f0160208091040260200160405190810160405280929190818152602001828054610dcf906156bf565b8015610e1c5780601f10610df157610100808354040283529160200191610e1c565b820191906000526020600020905b815481529060010190602001808311610dff57829003601f168201915b505050505090806006018054610e31906156bf565b80601f0160208091040260200160405190810160405280929190818152602001828054610e5d906156bf565b8015610eaa5780601f10610e7f57610100808354040283529160200191610eaa565b820191906000526020600020905b815481529060010190602001808311610e8d57829003601f168201915b505050505090806007018054610ebf906156bf565b80601f0160208091040260200160405190810160405280929190818152602001828054610eeb906156bf565b8015610f385780601f10610f0d57610100808354040283529160200191610f38565b820191906000526020600020905b815481529060010190602001808311610f1b57829003601f168201915b505050505090806008015490806009018054610f53906156bf565b80601f0160208091040260200160405190810160405280929190818152602001828054610f7f906156bf565b8015610fcc5780601f10610fa157610100808354040283529160200191610fcc565b820191906000526020600020905b815481529060010190602001808311610faf57829003601f168201915b50505050509080600a015490508a565b606060cc805480602002602001604051908101604052809291908181526020016000905b8282101561153857838290600052602060002090600b0201604051806101600160405290816000820160009054906101000a900473ffffffffffffffffffffffffffffffffffffffff1673ffffffffffffffffffffffffffffffffffffffff1673ffffffffffffffffffffffffffffffffffffffff1681526020016001820160009054906101000a900473ffffffffffffffffffffffffffffffffffffffff1673ffffffffffffffffffffffffffffffffffffffff1673ffffffffffffffffffffffffffffffffffffffff1681526020016002820180546110e0906156bf565b80601f016020809104026020016040519081016040528092919081815260200182805461110c906156bf565b80156111595780601f1061112e57610100808354040283529160200191611159565b820191906000526020600020905b81548152906001019060200180831161113c57829003601f168201915b50505050508152602001600382018054611172906156bf565b80601f016020809104026020016040519081016040528092919081815260200182805461119e906156bf565b80156111eb5780601f106111c0576101008083540402835291602001916111eb565b820191906000526020600020905b8154815290600101906020018083116111ce57829003601f168201915b5050505050815260200160048201805480602002602001604051908101604052809291908181526020016000905b828210156112c5578382906000526020600020018054611238906156bf565b80601f0160208091040260200160405190810160405280929190818152602001828054611264906156bf565b80156112b15780601f10611286576101008083540402835291602001916112b1565b820191906000526020600020905b81548152906001019060200180831161129457829003601f168201915b505050505081526020019060010190611219565b5050505081526020016005820180546112dd906156bf565b80601f0160208091040260200160405190810160405280929190818152602001828054611309906156bf565b80156113565780601f1061132b57610100808354040283529160200191611356565b820191906000526020600020905b81548152906001019060200180831161133957829003601f168201915b5050505050815260200160068201805461136f906156bf565b80601f016020809104026020016040519081016040528092919081815260200182805461139b906156bf565b80156113e85780601f106113bd576101008083540402835291602001916113e8565b820191906000526020600020905b8154815290600101906020018083116113cb57829003601f168201915b50505050508152602001600782018054611401906156bf565b80601f016020809104026020016040519081016040528092919081815260200182805461142d906156bf565b801561147a5780601f1061144f5761010080835404028352916020019161147a565b820191906000526020600020905b81548152906001019060200180831161145d57829003601f168201915b505050505081526020016008820154815260200160098201805461149d906156bf565b80601f01602080910402602001604051908101604052809291908181526020018280546114c9906156bf565b80156115165780601f106114eb57610100808354040283529160200191611516565b820191906000526020600020905b8154815290600101906020018083116114f957829003601f168201915b50505050508152602001600a8201548152505081526020019060010190611000565b50505050905090565b61155261154c6137e2565b826138a3565b611591576040517f08c379a00000000000000000000000000000000000000000000000000000000081526004016115889061538d565b60405180910390fd5b61159c838383613981565b505050565b60cd6020528060005260406000206000915090508060000160009054906101000a900473ffffffffffffffffffffffffffffffffffffffff16908060010160009054906101000a900473ffffffffffffffffffffffffffffffffffffffff1690806002018054611610906156bf565b80601f016020809104026020016040519081016040528092919081815260200182805461163c906156bf565b80156116895780601f1061165e57610100808354040283529160200191611689565b820191906000526020600020905b81548152906001019060200180831161166c57829003601f168201915b50505050509080600301805461169e906156bf565b80601f01602080910402602001604051908101604052809291908181526020018280546116ca906156bf565b80156117175780601f106116ec57610100808354040283529160200191611717565b820191906000526020600020905b8154815290600101906020018083116116fa57829003601f168201915b50505050509080600501805461172c906156bf565b80601f0160208091040260200160405190810160405280929190818152602001828054611758906156bf565b80156117a55780601f1061177a576101008083540402835291602001916117a5565b820191906000526020600020905b81548152906001019060200180831161178857829003601f168201915b5050505050908060060180546117ba906156bf565b80601f01602080910402602001604051908101604052809291908181526020018280546117e6906156bf565b80156118335780601f1061180857610100808354040283529160200191611833565b820191906000526020600020905b81548152906001019060200180831161181657829003601f168201915b505050505090806007018054611848906156bf565b80601f0160208091040260200160405190810160405280929190818152602001828054611874906156bf565b80156118c15780601f10611896576101008083540402835291602001916118c1565b820191906000526020600020905b8154815290600101906020018083116118a457829003601f168201915b5050505050908060080154908060090180546118dc906156bf565b80601f0160208091040260200160405190810160405280929190818152602001828054611908906156bf565b80156119555780601f1061192a57610100808354040283529160200191611955565b820191906000526020600020905b81548152906001019060200180831161193857829003601f168201915b50505050509080600a015490508a565b61198083838360405180602001604052806000815250612ec2565b505050565b606060cf60008373ffffffffffffffffffffffffffffffffffffffff1673ffffffffffffffffffffffffffffffffffffffff168152602001908152602001600020805480602002602001604051908101604052809291908181526020016000905b82821015611f1e57838290600052602060002090600b0201604051806101600160405290816000820160009054906101000a900473ffffffffffffffffffffffffffffffffffffffff1673ffffffffffffffffffffffffffffffffffffffff1673ffffffffffffffffffffffffffffffffffffffff1681526020016001820160009054906101000a900473ffffffffffffffffffffffffffffffffffffffff1673ffffffffffffffffffffffffffffffffffffffff1673ffffffffffffffffffffffffffffffffffffffff168152602001600282018054611ac6906156bf565b80601f0160208091040260200160405190810160405280929190818152602001828054611af2906156bf565b8015611b3f5780601f10611b1457610100808354040283529160200191611b3f565b820191906000526020600020905b815481529060010190602001808311611b2257829003601f168201915b50505050508152602001600382018054611b58906156bf565b80601f0160208091040260200160405190810160405280929190818152602001828054611b84906156bf565b8015611bd15780601f10611ba657610100808354040283529160200191611bd1565b820191906000526020600020905b815481529060010190602001808311611bb457829003601f168201915b5050505050815260200160048201805480602002602001604051908101604052809291908181526020016000905b82821015611cab578382906000526020600020018054611c1e906156bf565b80601f0160208091040260200160405190810160405280929190818152602001828054611c4a906156bf565b8015611c975780601f10611c6c57610100808354040283529160200191611c97565b820191906000526020600020905b815481529060010190602001808311611c7a57829003601f168201915b505050505081526020019060010190611bff565b505050508152602001600582018054611cc3906156bf565b80601f0160208091040260200160405190810160405280929190818152602001828054611cef906156bf565b8015611d3c5780601f10611d1157610100808354040283529160200191611d3c565b820191906000526020600020905b815481529060010190602001808311611d1f57829003601f168201915b50505050508152602001600682018054611d55906156bf565b80601f0160208091040260200160405190810160405280929190818152602001828054611d81906156bf565b8015611dce5780601f10611da357610100808354040283529160200191611dce565b820191906000526020600020905b815481529060010190602001808311611db157829003601f168201915b50505050508152602001600782018054611de7906156bf565b80601f0160208091040260200160405190810160405280929190818152602001828054611e13906156bf565b8015611e605780601f10611e3557610100808354040283529160200191611e60565b820191906000526020600020905b815481529060010190602001808311611e4357829003601f168201915b5050505050815260200160088201548152602001600982018054611e83906156bf565b80601f0160208091040260200160405190810160405280929190818152602001828054611eaf906156bf565b8015611efc5780601f10611ed157610100808354040283529160200191611efc565b820191906000526020600020905b815481529060010190602001808311611edf57829003601f168201915b50505050508152602001600a82015481525050815260200190600101906119e6565b505050509050919050565b6000806067600084815260200190815260200160002060009054906101000a900473ffffffffffffffffffffffffffffffffffffffff169050600073ffffffffffffffffffffffffffffffffffffffff168173ffffffffffffffffffffffffffffffffffffffff161415611fd2576040517f08c379a0000000000000000000000000000000000000000000000000000000008152600401611fc9906152cd565b60405180910390fd5b80915050919050565b60006040518061016001604052808b73ffffffffffffffffffffffffffffffffffffffff1681526020018673ffffffffffffffffffffffffffffffffffffffff1681526020018a81526020018981526020018881526020018781526020018581526020018481526020016000815260200183815260200142815250905060cc8190806001815401808255809150506001900390600052602060002090600b020160009091909190915060008201518160000160006101000a81548173ffffffffffffffffffffffffffffffffffffffff021916908373ffffffffffffffffffffffffffffffffffffffff16021790555060208201518160010160006101000a81548173ffffffffffffffffffffffffffffffffffffffff021916908373ffffffffffffffffffffffffffffffffffffffff160217905550604082015181600201908051906020019061212e929190614388565b50606082015181600301908051906020019061214b929190614388565b50608082015181600401908051906020019061216892919061440e565b5060a0820151816005019080519060200190612185929190614388565b5060c08201518160060190805190602001906121a2929190614388565b5060e08201518160070190805190602001906121bf929190614388565b5061010082015181600801556101208201518160090190805190602001906121e8929190614388565b5061014082015181600a015550508060cd600060cb54815260200190815260200160002060008201518160000160006101000a81548173ffffffffffffffffffffffffffffffffffffffff021916908373ffffffffffffffffffffffffffffffffffffffff16021790555060208201518160010160006101000a81548173ffffffffffffffffffffffffffffffffffffffff021916908373ffffffffffffffffffffffffffffffffffffffff16021790555060408201518160020190805190602001906122b6929190614388565b5060608201518160030190805190602001906122d3929190614388565b5060808201518160040190805190602001906122f092919061440e565b5060a082015181600501908051906020019061230d929190614388565b5060c082015181600601908051906020019061232a929190614388565b5060e0820151816007019080519060200190612347929190614388565b506101008201518160080155610120820151816009019080519060200190612370929190614388565b5061014082015181600a015590505060cf60008b73ffffffffffffffffffffffffffffffffffffffff1673ffffffffffffffffffffffffffffffffffffffff1681526020019081526020016000208190806001815401808255809150506001900390600052602060002090600b020160009091909190915060008201518160000160006101000a81548173ffffffffffffffffffffffffffffffffffffffff021916908373ffffffffffffffffffffffffffffffffffffffff16021790555060208201518160010160006101000a81548173ffffffffffffffffffffffffffffffffffffffff021916908373ffffffffffffffffffffffffffffffffffffffff1602179055506040820151816002019080519060200190612492929190614388565b5060608201518160030190805190602001906124af929190614388565b5060808201518160040190805190602001906124cc92919061440e565b5060a08201518160050190805190602001906124e9929190614388565b5060c0820151816006019080519060200190612506929190614388565b5060e0820151816007019080519060200190612523929190614388565b50610100820151816008015561012082015181600901908051906020019061254c929190614388565b5061014082015181600a0155505060cb547fa1cd98301e2a758f45871102b368fdcf3f56e13f8e8fd2886523ac87ca066ce03360405161258c9190614fdc565b60405180910390a261259f60cb546107f7565b60cb60008154809291906125b290615722565b919050555050505050505050505050565b60008073ffffffffffffffffffffffffffffffffffffffff168273ffffffffffffffffffffffffffffffffffffffff161415612634576040517f08c379a000000000000000000000000000000000000000000000000000000000815260040161262b906152ad565b60405180910390fd5b606860008373ffffffffffffffffffffffffffffffffffffffff1673ffffffffffffffffffffffffffffffffffffffff168152602001908152602001600020549050919050565b6126836137e2565b73ffffffffffffffffffffffffffffffffffffffff166126a1612dea565b73ffffffffffffffffffffffffffffffffffffffff16146126f7576040517f08c379a00000000000000000000000000000000000000000000000000000000081526004016126ee9061534d565b60405180910390fd5b6127016000613be8565b565b60ce6020528060005260406000206000915090505481565b600060019054906101000a900460ff166127435760008054906101000a900460ff161561274c565b61274b613cae565b5b61278b576040517f08c379a0000000000000000000000000000000000000000000000000000000008152600401612782906152ed565b60405180910390fd5b60008060019054906101000a900460ff1615905080156127db576001600060016101000a81548160ff02191690831515021790555060016000806101000a81548160ff0219169083151502179055505b6127e560ca613760565b600160cb819055506128616040518060400160405280600f81526020017f50686c6f7465204375726174696f6e00000000000000000000000000000000008152506040518060400160405280600681526020017f50484c4f54450000000000000000000000000000000000000000000000000000815250613cbf565b80156128825760008060016101000a81548160ff0219169083151502179055505b50565b606060cc805480602002602001604051908101604052809291908181526020016000905b82821015612de157838290600052602060002090600b0201604051806101600160405290816000820160009054906101000a900473ffffffffffffffffffffffffffffffffffffffff1673ffffffffffffffffffffffffffffffffffffffff1673ffffffffffffffffffffffffffffffffffffffff1681526020016001820160009054906101000a900473ffffffffffffffffffffffffffffffffffffffff1673ffffffffffffffffffffffffffffffffffffffff1673ffffffffffffffffffffffffffffffffffffffff168152602001600282018054612989906156bf565b80601f01602080910402602001604051908101604052809291908181526020018280546129b5906156bf565b8015612a025780601f106129d757610100808354040283529160200191612a02565b820191906000526020600020905b8154815290600101906020018083116129e557829003601f168201915b50505050508152602001600382018054612a1b906156bf565b80601f0160208091040260200160405190810160405280929190818152602001828054612a47906156bf565b8015612a945780601f10612a6957610100808354040283529160200191612a94565b820191906000526020600020905b815481529060010190602001808311612a7757829003601f168201915b5050505050815260200160048201805480602002602001604051908101604052809291908181526020016000905b82821015612b6e578382906000526020600020018054612ae1906156bf565b80601f0160208091040260200160405190810160405280929190818152602001828054612b0d906156bf565b8015612b5a5780601f10612b2f57610100808354040283529160200191612b5a565b820191906000526020600020905b815481529060010190602001808311612b3d57829003601f168201915b505050505081526020019060010190612ac2565b505050508152602001600582018054612b86906156bf565b80601f0160208091040260200160405190810160405280929190818152602001828054612bb2906156bf565b8015612bff5780601f10612bd457610100808354040283529160200191612bff565b820191906000526020600020905b815481529060010190602001808311612be257829003601f168201915b50505050508152602001600682018054612c18906156bf565b80601f0160208091040260200160405190810160405280929190818152602001828054612c44906156bf565b8015612c915780601f10612c6657610100808354040283529160200191612c91565b820191906000526020600020905b815481529060010190602001808311612c7457829003601f168201915b50505050508152602001600782018054612caa906156bf565b80601f0160208091040260200160405190810160405280929190818152602001828054612cd6906156bf565b8015612d235780601f10612cf857610100808354040283529160200191612d23565b820191906000526020600020905b815481529060010190602001808311612d0657829003601f168201915b5050505050815260200160088201548152602001600982018054612d46906156bf565b80601f0160208091040260200160405190810160405280929190818152602001828054612d72906156bf565b8015612dbf5780601f10612d9457610100808354040283529160200191612dbf565b820191906000526020600020905b815481529060010190602001808311612da257829003601f168201915b50505050508152602001600a82015481525050815260200190600101906128a9565b50505050905090565b6000609760009054906101000a900473ffffffffffffffffffffffffffffffffffffffff16905090565b606060668054612e23906156bf565b80601f0160208091040260200160405190810160405280929190818152602001828054612e4f906156bf565b8015612e9c5780601f10612e7157610100808354040283529160200191612e9c565b820191906000526020600020905b815481529060010190602001808311612e7f57829003601f168201915b5050505050905090565b60c95481565b612ebe612eb76137e2565b8383613d1c565b5050565b612ed3612ecd6137e2565b836138a3565b612f12576040517f08c379a0000000000000000000000000000000000000000000000000000000008152600401612f099061538d565b60405180910390fd5b612f1e84848484613e89565b50505050565b6060600060cd600060d16000868152602001908152602001600020548152602001908152602001600020604051806101600160405290816000820160009054906101000a900473ffffffffffffffffffffffffffffffffffffffff1673ffffffffffffffffffffffffffffffffffffffff1673ffffffffffffffffffffffffffffffffffffffff1681526020016001820160009054906101000a900473ffffffffffffffffffffffffffffffffffffffff1673ffffffffffffffffffffffffffffffffffffffff1673ffffffffffffffffffffffffffffffffffffffff168152602001600282018054613016906156bf565b80601f0160208091040260200160405190810160405280929190818152602001828054613042906156bf565b801561308f5780601f106130645761010080835404028352916020019161308f565b820191906000526020600020905b81548152906001019060200180831161307257829003601f168201915b505050505081526020016003820180546130a8906156bf565b80601f01602080910402602001604051908101604052809291908181526020018280546130d4906156bf565b80156131215780601f106130f657610100808354040283529160200191613121565b820191906000526020600020905b81548152906001019060200180831161310457829003601f168201915b5050505050815260200160048201805480602002602001604051908101604052809291908181526020016000905b828210156131fb57838290600052602060002001805461316e906156bf565b80601f016020809104026020016040519081016040528092919081815260200182805461319a906156bf565b80156131e75780601f106131bc576101008083540402835291602001916131e7565b820191906000526020600020905b8154815290600101906020018083116131ca57829003601f168201915b50505050508152602001906001019061314f565b505050508152602001600582018054613213906156bf565b80601f016020809104026020016040519081016040528092919081815260200182805461323f906156bf565b801561328c5780601f106132615761010080835404028352916020019161328c565b820191906000526020600020905b81548152906001019060200180831161326f57829003601f168201915b505050505081526020016006820180546132a5906156bf565b80601f01602080910402602001604051908101604052809291908181526020018280546132d1906156bf565b801561331e5780601f106132f35761010080835404028352916020019161331e565b820191906000526020600020905b81548152906001019060200180831161330157829003601f168201915b50505050508152602001600782018054613337906156bf565b80601f0160208091040260200160405190810160405280929190818152602001828054613363906156bf565b80156133b05780601f10613385576101008083540402835291602001916133b0565b820191906000526020600020905b81548152906001019060200180831161339357829003601f168201915b50505050508152602001600882015481526020016009820180546133d3906156bf565b80601f01602080910402602001604051908101604052809291908181526020018280546133ff906156bf565b801561344c5780601f106134215761010080835404028352916020019161344c565b820191906000526020600020905b81548152906001019060200180831161342f57829003601f168201915b50505050508152602001600a820154815250509050806101200151915050919050565b60d06020528060005260406000206000915090505481565b60d16020528060005260406000206000915090505481565b6000606a60008473ffffffffffffffffffffffffffffffffffffffff1673ffffffffffffffffffffffffffffffffffffffff16815260200190815260200160002060008373ffffffffffffffffffffffffffffffffffffffff1673ffffffffffffffffffffffffffffffffffffffff16815260200190815260200160002060009054906101000a900460ff16905092915050565b61353b6137e2565b73ffffffffffffffffffffffffffffffffffffffff16613559612dea565b73ffffffffffffffffffffffffffffffffffffffff16146135af576040517f08c379a00000000000000000000000000000000000000000000000000000000081526004016135a69061534d565b60405180910390fd5b600073ffffffffffffffffffffffffffffffffffffffff168173ffffffffffffffffffffffffffffffffffffffff16141561361f576040517f08c379a0000000000000000000000000000000000000000000000000000000008152600401613616906151cd565b60405180910390fd5b61362881613be8565b50565b60007f01ffc9a7000000000000000000000000000000000000000000000000000000007bffffffffffffffffffffffffffffffffffffffffffffffffffffffff1916827bffffffffffffffffffffffffffffffffffffffffffffffffffffffff1916149050919050565b600081600001549050919050565b6136bd828260405180602001604052806000815250613ee5565b5050565b61375b8383836040516024016136d993929190615168565b6040516020818303038152906040527ff362ca59000000000000000000000000000000000000000000000000000000007bffffffffffffffffffffffffffffffffffffffffffffffffffffffff19166020820180517bffffffffffffffffffffffffffffffffffffffffffffffffffffffff8381831617835250505050613f40565b505050565b6001816000016000828254019250508190555050565b60008073ffffffffffffffffffffffffffffffffffffffff166067600084815260200190815260200160002060009054906101000a900473ffffffffffffffffffffffffffffffffffffffff1673ffffffffffffffffffffffffffffffffffffffff1614159050919050565b600033905090565b816069600083815260200190815260200160002060006101000a81548173ffffffffffffffffffffffffffffffffffffffff021916908373ffffffffffffffffffffffffffffffffffffffff160217905550808273ffffffffffffffffffffffffffffffffffffffff1661385d83611f29565b73ffffffffffffffffffffffffffffffffffffffff167f8c5be1e5ebec7d5bd14f71427d1e84f3dd0314c0f7b2291e5b200ac8c7c3b92560405160405180910390a45050565b60006138ae82613776565b6138ed576040517f08c379a00000000000000000000000000000000000000000000000000000000081526004016138e49061526d565b60405180910390fd5b60006138f883611f29565b90508073ffffffffffffffffffffffffffffffffffffffff168473ffffffffffffffffffffffffffffffffffffffff16148061396757508373ffffffffffffffffffffffffffffffffffffffff1661394f84610a5e565b73ffffffffffffffffffffffffffffffffffffffff16145b806139785750613977818561349f565b5b91505092915050565b8273ffffffffffffffffffffffffffffffffffffffff166139a182611f29565b73ffffffffffffffffffffffffffffffffffffffff16146139f7576040517f08c379a00000000000000000000000000000000000000000000000000000000081526004016139ee906151ed565b60405180910390fd5b600073ffffffffffffffffffffffffffffffffffffffff168273ffffffffffffffffffffffffffffffffffffffff161415613a67576040517f08c379a0000000000000000000000000000000000000000000000000000000008152600401613a5e9061522d565b60405180910390fd5b613a72838383613f69565b613a7d6000826137ea565b6001606860008573ffffffffffffffffffffffffffffffffffffffff1673ffffffffffffffffffffffffffffffffffffffff1681526020019081526020016000206000828254613acd91906155d5565b925050819055506001606860008473ffffffffffffffffffffffffffffffffffffffff1673ffffffffffffffffffffffffffffffffffffffff1681526020019081526020016000206000828254613b24919061557f565b92505081905550816067600083815260200190815260200160002060006101000a81548173ffffffffffffffffffffffffffffffffffffffff021916908373ffffffffffffffffffffffffffffffffffffffff160217905550808273ffffffffffffffffffffffffffffffffffffffff168473ffffffffffffffffffffffffffffffffffffffff167fddf252ad1be2c89b69c2b068fc378daa952ba7f163c4a11628f55a4df523b3ef60405160405180910390a4613be3838383613f6e565b505050565b6000609760009054906101000a900473ffffffffffffffffffffffffffffffffffffffff16905081609760006101000a81548173ffffffffffffffffffffffffffffffffffffffff021916908373ffffffffffffffffffffffffffffffffffffffff1602179055508173ffffffffffffffffffffffffffffffffffffffff168173ffffffffffffffffffffffffffffffffffffffff167f8be0079c531659141344cd1fd0a4f28419497f9722a3daafe3b4186f6b6457e060405160405180910390a35050565b6000613cb930613f73565b15905090565b600060019054906101000a900460ff16613d0e576040517f08c379a0000000000000000000000000000000000000000000000000000000008152600401613d05906153ad565b60405180910390fd5b613d188282613f96565b5050565b8173ffffffffffffffffffffffffffffffffffffffff168373ffffffffffffffffffffffffffffffffffffffff161415613d8b576040517f08c379a0000000000000000000000000000000000000000000000000000000008152600401613d829061524d565b60405180910390fd5b80606a60008573ffffffffffffffffffffffffffffffffffffffff1673ffffffffffffffffffffffffffffffffffffffff16815260200190815260200160002060008473ffffffffffffffffffffffffffffffffffffffff1673ffffffffffffffffffffffffffffffffffffffff16815260200190815260200160002060006101000a81548160ff0219169083151502179055508173ffffffffffffffffffffffffffffffffffffffff168373ffffffffffffffffffffffffffffffffffffffff167f17307eab39ab6107e8899845ad3d59bd9653f200f220920489ca2b5937696c3183604051613e7c919061512b565b60405180910390a3505050565b613e94848484613981565b613ea084848484614017565b613edf576040517f08c379a0000000000000000000000000000000000000000000000000000000008152600401613ed6906151ad565b60405180910390fd5b50505050565b613eef83836141ae565b613efc6000848484614017565b613f3b576040517f08c379a0000000000000000000000000000000000000000000000000000000008152600401613f32906151ad565b60405180910390fd5b505050565b60008151905060006a636f6e736f6c652e6c6f679050602083016000808483855afa5050505050565b505050565b505050565b6000808273ffffffffffffffffffffffffffffffffffffffff163b119050919050565b600060019054906101000a900460ff16613fe5576040517f08c379a0000000000000000000000000000000000000000000000000000000008152600401613fdc906153ad565b60405180910390fd5b8160659080519060200190613ffb929190614388565b508060669080519060200190614012929190614388565b505050565b60006140388473ffffffffffffffffffffffffffffffffffffffff16613f73565b156141a1578373ffffffffffffffffffffffffffffffffffffffff1663150b7a026140616137e2565b8786866040518563ffffffff1660e01b815260040161408394939291906150bd565b602060405180830381600087803b15801561409d57600080fd5b505af19250505080156140ce57506040513d601f19601f820116820180604052508101906140cb9190614a16565b60015b614151573d80600081146140fe576040519150601f19603f3d011682016040523d82523d6000602084013e614103565b606091505b50600081511415614149576040517f08c379a0000000000000000000000000000000000000000000000000000000008152600401614140906151ad565b60405180910390fd5b805181602001fd5b63150b7a0260e01b7bffffffffffffffffffffffffffffffffffffffffffffffffffffffff1916817bffffffffffffffffffffffffffffffffffffffffffffffffffffffff1916149150506141a6565b600190505b949350505050565b600073ffffffffffffffffffffffffffffffffffffffff168273ffffffffffffffffffffffffffffffffffffffff16141561421e576040517f08c379a00000000000000000000000000000000000000000000000000000000081526004016142159061530d565b60405180910390fd5b61422781613776565b15614267576040517f08c379a000000000000000000000000000000000000000000000000000000000815260040161425e9061520d565b60405180910390fd5b61427360008383613f69565b6001606860008473ffffffffffffffffffffffffffffffffffffffff1673ffffffffffffffffffffffffffffffffffffffff16815260200190815260200160002060008282546142c3919061557f565b92505081905550816067600083815260200190815260200160002060006101000a81548173ffffffffffffffffffffffffffffffffffffffff021916908373ffffffffffffffffffffffffffffffffffffffff160217905550808273ffffffffffffffffffffffffffffffffffffffff16600073ffffffffffffffffffffffffffffffffffffffff167fddf252ad1be2c89b69c2b068fc378daa952ba7f163c4a11628f55a4df523b3ef60405160405180910390a461438460008383613f6e565b5050565b828054614394906156bf565b90600052602060002090601f0160209004810192826143b657600085556143fd565b82601f106143cf57805160ff19168380011785556143fd565b828001600101855582156143fd579182015b828111156143fc5782518255916020019190600101906143e1565b5b50905061440a919061446e565b5090565b82805482825590600052602060002090810192821561445d579160200282015b8281111561445c57825182908051906020019061444c929190614388565b509160200191906001019061442e565b5b50905061446a919061448b565b5090565b5b8082111561448757600081600090555060010161446f565b5090565b5b808211156144ab57600081816144a291906144af565b5060010161448c565b5090565b5080546144bb906156bf565b6000825580601f106144cd57506144ec565b601f0160209004906000526020600020908101906144eb919061446e565b5b50565b60006145026144fd84615436565b615411565b9050808382526020820190508285602086028201111561452157600080fd5b60005b8581101561456b57813567ffffffffffffffff81111561454357600080fd5b8086016145508982614699565b85526020850194506020840193505050600181019050614524565b5050509392505050565b600061458861458384615462565b615411565b9050828152602081018484840111156145a057600080fd5b6145ab84828561567d565b509392505050565b60006145c66145c184615493565b615411565b9050828152602081018484840111156145de57600080fd5b6145e984828561567d565b509392505050565b60008135905061460081615cb0565b92915050565b600082601f83011261461757600080fd5b81356146278482602086016144ef565b91505092915050565b60008135905061463f81615cc7565b92915050565b60008135905061465481615cde565b92915050565b60008151905061466981615cde565b92915050565b600082601f83011261468057600080fd5b8135614690848260208601614575565b91505092915050565b600082601f8301126146aa57600080fd5b81356146ba8482602086016145b3565b91505092915050565b6000813590506146d281615cf5565b92915050565b6000602082840312156146ea57600080fd5b60006146f8848285016145f1565b91505092915050565b6000806040838503121561471457600080fd5b6000614722858286016145f1565b9250506020614733858286016145f1565b9150509250929050565b60008060006060848603121561475257600080fd5b6000614760868287016145f1565b9350506020614771868287016145f1565b9250506040614782868287016146c3565b9150509250925092565b600080600080608085870312156147a257600080fd5b60006147b0878288016145f1565b94505060206147c1878288016145f1565b93505060406147d2878288016146c3565b925050606085013567ffffffffffffffff8111156147ef57600080fd5b6147fb8782880161466f565b91505092959194509250565b6000806040838503121561481a57600080fd5b6000614828858286016145f1565b925050602061483985828601614630565b9150509250929050565b60008060008060008060008060006101208a8c03121561486257600080fd5b60006148708c828d016145f1565b99505060208a013567ffffffffffffffff81111561488d57600080fd5b6148998c828d01614699565b98505060408a013567ffffffffffffffff8111156148b657600080fd5b6148c28c828d01614699565b97505060608a013567ffffffffffffffff8111156148df57600080fd5b6148eb8c828d01614606565b96505060808a013567ffffffffffffffff81111561490857600080fd5b6149148c828d01614699565b95505060a06149258c828d016145f1565b94505060c08a013567ffffffffffffffff81111561494257600080fd5b61494e8c828d01614699565b93505060e08a013567ffffffffffffffff81111561496b57600080fd5b6149778c828d01614699565b9250506101008a013567ffffffffffffffff81111561499557600080fd5b6149a18c828d01614699565b9150509295985092959850929598565b600080604083850312156149c457600080fd5b60006149d2858286016145f1565b92505060206149e3858286016146c3565b9150509250929050565b6000602082840312156149ff57600080fd5b6000614a0d84828501614645565b91505092915050565b600060208284031215614a2857600080fd5b6000614a368482850161465a565b91505092915050565b600060208284031215614a5157600080fd5b6000614a5f848285016146c3565b91505092915050565b6000614a748383614be0565b905092915050565b6000614a888383614ea5565b905092915050565b614a9981615609565b82525050565b614aa881615609565b82525050565b6000614ab9826154e4565b614ac3818561552a565b935083602082028501614ad5856154c4565b8060005b85811015614b115784840389528151614af28582614a68565b9450614afd83615510565b925060208a01995050600181019050614ad9565b50829750879550505050505092915050565b6000614b2e826154ef565b614b38818561553b565b935083602082028501614b4a856154d4565b8060005b85811015614b865784840389528151614b678582614a7c565b9450614b728361551d565b925060208a01995050600181019050614b4e565b50829750879550505050505092915050565b614ba18161561b565b82525050565b6000614bb2826154fa565b614bbc818561554c565b9350614bcc81856020860161568c565b614bd5816157f8565b840191505092915050565b6000614beb82615505565b614bf5818561555d565b9350614c0581856020860161568c565b614c0e816157f8565b840191505092915050565b6000614c2482615505565b614c2e818561556e565b9350614c3e81856020860161568c565b614c47816157f8565b840191505092915050565b6000614c5f60328361556e565b9150614c6a82615809565b604082019050919050565b6000614c8260268361556e565b9150614c8d82615858565b604082019050919050565b6000614ca560258361556e565b9150614cb0826158a7565b604082019050919050565b6000614cc8601c8361556e565b9150614cd3826158f6565b602082019050919050565b6000614ceb60248361556e565b9150614cf68261591f565b604082019050919050565b6000614d0e60198361556e565b9150614d198261596e565b602082019050919050565b6000614d31602c8361556e565b9150614d3c82615997565b604082019050919050565b6000614d5460388361556e565b9150614d5f826159e6565b604082019050919050565b6000614d77602a8361556e565b9150614d8282615a35565b604082019050919050565b6000614d9a60298361556e565b9150614da582615a84565b604082019050919050565b6000614dbd602e8361556e565b9150614dc882615ad3565b604082019050919050565b6000614de060208361556e565b9150614deb82615b22565b602082019050919050565b6000614e03602c8361556e565b9150614e0e82615b4b565b604082019050919050565b6000614e2660208361556e565b9150614e3182615b9a565b602082019050919050565b6000614e4960218361556e565b9150614e5482615bc3565b604082019050919050565b6000614e6c60318361556e565b9150614e7782615c12565b604082019050919050565b6000614e8f602b8361556e565b9150614e9a82615c61565b604082019050919050565b600061016083016000830151614ebe6000860182614a90565b506020830151614ed16020860182614a90565b5060408301518482036040860152614ee98282614be0565b91505060608301518482036060860152614f038282614be0565b91505060808301518482036080860152614f1d8282614aae565b91505060a083015184820360a0860152614f378282614be0565b91505060c083015184820360c0860152614f518282614be0565b91505060e083015184820360e0860152614f6b8282614be0565b915050610100830151614f82610100860182614fbe565b50610120830151848203610120860152614f9c8282614be0565b915050610140830151614fb3610140860182614fbe565b508091505092915050565b614fc781615673565b82525050565b614fd681615673565b82525050565b6000602082019050614ff16000830184614a9f565b92915050565b60006101408201905061500d600083018d614a9f565b61501a602083018c614a9f565b818103604083015261502c818b614c19565b90508181036060830152615040818a614c19565b905081810360808301526150548189614c19565b905081810360a08301526150688188614c19565b905081810360c083015261507c8187614c19565b905061508b60e0830186614fcd565b81810361010083015261509e8185614c19565b90506150ae610120830184614fcd565b9b9a5050505050505050505050565b60006080820190506150d26000830187614a9f565b6150df6020830186614a9f565b6150ec6040830185614fcd565b81810360608301526150fe8184614ba7565b905095945050505050565b600060208201905081810360008301526151238184614b23565b905092915050565b60006020820190506151406000830184614b98565b92915050565b600060208201905081810360008301526151608184614c19565b905092915050565b600060608201905081810360008301526151828186614c19565b905081810360208301526151968185614c19565b90506151a56040830184614fcd565b949350505050565b600060208201905081810360008301526151c681614c52565b9050919050565b600060208201905081810360008301526151e681614c75565b9050919050565b6000602082019050818103600083015261520681614c98565b9050919050565b6000602082019050818103600083015261522681614cbb565b9050919050565b6000602082019050818103600083015261524681614cde565b9050919050565b6000602082019050818103600083015261526681614d01565b9050919050565b6000602082019050818103600083015261528681614d24565b9050919050565b600060208201905081810360008301526152a681614d47565b9050919050565b600060208201905081810360008301526152c681614d6a565b9050919050565b600060208201905081810360008301526152e681614d8d565b9050919050565b6000602082019050818103600083015261530681614db0565b9050919050565b6000602082019050818103600083015261532681614dd3565b9050919050565b6000602082019050818103600083015261534681614df6565b9050919050565b6000602082019050818103600083015261536681614e19565b9050919050565b6000602082019050818103600083015261538681614e3c565b9050919050565b600060208201905081810360008301526153a681614e5f565b9050919050565b600060208201905081810360008301526153c681614e82565b9050919050565b60006020820190506153e26000830184614fcd565b92915050565b60006040820190506153fd6000830185614fcd565b61540a6020830184614fcd565b9392505050565b600061541b61542c565b905061542782826156f1565b919050565b6000604051905090565b600067ffffffffffffffff821115615451576154506157c9565b5b602082029050602081019050919050565b600067ffffffffffffffff82111561547d5761547c6157c9565b5b615486826157f8565b9050602081019050919050565b600067ffffffffffffffff8211156154ae576154ad6157c9565b5b6154b7826157f8565b9050602081019050919050565b6000819050602082019050919050565b6000819050602082019050919050565b600081519050919050565b600081519050919050565b600081519050919050565b600081519050919050565b6000602082019050919050565b6000602082019050919050565b600082825260208201905092915050565b600082825260208201905092915050565b600082825260208201905092915050565b600082825260208201905092915050565b600082825260208201905092915050565b600061558a82615673565b915061559583615673565b9250827fffffffffffffffffffffffffffffffffffffffffffffffffffffffffffffffff038211156155ca576155c961576b565b5b828201905092915050565b60006155e082615673565b91506155eb83615673565b9250828210156155fe576155fd61576b565b5b828203905092915050565b600061561482615653565b9050919050565b60008115159050919050565b60007fffffffff0000000000000000000000000000000000000000000000000000000082169050919050565b600073ffffffffffffffffffffffffffffffffffffffff82169050919050565b6000819050919050565b82818337600083830152505050565b60005b838110156156aa57808201518184015260208101905061568f565b838111156156b9576000848401525b50505050565b600060028204905060018216806156d757607f821691505b602082108114156156eb576156ea61579a565b5b50919050565b6156fa826157f8565b810181811067ffffffffffffffff82111715615719576157186157c9565b5b80604052505050565b600061572d82615673565b91507fffffffffffffffffffffffffffffffffffffffffffffffffffffffffffffffff8214156157605761575f61576b565b5b600182019050919050565b7f4e487b7100000000000000000000000000000000000000000000000000000000600052601160045260246000fd5b7f4e487b7100000000000000000000000000000000000000000000000000000000600052602260045260246000fd5b7f4e487b7100000000000000000000000000000000000000000000000000000000600052604160045260246000fd5b6000601f19601f8301169050919050565b7f4552433732313a207472616e7366657220746f206e6f6e20455243373231526560008201527f63656976657220696d706c656d656e7465720000000000000000000000000000602082015250565b7f4f776e61626c653a206e6577206f776e657220697320746865207a65726f206160008201527f6464726573730000000000000000000000000000000000000000000000000000602082015250565b7f4552433732313a207472616e736665722066726f6d20696e636f72726563742060008201527f6f776e6572000000000000000000000000000000000000000000000000000000602082015250565b7f4552433732313a20746f6b656e20616c7265616479206d696e74656400000000600082015250565b7f4552433732313a207472616e7366657220746f20746865207a65726f2061646460008201527f7265737300000000000000000000000000000000000000000000000000000000602082015250565b7f4552433732313a20617070726f766520746f2063616c6c657200000000000000600082015250565b7f4552433732313a206f70657261746f7220717565727920666f72206e6f6e657860008201527f697374656e7420746f6b656e0000000000000000000000000000000000000000602082015250565b7f4552433732313a20617070726f76652063616c6c6572206973206e6f74206f7760008201527f6e6572206e6f7220617070726f76656420666f7220616c6c0000000000000000602082015250565b7f4552433732313a2062616c616e636520717565727920666f7220746865207a6560008201527f726f206164647265737300000000000000000000000000000000000000000000602082015250565b7f4552433732313a206f776e657220717565727920666f72206e6f6e657869737460008201527f656e7420746f6b656e0000000000000000000000000000000000000000000000602082015250565b7f496e697469616c697a61626c653a20636f6e747261637420697320616c72656160008201527f647920696e697469616c697a6564000000000000000000000000000000000000602082015250565b7f4552433732313a206d696e7420746f20746865207a65726f2061646472657373600082015250565b7f4552433732313a20617070726f76656420717565727920666f72206e6f6e657860008201527f697374656e7420746f6b656e0000000000000000000000000000000000000000602082015250565b7f4f776e61626c653a2063616c6c6572206973206e6f7420746865206f776e6572600082015250565b7f4552433732313a20617070726f76616c20746f2063757272656e74206f776e6560008201527f7200000000000000000000000000000000000000000000000000000000000000602082015250565b7f4552433732313a207472616e736665722063616c6c6572206973206e6f74206f60008201527f776e6572206e6f7220617070726f766564000000000000000000000000000000602082015250565b7f496e697469616c697a61626c653a20636f6e7472616374206973206e6f74206960008201527f6e697469616c697a696e67000000000000000000000000000000000000000000602082015250565b615cb981615609565b8114615cc457600080fd5b50565b615cd08161561b565b8114615cdb57600080fd5b50565b615ce781615627565b8114615cf257600080fd5b50565b615cfe81615673565b8114615d0957600080fd5b5056fe2a2a2a2a2a2a4d696e746564202573204e465420772f20746f6b656e4964202573202a2a2a2a2a2aa26469706673582212200c4ddbbedf03f92d65660f7cb824b5e917258716a0dbcb536cd485edec82249764736f6c63430008040033",
  "linkReferences": {},
  "deployedLinkReferences": {}
}