{
  "_format": "hh-sol-artifact-1",
  "contractName": "Phlote",
  "sourceName": "contracts/Phlote.sol",
  "abi": [
    {
      "inputs": [],
      "stateMutability": "nonpayable",
      "type": "constructor"
    },
    {
      "anonymous": false,
      "inputs": [
        {
          "indexed": true,
          "internalType": "address",
          "name": "owner",
          "type": "address"
        },
        {
          "indexed": true,
          "internalType": "address",
          "name": "approved",
          "type": "address"
        },
        {
          "indexed": true,
          "internalType": "uint256",
          "name": "tokenId",
          "type": "uint256"
        }
      ],
      "name": "Approval",
      "type": "event"
    },
    {
      "anonymous": false,
      "inputs": [
        {
          "indexed": true,
          "internalType": "address",
          "name": "owner",
          "type": "address"
        },
        {
          "indexed": true,
          "internalType": "address",
          "name": "operator",
          "type": "address"
        },
        {
          "indexed": false,
          "internalType": "bool",
          "name": "approved",
          "type": "bool"
        }
      ],
      "name": "ApprovalForAll",
      "type": "event"
    },
    {
      "anonymous": false,
      "inputs": [
        {
          "indexed": false,
          "internalType": "address",
          "name": "sender",
          "type": "address"
        },
        {
          "indexed": true,
          "internalType": "uint256",
          "name": "editionId",
          "type": "uint256"
        }
      ],
      "name": "EditionCreated",
      "type": "event"
    },
    {
      "anonymous": false,
      "inputs": [
        {
          "indexed": true,
          "internalType": "address",
          "name": "buyer",
          "type": "address"
        },
        {
          "indexed": false,
          "internalType": "uint256",
          "name": "tokenId",
          "type": "uint256"
        },
        {
          "indexed": false,
          "internalType": "uint256",
          "name": "numSold",
          "type": "uint256"
        }
      ],
      "name": "EditionMinted",
      "type": "event"
    },
    {
      "anonymous": false,
      "inputs": [
        {
          "indexed": true,
          "internalType": "address",
          "name": "previousOwner",
          "type": "address"
        },
        {
          "indexed": true,
          "internalType": "address",
          "name": "newOwner",
          "type": "address"
        }
      ],
      "name": "OwnershipTransferred",
      "type": "event"
    },
    {
      "anonymous": false,
      "inputs": [
        {
          "indexed": true,
          "internalType": "address",
          "name": "from",
          "type": "address"
        },
        {
          "indexed": true,
          "internalType": "address",
          "name": "to",
          "type": "address"
        },
        {
          "indexed": true,
          "internalType": "uint256",
          "name": "tokenId",
          "type": "uint256"
        }
      ],
      "name": "Transfer",
      "type": "event"
    },
    {
      "inputs": [
        {
          "internalType": "address",
          "name": "to",
          "type": "address"
        },
        {
          "internalType": "uint256",
          "name": "tokenId",
          "type": "uint256"
        }
      ],
      "name": "approve",
      "outputs": [],
      "stateMutability": "nonpayable",
      "type": "function"
    },
    {
      "inputs": [
        {
          "internalType": "address",
          "name": "owner",
          "type": "address"
        }
      ],
      "name": "balanceOf",
      "outputs": [
        {
          "internalType": "uint256",
          "name": "",
          "type": "uint256"
        }
      ],
      "stateMutability": "view",
      "type": "function"
    },
    {
      "inputs": [],
      "name": "contractPrice",
      "outputs": [
        {
          "internalType": "uint256",
          "name": "",
          "type": "uint256"
        }
      ],
      "stateMutability": "view",
      "type": "function"
    },
    {
      "inputs": [
        {
          "internalType": "address",
          "name": "",
          "type": "address"
        },
        {
          "internalType": "uint256",
          "name": "",
          "type": "uint256"
        }
      ],
      "name": "curatorSubmissions",
      "outputs": [
        {
          "internalType": "address",
          "name": "curatorAddress",
          "type": "address"
        },
        {
          "internalType": "address",
          "name": "artistAddress",
          "type": "address"
        },
        {
          "internalType": "string",
          "name": "mediaURI",
          "type": "string"
        },
        {
          "internalType": "string",
          "name": "marketplace",
          "type": "string"
        },
        {
          "internalType": "string",
          "name": "artistName",
          "type": "string"
        },
        {
          "internalType": "string",
          "name": "mediaType",
          "type": "string"
        },
        {
          "internalType": "string",
          "name": "mediaTitle",
          "type": "string"
        },
        {
          "internalType": "uint256",
          "name": "numSold",
          "type": "uint256"
        },
        {
          "internalType": "string",
          "name": "tokenURI",
          "type": "string"
        }
      ],
      "stateMutability": "view",
      "type": "function"
    },
    {
      "inputs": [
        {
          "internalType": "uint256",
          "name": "",
          "type": "uint256"
        }
      ],
      "name": "editions",
      "outputs": [
        {
          "internalType": "address",
          "name": "curatorAddress",
          "type": "address"
        },
        {
          "internalType": "address",
          "name": "artistAddress",
          "type": "address"
        },
        {
          "internalType": "string",
          "name": "mediaURI",
          "type": "string"
        },
        {
          "internalType": "string",
          "name": "marketplace",
          "type": "string"
        },
        {
          "internalType": "string",
          "name": "artistName",
          "type": "string"
        },
        {
          "internalType": "string",
          "name": "mediaType",
          "type": "string"
        },
        {
          "internalType": "string",
          "name": "mediaTitle",
          "type": "string"
        },
        {
          "internalType": "uint256",
          "name": "numSold",
          "type": "uint256"
        },
        {
          "internalType": "string",
          "name": "tokenURI",
          "type": "string"
        }
      ],
      "stateMutability": "view",
      "type": "function"
    },
    {
      "inputs": [],
      "name": "getAllcontent",
      "outputs": [
        {
          "components": [
            {
              "internalType": "address",
              "name": "curatorAddress",
              "type": "address"
            },
            {
              "internalType": "address",
              "name": "artistAddress",
              "type": "address"
            },
            {
              "internalType": "string",
              "name": "mediaURI",
              "type": "string"
            },
            {
              "internalType": "string",
              "name": "marketplace",
              "type": "string"
            },
            {
              "internalType": "string[]",
              "name": "tags",
              "type": "string[]"
            },
            {
              "internalType": "string",
              "name": "artistName",
              "type": "string"
            },
            {
              "internalType": "string",
              "name": "mediaType",
              "type": "string"
            },
            {
              "internalType": "string",
              "name": "mediaTitle",
              "type": "string"
            },
            {
              "internalType": "uint256",
              "name": "numSold",
              "type": "uint256"
            },
            {
              "internalType": "string",
              "name": "tokenURI",
              "type": "string"
            }
          ],
          "internalType": "struct Phlote.Edition[]",
          "name": "",
          "type": "tuple[]"
        }
      ],
      "stateMutability": "view",
      "type": "function"
    },
    {
      "inputs": [
        {
          "internalType": "uint256",
          "name": "tokenId",
          "type": "uint256"
        }
      ],
      "name": "getApproved",
      "outputs": [
        {
          "internalType": "address",
          "name": "",
          "type": "address"
        }
      ],
      "stateMutability": "view",
      "type": "function"
    },
    {
      "inputs": [
        {
          "internalType": "address",
          "name": "_curatorWallet",
          "type": "address"
        }
      ],
      "name": "getCuratorSubmissions",
      "outputs": [
        {
          "components": [
            {
              "internalType": "address",
              "name": "curatorAddress",
              "type": "address"
            },
            {
              "internalType": "address",
              "name": "artistAddress",
              "type": "address"
            },
            {
              "internalType": "string",
              "name": "mediaURI",
              "type": "string"
            },
            {
              "internalType": "string",
              "name": "marketplace",
              "type": "string"
            },
            {
              "internalType": "string[]",
              "name": "tags",
              "type": "string[]"
            },
            {
              "internalType": "string",
              "name": "artistName",
              "type": "string"
            },
            {
              "internalType": "string",
              "name": "mediaType",
              "type": "string"
            },
            {
              "internalType": "string",
              "name": "mediaTitle",
              "type": "string"
            },
            {
              "internalType": "uint256",
              "name": "numSold",
              "type": "uint256"
            },
            {
              "internalType": "string",
              "name": "tokenURI",
              "type": "string"
            }
          ],
          "internalType": "struct Phlote.Edition[]",
          "name": "",
          "type": "tuple[]"
        }
      ],
      "stateMutability": "view",
      "type": "function"
    },
    {
      "inputs": [
        {
          "internalType": "address",
          "name": "owner",
          "type": "address"
        },
        {
          "internalType": "address",
          "name": "operator",
          "type": "address"
        }
      ],
      "name": "isApprovedForAll",
      "outputs": [
        {
          "internalType": "bool",
          "name": "",
          "type": "bool"
        }
      ],
      "stateMutability": "view",
      "type": "function"
    },
    {
      "inputs": [
        {
          "internalType": "uint256",
          "name": "editionId",
          "type": "uint256"
        }
      ],
      "name": "mintEdition",
      "outputs": [],
      "stateMutability": "payable",
      "type": "function"
    },
    {
      "inputs": [],
      "name": "name",
      "outputs": [
        {
          "internalType": "string",
          "name": "",
          "type": "string"
        }
      ],
      "stateMutability": "view",
      "type": "function"
    },
    {
      "inputs": [
        {
          "internalType": "address",
          "name": "",
          "type": "address"
        }
      ],
      "name": "nftHolders",
      "outputs": [
        {
          "internalType": "uint256",
          "name": "",
          "type": "uint256"
        }
      ],
      "stateMutability": "view",
      "type": "function"
    },
    {
      "inputs": [],
      "name": "owner",
      "outputs": [
        {
          "internalType": "address",
          "name": "",
          "type": "address"
        }
      ],
      "stateMutability": "view",
      "type": "function"
    },
    {
      "inputs": [
        {
          "internalType": "uint256",
          "name": "tokenId",
          "type": "uint256"
        }
      ],
      "name": "ownerOf",
      "outputs": [
        {
          "internalType": "address",
          "name": "",
          "type": "address"
        }
      ],
      "stateMutability": "view",
      "type": "function"
    },
    {
      "inputs": [],
      "name": "renounceOwnership",
      "outputs": [],
      "stateMutability": "nonpayable",
      "type": "function"
    },
    {
      "inputs": [
        {
          "internalType": "address",
          "name": "from",
          "type": "address"
        },
        {
          "internalType": "address",
          "name": "to",
          "type": "address"
        },
        {
          "internalType": "uint256",
          "name": "tokenId",
          "type": "uint256"
        }
      ],
      "name": "safeTransferFrom",
      "outputs": [],
      "stateMutability": "nonpayable",
      "type": "function"
    },
    {
      "inputs": [
        {
          "internalType": "address",
          "name": "from",
          "type": "address"
        },
        {
          "internalType": "address",
          "name": "to",
          "type": "address"
        },
        {
          "internalType": "uint256",
          "name": "tokenId",
          "type": "uint256"
        },
        {
          "internalType": "bytes",
          "name": "_data",
          "type": "bytes"
        }
      ],
      "name": "safeTransferFrom",
      "outputs": [],
      "stateMutability": "nonpayable",
      "type": "function"
    },
    {
      "inputs": [
        {
          "internalType": "address",
          "name": "operator",
          "type": "address"
        },
        {
          "internalType": "bool",
          "name": "approved",
          "type": "bool"
        }
      ],
      "name": "setApprovalForAll",
      "outputs": [],
      "stateMutability": "nonpayable",
      "type": "function"
    },
    {
      "inputs": [
        {
          "internalType": "address",
          "name": "_curatorWallet",
          "type": "address"
        },
        {
          "internalType": "string",
          "name": "_mediaURI",
          "type": "string"
        },
        {
          "internalType": "string",
          "name": "_marketplace",
          "type": "string"
        },
        {
          "internalType": "string[]",
          "name": "_tags",
          "type": "string[]"
        },
        {
          "internalType": "string",
          "name": "_artistName",
          "type": "string"
        },
        {
          "internalType": "address",
          "name": "_artistWallet",
          "type": "address"
        },
        {
          "internalType": "string",
          "name": "_mediaType",
          "type": "string"
        },
        {
          "internalType": "string",
          "name": "_mediaTitle",
          "type": "string"
        },
        {
          "internalType": "string",
          "name": "_tokenURI",
          "type": "string"
        }
      ],
      "name": "submitPost",
      "outputs": [],
      "stateMutability": "nonpayable",
      "type": "function"
    },
    {
      "inputs": [
        {
          "internalType": "bytes4",
          "name": "interfaceId",
          "type": "bytes4"
        }
      ],
      "name": "supportsInterface",
      "outputs": [
        {
          "internalType": "bool",
          "name": "",
          "type": "bool"
        }
      ],
      "stateMutability": "view",
      "type": "function"
    },
    {
      "inputs": [],
      "name": "symbol",
      "outputs": [
        {
          "internalType": "string",
          "name": "",
          "type": "string"
        }
      ],
      "stateMutability": "view",
      "type": "function"
    },
    {
      "inputs": [
        {
          "internalType": "uint256",
          "name": "",
          "type": "uint256"
        }
      ],
      "name": "tokenToSong",
      "outputs": [
        {
          "internalType": "uint256",
          "name": "",
          "type": "uint256"
        }
      ],
      "stateMutability": "view",
      "type": "function"
    },
    {
      "inputs": [
        {
          "internalType": "uint256",
          "name": "_tokenId",
          "type": "uint256"
        }
      ],
      "name": "tokenURI",
      "outputs": [
        {
          "internalType": "string",
          "name": "",
          "type": "string"
        }
      ],
      "stateMutability": "view",
      "type": "function"
    },
    {
      "inputs": [
        {
          "internalType": "address",
          "name": "from",
          "type": "address"
        },
        {
          "internalType": "address",
          "name": "to",
          "type": "address"
        },
        {
          "internalType": "uint256",
          "name": "tokenId",
          "type": "uint256"
        }
      ],
      "name": "transferFrom",
      "outputs": [],
      "stateMutability": "nonpayable",
      "type": "function"
    },
    {
      "inputs": [
        {
          "internalType": "address",
          "name": "newOwner",
          "type": "address"
        }
      ],
      "name": "transferOwnership",
      "outputs": [],
      "stateMutability": "nonpayable",
      "type": "function"
    },
    {
      "inputs": [
        {
          "internalType": "uint256",
          "name": "",
          "type": "uint256"
        }
      ],
      "name": "withdrawnForEdition",
      "outputs": [
        {
          "internalType": "uint256",
          "name": "",
          "type": "uint256"
        }
      ],
      "stateMutability": "view",
      "type": "function"
    }
  ],
  "bytecode": "0x608060405260016009553480156200001657600080fd5b506040518060400160405280600781526020017f636f6e74656e74000000000000000000000000000000000000000000000000008152506040518060400160405280600481526020017f534f4e470000000000000000000000000000000000000000000000000000000081525081600090805190602001906200009b929190620001d8565b508060019080519060200190620000b4929190620001d8565b505050620000d7620000cb620000f460201b60201c565b620000fc60201b60201c565b620000ee6008620001c260201b62002cfe1760201c565b620002ed565b600033905090565b6000600660009054906101000a900473ffffffffffffffffffffffffffffffffffffffff16905081600660006101000a81548173ffffffffffffffffffffffffffffffffffffffff021916908373ffffffffffffffffffffffffffffffffffffffff1602179055508173ffffffffffffffffffffffffffffffffffffffff168173ffffffffffffffffffffffffffffffffffffffff167f8be0079c531659141344cd1fd0a4f28419497f9722a3daafe3b4186f6b6457e060405160405180910390a35050565b6001816000016000828254019250508190555050565b828054620001e69062000288565b90600052602060002090601f0160209004810192826200020a576000855562000256565b82601f106200022557805160ff191683800117855562000256565b8280016001018555821562000256579182015b828111156200025557825182559160200191906001019062000238565b5b50905062000265919062000269565b5090565b5b80821115620002845760008160009055506001016200026a565b5090565b60006002820490506001821680620002a157607f821691505b60208210811415620002b857620002b7620002be565b5b50919050565b7f4e487b7100000000000000000000000000000000000000000000000000000000600052602260045260246000fd5b6151da80620002fd6000396000f3fe6080604052600436106101815760003560e01c806370a08231116100d1578063a22cb4651161008a578063d3bb052811610064578063d3bb0528146105bb578063e2b18d3f146105f8578063e985e9c514610635578063f2fde38b1461067257610181565b8063a22cb4651461052c578063b88d4fde14610555578063c87b56dd1461057e57610181565b806370a082311461041a578063715018a6146104575780637df124a11461046e5780638da5cb5b146104ab57806395d89b41146104d657806397e9a0bf1461050157610181565b806323b872dd1161013e57806353301ecf1161011857806353301ecf1461034c57806357954dd1146103895780636352211e146103b45780636b165854146103f157610181565b806323b872dd146102b5578063279c806e146102de57806342842e0e1461032357610181565b806301ffc9a71461018657806305322b74146101c357806306fdde03146101df578063081812fc1461020a578063095ea7b3146102475780631125c32014610270575b600080fd5b34801561019257600080fd5b506101ad60048036038101906101a89190613fa5565b61069b565b6040516101ba9190614679565b60405180910390f35b6101dd60048036038101906101d89190613ff7565b61077d565b005b3480156101eb57600080fd5b506101f4610952565b6040516102019190614694565b60405180910390f35b34801561021657600080fd5b50610231600480360381019061022c9190613ff7565b6109e4565b60405161023e9190614539565b60405180910390f35b34801561025357600080fd5b5061026e60048036038101906102699190613f69565b610a69565b005b34801561027c57600080fd5b5061029760048036038101906102929190613f69565b610b81565b6040516102ac99989796959493929190614554565b60405180910390f35b3480156102c157600080fd5b506102dc60048036038101906102d79190613cf5565b610f5c565b005b3480156102ea57600080fd5b5061030560048036038101906103009190613ff7565b610fbc565b60405161031a99989796959493929190614554565b60405180910390f35b34801561032f57600080fd5b5061034a60048036038101906103459190613cf5565b61137a565b005b34801561035857600080fd5b50610373600480360381019061036e9190613c90565b61139a565b6040516103809190614657565b60405180910390f35b34801561039557600080fd5b5061039e611934565b6040516103ab9190614657565b60405180910390f35b3480156103c057600080fd5b506103db60048036038101906103d69190613ff7565b611e8f565b6040516103e89190614539565b60405180910390f35b3480156103fd57600080fd5b5061041860048036038101906104139190613dfb565b611f41565b005b34801561042657600080fd5b50610441600480360381019061043c9190613c90565b61236f565b60405161044e91906148db565b60405180910390f35b34801561046357600080fd5b5061046c612427565b005b34801561047a57600080fd5b5061049560048036038101906104909190613c90565b6124af565b6040516104a291906148db565b60405180910390f35b3480156104b757600080fd5b506104c06124c7565b6040516104cd9190614539565b60405180910390f35b3480156104e257600080fd5b506104eb6124f1565b6040516104f89190614694565b60405180910390f35b34801561050d57600080fd5b50610516612583565b60405161052391906148db565b60405180910390f35b34801561053857600080fd5b50610553600480360381019061054e9190613dbf565b612589565b005b34801561056157600080fd5b5061057c60048036038101906105779190613d44565b61259f565b005b34801561058a57600080fd5b506105a560048036038101906105a09190613ff7565b612601565b6040516105b29190614694565b60405180910390f35b3480156105c757600080fd5b506105e260048036038101906105dd9190613ff7565b612b42565b6040516105ef91906148db565b60405180910390f35b34801561060457600080fd5b5061061f600480360381019061061a9190613ff7565b612b5a565b60405161062c91906148db565b60405180910390f35b34801561064157600080fd5b5061065c60048036038101906106579190613cb9565b612b72565b6040516106699190614679565b60405180910390f35b34801561067e57600080fd5b5061069960048036038101906106949190613c90565b612c06565b005b60007f80ac58cd000000000000000000000000000000000000000000000000000000007bffffffffffffffffffffffffffffffffffffffffffffffffffffffff1916827bffffffffffffffffffffffffffffffffffffffffffffffffffffffff1916148061076657507f5b5e139f000000000000000000000000000000000000000000000000000000007bffffffffffffffffffffffffffffffffffffffffffffffffffffffff1916827bffffffffffffffffffffffffffffffffffffffffffffffffffffffff1916145b80610776575061077582612d14565b5b9050919050565b60006107896008612d7e565b90506107953382612d8c565b61085660405180606001604052806028815260200161517d60289139600b600085815260200190815260200160002060070180546107d290614bcd565b80601f01602080910402602001604051908101604052809291908181526020018280546107fe90614bcd565b801561084b5780601f106108205761010080835404028352916020019161084b565b820191906000526020600020905b81548152906001019060200180831161082e57829003601f168201915b505050505083612daa565b80600c60003373ffffffffffffffffffffffffffffffffffffffff1673ffffffffffffffffffffffffffffffffffffffff168152602001908152602001600020819055506108a46008612cfe565b600b600083815260200190815260200160002060080160008154809291906108cb90614c30565b919050555081600f6000838152602001908152602001600020819055503373ffffffffffffffffffffffffffffffffffffffff167fe1b60c9e07632933648666e5ede8b3b329ddfa2ab98c51b1a5b4b22ab4f1349c82600b6000868152602001908152602001600020600801546040516109469291906148f6565b60405180910390a25050565b60606000805461096190614bcd565b80601f016020809104026020016040519081016040528092919081815260200182805461098d90614bcd565b80156109da5780601f106109af576101008083540402835291602001916109da565b820191906000526020600020905b8154815290600101906020018083116109bd57829003601f168201915b5050505050905090565b60006109ef82612e49565b610a2e576040517f08c379a0000000000000000000000000000000000000000000000000000000008152600401610a259061483b565b60405180910390fd5b6004600083815260200190815260200160002060009054906101000a900473ffffffffffffffffffffffffffffffffffffffff169050919050565b6000610a7482611e8f565b90508073ffffffffffffffffffffffffffffffffffffffff168373ffffffffffffffffffffffffffffffffffffffff161415610ae5576040517f08c379a0000000000000000000000000000000000000000000000000000000008152600401610adc9061489b565b60405180910390fd5b8073ffffffffffffffffffffffffffffffffffffffff16610b04612eb5565b73ffffffffffffffffffffffffffffffffffffffff161480610b335750610b3281610b2d612eb5565b612b72565b5b610b72576040517f08c379a0000000000000000000000000000000000000000000000000000000008152600401610b69906147bb565b60405180910390fd5b610b7c8383612ebd565b505050565b600d6020528160005260406000208181548110610b9d57600080fd5b90600052602060002090600a0201600091509150508060000160009054906101000a900473ffffffffffffffffffffffffffffffffffffffff16908060010160009054906101000a900473ffffffffffffffffffffffffffffffffffffffff1690806002018054610c0d90614bcd565b80601f0160208091040260200160405190810160405280929190818152602001828054610c3990614bcd565b8015610c865780601f10610c5b57610100808354040283529160200191610c86565b820191906000526020600020905b815481529060010190602001808311610c6957829003601f168201915b505050505090806003018054610c9b90614bcd565b80601f0160208091040260200160405190810160405280929190818152602001828054610cc790614bcd565b8015610d145780601f10610ce957610100808354040283529160200191610d14565b820191906000526020600020905b815481529060010190602001808311610cf757829003601f168201915b505050505090806005018054610d2990614bcd565b80601f0160208091040260200160405190810160405280929190818152602001828054610d5590614bcd565b8015610da25780601f10610d7757610100808354040283529160200191610da2565b820191906000526020600020905b815481529060010190602001808311610d8557829003601f168201915b505050505090806006018054610db790614bcd565b80601f0160208091040260200160405190810160405280929190818152602001828054610de390614bcd565b8015610e305780601f10610e0557610100808354040283529160200191610e30565b820191906000526020600020905b815481529060010190602001808311610e1357829003601f168201915b505050505090806007018054610e4590614bcd565b80601f0160208091040260200160405190810160405280929190818152602001828054610e7190614bcd565b8015610ebe5780601f10610e9357610100808354040283529160200191610ebe565b820191906000526020600020905b815481529060010190602001808311610ea157829003601f168201915b505050505090806008015490806009018054610ed990614bcd565b80601f0160208091040260200160405190810160405280929190818152602001828054610f0590614bcd565b8015610f525780601f10610f2757610100808354040283529160200191610f52565b820191906000526020600020905b815481529060010190602001808311610f3557829003601f168201915b5050505050905089565b610f6d610f67612eb5565b82612f76565b610fac576040517f08c379a0000000000000000000000000000000000000000000000000000000008152600401610fa3906148bb565b60405180910390fd5b610fb7838383613054565b505050565b600b6020528060005260406000206000915090508060000160009054906101000a900473ffffffffffffffffffffffffffffffffffffffff16908060010160009054906101000a900473ffffffffffffffffffffffffffffffffffffffff169080600201805461102b90614bcd565b80601f016020809104026020016040519081016040528092919081815260200182805461105790614bcd565b80156110a45780601f10611079576101008083540402835291602001916110a4565b820191906000526020600020905b81548152906001019060200180831161108757829003601f168201915b5050505050908060030180546110b990614bcd565b80601f01602080910402602001604051908101604052809291908181526020018280546110e590614bcd565b80156111325780601f1061110757610100808354040283529160200191611132565b820191906000526020600020905b81548152906001019060200180831161111557829003601f168201915b50505050509080600501805461114790614bcd565b80601f016020809104026020016040519081016040528092919081815260200182805461117390614bcd565b80156111c05780601f10611195576101008083540402835291602001916111c0565b820191906000526020600020905b8154815290600101906020018083116111a357829003601f168201915b5050505050908060060180546111d590614bcd565b80601f016020809104026020016040519081016040528092919081815260200182805461120190614bcd565b801561124e5780601f106112235761010080835404028352916020019161124e565b820191906000526020600020905b81548152906001019060200180831161123157829003601f168201915b50505050509080600701805461126390614bcd565b80601f016020809104026020016040519081016040528092919081815260200182805461128f90614bcd565b80156112dc5780601f106112b1576101008083540402835291602001916112dc565b820191906000526020600020905b8154815290600101906020018083116112bf57829003601f168201915b5050505050908060080154908060090180546112f790614bcd565b80601f016020809104026020016040519081016040528092919081815260200182805461132390614bcd565b80156113705780601f1061134557610100808354040283529160200191611370565b820191906000526020600020905b81548152906001019060200180831161135357829003601f168201915b5050505050905089565b6113958383836040518060200160405280600081525061259f565b505050565b6060600d60008373ffffffffffffffffffffffffffffffffffffffff1673ffffffffffffffffffffffffffffffffffffffff168152602001908152602001600020805480602002602001604051908101604052809291908181526020016000905b8282101561192957838290600052602060002090600a0201604051806101400160405290816000820160009054906101000a900473ffffffffffffffffffffffffffffffffffffffff1673ffffffffffffffffffffffffffffffffffffffff1673ffffffffffffffffffffffffffffffffffffffff1681526020016001820160009054906101000a900473ffffffffffffffffffffffffffffffffffffffff1673ffffffffffffffffffffffffffffffffffffffff1673ffffffffffffffffffffffffffffffffffffffff1681526020016002820180546114db90614bcd565b80601f016020809104026020016040519081016040528092919081815260200182805461150790614bcd565b80156115545780601f1061152957610100808354040283529160200191611554565b820191906000526020600020905b81548152906001019060200180831161153757829003601f168201915b5050505050815260200160038201805461156d90614bcd565b80601f016020809104026020016040519081016040528092919081815260200182805461159990614bcd565b80156115e65780601f106115bb576101008083540402835291602001916115e6565b820191906000526020600020905b8154815290600101906020018083116115c957829003601f168201915b5050505050815260200160048201805480602002602001604051908101604052809291908181526020016000905b828210156116c057838290600052602060002001805461163390614bcd565b80601f016020809104026020016040519081016040528092919081815260200182805461165f90614bcd565b80156116ac5780601f10611681576101008083540402835291602001916116ac565b820191906000526020600020905b81548152906001019060200180831161168f57829003601f168201915b505050505081526020019060010190611614565b5050505081526020016005820180546116d890614bcd565b80601f016020809104026020016040519081016040528092919081815260200182805461170490614bcd565b80156117515780601f1061172657610100808354040283529160200191611751565b820191906000526020600020905b81548152906001019060200180831161173457829003601f168201915b5050505050815260200160068201805461176a90614bcd565b80601f016020809104026020016040519081016040528092919081815260200182805461179690614bcd565b80156117e35780601f106117b8576101008083540402835291602001916117e3565b820191906000526020600020905b8154815290600101906020018083116117c657829003601f168201915b505050505081526020016007820180546117fc90614bcd565b80601f016020809104026020016040519081016040528092919081815260200182805461182890614bcd565b80156118755780601f1061184a57610100808354040283529160200191611875565b820191906000526020600020905b81548152906001019060200180831161185857829003601f168201915b505050505081526020016008820154815260200160098201805461189890614bcd565b80601f01602080910402602001604051908101604052809291908181526020018280546118c490614bcd565b80156119115780601f106118e657610100808354040283529160200191611911565b820191906000526020600020905b8154815290600101906020018083116118f457829003601f168201915b505050505081525050815260200190600101906113fb565b505050509050919050565b6060600a805480602002602001604051908101604052809291908181526020016000905b82821015611e8657838290600052602060002090600a0201604051806101400160405290816000820160009054906101000a900473ffffffffffffffffffffffffffffffffffffffff1673ffffffffffffffffffffffffffffffffffffffff1673ffffffffffffffffffffffffffffffffffffffff1681526020016001820160009054906101000a900473ffffffffffffffffffffffffffffffffffffffff1673ffffffffffffffffffffffffffffffffffffffff1673ffffffffffffffffffffffffffffffffffffffff168152602001600282018054611a3890614bcd565b80601f0160208091040260200160405190810160405280929190818152602001828054611a6490614bcd565b8015611ab15780601f10611a8657610100808354040283529160200191611ab1565b820191906000526020600020905b815481529060010190602001808311611a9457829003601f168201915b50505050508152602001600382018054611aca90614bcd565b80601f0160208091040260200160405190810160405280929190818152602001828054611af690614bcd565b8015611b435780601f10611b1857610100808354040283529160200191611b43565b820191906000526020600020905b815481529060010190602001808311611b2657829003601f168201915b5050505050815260200160048201805480602002602001604051908101604052809291908181526020016000905b82821015611c1d578382906000526020600020018054611b9090614bcd565b80601f0160208091040260200160405190810160405280929190818152602001828054611bbc90614bcd565b8015611c095780601f10611bde57610100808354040283529160200191611c09565b820191906000526020600020905b815481529060010190602001808311611bec57829003601f168201915b505050505081526020019060010190611b71565b505050508152602001600582018054611c3590614bcd565b80601f0160208091040260200160405190810160405280929190818152602001828054611c6190614bcd565b8015611cae5780601f10611c8357610100808354040283529160200191611cae565b820191906000526020600020905b815481529060010190602001808311611c9157829003601f168201915b50505050508152602001600682018054611cc790614bcd565b80601f0160208091040260200160405190810160405280929190818152602001828054611cf390614bcd565b8015611d405780601f10611d1557610100808354040283529160200191611d40565b820191906000526020600020905b815481529060010190602001808311611d2357829003601f168201915b50505050508152602001600782018054611d5990614bcd565b80601f0160208091040260200160405190810160405280929190818152602001828054611d8590614bcd565b8015611dd25780601f10611da757610100808354040283529160200191611dd2565b820191906000526020600020905b815481529060010190602001808311611db557829003601f168201915b5050505050815260200160088201548152602001600982018054611df590614bcd565b80601f0160208091040260200160405190810160405280929190818152602001828054611e2190614bcd565b8015611e6e5780601f10611e4357610100808354040283529160200191611e6e565b820191906000526020600020905b815481529060010190602001808311611e5157829003601f168201915b50505050508152505081526020019060010190611958565b50505050905090565b6000806002600084815260200190815260200160002060009054906101000a900473ffffffffffffffffffffffffffffffffffffffff169050600073ffffffffffffffffffffffffffffffffffffffff168173ffffffffffffffffffffffffffffffffffffffff161415611f38576040517f08c379a0000000000000000000000000000000000000000000000000000000008152600401611f2f906147fb565b60405180910390fd5b80915050919050565b60006040518061014001604052808b73ffffffffffffffffffffffffffffffffffffffff1681526020018673ffffffffffffffffffffffffffffffffffffffff1681526020018a81526020018981526020018881526020018781526020018581526020018481526020016000815260200183815250905080600b6000600954815260200190815260200160002060008201518160000160006101000a81548173ffffffffffffffffffffffffffffffffffffffff021916908373ffffffffffffffffffffffffffffffffffffffff16021790555060208201518160010160006101000a81548173ffffffffffffffffffffffffffffffffffffffff021916908373ffffffffffffffffffffffffffffffffffffffff1602179055506040820151816002019080519060200190612078929190613940565b506060820151816003019080519060200190612095929190613940565b5060808201518160040190805190602001906120b29291906139c6565b5060a08201518160050190805190602001906120cf929190613940565b5060c08201518160060190805190602001906120ec929190613940565b5060e0820151816007019080519060200190612109929190613940565b506101008201518160080155610120820151816009019080519060200190612132929190613940565b50905050600d60008b73ffffffffffffffffffffffffffffffffffffffff1673ffffffffffffffffffffffffffffffffffffffff1681526020019081526020016000208190806001815401808255809150506001900390600052602060002090600a020160009091909190915060008201518160000160006101000a81548173ffffffffffffffffffffffffffffffffffffffff021916908373ffffffffffffffffffffffffffffffffffffffff16021790555060208201518160010160006101000a81548173ffffffffffffffffffffffffffffffffffffffff021916908373ffffffffffffffffffffffffffffffffffffffff1602179055506040820151816002019080519060200190612249929190613940565b506060820151816003019080519060200190612266929190613940565b5060808201518160040190805190602001906122839291906139c6565b5060a08201518160050190805190602001906122a0929190613940565b5060c08201518160060190805190602001906122bd929190613940565b5060e08201518160070190805190602001906122da929190613940565b506101008201518160080155610120820151816009019080519060200190612303929190613940565b5050506009547fa1cd98301e2a758f45871102b368fdcf3f56e13f8e8fd2886523ac87ca066ce0336040516123389190614539565b60405180910390a261234b60095461077d565b6009600081548092919061235e90614c30565b919050555050505050505050505050565b60008073ffffffffffffffffffffffffffffffffffffffff168273ffffffffffffffffffffffffffffffffffffffff1614156123e0576040517f08c379a00000000000000000000000000000000000000000000000000000000081526004016123d7906147db565b60405180910390fd5b600360008373ffffffffffffffffffffffffffffffffffffffff1673ffffffffffffffffffffffffffffffffffffffff168152602001908152602001600020549050919050565b61242f612eb5565b73ffffffffffffffffffffffffffffffffffffffff1661244d6124c7565b73ffffffffffffffffffffffffffffffffffffffff16146124a3576040517f08c379a000000000000000000000000000000000000000000000000000000000815260040161249a9061485b565b60405180910390fd5b6124ad60006132b0565b565b600c6020528060005260406000206000915090505481565b6000600660009054906101000a900473ffffffffffffffffffffffffffffffffffffffff16905090565b60606001805461250090614bcd565b80601f016020809104026020016040519081016040528092919081815260200182805461252c90614bcd565b80156125795780601f1061254e57610100808354040283529160200191612579565b820191906000526020600020905b81548152906001019060200180831161255c57829003601f168201915b5050505050905090565b60075481565b61259b612594612eb5565b8383613376565b5050565b6125b06125aa612eb5565b83612f76565b6125ef576040517f08c379a00000000000000000000000000000000000000000000000000000000081526004016125e6906148bb565b60405180910390fd5b6125fb848484846134e3565b50505050565b60606000600b6000600f6000868152602001908152602001600020548152602001908152602001600020604051806101400160405290816000820160009054906101000a900473ffffffffffffffffffffffffffffffffffffffff1673ffffffffffffffffffffffffffffffffffffffff1673ffffffffffffffffffffffffffffffffffffffff1681526020016001820160009054906101000a900473ffffffffffffffffffffffffffffffffffffffff1673ffffffffffffffffffffffffffffffffffffffff1673ffffffffffffffffffffffffffffffffffffffff1681526020016002820180546126f390614bcd565b80601f016020809104026020016040519081016040528092919081815260200182805461271f90614bcd565b801561276c5780601f106127415761010080835404028352916020019161276c565b820191906000526020600020905b81548152906001019060200180831161274f57829003601f168201915b5050505050815260200160038201805461278590614bcd565b80601f01602080910402602001604051908101604052809291908181526020018280546127b190614bcd565b80156127fe5780601f106127d3576101008083540402835291602001916127fe565b820191906000526020600020905b8154815290600101906020018083116127e157829003601f168201915b5050505050815260200160048201805480602002602001604051908101604052809291908181526020016000905b828210156128d857838290600052602060002001805461284b90614bcd565b80601f016020809104026020016040519081016040528092919081815260200182805461287790614bcd565b80156128c45780601f10612899576101008083540402835291602001916128c4565b820191906000526020600020905b8154815290600101906020018083116128a757829003601f168201915b50505050508152602001906001019061282c565b5050505081526020016005820180546128f090614bcd565b80601f016020809104026020016040519081016040528092919081815260200182805461291c90614bcd565b80156129695780601f1061293e57610100808354040283529160200191612969565b820191906000526020600020905b81548152906001019060200180831161294c57829003601f168201915b5050505050815260200160068201805461298290614bcd565b80601f01602080910402602001604051908101604052809291908181526020018280546129ae90614bcd565b80156129fb5780601f106129d0576101008083540402835291602001916129fb565b820191906000526020600020905b8154815290600101906020018083116129de57829003601f168201915b50505050508152602001600782018054612a1490614bcd565b80601f0160208091040260200160405190810160405280929190818152602001828054612a4090614bcd565b8015612a8d5780601f10612a6257610100808354040283529160200191612a8d565b820191906000526020600020905b815481529060010190602001808311612a7057829003601f168201915b5050505050815260200160088201548152602001600982018054612ab090614bcd565b80601f0160208091040260200160405190810160405280929190818152602001828054612adc90614bcd565b8015612b295780601f10612afe57610100808354040283529160200191612b29565b820191906000526020600020905b815481529060010190602001808311612b0c57829003601f168201915b5050505050815250509050806101200151915050919050565b600e6020528060005260406000206000915090505481565b600f6020528060005260406000206000915090505481565b6000600560008473ffffffffffffffffffffffffffffffffffffffff1673ffffffffffffffffffffffffffffffffffffffff16815260200190815260200160002060008373ffffffffffffffffffffffffffffffffffffffff1673ffffffffffffffffffffffffffffffffffffffff16815260200190815260200160002060009054906101000a900460ff16905092915050565b612c0e612eb5565b73ffffffffffffffffffffffffffffffffffffffff16612c2c6124c7565b73ffffffffffffffffffffffffffffffffffffffff1614612c82576040517f08c379a0000000000000000000000000000000000000000000000000000000008152600401612c799061485b565b60405180910390fd5b600073ffffffffffffffffffffffffffffffffffffffff168173ffffffffffffffffffffffffffffffffffffffff161415612cf2576040517f08c379a0000000000000000000000000000000000000000000000000000000008152600401612ce99061471b565b60405180910390fd5b612cfb816132b0565b50565b6001816000016000828254019250508190555050565b60007f01ffc9a7000000000000000000000000000000000000000000000000000000007bffffffffffffffffffffffffffffffffffffffffffffffffffffffff1916827bffffffffffffffffffffffffffffffffffffffffffffffffffffffff1916149050919050565b600081600001549050919050565b612da682826040518060200160405280600081525061353f565b5050565b612e44838383604051602401612dc2939291906146b6565b6040516020818303038152906040527ff362ca59000000000000000000000000000000000000000000000000000000007bffffffffffffffffffffffffffffffffffffffffffffffffffffffff19166020820180517bffffffffffffffffffffffffffffffffffffffffffffffffffffffff838183161783525050505061359a565b505050565b60008073ffffffffffffffffffffffffffffffffffffffff166002600084815260200190815260200160002060009054906101000a900473ffffffffffffffffffffffffffffffffffffffff1673ffffffffffffffffffffffffffffffffffffffff1614159050919050565b600033905090565b816004600083815260200190815260200160002060006101000a81548173ffffffffffffffffffffffffffffffffffffffff021916908373ffffffffffffffffffffffffffffffffffffffff160217905550808273ffffffffffffffffffffffffffffffffffffffff16612f3083611e8f565b73ffffffffffffffffffffffffffffffffffffffff167f8c5be1e5ebec7d5bd14f71427d1e84f3dd0314c0f7b2291e5b200ac8c7c3b92560405160405180910390a45050565b6000612f8182612e49565b612fc0576040517f08c379a0000000000000000000000000000000000000000000000000000000008152600401612fb79061479b565b60405180910390fd5b6000612fcb83611e8f565b90508073ffffffffffffffffffffffffffffffffffffffff168473ffffffffffffffffffffffffffffffffffffffff16148061303a57508373ffffffffffffffffffffffffffffffffffffffff16613022846109e4565b73ffffffffffffffffffffffffffffffffffffffff16145b8061304b575061304a8185612b72565b5b91505092915050565b8273ffffffffffffffffffffffffffffffffffffffff1661307482611e8f565b73ffffffffffffffffffffffffffffffffffffffff16146130ca576040517f08c379a00000000000000000000000000000000000000000000000000000000081526004016130c19061487b565b60405180910390fd5b600073ffffffffffffffffffffffffffffffffffffffff168273ffffffffffffffffffffffffffffffffffffffff16141561313a576040517f08c379a00000000000000000000000000000000000000000000000000000000081526004016131319061475b565b60405180910390fd5b6131458383836135c3565b613150600082612ebd565b6001600360008573ffffffffffffffffffffffffffffffffffffffff1673ffffffffffffffffffffffffffffffffffffffff16815260200190815260200160002060008282546131a09190614ae3565b925050819055506001600360008473ffffffffffffffffffffffffffffffffffffffff1673ffffffffffffffffffffffffffffffffffffffff16815260200190815260200160002060008282546131f79190614a8d565b92505081905550816002600083815260200190815260200160002060006101000a81548173ffffffffffffffffffffffffffffffffffffffff021916908373ffffffffffffffffffffffffffffffffffffffff160217905550808273ffffffffffffffffffffffffffffffffffffffff168473ffffffffffffffffffffffffffffffffffffffff167fddf252ad1be2c89b69c2b068fc378daa952ba7f163c4a11628f55a4df523b3ef60405160405180910390a4505050565b6000600660009054906101000a900473ffffffffffffffffffffffffffffffffffffffff16905081600660006101000a81548173ffffffffffffffffffffffffffffffffffffffff021916908373ffffffffffffffffffffffffffffffffffffffff1602179055508173ffffffffffffffffffffffffffffffffffffffff168173ffffffffffffffffffffffffffffffffffffffff167f8be0079c531659141344cd1fd0a4f28419497f9722a3daafe3b4186f6b6457e060405160405180910390a35050565b8173ffffffffffffffffffffffffffffffffffffffff168373ffffffffffffffffffffffffffffffffffffffff1614156133e5576040517f08c379a00000000000000000000000000000000000000000000000000000000081526004016133dc9061477b565b60405180910390fd5b80600560008573ffffffffffffffffffffffffffffffffffffffff1673ffffffffffffffffffffffffffffffffffffffff16815260200190815260200160002060008473ffffffffffffffffffffffffffffffffffffffff1673ffffffffffffffffffffffffffffffffffffffff16815260200190815260200160002060006101000a81548160ff0219169083151502179055508173ffffffffffffffffffffffffffffffffffffffff168373ffffffffffffffffffffffffffffffffffffffff167f17307eab39ab6107e8899845ad3d59bd9653f200f220920489ca2b5937696c31836040516134d69190614679565b60405180910390a3505050565b6134ee848484613054565b6134fa848484846135c8565b613539576040517f08c379a0000000000000000000000000000000000000000000000000000000008152600401613530906146fb565b60405180910390fd5b50505050565b613549838361375f565b61355660008484846135c8565b613595576040517f08c379a000000000000000000000000000000000000000000000000000000000815260040161358c906146fb565b60405180910390fd5b505050565b60008151905060006a636f6e736f6c652e6c6f679050602083016000808483855afa5050505050565b505050565b60006135e98473ffffffffffffffffffffffffffffffffffffffff1661392d565b15613752578373ffffffffffffffffffffffffffffffffffffffff1663150b7a02613612612eb5565b8786866040518563ffffffff1660e01b8152600401613634949392919061460b565b602060405180830381600087803b15801561364e57600080fd5b505af192505050801561367f57506040513d601f19601f8201168201806040525081019061367c9190613fce565b60015b613702573d80600081146136af576040519150601f19603f3d011682016040523d82523d6000602084013e6136b4565b606091505b506000815114156136fa576040517f08c379a00000000000000000000000000000000000000000000000000000000081526004016136f1906146fb565b60405180910390fd5b805181602001fd5b63150b7a0260e01b7bffffffffffffffffffffffffffffffffffffffffffffffffffffffff1916817bffffffffffffffffffffffffffffffffffffffffffffffffffffffff191614915050613757565b600190505b949350505050565b600073ffffffffffffffffffffffffffffffffffffffff168273ffffffffffffffffffffffffffffffffffffffff1614156137cf576040517f08c379a00000000000000000000000000000000000000000000000000000000081526004016137c69061481b565b60405180910390fd5b6137d881612e49565b15613818576040517f08c379a000000000000000000000000000000000000000000000000000000000815260040161380f9061473b565b60405180910390fd5b613824600083836135c3565b6001600360008473ffffffffffffffffffffffffffffffffffffffff1673ffffffffffffffffffffffffffffffffffffffff16815260200190815260200160002060008282546138749190614a8d565b92505081905550816002600083815260200190815260200160002060006101000a81548173ffffffffffffffffffffffffffffffffffffffff021916908373ffffffffffffffffffffffffffffffffffffffff160217905550808273ffffffffffffffffffffffffffffffffffffffff16600073ffffffffffffffffffffffffffffffffffffffff167fddf252ad1be2c89b69c2b068fc378daa952ba7f163c4a11628f55a4df523b3ef60405160405180910390a45050565b600080823b905060008111915050919050565b82805461394c90614bcd565b90600052602060002090601f01602090048101928261396e57600085556139b5565b82601f1061398757805160ff19168380011785556139b5565b828001600101855582156139b5579182015b828111156139b4578251825591602001919060010190613999565b5b5090506139c29190613a26565b5090565b828054828255906000526020600020908101928215613a15579160200282015b82811115613a14578251829080519060200190613a04929190613940565b50916020019190600101906139e6565b5b509050613a229190613a43565b5090565b5b80821115613a3f576000816000905550600101613a27565b5090565b5b80821115613a635760008181613a5a9190613a67565b50600101613a44565b5090565b508054613a7390614bcd565b6000825580601f10613a855750613aa4565b601f016020900490600052602060002090810190613aa39190613a26565b5b50565b6000613aba613ab584614944565b61491f565b90508083825260208201905082856020860282011115613ad957600080fd5b60005b85811015613b2357813567ffffffffffffffff811115613afb57600080fd5b808601613b088982613c51565b85526020850194506020840193505050600181019050613adc565b5050509392505050565b6000613b40613b3b84614970565b61491f565b905082815260208101848484011115613b5857600080fd5b613b63848285614b8b565b509392505050565b6000613b7e613b79846149a1565b61491f565b905082815260208101848484011115613b9657600080fd5b613ba1848285614b8b565b509392505050565b600081359050613bb881615120565b92915050565b600082601f830112613bcf57600080fd5b8135613bdf848260208601613aa7565b91505092915050565b600081359050613bf781615137565b92915050565b600081359050613c0c8161514e565b92915050565b600081519050613c218161514e565b92915050565b600082601f830112613c3857600080fd5b8135613c48848260208601613b2d565b91505092915050565b600082601f830112613c6257600080fd5b8135613c72848260208601613b6b565b91505092915050565b600081359050613c8a81615165565b92915050565b600060208284031215613ca257600080fd5b6000613cb084828501613ba9565b91505092915050565b60008060408385031215613ccc57600080fd5b6000613cda85828601613ba9565b9250506020613ceb85828601613ba9565b9150509250929050565b600080600060608486031215613d0a57600080fd5b6000613d1886828701613ba9565b9350506020613d2986828701613ba9565b9250506040613d3a86828701613c7b565b9150509250925092565b60008060008060808587031215613d5a57600080fd5b6000613d6887828801613ba9565b9450506020613d7987828801613ba9565b9350506040613d8a87828801613c7b565b925050606085013567ffffffffffffffff811115613da757600080fd5b613db387828801613c27565b91505092959194509250565b60008060408385031215613dd257600080fd5b6000613de085828601613ba9565b9250506020613df185828601613be8565b9150509250929050565b60008060008060008060008060006101208a8c031215613e1a57600080fd5b6000613e288c828d01613ba9565b99505060208a013567ffffffffffffffff811115613e4557600080fd5b613e518c828d01613c51565b98505060408a013567ffffffffffffffff811115613e6e57600080fd5b613e7a8c828d01613c51565b97505060608a013567ffffffffffffffff811115613e9757600080fd5b613ea38c828d01613bbe565b96505060808a013567ffffffffffffffff811115613ec057600080fd5b613ecc8c828d01613c51565b95505060a0613edd8c828d01613ba9565b94505060c08a013567ffffffffffffffff811115613efa57600080fd5b613f068c828d01613c51565b93505060e08a013567ffffffffffffffff811115613f2357600080fd5b613f2f8c828d01613c51565b9250506101008a013567ffffffffffffffff811115613f4d57600080fd5b613f598c828d01613c51565b9150509295985092959850929598565b60008060408385031215613f7c57600080fd5b6000613f8a85828601613ba9565b9250506020613f9b85828601613c7b565b9150509250929050565b600060208284031215613fb757600080fd5b6000613fc584828501613bfd565b91505092915050565b600060208284031215613fe057600080fd5b6000613fee84828501613c12565b91505092915050565b60006020828403121561400957600080fd5b600061401784828501613c7b565b91505092915050565b600061402c8383614198565b905092915050565b60006140408383614417565b905092915050565b61405181614b17565b82525050565b61406081614b17565b82525050565b6000614071826149f2565b61407b8185614a38565b93508360208202850161408d856149d2565b8060005b858110156140c957848403895281516140aa8582614020565b94506140b583614a1e565b925060208a01995050600181019050614091565b50829750879550505050505092915050565b60006140e6826149fd565b6140f08185614a49565b935083602082028501614102856149e2565b8060005b8581101561413e578484038952815161411f8582614034565b945061412a83614a2b565b925060208a01995050600181019050614106565b50829750879550505050505092915050565b61415981614b29565b82525050565b600061416a82614a08565b6141748185614a5a565b9350614184818560208601614b9a565b61418d81614d06565b840191505092915050565b60006141a382614a13565b6141ad8185614a6b565b93506141bd818560208601614b9a565b6141c681614d06565b840191505092915050565b60006141dc82614a13565b6141e68185614a7c565b93506141f6818560208601614b9a565b6141ff81614d06565b840191505092915050565b6000614217603283614a7c565b915061422282614d17565b604082019050919050565b600061423a602683614a7c565b915061424582614d66565b604082019050919050565b600061425d601c83614a7c565b915061426882614db5565b602082019050919050565b6000614280602483614a7c565b915061428b82614dde565b604082019050919050565b60006142a3601983614a7c565b91506142ae82614e2d565b602082019050919050565b60006142c6602c83614a7c565b91506142d182614e56565b604082019050919050565b60006142e9603883614a7c565b91506142f482614ea5565b604082019050919050565b600061430c602a83614a7c565b915061431782614ef4565b604082019050919050565b600061432f602983614a7c565b915061433a82614f43565b604082019050919050565b6000614352602083614a7c565b915061435d82614f92565b602082019050919050565b6000614375602c83614a7c565b915061438082614fbb565b604082019050919050565b6000614398602083614a7c565b91506143a38261500a565b602082019050919050565b60006143bb602983614a7c565b91506143c682615033565b604082019050919050565b60006143de602183614a7c565b91506143e982615082565b604082019050919050565b6000614401603183614a7c565b915061440c826150d1565b604082019050919050565b6000610140830160008301516144306000860182614048565b5060208301516144436020860182614048565b506040830151848203604086015261445b8282614198565b915050606083015184820360608601526144758282614198565b9150506080830151848203608086015261448f8282614066565b91505060a083015184820360a08601526144a98282614198565b91505060c083015184820360c08601526144c38282614198565b91505060e083015184820360e08601526144dd8282614198565b9150506101008301516144f461010086018261451b565b5061012083015184820361012086015261450e8282614198565b9150508091505092915050565b61452481614b81565b82525050565b61453381614b81565b82525050565b600060208201905061454e6000830184614057565b92915050565b60006101208201905061456a600083018c614057565b614577602083018b614057565b8181036040830152614589818a6141d1565b9050818103606083015261459d81896141d1565b905081810360808301526145b181886141d1565b905081810360a08301526145c581876141d1565b905081810360c08301526145d981866141d1565b90506145e860e083018561452a565b8181036101008301526145fb81846141d1565b90509a9950505050505050505050565b60006080820190506146206000830187614057565b61462d6020830186614057565b61463a604083018561452a565b818103606083015261464c818461415f565b905095945050505050565b6000602082019050818103600083015261467181846140db565b905092915050565b600060208201905061468e6000830184614150565b92915050565b600060208201905081810360008301526146ae81846141d1565b905092915050565b600060608201905081810360008301526146d081866141d1565b905081810360208301526146e481856141d1565b90506146f3604083018461452a565b949350505050565b600060208201905081810360008301526147148161420a565b9050919050565b600060208201905081810360008301526147348161422d565b9050919050565b6000602082019050818103600083015261475481614250565b9050919050565b6000602082019050818103600083015261477481614273565b9050919050565b6000602082019050818103600083015261479481614296565b9050919050565b600060208201905081810360008301526147b4816142b9565b9050919050565b600060208201905081810360008301526147d4816142dc565b9050919050565b600060208201905081810360008301526147f4816142ff565b9050919050565b6000602082019050818103600083015261481481614322565b9050919050565b6000602082019050818103600083015261483481614345565b9050919050565b6000602082019050818103600083015261485481614368565b9050919050565b600060208201905081810360008301526148748161438b565b9050919050565b60006020820190508181036000830152614894816143ae565b9050919050565b600060208201905081810360008301526148b4816143d1565b9050919050565b600060208201905081810360008301526148d4816143f4565b9050919050565b60006020820190506148f0600083018461452a565b92915050565b600060408201905061490b600083018561452a565b614918602083018461452a565b9392505050565b600061492961493a565b90506149358282614bff565b919050565b6000604051905090565b600067ffffffffffffffff82111561495f5761495e614cd7565b5b602082029050602081019050919050565b600067ffffffffffffffff82111561498b5761498a614cd7565b5b61499482614d06565b9050602081019050919050565b600067ffffffffffffffff8211156149bc576149bb614cd7565b5b6149c582614d06565b9050602081019050919050565b6000819050602082019050919050565b6000819050602082019050919050565b600081519050919050565b600081519050919050565b600081519050919050565b600081519050919050565b6000602082019050919050565b6000602082019050919050565b600082825260208201905092915050565b600082825260208201905092915050565b600082825260208201905092915050565b600082825260208201905092915050565b600082825260208201905092915050565b6000614a9882614b81565b9150614aa383614b81565b9250827fffffffffffffffffffffffffffffffffffffffffffffffffffffffffffffffff03821115614ad857614ad7614c79565b5b828201905092915050565b6000614aee82614b81565b9150614af983614b81565b925082821015614b0c57614b0b614c79565b5b828203905092915050565b6000614b2282614b61565b9050919050565b60008115159050919050565b60007fffffffff0000000000000000000000000000000000000000000000000000000082169050919050565b600073ffffffffffffffffffffffffffffffffffffffff82169050919050565b6000819050919050565b82818337600083830152505050565b60005b83811015614bb8578082015181840152602081019050614b9d565b83811115614bc7576000848401525b50505050565b60006002820490506001821680614be557607f821691505b60208210811415614bf957614bf8614ca8565b5b50919050565b614c0882614d06565b810181811067ffffffffffffffff82111715614c2757614c26614cd7565b5b80604052505050565b6000614c3b82614b81565b91507fffffffffffffffffffffffffffffffffffffffffffffffffffffffffffffffff821415614c6e57614c6d614c79565b5b600182019050919050565b7f4e487b7100000000000000000000000000000000000000000000000000000000600052601160045260246000fd5b7f4e487b7100000000000000000000000000000000000000000000000000000000600052602260045260246000fd5b7f4e487b7100000000000000000000000000000000000000000000000000000000600052604160045260246000fd5b6000601f19601f8301169050919050565b7f4552433732313a207472616e7366657220746f206e6f6e20455243373231526560008201527f63656976657220696d706c656d656e7465720000000000000000000000000000602082015250565b7f4f776e61626c653a206e6577206f776e657220697320746865207a65726f206160008201527f6464726573730000000000000000000000000000000000000000000000000000602082015250565b7f4552433732313a20746f6b656e20616c7265616479206d696e74656400000000600082015250565b7f4552433732313a207472616e7366657220746f20746865207a65726f2061646460008201527f7265737300000000000000000000000000000000000000000000000000000000602082015250565b7f4552433732313a20617070726f766520746f2063616c6c657200000000000000600082015250565b7f4552433732313a206f70657261746f7220717565727920666f72206e6f6e657860008201527f697374656e7420746f6b656e0000000000000000000000000000000000000000602082015250565b7f4552433732313a20617070726f76652063616c6c6572206973206e6f74206f7760008201527f6e6572206e6f7220617070726f76656420666f7220616c6c0000000000000000602082015250565b7f4552433732313a2062616c616e636520717565727920666f7220746865207a6560008201527f726f206164647265737300000000000000000000000000000000000000000000602082015250565b7f4552433732313a206f776e657220717565727920666f72206e6f6e657869737460008201527f656e7420746f6b656e0000000000000000000000000000000000000000000000602082015250565b7f4552433732313a206d696e7420746f20746865207a65726f2061646472657373600082015250565b7f4552433732313a20617070726f76656420717565727920666f72206e6f6e657860008201527f697374656e7420746f6b656e0000000000000000000000000000000000000000602082015250565b7f4f776e61626c653a2063616c6c6572206973206e6f7420746865206f776e6572600082015250565b7f4552433732313a207472616e73666572206f6620746f6b656e2074686174206960008201527f73206e6f74206f776e0000000000000000000000000000000000000000000000602082015250565b7f4552433732313a20617070726f76616c20746f2063757272656e74206f776e6560008201527f7200000000000000000000000000000000000000000000000000000000000000602082015250565b7f4552433732313a207472616e736665722063616c6c6572206973206e6f74206f60008201527f776e6572206e6f7220617070726f766564000000000000000000000000000000602082015250565b61512981614b17565b811461513457600080fd5b50565b61514081614b29565b811461514b57600080fd5b50565b61515781614b35565b811461516257600080fd5b50565b61516e81614b81565b811461517957600080fd5b5056fe2a2a2a2a2a2a4d696e746564202573204e465420772f20746f6b656e4964202573202a2a2a2a2a2aa2646970667358221220bd66ec79e975ae02407865db39ef5198485208f2c097e85cc3e1320ca33cd2f364736f6c63430008040033",
  "linkReferences": {},
  "deployedLinkReferences": {}
}