{
  "_format": "hh-sol-artifact-1",
  "contractName": "Phlote",
  "sourceName": "contracts/Phlote.sol",
  "abi": [
    {
      "inputs": [],
      "stateMutability": "nonpayable",
      "type": "constructor"
    },
    {
      "anonymous": false,
      "inputs": [
        {
          "indexed": true,
          "internalType": "address",
          "name": "owner",
          "type": "address"
        },
        {
          "indexed": true,
          "internalType": "address",
          "name": "approved",
          "type": "address"
        },
        {
          "indexed": true,
          "internalType": "uint256",
          "name": "tokenId",
          "type": "uint256"
        }
      ],
      "name": "Approval",
      "type": "event"
    },
    {
      "anonymous": false,
      "inputs": [
        {
          "indexed": true,
          "internalType": "address",
          "name": "owner",
          "type": "address"
        },
        {
          "indexed": true,
          "internalType": "address",
          "name": "operator",
          "type": "address"
        },
        {
          "indexed": false,
          "internalType": "bool",
          "name": "approved",
          "type": "bool"
        }
      ],
      "name": "ApprovalForAll",
      "type": "event"
    },
    {
      "anonymous": false,
      "inputs": [
        {
          "indexed": false,
          "internalType": "address",
          "name": "sender",
          "type": "address"
        },
        {
          "indexed": true,
          "internalType": "uint256",
          "name": "editionId",
          "type": "uint256"
        }
      ],
      "name": "EditionCreated",
      "type": "event"
    },
    {
      "anonymous": false,
      "inputs": [
        {
          "indexed": true,
          "internalType": "address",
          "name": "buyer",
          "type": "address"
        },
        {
          "indexed": false,
          "internalType": "uint256",
          "name": "tokenId",
          "type": "uint256"
        },
        {
          "indexed": false,
          "internalType": "uint256",
          "name": "numSold",
          "type": "uint256"
        }
      ],
      "name": "EditionMinted",
      "type": "event"
    },
    {
      "anonymous": false,
      "inputs": [
        {
          "indexed": true,
          "internalType": "address",
          "name": "previousOwner",
          "type": "address"
        },
        {
          "indexed": true,
          "internalType": "address",
          "name": "newOwner",
          "type": "address"
        }
      ],
      "name": "OwnershipTransferred",
      "type": "event"
    },
    {
      "anonymous": false,
      "inputs": [
        {
          "indexed": true,
          "internalType": "address",
          "name": "from",
          "type": "address"
        },
        {
          "indexed": true,
          "internalType": "address",
          "name": "to",
          "type": "address"
        },
        {
          "indexed": true,
          "internalType": "uint256",
          "name": "tokenId",
          "type": "uint256"
        }
      ],
      "name": "Transfer",
      "type": "event"
    },
    {
      "inputs": [
        {
          "internalType": "address",
          "name": "to",
          "type": "address"
        },
        {
          "internalType": "uint256",
          "name": "tokenId",
          "type": "uint256"
        }
      ],
      "name": "approve",
      "outputs": [],
      "stateMutability": "nonpayable",
      "type": "function"
    },
    {
      "inputs": [
        {
          "internalType": "address",
          "name": "owner",
          "type": "address"
        }
      ],
      "name": "balanceOf",
      "outputs": [
        {
          "internalType": "uint256",
          "name": "",
          "type": "uint256"
        }
      ],
      "stateMutability": "view",
      "type": "function"
    },
    {
      "inputs": [],
      "name": "contractPrice",
      "outputs": [
        {
          "internalType": "uint256",
          "name": "",
          "type": "uint256"
        }
      ],
      "stateMutability": "view",
      "type": "function"
    },
    {
      "inputs": [
        {
          "internalType": "uint256",
          "name": "",
          "type": "uint256"
        }
      ],
      "name": "editions",
      "outputs": [
        {
          "internalType": "address",
          "name": "artistAddress",
          "type": "address"
        },
        {
          "internalType": "string",
          "name": "mediaURI",
          "type": "string"
        },
        {
          "internalType": "string",
          "name": "marketplace",
          "type": "string"
        },
        {
          "internalType": "string",
          "name": "artistName",
          "type": "string"
        },
        {
          "internalType": "string",
          "name": "mediaType",
          "type": "string"
        },
        {
          "internalType": "string",
          "name": "mediaTitle",
          "type": "string"
        },
        {
          "internalType": "uint256",
          "name": "numSold",
          "type": "uint256"
        },
        {
          "internalType": "string",
          "name": "tokenURI",
          "type": "string"
        }
      ],
      "stateMutability": "view",
      "type": "function"
    },
    {
      "inputs": [],
      "name": "getAllcontent",
      "outputs": [
        {
          "components": [
            {
              "internalType": "address",
              "name": "artistAddress",
              "type": "address"
            },
            {
              "internalType": "string",
              "name": "mediaURI",
              "type": "string"
            },
            {
              "internalType": "string",
              "name": "marketplace",
              "type": "string"
            },
            {
              "internalType": "string[]",
              "name": "tags",
              "type": "string[]"
            },
            {
              "internalType": "string",
              "name": "artistName",
              "type": "string"
            },
            {
              "internalType": "string",
              "name": "mediaType",
              "type": "string"
            },
            {
              "internalType": "string",
              "name": "mediaTitle",
              "type": "string"
            },
            {
              "internalType": "uint256",
              "name": "numSold",
              "type": "uint256"
            },
            {
              "internalType": "string",
              "name": "tokenURI",
              "type": "string"
            }
          ],
          "internalType": "struct Phlote.Edition[]",
          "name": "",
          "type": "tuple[]"
        }
      ],
      "stateMutability": "view",
      "type": "function"
    },
    {
      "inputs": [
        {
          "internalType": "uint256",
          "name": "tokenId",
          "type": "uint256"
        }
      ],
      "name": "getApproved",
      "outputs": [
        {
          "internalType": "address",
          "name": "",
          "type": "address"
        }
      ],
      "stateMutability": "view",
      "type": "function"
    },
    {
      "inputs": [
        {
          "internalType": "address",
          "name": "owner",
          "type": "address"
        },
        {
          "internalType": "address",
          "name": "operator",
          "type": "address"
        }
      ],
      "name": "isApprovedForAll",
      "outputs": [
        {
          "internalType": "bool",
          "name": "",
          "type": "bool"
        }
      ],
      "stateMutability": "view",
      "type": "function"
    },
    {
      "inputs": [
        {
          "internalType": "uint256",
          "name": "editionId",
          "type": "uint256"
        }
      ],
      "name": "mintEdition",
      "outputs": [],
      "stateMutability": "payable",
      "type": "function"
    },
    {
      "inputs": [],
      "name": "name",
      "outputs": [
        {
          "internalType": "string",
          "name": "",
          "type": "string"
        }
      ],
      "stateMutability": "view",
      "type": "function"
    },
    {
      "inputs": [
        {
          "internalType": "address",
          "name": "",
          "type": "address"
        }
      ],
      "name": "nftHolders",
      "outputs": [
        {
          "internalType": "uint256",
          "name": "",
          "type": "uint256"
        }
      ],
      "stateMutability": "view",
      "type": "function"
    },
    {
      "inputs": [],
      "name": "owner",
      "outputs": [
        {
          "internalType": "address",
          "name": "",
          "type": "address"
        }
      ],
      "stateMutability": "view",
      "type": "function"
    },
    {
      "inputs": [
        {
          "internalType": "uint256",
          "name": "tokenId",
          "type": "uint256"
        }
      ],
      "name": "ownerOf",
      "outputs": [
        {
          "internalType": "address",
          "name": "",
          "type": "address"
        }
      ],
      "stateMutability": "view",
      "type": "function"
    },
    {
      "inputs": [],
      "name": "renounceOwnership",
      "outputs": [],
      "stateMutability": "nonpayable",
      "type": "function"
    },
    {
      "inputs": [
        {
          "internalType": "address",
          "name": "from",
          "type": "address"
        },
        {
          "internalType": "address",
          "name": "to",
          "type": "address"
        },
        {
          "internalType": "uint256",
          "name": "tokenId",
          "type": "uint256"
        }
      ],
      "name": "safeTransferFrom",
      "outputs": [],
      "stateMutability": "nonpayable",
      "type": "function"
    },
    {
      "inputs": [
        {
          "internalType": "address",
          "name": "from",
          "type": "address"
        },
        {
          "internalType": "address",
          "name": "to",
          "type": "address"
        },
        {
          "internalType": "uint256",
          "name": "tokenId",
          "type": "uint256"
        },
        {
          "internalType": "bytes",
          "name": "_data",
          "type": "bytes"
        }
      ],
      "name": "safeTransferFrom",
      "outputs": [],
      "stateMutability": "nonpayable",
      "type": "function"
    },
    {
      "inputs": [
        {
          "internalType": "address",
          "name": "operator",
          "type": "address"
        },
        {
          "internalType": "bool",
          "name": "approved",
          "type": "bool"
        }
      ],
      "name": "setApprovalForAll",
      "outputs": [],
      "stateMutability": "nonpayable",
      "type": "function"
    },
    {
      "inputs": [
        {
          "internalType": "address",
          "name": "_artist",
          "type": "address"
        },
        {
          "internalType": "string",
          "name": "_mediaURI",
          "type": "string"
        },
        {
          "internalType": "string",
          "name": "_marketplace",
          "type": "string"
        },
        {
          "internalType": "string[]",
          "name": "_tags",
          "type": "string[]"
        },
        {
          "internalType": "string",
          "name": "_artistName",
          "type": "string"
        },
        {
          "internalType": "string",
          "name": "_mediaType",
          "type": "string"
        },
        {
          "internalType": "string",
          "name": "_mediaTitle",
          "type": "string"
        },
        {
          "internalType": "string",
          "name": "_tokenURI",
          "type": "string"
        }
      ],
      "name": "submitPost",
      "outputs": [],
      "stateMutability": "nonpayable",
      "type": "function"
    },
    {
      "inputs": [
        {
          "internalType": "bytes4",
          "name": "interfaceId",
          "type": "bytes4"
        }
      ],
      "name": "supportsInterface",
      "outputs": [
        {
          "internalType": "bool",
          "name": "",
          "type": "bool"
        }
      ],
      "stateMutability": "view",
      "type": "function"
    },
    {
      "inputs": [],
      "name": "symbol",
      "outputs": [
        {
          "internalType": "string",
          "name": "",
          "type": "string"
        }
      ],
      "stateMutability": "view",
      "type": "function"
    },
    {
      "inputs": [
        {
          "internalType": "uint256",
          "name": "",
          "type": "uint256"
        }
      ],
      "name": "tokenToSong",
      "outputs": [
        {
          "internalType": "uint256",
          "name": "",
          "type": "uint256"
        }
      ],
      "stateMutability": "view",
      "type": "function"
    },
    {
      "inputs": [
        {
          "internalType": "uint256",
          "name": "_tokenId",
          "type": "uint256"
        }
      ],
      "name": "tokenURI",
      "outputs": [
        {
          "internalType": "string",
          "name": "",
          "type": "string"
        }
      ],
      "stateMutability": "view",
      "type": "function"
    },
    {
      "inputs": [
        {
          "internalType": "address",
          "name": "from",
          "type": "address"
        },
        {
          "internalType": "address",
          "name": "to",
          "type": "address"
        },
        {
          "internalType": "uint256",
          "name": "tokenId",
          "type": "uint256"
        }
      ],
      "name": "transferFrom",
      "outputs": [],
      "stateMutability": "nonpayable",
      "type": "function"
    },
    {
      "inputs": [
        {
          "internalType": "address",
          "name": "newOwner",
          "type": "address"
        }
      ],
      "name": "transferOwnership",
      "outputs": [],
      "stateMutability": "nonpayable",
      "type": "function"
    },
    {
      "inputs": [
        {
          "internalType": "uint256",
          "name": "",
          "type": "uint256"
        }
      ],
      "name": "withdrawnForEdition",
      "outputs": [
        {
          "internalType": "uint256",
          "name": "",
          "type": "uint256"
        }
      ],
      "stateMutability": "view",
      "type": "function"
    }
  ],
  "bytecode": "0x608060405260016009553480156200001657600080fd5b506040518060400160405280600781526020017f636f6e74656e74000000000000000000000000000000000000000000000000008152506040518060400160405280600481526020017f534f4e470000000000000000000000000000000000000000000000000000000081525081600090805190602001906200009b929190620001d8565b508060019080519060200190620000b4929190620001d8565b505050620000d7620000cb620000f460201b60201c565b620000fc60201b60201c565b620000ee6008620001c260201b62001fc31760201c565b620002ed565b600033905090565b6000600660009054906101000a900473ffffffffffffffffffffffffffffffffffffffff16905081600660006101000a81548173ffffffffffffffffffffffffffffffffffffffff021916908373ffffffffffffffffffffffffffffffffffffffff1602179055508173ffffffffffffffffffffffffffffffffffffffff168173ffffffffffffffffffffffffffffffffffffffff167f8be0079c531659141344cd1fd0a4f28419497f9722a3daafe3b4186f6b6457e060405160405180910390a35050565b6001816000016000828254019250508190555050565b828054620001e69062000288565b90600052602060002090601f0160209004810192826200020a576000855562000256565b82601f106200022557805160ff191683800117855562000256565b8280016001018555821562000256579182015b828111156200025557825182559160200191906001019062000238565b5b50905062000265919062000269565b5090565b5b80821115620002845760008160009055506001016200026a565b5090565b60006002820490506001821680620002a157607f821691505b60208210811415620002b857620002b7620002be565b5b50919050565b7f4e487b7100000000000000000000000000000000000000000000000000000000600052602260045260246000fd5b61446780620002fd6000396000f3fe60806040526004361061014b5760003560e01c8063715018a6116100b6578063b88d4fde1161006f578063b88d4fde1461049c578063c87b56dd146104c5578063d3bb052814610502578063e2b18d3f1461053f578063e985e9c51461057c578063f2fde38b146105b95761014b565b8063715018a61461039e5780637df124a1146103b55780638da5cb5b146103f257806395d89b411461041d57806397e9a0bf14610448578063a22cb465146104735761014b565b8063279c806e11610108578063279c806e1461026357806342842e0e146102a757806345c64853146102d057806357954dd1146102f95780636352211e1461032457806370a08231146103615761014b565b806301ffc9a71461015057806305322b741461018d57806306fdde03146101a9578063081812fc146101d4578063095ea7b31461021157806323b872dd1461023a575b600080fd5b34801561015c57600080fd5b5061017760048036038101906101729190613256565b6105e2565b6040516101849190613906565b60405180910390f35b6101a760048036038101906101a291906132a8565b6106c4565b005b3480156101b557600080fd5b506101be610899565b6040516101cb9190613921565b60405180910390f35b3480156101e057600080fd5b506101fb60048036038101906101f691906132a8565b61092b565b60405161020891906137d5565b60405180910390f35b34801561021d57600080fd5b506102386004803603810190610233919061321a565b6109b0565b005b34801561024657600080fd5b50610261600480360381019061025c9190612fba565b610ac8565b005b34801561026f57600080fd5b5061028a600480360381019061028591906132a8565b610b28565b60405161029e98979695949392919061383c565b60405180910390f35b3480156102b357600080fd5b506102ce60048036038101906102c99190612fba565b610ec0565b005b3480156102dc57600080fd5b506102f760048036038101906102f291906130c0565b610ee0565b005b34801561030557600080fd5b5061030e6110d3565b60405161031b91906138e4565b60405180910390f35b34801561033057600080fd5b5061034b600480360381019061034691906132a8565b6115d8565b60405161035891906137d5565b60405180910390f35b34801561036d57600080fd5b5061038860048036038101906103839190612f55565b61168a565b6040516103959190613b68565b60405180910390f35b3480156103aa57600080fd5b506103b3611742565b005b3480156103c157600080fd5b506103dc60048036038101906103d79190612f55565b6117ca565b6040516103e99190613b68565b60405180910390f35b3480156103fe57600080fd5b506104076117e2565b60405161041491906137d5565b60405180910390f35b34801561042957600080fd5b5061043261180c565b60405161043f9190613921565b60405180910390f35b34801561045457600080fd5b5061045d61189e565b60405161046a9190613b68565b60405180910390f35b34801561047f57600080fd5b5061049a60048036038101906104959190613084565b6118a4565b005b3480156104a857600080fd5b506104c360048036038101906104be9190613009565b6118ba565b005b3480156104d157600080fd5b506104ec60048036038101906104e791906132a8565b61191c565b6040516104f99190613921565b60405180910390f35b34801561050e57600080fd5b50610529600480360381019061052491906132a8565b611e07565b6040516105369190613b68565b60405180910390f35b34801561054b57600080fd5b50610566600480360381019061056191906132a8565b611e1f565b6040516105739190613b68565b60405180910390f35b34801561058857600080fd5b506105a3600480360381019061059e9190612f7e565b611e37565b6040516105b09190613906565b60405180910390f35b3480156105c557600080fd5b506105e060048036038101906105db9190612f55565b611ecb565b005b60007f80ac58cd000000000000000000000000000000000000000000000000000000007bffffffffffffffffffffffffffffffffffffffffffffffffffffffff1916827bffffffffffffffffffffffffffffffffffffffffffffffffffffffff191614806106ad57507f5b5e139f000000000000000000000000000000000000000000000000000000007bffffffffffffffffffffffffffffffffffffffffffffffffffffffff1916827bffffffffffffffffffffffffffffffffffffffffffffffffffffffff1916145b806106bd57506106bc82611fd9565b5b9050919050565b60006106d06008612043565b90506106dc3382612051565b61079d60405180606001604052806028815260200161440a60289139600b6000858152602001908152602001600020600601805461071990613e5a565b80601f016020809104026020016040519081016040528092919081815260200182805461074590613e5a565b80156107925780601f1061076757610100808354040283529160200191610792565b820191906000526020600020905b81548152906001019060200180831161077557829003601f168201915b50505050508361206f565b80600c60003373ffffffffffffffffffffffffffffffffffffffff1673ffffffffffffffffffffffffffffffffffffffff168152602001908152602001600020819055506107eb6008611fc3565b600b6000838152602001908152602001600020600701600081548092919061081290613ebd565b919050555081600f6000838152602001908152602001600020819055503373ffffffffffffffffffffffffffffffffffffffff167fe1b60c9e07632933648666e5ede8b3b329ddfa2ab98c51b1a5b4b22ab4f1349c82600b60008681526020019081526020016000206007015460405161088d929190613b83565b60405180910390a25050565b6060600080546108a890613e5a565b80601f01602080910402602001604051908101604052809291908181526020018280546108d490613e5a565b80156109215780601f106108f657610100808354040283529160200191610921565b820191906000526020600020905b81548152906001019060200180831161090457829003601f168201915b5050505050905090565b60006109368261210e565b610975576040517f08c379a000000000000000000000000000000000000000000000000000000000815260040161096c90613ac8565b60405180910390fd5b6004600083815260200190815260200160002060009054906101000a900473ffffffffffffffffffffffffffffffffffffffff169050919050565b60006109bb826115d8565b90508073ffffffffffffffffffffffffffffffffffffffff168373ffffffffffffffffffffffffffffffffffffffff161415610a2c576040517f08c379a0000000000000000000000000000000000000000000000000000000008152600401610a2390613b28565b60405180910390fd5b8073ffffffffffffffffffffffffffffffffffffffff16610a4b61217a565b73ffffffffffffffffffffffffffffffffffffffff161480610a7a5750610a7981610a7461217a565b611e37565b5b610ab9576040517f08c379a0000000000000000000000000000000000000000000000000000000008152600401610ab090613a48565b60405180910390fd5b610ac38383612182565b505050565b610ad9610ad361217a565b8261223b565b610b18576040517f08c379a0000000000000000000000000000000000000000000000000000000008152600401610b0f90613b48565b60405180910390fd5b610b23838383612319565b505050565b600b6020528060005260406000206000915090508060000160009054906101000a900473ffffffffffffffffffffffffffffffffffffffff1690806001018054610b7190613e5a565b80601f0160208091040260200160405190810160405280929190818152602001828054610b9d90613e5a565b8015610bea5780601f10610bbf57610100808354040283529160200191610bea565b820191906000526020600020905b815481529060010190602001808311610bcd57829003601f168201915b505050505090806002018054610bff90613e5a565b80601f0160208091040260200160405190810160405280929190818152602001828054610c2b90613e5a565b8015610c785780601f10610c4d57610100808354040283529160200191610c78565b820191906000526020600020905b815481529060010190602001808311610c5b57829003601f168201915b505050505090806004018054610c8d90613e5a565b80601f0160208091040260200160405190810160405280929190818152602001828054610cb990613e5a565b8015610d065780601f10610cdb57610100808354040283529160200191610d06565b820191906000526020600020905b815481529060010190602001808311610ce957829003601f168201915b505050505090806005018054610d1b90613e5a565b80601f0160208091040260200160405190810160405280929190818152602001828054610d4790613e5a565b8015610d945780601f10610d6957610100808354040283529160200191610d94565b820191906000526020600020905b815481529060010190602001808311610d7757829003601f168201915b505050505090806006018054610da990613e5a565b80601f0160208091040260200160405190810160405280929190818152602001828054610dd590613e5a565b8015610e225780601f10610df757610100808354040283529160200191610e22565b820191906000526020600020905b815481529060010190602001808311610e0557829003601f168201915b505050505090806007015490806008018054610e3d90613e5a565b80601f0160208091040260200160405190810160405280929190818152602001828054610e6990613e5a565b8015610eb65780601f10610e8b57610100808354040283529160200191610eb6565b820191906000526020600020905b815481529060010190602001808311610e9957829003601f168201915b5050505050905088565b610edb838383604051806020016040528060008152506118ba565b505050565b6040518061012001604052808973ffffffffffffffffffffffffffffffffffffffff1681526020018881526020018781526020018681526020018581526020018481526020018381526020016000815260200182815250600b6000600954815260200190815260200160002060008201518160000160006101000a81548173ffffffffffffffffffffffffffffffffffffffff021916908373ffffffffffffffffffffffffffffffffffffffff1602179055506020820151816001019080519060200190610faf929190612c05565b506040820151816002019080519060200190610fcc929190612c05565b506060820151816003019080519060200190610fe9929190612c8b565b506080820151816004019080519060200190611006929190612c05565b5060a0820151816005019080519060200190611023929190612c05565b5060c0820151816006019080519060200190611040929190612c05565b5060e08201518160070155610100820151816008019080519060200190611068929190612c05565b509050506009547fa1cd98301e2a758f45871102b368fdcf3f56e13f8e8fd2886523ac87ca066ce03360405161109e91906137d5565b60405180910390a26110b16009546106c4565b600960008154809291906110c490613ebd565b91905055505050505050505050565b6060600a805480602002602001604051908101604052809291908181526020016000905b828210156115cf5783829060005260206000209060090201604051806101200160405290816000820160009054906101000a900473ffffffffffffffffffffffffffffffffffffffff1673ffffffffffffffffffffffffffffffffffffffff1673ffffffffffffffffffffffffffffffffffffffff16815260200160018201805461118190613e5a565b80601f01602080910402602001604051908101604052809291908181526020018280546111ad90613e5a565b80156111fa5780601f106111cf576101008083540402835291602001916111fa565b820191906000526020600020905b8154815290600101906020018083116111dd57829003601f168201915b5050505050815260200160028201805461121390613e5a565b80601f016020809104026020016040519081016040528092919081815260200182805461123f90613e5a565b801561128c5780601f106112615761010080835404028352916020019161128c565b820191906000526020600020905b81548152906001019060200180831161126f57829003601f168201915b5050505050815260200160038201805480602002602001604051908101604052809291908181526020016000905b828210156113665783829060005260206000200180546112d990613e5a565b80601f016020809104026020016040519081016040528092919081815260200182805461130590613e5a565b80156113525780601f1061132757610100808354040283529160200191611352565b820191906000526020600020905b81548152906001019060200180831161133557829003601f168201915b5050505050815260200190600101906112ba565b50505050815260200160048201805461137e90613e5a565b80601f01602080910402602001604051908101604052809291908181526020018280546113aa90613e5a565b80156113f75780601f106113cc576101008083540402835291602001916113f7565b820191906000526020600020905b8154815290600101906020018083116113da57829003601f168201915b5050505050815260200160058201805461141090613e5a565b80601f016020809104026020016040519081016040528092919081815260200182805461143c90613e5a565b80156114895780601f1061145e57610100808354040283529160200191611489565b820191906000526020600020905b81548152906001019060200180831161146c57829003601f168201915b505050505081526020016006820180546114a290613e5a565b80601f01602080910402602001604051908101604052809291908181526020018280546114ce90613e5a565b801561151b5780601f106114f05761010080835404028352916020019161151b565b820191906000526020600020905b8154815290600101906020018083116114fe57829003601f168201915b505050505081526020016007820154815260200160088201805461153e90613e5a565b80601f016020809104026020016040519081016040528092919081815260200182805461156a90613e5a565b80156115b75780601f1061158c576101008083540402835291602001916115b7565b820191906000526020600020905b81548152906001019060200180831161159a57829003601f168201915b505050505081525050815260200190600101906110f7565b50505050905090565b6000806002600084815260200190815260200160002060009054906101000a900473ffffffffffffffffffffffffffffffffffffffff169050600073ffffffffffffffffffffffffffffffffffffffff168173ffffffffffffffffffffffffffffffffffffffff161415611681576040517f08c379a000000000000000000000000000000000000000000000000000000000815260040161167890613a88565b60405180910390fd5b80915050919050565b60008073ffffffffffffffffffffffffffffffffffffffff168273ffffffffffffffffffffffffffffffffffffffff1614156116fb576040517f08c379a00000000000000000000000000000000000000000000000000000000081526004016116f290613a68565b60405180910390fd5b600360008373ffffffffffffffffffffffffffffffffffffffff1673ffffffffffffffffffffffffffffffffffffffff168152602001908152602001600020549050919050565b61174a61217a565b73ffffffffffffffffffffffffffffffffffffffff166117686117e2565b73ffffffffffffffffffffffffffffffffffffffff16146117be576040517f08c379a00000000000000000000000000000000000000000000000000000000081526004016117b590613ae8565b60405180910390fd5b6117c86000612575565b565b600c6020528060005260406000206000915090505481565b6000600660009054906101000a900473ffffffffffffffffffffffffffffffffffffffff16905090565b60606001805461181b90613e5a565b80601f016020809104026020016040519081016040528092919081815260200182805461184790613e5a565b80156118945780601f1061186957610100808354040283529160200191611894565b820191906000526020600020905b81548152906001019060200180831161187757829003601f168201915b5050505050905090565b60075481565b6118b66118af61217a565b838361263b565b5050565b6118cb6118c561217a565b8361223b565b61190a576040517f08c379a000000000000000000000000000000000000000000000000000000000815260040161190190613b48565b60405180910390fd5b611916848484846127a8565b50505050565b60606000600b6000600f6000868152602001908152602001600020548152602001908152602001600020604051806101200160405290816000820160009054906101000a900473ffffffffffffffffffffffffffffffffffffffff1673ffffffffffffffffffffffffffffffffffffffff1673ffffffffffffffffffffffffffffffffffffffff1681526020016001820180546119b890613e5a565b80601f01602080910402602001604051908101604052809291908181526020018280546119e490613e5a565b8015611a315780601f10611a0657610100808354040283529160200191611a31565b820191906000526020600020905b815481529060010190602001808311611a1457829003601f168201915b50505050508152602001600282018054611a4a90613e5a565b80601f0160208091040260200160405190810160405280929190818152602001828054611a7690613e5a565b8015611ac35780601f10611a9857610100808354040283529160200191611ac3565b820191906000526020600020905b815481529060010190602001808311611aa657829003601f168201915b5050505050815260200160038201805480602002602001604051908101604052809291908181526020016000905b82821015611b9d578382906000526020600020018054611b1090613e5a565b80601f0160208091040260200160405190810160405280929190818152602001828054611b3c90613e5a565b8015611b895780601f10611b5e57610100808354040283529160200191611b89565b820191906000526020600020905b815481529060010190602001808311611b6c57829003601f168201915b505050505081526020019060010190611af1565b505050508152602001600482018054611bb590613e5a565b80601f0160208091040260200160405190810160405280929190818152602001828054611be190613e5a565b8015611c2e5780601f10611c0357610100808354040283529160200191611c2e565b820191906000526020600020905b815481529060010190602001808311611c1157829003601f168201915b50505050508152602001600582018054611c4790613e5a565b80601f0160208091040260200160405190810160405280929190818152602001828054611c7390613e5a565b8015611cc05780601f10611c9557610100808354040283529160200191611cc0565b820191906000526020600020905b815481529060010190602001808311611ca357829003601f168201915b50505050508152602001600682018054611cd990613e5a565b80601f0160208091040260200160405190810160405280929190818152602001828054611d0590613e5a565b8015611d525780601f10611d2757610100808354040283529160200191611d52565b820191906000526020600020905b815481529060010190602001808311611d3557829003601f168201915b5050505050815260200160078201548152602001600882018054611d7590613e5a565b80601f0160208091040260200160405190810160405280929190818152602001828054611da190613e5a565b8015611dee5780601f10611dc357610100808354040283529160200191611dee565b820191906000526020600020905b815481529060010190602001808311611dd157829003601f168201915b5050505050815250509050806101000151915050919050565b600e6020528060005260406000206000915090505481565b600f6020528060005260406000206000915090505481565b6000600560008473ffffffffffffffffffffffffffffffffffffffff1673ffffffffffffffffffffffffffffffffffffffff16815260200190815260200160002060008373ffffffffffffffffffffffffffffffffffffffff1673ffffffffffffffffffffffffffffffffffffffff16815260200190815260200160002060009054906101000a900460ff16905092915050565b611ed361217a565b73ffffffffffffffffffffffffffffffffffffffff16611ef16117e2565b73ffffffffffffffffffffffffffffffffffffffff1614611f47576040517f08c379a0000000000000000000000000000000000000000000000000000000008152600401611f3e90613ae8565b60405180910390fd5b600073ffffffffffffffffffffffffffffffffffffffff168173ffffffffffffffffffffffffffffffffffffffff161415611fb7576040517f08c379a0000000000000000000000000000000000000000000000000000000008152600401611fae906139a8565b60405180910390fd5b611fc081612575565b50565b6001816000016000828254019250508190555050565b60007f01ffc9a7000000000000000000000000000000000000000000000000000000007bffffffffffffffffffffffffffffffffffffffffffffffffffffffff1916827bffffffffffffffffffffffffffffffffffffffffffffffffffffffff1916149050919050565b600081600001549050919050565b61206b828260405180602001604052806000815250612804565b5050565b61210983838360405160240161208793929190613943565b6040516020818303038152906040527ff362ca59000000000000000000000000000000000000000000000000000000007bffffffffffffffffffffffffffffffffffffffffffffffffffffffff19166020820180517bffffffffffffffffffffffffffffffffffffffffffffffffffffffff838183161783525050505061285f565b505050565b60008073ffffffffffffffffffffffffffffffffffffffff166002600084815260200190815260200160002060009054906101000a900473ffffffffffffffffffffffffffffffffffffffff1673ffffffffffffffffffffffffffffffffffffffff1614159050919050565b600033905090565b816004600083815260200190815260200160002060006101000a81548173ffffffffffffffffffffffffffffffffffffffff021916908373ffffffffffffffffffffffffffffffffffffffff160217905550808273ffffffffffffffffffffffffffffffffffffffff166121f5836115d8565b73ffffffffffffffffffffffffffffffffffffffff167f8c5be1e5ebec7d5bd14f71427d1e84f3dd0314c0f7b2291e5b200ac8c7c3b92560405160405180910390a45050565b60006122468261210e565b612285576040517f08c379a000000000000000000000000000000000000000000000000000000000815260040161227c90613a28565b60405180910390fd5b6000612290836115d8565b90508073ffffffffffffffffffffffffffffffffffffffff168473ffffffffffffffffffffffffffffffffffffffff1614806122ff57508373ffffffffffffffffffffffffffffffffffffffff166122e78461092b565b73ffffffffffffffffffffffffffffffffffffffff16145b80612310575061230f8185611e37565b5b91505092915050565b8273ffffffffffffffffffffffffffffffffffffffff16612339826115d8565b73ffffffffffffffffffffffffffffffffffffffff161461238f576040517f08c379a000000000000000000000000000000000000000000000000000000000815260040161238690613b08565b60405180910390fd5b600073ffffffffffffffffffffffffffffffffffffffff168273ffffffffffffffffffffffffffffffffffffffff1614156123ff576040517f08c379a00000000000000000000000000000000000000000000000000000000081526004016123f6906139e8565b60405180910390fd5b61240a838383612888565b612415600082612182565b6001600360008573ffffffffffffffffffffffffffffffffffffffff1673ffffffffffffffffffffffffffffffffffffffff16815260200190815260200160002060008282546124659190613d70565b925050819055506001600360008473ffffffffffffffffffffffffffffffffffffffff1673ffffffffffffffffffffffffffffffffffffffff16815260200190815260200160002060008282546124bc9190613d1a565b92505081905550816002600083815260200190815260200160002060006101000a81548173ffffffffffffffffffffffffffffffffffffffff021916908373ffffffffffffffffffffffffffffffffffffffff160217905550808273ffffffffffffffffffffffffffffffffffffffff168473ffffffffffffffffffffffffffffffffffffffff167fddf252ad1be2c89b69c2b068fc378daa952ba7f163c4a11628f55a4df523b3ef60405160405180910390a4505050565b6000600660009054906101000a900473ffffffffffffffffffffffffffffffffffffffff16905081600660006101000a81548173ffffffffffffffffffffffffffffffffffffffff021916908373ffffffffffffffffffffffffffffffffffffffff1602179055508173ffffffffffffffffffffffffffffffffffffffff168173ffffffffffffffffffffffffffffffffffffffff167f8be0079c531659141344cd1fd0a4f28419497f9722a3daafe3b4186f6b6457e060405160405180910390a35050565b8173ffffffffffffffffffffffffffffffffffffffff168373ffffffffffffffffffffffffffffffffffffffff1614156126aa576040517f08c379a00000000000000000000000000000000000000000000000000000000081526004016126a190613a08565b60405180910390fd5b80600560008573ffffffffffffffffffffffffffffffffffffffff1673ffffffffffffffffffffffffffffffffffffffff16815260200190815260200160002060008473ffffffffffffffffffffffffffffffffffffffff1673ffffffffffffffffffffffffffffffffffffffff16815260200190815260200160002060006101000a81548160ff0219169083151502179055508173ffffffffffffffffffffffffffffffffffffffff168373ffffffffffffffffffffffffffffffffffffffff167f17307eab39ab6107e8899845ad3d59bd9653f200f220920489ca2b5937696c318360405161279b9190613906565b60405180910390a3505050565b6127b3848484612319565b6127bf8484848461288d565b6127fe576040517f08c379a00000000000000000000000000000000000000000000000000000000081526004016127f590613988565b60405180910390fd5b50505050565b61280e8383612a24565b61281b600084848461288d565b61285a576040517f08c379a000000000000000000000000000000000000000000000000000000000815260040161285190613988565b60405180910390fd5b505050565b60008151905060006a636f6e736f6c652e6c6f679050602083016000808483855afa5050505050565b505050565b60006128ae8473ffffffffffffffffffffffffffffffffffffffff16612bf2565b15612a17578373ffffffffffffffffffffffffffffffffffffffff1663150b7a026128d761217a565b8786866040518563ffffffff1660e01b81526004016128f994939291906137f0565b602060405180830381600087803b15801561291357600080fd5b505af192505050801561294457506040513d601f19601f82011682018060405250810190612941919061327f565b60015b6129c7573d8060008114612974576040519150601f19603f3d011682016040523d82523d6000602084013e612979565b606091505b506000815114156129bf576040517f08c379a00000000000000000000000000000000000000000000000000000000081526004016129b690613988565b60405180910390fd5b805181602001fd5b63150b7a0260e01b7bffffffffffffffffffffffffffffffffffffffffffffffffffffffff1916817bffffffffffffffffffffffffffffffffffffffffffffffffffffffff191614915050612a1c565b600190505b949350505050565b600073ffffffffffffffffffffffffffffffffffffffff168273ffffffffffffffffffffffffffffffffffffffff161415612a94576040517f08c379a0000000000000000000000000000000000000000000000000000000008152600401612a8b90613aa8565b60405180910390fd5b612a9d8161210e565b15612add576040517f08c379a0000000000000000000000000000000000000000000000000000000008152600401612ad4906139c8565b60405180910390fd5b612ae960008383612888565b6001600360008473ffffffffffffffffffffffffffffffffffffffff1673ffffffffffffffffffffffffffffffffffffffff1681526020019081526020016000206000828254612b399190613d1a565b92505081905550816002600083815260200190815260200160002060006101000a81548173ffffffffffffffffffffffffffffffffffffffff021916908373ffffffffffffffffffffffffffffffffffffffff160217905550808273ffffffffffffffffffffffffffffffffffffffff16600073ffffffffffffffffffffffffffffffffffffffff167fddf252ad1be2c89b69c2b068fc378daa952ba7f163c4a11628f55a4df523b3ef60405160405180910390a45050565b600080823b905060008111915050919050565b828054612c1190613e5a565b90600052602060002090601f016020900481019282612c335760008555612c7a565b82601f10612c4c57805160ff1916838001178555612c7a565b82800160010185558215612c7a579182015b82811115612c79578251825591602001919060010190612c5e565b5b509050612c879190612ceb565b5090565b828054828255906000526020600020908101928215612cda579160200282015b82811115612cd9578251829080519060200190612cc9929190612c05565b5091602001919060010190612cab565b5b509050612ce79190612d08565b5090565b5b80821115612d04576000816000905550600101612cec565b5090565b5b80821115612d285760008181612d1f9190612d2c565b50600101612d09565b5090565b508054612d3890613e5a565b6000825580601f10612d4a5750612d69565b601f016020900490600052602060002090810190612d689190612ceb565b5b50565b6000612d7f612d7a84613bd1565b613bac565b90508083825260208201905082856020860282011115612d9e57600080fd5b60005b85811015612de857813567ffffffffffffffff811115612dc057600080fd5b808601612dcd8982612f16565b85526020850194506020840193505050600181019050612da1565b5050509392505050565b6000612e05612e0084613bfd565b613bac565b905082815260208101848484011115612e1d57600080fd5b612e28848285613e18565b509392505050565b6000612e43612e3e84613c2e565b613bac565b905082815260208101848484011115612e5b57600080fd5b612e66848285613e18565b509392505050565b600081359050612e7d816143ad565b92915050565b600082601f830112612e9457600080fd5b8135612ea4848260208601612d6c565b91505092915050565b600081359050612ebc816143c4565b92915050565b600081359050612ed1816143db565b92915050565b600081519050612ee6816143db565b92915050565b600082601f830112612efd57600080fd5b8135612f0d848260208601612df2565b91505092915050565b600082601f830112612f2757600080fd5b8135612f37848260208601612e30565b91505092915050565b600081359050612f4f816143f2565b92915050565b600060208284031215612f6757600080fd5b6000612f7584828501612e6e565b91505092915050565b60008060408385031215612f9157600080fd5b6000612f9f85828601612e6e565b9250506020612fb085828601612e6e565b9150509250929050565b600080600060608486031215612fcf57600080fd5b6000612fdd86828701612e6e565b9350506020612fee86828701612e6e565b9250506040612fff86828701612f40565b9150509250925092565b6000806000806080858703121561301f57600080fd5b600061302d87828801612e6e565b945050602061303e87828801612e6e565b935050604061304f87828801612f40565b925050606085013567ffffffffffffffff81111561306c57600080fd5b61307887828801612eec565b91505092959194509250565b6000806040838503121561309757600080fd5b60006130a585828601612e6e565b92505060206130b685828601612ead565b9150509250929050565b600080600080600080600080610100898b0312156130dd57600080fd5b60006130eb8b828c01612e6e565b985050602089013567ffffffffffffffff81111561310857600080fd5b6131148b828c01612f16565b975050604089013567ffffffffffffffff81111561313157600080fd5b61313d8b828c01612f16565b965050606089013567ffffffffffffffff81111561315a57600080fd5b6131668b828c01612e83565b955050608089013567ffffffffffffffff81111561318357600080fd5b61318f8b828c01612f16565b94505060a089013567ffffffffffffffff8111156131ac57600080fd5b6131b88b828c01612f16565b93505060c089013567ffffffffffffffff8111156131d557600080fd5b6131e18b828c01612f16565b92505060e089013567ffffffffffffffff8111156131fe57600080fd5b61320a8b828c01612f16565b9150509295985092959890939650565b6000806040838503121561322d57600080fd5b600061323b85828601612e6e565b925050602061324c85828601612f40565b9150509250929050565b60006020828403121561326857600080fd5b600061327684828501612ec2565b91505092915050565b60006020828403121561329157600080fd5b600061329f84828501612ed7565b91505092915050565b6000602082840312156132ba57600080fd5b60006132c884828501612f40565b91505092915050565b60006132dd8383613449565b905092915050565b60006132f183836136c8565b905092915050565b61330281613da4565b82525050565b61331181613da4565b82525050565b600061332282613c7f565b61332c8185613cc5565b93508360208202850161333e85613c5f565b8060005b8581101561337a578484038952815161335b85826132d1565b945061336683613cab565b925060208a01995050600181019050613342565b50829750879550505050505092915050565b600061339782613c8a565b6133a18185613cd6565b9350836020820285016133b385613c6f565b8060005b858110156133ef57848403895281516133d085826132e5565b94506133db83613cb8565b925060208a019950506001810190506133b7565b50829750879550505050505092915050565b61340a81613db6565b82525050565b600061341b82613c95565b6134258185613ce7565b9350613435818560208601613e27565b61343e81613f93565b840191505092915050565b600061345482613ca0565b61345e8185613cf8565b935061346e818560208601613e27565b61347781613f93565b840191505092915050565b600061348d82613ca0565b6134978185613d09565b93506134a7818560208601613e27565b6134b081613f93565b840191505092915050565b60006134c8603283613d09565b91506134d382613fa4565b604082019050919050565b60006134eb602683613d09565b91506134f682613ff3565b604082019050919050565b600061350e601c83613d09565b915061351982614042565b602082019050919050565b6000613531602483613d09565b915061353c8261406b565b604082019050919050565b6000613554601983613d09565b915061355f826140ba565b602082019050919050565b6000613577602c83613d09565b9150613582826140e3565b604082019050919050565b600061359a603883613d09565b91506135a582614132565b604082019050919050565b60006135bd602a83613d09565b91506135c882614181565b604082019050919050565b60006135e0602983613d09565b91506135eb826141d0565b604082019050919050565b6000613603602083613d09565b915061360e8261421f565b602082019050919050565b6000613626602c83613d09565b915061363182614248565b604082019050919050565b6000613649602083613d09565b915061365482614297565b602082019050919050565b600061366c602983613d09565b9150613677826142c0565b604082019050919050565b600061368f602183613d09565b915061369a8261430f565b604082019050919050565b60006136b2603183613d09565b91506136bd8261435e565b604082019050919050565b6000610120830160008301516136e160008601826132f9565b50602083015184820360208601526136f98282613449565b915050604083015184820360408601526137138282613449565b9150506060830151848203606086015261372d8282613317565b915050608083015184820360808601526137478282613449565b91505060a083015184820360a08601526137618282613449565b91505060c083015184820360c086015261377b8282613449565b91505060e083015161379060e08601826137b7565b506101008301518482036101008601526137aa8282613449565b9150508091505092915050565b6137c081613e0e565b82525050565b6137cf81613e0e565b82525050565b60006020820190506137ea6000830184613308565b92915050565b60006080820190506138056000830187613308565b6138126020830186613308565b61381f60408301856137c6565b81810360608301526138318184613410565b905095945050505050565b600061010082019050613852600083018b613308565b8181036020830152613864818a613482565b905081810360408301526138788189613482565b9050818103606083015261388c8188613482565b905081810360808301526138a08187613482565b905081810360a08301526138b48186613482565b90506138c360c08301856137c6565b81810360e08301526138d58184613482565b90509998505050505050505050565b600060208201905081810360008301526138fe818461338c565b905092915050565b600060208201905061391b6000830184613401565b92915050565b6000602082019050818103600083015261393b8184613482565b905092915050565b6000606082019050818103600083015261395d8186613482565b905081810360208301526139718185613482565b905061398060408301846137c6565b949350505050565b600060208201905081810360008301526139a1816134bb565b9050919050565b600060208201905081810360008301526139c1816134de565b9050919050565b600060208201905081810360008301526139e181613501565b9050919050565b60006020820190508181036000830152613a0181613524565b9050919050565b60006020820190508181036000830152613a2181613547565b9050919050565b60006020820190508181036000830152613a418161356a565b9050919050565b60006020820190508181036000830152613a618161358d565b9050919050565b60006020820190508181036000830152613a81816135b0565b9050919050565b60006020820190508181036000830152613aa1816135d3565b9050919050565b60006020820190508181036000830152613ac1816135f6565b9050919050565b60006020820190508181036000830152613ae181613619565b9050919050565b60006020820190508181036000830152613b018161363c565b9050919050565b60006020820190508181036000830152613b218161365f565b9050919050565b60006020820190508181036000830152613b4181613682565b9050919050565b60006020820190508181036000830152613b61816136a5565b9050919050565b6000602082019050613b7d60008301846137c6565b92915050565b6000604082019050613b9860008301856137c6565b613ba560208301846137c6565b9392505050565b6000613bb6613bc7565b9050613bc28282613e8c565b919050565b6000604051905090565b600067ffffffffffffffff821115613bec57613beb613f64565b5b602082029050602081019050919050565b600067ffffffffffffffff821115613c1857613c17613f64565b5b613c2182613f93565b9050602081019050919050565b600067ffffffffffffffff821115613c4957613c48613f64565b5b613c5282613f93565b9050602081019050919050565b6000819050602082019050919050565b6000819050602082019050919050565b600081519050919050565b600081519050919050565b600081519050919050565b600081519050919050565b6000602082019050919050565b6000602082019050919050565b600082825260208201905092915050565b600082825260208201905092915050565b600082825260208201905092915050565b600082825260208201905092915050565b600082825260208201905092915050565b6000613d2582613e0e565b9150613d3083613e0e565b9250827fffffffffffffffffffffffffffffffffffffffffffffffffffffffffffffffff03821115613d6557613d64613f06565b5b828201905092915050565b6000613d7b82613e0e565b9150613d8683613e0e565b925082821015613d9957613d98613f06565b5b828203905092915050565b6000613daf82613dee565b9050919050565b60008115159050919050565b60007fffffffff0000000000000000000000000000000000000000000000000000000082169050919050565b600073ffffffffffffffffffffffffffffffffffffffff82169050919050565b6000819050919050565b82818337600083830152505050565b60005b83811015613e45578082015181840152602081019050613e2a565b83811115613e54576000848401525b50505050565b60006002820490506001821680613e7257607f821691505b60208210811415613e8657613e85613f35565b5b50919050565b613e9582613f93565b810181811067ffffffffffffffff82111715613eb457613eb3613f64565b5b80604052505050565b6000613ec882613e0e565b91507fffffffffffffffffffffffffffffffffffffffffffffffffffffffffffffffff821415613efb57613efa613f06565b5b600182019050919050565b7f4e487b7100000000000000000000000000000000000000000000000000000000600052601160045260246000fd5b7f4e487b7100000000000000000000000000000000000000000000000000000000600052602260045260246000fd5b7f4e487b7100000000000000000000000000000000000000000000000000000000600052604160045260246000fd5b6000601f19601f8301169050919050565b7f4552433732313a207472616e7366657220746f206e6f6e20455243373231526560008201527f63656976657220696d706c656d656e7465720000000000000000000000000000602082015250565b7f4f776e61626c653a206e6577206f776e657220697320746865207a65726f206160008201527f6464726573730000000000000000000000000000000000000000000000000000602082015250565b7f4552433732313a20746f6b656e20616c7265616479206d696e74656400000000600082015250565b7f4552433732313a207472616e7366657220746f20746865207a65726f2061646460008201527f7265737300000000000000000000000000000000000000000000000000000000602082015250565b7f4552433732313a20617070726f766520746f2063616c6c657200000000000000600082015250565b7f4552433732313a206f70657261746f7220717565727920666f72206e6f6e657860008201527f697374656e7420746f6b656e0000000000000000000000000000000000000000602082015250565b7f4552433732313a20617070726f76652063616c6c6572206973206e6f74206f7760008201527f6e6572206e6f7220617070726f76656420666f7220616c6c0000000000000000602082015250565b7f4552433732313a2062616c616e636520717565727920666f7220746865207a6560008201527f726f206164647265737300000000000000000000000000000000000000000000602082015250565b7f4552433732313a206f776e657220717565727920666f72206e6f6e657869737460008201527f656e7420746f6b656e0000000000000000000000000000000000000000000000602082015250565b7f4552433732313a206d696e7420746f20746865207a65726f2061646472657373600082015250565b7f4552433732313a20617070726f76656420717565727920666f72206e6f6e657860008201527f697374656e7420746f6b656e0000000000000000000000000000000000000000602082015250565b7f4f776e61626c653a2063616c6c6572206973206e6f7420746865206f776e6572600082015250565b7f4552433732313a207472616e73666572206f6620746f6b656e2074686174206960008201527f73206e6f74206f776e0000000000000000000000000000000000000000000000602082015250565b7f4552433732313a20617070726f76616c20746f2063757272656e74206f776e6560008201527f7200000000000000000000000000000000000000000000000000000000000000602082015250565b7f4552433732313a207472616e736665722063616c6c6572206973206e6f74206f60008201527f776e6572206e6f7220617070726f766564000000000000000000000000000000602082015250565b6143b681613da4565b81146143c157600080fd5b50565b6143cd81613db6565b81146143d857600080fd5b50565b6143e481613dc2565b81146143ef57600080fd5b50565b6143fb81613e0e565b811461440657600080fd5b5056fe2a2a2a2a2a2a4d696e746564202573204e465420772f20746f6b656e4964202573202a2a2a2a2a2aa2646970667358221220aab71c5bf837acfe38cd7702ede7e971e663b63bf31f834a358361b55af55ec364736f6c63430008040033",
  "linkReferences": {},
  "deployedLinkReferences": {}
}