{
  "_format": "hh-sol-artifact-1",
  "contractName": "Phlote",
  "sourceName": "contracts/Phlote.sol",
  "abi": [
    {
      "inputs": [],
      "stateMutability": "nonpayable",
      "type": "constructor"
    },
    {
      "anonymous": false,
      "inputs": [
        {
          "indexed": true,
          "internalType": "address",
          "name": "owner",
          "type": "address"
        },
        {
          "indexed": true,
          "internalType": "address",
          "name": "approved",
          "type": "address"
        },
        {
          "indexed": true,
          "internalType": "uint256",
          "name": "tokenId",
          "type": "uint256"
        }
      ],
      "name": "Approval",
      "type": "event"
    },
    {
      "anonymous": false,
      "inputs": [
        {
          "indexed": true,
          "internalType": "address",
          "name": "owner",
          "type": "address"
        },
        {
          "indexed": true,
          "internalType": "address",
          "name": "operator",
          "type": "address"
        },
        {
          "indexed": false,
          "internalType": "bool",
          "name": "approved",
          "type": "bool"
        }
      ],
      "name": "ApprovalForAll",
      "type": "event"
    },
    {
      "anonymous": false,
      "inputs": [
        {
          "indexed": false,
          "internalType": "address",
          "name": "sender",
          "type": "address"
        },
        {
          "indexed": true,
          "internalType": "uint256",
          "name": "editionId",
          "type": "uint256"
        }
      ],
      "name": "EditionCreated",
      "type": "event"
    },
    {
      "anonymous": false,
      "inputs": [
        {
          "indexed": true,
          "internalType": "address",
          "name": "buyer",
          "type": "address"
        },
        {
          "indexed": false,
          "internalType": "uint256",
          "name": "tokenId",
          "type": "uint256"
        },
        {
          "indexed": false,
          "internalType": "uint256",
          "name": "numSold",
          "type": "uint256"
        }
      ],
      "name": "EditionMinted",
      "type": "event"
    },
    {
      "anonymous": false,
      "inputs": [
        {
          "indexed": true,
          "internalType": "address",
          "name": "previousOwner",
          "type": "address"
        },
        {
          "indexed": true,
          "internalType": "address",
          "name": "newOwner",
          "type": "address"
        }
      ],
      "name": "OwnershipTransferred",
      "type": "event"
    },
    {
      "anonymous": false,
      "inputs": [
        {
          "indexed": true,
          "internalType": "address",
          "name": "from",
          "type": "address"
        },
        {
          "indexed": true,
          "internalType": "address",
          "name": "to",
          "type": "address"
        },
        {
          "indexed": true,
          "internalType": "uint256",
          "name": "tokenId",
          "type": "uint256"
        }
      ],
      "name": "Transfer",
      "type": "event"
    },
    {
      "inputs": [
        {
          "internalType": "address",
          "name": "to",
          "type": "address"
        },
        {
          "internalType": "uint256",
          "name": "tokenId",
          "type": "uint256"
        }
      ],
      "name": "approve",
      "outputs": [],
      "stateMutability": "nonpayable",
      "type": "function"
    },
    {
      "inputs": [
        {
          "internalType": "address",
          "name": "owner",
          "type": "address"
        }
      ],
      "name": "balanceOf",
      "outputs": [
        {
          "internalType": "uint256",
          "name": "",
          "type": "uint256"
        }
      ],
      "stateMutability": "view",
      "type": "function"
    },
    {
      "inputs": [],
      "name": "contractPrice",
      "outputs": [
        {
          "internalType": "uint256",
          "name": "",
          "type": "uint256"
        }
      ],
      "stateMutability": "view",
      "type": "function"
    },
    {
      "inputs": [
        {
          "internalType": "address",
          "name": "",
          "type": "address"
        },
        {
          "internalType": "uint256",
          "name": "",
          "type": "uint256"
        }
      ],
      "name": "curatorSubmissions",
      "outputs": [
        {
          "internalType": "address",
          "name": "curatorWallet",
          "type": "address"
        },
        {
          "internalType": "address",
          "name": "artistWallet",
          "type": "address"
        },
        {
          "internalType": "string",
          "name": "mediaURI",
          "type": "string"
        },
        {
          "internalType": "string",
          "name": "marketplace",
          "type": "string"
        },
        {
          "internalType": "string",
          "name": "artistName",
          "type": "string"
        },
        {
          "internalType": "string",
          "name": "mediaType",
          "type": "string"
        },
        {
          "internalType": "string",
          "name": "mediaTitle",
          "type": "string"
        },
        {
          "internalType": "uint256",
          "name": "numSold",
          "type": "uint256"
        },
        {
          "internalType": "string",
          "name": "tokenURI",
          "type": "string"
        },
        {
          "internalType": "uint256",
          "name": "submissionTime",
          "type": "uint256"
        }
      ],
      "stateMutability": "view",
      "type": "function"
    },
    {
      "inputs": [
        {
          "internalType": "uint256",
          "name": "",
          "type": "uint256"
        }
      ],
      "name": "editions",
      "outputs": [
        {
          "internalType": "address",
          "name": "curatorWallet",
          "type": "address"
        },
        {
          "internalType": "address",
          "name": "artistWallet",
          "type": "address"
        },
        {
          "internalType": "string",
          "name": "mediaURI",
          "type": "string"
        },
        {
          "internalType": "string",
          "name": "marketplace",
          "type": "string"
        },
        {
          "internalType": "string",
          "name": "artistName",
          "type": "string"
        },
        {
          "internalType": "string",
          "name": "mediaType",
          "type": "string"
        },
        {
          "internalType": "string",
          "name": "mediaTitle",
          "type": "string"
        },
        {
          "internalType": "uint256",
          "name": "numSold",
          "type": "uint256"
        },
        {
          "internalType": "string",
          "name": "tokenURI",
          "type": "string"
        },
        {
          "internalType": "uint256",
          "name": "submissionTime",
          "type": "uint256"
        }
      ],
      "stateMutability": "view",
      "type": "function"
    },
    {
      "inputs": [],
      "name": "getAllcontent",
      "outputs": [
        {
          "components": [
            {
              "internalType": "address",
              "name": "curatorWallet",
              "type": "address"
            },
            {
              "internalType": "address",
              "name": "artistWallet",
              "type": "address"
            },
            {
              "internalType": "string",
              "name": "mediaURI",
              "type": "string"
            },
            {
              "internalType": "string",
              "name": "marketplace",
              "type": "string"
            },
            {
              "internalType": "string[]",
              "name": "tags",
              "type": "string[]"
            },
            {
              "internalType": "string",
              "name": "artistName",
              "type": "string"
            },
            {
              "internalType": "string",
              "name": "mediaType",
              "type": "string"
            },
            {
              "internalType": "string",
              "name": "mediaTitle",
              "type": "string"
            },
            {
              "internalType": "uint256",
              "name": "numSold",
              "type": "uint256"
            },
            {
              "internalType": "string",
              "name": "tokenURI",
              "type": "string"
            },
            {
              "internalType": "uint256",
              "name": "submissionTime",
              "type": "uint256"
            }
          ],
          "internalType": "struct Phlote.Edition[]",
          "name": "",
          "type": "tuple[]"
        }
      ],
      "stateMutability": "view",
      "type": "function"
    },
    {
      "inputs": [
        {
          "internalType": "uint256",
          "name": "tokenId",
          "type": "uint256"
        }
      ],
      "name": "getApproved",
      "outputs": [
        {
          "internalType": "address",
          "name": "",
          "type": "address"
        }
      ],
      "stateMutability": "view",
      "type": "function"
    },
    {
      "inputs": [
        {
          "internalType": "address",
          "name": "_curatorWallet",
          "type": "address"
        }
      ],
      "name": "getCuratorSubmissions",
      "outputs": [
        {
          "components": [
            {
              "internalType": "address",
              "name": "curatorWallet",
              "type": "address"
            },
            {
              "internalType": "address",
              "name": "artistWallet",
              "type": "address"
            },
            {
              "internalType": "string",
              "name": "mediaURI",
              "type": "string"
            },
            {
              "internalType": "string",
              "name": "marketplace",
              "type": "string"
            },
            {
              "internalType": "string[]",
              "name": "tags",
              "type": "string[]"
            },
            {
              "internalType": "string",
              "name": "artistName",
              "type": "string"
            },
            {
              "internalType": "string",
              "name": "mediaType",
              "type": "string"
            },
            {
              "internalType": "string",
              "name": "mediaTitle",
              "type": "string"
            },
            {
              "internalType": "uint256",
              "name": "numSold",
              "type": "uint256"
            },
            {
              "internalType": "string",
              "name": "tokenURI",
              "type": "string"
            },
            {
              "internalType": "uint256",
              "name": "submissionTime",
              "type": "uint256"
            }
          ],
          "internalType": "struct Phlote.Edition[]",
          "name": "",
          "type": "tuple[]"
        }
      ],
      "stateMutability": "view",
      "type": "function"
    },
    {
      "inputs": [
        {
          "internalType": "address",
          "name": "owner",
          "type": "address"
        },
        {
          "internalType": "address",
          "name": "operator",
          "type": "address"
        }
      ],
      "name": "isApprovedForAll",
      "outputs": [
        {
          "internalType": "bool",
          "name": "",
          "type": "bool"
        }
      ],
      "stateMutability": "view",
      "type": "function"
    },
    {
      "inputs": [
        {
          "internalType": "uint256",
          "name": "editionId",
          "type": "uint256"
        }
      ],
      "name": "mintEdition",
      "outputs": [],
      "stateMutability": "payable",
      "type": "function"
    },
    {
      "inputs": [],
      "name": "name",
      "outputs": [
        {
          "internalType": "string",
          "name": "",
          "type": "string"
        }
      ],
      "stateMutability": "view",
      "type": "function"
    },
    {
      "inputs": [
        {
          "internalType": "address",
          "name": "",
          "type": "address"
        }
      ],
      "name": "nftHolders",
      "outputs": [
        {
          "internalType": "uint256",
          "name": "",
          "type": "uint256"
        }
      ],
      "stateMutability": "view",
      "type": "function"
    },
    {
      "inputs": [],
      "name": "owner",
      "outputs": [
        {
          "internalType": "address",
          "name": "",
          "type": "address"
        }
      ],
      "stateMutability": "view",
      "type": "function"
    },
    {
      "inputs": [
        {
          "internalType": "uint256",
          "name": "tokenId",
          "type": "uint256"
        }
      ],
      "name": "ownerOf",
      "outputs": [
        {
          "internalType": "address",
          "name": "",
          "type": "address"
        }
      ],
      "stateMutability": "view",
      "type": "function"
    },
    {
      "inputs": [],
      "name": "renounceOwnership",
      "outputs": [],
      "stateMutability": "nonpayable",
      "type": "function"
    },
    {
      "inputs": [
        {
          "internalType": "address",
          "name": "from",
          "type": "address"
        },
        {
          "internalType": "address",
          "name": "to",
          "type": "address"
        },
        {
          "internalType": "uint256",
          "name": "tokenId",
          "type": "uint256"
        }
      ],
      "name": "safeTransferFrom",
      "outputs": [],
      "stateMutability": "nonpayable",
      "type": "function"
    },
    {
      "inputs": [
        {
          "internalType": "address",
          "name": "from",
          "type": "address"
        },
        {
          "internalType": "address",
          "name": "to",
          "type": "address"
        },
        {
          "internalType": "uint256",
          "name": "tokenId",
          "type": "uint256"
        },
        {
          "internalType": "bytes",
          "name": "_data",
          "type": "bytes"
        }
      ],
      "name": "safeTransferFrom",
      "outputs": [],
      "stateMutability": "nonpayable",
      "type": "function"
    },
    {
      "inputs": [
        {
          "internalType": "address",
          "name": "operator",
          "type": "address"
        },
        {
          "internalType": "bool",
          "name": "approved",
          "type": "bool"
        }
      ],
      "name": "setApprovalForAll",
      "outputs": [],
      "stateMutability": "nonpayable",
      "type": "function"
    },
    {
      "inputs": [
        {
          "internalType": "address",
          "name": "_curatorWallet",
          "type": "address"
        },
        {
          "internalType": "string",
          "name": "_mediaURI",
          "type": "string"
        },
        {
          "internalType": "string",
          "name": "_marketplace",
          "type": "string"
        },
        {
          "internalType": "string[]",
          "name": "_tags",
          "type": "string[]"
        },
        {
          "internalType": "string",
          "name": "_artistName",
          "type": "string"
        },
        {
          "internalType": "address",
          "name": "_artistWallet",
          "type": "address"
        },
        {
          "internalType": "string",
          "name": "_mediaType",
          "type": "string"
        },
        {
          "internalType": "string",
          "name": "_mediaTitle",
          "type": "string"
        },
        {
          "internalType": "string",
          "name": "_tokenURI",
          "type": "string"
        }
      ],
      "name": "submitPost",
      "outputs": [],
      "stateMutability": "nonpayable",
      "type": "function"
    },
    {
      "inputs": [
        {
          "internalType": "bytes4",
          "name": "interfaceId",
          "type": "bytes4"
        }
      ],
      "name": "supportsInterface",
      "outputs": [
        {
          "internalType": "bool",
          "name": "",
          "type": "bool"
        }
      ],
      "stateMutability": "view",
      "type": "function"
    },
    {
      "inputs": [],
      "name": "symbol",
      "outputs": [
        {
          "internalType": "string",
          "name": "",
          "type": "string"
        }
      ],
      "stateMutability": "view",
      "type": "function"
    },
    {
      "inputs": [
        {
          "internalType": "uint256",
          "name": "",
          "type": "uint256"
        }
      ],
      "name": "tokenToSong",
      "outputs": [
        {
          "internalType": "uint256",
          "name": "",
          "type": "uint256"
        }
      ],
      "stateMutability": "view",
      "type": "function"
    },
    {
      "inputs": [
        {
          "internalType": "uint256",
          "name": "_tokenId",
          "type": "uint256"
        }
      ],
      "name": "tokenURI",
      "outputs": [
        {
          "internalType": "string",
          "name": "",
          "type": "string"
        }
      ],
      "stateMutability": "view",
      "type": "function"
    },
    {
      "inputs": [
        {
          "internalType": "address",
          "name": "from",
          "type": "address"
        },
        {
          "internalType": "address",
          "name": "to",
          "type": "address"
        },
        {
          "internalType": "uint256",
          "name": "tokenId",
          "type": "uint256"
        }
      ],
      "name": "transferFrom",
      "outputs": [],
      "stateMutability": "nonpayable",
      "type": "function"
    },
    {
      "inputs": [
        {
          "internalType": "address",
          "name": "newOwner",
          "type": "address"
        }
      ],
      "name": "transferOwnership",
      "outputs": [],
      "stateMutability": "nonpayable",
      "type": "function"
    },
    {
      "inputs": [
        {
          "internalType": "uint256",
          "name": "",
          "type": "uint256"
        }
      ],
      "name": "withdrawnForEdition",
      "outputs": [
        {
          "internalType": "uint256",
          "name": "",
          "type": "uint256"
        }
      ],
      "stateMutability": "view",
      "type": "function"
    }
  ],
  "bytecode": "0x608060405260016009553480156200001657600080fd5b506040518060400160405280600781526020017f636f6e74656e74000000000000000000000000000000000000000000000000008152506040518060400160405280600481526020017f534f4e470000000000000000000000000000000000000000000000000000000081525081600090805190602001906200009b929190620001d8565b508060019080519060200190620000b4929190620001d8565b505050620000d7620000cb620000f460201b60201c565b620000fc60201b60201c565b620000ee6008620001c260201b62002d461760201c565b620002ed565b600033905090565b6000600660009054906101000a900473ffffffffffffffffffffffffffffffffffffffff16905081600660006101000a81548173ffffffffffffffffffffffffffffffffffffffff021916908373ffffffffffffffffffffffffffffffffffffffff1602179055508173ffffffffffffffffffffffffffffffffffffffff168173ffffffffffffffffffffffffffffffffffffffff167f8be0079c531659141344cd1fd0a4f28419497f9722a3daafe3b4186f6b6457e060405160405180910390a35050565b6001816000016000828254019250508190555050565b828054620001e69062000288565b90600052602060002090601f0160209004810192826200020a576000855562000256565b82601f106200022557805160ff191683800117855562000256565b8280016001018555821562000256579182015b828111156200025557825182559160200191906001019062000238565b5b50905062000265919062000269565b5090565b5b80821115620002845760008160009055506001016200026a565b5090565b60006002820490506001821680620002a157607f821691505b60208210811415620002b857620002b7620002be565b5b50919050565b7f4e487b7100000000000000000000000000000000000000000000000000000000600052602260045260246000fd5b61524680620002fd6000396000f3fe6080604052600436106101815760003560e01c806370a08231116100d1578063a22cb4651161008a578063d3bb052811610064578063d3bb0528146105bd578063e2b18d3f146105fa578063e985e9c514610637578063f2fde38b1461067457610181565b8063a22cb4651461052e578063b88d4fde14610557578063c87b56dd1461058057610181565b806370a082311461041c578063715018a6146104595780637df124a1146104705780638da5cb5b146104ad57806395d89b41146104d857806397e9a0bf1461050357610181565b806323b872dd1161013e57806353301ecf1161011857806353301ecf1461034e57806357954dd11461038b5780636352211e146103b65780636b165854146103f357610181565b806323b872dd146102b6578063279c806e146102df57806342842e0e1461032557610181565b806301ffc9a71461018657806305322b74146101c357806306fdde03146101df578063081812fc1461020a578063095ea7b3146102475780631125c32014610270575b600080fd5b34801561019257600080fd5b506101ad60048036038101906101a89190613fed565b61069d565b6040516101ba91906146e5565b60405180910390f35b6101dd60048036038101906101d8919061403f565b61077f565b005b3480156101eb57600080fd5b506101f4610954565b6040516102019190614700565b60405180910390f35b34801561021657600080fd5b50610231600480360381019061022c919061403f565b6109e6565b60405161023e9190614596565b60405180910390f35b34801561025357600080fd5b5061026e60048036038101906102699190613fb1565b610a6b565b005b34801561027c57600080fd5b5061029760048036038101906102929190613fb1565b610b83565b6040516102ad9a999897969594939291906145b1565b60405180910390f35b3480156102c257600080fd5b506102dd60048036038101906102d89190613d3d565b610f64565b005b3480156102eb57600080fd5b506103066004803603810190610301919061403f565b610fc4565b60405161031c9a999897969594939291906145b1565b60405180910390f35b34801561033157600080fd5b5061034c60048036038101906103479190613d3d565b611388565b005b34801561035a57600080fd5b5061037560048036038101906103709190613cd8565b6113a8565b60405161038291906146c3565b60405180910390f35b34801561039757600080fd5b506103a061194c565b6040516103ad91906146c3565b60405180910390f35b3480156103c257600080fd5b506103dd60048036038101906103d8919061403f565b611eb1565b6040516103ea9190614596565b60405180910390f35b3480156103ff57600080fd5b5061041a60048036038101906104159190613e43565b611f63565b005b34801561042857600080fd5b50610443600480360381019061043e9190613cd8565b6123ad565b6040516104509190614947565b60405180910390f35b34801561046557600080fd5b5061046e612465565b005b34801561047c57600080fd5b5061049760048036038101906104929190613cd8565b6124ed565b6040516104a49190614947565b60405180910390f35b3480156104b957600080fd5b506104c2612505565b6040516104cf9190614596565b60405180910390f35b3480156104e457600080fd5b506104ed61252f565b6040516104fa9190614700565b60405180910390f35b34801561050f57600080fd5b506105186125c1565b6040516105259190614947565b60405180910390f35b34801561053a57600080fd5b5061055560048036038101906105509190613e07565b6125c7565b005b34801561056357600080fd5b5061057e60048036038101906105799190613d8c565b6125dd565b005b34801561058c57600080fd5b506105a760048036038101906105a2919061403f565b61263f565b6040516105b49190614700565b60405180910390f35b3480156105c957600080fd5b506105e460048036038101906105df919061403f565b612b8a565b6040516105f19190614947565b60405180910390f35b34801561060657600080fd5b50610621600480360381019061061c919061403f565b612ba2565b60405161062e9190614947565b60405180910390f35b34801561064357600080fd5b5061065e60048036038101906106599190613d01565b612bba565b60405161066b91906146e5565b60405180910390f35b34801561068057600080fd5b5061069b60048036038101906106969190613cd8565b612c4e565b005b60007f80ac58cd000000000000000000000000000000000000000000000000000000007bffffffffffffffffffffffffffffffffffffffffffffffffffffffff1916827bffffffffffffffffffffffffffffffffffffffffffffffffffffffff1916148061076857507f5b5e139f000000000000000000000000000000000000000000000000000000007bffffffffffffffffffffffffffffffffffffffffffffffffffffffff1916827bffffffffffffffffffffffffffffffffffffffffffffffffffffffff1916145b80610778575061077782612d5c565b5b9050919050565b600061078b6008612dc6565b90506107973382612dd4565b6108586040518060600160405280602881526020016151e960289139600b600085815260200190815260200160002060070180546107d490614c39565b80601f016020809104026020016040519081016040528092919081815260200182805461080090614c39565b801561084d5780601f106108225761010080835404028352916020019161084d565b820191906000526020600020905b81548152906001019060200180831161083057829003601f168201915b505050505083612df2565b80600c60003373ffffffffffffffffffffffffffffffffffffffff1673ffffffffffffffffffffffffffffffffffffffff168152602001908152602001600020819055506108a66008612d46565b600b600083815260200190815260200160002060080160008154809291906108cd90614c9c565b919050555081600f6000838152602001908152602001600020819055503373ffffffffffffffffffffffffffffffffffffffff167fe1b60c9e07632933648666e5ede8b3b329ddfa2ab98c51b1a5b4b22ab4f1349c82600b600086815260200190815260200160002060080154604051610948929190614962565b60405180910390a25050565b60606000805461096390614c39565b80601f016020809104026020016040519081016040528092919081815260200182805461098f90614c39565b80156109dc5780601f106109b1576101008083540402835291602001916109dc565b820191906000526020600020905b8154815290600101906020018083116109bf57829003601f168201915b5050505050905090565b60006109f182612e91565b610a30576040517f08c379a0000000000000000000000000000000000000000000000000000000008152600401610a27906148a7565b60405180910390fd5b6004600083815260200190815260200160002060009054906101000a900473ffffffffffffffffffffffffffffffffffffffff169050919050565b6000610a7682611eb1565b90508073ffffffffffffffffffffffffffffffffffffffff168373ffffffffffffffffffffffffffffffffffffffff161415610ae7576040517f08c379a0000000000000000000000000000000000000000000000000000000008152600401610ade90614907565b60405180910390fd5b8073ffffffffffffffffffffffffffffffffffffffff16610b06612efd565b73ffffffffffffffffffffffffffffffffffffffff161480610b355750610b3481610b2f612efd565b612bba565b5b610b74576040517f08c379a0000000000000000000000000000000000000000000000000000000008152600401610b6b90614827565b60405180910390fd5b610b7e8383612f05565b505050565b600d6020528160005260406000208181548110610b9f57600080fd5b90600052602060002090600b0201600091509150508060000160009054906101000a900473ffffffffffffffffffffffffffffffffffffffff16908060010160009054906101000a900473ffffffffffffffffffffffffffffffffffffffff1690806002018054610c0f90614c39565b80601f0160208091040260200160405190810160405280929190818152602001828054610c3b90614c39565b8015610c885780601f10610c5d57610100808354040283529160200191610c88565b820191906000526020600020905b815481529060010190602001808311610c6b57829003601f168201915b505050505090806003018054610c9d90614c39565b80601f0160208091040260200160405190810160405280929190818152602001828054610cc990614c39565b8015610d165780601f10610ceb57610100808354040283529160200191610d16565b820191906000526020600020905b815481529060010190602001808311610cf957829003601f168201915b505050505090806005018054610d2b90614c39565b80601f0160208091040260200160405190810160405280929190818152602001828054610d5790614c39565b8015610da45780601f10610d7957610100808354040283529160200191610da4565b820191906000526020600020905b815481529060010190602001808311610d8757829003601f168201915b505050505090806006018054610db990614c39565b80601f0160208091040260200160405190810160405280929190818152602001828054610de590614c39565b8015610e325780601f10610e0757610100808354040283529160200191610e32565b820191906000526020600020905b815481529060010190602001808311610e1557829003601f168201915b505050505090806007018054610e4790614c39565b80601f0160208091040260200160405190810160405280929190818152602001828054610e7390614c39565b8015610ec05780601f10610e9557610100808354040283529160200191610ec0565b820191906000526020600020905b815481529060010190602001808311610ea357829003601f168201915b505050505090806008015490806009018054610edb90614c39565b80601f0160208091040260200160405190810160405280929190818152602001828054610f0790614c39565b8015610f545780601f10610f2957610100808354040283529160200191610f54565b820191906000526020600020905b815481529060010190602001808311610f3757829003601f168201915b50505050509080600a015490508a565b610f75610f6f612efd565b82612fbe565b610fb4576040517f08c379a0000000000000000000000000000000000000000000000000000000008152600401610fab90614927565b60405180910390fd5b610fbf83838361309c565b505050565b600b6020528060005260406000206000915090508060000160009054906101000a900473ffffffffffffffffffffffffffffffffffffffff16908060010160009054906101000a900473ffffffffffffffffffffffffffffffffffffffff169080600201805461103390614c39565b80601f016020809104026020016040519081016040528092919081815260200182805461105f90614c39565b80156110ac5780601f10611081576101008083540402835291602001916110ac565b820191906000526020600020905b81548152906001019060200180831161108f57829003601f168201915b5050505050908060030180546110c190614c39565b80601f01602080910402602001604051908101604052809291908181526020018280546110ed90614c39565b801561113a5780601f1061110f5761010080835404028352916020019161113a565b820191906000526020600020905b81548152906001019060200180831161111d57829003601f168201915b50505050509080600501805461114f90614c39565b80601f016020809104026020016040519081016040528092919081815260200182805461117b90614c39565b80156111c85780601f1061119d576101008083540402835291602001916111c8565b820191906000526020600020905b8154815290600101906020018083116111ab57829003601f168201915b5050505050908060060180546111dd90614c39565b80601f016020809104026020016040519081016040528092919081815260200182805461120990614c39565b80156112565780601f1061122b57610100808354040283529160200191611256565b820191906000526020600020905b81548152906001019060200180831161123957829003601f168201915b50505050509080600701805461126b90614c39565b80601f016020809104026020016040519081016040528092919081815260200182805461129790614c39565b80156112e45780601f106112b9576101008083540402835291602001916112e4565b820191906000526020600020905b8154815290600101906020018083116112c757829003601f168201915b5050505050908060080154908060090180546112ff90614c39565b80601f016020809104026020016040519081016040528092919081815260200182805461132b90614c39565b80156113785780601f1061134d57610100808354040283529160200191611378565b820191906000526020600020905b81548152906001019060200180831161135b57829003601f168201915b50505050509080600a015490508a565b6113a3838383604051806020016040528060008152506125dd565b505050565b6060600d60008373ffffffffffffffffffffffffffffffffffffffff1673ffffffffffffffffffffffffffffffffffffffff168152602001908152602001600020805480602002602001604051908101604052809291908181526020016000905b8282101561194157838290600052602060002090600b0201604051806101600160405290816000820160009054906101000a900473ffffffffffffffffffffffffffffffffffffffff1673ffffffffffffffffffffffffffffffffffffffff1673ffffffffffffffffffffffffffffffffffffffff1681526020016001820160009054906101000a900473ffffffffffffffffffffffffffffffffffffffff1673ffffffffffffffffffffffffffffffffffffffff1673ffffffffffffffffffffffffffffffffffffffff1681526020016002820180546114e990614c39565b80601f016020809104026020016040519081016040528092919081815260200182805461151590614c39565b80156115625780601f1061153757610100808354040283529160200191611562565b820191906000526020600020905b81548152906001019060200180831161154557829003601f168201915b5050505050815260200160038201805461157b90614c39565b80601f01602080910402602001604051908101604052809291908181526020018280546115a790614c39565b80156115f45780601f106115c9576101008083540402835291602001916115f4565b820191906000526020600020905b8154815290600101906020018083116115d757829003601f168201915b5050505050815260200160048201805480602002602001604051908101604052809291908181526020016000905b828210156116ce57838290600052602060002001805461164190614c39565b80601f016020809104026020016040519081016040528092919081815260200182805461166d90614c39565b80156116ba5780601f1061168f576101008083540402835291602001916116ba565b820191906000526020600020905b81548152906001019060200180831161169d57829003601f168201915b505050505081526020019060010190611622565b5050505081526020016005820180546116e690614c39565b80601f016020809104026020016040519081016040528092919081815260200182805461171290614c39565b801561175f5780601f106117345761010080835404028352916020019161175f565b820191906000526020600020905b81548152906001019060200180831161174257829003601f168201915b5050505050815260200160068201805461177890614c39565b80601f01602080910402602001604051908101604052809291908181526020018280546117a490614c39565b80156117f15780601f106117c6576101008083540402835291602001916117f1565b820191906000526020600020905b8154815290600101906020018083116117d457829003601f168201915b5050505050815260200160078201805461180a90614c39565b80601f016020809104026020016040519081016040528092919081815260200182805461183690614c39565b80156118835780601f1061185857610100808354040283529160200191611883565b820191906000526020600020905b81548152906001019060200180831161186657829003601f168201915b50505050508152602001600882015481526020016009820180546118a690614c39565b80601f01602080910402602001604051908101604052809291908181526020018280546118d290614c39565b801561191f5780601f106118f45761010080835404028352916020019161191f565b820191906000526020600020905b81548152906001019060200180831161190257829003601f168201915b50505050508152602001600a8201548152505081526020019060010190611409565b505050509050919050565b6060600a805480602002602001604051908101604052809291908181526020016000905b82821015611ea857838290600052602060002090600b0201604051806101600160405290816000820160009054906101000a900473ffffffffffffffffffffffffffffffffffffffff1673ffffffffffffffffffffffffffffffffffffffff1673ffffffffffffffffffffffffffffffffffffffff1681526020016001820160009054906101000a900473ffffffffffffffffffffffffffffffffffffffff1673ffffffffffffffffffffffffffffffffffffffff1673ffffffffffffffffffffffffffffffffffffffff168152602001600282018054611a5090614c39565b80601f0160208091040260200160405190810160405280929190818152602001828054611a7c90614c39565b8015611ac95780601f10611a9e57610100808354040283529160200191611ac9565b820191906000526020600020905b815481529060010190602001808311611aac57829003601f168201915b50505050508152602001600382018054611ae290614c39565b80601f0160208091040260200160405190810160405280929190818152602001828054611b0e90614c39565b8015611b5b5780601f10611b3057610100808354040283529160200191611b5b565b820191906000526020600020905b815481529060010190602001808311611b3e57829003601f168201915b5050505050815260200160048201805480602002602001604051908101604052809291908181526020016000905b82821015611c35578382906000526020600020018054611ba890614c39565b80601f0160208091040260200160405190810160405280929190818152602001828054611bd490614c39565b8015611c215780601f10611bf657610100808354040283529160200191611c21565b820191906000526020600020905b815481529060010190602001808311611c0457829003601f168201915b505050505081526020019060010190611b89565b505050508152602001600582018054611c4d90614c39565b80601f0160208091040260200160405190810160405280929190818152602001828054611c7990614c39565b8015611cc65780601f10611c9b57610100808354040283529160200191611cc6565b820191906000526020600020905b815481529060010190602001808311611ca957829003601f168201915b50505050508152602001600682018054611cdf90614c39565b80601f0160208091040260200160405190810160405280929190818152602001828054611d0b90614c39565b8015611d585780601f10611d2d57610100808354040283529160200191611d58565b820191906000526020600020905b815481529060010190602001808311611d3b57829003601f168201915b50505050508152602001600782018054611d7190614c39565b80601f0160208091040260200160405190810160405280929190818152602001828054611d9d90614c39565b8015611dea5780601f10611dbf57610100808354040283529160200191611dea565b820191906000526020600020905b815481529060010190602001808311611dcd57829003601f168201915b5050505050815260200160088201548152602001600982018054611e0d90614c39565b80601f0160208091040260200160405190810160405280929190818152602001828054611e3990614c39565b8015611e865780601f10611e5b57610100808354040283529160200191611e86565b820191906000526020600020905b815481529060010190602001808311611e6957829003601f168201915b50505050508152602001600a8201548152505081526020019060010190611970565b50505050905090565b6000806002600084815260200190815260200160002060009054906101000a900473ffffffffffffffffffffffffffffffffffffffff169050600073ffffffffffffffffffffffffffffffffffffffff168173ffffffffffffffffffffffffffffffffffffffff161415611f5a576040517f08c379a0000000000000000000000000000000000000000000000000000000008152600401611f5190614867565b60405180910390fd5b80915050919050565b60006040518061016001604052808b73ffffffffffffffffffffffffffffffffffffffff1681526020018673ffffffffffffffffffffffffffffffffffffffff1681526020018a81526020018981526020018881526020018781526020018581526020018481526020016000815260200183815260200142815250905080600b6000600954815260200190815260200160002060008201518160000160006101000a81548173ffffffffffffffffffffffffffffffffffffffff021916908373ffffffffffffffffffffffffffffffffffffffff16021790555060208201518160010160006101000a81548173ffffffffffffffffffffffffffffffffffffffff021916908373ffffffffffffffffffffffffffffffffffffffff16021790555060408201518160020190805190602001906120a0929190613988565b5060608201518160030190805190602001906120bd929190613988565b5060808201518160040190805190602001906120da929190613a0e565b5060a08201518160050190805190602001906120f7929190613988565b5060c0820151816006019080519060200190612114929190613988565b5060e0820151816007019080519060200190612131929190613988565b50610100820151816008015561012082015181600901908051906020019061215a929190613988565b5061014082015181600a0155905050600d60008b73ffffffffffffffffffffffffffffffffffffffff1673ffffffffffffffffffffffffffffffffffffffff1681526020019081526020016000208190806001815401808255809150506001900390600052602060002090600b020160009091909190915060008201518160000160006101000a81548173ffffffffffffffffffffffffffffffffffffffff021916908373ffffffffffffffffffffffffffffffffffffffff16021790555060208201518160010160006101000a81548173ffffffffffffffffffffffffffffffffffffffff021916908373ffffffffffffffffffffffffffffffffffffffff160217905550604082015181600201908051906020019061227c929190613988565b506060820151816003019080519060200190612299929190613988565b5060808201518160040190805190602001906122b6929190613a0e565b5060a08201518160050190805190602001906122d3929190613988565b5060c08201518160060190805190602001906122f0929190613988565b5060e082015181600701908051906020019061230d929190613988565b506101008201518160080155610120820151816009019080519060200190612336929190613988565b5061014082015181600a015550506009547fa1cd98301e2a758f45871102b368fdcf3f56e13f8e8fd2886523ac87ca066ce0336040516123769190614596565b60405180910390a261238960095461077f565b6009600081548092919061239c90614c9c565b919050555050505050505050505050565b60008073ffffffffffffffffffffffffffffffffffffffff168273ffffffffffffffffffffffffffffffffffffffff16141561241e576040517f08c379a000000000000000000000000000000000000000000000000000000000815260040161241590614847565b60405180910390fd5b600360008373ffffffffffffffffffffffffffffffffffffffff1673ffffffffffffffffffffffffffffffffffffffff168152602001908152602001600020549050919050565b61246d612efd565b73ffffffffffffffffffffffffffffffffffffffff1661248b612505565b73ffffffffffffffffffffffffffffffffffffffff16146124e1576040517f08c379a00000000000000000000000000000000000000000000000000000000081526004016124d8906148c7565b60405180910390fd5b6124eb60006132f8565b565b600c6020528060005260406000206000915090505481565b6000600660009054906101000a900473ffffffffffffffffffffffffffffffffffffffff16905090565b60606001805461253e90614c39565b80601f016020809104026020016040519081016040528092919081815260200182805461256a90614c39565b80156125b75780601f1061258c576101008083540402835291602001916125b7565b820191906000526020600020905b81548152906001019060200180831161259a57829003601f168201915b5050505050905090565b60075481565b6125d96125d2612efd565b83836133be565b5050565b6125ee6125e8612efd565b83612fbe565b61262d576040517f08c379a000000000000000000000000000000000000000000000000000000000815260040161262490614927565b60405180910390fd5b6126398484848461352b565b50505050565b60606000600b6000600f6000868152602001908152602001600020548152602001908152602001600020604051806101600160405290816000820160009054906101000a900473ffffffffffffffffffffffffffffffffffffffff1673ffffffffffffffffffffffffffffffffffffffff1673ffffffffffffffffffffffffffffffffffffffff1681526020016001820160009054906101000a900473ffffffffffffffffffffffffffffffffffffffff1673ffffffffffffffffffffffffffffffffffffffff1673ffffffffffffffffffffffffffffffffffffffff16815260200160028201805461273190614c39565b80601f016020809104026020016040519081016040528092919081815260200182805461275d90614c39565b80156127aa5780601f1061277f576101008083540402835291602001916127aa565b820191906000526020600020905b81548152906001019060200180831161278d57829003601f168201915b505050505081526020016003820180546127c390614c39565b80601f01602080910402602001604051908101604052809291908181526020018280546127ef90614c39565b801561283c5780601f106128115761010080835404028352916020019161283c565b820191906000526020600020905b81548152906001019060200180831161281f57829003601f168201915b5050505050815260200160048201805480602002602001604051908101604052809291908181526020016000905b8282101561291657838290600052602060002001805461288990614c39565b80601f01602080910402602001604051908101604052809291908181526020018280546128b590614c39565b80156129025780601f106128d757610100808354040283529160200191612902565b820191906000526020600020905b8154815290600101906020018083116128e557829003601f168201915b50505050508152602001906001019061286a565b50505050815260200160058201805461292e90614c39565b80601f016020809104026020016040519081016040528092919081815260200182805461295a90614c39565b80156129a75780601f1061297c576101008083540402835291602001916129a7565b820191906000526020600020905b81548152906001019060200180831161298a57829003601f168201915b505050505081526020016006820180546129c090614c39565b80601f01602080910402602001604051908101604052809291908181526020018280546129ec90614c39565b8015612a395780601f10612a0e57610100808354040283529160200191612a39565b820191906000526020600020905b815481529060010190602001808311612a1c57829003601f168201915b50505050508152602001600782018054612a5290614c39565b80601f0160208091040260200160405190810160405280929190818152602001828054612a7e90614c39565b8015612acb5780601f10612aa057610100808354040283529160200191612acb565b820191906000526020600020905b815481529060010190602001808311612aae57829003601f168201915b5050505050815260200160088201548152602001600982018054612aee90614c39565b80601f0160208091040260200160405190810160405280929190818152602001828054612b1a90614c39565b8015612b675780601f10612b3c57610100808354040283529160200191612b67565b820191906000526020600020905b815481529060010190602001808311612b4a57829003601f168201915b50505050508152602001600a820154815250509050806101200151915050919050565b600e6020528060005260406000206000915090505481565b600f6020528060005260406000206000915090505481565b6000600560008473ffffffffffffffffffffffffffffffffffffffff1673ffffffffffffffffffffffffffffffffffffffff16815260200190815260200160002060008373ffffffffffffffffffffffffffffffffffffffff1673ffffffffffffffffffffffffffffffffffffffff16815260200190815260200160002060009054906101000a900460ff16905092915050565b612c56612efd565b73ffffffffffffffffffffffffffffffffffffffff16612c74612505565b73ffffffffffffffffffffffffffffffffffffffff1614612cca576040517f08c379a0000000000000000000000000000000000000000000000000000000008152600401612cc1906148c7565b60405180910390fd5b600073ffffffffffffffffffffffffffffffffffffffff168173ffffffffffffffffffffffffffffffffffffffff161415612d3a576040517f08c379a0000000000000000000000000000000000000000000000000000000008152600401612d3190614787565b60405180910390fd5b612d43816132f8565b50565b6001816000016000828254019250508190555050565b60007f01ffc9a7000000000000000000000000000000000000000000000000000000007bffffffffffffffffffffffffffffffffffffffffffffffffffffffff1916827bffffffffffffffffffffffffffffffffffffffffffffffffffffffff1916149050919050565b600081600001549050919050565b612dee828260405180602001604052806000815250613587565b5050565b612e8c838383604051602401612e0a93929190614722565b6040516020818303038152906040527ff362ca59000000000000000000000000000000000000000000000000000000007bffffffffffffffffffffffffffffffffffffffffffffffffffffffff19166020820180517bffffffffffffffffffffffffffffffffffffffffffffffffffffffff83818316178352505050506135e2565b505050565b60008073ffffffffffffffffffffffffffffffffffffffff166002600084815260200190815260200160002060009054906101000a900473ffffffffffffffffffffffffffffffffffffffff1673ffffffffffffffffffffffffffffffffffffffff1614159050919050565b600033905090565b816004600083815260200190815260200160002060006101000a81548173ffffffffffffffffffffffffffffffffffffffff021916908373ffffffffffffffffffffffffffffffffffffffff160217905550808273ffffffffffffffffffffffffffffffffffffffff16612f7883611eb1565b73ffffffffffffffffffffffffffffffffffffffff167f8c5be1e5ebec7d5bd14f71427d1e84f3dd0314c0f7b2291e5b200ac8c7c3b92560405160405180910390a45050565b6000612fc982612e91565b613008576040517f08c379a0000000000000000000000000000000000000000000000000000000008152600401612fff90614807565b60405180910390fd5b600061301383611eb1565b90508073ffffffffffffffffffffffffffffffffffffffff168473ffffffffffffffffffffffffffffffffffffffff16148061308257508373ffffffffffffffffffffffffffffffffffffffff1661306a846109e6565b73ffffffffffffffffffffffffffffffffffffffff16145b8061309357506130928185612bba565b5b91505092915050565b8273ffffffffffffffffffffffffffffffffffffffff166130bc82611eb1565b73ffffffffffffffffffffffffffffffffffffffff1614613112576040517f08c379a0000000000000000000000000000000000000000000000000000000008152600401613109906148e7565b60405180910390fd5b600073ffffffffffffffffffffffffffffffffffffffff168273ffffffffffffffffffffffffffffffffffffffff161415613182576040517f08c379a0000000000000000000000000000000000000000000000000000000008152600401613179906147c7565b60405180910390fd5b61318d83838361360b565b613198600082612f05565b6001600360008573ffffffffffffffffffffffffffffffffffffffff1673ffffffffffffffffffffffffffffffffffffffff16815260200190815260200160002060008282546131e89190614b4f565b925050819055506001600360008473ffffffffffffffffffffffffffffffffffffffff1673ffffffffffffffffffffffffffffffffffffffff168152602001908152602001600020600082825461323f9190614af9565b92505081905550816002600083815260200190815260200160002060006101000a81548173ffffffffffffffffffffffffffffffffffffffff021916908373ffffffffffffffffffffffffffffffffffffffff160217905550808273ffffffffffffffffffffffffffffffffffffffff168473ffffffffffffffffffffffffffffffffffffffff167fddf252ad1be2c89b69c2b068fc378daa952ba7f163c4a11628f55a4df523b3ef60405160405180910390a4505050565b6000600660009054906101000a900473ffffffffffffffffffffffffffffffffffffffff16905081600660006101000a81548173ffffffffffffffffffffffffffffffffffffffff021916908373ffffffffffffffffffffffffffffffffffffffff1602179055508173ffffffffffffffffffffffffffffffffffffffff168173ffffffffffffffffffffffffffffffffffffffff167f8be0079c531659141344cd1fd0a4f28419497f9722a3daafe3b4186f6b6457e060405160405180910390a35050565b8173ffffffffffffffffffffffffffffffffffffffff168373ffffffffffffffffffffffffffffffffffffffff16141561342d576040517f08c379a0000000000000000000000000000000000000000000000000000000008152600401613424906147e7565b60405180910390fd5b80600560008573ffffffffffffffffffffffffffffffffffffffff1673ffffffffffffffffffffffffffffffffffffffff16815260200190815260200160002060008473ffffffffffffffffffffffffffffffffffffffff1673ffffffffffffffffffffffffffffffffffffffff16815260200190815260200160002060006101000a81548160ff0219169083151502179055508173ffffffffffffffffffffffffffffffffffffffff168373ffffffffffffffffffffffffffffffffffffffff167f17307eab39ab6107e8899845ad3d59bd9653f200f220920489ca2b5937696c318360405161351e91906146e5565b60405180910390a3505050565b61353684848461309c565b61354284848484613610565b613581576040517f08c379a000000000000000000000000000000000000000000000000000000000815260040161357890614767565b60405180910390fd5b50505050565b61359183836137a7565b61359e6000848484613610565b6135dd576040517f08c379a00000000000000000000000000000000000000000000000000000000081526004016135d490614767565b60405180910390fd5b505050565b60008151905060006a636f6e736f6c652e6c6f679050602083016000808483855afa5050505050565b505050565b60006136318473ffffffffffffffffffffffffffffffffffffffff16613975565b1561379a578373ffffffffffffffffffffffffffffffffffffffff1663150b7a0261365a612efd565b8786866040518563ffffffff1660e01b815260040161367c9493929190614677565b602060405180830381600087803b15801561369657600080fd5b505af19250505080156136c757506040513d601f19601f820116820180604052508101906136c49190614016565b60015b61374a573d80600081146136f7576040519150601f19603f3d011682016040523d82523d6000602084013e6136fc565b606091505b50600081511415613742576040517f08c379a000000000000000000000000000000000000000000000000000000000815260040161373990614767565b60405180910390fd5b805181602001fd5b63150b7a0260e01b7bffffffffffffffffffffffffffffffffffffffffffffffffffffffff1916817bffffffffffffffffffffffffffffffffffffffffffffffffffffffff19161491505061379f565b600190505b949350505050565b600073ffffffffffffffffffffffffffffffffffffffff168273ffffffffffffffffffffffffffffffffffffffff161415613817576040517f08c379a000000000000000000000000000000000000000000000000000000000815260040161380e90614887565b60405180910390fd5b61382081612e91565b15613860576040517f08c379a0000000000000000000000000000000000000000000000000000000008152600401613857906147a7565b60405180910390fd5b61386c6000838361360b565b6001600360008473ffffffffffffffffffffffffffffffffffffffff1673ffffffffffffffffffffffffffffffffffffffff16815260200190815260200160002060008282546138bc9190614af9565b92505081905550816002600083815260200190815260200160002060006101000a81548173ffffffffffffffffffffffffffffffffffffffff021916908373ffffffffffffffffffffffffffffffffffffffff160217905550808273ffffffffffffffffffffffffffffffffffffffff16600073ffffffffffffffffffffffffffffffffffffffff167fddf252ad1be2c89b69c2b068fc378daa952ba7f163c4a11628f55a4df523b3ef60405160405180910390a45050565b600080823b905060008111915050919050565b82805461399490614c39565b90600052602060002090601f0160209004810192826139b657600085556139fd565b82601f106139cf57805160ff19168380011785556139fd565b828001600101855582156139fd579182015b828111156139fc5782518255916020019190600101906139e1565b5b509050613a0a9190613a6e565b5090565b828054828255906000526020600020908101928215613a5d579160200282015b82811115613a5c578251829080519060200190613a4c929190613988565b5091602001919060010190613a2e565b5b509050613a6a9190613a8b565b5090565b5b80821115613a87576000816000905550600101613a6f565b5090565b5b80821115613aab5760008181613aa29190613aaf565b50600101613a8c565b5090565b508054613abb90614c39565b6000825580601f10613acd5750613aec565b601f016020900490600052602060002090810190613aeb9190613a6e565b5b50565b6000613b02613afd846149b0565b61498b565b90508083825260208201905082856020860282011115613b2157600080fd5b60005b85811015613b6b57813567ffffffffffffffff811115613b4357600080fd5b808601613b508982613c99565b85526020850194506020840193505050600181019050613b24565b5050509392505050565b6000613b88613b83846149dc565b61498b565b905082815260208101848484011115613ba057600080fd5b613bab848285614bf7565b509392505050565b6000613bc6613bc184614a0d565b61498b565b905082815260208101848484011115613bde57600080fd5b613be9848285614bf7565b509392505050565b600081359050613c008161518c565b92915050565b600082601f830112613c1757600080fd5b8135613c27848260208601613aef565b91505092915050565b600081359050613c3f816151a3565b92915050565b600081359050613c54816151ba565b92915050565b600081519050613c69816151ba565b92915050565b600082601f830112613c8057600080fd5b8135613c90848260208601613b75565b91505092915050565b600082601f830112613caa57600080fd5b8135613cba848260208601613bb3565b91505092915050565b600081359050613cd2816151d1565b92915050565b600060208284031215613cea57600080fd5b6000613cf884828501613bf1565b91505092915050565b60008060408385031215613d1457600080fd5b6000613d2285828601613bf1565b9250506020613d3385828601613bf1565b9150509250929050565b600080600060608486031215613d5257600080fd5b6000613d6086828701613bf1565b9350506020613d7186828701613bf1565b9250506040613d8286828701613cc3565b9150509250925092565b60008060008060808587031215613da257600080fd5b6000613db087828801613bf1565b9450506020613dc187828801613bf1565b9350506040613dd287828801613cc3565b925050606085013567ffffffffffffffff811115613def57600080fd5b613dfb87828801613c6f565b91505092959194509250565b60008060408385031215613e1a57600080fd5b6000613e2885828601613bf1565b9250506020613e3985828601613c30565b9150509250929050565b60008060008060008060008060006101208a8c031215613e6257600080fd5b6000613e708c828d01613bf1565b99505060208a013567ffffffffffffffff811115613e8d57600080fd5b613e998c828d01613c99565b98505060408a013567ffffffffffffffff811115613eb657600080fd5b613ec28c828d01613c99565b97505060608a013567ffffffffffffffff811115613edf57600080fd5b613eeb8c828d01613c06565b96505060808a013567ffffffffffffffff811115613f0857600080fd5b613f148c828d01613c99565b95505060a0613f258c828d01613bf1565b94505060c08a013567ffffffffffffffff811115613f4257600080fd5b613f4e8c828d01613c99565b93505060e08a013567ffffffffffffffff811115613f6b57600080fd5b613f778c828d01613c99565b9250506101008a013567ffffffffffffffff811115613f9557600080fd5b613fa18c828d01613c99565b9150509295985092959850929598565b60008060408385031215613fc457600080fd5b6000613fd285828601613bf1565b9250506020613fe385828601613cc3565b9150509250929050565b600060208284031215613fff57600080fd5b600061400d84828501613c45565b91505092915050565b60006020828403121561402857600080fd5b600061403684828501613c5a565b91505092915050565b60006020828403121561405157600080fd5b600061405f84828501613cc3565b91505092915050565b600061407483836141e0565b905092915050565b6000614088838361445f565b905092915050565b61409981614b83565b82525050565b6140a881614b83565b82525050565b60006140b982614a5e565b6140c38185614aa4565b9350836020820285016140d585614a3e565b8060005b8581101561411157848403895281516140f28582614068565b94506140fd83614a8a565b925060208a019950506001810190506140d9565b50829750879550505050505092915050565b600061412e82614a69565b6141388185614ab5565b93508360208202850161414a85614a4e565b8060005b858110156141865784840389528151614167858261407c565b945061417283614a97565b925060208a0199505060018101905061414e565b50829750879550505050505092915050565b6141a181614b95565b82525050565b60006141b282614a74565b6141bc8185614ac6565b93506141cc818560208601614c06565b6141d581614d72565b840191505092915050565b60006141eb82614a7f565b6141f58185614ad7565b9350614205818560208601614c06565b61420e81614d72565b840191505092915050565b600061422482614a7f565b61422e8185614ae8565b935061423e818560208601614c06565b61424781614d72565b840191505092915050565b600061425f603283614ae8565b915061426a82614d83565b604082019050919050565b6000614282602683614ae8565b915061428d82614dd2565b604082019050919050565b60006142a5601c83614ae8565b91506142b082614e21565b602082019050919050565b60006142c8602483614ae8565b91506142d382614e4a565b604082019050919050565b60006142eb601983614ae8565b91506142f682614e99565b602082019050919050565b600061430e602c83614ae8565b915061431982614ec2565b604082019050919050565b6000614331603883614ae8565b915061433c82614f11565b604082019050919050565b6000614354602a83614ae8565b915061435f82614f60565b604082019050919050565b6000614377602983614ae8565b915061438282614faf565b604082019050919050565b600061439a602083614ae8565b91506143a582614ffe565b602082019050919050565b60006143bd602c83614ae8565b91506143c882615027565b604082019050919050565b60006143e0602083614ae8565b91506143eb82615076565b602082019050919050565b6000614403602983614ae8565b915061440e8261509f565b604082019050919050565b6000614426602183614ae8565b9150614431826150ee565b604082019050919050565b6000614449603183614ae8565b91506144548261513d565b604082019050919050565b6000610160830160008301516144786000860182614090565b50602083015161448b6020860182614090565b50604083015184820360408601526144a382826141e0565b915050606083015184820360608601526144bd82826141e0565b915050608083015184820360808601526144d782826140ae565b91505060a083015184820360a08601526144f182826141e0565b91505060c083015184820360c086015261450b82826141e0565b91505060e083015184820360e086015261452582826141e0565b91505061010083015161453c610100860182614578565b5061012083015184820361012086015261455682826141e0565b91505061014083015161456d610140860182614578565b508091505092915050565b61458181614bed565b82525050565b61459081614bed565b82525050565b60006020820190506145ab600083018461409f565b92915050565b6000610140820190506145c7600083018d61409f565b6145d4602083018c61409f565b81810360408301526145e6818b614219565b905081810360608301526145fa818a614219565b9050818103608083015261460e8189614219565b905081810360a08301526146228188614219565b905081810360c08301526146368187614219565b905061464560e0830186614587565b8181036101008301526146588185614219565b9050614668610120830184614587565b9b9a5050505050505050505050565b600060808201905061468c600083018761409f565b614699602083018661409f565b6146a66040830185614587565b81810360608301526146b881846141a7565b905095945050505050565b600060208201905081810360008301526146dd8184614123565b905092915050565b60006020820190506146fa6000830184614198565b92915050565b6000602082019050818103600083015261471a8184614219565b905092915050565b6000606082019050818103600083015261473c8186614219565b905081810360208301526147508185614219565b905061475f6040830184614587565b949350505050565b6000602082019050818103600083015261478081614252565b9050919050565b600060208201905081810360008301526147a081614275565b9050919050565b600060208201905081810360008301526147c081614298565b9050919050565b600060208201905081810360008301526147e0816142bb565b9050919050565b60006020820190508181036000830152614800816142de565b9050919050565b6000602082019050818103600083015261482081614301565b9050919050565b6000602082019050818103600083015261484081614324565b9050919050565b6000602082019050818103600083015261486081614347565b9050919050565b600060208201905081810360008301526148808161436a565b9050919050565b600060208201905081810360008301526148a08161438d565b9050919050565b600060208201905081810360008301526148c0816143b0565b9050919050565b600060208201905081810360008301526148e0816143d3565b9050919050565b60006020820190508181036000830152614900816143f6565b9050919050565b6000602082019050818103600083015261492081614419565b9050919050565b600060208201905081810360008301526149408161443c565b9050919050565b600060208201905061495c6000830184614587565b92915050565b60006040820190506149776000830185614587565b6149846020830184614587565b9392505050565b60006149956149a6565b90506149a18282614c6b565b919050565b6000604051905090565b600067ffffffffffffffff8211156149cb576149ca614d43565b5b602082029050602081019050919050565b600067ffffffffffffffff8211156149f7576149f6614d43565b5b614a0082614d72565b9050602081019050919050565b600067ffffffffffffffff821115614a2857614a27614d43565b5b614a3182614d72565b9050602081019050919050565b6000819050602082019050919050565b6000819050602082019050919050565b600081519050919050565b600081519050919050565b600081519050919050565b600081519050919050565b6000602082019050919050565b6000602082019050919050565b600082825260208201905092915050565b600082825260208201905092915050565b600082825260208201905092915050565b600082825260208201905092915050565b600082825260208201905092915050565b6000614b0482614bed565b9150614b0f83614bed565b9250827fffffffffffffffffffffffffffffffffffffffffffffffffffffffffffffffff03821115614b4457614b43614ce5565b5b828201905092915050565b6000614b5a82614bed565b9150614b6583614bed565b925082821015614b7857614b77614ce5565b5b828203905092915050565b6000614b8e82614bcd565b9050919050565b60008115159050919050565b60007fffffffff0000000000000000000000000000000000000000000000000000000082169050919050565b600073ffffffffffffffffffffffffffffffffffffffff82169050919050565b6000819050919050565b82818337600083830152505050565b60005b83811015614c24578082015181840152602081019050614c09565b83811115614c33576000848401525b50505050565b60006002820490506001821680614c5157607f821691505b60208210811415614c6557614c64614d14565b5b50919050565b614c7482614d72565b810181811067ffffffffffffffff82111715614c9357614c92614d43565b5b80604052505050565b6000614ca782614bed565b91507fffffffffffffffffffffffffffffffffffffffffffffffffffffffffffffffff821415614cda57614cd9614ce5565b5b600182019050919050565b7f4e487b7100000000000000000000000000000000000000000000000000000000600052601160045260246000fd5b7f4e487b7100000000000000000000000000000000000000000000000000000000600052602260045260246000fd5b7f4e487b7100000000000000000000000000000000000000000000000000000000600052604160045260246000fd5b6000601f19601f8301169050919050565b7f4552433732313a207472616e7366657220746f206e6f6e20455243373231526560008201527f63656976657220696d706c656d656e7465720000000000000000000000000000602082015250565b7f4f776e61626c653a206e6577206f776e657220697320746865207a65726f206160008201527f6464726573730000000000000000000000000000000000000000000000000000602082015250565b7f4552433732313a20746f6b656e20616c7265616479206d696e74656400000000600082015250565b7f4552433732313a207472616e7366657220746f20746865207a65726f2061646460008201527f7265737300000000000000000000000000000000000000000000000000000000602082015250565b7f4552433732313a20617070726f766520746f2063616c6c657200000000000000600082015250565b7f4552433732313a206f70657261746f7220717565727920666f72206e6f6e657860008201527f697374656e7420746f6b656e0000000000000000000000000000000000000000602082015250565b7f4552433732313a20617070726f76652063616c6c6572206973206e6f74206f7760008201527f6e6572206e6f7220617070726f76656420666f7220616c6c0000000000000000602082015250565b7f4552433732313a2062616c616e636520717565727920666f7220746865207a6560008201527f726f206164647265737300000000000000000000000000000000000000000000602082015250565b7f4552433732313a206f776e657220717565727920666f72206e6f6e657869737460008201527f656e7420746f6b656e0000000000000000000000000000000000000000000000602082015250565b7f4552433732313a206d696e7420746f20746865207a65726f2061646472657373600082015250565b7f4552433732313a20617070726f76656420717565727920666f72206e6f6e657860008201527f697374656e7420746f6b656e0000000000000000000000000000000000000000602082015250565b7f4f776e61626c653a2063616c6c6572206973206e6f7420746865206f776e6572600082015250565b7f4552433732313a207472616e73666572206f6620746f6b656e2074686174206960008201527f73206e6f74206f776e0000000000000000000000000000000000000000000000602082015250565b7f4552433732313a20617070726f76616c20746f2063757272656e74206f776e6560008201527f7200000000000000000000000000000000000000000000000000000000000000602082015250565b7f4552433732313a207472616e736665722063616c6c6572206973206e6f74206f60008201527f776e6572206e6f7220617070726f766564000000000000000000000000000000602082015250565b61519581614b83565b81146151a057600080fd5b50565b6151ac81614b95565b81146151b757600080fd5b50565b6151c381614ba1565b81146151ce57600080fd5b50565b6151da81614bed565b81146151e557600080fd5b5056fe2a2a2a2a2a2a4d696e746564202573204e465420772f20746f6b656e4964202573202a2a2a2a2a2aa2646970667358221220f7c462b7800fb629fa7d2c4f54718d85e345c5fef84be58ce9c59f0f937129b264736f6c63430008040033",
  "linkReferences": {},
  "deployedLinkReferences": {}
}