{
  "_format": "hh-sol-artifact-1",
  "contractName": "Phlote",
  "sourceName": "contracts/Phlote.sol",
  "abi": [
    {
      "inputs": [],
      "stateMutability": "nonpayable",
      "type": "constructor"
    },
    {
      "anonymous": false,
      "inputs": [
        {
          "indexed": true,
          "internalType": "address",
          "name": "owner",
          "type": "address"
        },
        {
          "indexed": true,
          "internalType": "address",
          "name": "approved",
          "type": "address"
        },
        {
          "indexed": true,
          "internalType": "uint256",
          "name": "tokenId",
          "type": "uint256"
        }
      ],
      "name": "Approval",
      "type": "event"
    },
    {
      "anonymous": false,
      "inputs": [
        {
          "indexed": true,
          "internalType": "address",
          "name": "owner",
          "type": "address"
        },
        {
          "indexed": true,
          "internalType": "address",
          "name": "operator",
          "type": "address"
        },
        {
          "indexed": false,
          "internalType": "bool",
          "name": "approved",
          "type": "bool"
        }
      ],
      "name": "ApprovalForAll",
      "type": "event"
    },
    {
      "anonymous": false,
      "inputs": [
        {
          "indexed": false,
          "internalType": "address",
          "name": "sender",
          "type": "address"
        },
        {
          "indexed": true,
          "internalType": "uint256",
          "name": "editionId",
          "type": "uint256"
        }
      ],
      "name": "EditionCreated",
      "type": "event"
    },
    {
      "anonymous": false,
      "inputs": [
        {
          "indexed": true,
          "internalType": "address",
          "name": "buyer",
          "type": "address"
        },
        {
          "indexed": false,
          "internalType": "uint256",
          "name": "tokenId",
          "type": "uint256"
        },
        {
          "indexed": false,
          "internalType": "uint256",
          "name": "numSold",
          "type": "uint256"
        }
      ],
      "name": "EditionMinted",
      "type": "event"
    },
    {
      "anonymous": false,
      "inputs": [
        {
          "indexed": true,
          "internalType": "address",
          "name": "from",
          "type": "address"
        },
        {
          "indexed": true,
          "internalType": "address",
          "name": "to",
          "type": "address"
        },
        {
          "indexed": true,
          "internalType": "uint256",
          "name": "tokenId",
          "type": "uint256"
        }
      ],
      "name": "Transfer",
      "type": "event"
    },
    {
      "inputs": [
        {
          "internalType": "address",
          "name": "to",
          "type": "address"
        },
        {
          "internalType": "uint256",
          "name": "tokenId",
          "type": "uint256"
        }
      ],
      "name": "approve",
      "outputs": [],
      "stateMutability": "nonpayable",
      "type": "function"
    },
    {
      "inputs": [
        {
          "internalType": "address",
          "name": "owner",
          "type": "address"
        }
      ],
      "name": "balanceOf",
      "outputs": [
        {
          "internalType": "uint256",
          "name": "",
          "type": "uint256"
        }
      ],
      "stateMutability": "view",
      "type": "function"
    },
    {
      "inputs": [],
      "name": "contractPrice",
      "outputs": [
        {
          "internalType": "uint256",
          "name": "",
          "type": "uint256"
        }
      ],
      "stateMutability": "view",
      "type": "function"
    },
    {
      "inputs": [
        {
          "internalType": "uint256",
          "name": "",
          "type": "uint256"
        }
      ],
      "name": "editions",
      "outputs": [
        {
          "internalType": "address",
          "name": "artistAddress",
          "type": "address"
        },
        {
          "internalType": "string",
          "name": "mediaURI",
          "type": "string"
        },
        {
          "internalType": "string",
          "name": "marketplace",
          "type": "string"
        },
        {
          "internalType": "string",
          "name": "artistName",
          "type": "string"
        },
        {
          "internalType": "string",
          "name": "mediaType",
          "type": "string"
        },
        {
          "internalType": "string",
          "name": "mediaTitle",
          "type": "string"
        },
        {
          "internalType": "uint256",
          "name": "numSold",
          "type": "uint256"
        }
      ],
      "stateMutability": "view",
      "type": "function"
    },
    {
      "inputs": [],
      "name": "getAllcontent",
      "outputs": [
        {
          "components": [
            {
              "internalType": "address",
              "name": "artistAddress",
              "type": "address"
            },
            {
              "internalType": "string",
              "name": "mediaURI",
              "type": "string"
            },
            {
              "internalType": "string",
              "name": "marketplace",
              "type": "string"
            },
            {
              "internalType": "string[]",
              "name": "tags",
              "type": "string[]"
            },
            {
              "internalType": "string",
              "name": "artistName",
              "type": "string"
            },
            {
              "internalType": "string",
              "name": "mediaType",
              "type": "string"
            },
            {
              "internalType": "string",
              "name": "mediaTitle",
              "type": "string"
            },
            {
              "internalType": "uint256",
              "name": "numSold",
              "type": "uint256"
            }
          ],
          "internalType": "struct Phlote.Edition[]",
          "name": "",
          "type": "tuple[]"
        }
      ],
      "stateMutability": "view",
      "type": "function"
    },
    {
      "inputs": [
        {
          "internalType": "uint256",
          "name": "tokenId",
          "type": "uint256"
        }
      ],
      "name": "getApproved",
      "outputs": [
        {
          "internalType": "address",
          "name": "",
          "type": "address"
        }
      ],
      "stateMutability": "view",
      "type": "function"
    },
    {
      "inputs": [
        {
          "internalType": "address",
          "name": "owner",
          "type": "address"
        },
        {
          "internalType": "address",
          "name": "operator",
          "type": "address"
        }
      ],
      "name": "isApprovedForAll",
      "outputs": [
        {
          "internalType": "bool",
          "name": "",
          "type": "bool"
        }
      ],
      "stateMutability": "view",
      "type": "function"
    },
    {
      "inputs": [
        {
          "internalType": "uint256",
          "name": "editionId",
          "type": "uint256"
        }
      ],
      "name": "mintEdition",
      "outputs": [],
      "stateMutability": "payable",
      "type": "function"
    },
    {
      "inputs": [],
      "name": "name",
      "outputs": [
        {
          "internalType": "string",
          "name": "",
          "type": "string"
        }
      ],
      "stateMutability": "view",
      "type": "function"
    },
    {
      "inputs": [
        {
          "internalType": "address",
          "name": "",
          "type": "address"
        }
      ],
      "name": "nftHolders",
      "outputs": [
        {
          "internalType": "uint256",
          "name": "",
          "type": "uint256"
        }
      ],
      "stateMutability": "view",
      "type": "function"
    },
    {
      "inputs": [
        {
          "internalType": "uint256",
          "name": "tokenId",
          "type": "uint256"
        }
      ],
      "name": "ownerOf",
      "outputs": [
        {
          "internalType": "address",
          "name": "",
          "type": "address"
        }
      ],
      "stateMutability": "view",
      "type": "function"
    },
    {
      "inputs": [
        {
          "internalType": "address",
          "name": "from",
          "type": "address"
        },
        {
          "internalType": "address",
          "name": "to",
          "type": "address"
        },
        {
          "internalType": "uint256",
          "name": "tokenId",
          "type": "uint256"
        }
      ],
      "name": "safeTransferFrom",
      "outputs": [],
      "stateMutability": "nonpayable",
      "type": "function"
    },
    {
      "inputs": [
        {
          "internalType": "address",
          "name": "from",
          "type": "address"
        },
        {
          "internalType": "address",
          "name": "to",
          "type": "address"
        },
        {
          "internalType": "uint256",
          "name": "tokenId",
          "type": "uint256"
        },
        {
          "internalType": "bytes",
          "name": "_data",
          "type": "bytes"
        }
      ],
      "name": "safeTransferFrom",
      "outputs": [],
      "stateMutability": "nonpayable",
      "type": "function"
    },
    {
      "inputs": [
        {
          "internalType": "address",
          "name": "operator",
          "type": "address"
        },
        {
          "internalType": "bool",
          "name": "approved",
          "type": "bool"
        }
      ],
      "name": "setApprovalForAll",
      "outputs": [],
      "stateMutability": "nonpayable",
      "type": "function"
    },
    {
      "inputs": [
        {
          "internalType": "address",
          "name": "_artist",
          "type": "address"
        },
        {
          "internalType": "string",
          "name": "_mediaURI",
          "type": "string"
        },
        {
          "internalType": "string",
          "name": "_marketplace",
          "type": "string"
        },
        {
          "internalType": "string[]",
          "name": "_tags",
          "type": "string[]"
        },
        {
          "internalType": "string",
          "name": "_artistName",
          "type": "string"
        },
        {
          "internalType": "string",
          "name": "_mediaType",
          "type": "string"
        },
        {
          "internalType": "string",
          "name": "_mediaTitle",
          "type": "string"
        }
      ],
      "name": "submitPost",
      "outputs": [
        {
          "internalType": "uint256",
          "name": "",
          "type": "uint256"
        }
      ],
      "stateMutability": "nonpayable",
      "type": "function"
    },
    {
      "inputs": [
        {
          "internalType": "bytes4",
          "name": "interfaceId",
          "type": "bytes4"
        }
      ],
      "name": "supportsInterface",
      "outputs": [
        {
          "internalType": "bool",
          "name": "",
          "type": "bool"
        }
      ],
      "stateMutability": "view",
      "type": "function"
    },
    {
      "inputs": [],
      "name": "symbol",
      "outputs": [
        {
          "internalType": "string",
          "name": "",
          "type": "string"
        }
      ],
      "stateMutability": "view",
      "type": "function"
    },
    {
      "inputs": [
        {
          "internalType": "uint256",
          "name": "",
          "type": "uint256"
        }
      ],
      "name": "tokenToSong",
      "outputs": [
        {
          "internalType": "uint256",
          "name": "",
          "type": "uint256"
        }
      ],
      "stateMutability": "view",
      "type": "function"
    },
    {
      "inputs": [
        {
          "internalType": "uint256",
          "name": "_tokenId",
          "type": "uint256"
        }
      ],
      "name": "tokenURI",
      "outputs": [
        {
          "internalType": "string",
          "name": "",
          "type": "string"
        }
      ],
      "stateMutability": "view",
      "type": "function"
    },
    {
      "inputs": [
        {
          "internalType": "address",
          "name": "from",
          "type": "address"
        },
        {
          "internalType": "address",
          "name": "to",
          "type": "address"
        },
        {
          "internalType": "uint256",
          "name": "tokenId",
          "type": "uint256"
        }
      ],
      "name": "transferFrom",
      "outputs": [],
      "stateMutability": "nonpayable",
      "type": "function"
    },
    {
      "inputs": [
        {
          "internalType": "uint256",
          "name": "",
          "type": "uint256"
        }
      ],
      "name": "withdrawnForEdition",
      "outputs": [
        {
          "internalType": "uint256",
          "name": "",
          "type": "uint256"
        }
      ],
      "stateMutability": "view",
      "type": "function"
    }
  ],
  "bytecode": "0x608060405260016008553480156200001657600080fd5b506040518060400160405280600781526020017f636f6e74656e74000000000000000000000000000000000000000000000000008152506040518060400160405280600481526020017f534f4e470000000000000000000000000000000000000000000000000000000081525081600090805190602001906200009b929190620000ea565b508060019080519060200190620000b4929190620000ea565b505050620000ce6007620000d460201b62001c3a1760201c565b620001ff565b6001816000016000828254019250508190555050565b828054620000f8906200019a565b90600052602060002090601f0160209004810192826200011c576000855562000168565b82601f106200013757805160ff191683800117855562000168565b8280016001018555821562000168579182015b82811115620001675782518255916020019190600101906200014a565b5b5090506200017791906200017b565b5090565b5b80821115620001965760008160009055506001016200017c565b5090565b60006002820490506001821680620001b357607f821691505b60208210811415620001ca57620001c9620001d0565b5b50919050565b7f4e487b7100000000000000000000000000000000000000000000000000000000600052602260045260246000fd5b61465f806200020f6000396000f3fe60806040526004361061012a5760003560e01c806370a08231116100ab578063b88d4fde1161006f578063b88d4fde1461040f578063c87b56dd14610438578063d3bb052814610475578063e2b18d3f146104b2578063e838fe49146104ef578063e985e9c51461052c5761012a565b806370a08231146103165780637df124a11461035357806395d89b411461039057806397e9a0bf146103bb578063a22cb465146103e65761012a565b806323b872dd116100f257806323b872dd14610219578063279c806e1461024257806342842e0e1461028557806357954dd1146102ae5780636352211e146102d95761012a565b806301ffc9a71461012f57806305322b741461016c57806306fdde0314610188578063081812fc146101b3578063095ea7b3146101f0575b600080fd5b34801561013b57600080fd5b5061015660048036038101906101519190613146565b610569565b6040516101639190613918565b60405180910390f35b61018660048036038101906101819190613198565b61064b565b005b34801561019457600080fd5b5061019d610820565b6040516101aa9190613933565b60405180910390f35b3480156101bf57600080fd5b506101da60048036038101906101d59190613198565b6108b2565b6040516101e791906137fd565b60405180910390f35b3480156101fc57600080fd5b506102176004803603810190610212919061310a565b610937565b005b34801561022557600080fd5b50610240600480360381019061023b9190612ed6565b610a4f565b005b34801561024e57600080fd5b5061026960048036038101906102649190613198565b610aaf565b60405161027c9796959493929190613864565b60405180910390f35b34801561029157600080fd5b506102ac60048036038101906102a79190612ed6565b610db9565b005b3480156102ba57600080fd5b506102c3610dd9565b6040516102d091906138f6565b60405180910390f35b3480156102e557600080fd5b5061030060048036038101906102fb9190613198565b61124c565b60405161030d91906137fd565b60405180910390f35b34801561032257600080fd5b5061033d60048036038101906103389190612e71565b6112fe565b60405161034a9190613b3a565b60405180910390f35b34801561035f57600080fd5b5061037a60048036038101906103759190612e71565b6113b6565b6040516103879190613b3a565b60405180910390f35b34801561039c57600080fd5b506103a56113ce565b6040516103b29190613933565b60405180910390f35b3480156103c757600080fd5b506103d0611460565b6040516103dd9190613b3a565b60405180910390f35b3480156103f257600080fd5b5061040d60048036038101906104089190612fa0565b611466565b005b34801561041b57600080fd5b5061043660048036038101906104319190612f25565b61147c565b005b34801561044457600080fd5b5061045f600480360381019061045a9190613198565b6114de565b60405161046c9190613933565b60405180910390f35b34801561048157600080fd5b5061049c60048036038101906104979190613198565b61199e565b6040516104a99190613b3a565b60405180910390f35b3480156104be57600080fd5b506104d960048036038101906104d49190613198565b6119b6565b6040516104e69190613b3a565b60405180910390f35b3480156104fb57600080fd5b5061051660048036038101906105119190612fdc565b6119ce565b6040516105239190613b3a565b60405180910390f35b34801561053857600080fd5b50610553600480360381019061054e9190612e9a565b611ba6565b6040516105609190613918565b60405180910390f35b60007f80ac58cd000000000000000000000000000000000000000000000000000000007bffffffffffffffffffffffffffffffffffffffffffffffffffffffff1916827bffffffffffffffffffffffffffffffffffffffffffffffffffffffff1916148061063457507f5b5e139f000000000000000000000000000000000000000000000000000000007bffffffffffffffffffffffffffffffffffffffffffffffffffffffff1916827bffffffffffffffffffffffffffffffffffffffffffffffffffffffff1916145b80610644575061064382611c50565b5b9050919050565b60006106576007611cba565b90506106633382611cc8565b61072460405180606001604052806028815260200161460260289139600a600085815260200190815260200160002060060180546106a090613ec2565b80601f01602080910402602001604051908101604052809291908181526020018280546106cc90613ec2565b80156107195780601f106106ee57610100808354040283529160200191610719565b820191906000526020600020905b8154815290600101906020018083116106fc57829003601f168201915b505050505083611ce6565b80600b60003373ffffffffffffffffffffffffffffffffffffffff1673ffffffffffffffffffffffffffffffffffffffff168152602001908152602001600020819055506107726007611c3a565b600a6000838152602001908152602001600020600701600081548092919061079990613f25565b919050555081600e6000838152602001908152602001600020819055503373ffffffffffffffffffffffffffffffffffffffff167fe1b60c9e07632933648666e5ede8b3b329ddfa2ab98c51b1a5b4b22ab4f1349c82600a600086815260200190815260200160002060070154604051610814929190613b55565b60405180910390a25050565b60606000805461082f90613ec2565b80601f016020809104026020016040519081016040528092919081815260200182805461085b90613ec2565b80156108a85780601f1061087d576101008083540402835291602001916108a8565b820191906000526020600020905b81548152906001019060200180831161088b57829003601f168201915b5050505050905090565b60006108bd82611d85565b6108fc576040517f08c379a00000000000000000000000000000000000000000000000000000000081526004016108f390613aba565b60405180910390fd5b6004600083815260200190815260200160002060009054906101000a900473ffffffffffffffffffffffffffffffffffffffff169050919050565b60006109428261124c565b90508073ffffffffffffffffffffffffffffffffffffffff168373ffffffffffffffffffffffffffffffffffffffff1614156109b3576040517f08c379a00000000000000000000000000000000000000000000000000000000081526004016109aa90613afa565b60405180910390fd5b8073ffffffffffffffffffffffffffffffffffffffff166109d2611df1565b73ffffffffffffffffffffffffffffffffffffffff161480610a015750610a00816109fb611df1565b611ba6565b5b610a40576040517f08c379a0000000000000000000000000000000000000000000000000000000008152600401610a3790613a3a565b60405180910390fd5b610a4a8383611df9565b505050565b610a60610a5a611df1565b82611eb2565b610a9f576040517f08c379a0000000000000000000000000000000000000000000000000000000008152600401610a9690613b1a565b60405180910390fd5b610aaa838383611f90565b505050565b600a6020528060005260406000206000915090508060000160009054906101000a900473ffffffffffffffffffffffffffffffffffffffff1690806001018054610af890613ec2565b80601f0160208091040260200160405190810160405280929190818152602001828054610b2490613ec2565b8015610b715780601f10610b4657610100808354040283529160200191610b71565b820191906000526020600020905b815481529060010190602001808311610b5457829003601f168201915b505050505090806002018054610b8690613ec2565b80601f0160208091040260200160405190810160405280929190818152602001828054610bb290613ec2565b8015610bff5780601f10610bd457610100808354040283529160200191610bff565b820191906000526020600020905b815481529060010190602001808311610be257829003601f168201915b505050505090806004018054610c1490613ec2565b80601f0160208091040260200160405190810160405280929190818152602001828054610c4090613ec2565b8015610c8d5780601f10610c6257610100808354040283529160200191610c8d565b820191906000526020600020905b815481529060010190602001808311610c7057829003601f168201915b505050505090806005018054610ca290613ec2565b80601f0160208091040260200160405190810160405280929190818152602001828054610cce90613ec2565b8015610d1b5780601f10610cf057610100808354040283529160200191610d1b565b820191906000526020600020905b815481529060010190602001808311610cfe57829003601f168201915b505050505090806006018054610d3090613ec2565b80601f0160208091040260200160405190810160405280929190818152602001828054610d5c90613ec2565b8015610da95780601f10610d7e57610100808354040283529160200191610da9565b820191906000526020600020905b815481529060010190602001808311610d8c57829003601f168201915b5050505050908060070154905087565b610dd48383836040518060200160405280600081525061147c565b505050565b60606009805480602002602001604051908101604052809291908181526020016000905b828210156112435783829060005260206000209060080201604051806101000160405290816000820160009054906101000a900473ffffffffffffffffffffffffffffffffffffffff1673ffffffffffffffffffffffffffffffffffffffff1673ffffffffffffffffffffffffffffffffffffffff168152602001600182018054610e8790613ec2565b80601f0160208091040260200160405190810160405280929190818152602001828054610eb390613ec2565b8015610f005780601f10610ed557610100808354040283529160200191610f00565b820191906000526020600020905b815481529060010190602001808311610ee357829003601f168201915b50505050508152602001600282018054610f1990613ec2565b80601f0160208091040260200160405190810160405280929190818152602001828054610f4590613ec2565b8015610f925780601f10610f6757610100808354040283529160200191610f92565b820191906000526020600020905b815481529060010190602001808311610f7557829003601f168201915b5050505050815260200160038201805480602002602001604051908101604052809291908181526020016000905b8282101561106c578382906000526020600020018054610fdf90613ec2565b80601f016020809104026020016040519081016040528092919081815260200182805461100b90613ec2565b80156110585780601f1061102d57610100808354040283529160200191611058565b820191906000526020600020905b81548152906001019060200180831161103b57829003601f168201915b505050505081526020019060010190610fc0565b50505050815260200160048201805461108490613ec2565b80601f01602080910402602001604051908101604052809291908181526020018280546110b090613ec2565b80156110fd5780601f106110d2576101008083540402835291602001916110fd565b820191906000526020600020905b8154815290600101906020018083116110e057829003601f168201915b5050505050815260200160058201805461111690613ec2565b80601f016020809104026020016040519081016040528092919081815260200182805461114290613ec2565b801561118f5780601f106111645761010080835404028352916020019161118f565b820191906000526020600020905b81548152906001019060200180831161117257829003601f168201915b505050505081526020016006820180546111a890613ec2565b80601f01602080910402602001604051908101604052809291908181526020018280546111d490613ec2565b80156112215780601f106111f657610100808354040283529160200191611221565b820191906000526020600020905b81548152906001019060200180831161120457829003601f168201915b5050505050815260200160078201548152505081526020019060010190610dfd565b50505050905090565b6000806002600084815260200190815260200160002060009054906101000a900473ffffffffffffffffffffffffffffffffffffffff169050600073ffffffffffffffffffffffffffffffffffffffff168173ffffffffffffffffffffffffffffffffffffffff1614156112f5576040517f08c379a00000000000000000000000000000000000000000000000000000000081526004016112ec90613a7a565b60405180910390fd5b80915050919050565b60008073ffffffffffffffffffffffffffffffffffffffff168273ffffffffffffffffffffffffffffffffffffffff16141561136f576040517f08c379a000000000000000000000000000000000000000000000000000000000815260040161136690613a5a565b60405180910390fd5b600360008373ffffffffffffffffffffffffffffffffffffffff1673ffffffffffffffffffffffffffffffffffffffff168152602001908152602001600020549050919050565b600b6020528060005260406000206000915090505481565b6060600180546113dd90613ec2565b80601f016020809104026020016040519081016040528092919081815260200182805461140990613ec2565b80156114565780601f1061142b57610100808354040283529160200191611456565b820191906000526020600020905b81548152906001019060200180831161143957829003601f168201915b5050505050905090565b60065481565b611478611471611df1565b83836121ec565b5050565b61148d611487611df1565b83611eb2565b6114cc576040517f08c379a00000000000000000000000000000000000000000000000000000000081526004016114c390613b1a565b60405180910390fd5b6114d884848484612359565b50505050565b60606000600a6000600e6000868152602001908152602001600020548152602001908152602001600020604051806101000160405290816000820160009054906101000a900473ffffffffffffffffffffffffffffffffffffffff1673ffffffffffffffffffffffffffffffffffffffff1673ffffffffffffffffffffffffffffffffffffffff16815260200160018201805461157a90613ec2565b80601f01602080910402602001604051908101604052809291908181526020018280546115a690613ec2565b80156115f35780601f106115c8576101008083540402835291602001916115f3565b820191906000526020600020905b8154815290600101906020018083116115d657829003601f168201915b5050505050815260200160028201805461160c90613ec2565b80601f016020809104026020016040519081016040528092919081815260200182805461163890613ec2565b80156116855780601f1061165a57610100808354040283529160200191611685565b820191906000526020600020905b81548152906001019060200180831161166857829003601f168201915b5050505050815260200160038201805480602002602001604051908101604052809291908181526020016000905b8282101561175f5783829060005260206000200180546116d290613ec2565b80601f01602080910402602001604051908101604052809291908181526020018280546116fe90613ec2565b801561174b5780601f106117205761010080835404028352916020019161174b565b820191906000526020600020905b81548152906001019060200180831161172e57829003601f168201915b5050505050815260200190600101906116b3565b50505050815260200160048201805461177790613ec2565b80601f01602080910402602001604051908101604052809291908181526020018280546117a390613ec2565b80156117f05780601f106117c5576101008083540402835291602001916117f0565b820191906000526020600020905b8154815290600101906020018083116117d357829003601f168201915b5050505050815260200160058201805461180990613ec2565b80601f016020809104026020016040519081016040528092919081815260200182805461183590613ec2565b80156118825780601f1061185757610100808354040283529160200191611882565b820191906000526020600020905b81548152906001019060200180831161186557829003601f168201915b5050505050815260200160068201805461189b90613ec2565b80601f01602080910402602001604051908101604052809291908181526020018280546118c790613ec2565b80156119145780601f106118e957610100808354040283529160200191611914565b820191906000526020600020905b8154815290600101906020018083116118f757829003601f168201915b505050505081526020016007820154815250509050600061196d8260c0015161193c866123b5565b846020015185608001516040516020016119599493929190613766565b604051602081830303815290604052612562565b905060008160405160200161198291906137db565b6040516020818303038152906040529050809350505050919050565b600d6020528060005260406000206000915090505481565b600e6020528060005260406000206000915090505481565b60006040518061010001604052808973ffffffffffffffffffffffffffffffffffffffff1681526020018881526020018781526020018681526020018581526020018481526020018381526020016000815250600a6000600854815260200190815260200160002060008201518160000160006101000a81548173ffffffffffffffffffffffffffffffffffffffff021916908373ffffffffffffffffffffffffffffffffffffffff1602179055506020820151816001019080519060200190611a99929190612b21565b506040820151816002019080519060200190611ab6929190612b21565b506060820151816003019080519060200190611ad3929190612ba7565b506080820151816004019080519060200190611af0929190612b21565b5060a0820151816005019080519060200190611b0d929190612b21565b5060c0820151816006019080519060200190611b2a929190612b21565b5060e082015181600701559050506008547fa1cd98301e2a758f45871102b368fdcf3f56e13f8e8fd2886523ac87ca066ce033604051611b6a91906137fd565b60405180910390a260086000815480929190611b8590613f25565b91905055506001600854611b999190613dd8565b9050979650505050505050565b6000600560008473ffffffffffffffffffffffffffffffffffffffff1673ffffffffffffffffffffffffffffffffffffffff16815260200190815260200160002060008373ffffffffffffffffffffffffffffffffffffffff1673ffffffffffffffffffffffffffffffffffffffff16815260200190815260200160002060009054906101000a900460ff16905092915050565b6001816000016000828254019250508190555050565b60007f01ffc9a7000000000000000000000000000000000000000000000000000000007bffffffffffffffffffffffffffffffffffffffffffffffffffffffff1916827bffffffffffffffffffffffffffffffffffffffffffffffffffffffff1916149050919050565b600081600001549050919050565b611ce2828260405180602001604052806000815250612720565b5050565b611d80838383604051602401611cfe93929190613955565b6040516020818303038152906040527ff362ca59000000000000000000000000000000000000000000000000000000007bffffffffffffffffffffffffffffffffffffffffffffffffffffffff19166020820180517bffffffffffffffffffffffffffffffffffffffffffffffffffffffff838183161783525050505061277b565b505050565b60008073ffffffffffffffffffffffffffffffffffffffff166002600084815260200190815260200160002060009054906101000a900473ffffffffffffffffffffffffffffffffffffffff1673ffffffffffffffffffffffffffffffffffffffff1614159050919050565b600033905090565b816004600083815260200190815260200160002060006101000a81548173ffffffffffffffffffffffffffffffffffffffff021916908373ffffffffffffffffffffffffffffffffffffffff160217905550808273ffffffffffffffffffffffffffffffffffffffff16611e6c8361124c565b73ffffffffffffffffffffffffffffffffffffffff167f8c5be1e5ebec7d5bd14f71427d1e84f3dd0314c0f7b2291e5b200ac8c7c3b92560405160405180910390a45050565b6000611ebd82611d85565b611efc576040517f08c379a0000000000000000000000000000000000000000000000000000000008152600401611ef390613a1a565b60405180910390fd5b6000611f078361124c565b90508073ffffffffffffffffffffffffffffffffffffffff168473ffffffffffffffffffffffffffffffffffffffff161480611f7657508373ffffffffffffffffffffffffffffffffffffffff16611f5e846108b2565b73ffffffffffffffffffffffffffffffffffffffff16145b80611f875750611f868185611ba6565b5b91505092915050565b8273ffffffffffffffffffffffffffffffffffffffff16611fb08261124c565b73ffffffffffffffffffffffffffffffffffffffff1614612006576040517f08c379a0000000000000000000000000000000000000000000000000000000008152600401611ffd90613ada565b60405180910390fd5b600073ffffffffffffffffffffffffffffffffffffffff168273ffffffffffffffffffffffffffffffffffffffff161415612076576040517f08c379a000000000000000000000000000000000000000000000000000000000815260040161206d906139da565b60405180910390fd5b6120818383836127a4565b61208c600082611df9565b6001600360008573ffffffffffffffffffffffffffffffffffffffff1673ffffffffffffffffffffffffffffffffffffffff16815260200190815260200160002060008282546120dc9190613dd8565b925050819055506001600360008473ffffffffffffffffffffffffffffffffffffffff1673ffffffffffffffffffffffffffffffffffffffff16815260200190815260200160002060008282546121339190613cf7565b92505081905550816002600083815260200190815260200160002060006101000a81548173ffffffffffffffffffffffffffffffffffffffff021916908373ffffffffffffffffffffffffffffffffffffffff160217905550808273ffffffffffffffffffffffffffffffffffffffff168473ffffffffffffffffffffffffffffffffffffffff167fddf252ad1be2c89b69c2b068fc378daa952ba7f163c4a11628f55a4df523b3ef60405160405180910390a4505050565b8173ffffffffffffffffffffffffffffffffffffffff168373ffffffffffffffffffffffffffffffffffffffff16141561225b576040517f08c379a0000000000000000000000000000000000000000000000000000000008152600401612252906139fa565b60405180910390fd5b80600560008573ffffffffffffffffffffffffffffffffffffffff1673ffffffffffffffffffffffffffffffffffffffff16815260200190815260200160002060008473ffffffffffffffffffffffffffffffffffffffff1673ffffffffffffffffffffffffffffffffffffffff16815260200190815260200160002060006101000a81548160ff0219169083151502179055508173ffffffffffffffffffffffffffffffffffffffff168373ffffffffffffffffffffffffffffffffffffffff167f17307eab39ab6107e8899845ad3d59bd9653f200f220920489ca2b5937696c318360405161234c9190613918565b60405180910390a3505050565b612364848484611f90565b612370848484846127a9565b6123af576040517f08c379a00000000000000000000000000000000000000000000000000000000081526004016123a69061399a565b60405180910390fd5b50505050565b606060008214156123fd576040518060400160405280600181526020017f3000000000000000000000000000000000000000000000000000000000000000815250905061255d565b600082905060005b6000821461242f57808061241890613f25565b915050600a826124289190613d4d565b9150612405565b60008167ffffffffffffffff811115612471577f4e487b7100000000000000000000000000000000000000000000000000000000600052604160045260246000fd5b6040519080825280601f01601f1916602001820160405280156124a35781602001600182028036833780820191505090505b5090505b60008514612556576001826124bc9190613dd8565b9150600a856124cb9190613f6e565b60306124d79190613cf7565b60f81b818381518110612513577f4e487b7100000000000000000000000000000000000000000000000000000000600052603260045260246000fd5b60200101907effffffffffffffffffffffffffffffffffffffffffffffffffffffffffffff1916908160001a905350600a8561254f9190613d4d565b94506124a7565b8093505050505b919050565b6060600082519050600081141561258b576040518060200160405280600081525091505061271b565b6000600360028361259c9190613cf7565b6125a69190613d4d565b60046125b29190613d7e565b905060006020826125c39190613cf7565b67ffffffffffffffff811115612602577f4e487b7100000000000000000000000000000000000000000000000000000000600052604160045260246000fd5b6040519080825280601f01601f1916602001820160405280156126345781602001600182028036833780820191505090505b50905060006040518060600160405280604081526020016145c2604091399050600181016020830160005b868110156126d85760038101905062ffffff818a015116603f8160121c168401518060081b905060ff603f83600c1c1686015116810190508060081b905060ff603f8360061c1686015116810190508060081b905060ff603f831686015116810190508060e01b9050808452600484019350505061265f565b5060038606600181146126f257600281146127025761270d565b613d3d60f01b600283035261270d565b603d60f81b60018303525b508484525050819450505050505b919050565b61272a8383612940565b61273760008484846127a9565b612776576040517f08c379a000000000000000000000000000000000000000000000000000000000815260040161276d9061399a565b60405180910390fd5b505050565b60008151905060006a636f6e736f6c652e6c6f679050602083016000808483855afa5050505050565b505050565b60006127ca8473ffffffffffffffffffffffffffffffffffffffff16612b0e565b15612933578373ffffffffffffffffffffffffffffffffffffffff1663150b7a026127f3611df1565b8786866040518563ffffffff1660e01b81526004016128159493929190613818565b602060405180830381600087803b15801561282f57600080fd5b505af192505050801561286057506040513d601f19601f8201168201806040525081019061285d919061316f565b60015b6128e3573d8060008114612890576040519150601f19603f3d011682016040523d82523d6000602084013e612895565b606091505b506000815114156128db576040517f08c379a00000000000000000000000000000000000000000000000000000000081526004016128d29061399a565b60405180910390fd5b805181602001fd5b63150b7a0260e01b7bffffffffffffffffffffffffffffffffffffffffffffffffffffffff1916817bffffffffffffffffffffffffffffffffffffffffffffffffffffffff191614915050612938565b600190505b949350505050565b600073ffffffffffffffffffffffffffffffffffffffff168273ffffffffffffffffffffffffffffffffffffffff1614156129b0576040517f08c379a00000000000000000000000000000000000000000000000000000000081526004016129a790613a9a565b60405180910390fd5b6129b981611d85565b156129f9576040517f08c379a00000000000000000000000000000000000000000000000000000000081526004016129f0906139ba565b60405180910390fd5b612a05600083836127a4565b6001600360008473ffffffffffffffffffffffffffffffffffffffff1673ffffffffffffffffffffffffffffffffffffffff1681526020019081526020016000206000828254612a559190613cf7565b92505081905550816002600083815260200190815260200160002060006101000a81548173ffffffffffffffffffffffffffffffffffffffff021916908373ffffffffffffffffffffffffffffffffffffffff160217905550808273ffffffffffffffffffffffffffffffffffffffff16600073ffffffffffffffffffffffffffffffffffffffff167fddf252ad1be2c89b69c2b068fc378daa952ba7f163c4a11628f55a4df523b3ef60405160405180910390a45050565b600080823b905060008111915050919050565b828054612b2d90613ec2565b90600052602060002090601f016020900481019282612b4f5760008555612b96565b82601f10612b6857805160ff1916838001178555612b96565b82800160010185558215612b96579182015b82811115612b95578251825591602001919060010190612b7a565b5b509050612ba39190612c07565b5090565b828054828255906000526020600020908101928215612bf6579160200282015b82811115612bf5578251829080519060200190612be5929190612b21565b5091602001919060010190612bc7565b5b509050612c039190612c24565b5090565b5b80821115612c20576000816000905550600101612c08565b5090565b5b80821115612c445760008181612c3b9190612c48565b50600101612c25565b5090565b508054612c5490613ec2565b6000825580601f10612c665750612c85565b601f016020900490600052602060002090810190612c849190612c07565b5b50565b6000612c9b612c9684613ba3565b613b7e565b90508083825260208201905082856020860282011115612cba57600080fd5b60005b85811015612d0457813567ffffffffffffffff811115612cdc57600080fd5b808601612ce98982612e32565b85526020850194506020840193505050600181019050612cbd565b5050509392505050565b6000612d21612d1c84613bcf565b613b7e565b905082815260208101848484011115612d3957600080fd5b612d44848285613e80565b509392505050565b6000612d5f612d5a84613c00565b613b7e565b905082815260208101848484011115612d7757600080fd5b612d82848285613e80565b509392505050565b600081359050612d9981614565565b92915050565b600082601f830112612db057600080fd5b8135612dc0848260208601612c88565b91505092915050565b600081359050612dd88161457c565b92915050565b600081359050612ded81614593565b92915050565b600081519050612e0281614593565b92915050565b600082601f830112612e1957600080fd5b8135612e29848260208601612d0e565b91505092915050565b600082601f830112612e4357600080fd5b8135612e53848260208601612d4c565b91505092915050565b600081359050612e6b816145aa565b92915050565b600060208284031215612e8357600080fd5b6000612e9184828501612d8a565b91505092915050565b60008060408385031215612ead57600080fd5b6000612ebb85828601612d8a565b9250506020612ecc85828601612d8a565b9150509250929050565b600080600060608486031215612eeb57600080fd5b6000612ef986828701612d8a565b9350506020612f0a86828701612d8a565b9250506040612f1b86828701612e5c565b9150509250925092565b60008060008060808587031215612f3b57600080fd5b6000612f4987828801612d8a565b9450506020612f5a87828801612d8a565b9350506040612f6b87828801612e5c565b925050606085013567ffffffffffffffff811115612f8857600080fd5b612f9487828801612e08565b91505092959194509250565b60008060408385031215612fb357600080fd5b6000612fc185828601612d8a565b9250506020612fd285828601612dc9565b9150509250929050565b600080600080600080600060e0888a031215612ff757600080fd5b60006130058a828b01612d8a565b975050602088013567ffffffffffffffff81111561302257600080fd5b61302e8a828b01612e32565b965050604088013567ffffffffffffffff81111561304b57600080fd5b6130578a828b01612e32565b955050606088013567ffffffffffffffff81111561307457600080fd5b6130808a828b01612d9f565b945050608088013567ffffffffffffffff81111561309d57600080fd5b6130a98a828b01612e32565b93505060a088013567ffffffffffffffff8111156130c657600080fd5b6130d28a828b01612e32565b92505060c088013567ffffffffffffffff8111156130ef57600080fd5b6130fb8a828b01612e32565b91505092959891949750929550565b6000806040838503121561311d57600080fd5b600061312b85828601612d8a565b925050602061313c85828601612e5c565b9150509250929050565b60006020828403121561315857600080fd5b600061316684828501612dde565b91505092915050565b60006020828403121561318157600080fd5b600061318f84828501612df3565b91505092915050565b6000602082840312156131aa57600080fd5b60006131b884828501612e5c565b91505092915050565b60006131cd8383613339565b905092915050565b60006131e18383613675565b905092915050565b6131f281613e0c565b82525050565b61320181613e0c565b82525050565b600061321282613c51565b61321c8185613c97565b93508360208202850161322e85613c31565b8060005b8581101561326a578484038952815161324b85826131c1565b945061325683613c7d565b925060208a01995050600181019050613232565b50829750879550505050505092915050565b600061328782613c5c565b6132918185613ca8565b9350836020820285016132a385613c41565b8060005b858110156132df57848403895281516132c085826131d5565b94506132cb83613c8a565b925060208a019950506001810190506132a7565b50829750879550505050505092915050565b6132fa81613e1e565b82525050565b600061330b82613c67565b6133158185613cb9565b9350613325818560208601613e8f565b61332e8161405b565b840191505092915050565b600061334482613c72565b61334e8185613cca565b935061335e818560208601613e8f565b6133678161405b565b840191505092915050565b600061337d82613c72565b6133878185613cdb565b9350613397818560208601613e8f565b6133a08161405b565b840191505092915050565b60006133b682613c72565b6133c08185613cec565b93506133d0818560208601613e8f565b80840191505092915050565b60006133e9600b83613cec565b91506133f48261406c565b600b82019050919050565b600061340c603283613cdb565b915061341782614095565b604082019050919050565b600061342f601c83613cdb565b915061343a826140e4565b602082019050919050565b6000613452603c83613cec565b915061345d8261410d565b603c82019050919050565b6000613475602483613cdb565b91506134808261415c565b604082019050919050565b6000613498601983613cdb565b91506134a3826141ab565b602082019050919050565b60006134bb602c83613cdb565b91506134c6826141d4565b604082019050919050565b60006134de603883613cdb565b91506134e982614223565b604082019050919050565b6000613501602a83613cdb565b915061350c82614272565b604082019050919050565b6000613524602983613cdb565b915061352f826142c1565b604082019050919050565b6000613547600483613cec565b915061355282614310565b600482019050919050565b600061356a602083613cdb565b915061357582614339565b602082019050919050565b600061358d605283613cec565b915061359882614362565b605282019050919050565b60006135b0602c83613cdb565b91506135bb826143d7565b604082019050919050565b60006135d3602983613cdb565b91506135de82614426565b604082019050919050565b60006135f6600a83613cec565b915061360182614475565b600a82019050919050565b6000613619602183613cdb565b91506136248261449e565b604082019050919050565b600061363c601d83613cec565b9150613647826144ed565b601d82019050919050565b600061365f603183613cdb565b915061366a82614516565b604082019050919050565b60006101008301600083015161368e60008601826131e9565b50602083015184820360208601526136a68282613339565b915050604083015184820360408601526136c08282613339565b915050606083015184820360608601526136da8282613207565b915050608083015184820360808601526136f48282613339565b91505060a083015184820360a086015261370e8282613339565b91505060c083015184820360c08601526137288282613339565b91505060e083015161373d60e0860182613748565b508091505092915050565b61375181613e76565b82525050565b61376081613e76565b82525050565b6000613771826135e9565b915061377d82876133ab565b9150613788826133dc565b915061379482866133ab565b915061379f82613580565b91506137ab82856133ab565b91506137b682613445565b91506137c282846133ab565b91506137cd8261353a565b915081905095945050505050565b60006137e68261362f565b91506137f282846133ab565b915081905092915050565b600060208201905061381260008301846131f8565b92915050565b600060808201905061382d60008301876131f8565b61383a60208301866131f8565b6138476040830185613757565b81810360608301526138598184613300565b905095945050505050565b600060e082019050613879600083018a6131f8565b818103602083015261388b8189613372565b9050818103604083015261389f8188613372565b905081810360608301526138b38187613372565b905081810360808301526138c78186613372565b905081810360a08301526138db8185613372565b90506138ea60c0830184613757565b98975050505050505050565b60006020820190508181036000830152613910818461327c565b905092915050565b600060208201905061392d60008301846132f1565b92915050565b6000602082019050818103600083015261394d8184613372565b905092915050565b6000606082019050818103600083015261396f8186613372565b905081810360208301526139838185613372565b90506139926040830184613757565b949350505050565b600060208201905081810360008301526139b3816133ff565b9050919050565b600060208201905081810360008301526139d381613422565b9050919050565b600060208201905081810360008301526139f381613468565b9050919050565b60006020820190508181036000830152613a138161348b565b9050919050565b60006020820190508181036000830152613a33816134ae565b9050919050565b60006020820190508181036000830152613a53816134d1565b9050919050565b60006020820190508181036000830152613a73816134f4565b9050919050565b60006020820190508181036000830152613a9381613517565b9050919050565b60006020820190508181036000830152613ab38161355d565b9050919050565b60006020820190508181036000830152613ad3816135a3565b9050919050565b60006020820190508181036000830152613af3816135c6565b9050919050565b60006020820190508181036000830152613b138161360c565b9050919050565b60006020820190508181036000830152613b3381613652565b9050919050565b6000602082019050613b4f6000830184613757565b92915050565b6000604082019050613b6a6000830185613757565b613b776020830184613757565b9392505050565b6000613b88613b99565b9050613b948282613ef4565b919050565b6000604051905090565b600067ffffffffffffffff821115613bbe57613bbd61402c565b5b602082029050602081019050919050565b600067ffffffffffffffff821115613bea57613be961402c565b5b613bf38261405b565b9050602081019050919050565b600067ffffffffffffffff821115613c1b57613c1a61402c565b5b613c248261405b565b9050602081019050919050565b6000819050602082019050919050565b6000819050602082019050919050565b600081519050919050565b600081519050919050565b600081519050919050565b600081519050919050565b6000602082019050919050565b6000602082019050919050565b600082825260208201905092915050565b600082825260208201905092915050565b600082825260208201905092915050565b600082825260208201905092915050565b600082825260208201905092915050565b600081905092915050565b6000613d0282613e76565b9150613d0d83613e76565b9250827fffffffffffffffffffffffffffffffffffffffffffffffffffffffffffffffff03821115613d4257613d41613f9f565b5b828201905092915050565b6000613d5882613e76565b9150613d6383613e76565b925082613d7357613d72613fce565b5b828204905092915050565b6000613d8982613e76565b9150613d9483613e76565b9250817fffffffffffffffffffffffffffffffffffffffffffffffffffffffffffffffff0483118215151615613dcd57613dcc613f9f565b5b828202905092915050565b6000613de382613e76565b9150613dee83613e76565b925082821015613e0157613e00613f9f565b5b828203905092915050565b6000613e1782613e56565b9050919050565b60008115159050919050565b60007fffffffff0000000000000000000000000000000000000000000000000000000082169050919050565b600073ffffffffffffffffffffffffffffffffffffffff82169050919050565b6000819050919050565b82818337600083830152505050565b60005b83811015613ead578082015181840152602081019050613e92565b83811115613ebc576000848401525b50505050565b60006002820490506001821680613eda57607f821691505b60208210811415613eee57613eed613ffd565b5b50919050565b613efd8261405b565b810181811067ffffffffffffffff82111715613f1c57613f1b61402c565b5b80604052505050565b6000613f3082613e76565b91507fffffffffffffffffffffffffffffffffffffffffffffffffffffffffffffffff821415613f6357613f62613f9f565b5b600182019050919050565b6000613f7982613e76565b9150613f8483613e76565b925082613f9457613f93613fce565b5b828206905092915050565b7f4e487b7100000000000000000000000000000000000000000000000000000000600052601160045260246000fd5b7f4e487b7100000000000000000000000000000000000000000000000000000000600052601260045260246000fd5b7f4e487b7100000000000000000000000000000000000000000000000000000000600052602260045260246000fd5b7f4e487b7100000000000000000000000000000000000000000000000000000000600052604160045260246000fd5b6000601f19601f8301169050919050565b7f202d2d204e465420233a20000000000000000000000000000000000000000000600082015250565b7f4552433732313a207472616e7366657220746f206e6f6e20455243373231526560008201527f63656976657220696d706c656d656e7465720000000000000000000000000000602082015250565b7f4552433732313a20746f6b656e20616c7265616479206d696e74656400000000600082015250565b7f222c202261747472696275746573223a205b207b202274726169745f7479706560008201527f223a2022417274697374204e616d65222c202276616c7565223a202200000000602082015250565b7f4552433732313a207472616e7366657220746f20746865207a65726f2061646460008201527f7265737300000000000000000000000000000000000000000000000000000000602082015250565b7f4552433732313a20617070726f766520746f2063616c6c657200000000000000600082015250565b7f4552433732313a206f70657261746f7220717565727920666f72206e6f6e657860008201527f697374656e7420746f6b656e0000000000000000000000000000000000000000602082015250565b7f4552433732313a20617070726f76652063616c6c6572206973206e6f74206f7760008201527f6e6572206e6f7220617070726f76656420666f7220616c6c0000000000000000602082015250565b7f4552433732313a2062616c616e636520717565727920666f7220746865207a6560008201527f726f206164647265737300000000000000000000000000000000000000000000602082015250565b7f4552433732313a206f776e657220717565727920666f72206e6f6e657869737460008201527f656e7420746f6b656e0000000000000000000000000000000000000000000000602082015250565b7f7d205d7d00000000000000000000000000000000000000000000000000000000600082015250565b7f4552433732313a206d696e7420746f20746865207a65726f2061646472657373600082015250565b7f222c20226465736372697074696f6e223a202241207374617274657220736f6e60008201527f67207573656420746f20706c617920696e207468652050484c4f5445204a756b60208201527f65626f7821222c20226d65646961223a20220000000000000000000000000000604082015250565b7f4552433732313a20617070726f76656420717565727920666f72206e6f6e657860008201527f697374656e7420746f6b656e0000000000000000000000000000000000000000602082015250565b7f4552433732313a207472616e73666572206f6620746f6b656e2074686174206960008201527f73206e6f74206f776e0000000000000000000000000000000000000000000000602082015250565b7f7b226e616d65223a202200000000000000000000000000000000000000000000600082015250565b7f4552433732313a20617070726f76616c20746f2063757272656e74206f776e6560008201527f7200000000000000000000000000000000000000000000000000000000000000602082015250565b7f646174613a6170706c69636174696f6e2f6a736f6e3b6261736536342c000000600082015250565b7f4552433732313a207472616e736665722063616c6c6572206973206e6f74206f60008201527f776e6572206e6f7220617070726f766564000000000000000000000000000000602082015250565b61456e81613e0c565b811461457957600080fd5b50565b61458581613e1e565b811461459057600080fd5b50565b61459c81613e2a565b81146145a757600080fd5b50565b6145b381613e76565b81146145be57600080fd5b5056fe4142434445464748494a4b4c4d4e4f505152535455565758595a6162636465666768696a6b6c6d6e6f707172737475767778797a303132333435363738392b2f2a2a2a2a2a2a4d696e746564202573204e465420772f20746f6b656e4964202573202a2a2a2a2a2aa26469706673582212209aa9549fcfaac09338716559d4a3d0b484c11082c67b62ce3d9dc94c6413c61564736f6c63430008040033",
  "linkReferences": {},
  "deployedLinkReferences": {}
}