{
  "_format": "hh-sol-artifact-1",
  "contractName": "Phlote",
  "sourceName": "contracts/Phlote.sol",
  "abi": [
    {
      "anonymous": false,
      "inputs": [
        {
          "indexed": true,
          "internalType": "address",
          "name": "owner",
          "type": "address"
        },
        {
          "indexed": true,
          "internalType": "address",
          "name": "approved",
          "type": "address"
        },
        {
          "indexed": true,
          "internalType": "uint256",
          "name": "tokenId",
          "type": "uint256"
        }
      ],
      "name": "Approval",
      "type": "event"
    },
    {
      "anonymous": false,
      "inputs": [
        {
          "indexed": true,
          "internalType": "address",
          "name": "owner",
          "type": "address"
        },
        {
          "indexed": true,
          "internalType": "address",
          "name": "operator",
          "type": "address"
        },
        {
          "indexed": false,
          "internalType": "bool",
          "name": "approved",
          "type": "bool"
        }
      ],
      "name": "ApprovalForAll",
      "type": "event"
    },
    {
      "anonymous": false,
      "inputs": [
        {
          "indexed": false,
          "internalType": "address",
          "name": "sender",
          "type": "address"
        },
        {
          "indexed": true,
          "internalType": "uint256",
          "name": "editionId",
          "type": "uint256"
        }
      ],
      "name": "EditionCreated",
      "type": "event"
    },
    {
      "anonymous": false,
      "inputs": [
        {
          "indexed": true,
          "internalType": "address",
          "name": "buyer",
          "type": "address"
        },
        {
          "indexed": false,
          "internalType": "uint256",
          "name": "tokenId",
          "type": "uint256"
        },
        {
          "indexed": false,
          "internalType": "uint256",
          "name": "numSold",
          "type": "uint256"
        }
      ],
      "name": "EditionMinted",
      "type": "event"
    },
    {
      "anonymous": false,
      "inputs": [
        {
          "indexed": true,
          "internalType": "address",
          "name": "previousOwner",
          "type": "address"
        },
        {
          "indexed": true,
          "internalType": "address",
          "name": "newOwner",
          "type": "address"
        }
      ],
      "name": "OwnershipTransferred",
      "type": "event"
    },
    {
      "anonymous": false,
      "inputs": [
        {
          "indexed": true,
          "internalType": "address",
          "name": "from",
          "type": "address"
        },
        {
          "indexed": true,
          "internalType": "address",
          "name": "to",
          "type": "address"
        },
        {
          "indexed": true,
          "internalType": "uint256",
          "name": "tokenId",
          "type": "uint256"
        }
      ],
      "name": "Transfer",
      "type": "event"
    },
    {
      "inputs": [
        {
          "internalType": "address",
          "name": "to",
          "type": "address"
        },
        {
          "internalType": "uint256",
          "name": "tokenId",
          "type": "uint256"
        }
      ],
      "name": "approve",
      "outputs": [],
      "stateMutability": "nonpayable",
      "type": "function"
    },
    {
      "inputs": [
        {
          "internalType": "address",
          "name": "owner",
          "type": "address"
        }
      ],
      "name": "balanceOf",
      "outputs": [
        {
          "internalType": "uint256",
          "name": "",
          "type": "uint256"
        }
      ],
      "stateMutability": "view",
      "type": "function"
    },
    {
      "inputs": [],
      "name": "contractPrice",
      "outputs": [
        {
          "internalType": "uint256",
          "name": "",
          "type": "uint256"
        }
      ],
      "stateMutability": "view",
      "type": "function"
    },
    {
      "inputs": [
        {
          "internalType": "address",
          "name": "",
          "type": "address"
        },
        {
          "internalType": "uint256",
          "name": "",
          "type": "uint256"
        }
      ],
      "name": "curatorSubmissions",
      "outputs": [
        {
          "internalType": "uint256",
          "name": "id",
          "type": "uint256"
        },
        {
          "internalType": "address",
          "name": "curatorWallet",
          "type": "address"
        },
        {
          "internalType": "address",
          "name": "artistWallet",
          "type": "address"
        },
        {
          "internalType": "string",
          "name": "mediaURI",
          "type": "string"
        },
        {
          "internalType": "string",
          "name": "marketplace",
          "type": "string"
        },
        {
          "internalType": "string",
          "name": "artistName",
          "type": "string"
        },
        {
          "internalType": "string",
          "name": "mediaType",
          "type": "string"
        },
        {
          "internalType": "string",
          "name": "mediaTitle",
          "type": "string"
        },
        {
          "internalType": "uint256",
          "name": "numSold",
          "type": "uint256"
        },
        {
          "internalType": "string",
          "name": "tokenURI",
          "type": "string"
        },
        {
          "internalType": "uint256",
          "name": "submissionTime",
          "type": "uint256"
        }
      ],
      "stateMutability": "view",
      "type": "function"
    },
    {
      "inputs": [
        {
          "internalType": "uint256",
          "name": "",
          "type": "uint256"
        }
      ],
      "name": "editions",
      "outputs": [
        {
          "internalType": "uint256",
          "name": "id",
          "type": "uint256"
        },
        {
          "internalType": "address",
          "name": "curatorWallet",
          "type": "address"
        },
        {
          "internalType": "address",
          "name": "artistWallet",
          "type": "address"
        },
        {
          "internalType": "string",
          "name": "mediaURI",
          "type": "string"
        },
        {
          "internalType": "string",
          "name": "marketplace",
          "type": "string"
        },
        {
          "internalType": "string",
          "name": "artistName",
          "type": "string"
        },
        {
          "internalType": "string",
          "name": "mediaType",
          "type": "string"
        },
        {
          "internalType": "string",
          "name": "mediaTitle",
          "type": "string"
        },
        {
          "internalType": "uint256",
          "name": "numSold",
          "type": "uint256"
        },
        {
          "internalType": "string",
          "name": "tokenURI",
          "type": "string"
        },
        {
          "internalType": "uint256",
          "name": "submissionTime",
          "type": "uint256"
        }
      ],
      "stateMutability": "view",
      "type": "function"
    },
    {
      "inputs": [],
      "name": "getAllCurations",
      "outputs": [
        {
          "components": [
            {
              "internalType": "uint256",
              "name": "id",
              "type": "uint256"
            },
            {
              "internalType": "address",
              "name": "curatorWallet",
              "type": "address"
            },
            {
              "internalType": "address",
              "name": "artistWallet",
              "type": "address"
            },
            {
              "internalType": "string",
              "name": "mediaURI",
              "type": "string"
            },
            {
              "internalType": "string",
              "name": "marketplace",
              "type": "string"
            },
            {
              "internalType": "string[]",
              "name": "tags",
              "type": "string[]"
            },
            {
              "internalType": "string",
              "name": "artistName",
              "type": "string"
            },
            {
              "internalType": "string",
              "name": "mediaType",
              "type": "string"
            },
            {
              "internalType": "string",
              "name": "mediaTitle",
              "type": "string"
            },
            {
              "internalType": "uint256",
              "name": "numSold",
              "type": "uint256"
            },
            {
              "internalType": "string",
              "name": "tokenURI",
              "type": "string"
            },
            {
              "internalType": "uint256",
              "name": "submissionTime",
              "type": "uint256"
            }
          ],
          "internalType": "struct Phlote.Edition[]",
          "name": "",
          "type": "tuple[]"
        }
      ],
      "stateMutability": "view",
      "type": "function"
    },
    {
      "inputs": [
        {
          "internalType": "uint256",
          "name": "tokenId",
          "type": "uint256"
        }
      ],
      "name": "getApproved",
      "outputs": [
        {
          "internalType": "address",
          "name": "",
          "type": "address"
        }
      ],
      "stateMutability": "view",
      "type": "function"
    },
    {
      "inputs": [
        {
          "internalType": "address",
          "name": "_curatorWallet",
          "type": "address"
        }
      ],
      "name": "getCuratorSubmissions",
      "outputs": [
        {
          "components": [
            {
              "internalType": "uint256",
              "name": "id",
              "type": "uint256"
            },
            {
              "internalType": "address",
              "name": "curatorWallet",
              "type": "address"
            },
            {
              "internalType": "address",
              "name": "artistWallet",
              "type": "address"
            },
            {
              "internalType": "string",
              "name": "mediaURI",
              "type": "string"
            },
            {
              "internalType": "string",
              "name": "marketplace",
              "type": "string"
            },
            {
              "internalType": "string[]",
              "name": "tags",
              "type": "string[]"
            },
            {
              "internalType": "string",
              "name": "artistName",
              "type": "string"
            },
            {
              "internalType": "string",
              "name": "mediaType",
              "type": "string"
            },
            {
              "internalType": "string",
              "name": "mediaTitle",
              "type": "string"
            },
            {
              "internalType": "uint256",
              "name": "numSold",
              "type": "uint256"
            },
            {
              "internalType": "string",
              "name": "tokenURI",
              "type": "string"
            },
            {
              "internalType": "uint256",
              "name": "submissionTime",
              "type": "uint256"
            }
          ],
          "internalType": "struct Phlote.Edition[]",
          "name": "",
          "type": "tuple[]"
        }
      ],
      "stateMutability": "view",
      "type": "function"
    },
    {
      "inputs": [],
      "name": "initialize",
      "outputs": [],
      "stateMutability": "nonpayable",
      "type": "function"
    },
    {
      "inputs": [
        {
          "internalType": "address",
          "name": "owner",
          "type": "address"
        },
        {
          "internalType": "address",
          "name": "operator",
          "type": "address"
        }
      ],
      "name": "isApprovedForAll",
      "outputs": [
        {
          "internalType": "bool",
          "name": "",
          "type": "bool"
        }
      ],
      "stateMutability": "view",
      "type": "function"
    },
    {
      "inputs": [
        {
          "internalType": "uint256",
          "name": "editionId",
          "type": "uint256"
        }
      ],
      "name": "mintEdition",
      "outputs": [],
      "stateMutability": "payable",
      "type": "function"
    },
    {
      "inputs": [],
      "name": "name",
      "outputs": [
        {
          "internalType": "string",
          "name": "",
          "type": "string"
        }
      ],
      "stateMutability": "view",
      "type": "function"
    },
    {
      "inputs": [
        {
          "internalType": "address",
          "name": "",
          "type": "address"
        }
      ],
      "name": "nftHolders",
      "outputs": [
        {
          "internalType": "uint256",
          "name": "",
          "type": "uint256"
        }
      ],
      "stateMutability": "view",
      "type": "function"
    },
    {
      "inputs": [],
      "name": "owner",
      "outputs": [
        {
          "internalType": "address",
          "name": "",
          "type": "address"
        }
      ],
      "stateMutability": "view",
      "type": "function"
    },
    {
      "inputs": [
        {
          "internalType": "uint256",
          "name": "tokenId",
          "type": "uint256"
        }
      ],
      "name": "ownerOf",
      "outputs": [
        {
          "internalType": "address",
          "name": "",
          "type": "address"
        }
      ],
      "stateMutability": "view",
      "type": "function"
    },
    {
      "inputs": [],
      "name": "renounceOwnership",
      "outputs": [],
      "stateMutability": "nonpayable",
      "type": "function"
    },
    {
      "inputs": [
        {
          "internalType": "address",
          "name": "from",
          "type": "address"
        },
        {
          "internalType": "address",
          "name": "to",
          "type": "address"
        },
        {
          "internalType": "uint256",
          "name": "tokenId",
          "type": "uint256"
        }
      ],
      "name": "safeTransferFrom",
      "outputs": [],
      "stateMutability": "nonpayable",
      "type": "function"
    },
    {
      "inputs": [
        {
          "internalType": "address",
          "name": "from",
          "type": "address"
        },
        {
          "internalType": "address",
          "name": "to",
          "type": "address"
        },
        {
          "internalType": "uint256",
          "name": "tokenId",
          "type": "uint256"
        },
        {
          "internalType": "bytes",
          "name": "_data",
          "type": "bytes"
        }
      ],
      "name": "safeTransferFrom",
      "outputs": [],
      "stateMutability": "nonpayable",
      "type": "function"
    },
    {
      "inputs": [
        {
          "internalType": "address",
          "name": "operator",
          "type": "address"
        },
        {
          "internalType": "bool",
          "name": "approved",
          "type": "bool"
        }
      ],
      "name": "setApprovalForAll",
      "outputs": [],
      "stateMutability": "nonpayable",
      "type": "function"
    },
    {
      "inputs": [
        {
          "internalType": "address",
          "name": "_curatorWallet",
          "type": "address"
        },
        {
          "internalType": "string",
          "name": "_mediaURI",
          "type": "string"
        },
        {
          "internalType": "string",
          "name": "_marketplace",
          "type": "string"
        },
        {
          "internalType": "string[]",
          "name": "_tags",
          "type": "string[]"
        },
        {
          "internalType": "string",
          "name": "_artistName",
          "type": "string"
        },
        {
          "internalType": "address",
          "name": "_artistWallet",
          "type": "address"
        },
        {
          "internalType": "string",
          "name": "_mediaType",
          "type": "string"
        },
        {
          "internalType": "string",
          "name": "_mediaTitle",
          "type": "string"
        },
        {
          "internalType": "string",
          "name": "_tokenURI",
          "type": "string"
        }
      ],
      "name": "submitPost",
      "outputs": [],
      "stateMutability": "nonpayable",
      "type": "function"
    },
    {
      "inputs": [
        {
          "internalType": "bytes4",
          "name": "interfaceId",
          "type": "bytes4"
        }
      ],
      "name": "supportsInterface",
      "outputs": [
        {
          "internalType": "bool",
          "name": "",
          "type": "bool"
        }
      ],
      "stateMutability": "view",
      "type": "function"
    },
    {
      "inputs": [],
      "name": "symbol",
      "outputs": [
        {
          "internalType": "string",
          "name": "",
          "type": "string"
        }
      ],
      "stateMutability": "view",
      "type": "function"
    },
    {
      "inputs": [
        {
          "internalType": "uint256",
          "name": "",
          "type": "uint256"
        }
      ],
      "name": "tokenToSong",
      "outputs": [
        {
          "internalType": "uint256",
          "name": "",
          "type": "uint256"
        }
      ],
      "stateMutability": "view",
      "type": "function"
    },
    {
      "inputs": [
        {
          "internalType": "uint256",
          "name": "_tokenId",
          "type": "uint256"
        }
      ],
      "name": "tokenURI",
      "outputs": [
        {
          "internalType": "string",
          "name": "",
          "type": "string"
        }
      ],
      "stateMutability": "view",
      "type": "function"
    },
    {
      "inputs": [
        {
          "internalType": "address",
          "name": "from",
          "type": "address"
        },
        {
          "internalType": "address",
          "name": "to",
          "type": "address"
        },
        {
          "internalType": "uint256",
          "name": "tokenId",
          "type": "uint256"
        }
      ],
      "name": "transferFrom",
      "outputs": [],
      "stateMutability": "nonpayable",
      "type": "function"
    },
    {
      "inputs": [
        {
          "internalType": "address",
          "name": "newOwner",
          "type": "address"
        }
      ],
      "name": "transferOwnership",
      "outputs": [],
      "stateMutability": "nonpayable",
      "type": "function"
    },
    {
      "inputs": [
        {
          "internalType": "uint256",
          "name": "",
          "type": "uint256"
        }
      ],
      "name": "withdrawnForEdition",
      "outputs": [
        {
          "internalType": "uint256",
          "name": "",
          "type": "uint256"
        }
      ],
      "stateMutability": "view",
      "type": "function"
    }
  ],
  "bytecode": "0x608060405234801561001057600080fd5b5061583880620000216000396000f3fe60806040526004361061019c5760003560e01c806370a08231116100ec578063a22cb4651161008a578063d3bb052811610064578063d3bb0528146105f1578063e2b18d3f1461062e578063e985e9c51461066b578063f2fde38b146106a85761019c565b8063a22cb46514610562578063b88d4fde1461058b578063c87b56dd146105b45761019c565b80638129fc1c116100c65780638129fc1c146104ca5780638da5cb5b146104e157806395d89b411461050c57806397e9a0bf146105375761019c565b806370a0823114610439578063715018a6146104765780637df124a11461048d5761019c565b80631cfbcd5b1161015957806342842e0e1161013357806342842e0e1461036d57806353301ecf146103965780636352211e146103d35780636b165854146104105761019c565b80631cfbcd5b146102d257806323b872dd146102fd578063279c806e146103265761019c565b806301ffc9a7146101a157806305322b74146101de57806306fdde03146101fa578063081812fc14610225578063095ea7b3146102625780631125c3201461028b575b600080fd5b3480156101ad57600080fd5b506101c860048036038101906101c39190614497565b6106d1565b6040516101d59190614b24565b60405180910390f35b6101f860048036038101906101f391906144e9565b6107b3565b005b34801561020657600080fd5b5061020f610988565b60405161021c9190614b3f565b60405180910390f35b34801561023157600080fd5b5061024c600480360381019061024791906144e9565b610a1a565b6040516102599190614a9b565b60405180910390f35b34801561026e57600080fd5b506102896004803603810190610284919061445b565b610a9f565b005b34801561029757600080fd5b506102b260048036038101906102ad919061445b565b610bb7565b6040516102c99b9a99989796959493929190614de1565b60405180910390f35b3480156102de57600080fd5b506102e7610f9e565b6040516102f49190614b02565b60405180910390f35b34801561030957600080fd5b50610324600480360381019061031f91906141e7565b61150d565b005b34801561033257600080fd5b5061034d600480360381019061034891906144e9565b61156d565b6040516103649b9a99989796959493929190614de1565b60405180910390f35b34801561037957600080fd5b50610394600480360381019061038f91906141e7565b611937565b005b3480156103a257600080fd5b506103bd60048036038101906103b89190614182565b611957565b6040516103ca9190614b02565b60405180910390f35b3480156103df57600080fd5b506103fa60048036038101906103f591906144e9565b611f05565b6040516104079190614a9b565b60405180910390f35b34801561041c57600080fd5b50610437600480360381019061043291906142ed565b611fb7565b005b34801561044557600080fd5b50610460600480360381019061045b9190614182565b6125c8565b60405161046d9190614dc6565b60405180910390f35b34801561048257600080fd5b5061048b612680565b005b34801561049957600080fd5b506104b460048036038101906104af9190614182565b612708565b6040516104c19190614dc6565b60405180910390f35b3480156104d657600080fd5b506104df612720565b005b3480156104ed57600080fd5b506104f661288a565b6040516105039190614a9b565b60405180910390f35b34801561051857600080fd5b506105216128b4565b60405161052e9190614b3f565b60405180910390f35b34801561054357600080fd5b5061054c612946565b6040516105599190614dc6565b60405180910390f35b34801561056e57600080fd5b50610589600480360381019061058491906142b1565b61294c565b005b34801561059757600080fd5b506105b260048036038101906105ad9190614236565b612962565b005b3480156105c057600080fd5b506105db60048036038101906105d691906144e9565b6129c4565b6040516105e89190614b3f565b60405180910390f35b3480156105fd57600080fd5b50610618600480360381019061061391906144e9565b612f19565b6040516106259190614dc6565b60405180910390f35b34801561063a57600080fd5b50610655600480360381019061065091906144e9565b612f31565b6040516106629190614dc6565b60405180910390f35b34801561067757600080fd5b50610692600480360381019061068d91906141ab565b612f49565b60405161069f9190614b24565b60405180910390f35b3480156106b457600080fd5b506106cf60048036038101906106ca9190614182565b612fdd565b005b60007f80ac58cd000000000000000000000000000000000000000000000000000000007bffffffffffffffffffffffffffffffffffffffffffffffffffffffff1916827bffffffffffffffffffffffffffffffffffffffffffffffffffffffff1916148061079c57507f5b5e139f000000000000000000000000000000000000000000000000000000007bffffffffffffffffffffffffffffffffffffffffffffffffffffffff1916827bffffffffffffffffffffffffffffffffffffffffffffffffffffffff1916145b806107ac57506107ab826130d5565b5b9050919050565b60006107bf60ca61313f565b90506107cb338261314d565b61088c6040518060600160405280602881526020016157db6028913960cd600085815260200190815260200160002060080180546108089061518d565b80601f01602080910402602001604051908101604052809291908181526020018280546108349061518d565b80156108815780601f1061085657610100808354040283529160200191610881565b820191906000526020600020905b81548152906001019060200180831161086457829003601f168201915b50505050508361316b565b8060ce60003373ffffffffffffffffffffffffffffffffffffffff1673ffffffffffffffffffffffffffffffffffffffff168152602001908152602001600020819055506108da60ca61320a565b60cd60008381526020019081526020016000206009016000815480929190610901906151f0565b91905055508160d16000838152602001908152602001600020819055503373ffffffffffffffffffffffffffffffffffffffff167fe1b60c9e07632933648666e5ede8b3b329ddfa2ab98c51b1a5b4b22ab4f1349c8260cd60008681526020019081526020016000206009015460405161097c929190614eb6565b60405180910390a25050565b6060606580546109979061518d565b80601f01602080910402602001604051908101604052809291908181526020018280546109c39061518d565b8015610a105780601f106109e557610100808354040283529160200191610a10565b820191906000526020600020905b8154815290600101906020018083116109f357829003601f168201915b5050505050905090565b6000610a2582613220565b610a64576040517f08c379a0000000000000000000000000000000000000000000000000000000008152600401610a5b90614d26565b60405180910390fd5b6069600083815260200190815260200160002060009054906101000a900473ffffffffffffffffffffffffffffffffffffffff169050919050565b6000610aaa82611f05565b90508073ffffffffffffffffffffffffffffffffffffffff168373ffffffffffffffffffffffffffffffffffffffff161415610b1b576040517f08c379a0000000000000000000000000000000000000000000000000000000008152600401610b1290614d66565b60405180910390fd5b8073ffffffffffffffffffffffffffffffffffffffff16610b3a61328c565b73ffffffffffffffffffffffffffffffffffffffff161480610b695750610b6881610b6361328c565b612f49565b5b610ba8576040517f08c379a0000000000000000000000000000000000000000000000000000000008152600401610b9f90614c86565b60405180910390fd5b610bb28383613294565b505050565b60cf6020528160005260406000208181548110610bd357600080fd5b90600052602060002090600c0201600091509150508060000154908060010160009054906101000a900473ffffffffffffffffffffffffffffffffffffffff16908060020160009054906101000a900473ffffffffffffffffffffffffffffffffffffffff1690806003018054610c499061518d565b80601f0160208091040260200160405190810160405280929190818152602001828054610c759061518d565b8015610cc25780601f10610c9757610100808354040283529160200191610cc2565b820191906000526020600020905b815481529060010190602001808311610ca557829003601f168201915b505050505090806004018054610cd79061518d565b80601f0160208091040260200160405190810160405280929190818152602001828054610d039061518d565b8015610d505780601f10610d2557610100808354040283529160200191610d50565b820191906000526020600020905b815481529060010190602001808311610d3357829003601f168201915b505050505090806006018054610d659061518d565b80601f0160208091040260200160405190810160405280929190818152602001828054610d919061518d565b8015610dde5780601f10610db357610100808354040283529160200191610dde565b820191906000526020600020905b815481529060010190602001808311610dc157829003601f168201915b505050505090806007018054610df39061518d565b80601f0160208091040260200160405190810160405280929190818152602001828054610e1f9061518d565b8015610e6c5780601f10610e4157610100808354040283529160200191610e6c565b820191906000526020600020905b815481529060010190602001808311610e4f57829003601f168201915b505050505090806008018054610e819061518d565b80601f0160208091040260200160405190810160405280929190818152602001828054610ead9061518d565b8015610efa5780601f10610ecf57610100808354040283529160200191610efa565b820191906000526020600020905b815481529060010190602001808311610edd57829003601f168201915b50505050509080600901549080600a018054610f159061518d565b80601f0160208091040260200160405190810160405280929190818152602001828054610f419061518d565b8015610f8e5780601f10610f6357610100808354040283529160200191610f8e565b820191906000526020600020905b815481529060010190602001808311610f7157829003601f168201915b50505050509080600b015490508b565b606060cc805480602002602001604051908101604052809291908181526020016000905b8282101561150457838290600052602060002090600c020160405180610180016040529081600082015481526020016001820160009054906101000a900473ffffffffffffffffffffffffffffffffffffffff1673ffffffffffffffffffffffffffffffffffffffff1673ffffffffffffffffffffffffffffffffffffffff1681526020016002820160009054906101000a900473ffffffffffffffffffffffffffffffffffffffff1673ffffffffffffffffffffffffffffffffffffffff1673ffffffffffffffffffffffffffffffffffffffff1681526020016003820180546110ac9061518d565b80601f01602080910402602001604051908101604052809291908181526020018280546110d89061518d565b80156111255780601f106110fa57610100808354040283529160200191611125565b820191906000526020600020905b81548152906001019060200180831161110857829003601f168201915b5050505050815260200160048201805461113e9061518d565b80601f016020809104026020016040519081016040528092919081815260200182805461116a9061518d565b80156111b75780601f1061118c576101008083540402835291602001916111b7565b820191906000526020600020905b81548152906001019060200180831161119a57829003601f168201915b5050505050815260200160058201805480602002602001604051908101604052809291908181526020016000905b828210156112915783829060005260206000200180546112049061518d565b80601f01602080910402602001604051908101604052809291908181526020018280546112309061518d565b801561127d5780601f106112525761010080835404028352916020019161127d565b820191906000526020600020905b81548152906001019060200180831161126057829003601f168201915b5050505050815260200190600101906111e5565b5050505081526020016006820180546112a99061518d565b80601f01602080910402602001604051908101604052809291908181526020018280546112d59061518d565b80156113225780601f106112f757610100808354040283529160200191611322565b820191906000526020600020905b81548152906001019060200180831161130557829003601f168201915b5050505050815260200160078201805461133b9061518d565b80601f01602080910402602001604051908101604052809291908181526020018280546113679061518d565b80156113b45780601f10611389576101008083540402835291602001916113b4565b820191906000526020600020905b81548152906001019060200180831161139757829003601f168201915b505050505081526020016008820180546113cd9061518d565b80601f01602080910402602001604051908101604052809291908181526020018280546113f99061518d565b80156114465780601f1061141b57610100808354040283529160200191611446565b820191906000526020600020905b81548152906001019060200180831161142957829003601f168201915b5050505050815260200160098201548152602001600a820180546114699061518d565b80601f01602080910402602001604051908101604052809291908181526020018280546114959061518d565b80156114e25780601f106114b7576101008083540402835291602001916114e2565b820191906000526020600020905b8154815290600101906020018083116114c557829003601f168201915b50505050508152602001600b8201548152505081526020019060010190610fc2565b50505050905090565b61151e61151861328c565b8261334d565b61155d576040517f08c379a000000000000000000000000000000000000000000000000000000000815260040161155490614d86565b60405180910390fd5b61156883838361342b565b505050565b60cd6020528060005260406000206000915090508060000154908060010160009054906101000a900473ffffffffffffffffffffffffffffffffffffffff16908060020160009054906101000a900473ffffffffffffffffffffffffffffffffffffffff16908060030180546115e29061518d565b80601f016020809104026020016040519081016040528092919081815260200182805461160e9061518d565b801561165b5780601f106116305761010080835404028352916020019161165b565b820191906000526020600020905b81548152906001019060200180831161163e57829003601f168201915b5050505050908060040180546116709061518d565b80601f016020809104026020016040519081016040528092919081815260200182805461169c9061518d565b80156116e95780601f106116be576101008083540402835291602001916116e9565b820191906000526020600020905b8154815290600101906020018083116116cc57829003601f168201915b5050505050908060060180546116fe9061518d565b80601f016020809104026020016040519081016040528092919081815260200182805461172a9061518d565b80156117775780601f1061174c57610100808354040283529160200191611777565b820191906000526020600020905b81548152906001019060200180831161175a57829003601f168201915b50505050509080600701805461178c9061518d565b80601f01602080910402602001604051908101604052809291908181526020018280546117b89061518d565b80156118055780601f106117da57610100808354040283529160200191611805565b820191906000526020600020905b8154815290600101906020018083116117e857829003601f168201915b50505050509080600801805461181a9061518d565b80601f01602080910402602001604051908101604052809291908181526020018280546118469061518d565b80156118935780601f1061186857610100808354040283529160200191611893565b820191906000526020600020905b81548152906001019060200180831161187657829003601f168201915b50505050509080600901549080600a0180546118ae9061518d565b80601f01602080910402602001604051908101604052809291908181526020018280546118da9061518d565b80156119275780601f106118fc57610100808354040283529160200191611927565b820191906000526020600020905b81548152906001019060200180831161190a57829003601f168201915b50505050509080600b015490508b565b61195283838360405180602001604052806000815250612962565b505050565b606060cf60008373ffffffffffffffffffffffffffffffffffffffff1673ffffffffffffffffffffffffffffffffffffffff168152602001908152602001600020805480602002602001604051908101604052809291908181526020016000905b82821015611efa57838290600052602060002090600c020160405180610180016040529081600082015481526020016001820160009054906101000a900473ffffffffffffffffffffffffffffffffffffffff1673ffffffffffffffffffffffffffffffffffffffff1673ffffffffffffffffffffffffffffffffffffffff1681526020016002820160009054906101000a900473ffffffffffffffffffffffffffffffffffffffff1673ffffffffffffffffffffffffffffffffffffffff1673ffffffffffffffffffffffffffffffffffffffff168152602001600382018054611aa29061518d565b80601f0160208091040260200160405190810160405280929190818152602001828054611ace9061518d565b8015611b1b5780601f10611af057610100808354040283529160200191611b1b565b820191906000526020600020905b815481529060010190602001808311611afe57829003601f168201915b50505050508152602001600482018054611b349061518d565b80601f0160208091040260200160405190810160405280929190818152602001828054611b609061518d565b8015611bad5780601f10611b8257610100808354040283529160200191611bad565b820191906000526020600020905b815481529060010190602001808311611b9057829003601f168201915b5050505050815260200160058201805480602002602001604051908101604052809291908181526020016000905b82821015611c87578382906000526020600020018054611bfa9061518d565b80601f0160208091040260200160405190810160405280929190818152602001828054611c269061518d565b8015611c735780601f10611c4857610100808354040283529160200191611c73565b820191906000526020600020905b815481529060010190602001808311611c5657829003601f168201915b505050505081526020019060010190611bdb565b505050508152602001600682018054611c9f9061518d565b80601f0160208091040260200160405190810160405280929190818152602001828054611ccb9061518d565b8015611d185780601f10611ced57610100808354040283529160200191611d18565b820191906000526020600020905b815481529060010190602001808311611cfb57829003601f168201915b50505050508152602001600782018054611d319061518d565b80601f0160208091040260200160405190810160405280929190818152602001828054611d5d9061518d565b8015611daa5780601f10611d7f57610100808354040283529160200191611daa565b820191906000526020600020905b815481529060010190602001808311611d8d57829003601f168201915b50505050508152602001600882018054611dc39061518d565b80601f0160208091040260200160405190810160405280929190818152602001828054611def9061518d565b8015611e3c5780601f10611e1157610100808354040283529160200191611e3c565b820191906000526020600020905b815481529060010190602001808311611e1f57829003601f168201915b5050505050815260200160098201548152602001600a82018054611e5f9061518d565b80601f0160208091040260200160405190810160405280929190818152602001828054611e8b9061518d565b8015611ed85780601f10611ead57610100808354040283529160200191611ed8565b820191906000526020600020905b815481529060010190602001808311611ebb57829003601f168201915b50505050508152602001600b82015481525050815260200190600101906119b8565b505050509050919050565b6000806067600084815260200190815260200160002060009054906101000a900473ffffffffffffffffffffffffffffffffffffffff169050600073ffffffffffffffffffffffffffffffffffffffff168173ffffffffffffffffffffffffffffffffffffffff161415611fae576040517f08c379a0000000000000000000000000000000000000000000000000000000008152600401611fa590614cc6565b60405180910390fd5b80915050919050565b600060405180610180016040528060cb5481526020018b73ffffffffffffffffffffffffffffffffffffffff1681526020018673ffffffffffffffffffffffffffffffffffffffff1681526020018a81526020018981526020018881526020018781526020018581526020018481526020016000815260200183815260200142815250905060cc8190806001815401808255809150506001900390600052602060002090600c02016000909190919091506000820151816000015560208201518160010160006101000a81548173ffffffffffffffffffffffffffffffffffffffff021916908373ffffffffffffffffffffffffffffffffffffffff16021790555060408201518160020160006101000a81548173ffffffffffffffffffffffffffffffffffffffff021916908373ffffffffffffffffffffffffffffffffffffffff160217905550606082015181600301908051906020019061211c929190613e32565b506080820151816004019080519060200190612139929190613e32565b5060a0820151816005019080519060200190612156929190613eb8565b5060c0820151816006019080519060200190612173929190613e32565b5060e0820151816007019080519060200190612190929190613e32565b506101008201518160080190805190602001906121ae929190613e32565b50610120820151816009015561014082015181600a0190805190602001906121d7929190613e32565b5061016082015181600b015550508060cd600060cb5481526020019081526020016000206000820151816000015560208201518160010160006101000a81548173ffffffffffffffffffffffffffffffffffffffff021916908373ffffffffffffffffffffffffffffffffffffffff16021790555060408201518160020160006101000a81548173ffffffffffffffffffffffffffffffffffffffff021916908373ffffffffffffffffffffffffffffffffffffffff16021790555060608201518160030190805190602001906122af929190613e32565b5060808201518160040190805190602001906122cc929190613e32565b5060a08201518160050190805190602001906122e9929190613eb8565b5060c0820151816006019080519060200190612306929190613e32565b5060e0820151816007019080519060200190612323929190613e32565b50610100820151816008019080519060200190612341929190613e32565b50610120820151816009015561014082015181600a01908051906020019061236a929190613e32565b5061016082015181600b015590505060cf60008b73ffffffffffffffffffffffffffffffffffffffff1673ffffffffffffffffffffffffffffffffffffffff1681526020019081526020016000208190806001815401808255809150506001900390600052602060002090600c02016000909190919091506000820151816000015560208201518160010160006101000a81548173ffffffffffffffffffffffffffffffffffffffff021916908373ffffffffffffffffffffffffffffffffffffffff16021790555060408201518160020160006101000a81548173ffffffffffffffffffffffffffffffffffffffff021916908373ffffffffffffffffffffffffffffffffffffffff1602179055506060820151816003019080519060200190612496929190613e32565b5060808201518160040190805190602001906124b3929190613e32565b5060a08201518160050190805190602001906124d0929190613eb8565b5060c08201518160060190805190602001906124ed929190613e32565b5060e082015181600701908051906020019061250a929190613e32565b50610100820151816008019080519060200190612528929190613e32565b50610120820151816009015561014082015181600a019080519060200190612551929190613e32565b5061016082015181600b0155505060cb547fa1cd98301e2a758f45871102b368fdcf3f56e13f8e8fd2886523ac87ca066ce0336040516125919190614a9b565b60405180910390a26125a460cb546107b3565b60cb60008154809291906125b7906151f0565b919050555050505050505050505050565b60008073ffffffffffffffffffffffffffffffffffffffff168273ffffffffffffffffffffffffffffffffffffffff161415612639576040517f08c379a000000000000000000000000000000000000000000000000000000000815260040161263090614ca6565b60405180910390fd5b606860008373ffffffffffffffffffffffffffffffffffffffff1673ffffffffffffffffffffffffffffffffffffffff168152602001908152602001600020549050919050565b61268861328c565b73ffffffffffffffffffffffffffffffffffffffff166126a661288a565b73ffffffffffffffffffffffffffffffffffffffff16146126fc576040517f08c379a00000000000000000000000000000000000000000000000000000000081526004016126f390614d46565b60405180910390fd5b6127066000613692565b565b60ce6020528060005260406000206000915090505481565b600060019054906101000a900460ff166127485760008054906101000a900460ff1615612751565b612750613758565b5b612790576040517f08c379a000000000000000000000000000000000000000000000000000000000815260040161278790614ce6565b60405180910390fd5b60008060019054906101000a900460ff1615905080156127e0576001600060016101000a81548160ff02191690831515021790555060016000806101000a81548160ff0219169083151502179055505b6127ea60ca61320a565b600160cb819055506128666040518060400160405280600f81526020017f50686c6f7465204375726174696f6e00000000000000000000000000000000008152506040518060400160405280600681526020017f50484c4f54450000000000000000000000000000000000000000000000000000815250613769565b80156128875760008060016101000a81548160ff0219169083151502179055505b50565b6000609760009054906101000a900473ffffffffffffffffffffffffffffffffffffffff16905090565b6060606680546128c39061518d565b80601f01602080910402602001604051908101604052809291908181526020018280546128ef9061518d565b801561293c5780601f106129115761010080835404028352916020019161293c565b820191906000526020600020905b81548152906001019060200180831161291f57829003601f168201915b5050505050905090565b60c95481565b61295e61295761328c565b83836137c6565b5050565b61297361296d61328c565b8361334d565b6129b2576040517f08c379a00000000000000000000000000000000000000000000000000000000081526004016129a990614d86565b60405180910390fd5b6129be84848484613933565b50505050565b6060600060cd600060d1600086815260200190815260200160002054815260200190815260200160002060405180610180016040529081600082015481526020016001820160009054906101000a900473ffffffffffffffffffffffffffffffffffffffff1673ffffffffffffffffffffffffffffffffffffffff1673ffffffffffffffffffffffffffffffffffffffff1681526020016002820160009054906101000a900473ffffffffffffffffffffffffffffffffffffffff1673ffffffffffffffffffffffffffffffffffffffff1673ffffffffffffffffffffffffffffffffffffffff168152602001600382018054612ac09061518d565b80601f0160208091040260200160405190810160405280929190818152602001828054612aec9061518d565b8015612b395780601f10612b0e57610100808354040283529160200191612b39565b820191906000526020600020905b815481529060010190602001808311612b1c57829003601f168201915b50505050508152602001600482018054612b529061518d565b80601f0160208091040260200160405190810160405280929190818152602001828054612b7e9061518d565b8015612bcb5780601f10612ba057610100808354040283529160200191612bcb565b820191906000526020600020905b815481529060010190602001808311612bae57829003601f168201915b5050505050815260200160058201805480602002602001604051908101604052809291908181526020016000905b82821015612ca5578382906000526020600020018054612c189061518d565b80601f0160208091040260200160405190810160405280929190818152602001828054612c449061518d565b8015612c915780601f10612c6657610100808354040283529160200191612c91565b820191906000526020600020905b815481529060010190602001808311612c7457829003601f168201915b505050505081526020019060010190612bf9565b505050508152602001600682018054612cbd9061518d565b80601f0160208091040260200160405190810160405280929190818152602001828054612ce99061518d565b8015612d365780601f10612d0b57610100808354040283529160200191612d36565b820191906000526020600020905b815481529060010190602001808311612d1957829003601f168201915b50505050508152602001600782018054612d4f9061518d565b80601f0160208091040260200160405190810160405280929190818152602001828054612d7b9061518d565b8015612dc85780601f10612d9d57610100808354040283529160200191612dc8565b820191906000526020600020905b815481529060010190602001808311612dab57829003601f168201915b50505050508152602001600882018054612de19061518d565b80601f0160208091040260200160405190810160405280929190818152602001828054612e0d9061518d565b8015612e5a5780601f10612e2f57610100808354040283529160200191612e5a565b820191906000526020600020905b815481529060010190602001808311612e3d57829003601f168201915b5050505050815260200160098201548152602001600a82018054612e7d9061518d565b80601f0160208091040260200160405190810160405280929190818152602001828054612ea99061518d565b8015612ef65780601f10612ecb57610100808354040283529160200191612ef6565b820191906000526020600020905b815481529060010190602001808311612ed957829003601f168201915b50505050508152602001600b820154815250509050806101400151915050919050565b60d06020528060005260406000206000915090505481565b60d16020528060005260406000206000915090505481565b6000606a60008473ffffffffffffffffffffffffffffffffffffffff1673ffffffffffffffffffffffffffffffffffffffff16815260200190815260200160002060008373ffffffffffffffffffffffffffffffffffffffff1673ffffffffffffffffffffffffffffffffffffffff16815260200190815260200160002060009054906101000a900460ff16905092915050565b612fe561328c565b73ffffffffffffffffffffffffffffffffffffffff1661300361288a565b73ffffffffffffffffffffffffffffffffffffffff1614613059576040517f08c379a000000000000000000000000000000000000000000000000000000000815260040161305090614d46565b60405180910390fd5b600073ffffffffffffffffffffffffffffffffffffffff168173ffffffffffffffffffffffffffffffffffffffff1614156130c9576040517f08c379a00000000000000000000000000000000000000000000000000000000081526004016130c090614bc6565b60405180910390fd5b6130d281613692565b50565b60007f01ffc9a7000000000000000000000000000000000000000000000000000000007bffffffffffffffffffffffffffffffffffffffffffffffffffffffff1916827bffffffffffffffffffffffffffffffffffffffffffffffffffffffff1916149050919050565b600081600001549050919050565b61316782826040518060200160405280600081525061398f565b5050565b61320583838360405160240161318393929190614b61565b6040516020818303038152906040527ff362ca59000000000000000000000000000000000000000000000000000000007bffffffffffffffffffffffffffffffffffffffffffffffffffffffff19166020820180517bffffffffffffffffffffffffffffffffffffffffffffffffffffffff83818316178352505050506139ea565b505050565b6001816000016000828254019250508190555050565b60008073ffffffffffffffffffffffffffffffffffffffff166067600084815260200190815260200160002060009054906101000a900473ffffffffffffffffffffffffffffffffffffffff1673ffffffffffffffffffffffffffffffffffffffff1614159050919050565b600033905090565b816069600083815260200190815260200160002060006101000a81548173ffffffffffffffffffffffffffffffffffffffff021916908373ffffffffffffffffffffffffffffffffffffffff160217905550808273ffffffffffffffffffffffffffffffffffffffff1661330783611f05565b73ffffffffffffffffffffffffffffffffffffffff167f8c5be1e5ebec7d5bd14f71427d1e84f3dd0314c0f7b2291e5b200ac8c7c3b92560405160405180910390a45050565b600061335882613220565b613397576040517f08c379a000000000000000000000000000000000000000000000000000000000815260040161338e90614c66565b60405180910390fd5b60006133a283611f05565b90508073ffffffffffffffffffffffffffffffffffffffff168473ffffffffffffffffffffffffffffffffffffffff16148061341157508373ffffffffffffffffffffffffffffffffffffffff166133f984610a1a565b73ffffffffffffffffffffffffffffffffffffffff16145b8061342257506134218185612f49565b5b91505092915050565b8273ffffffffffffffffffffffffffffffffffffffff1661344b82611f05565b73ffffffffffffffffffffffffffffffffffffffff16146134a1576040517f08c379a000000000000000000000000000000000000000000000000000000000815260040161349890614be6565b60405180910390fd5b600073ffffffffffffffffffffffffffffffffffffffff168273ffffffffffffffffffffffffffffffffffffffff161415613511576040517f08c379a000000000000000000000000000000000000000000000000000000000815260040161350890614c26565b60405180910390fd5b61351c838383613a13565b613527600082613294565b6001606860008573ffffffffffffffffffffffffffffffffffffffff1673ffffffffffffffffffffffffffffffffffffffff168152602001908152602001600020600082825461357791906150a3565b925050819055506001606860008473ffffffffffffffffffffffffffffffffffffffff1673ffffffffffffffffffffffffffffffffffffffff16815260200190815260200160002060008282546135ce919061504d565b92505081905550816067600083815260200190815260200160002060006101000a81548173ffffffffffffffffffffffffffffffffffffffff021916908373ffffffffffffffffffffffffffffffffffffffff160217905550808273ffffffffffffffffffffffffffffffffffffffff168473ffffffffffffffffffffffffffffffffffffffff167fddf252ad1be2c89b69c2b068fc378daa952ba7f163c4a11628f55a4df523b3ef60405160405180910390a461368d838383613a18565b505050565b6000609760009054906101000a900473ffffffffffffffffffffffffffffffffffffffff16905081609760006101000a81548173ffffffffffffffffffffffffffffffffffffffff021916908373ffffffffffffffffffffffffffffffffffffffff1602179055508173ffffffffffffffffffffffffffffffffffffffff168173ffffffffffffffffffffffffffffffffffffffff167f8be0079c531659141344cd1fd0a4f28419497f9722a3daafe3b4186f6b6457e060405160405180910390a35050565b600061376330613a1d565b15905090565b600060019054906101000a900460ff166137b8576040517f08c379a00000000000000000000000000000000000000000000000000000000081526004016137af90614da6565b60405180910390fd5b6137c28282613a40565b5050565b8173ffffffffffffffffffffffffffffffffffffffff168373ffffffffffffffffffffffffffffffffffffffff161415613835576040517f08c379a000000000000000000000000000000000000000000000000000000000815260040161382c90614c46565b60405180910390fd5b80606a60008573ffffffffffffffffffffffffffffffffffffffff1673ffffffffffffffffffffffffffffffffffffffff16815260200190815260200160002060008473ffffffffffffffffffffffffffffffffffffffff1673ffffffffffffffffffffffffffffffffffffffff16815260200190815260200160002060006101000a81548160ff0219169083151502179055508173ffffffffffffffffffffffffffffffffffffffff168373ffffffffffffffffffffffffffffffffffffffff167f17307eab39ab6107e8899845ad3d59bd9653f200f220920489ca2b5937696c31836040516139269190614b24565b60405180910390a3505050565b61393e84848461342b565b61394a84848484613ac1565b613989576040517f08c379a000000000000000000000000000000000000000000000000000000000815260040161398090614ba6565b60405180910390fd5b50505050565b6139998383613c58565b6139a66000848484613ac1565b6139e5576040517f08c379a00000000000000000000000000000000000000000000000000000000081526004016139dc90614ba6565b60405180910390fd5b505050565b60008151905060006a636f6e736f6c652e6c6f679050602083016000808483855afa5050505050565b505050565b505050565b6000808273ffffffffffffffffffffffffffffffffffffffff163b119050919050565b600060019054906101000a900460ff16613a8f576040517f08c379a0000000000000000000000000000000000000000000000000000000008152600401613a8690614da6565b60405180910390fd5b8160659080519060200190613aa5929190613e32565b508060669080519060200190613abc929190613e32565b505050565b6000613ae28473ffffffffffffffffffffffffffffffffffffffff16613a1d565b15613c4b578373ffffffffffffffffffffffffffffffffffffffff1663150b7a02613b0b61328c565b8786866040518563ffffffff1660e01b8152600401613b2d9493929190614ab6565b602060405180830381600087803b158015613b4757600080fd5b505af1925050508015613b7857506040513d601f19601f82011682018060405250810190613b7591906144c0565b60015b613bfb573d8060008114613ba8576040519150601f19603f3d011682016040523d82523d6000602084013e613bad565b606091505b50600081511415613bf3576040517f08c379a0000000000000000000000000000000000000000000000000000000008152600401613bea90614ba6565b60405180910390fd5b805181602001fd5b63150b7a0260e01b7bffffffffffffffffffffffffffffffffffffffffffffffffffffffff1916817bffffffffffffffffffffffffffffffffffffffffffffffffffffffff191614915050613c50565b600190505b949350505050565b600073ffffffffffffffffffffffffffffffffffffffff168273ffffffffffffffffffffffffffffffffffffffff161415613cc8576040517f08c379a0000000000000000000000000000000000000000000000000000000008152600401613cbf90614d06565b60405180910390fd5b613cd181613220565b15613d11576040517f08c379a0000000000000000000000000000000000000000000000000000000008152600401613d0890614c06565b60405180910390fd5b613d1d60008383613a13565b6001606860008473ffffffffffffffffffffffffffffffffffffffff1673ffffffffffffffffffffffffffffffffffffffff1681526020019081526020016000206000828254613d6d919061504d565b92505081905550816067600083815260200190815260200160002060006101000a81548173ffffffffffffffffffffffffffffffffffffffff021916908373ffffffffffffffffffffffffffffffffffffffff160217905550808273ffffffffffffffffffffffffffffffffffffffff16600073ffffffffffffffffffffffffffffffffffffffff167fddf252ad1be2c89b69c2b068fc378daa952ba7f163c4a11628f55a4df523b3ef60405160405180910390a4613e2e60008383613a18565b5050565b828054613e3e9061518d565b90600052602060002090601f016020900481019282613e605760008555613ea7565b82601f10613e7957805160ff1916838001178555613ea7565b82800160010185558215613ea7579182015b82811115613ea6578251825591602001919060010190613e8b565b5b509050613eb49190613f18565b5090565b828054828255906000526020600020908101928215613f07579160200282015b82811115613f06578251829080519060200190613ef6929190613e32565b5091602001919060010190613ed8565b5b509050613f149190613f35565b5090565b5b80821115613f31576000816000905550600101613f19565b5090565b5b80821115613f555760008181613f4c9190613f59565b50600101613f36565b5090565b508054613f659061518d565b6000825580601f10613f775750613f96565b601f016020900490600052602060002090810190613f959190613f18565b5b50565b6000613fac613fa784614f04565b614edf565b90508083825260208201905082856020860282011115613fcb57600080fd5b60005b8581101561401557813567ffffffffffffffff811115613fed57600080fd5b808601613ffa8982614143565b85526020850194506020840193505050600181019050613fce565b5050509392505050565b600061403261402d84614f30565b614edf565b90508281526020810184848401111561404a57600080fd5b61405584828561514b565b509392505050565b600061407061406b84614f61565b614edf565b90508281526020810184848401111561408857600080fd5b61409384828561514b565b509392505050565b6000813590506140aa8161577e565b92915050565b600082601f8301126140c157600080fd5b81356140d1848260208601613f99565b91505092915050565b6000813590506140e981615795565b92915050565b6000813590506140fe816157ac565b92915050565b600081519050614113816157ac565b92915050565b600082601f83011261412a57600080fd5b813561413a84826020860161401f565b91505092915050565b600082601f83011261415457600080fd5b813561416484826020860161405d565b91505092915050565b60008135905061417c816157c3565b92915050565b60006020828403121561419457600080fd5b60006141a28482850161409b565b91505092915050565b600080604083850312156141be57600080fd5b60006141cc8582860161409b565b92505060206141dd8582860161409b565b9150509250929050565b6000806000606084860312156141fc57600080fd5b600061420a8682870161409b565b935050602061421b8682870161409b565b925050604061422c8682870161416d565b9150509250925092565b6000806000806080858703121561424c57600080fd5b600061425a8782880161409b565b945050602061426b8782880161409b565b935050604061427c8782880161416d565b925050606085013567ffffffffffffffff81111561429957600080fd5b6142a587828801614119565b91505092959194509250565b600080604083850312156142c457600080fd5b60006142d28582860161409b565b92505060206142e3858286016140da565b9150509250929050565b60008060008060008060008060006101208a8c03121561430c57600080fd5b600061431a8c828d0161409b565b99505060208a013567ffffffffffffffff81111561433757600080fd5b6143438c828d01614143565b98505060408a013567ffffffffffffffff81111561436057600080fd5b61436c8c828d01614143565b97505060608a013567ffffffffffffffff81111561438957600080fd5b6143958c828d016140b0565b96505060808a013567ffffffffffffffff8111156143b257600080fd5b6143be8c828d01614143565b95505060a06143cf8c828d0161409b565b94505060c08a013567ffffffffffffffff8111156143ec57600080fd5b6143f88c828d01614143565b93505060e08a013567ffffffffffffffff81111561441557600080fd5b6144218c828d01614143565b9250506101008a013567ffffffffffffffff81111561443f57600080fd5b61444b8c828d01614143565b9150509295985092959850929598565b6000806040838503121561446e57600080fd5b600061447c8582860161409b565b925050602061448d8582860161416d565b9150509250929050565b6000602082840312156144a957600080fd5b60006144b7848285016140ef565b91505092915050565b6000602082840312156144d257600080fd5b60006144e084828501614104565b91505092915050565b6000602082840312156144fb57600080fd5b60006145098482850161416d565b91505092915050565b600061451e838361468a565b905092915050565b6000614532838361494f565b905092915050565b614543816150d7565b82525050565b614552816150d7565b82525050565b600061456382614fb2565b61456d8185614ff8565b93508360208202850161457f85614f92565b8060005b858110156145bb578484038952815161459c8582614512565b94506145a783614fde565b925060208a01995050600181019050614583565b50829750879550505050505092915050565b60006145d882614fbd565b6145e28185615009565b9350836020820285016145f485614fa2565b8060005b8581101561463057848403895281516146118582614526565b945061461c83614feb565b925060208a019950506001810190506145f8565b50829750879550505050505092915050565b61464b816150e9565b82525050565b600061465c82614fc8565b614666818561501a565b935061467681856020860161515a565b61467f816152c6565b840191505092915050565b600061469582614fd3565b61469f818561502b565b93506146af81856020860161515a565b6146b8816152c6565b840191505092915050565b60006146ce82614fd3565b6146d8818561503c565b93506146e881856020860161515a565b6146f1816152c6565b840191505092915050565b600061470960328361503c565b9150614714826152d7565b604082019050919050565b600061472c60268361503c565b915061473782615326565b604082019050919050565b600061474f60258361503c565b915061475a82615375565b604082019050919050565b6000614772601c8361503c565b915061477d826153c4565b602082019050919050565b600061479560248361503c565b91506147a0826153ed565b604082019050919050565b60006147b860198361503c565b91506147c38261543c565b602082019050919050565b60006147db602c8361503c565b91506147e682615465565b604082019050919050565b60006147fe60388361503c565b9150614809826154b4565b604082019050919050565b6000614821602a8361503c565b915061482c82615503565b604082019050919050565b600061484460298361503c565b915061484f82615552565b604082019050919050565b6000614867602e8361503c565b9150614872826155a1565b604082019050919050565b600061488a60208361503c565b9150614895826155f0565b602082019050919050565b60006148ad602c8361503c565b91506148b882615619565b604082019050919050565b60006148d060208361503c565b91506148db82615668565b602082019050919050565b60006148f360218361503c565b91506148fe82615691565b604082019050919050565b600061491660318361503c565b9150614921826156e0565b604082019050919050565b6000614939602b8361503c565b91506149448261572f565b604082019050919050565b6000610180830160008301516149686000860182614a7d565b50602083015161497b602086018261453a565b50604083015161498e604086018261453a565b50606083015184820360608601526149a6828261468a565b915050608083015184820360808601526149c0828261468a565b91505060a083015184820360a08601526149da8282614558565b91505060c083015184820360c08601526149f4828261468a565b91505060e083015184820360e0860152614a0e828261468a565b915050610100830151848203610100860152614a2a828261468a565b915050610120830151614a41610120860182614a7d565b50610140830151848203610140860152614a5b828261468a565b915050610160830151614a72610160860182614a7d565b508091505092915050565b614a8681615141565b82525050565b614a9581615141565b82525050565b6000602082019050614ab06000830184614549565b92915050565b6000608082019050614acb6000830187614549565b614ad86020830186614549565b614ae56040830185614a8c565b8181036060830152614af78184614651565b905095945050505050565b60006020820190508181036000830152614b1c81846145cd565b905092915050565b6000602082019050614b396000830184614642565b92915050565b60006020820190508181036000830152614b5981846146c3565b905092915050565b60006060820190508181036000830152614b7b81866146c3565b90508181036020830152614b8f81856146c3565b9050614b9e6040830184614a8c565b949350505050565b60006020820190508181036000830152614bbf816146fc565b9050919050565b60006020820190508181036000830152614bdf8161471f565b9050919050565b60006020820190508181036000830152614bff81614742565b9050919050565b60006020820190508181036000830152614c1f81614765565b9050919050565b60006020820190508181036000830152614c3f81614788565b9050919050565b60006020820190508181036000830152614c5f816147ab565b9050919050565b60006020820190508181036000830152614c7f816147ce565b9050919050565b60006020820190508181036000830152614c9f816147f1565b9050919050565b60006020820190508181036000830152614cbf81614814565b9050919050565b60006020820190508181036000830152614cdf81614837565b9050919050565b60006020820190508181036000830152614cff8161485a565b9050919050565b60006020820190508181036000830152614d1f8161487d565b9050919050565b60006020820190508181036000830152614d3f816148a0565b9050919050565b60006020820190508181036000830152614d5f816148c3565b9050919050565b60006020820190508181036000830152614d7f816148e6565b9050919050565b60006020820190508181036000830152614d9f81614909565b9050919050565b60006020820190508181036000830152614dbf8161492c565b9050919050565b6000602082019050614ddb6000830184614a8c565b92915050565b600061016082019050614df7600083018e614a8c565b614e04602083018d614549565b614e11604083018c614549565b8181036060830152614e23818b6146c3565b90508181036080830152614e37818a6146c3565b905081810360a0830152614e4b81896146c3565b905081810360c0830152614e5f81886146c3565b905081810360e0830152614e7381876146c3565b9050614e83610100830186614a8c565b818103610120830152614e9681856146c3565b9050614ea6610140830184614a8c565b9c9b505050505050505050505050565b6000604082019050614ecb6000830185614a8c565b614ed86020830184614a8c565b9392505050565b6000614ee9614efa565b9050614ef582826151bf565b919050565b6000604051905090565b600067ffffffffffffffff821115614f1f57614f1e615297565b5b602082029050602081019050919050565b600067ffffffffffffffff821115614f4b57614f4a615297565b5b614f54826152c6565b9050602081019050919050565b600067ffffffffffffffff821115614f7c57614f7b615297565b5b614f85826152c6565b9050602081019050919050565b6000819050602082019050919050565b6000819050602082019050919050565b600081519050919050565b600081519050919050565b600081519050919050565b600081519050919050565b6000602082019050919050565b6000602082019050919050565b600082825260208201905092915050565b600082825260208201905092915050565b600082825260208201905092915050565b600082825260208201905092915050565b600082825260208201905092915050565b600061505882615141565b915061506383615141565b9250827fffffffffffffffffffffffffffffffffffffffffffffffffffffffffffffffff0382111561509857615097615239565b5b828201905092915050565b60006150ae82615141565b91506150b983615141565b9250828210156150cc576150cb615239565b5b828203905092915050565b60006150e282615121565b9050919050565b60008115159050919050565b60007fffffffff0000000000000000000000000000000000000000000000000000000082169050919050565b600073ffffffffffffffffffffffffffffffffffffffff82169050919050565b6000819050919050565b82818337600083830152505050565b60005b8381101561517857808201518184015260208101905061515d565b83811115615187576000848401525b50505050565b600060028204905060018216806151a557607f821691505b602082108114156151b9576151b8615268565b5b50919050565b6151c8826152c6565b810181811067ffffffffffffffff821117156151e7576151e6615297565b5b80604052505050565b60006151fb82615141565b91507fffffffffffffffffffffffffffffffffffffffffffffffffffffffffffffffff82141561522e5761522d615239565b5b600182019050919050565b7f4e487b7100000000000000000000000000000000000000000000000000000000600052601160045260246000fd5b7f4e487b7100000000000000000000000000000000000000000000000000000000600052602260045260246000fd5b7f4e487b7100000000000000000000000000000000000000000000000000000000600052604160045260246000fd5b6000601f19601f8301169050919050565b7f4552433732313a207472616e7366657220746f206e6f6e20455243373231526560008201527f63656976657220696d706c656d656e7465720000000000000000000000000000602082015250565b7f4f776e61626c653a206e6577206f776e657220697320746865207a65726f206160008201527f6464726573730000000000000000000000000000000000000000000000000000602082015250565b7f4552433732313a207472616e736665722066726f6d20696e636f72726563742060008201527f6f776e6572000000000000000000000000000000000000000000000000000000602082015250565b7f4552433732313a20746f6b656e20616c7265616479206d696e74656400000000600082015250565b7f4552433732313a207472616e7366657220746f20746865207a65726f2061646460008201527f7265737300000000000000000000000000000000000000000000000000000000602082015250565b7f4552433732313a20617070726f766520746f2063616c6c657200000000000000600082015250565b7f4552433732313a206f70657261746f7220717565727920666f72206e6f6e657860008201527f697374656e7420746f6b656e0000000000000000000000000000000000000000602082015250565b7f4552433732313a20617070726f76652063616c6c6572206973206e6f74206f7760008201527f6e6572206e6f7220617070726f76656420666f7220616c6c0000000000000000602082015250565b7f4552433732313a2062616c616e636520717565727920666f7220746865207a6560008201527f726f206164647265737300000000000000000000000000000000000000000000602082015250565b7f4552433732313a206f776e657220717565727920666f72206e6f6e657869737460008201527f656e7420746f6b656e0000000000000000000000000000000000000000000000602082015250565b7f496e697469616c697a61626c653a20636f6e747261637420697320616c72656160008201527f647920696e697469616c697a6564000000000000000000000000000000000000602082015250565b7f4552433732313a206d696e7420746f20746865207a65726f2061646472657373600082015250565b7f4552433732313a20617070726f76656420717565727920666f72206e6f6e657860008201527f697374656e7420746f6b656e0000000000000000000000000000000000000000602082015250565b7f4f776e61626c653a2063616c6c6572206973206e6f7420746865206f776e6572600082015250565b7f4552433732313a20617070726f76616c20746f2063757272656e74206f776e6560008201527f7200000000000000000000000000000000000000000000000000000000000000602082015250565b7f4552433732313a207472616e736665722063616c6c6572206973206e6f74206f60008201527f776e6572206e6f7220617070726f766564000000000000000000000000000000602082015250565b7f496e697469616c697a61626c653a20636f6e7472616374206973206e6f74206960008201527f6e697469616c697a696e67000000000000000000000000000000000000000000602082015250565b615787816150d7565b811461579257600080fd5b50565b61579e816150e9565b81146157a957600080fd5b50565b6157b5816150f5565b81146157c057600080fd5b50565b6157cc81615141565b81146157d757600080fd5b5056fe2a2a2a2a2a2a4d696e746564202573204e465420772f20746f6b656e4964202573202a2a2a2a2a2aa2646970667358221220e72d99146b7e47ac925191a813f11b7b8ff8351ada429c7ce0f44c295fabe3bf64736f6c63430008040033",
  "linkReferences": {},
  "deployedLinkReferences": {}
}