{
  "_format": "hh-sol-artifact-1",
  "contractName": "Phlote",
  "sourceName": "contracts/Phlote.sol",
  "abi": [
    {
      "anonymous": false,
      "inputs": [
        {
          "indexed": true,
          "internalType": "address",
          "name": "owner",
          "type": "address"
        },
        {
          "indexed": true,
          "internalType": "address",
          "name": "approved",
          "type": "address"
        },
        {
          "indexed": true,
          "internalType": "uint256",
          "name": "tokenId",
          "type": "uint256"
        }
      ],
      "name": "Approval",
      "type": "event"
    },
    {
      "anonymous": false,
      "inputs": [
        {
          "indexed": true,
          "internalType": "address",
          "name": "owner",
          "type": "address"
        },
        {
          "indexed": true,
          "internalType": "address",
          "name": "operator",
          "type": "address"
        },
        {
          "indexed": false,
          "internalType": "bool",
          "name": "approved",
          "type": "bool"
        }
      ],
      "name": "ApprovalForAll",
      "type": "event"
    },
    {
      "anonymous": false,
      "inputs": [
        {
          "indexed": false,
          "internalType": "address",
          "name": "cosigner",
          "type": "address"
        },
        {
          "indexed": true,
          "internalType": "uint256",
          "name": "editionId",
          "type": "uint256"
        }
      ],
      "name": "EditionCosigned",
      "type": "event"
    },
    {
      "anonymous": false,
      "inputs": [
        {
          "indexed": false,
          "internalType": "address",
          "name": "sender",
          "type": "address"
        },
        {
          "indexed": true,
          "internalType": "uint256",
          "name": "editionId",
          "type": "uint256"
        }
      ],
      "name": "EditionCreated",
      "type": "event"
    },
    {
      "anonymous": false,
      "inputs": [
        {
          "indexed": true,
          "internalType": "address",
          "name": "buyer",
          "type": "address"
        },
        {
          "indexed": false,
          "internalType": "uint256",
          "name": "tokenId",
          "type": "uint256"
        },
        {
          "indexed": false,
          "internalType": "uint256",
          "name": "numSold",
          "type": "uint256"
        }
      ],
      "name": "EditionMinted",
      "type": "event"
    },
    {
      "anonymous": false,
      "inputs": [
        {
          "indexed": true,
          "internalType": "address",
          "name": "previousOwner",
          "type": "address"
        },
        {
          "indexed": true,
          "internalType": "address",
          "name": "newOwner",
          "type": "address"
        }
      ],
      "name": "OwnershipTransferred",
      "type": "event"
    },
    {
      "anonymous": false,
      "inputs": [
        {
          "indexed": true,
          "internalType": "address",
          "name": "from",
          "type": "address"
        },
        {
          "indexed": true,
          "internalType": "address",
          "name": "to",
          "type": "address"
        },
        {
          "indexed": true,
          "internalType": "uint256",
          "name": "tokenId",
          "type": "uint256"
        }
      ],
      "name": "Transfer",
      "type": "event"
    },
    {
      "inputs": [
        {
          "internalType": "address",
          "name": "to",
          "type": "address"
        },
        {
          "internalType": "uint256",
          "name": "tokenId",
          "type": "uint256"
        }
      ],
      "name": "approve",
      "outputs": [],
      "stateMutability": "nonpayable",
      "type": "function"
    },
    {
      "inputs": [
        {
          "internalType": "address",
          "name": "owner",
          "type": "address"
        }
      ],
      "name": "balanceOf",
      "outputs": [
        {
          "internalType": "uint256",
          "name": "",
          "type": "uint256"
        }
      ],
      "stateMutability": "view",
      "type": "function"
    },
    {
      "inputs": [],
      "name": "contractPrice",
      "outputs": [
        {
          "internalType": "uint256",
          "name": "",
          "type": "uint256"
        }
      ],
      "stateMutability": "view",
      "type": "function"
    },
    {
      "inputs": [
        {
          "internalType": "uint256",
          "name": "editionId",
          "type": "uint256"
        }
      ],
      "name": "cosign",
      "outputs": [],
      "stateMutability": "payable",
      "type": "function"
    },
    {
      "inputs": [
        {
          "internalType": "address",
          "name": "",
          "type": "address"
        },
        {
          "internalType": "uint256",
          "name": "",
          "type": "uint256"
        }
      ],
      "name": "curatorSubmissions",
      "outputs": [
        {
          "internalType": "uint256",
          "name": "id",
          "type": "uint256"
        },
        {
          "internalType": "address",
          "name": "curatorWallet",
          "type": "address"
        },
        {
          "internalType": "address",
          "name": "artistWallet",
          "type": "address"
        },
        {
          "internalType": "string",
          "name": "mediaURI",
          "type": "string"
        },
        {
          "internalType": "string",
          "name": "marketplace",
          "type": "string"
        },
        {
          "internalType": "string",
          "name": "artistName",
          "type": "string"
        },
        {
          "internalType": "string",
          "name": "mediaType",
          "type": "string"
        },
        {
          "internalType": "string",
          "name": "mediaTitle",
          "type": "string"
        },
        {
          "internalType": "uint256",
          "name": "numSold",
          "type": "uint256"
        },
        {
          "internalType": "string",
          "name": "tokenURI",
          "type": "string"
        },
        {
          "internalType": "uint256",
          "name": "submissionTime",
          "type": "uint256"
        }
      ],
      "stateMutability": "view",
      "type": "function"
    },
    {
      "inputs": [
        {
          "internalType": "uint256",
          "name": "",
          "type": "uint256"
        },
        {
          "internalType": "uint256",
          "name": "",
          "type": "uint256"
        }
      ],
      "name": "editionIdToCosigns",
      "outputs": [
        {
          "internalType": "address",
          "name": "",
          "type": "address"
        }
      ],
      "stateMutability": "view",
      "type": "function"
    },
    {
      "inputs": [
        {
          "internalType": "uint256",
          "name": "",
          "type": "uint256"
        }
      ],
      "name": "editions",
      "outputs": [
        {
          "internalType": "uint256",
          "name": "id",
          "type": "uint256"
        },
        {
          "internalType": "address",
          "name": "curatorWallet",
          "type": "address"
        },
        {
          "internalType": "address",
          "name": "artistWallet",
          "type": "address"
        },
        {
          "internalType": "string",
          "name": "mediaURI",
          "type": "string"
        },
        {
          "internalType": "string",
          "name": "marketplace",
          "type": "string"
        },
        {
          "internalType": "string",
          "name": "artistName",
          "type": "string"
        },
        {
          "internalType": "string",
          "name": "mediaType",
          "type": "string"
        },
        {
          "internalType": "string",
          "name": "mediaTitle",
          "type": "string"
        },
        {
          "internalType": "uint256",
          "name": "numSold",
          "type": "uint256"
        },
        {
          "internalType": "string",
          "name": "tokenURI",
          "type": "string"
        },
        {
          "internalType": "uint256",
          "name": "submissionTime",
          "type": "uint256"
        }
      ],
      "stateMutability": "view",
      "type": "function"
    },
    {
      "inputs": [],
      "name": "getAllCurations",
      "outputs": [
        {
          "components": [
            {
              "internalType": "uint256",
              "name": "id",
              "type": "uint256"
            },
            {
              "internalType": "address",
              "name": "curatorWallet",
              "type": "address"
            },
            {
              "internalType": "address",
              "name": "artistWallet",
              "type": "address"
            },
            {
              "internalType": "string",
              "name": "mediaURI",
              "type": "string"
            },
            {
              "internalType": "string",
              "name": "marketplace",
              "type": "string"
            },
            {
              "internalType": "string[]",
              "name": "tags",
              "type": "string[]"
            },
            {
              "internalType": "string",
              "name": "artistName",
              "type": "string"
            },
            {
              "internalType": "string",
              "name": "mediaType",
              "type": "string"
            },
            {
              "internalType": "string",
              "name": "mediaTitle",
              "type": "string"
            },
            {
              "internalType": "uint256",
              "name": "numSold",
              "type": "uint256"
            },
            {
              "internalType": "string",
              "name": "tokenURI",
              "type": "string"
            },
            {
              "internalType": "uint256",
              "name": "submissionTime",
              "type": "uint256"
            }
          ],
          "internalType": "struct Phlote.Edition[]",
          "name": "",
          "type": "tuple[]"
        }
      ],
      "stateMutability": "view",
      "type": "function"
    },
    {
      "inputs": [
        {
          "internalType": "uint256",
          "name": "tokenId",
          "type": "uint256"
        }
      ],
      "name": "getApproved",
      "outputs": [
        {
          "internalType": "address",
          "name": "",
          "type": "address"
        }
      ],
      "stateMutability": "view",
      "type": "function"
    },
    {
      "inputs": [
        {
          "internalType": "address",
          "name": "_curatorWallet",
          "type": "address"
        }
      ],
      "name": "getCuratorSubmissions",
      "outputs": [
        {
          "components": [
            {
              "internalType": "uint256",
              "name": "id",
              "type": "uint256"
            },
            {
              "internalType": "address",
              "name": "curatorWallet",
              "type": "address"
            },
            {
              "internalType": "address",
              "name": "artistWallet",
              "type": "address"
            },
            {
              "internalType": "string",
              "name": "mediaURI",
              "type": "string"
            },
            {
              "internalType": "string",
              "name": "marketplace",
              "type": "string"
            },
            {
              "internalType": "string[]",
              "name": "tags",
              "type": "string[]"
            },
            {
              "internalType": "string",
              "name": "artistName",
              "type": "string"
            },
            {
              "internalType": "string",
              "name": "mediaType",
              "type": "string"
            },
            {
              "internalType": "string",
              "name": "mediaTitle",
              "type": "string"
            },
            {
              "internalType": "uint256",
              "name": "numSold",
              "type": "uint256"
            },
            {
              "internalType": "string",
              "name": "tokenURI",
              "type": "string"
            },
            {
              "internalType": "uint256",
              "name": "submissionTime",
              "type": "uint256"
            }
          ],
          "internalType": "struct Phlote.Edition[]",
          "name": "",
          "type": "tuple[]"
        }
      ],
      "stateMutability": "view",
      "type": "function"
    },
    {
      "inputs": [],
      "name": "initialize",
      "outputs": [],
      "stateMutability": "nonpayable",
      "type": "function"
    },
    {
      "inputs": [
        {
          "internalType": "address",
          "name": "owner",
          "type": "address"
        },
        {
          "internalType": "address",
          "name": "operator",
          "type": "address"
        }
      ],
      "name": "isApprovedForAll",
      "outputs": [
        {
          "internalType": "bool",
          "name": "",
          "type": "bool"
        }
      ],
      "stateMutability": "view",
      "type": "function"
    },
    {
      "inputs": [
        {
          "internalType": "uint256",
          "name": "editionId",
          "type": "uint256"
        }
      ],
      "name": "mintEdition",
      "outputs": [],
      "stateMutability": "payable",
      "type": "function"
    },
    {
      "inputs": [],
      "name": "name",
      "outputs": [
        {
          "internalType": "string",
          "name": "",
          "type": "string"
        }
      ],
      "stateMutability": "view",
      "type": "function"
    },
    {
      "inputs": [
        {
          "internalType": "address",
          "name": "",
          "type": "address"
        }
      ],
      "name": "nftHolders",
      "outputs": [
        {
          "internalType": "uint256",
          "name": "",
          "type": "uint256"
        }
      ],
      "stateMutability": "view",
      "type": "function"
    },
    {
      "inputs": [],
      "name": "owner",
      "outputs": [
        {
          "internalType": "address",
          "name": "",
          "type": "address"
        }
      ],
      "stateMutability": "view",
      "type": "function"
    },
    {
      "inputs": [
        {
          "internalType": "uint256",
          "name": "tokenId",
          "type": "uint256"
        }
      ],
      "name": "ownerOf",
      "outputs": [
        {
          "internalType": "address",
          "name": "",
          "type": "address"
        }
      ],
      "stateMutability": "view",
      "type": "function"
    },
    {
      "inputs": [],
      "name": "renounceOwnership",
      "outputs": [],
      "stateMutability": "nonpayable",
      "type": "function"
    },
    {
      "inputs": [
        {
          "internalType": "address",
          "name": "from",
          "type": "address"
        },
        {
          "internalType": "address",
          "name": "to",
          "type": "address"
        },
        {
          "internalType": "uint256",
          "name": "tokenId",
          "type": "uint256"
        }
      ],
      "name": "safeTransferFrom",
      "outputs": [],
      "stateMutability": "nonpayable",
      "type": "function"
    },
    {
      "inputs": [
        {
          "internalType": "address",
          "name": "from",
          "type": "address"
        },
        {
          "internalType": "address",
          "name": "to",
          "type": "address"
        },
        {
          "internalType": "uint256",
          "name": "tokenId",
          "type": "uint256"
        },
        {
          "internalType": "bytes",
          "name": "_data",
          "type": "bytes"
        }
      ],
      "name": "safeTransferFrom",
      "outputs": [],
      "stateMutability": "nonpayable",
      "type": "function"
    },
    {
      "inputs": [
        {
          "internalType": "address",
          "name": "operator",
          "type": "address"
        },
        {
          "internalType": "bool",
          "name": "approved",
          "type": "bool"
        }
      ],
      "name": "setApprovalForAll",
      "outputs": [],
      "stateMutability": "nonpayable",
      "type": "function"
    },
    {
      "inputs": [
        {
          "internalType": "address",
          "name": "_curatorWallet",
          "type": "address"
        },
        {
          "internalType": "string",
          "name": "_mediaURI",
          "type": "string"
        },
        {
          "internalType": "string",
          "name": "_marketplace",
          "type": "string"
        },
        {
          "internalType": "string[]",
          "name": "_tags",
          "type": "string[]"
        },
        {
          "internalType": "string",
          "name": "_artistName",
          "type": "string"
        },
        {
          "internalType": "address",
          "name": "_artistWallet",
          "type": "address"
        },
        {
          "internalType": "string",
          "name": "_mediaType",
          "type": "string"
        },
        {
          "internalType": "string",
          "name": "_mediaTitle",
          "type": "string"
        },
        {
          "internalType": "string",
          "name": "_tokenURI",
          "type": "string"
        }
      ],
      "name": "submitPost",
      "outputs": [],
      "stateMutability": "nonpayable",
      "type": "function"
    },
    {
      "inputs": [
        {
          "internalType": "bytes4",
          "name": "interfaceId",
          "type": "bytes4"
        }
      ],
      "name": "supportsInterface",
      "outputs": [
        {
          "internalType": "bool",
          "name": "",
          "type": "bool"
        }
      ],
      "stateMutability": "view",
      "type": "function"
    },
    {
      "inputs": [],
      "name": "symbol",
      "outputs": [
        {
          "internalType": "string",
          "name": "",
          "type": "string"
        }
      ],
      "stateMutability": "view",
      "type": "function"
    },
    {
      "inputs": [
        {
          "internalType": "uint256",
          "name": "",
          "type": "uint256"
        }
      ],
      "name": "tokenToSong",
      "outputs": [
        {
          "internalType": "uint256",
          "name": "",
          "type": "uint256"
        }
      ],
      "stateMutability": "view",
      "type": "function"
    },
    {
      "inputs": [
        {
          "internalType": "uint256",
          "name": "_tokenId",
          "type": "uint256"
        }
      ],
      "name": "tokenURI",
      "outputs": [
        {
          "internalType": "string",
          "name": "",
          "type": "string"
        }
      ],
      "stateMutability": "view",
      "type": "function"
    },
    {
      "inputs": [
        {
          "internalType": "address",
          "name": "from",
          "type": "address"
        },
        {
          "internalType": "address",
          "name": "to",
          "type": "address"
        },
        {
          "internalType": "uint256",
          "name": "tokenId",
          "type": "uint256"
        }
      ],
      "name": "transferFrom",
      "outputs": [],
      "stateMutability": "nonpayable",
      "type": "function"
    },
    {
      "inputs": [
        {
          "internalType": "address",
          "name": "newOwner",
          "type": "address"
        }
      ],
      "name": "transferOwnership",
      "outputs": [],
      "stateMutability": "nonpayable",
      "type": "function"
    },
    {
      "inputs": [
        {
          "internalType": "uint256",
          "name": "",
          "type": "uint256"
        }
      ],
      "name": "withdrawnForEdition",
      "outputs": [
        {
          "internalType": "uint256",
          "name": "",
          "type": "uint256"
        }
      ],
      "stateMutability": "view",
      "type": "function"
    }
  ],
  "bytecode": "0x608060405234801561001057600080fd5b506159f080620000216000396000f3fe6080604052600436106101c25760003560e01c8063715018a6116100f757806397e9a0bf11610095578063d3bb052811610064578063d3bb052814610670578063e2b18d3f146106ad578063e985e9c5146106ea578063f2fde38b14610727576101c2565b806397e9a0bf146105b6578063a22cb465146105e1578063b88d4fde1461060a578063c87b56dd14610633576101c2565b80637f504fdf116100d15780637f504fdf1461052d5780638129fc1c146105495780638da5cb5b1461056057806395d89b411461058b576101c2565b8063715018a61461049c57806379f7e04a146104b35780637df124a1146104f0576101c2565b806323b872dd1161016457806353301ecf1161013e57806353301ecf146103bc5780636352211e146103f95780636b1658541461043657806370a082311461045f576101c2565b806323b872dd14610323578063279c806e1461034c57806342842e0e14610393576101c2565b8063081812fc116101a0578063081812fc1461024b578063095ea7b3146102885780631125c320146102b15780631cfbcd5b146102f8576101c2565b806301ffc9a7146101c757806305322b741461020457806306fdde0314610220575b600080fd5b3480156101d357600080fd5b506101ee60048036038101906101e99190614613565b610750565b6040516101fb9190614cdc565b60405180910390f35b61021e60048036038101906102199190614665565b610832565b005b34801561022c57600080fd5b50610235610a07565b6040516102429190614cf7565b60405180910390f35b34801561025757600080fd5b50610272600480360381019061026d9190614665565b610a99565b60405161027f9190614c53565b60405180910390f35b34801561029457600080fd5b506102af60048036038101906102aa91906145d7565b610b1e565b005b3480156102bd57600080fd5b506102d860048036038101906102d391906145d7565b610c36565b6040516102ef9b9a99989796959493929190614f99565b60405180910390f35b34801561030457600080fd5b5061030d61101d565b60405161031a9190614cba565b60405180910390f35b34801561032f57600080fd5b5061034a60048036038101906103459190614363565b61158c565b005b34801561035857600080fd5b50610373600480360381019061036e9190614665565b6115ec565b60405161038a9b9a99989796959493929190614f99565b60405180910390f35b34801561039f57600080fd5b506103ba60048036038101906103b59190614363565b6119b6565b005b3480156103c857600080fd5b506103e360048036038101906103de91906142fe565b6119d6565b6040516103f09190614cba565b60405180910390f35b34801561040557600080fd5b50610420600480360381019061041b9190614665565b611f84565b60405161042d9190614c53565b60405180910390f35b34801561044257600080fd5b5061045d60048036038101906104589190614469565b612036565b005b34801561046b57600080fd5b50610486600480360381019061048191906142fe565b612647565b6040516104939190614f7e565b60405180910390f35b3480156104a857600080fd5b506104b16126ff565b005b3480156104bf57600080fd5b506104da60048036038101906104d5919061468e565b612787565b6040516104e79190614c53565b60405180910390f35b3480156104fc57600080fd5b50610517600480360381019061051291906142fe565b6127d5565b6040516105249190614f7e565b60405180910390f35b61054760048036038101906105429190614665565b6127ed565b005b34801561055557600080fd5b5061055e61289c565b005b34801561056c57600080fd5b50610575612a06565b6040516105829190614c53565b60405180910390f35b34801561059757600080fd5b506105a0612a30565b6040516105ad9190614cf7565b60405180910390f35b3480156105c257600080fd5b506105cb612ac2565b6040516105d89190614f7e565b60405180910390f35b3480156105ed57600080fd5b506106086004803603810190610603919061442d565b612ac8565b005b34801561061657600080fd5b50610631600480360381019061062c91906143b2565b612ade565b005b34801561063f57600080fd5b5061065a60048036038101906106559190614665565b612b40565b6040516106679190614cf7565b60405180910390f35b34801561067c57600080fd5b5061069760048036038101906106929190614665565b613095565b6040516106a49190614f7e565b60405180910390f35b3480156106b957600080fd5b506106d460048036038101906106cf9190614665565b6130ad565b6040516106e19190614f7e565b60405180910390f35b3480156106f657600080fd5b50610711600480360381019061070c9190614327565b6130c5565b60405161071e9190614cdc565b60405180910390f35b34801561073357600080fd5b5061074e600480360381019061074991906142fe565b613159565b005b60007f80ac58cd000000000000000000000000000000000000000000000000000000007bffffffffffffffffffffffffffffffffffffffffffffffffffffffff1916827bffffffffffffffffffffffffffffffffffffffffffffffffffffffff1916148061081b57507f5b5e139f000000000000000000000000000000000000000000000000000000007bffffffffffffffffffffffffffffffffffffffffffffffffffffffff1916827bffffffffffffffffffffffffffffffffffffffffffffffffffffffff1916145b8061082b575061082a82613251565b5b9050919050565b600061083e60ca6132bb565b905061084a33826132c9565b61090b6040518060600160405280602881526020016159936028913960cd6000858152602001908152602001600020600801805461088790615345565b80601f01602080910402602001604051908101604052809291908181526020018280546108b390615345565b80156109005780601f106108d557610100808354040283529160200191610900565b820191906000526020600020905b8154815290600101906020018083116108e357829003601f168201915b5050505050836132e7565b8060ce60003373ffffffffffffffffffffffffffffffffffffffff1673ffffffffffffffffffffffffffffffffffffffff1681526020019081526020016000208190555061095960ca613386565b60cd60008381526020019081526020016000206009016000815480929190610980906153a8565b91905055508160d16000838152602001908152602001600020819055503373ffffffffffffffffffffffffffffffffffffffff167fe1b60c9e07632933648666e5ede8b3b329ddfa2ab98c51b1a5b4b22ab4f1349c8260cd6000868152602001908152602001600020600901546040516109fb92919061506e565b60405180910390a25050565b606060658054610a1690615345565b80601f0160208091040260200160405190810160405280929190818152602001828054610a4290615345565b8015610a8f5780601f10610a6457610100808354040283529160200191610a8f565b820191906000526020600020905b815481529060010190602001808311610a7257829003601f168201915b5050505050905090565b6000610aa48261339c565b610ae3576040517f08c379a0000000000000000000000000000000000000000000000000000000008152600401610ada90614ede565b60405180910390fd5b6069600083815260200190815260200160002060009054906101000a900473ffffffffffffffffffffffffffffffffffffffff169050919050565b6000610b2982611f84565b90508073ffffffffffffffffffffffffffffffffffffffff168373ffffffffffffffffffffffffffffffffffffffff161415610b9a576040517f08c379a0000000000000000000000000000000000000000000000000000000008152600401610b9190614f1e565b60405180910390fd5b8073ffffffffffffffffffffffffffffffffffffffff16610bb9613408565b73ffffffffffffffffffffffffffffffffffffffff161480610be85750610be781610be2613408565b6130c5565b5b610c27576040517f08c379a0000000000000000000000000000000000000000000000000000000008152600401610c1e90614e3e565b60405180910390fd5b610c318383613410565b505050565b60cf6020528160005260406000208181548110610c5257600080fd5b90600052602060002090600c0201600091509150508060000154908060010160009054906101000a900473ffffffffffffffffffffffffffffffffffffffff16908060020160009054906101000a900473ffffffffffffffffffffffffffffffffffffffff1690806003018054610cc890615345565b80601f0160208091040260200160405190810160405280929190818152602001828054610cf490615345565b8015610d415780601f10610d1657610100808354040283529160200191610d41565b820191906000526020600020905b815481529060010190602001808311610d2457829003601f168201915b505050505090806004018054610d5690615345565b80601f0160208091040260200160405190810160405280929190818152602001828054610d8290615345565b8015610dcf5780601f10610da457610100808354040283529160200191610dcf565b820191906000526020600020905b815481529060010190602001808311610db257829003601f168201915b505050505090806006018054610de490615345565b80601f0160208091040260200160405190810160405280929190818152602001828054610e1090615345565b8015610e5d5780601f10610e3257610100808354040283529160200191610e5d565b820191906000526020600020905b815481529060010190602001808311610e4057829003601f168201915b505050505090806007018054610e7290615345565b80601f0160208091040260200160405190810160405280929190818152602001828054610e9e90615345565b8015610eeb5780601f10610ec057610100808354040283529160200191610eeb565b820191906000526020600020905b815481529060010190602001808311610ece57829003601f168201915b505050505090806008018054610f0090615345565b80601f0160208091040260200160405190810160405280929190818152602001828054610f2c90615345565b8015610f795780601f10610f4e57610100808354040283529160200191610f79565b820191906000526020600020905b815481529060010190602001808311610f5c57829003601f168201915b50505050509080600901549080600a018054610f9490615345565b80601f0160208091040260200160405190810160405280929190818152602001828054610fc090615345565b801561100d5780601f10610fe25761010080835404028352916020019161100d565b820191906000526020600020905b815481529060010190602001808311610ff057829003601f168201915b50505050509080600b015490508b565b606060cc805480602002602001604051908101604052809291908181526020016000905b8282101561158357838290600052602060002090600c020160405180610180016040529081600082015481526020016001820160009054906101000a900473ffffffffffffffffffffffffffffffffffffffff1673ffffffffffffffffffffffffffffffffffffffff1673ffffffffffffffffffffffffffffffffffffffff1681526020016002820160009054906101000a900473ffffffffffffffffffffffffffffffffffffffff1673ffffffffffffffffffffffffffffffffffffffff1673ffffffffffffffffffffffffffffffffffffffff16815260200160038201805461112b90615345565b80601f016020809104026020016040519081016040528092919081815260200182805461115790615345565b80156111a45780601f10611179576101008083540402835291602001916111a4565b820191906000526020600020905b81548152906001019060200180831161118757829003601f168201915b505050505081526020016004820180546111bd90615345565b80601f01602080910402602001604051908101604052809291908181526020018280546111e990615345565b80156112365780601f1061120b57610100808354040283529160200191611236565b820191906000526020600020905b81548152906001019060200180831161121957829003601f168201915b5050505050815260200160058201805480602002602001604051908101604052809291908181526020016000905b8282101561131057838290600052602060002001805461128390615345565b80601f01602080910402602001604051908101604052809291908181526020018280546112af90615345565b80156112fc5780601f106112d1576101008083540402835291602001916112fc565b820191906000526020600020905b8154815290600101906020018083116112df57829003601f168201915b505050505081526020019060010190611264565b50505050815260200160068201805461132890615345565b80601f016020809104026020016040519081016040528092919081815260200182805461135490615345565b80156113a15780601f10611376576101008083540402835291602001916113a1565b820191906000526020600020905b81548152906001019060200180831161138457829003601f168201915b505050505081526020016007820180546113ba90615345565b80601f01602080910402602001604051908101604052809291908181526020018280546113e690615345565b80156114335780601f1061140857610100808354040283529160200191611433565b820191906000526020600020905b81548152906001019060200180831161141657829003601f168201915b5050505050815260200160088201805461144c90615345565b80601f016020809104026020016040519081016040528092919081815260200182805461147890615345565b80156114c55780601f1061149a576101008083540402835291602001916114c5565b820191906000526020600020905b8154815290600101906020018083116114a857829003601f168201915b5050505050815260200160098201548152602001600a820180546114e890615345565b80601f016020809104026020016040519081016040528092919081815260200182805461151490615345565b80156115615780601f1061153657610100808354040283529160200191611561565b820191906000526020600020905b81548152906001019060200180831161154457829003601f168201915b50505050508152602001600b8201548152505081526020019060010190611041565b50505050905090565b61159d611597613408565b826134c9565b6115dc576040517f08c379a00000000000000000000000000000000000000000000000000000000081526004016115d390614f3e565b60405180910390fd5b6115e78383836135a7565b505050565b60cd6020528060005260406000206000915090508060000154908060010160009054906101000a900473ffffffffffffffffffffffffffffffffffffffff16908060020160009054906101000a900473ffffffffffffffffffffffffffffffffffffffff169080600301805461166190615345565b80601f016020809104026020016040519081016040528092919081815260200182805461168d90615345565b80156116da5780601f106116af576101008083540402835291602001916116da565b820191906000526020600020905b8154815290600101906020018083116116bd57829003601f168201915b5050505050908060040180546116ef90615345565b80601f016020809104026020016040519081016040528092919081815260200182805461171b90615345565b80156117685780601f1061173d57610100808354040283529160200191611768565b820191906000526020600020905b81548152906001019060200180831161174b57829003601f168201915b50505050509080600601805461177d90615345565b80601f01602080910402602001604051908101604052809291908181526020018280546117a990615345565b80156117f65780601f106117cb576101008083540402835291602001916117f6565b820191906000526020600020905b8154815290600101906020018083116117d957829003601f168201915b50505050509080600701805461180b90615345565b80601f016020809104026020016040519081016040528092919081815260200182805461183790615345565b80156118845780601f1061185957610100808354040283529160200191611884565b820191906000526020600020905b81548152906001019060200180831161186757829003601f168201915b50505050509080600801805461189990615345565b80601f01602080910402602001604051908101604052809291908181526020018280546118c590615345565b80156119125780601f106118e757610100808354040283529160200191611912565b820191906000526020600020905b8154815290600101906020018083116118f557829003601f168201915b50505050509080600901549080600a01805461192d90615345565b80601f016020809104026020016040519081016040528092919081815260200182805461195990615345565b80156119a65780601f1061197b576101008083540402835291602001916119a6565b820191906000526020600020905b81548152906001019060200180831161198957829003601f168201915b50505050509080600b015490508b565b6119d183838360405180602001604052806000815250612ade565b505050565b606060cf60008373ffffffffffffffffffffffffffffffffffffffff1673ffffffffffffffffffffffffffffffffffffffff168152602001908152602001600020805480602002602001604051908101604052809291908181526020016000905b82821015611f7957838290600052602060002090600c020160405180610180016040529081600082015481526020016001820160009054906101000a900473ffffffffffffffffffffffffffffffffffffffff1673ffffffffffffffffffffffffffffffffffffffff1673ffffffffffffffffffffffffffffffffffffffff1681526020016002820160009054906101000a900473ffffffffffffffffffffffffffffffffffffffff1673ffffffffffffffffffffffffffffffffffffffff1673ffffffffffffffffffffffffffffffffffffffff168152602001600382018054611b2190615345565b80601f0160208091040260200160405190810160405280929190818152602001828054611b4d90615345565b8015611b9a5780601f10611b6f57610100808354040283529160200191611b9a565b820191906000526020600020905b815481529060010190602001808311611b7d57829003601f168201915b50505050508152602001600482018054611bb390615345565b80601f0160208091040260200160405190810160405280929190818152602001828054611bdf90615345565b8015611c2c5780601f10611c0157610100808354040283529160200191611c2c565b820191906000526020600020905b815481529060010190602001808311611c0f57829003601f168201915b5050505050815260200160058201805480602002602001604051908101604052809291908181526020016000905b82821015611d06578382906000526020600020018054611c7990615345565b80601f0160208091040260200160405190810160405280929190818152602001828054611ca590615345565b8015611cf25780601f10611cc757610100808354040283529160200191611cf2565b820191906000526020600020905b815481529060010190602001808311611cd557829003601f168201915b505050505081526020019060010190611c5a565b505050508152602001600682018054611d1e90615345565b80601f0160208091040260200160405190810160405280929190818152602001828054611d4a90615345565b8015611d975780601f10611d6c57610100808354040283529160200191611d97565b820191906000526020600020905b815481529060010190602001808311611d7a57829003601f168201915b50505050508152602001600782018054611db090615345565b80601f0160208091040260200160405190810160405280929190818152602001828054611ddc90615345565b8015611e295780601f10611dfe57610100808354040283529160200191611e29565b820191906000526020600020905b815481529060010190602001808311611e0c57829003601f168201915b50505050508152602001600882018054611e4290615345565b80601f0160208091040260200160405190810160405280929190818152602001828054611e6e90615345565b8015611ebb5780601f10611e9057610100808354040283529160200191611ebb565b820191906000526020600020905b815481529060010190602001808311611e9e57829003601f168201915b5050505050815260200160098201548152602001600a82018054611ede90615345565b80601f0160208091040260200160405190810160405280929190818152602001828054611f0a90615345565b8015611f575780601f10611f2c57610100808354040283529160200191611f57565b820191906000526020600020905b815481529060010190602001808311611f3a57829003601f168201915b50505050508152602001600b8201548152505081526020019060010190611a37565b505050509050919050565b6000806067600084815260200190815260200160002060009054906101000a900473ffffffffffffffffffffffffffffffffffffffff169050600073ffffffffffffffffffffffffffffffffffffffff168173ffffffffffffffffffffffffffffffffffffffff16141561202d576040517f08c379a000000000000000000000000000000000000000000000000000000000815260040161202490614e7e565b60405180910390fd5b80915050919050565b600060405180610180016040528060cb5481526020018b73ffffffffffffffffffffffffffffffffffffffff1681526020018673ffffffffffffffffffffffffffffffffffffffff1681526020018a81526020018981526020018881526020018781526020018581526020018481526020016000815260200183815260200142815250905060cc8190806001815401808255809150506001900390600052602060002090600c02016000909190919091506000820151816000015560208201518160010160006101000a81548173ffffffffffffffffffffffffffffffffffffffff021916908373ffffffffffffffffffffffffffffffffffffffff16021790555060408201518160020160006101000a81548173ffffffffffffffffffffffffffffffffffffffff021916908373ffffffffffffffffffffffffffffffffffffffff160217905550606082015181600301908051906020019061219b929190613fae565b5060808201518160040190805190602001906121b8929190613fae565b5060a08201518160050190805190602001906121d5929190614034565b5060c08201518160060190805190602001906121f2929190613fae565b5060e082015181600701908051906020019061220f929190613fae565b5061010082015181600801908051906020019061222d929190613fae565b50610120820151816009015561014082015181600a019080519060200190612256929190613fae565b5061016082015181600b015550508060cd600060cb5481526020019081526020016000206000820151816000015560208201518160010160006101000a81548173ffffffffffffffffffffffffffffffffffffffff021916908373ffffffffffffffffffffffffffffffffffffffff16021790555060408201518160020160006101000a81548173ffffffffffffffffffffffffffffffffffffffff021916908373ffffffffffffffffffffffffffffffffffffffff160217905550606082015181600301908051906020019061232e929190613fae565b50608082015181600401908051906020019061234b929190613fae565b5060a0820151816005019080519060200190612368929190614034565b5060c0820151816006019080519060200190612385929190613fae565b5060e08201518160070190805190602001906123a2929190613fae565b506101008201518160080190805190602001906123c0929190613fae565b50610120820151816009015561014082015181600a0190805190602001906123e9929190613fae565b5061016082015181600b015590505060cf60008b73ffffffffffffffffffffffffffffffffffffffff1673ffffffffffffffffffffffffffffffffffffffff1681526020019081526020016000208190806001815401808255809150506001900390600052602060002090600c02016000909190919091506000820151816000015560208201518160010160006101000a81548173ffffffffffffffffffffffffffffffffffffffff021916908373ffffffffffffffffffffffffffffffffffffffff16021790555060408201518160020160006101000a81548173ffffffffffffffffffffffffffffffffffffffff021916908373ffffffffffffffffffffffffffffffffffffffff1602179055506060820151816003019080519060200190612515929190613fae565b506080820151816004019080519060200190612532929190613fae565b5060a082015181600501908051906020019061254f929190614034565b5060c082015181600601908051906020019061256c929190613fae565b5060e0820151816007019080519060200190612589929190613fae565b506101008201518160080190805190602001906125a7929190613fae565b50610120820151816009015561014082015181600a0190805190602001906125d0929190613fae565b5061016082015181600b0155505060cb547fa1cd98301e2a758f45871102b368fdcf3f56e13f8e8fd2886523ac87ca066ce0336040516126109190614c53565b60405180910390a261262360cb54610832565b60cb6000815480929190612636906153a8565b919050555050505050505050505050565b60008073ffffffffffffffffffffffffffffffffffffffff168273ffffffffffffffffffffffffffffffffffffffff1614156126b8576040517f08c379a00000000000000000000000000000000000000000000000000000000081526004016126af90614e5e565b60405180910390fd5b606860008373ffffffffffffffffffffffffffffffffffffffff1673ffffffffffffffffffffffffffffffffffffffff168152602001908152602001600020549050919050565b612707613408565b73ffffffffffffffffffffffffffffffffffffffff16612725612a06565b73ffffffffffffffffffffffffffffffffffffffff161461277b576040517f08c379a000000000000000000000000000000000000000000000000000000000815260040161277290614efe565b60405180910390fd5b612785600061380e565b565b60d260205281600052604060002081815481106127a357600080fd5b906000526020600020016000915091509054906101000a900473ffffffffffffffffffffffffffffffffffffffff1681565b60ce6020528060005260406000206000915090505481565b60d26000828152602001908152602001600020339080600181540180825580915050600190039060005260206000200160009091909190916101000a81548173ffffffffffffffffffffffffffffffffffffffff021916908373ffffffffffffffffffffffffffffffffffffffff160217905550807f415c5c8a626ad1819c82e5a7dc9b2dc5a12dd6cbd6c063f565d47aaa852d7616336040516128919190614c53565b60405180910390a250565b600060019054906101000a900460ff166128c45760008054906101000a900460ff16156128cd565b6128cc6138d4565b5b61290c576040517f08c379a000000000000000000000000000000000000000000000000000000000815260040161290390614e9e565b60405180910390fd5b60008060019054906101000a900460ff16159050801561295c576001600060016101000a81548160ff02191690831515021790555060016000806101000a81548160ff0219169083151502179055505b61296660ca613386565b600160cb819055506129e26040518060400160405280600f81526020017f50686c6f7465204375726174696f6e00000000000000000000000000000000008152506040518060400160405280600681526020017f50484c4f544500000000000000000000000000000000000000000000000000008152506138e5565b8015612a035760008060016101000a81548160ff0219169083151502179055505b50565b6000609760009054906101000a900473ffffffffffffffffffffffffffffffffffffffff16905090565b606060668054612a3f90615345565b80601f0160208091040260200160405190810160405280929190818152602001828054612a6b90615345565b8015612ab85780601f10612a8d57610100808354040283529160200191612ab8565b820191906000526020600020905b815481529060010190602001808311612a9b57829003601f168201915b5050505050905090565b60c95481565b612ada612ad3613408565b8383613942565b5050565b612aef612ae9613408565b836134c9565b612b2e576040517f08c379a0000000000000000000000000000000000000000000000000000000008152600401612b2590614f3e565b60405180910390fd5b612b3a84848484613aaf565b50505050565b6060600060cd600060d1600086815260200190815260200160002054815260200190815260200160002060405180610180016040529081600082015481526020016001820160009054906101000a900473ffffffffffffffffffffffffffffffffffffffff1673ffffffffffffffffffffffffffffffffffffffff1673ffffffffffffffffffffffffffffffffffffffff1681526020016002820160009054906101000a900473ffffffffffffffffffffffffffffffffffffffff1673ffffffffffffffffffffffffffffffffffffffff1673ffffffffffffffffffffffffffffffffffffffff168152602001600382018054612c3c90615345565b80601f0160208091040260200160405190810160405280929190818152602001828054612c6890615345565b8015612cb55780601f10612c8a57610100808354040283529160200191612cb5565b820191906000526020600020905b815481529060010190602001808311612c9857829003601f168201915b50505050508152602001600482018054612cce90615345565b80601f0160208091040260200160405190810160405280929190818152602001828054612cfa90615345565b8015612d475780601f10612d1c57610100808354040283529160200191612d47565b820191906000526020600020905b815481529060010190602001808311612d2a57829003601f168201915b5050505050815260200160058201805480602002602001604051908101604052809291908181526020016000905b82821015612e21578382906000526020600020018054612d9490615345565b80601f0160208091040260200160405190810160405280929190818152602001828054612dc090615345565b8015612e0d5780601f10612de257610100808354040283529160200191612e0d565b820191906000526020600020905b815481529060010190602001808311612df057829003601f168201915b505050505081526020019060010190612d75565b505050508152602001600682018054612e3990615345565b80601f0160208091040260200160405190810160405280929190818152602001828054612e6590615345565b8015612eb25780601f10612e8757610100808354040283529160200191612eb2565b820191906000526020600020905b815481529060010190602001808311612e9557829003601f168201915b50505050508152602001600782018054612ecb90615345565b80601f0160208091040260200160405190810160405280929190818152602001828054612ef790615345565b8015612f445780601f10612f1957610100808354040283529160200191612f44565b820191906000526020600020905b815481529060010190602001808311612f2757829003601f168201915b50505050508152602001600882018054612f5d90615345565b80601f0160208091040260200160405190810160405280929190818152602001828054612f8990615345565b8015612fd65780601f10612fab57610100808354040283529160200191612fd6565b820191906000526020600020905b815481529060010190602001808311612fb957829003601f168201915b5050505050815260200160098201548152602001600a82018054612ff990615345565b80601f016020809104026020016040519081016040528092919081815260200182805461302590615345565b80156130725780601f1061304757610100808354040283529160200191613072565b820191906000526020600020905b81548152906001019060200180831161305557829003601f168201915b50505050508152602001600b820154815250509050806101400151915050919050565b60d06020528060005260406000206000915090505481565b60d16020528060005260406000206000915090505481565b6000606a60008473ffffffffffffffffffffffffffffffffffffffff1673ffffffffffffffffffffffffffffffffffffffff16815260200190815260200160002060008373ffffffffffffffffffffffffffffffffffffffff1673ffffffffffffffffffffffffffffffffffffffff16815260200190815260200160002060009054906101000a900460ff16905092915050565b613161613408565b73ffffffffffffffffffffffffffffffffffffffff1661317f612a06565b73ffffffffffffffffffffffffffffffffffffffff16146131d5576040517f08c379a00000000000000000000000000000000000000000000000000000000081526004016131cc90614efe565b60405180910390fd5b600073ffffffffffffffffffffffffffffffffffffffff168173ffffffffffffffffffffffffffffffffffffffff161415613245576040517f08c379a000000000000000000000000000000000000000000000000000000000815260040161323c90614d7e565b60405180910390fd5b61324e8161380e565b50565b60007f01ffc9a7000000000000000000000000000000000000000000000000000000007bffffffffffffffffffffffffffffffffffffffffffffffffffffffff1916827bffffffffffffffffffffffffffffffffffffffffffffffffffffffff1916149050919050565b600081600001549050919050565b6132e3828260405180602001604052806000815250613b0b565b5050565b6133818383836040516024016132ff93929190614d19565b6040516020818303038152906040527ff362ca59000000000000000000000000000000000000000000000000000000007bffffffffffffffffffffffffffffffffffffffffffffffffffffffff19166020820180517bffffffffffffffffffffffffffffffffffffffffffffffffffffffff8381831617835250505050613b66565b505050565b6001816000016000828254019250508190555050565b60008073ffffffffffffffffffffffffffffffffffffffff166067600084815260200190815260200160002060009054906101000a900473ffffffffffffffffffffffffffffffffffffffff1673ffffffffffffffffffffffffffffffffffffffff1614159050919050565b600033905090565b816069600083815260200190815260200160002060006101000a81548173ffffffffffffffffffffffffffffffffffffffff021916908373ffffffffffffffffffffffffffffffffffffffff160217905550808273ffffffffffffffffffffffffffffffffffffffff1661348383611f84565b73ffffffffffffffffffffffffffffffffffffffff167f8c5be1e5ebec7d5bd14f71427d1e84f3dd0314c0f7b2291e5b200ac8c7c3b92560405160405180910390a45050565b60006134d48261339c565b613513576040517f08c379a000000000000000000000000000000000000000000000000000000000815260040161350a90614e1e565b60405180910390fd5b600061351e83611f84565b90508073ffffffffffffffffffffffffffffffffffffffff168473ffffffffffffffffffffffffffffffffffffffff16148061358d57508373ffffffffffffffffffffffffffffffffffffffff1661357584610a99565b73ffffffffffffffffffffffffffffffffffffffff16145b8061359e575061359d81856130c5565b5b91505092915050565b8273ffffffffffffffffffffffffffffffffffffffff166135c782611f84565b73ffffffffffffffffffffffffffffffffffffffff161461361d576040517f08c379a000000000000000000000000000000000000000000000000000000000815260040161361490614d9e565b60405180910390fd5b600073ffffffffffffffffffffffffffffffffffffffff168273ffffffffffffffffffffffffffffffffffffffff16141561368d576040517f08c379a000000000000000000000000000000000000000000000000000000000815260040161368490614dde565b60405180910390fd5b613698838383613b8f565b6136a3600082613410565b6001606860008573ffffffffffffffffffffffffffffffffffffffff1673ffffffffffffffffffffffffffffffffffffffff16815260200190815260200160002060008282546136f3919061525b565b925050819055506001606860008473ffffffffffffffffffffffffffffffffffffffff1673ffffffffffffffffffffffffffffffffffffffff168152602001908152602001600020600082825461374a9190615205565b92505081905550816067600083815260200190815260200160002060006101000a81548173ffffffffffffffffffffffffffffffffffffffff021916908373ffffffffffffffffffffffffffffffffffffffff160217905550808273ffffffffffffffffffffffffffffffffffffffff168473ffffffffffffffffffffffffffffffffffffffff167fddf252ad1be2c89b69c2b068fc378daa952ba7f163c4a11628f55a4df523b3ef60405160405180910390a4613809838383613b94565b505050565b6000609760009054906101000a900473ffffffffffffffffffffffffffffffffffffffff16905081609760006101000a81548173ffffffffffffffffffffffffffffffffffffffff021916908373ffffffffffffffffffffffffffffffffffffffff1602179055508173ffffffffffffffffffffffffffffffffffffffff168173ffffffffffffffffffffffffffffffffffffffff167f8be0079c531659141344cd1fd0a4f28419497f9722a3daafe3b4186f6b6457e060405160405180910390a35050565b60006138df30613b99565b15905090565b600060019054906101000a900460ff16613934576040517f08c379a000000000000000000000000000000000000000000000000000000000815260040161392b90614f5e565b60405180910390fd5b61393e8282613bbc565b5050565b8173ffffffffffffffffffffffffffffffffffffffff168373ffffffffffffffffffffffffffffffffffffffff1614156139b1576040517f08c379a00000000000000000000000000000000000000000000000000000000081526004016139a890614dfe565b60405180910390fd5b80606a60008573ffffffffffffffffffffffffffffffffffffffff1673ffffffffffffffffffffffffffffffffffffffff16815260200190815260200160002060008473ffffffffffffffffffffffffffffffffffffffff1673ffffffffffffffffffffffffffffffffffffffff16815260200190815260200160002060006101000a81548160ff0219169083151502179055508173ffffffffffffffffffffffffffffffffffffffff168373ffffffffffffffffffffffffffffffffffffffff167f17307eab39ab6107e8899845ad3d59bd9653f200f220920489ca2b5937696c3183604051613aa29190614cdc565b60405180910390a3505050565b613aba8484846135a7565b613ac684848484613c3d565b613b05576040517f08c379a0000000000000000000000000000000000000000000000000000000008152600401613afc90614d5e565b60405180910390fd5b50505050565b613b158383613dd4565b613b226000848484613c3d565b613b61576040517f08c379a0000000000000000000000000000000000000000000000000000000008152600401613b5890614d5e565b60405180910390fd5b505050565b60008151905060006a636f6e736f6c652e6c6f679050602083016000808483855afa5050505050565b505050565b505050565b6000808273ffffffffffffffffffffffffffffffffffffffff163b119050919050565b600060019054906101000a900460ff16613c0b576040517f08c379a0000000000000000000000000000000000000000000000000000000008152600401613c0290614f5e565b60405180910390fd5b8160659080519060200190613c21929190613fae565b508060669080519060200190613c38929190613fae565b505050565b6000613c5e8473ffffffffffffffffffffffffffffffffffffffff16613b99565b15613dc7578373ffffffffffffffffffffffffffffffffffffffff1663150b7a02613c87613408565b8786866040518563ffffffff1660e01b8152600401613ca99493929190614c6e565b602060405180830381600087803b158015613cc357600080fd5b505af1925050508015613cf457506040513d601f19601f82011682018060405250810190613cf1919061463c565b60015b613d77573d8060008114613d24576040519150601f19603f3d011682016040523d82523d6000602084013e613d29565b606091505b50600081511415613d6f576040517f08c379a0000000000000000000000000000000000000000000000000000000008152600401613d6690614d5e565b60405180910390fd5b805181602001fd5b63150b7a0260e01b7bffffffffffffffffffffffffffffffffffffffffffffffffffffffff1916817bffffffffffffffffffffffffffffffffffffffffffffffffffffffff191614915050613dcc565b600190505b949350505050565b600073ffffffffffffffffffffffffffffffffffffffff168273ffffffffffffffffffffffffffffffffffffffff161415613e44576040517f08c379a0000000000000000000000000000000000000000000000000000000008152600401613e3b90614ebe565b60405180910390fd5b613e4d8161339c565b15613e8d576040517f08c379a0000000000000000000000000000000000000000000000000000000008152600401613e8490614dbe565b60405180910390fd5b613e9960008383613b8f565b6001606860008473ffffffffffffffffffffffffffffffffffffffff1673ffffffffffffffffffffffffffffffffffffffff1681526020019081526020016000206000828254613ee99190615205565b92505081905550816067600083815260200190815260200160002060006101000a81548173ffffffffffffffffffffffffffffffffffffffff021916908373ffffffffffffffffffffffffffffffffffffffff160217905550808273ffffffffffffffffffffffffffffffffffffffff16600073ffffffffffffffffffffffffffffffffffffffff167fddf252ad1be2c89b69c2b068fc378daa952ba7f163c4a11628f55a4df523b3ef60405160405180910390a4613faa60008383613b94565b5050565b828054613fba90615345565b90600052602060002090601f016020900481019282613fdc5760008555614023565b82601f10613ff557805160ff1916838001178555614023565b82800160010185558215614023579182015b82811115614022578251825591602001919060010190614007565b5b5090506140309190614094565b5090565b828054828255906000526020600020908101928215614083579160200282015b82811115614082578251829080519060200190614072929190613fae565b5091602001919060010190614054565b5b50905061409091906140b1565b5090565b5b808211156140ad576000816000905550600101614095565b5090565b5b808211156140d157600081816140c891906140d5565b506001016140b2565b5090565b5080546140e190615345565b6000825580601f106140f35750614112565b601f0160209004906000526020600020908101906141119190614094565b5b50565b6000614128614123846150bc565b615097565b9050808382526020820190508285602086028201111561414757600080fd5b60005b8581101561419157813567ffffffffffffffff81111561416957600080fd5b80860161417689826142bf565b8552602085019450602084019350505060018101905061414a565b5050509392505050565b60006141ae6141a9846150e8565b615097565b9050828152602081018484840111156141c657600080fd5b6141d1848285615303565b509392505050565b60006141ec6141e784615119565b615097565b90508281526020810184848401111561420457600080fd5b61420f848285615303565b509392505050565b60008135905061422681615936565b92915050565b600082601f83011261423d57600080fd5b813561424d848260208601614115565b91505092915050565b6000813590506142658161594d565b92915050565b60008135905061427a81615964565b92915050565b60008151905061428f81615964565b92915050565b600082601f8301126142a657600080fd5b81356142b684826020860161419b565b91505092915050565b600082601f8301126142d057600080fd5b81356142e08482602086016141d9565b91505092915050565b6000813590506142f88161597b565b92915050565b60006020828403121561431057600080fd5b600061431e84828501614217565b91505092915050565b6000806040838503121561433a57600080fd5b600061434885828601614217565b925050602061435985828601614217565b9150509250929050565b60008060006060848603121561437857600080fd5b600061438686828701614217565b935050602061439786828701614217565b92505060406143a8868287016142e9565b9150509250925092565b600080600080608085870312156143c857600080fd5b60006143d687828801614217565b94505060206143e787828801614217565b93505060406143f8878288016142e9565b925050606085013567ffffffffffffffff81111561441557600080fd5b61442187828801614295565b91505092959194509250565b6000806040838503121561444057600080fd5b600061444e85828601614217565b925050602061445f85828601614256565b9150509250929050565b60008060008060008060008060006101208a8c03121561448857600080fd5b60006144968c828d01614217565b99505060208a013567ffffffffffffffff8111156144b357600080fd5b6144bf8c828d016142bf565b98505060408a013567ffffffffffffffff8111156144dc57600080fd5b6144e88c828d016142bf565b97505060608a013567ffffffffffffffff81111561450557600080fd5b6145118c828d0161422c565b96505060808a013567ffffffffffffffff81111561452e57600080fd5b61453a8c828d016142bf565b95505060a061454b8c828d01614217565b94505060c08a013567ffffffffffffffff81111561456857600080fd5b6145748c828d016142bf565b93505060e08a013567ffffffffffffffff81111561459157600080fd5b61459d8c828d016142bf565b9250506101008a013567ffffffffffffffff8111156145bb57600080fd5b6145c78c828d016142bf565b9150509295985092959850929598565b600080604083850312156145ea57600080fd5b60006145f885828601614217565b9250506020614609858286016142e9565b9150509250929050565b60006020828403121561462557600080fd5b60006146338482850161426b565b91505092915050565b60006020828403121561464e57600080fd5b600061465c84828501614280565b91505092915050565b60006020828403121561467757600080fd5b6000614685848285016142e9565b91505092915050565b600080604083850312156146a157600080fd5b60006146af858286016142e9565b92505060206146c0858286016142e9565b9150509250929050565b60006146d68383614842565b905092915050565b60006146ea8383614b07565b905092915050565b6146fb8161528f565b82525050565b61470a8161528f565b82525050565b600061471b8261516a565b61472581856151b0565b9350836020820285016147378561514a565b8060005b85811015614773578484038952815161475485826146ca565b945061475f83615196565b925060208a0199505060018101905061473b565b50829750879550505050505092915050565b600061479082615175565b61479a81856151c1565b9350836020820285016147ac8561515a565b8060005b858110156147e857848403895281516147c985826146de565b94506147d4836151a3565b925060208a019950506001810190506147b0565b50829750879550505050505092915050565b614803816152a1565b82525050565b600061481482615180565b61481e81856151d2565b935061482e818560208601615312565b6148378161547e565b840191505092915050565b600061484d8261518b565b61485781856151e3565b9350614867818560208601615312565b6148708161547e565b840191505092915050565b60006148868261518b565b61489081856151f4565b93506148a0818560208601615312565b6148a98161547e565b840191505092915050565b60006148c16032836151f4565b91506148cc8261548f565b604082019050919050565b60006148e46026836151f4565b91506148ef826154de565b604082019050919050565b60006149076025836151f4565b91506149128261552d565b604082019050919050565b600061492a601c836151f4565b91506149358261557c565b602082019050919050565b600061494d6024836151f4565b9150614958826155a5565b604082019050919050565b60006149706019836151f4565b915061497b826155f4565b602082019050919050565b6000614993602c836151f4565b915061499e8261561d565b604082019050919050565b60006149b66038836151f4565b91506149c18261566c565b604082019050919050565b60006149d9602a836151f4565b91506149e4826156bb565b604082019050919050565b60006149fc6029836151f4565b9150614a078261570a565b604082019050919050565b6000614a1f602e836151f4565b9150614a2a82615759565b604082019050919050565b6000614a426020836151f4565b9150614a4d826157a8565b602082019050919050565b6000614a65602c836151f4565b9150614a70826157d1565b604082019050919050565b6000614a886020836151f4565b9150614a9382615820565b602082019050919050565b6000614aab6021836151f4565b9150614ab682615849565b604082019050919050565b6000614ace6031836151f4565b9150614ad982615898565b604082019050919050565b6000614af1602b836151f4565b9150614afc826158e7565b604082019050919050565b600061018083016000830151614b206000860182614c35565b506020830151614b3360208601826146f2565b506040830151614b4660408601826146f2565b5060608301518482036060860152614b5e8282614842565b91505060808301518482036080860152614b788282614842565b91505060a083015184820360a0860152614b928282614710565b91505060c083015184820360c0860152614bac8282614842565b91505060e083015184820360e0860152614bc68282614842565b915050610100830151848203610100860152614be28282614842565b915050610120830151614bf9610120860182614c35565b50610140830151848203610140860152614c138282614842565b915050610160830151614c2a610160860182614c35565b508091505092915050565b614c3e816152f9565b82525050565b614c4d816152f9565b82525050565b6000602082019050614c686000830184614701565b92915050565b6000608082019050614c836000830187614701565b614c906020830186614701565b614c9d6040830185614c44565b8181036060830152614caf8184614809565b905095945050505050565b60006020820190508181036000830152614cd48184614785565b905092915050565b6000602082019050614cf160008301846147fa565b92915050565b60006020820190508181036000830152614d11818461487b565b905092915050565b60006060820190508181036000830152614d33818661487b565b90508181036020830152614d47818561487b565b9050614d566040830184614c44565b949350505050565b60006020820190508181036000830152614d77816148b4565b9050919050565b60006020820190508181036000830152614d97816148d7565b9050919050565b60006020820190508181036000830152614db7816148fa565b9050919050565b60006020820190508181036000830152614dd78161491d565b9050919050565b60006020820190508181036000830152614df781614940565b9050919050565b60006020820190508181036000830152614e1781614963565b9050919050565b60006020820190508181036000830152614e3781614986565b9050919050565b60006020820190508181036000830152614e57816149a9565b9050919050565b60006020820190508181036000830152614e77816149cc565b9050919050565b60006020820190508181036000830152614e97816149ef565b9050919050565b60006020820190508181036000830152614eb781614a12565b9050919050565b60006020820190508181036000830152614ed781614a35565b9050919050565b60006020820190508181036000830152614ef781614a58565b9050919050565b60006020820190508181036000830152614f1781614a7b565b9050919050565b60006020820190508181036000830152614f3781614a9e565b9050919050565b60006020820190508181036000830152614f5781614ac1565b9050919050565b60006020820190508181036000830152614f7781614ae4565b9050919050565b6000602082019050614f936000830184614c44565b92915050565b600061016082019050614faf600083018e614c44565b614fbc602083018d614701565b614fc9604083018c614701565b8181036060830152614fdb818b61487b565b90508181036080830152614fef818a61487b565b905081810360a0830152615003818961487b565b905081810360c0830152615017818861487b565b905081810360e083015261502b818761487b565b905061503b610100830186614c44565b81810361012083015261504e818561487b565b905061505e610140830184614c44565b9c9b505050505050505050505050565b60006040820190506150836000830185614c44565b6150906020830184614c44565b9392505050565b60006150a16150b2565b90506150ad8282615377565b919050565b6000604051905090565b600067ffffffffffffffff8211156150d7576150d661544f565b5b602082029050602081019050919050565b600067ffffffffffffffff8211156151035761510261544f565b5b61510c8261547e565b9050602081019050919050565b600067ffffffffffffffff8211156151345761513361544f565b5b61513d8261547e565b9050602081019050919050565b6000819050602082019050919050565b6000819050602082019050919050565b600081519050919050565b600081519050919050565b600081519050919050565b600081519050919050565b6000602082019050919050565b6000602082019050919050565b600082825260208201905092915050565b600082825260208201905092915050565b600082825260208201905092915050565b600082825260208201905092915050565b600082825260208201905092915050565b6000615210826152f9565b915061521b836152f9565b9250827fffffffffffffffffffffffffffffffffffffffffffffffffffffffffffffffff038211156152505761524f6153f1565b5b828201905092915050565b6000615266826152f9565b9150615271836152f9565b925082821015615284576152836153f1565b5b828203905092915050565b600061529a826152d9565b9050919050565b60008115159050919050565b60007fffffffff0000000000000000000000000000000000000000000000000000000082169050919050565b600073ffffffffffffffffffffffffffffffffffffffff82169050919050565b6000819050919050565b82818337600083830152505050565b60005b83811015615330578082015181840152602081019050615315565b8381111561533f576000848401525b50505050565b6000600282049050600182168061535d57607f821691505b6020821081141561537157615370615420565b5b50919050565b6153808261547e565b810181811067ffffffffffffffff8211171561539f5761539e61544f565b5b80604052505050565b60006153b3826152f9565b91507fffffffffffffffffffffffffffffffffffffffffffffffffffffffffffffffff8214156153e6576153e56153f1565b5b600182019050919050565b7f4e487b7100000000000000000000000000000000000000000000000000000000600052601160045260246000fd5b7f4e487b7100000000000000000000000000000000000000000000000000000000600052602260045260246000fd5b7f4e487b7100000000000000000000000000000000000000000000000000000000600052604160045260246000fd5b6000601f19601f8301169050919050565b7f4552433732313a207472616e7366657220746f206e6f6e20455243373231526560008201527f63656976657220696d706c656d656e7465720000000000000000000000000000602082015250565b7f4f776e61626c653a206e6577206f776e657220697320746865207a65726f206160008201527f6464726573730000000000000000000000000000000000000000000000000000602082015250565b7f4552433732313a207472616e736665722066726f6d20696e636f72726563742060008201527f6f776e6572000000000000000000000000000000000000000000000000000000602082015250565b7f4552433732313a20746f6b656e20616c7265616479206d696e74656400000000600082015250565b7f4552433732313a207472616e7366657220746f20746865207a65726f2061646460008201527f7265737300000000000000000000000000000000000000000000000000000000602082015250565b7f4552433732313a20617070726f766520746f2063616c6c657200000000000000600082015250565b7f4552433732313a206f70657261746f7220717565727920666f72206e6f6e657860008201527f697374656e7420746f6b656e0000000000000000000000000000000000000000602082015250565b7f4552433732313a20617070726f76652063616c6c6572206973206e6f74206f7760008201527f6e6572206e6f7220617070726f76656420666f7220616c6c0000000000000000602082015250565b7f4552433732313a2062616c616e636520717565727920666f7220746865207a6560008201527f726f206164647265737300000000000000000000000000000000000000000000602082015250565b7f4552433732313a206f776e657220717565727920666f72206e6f6e657869737460008201527f656e7420746f6b656e0000000000000000000000000000000000000000000000602082015250565b7f496e697469616c697a61626c653a20636f6e747261637420697320616c72656160008201527f647920696e697469616c697a6564000000000000000000000000000000000000602082015250565b7f4552433732313a206d696e7420746f20746865207a65726f2061646472657373600082015250565b7f4552433732313a20617070726f76656420717565727920666f72206e6f6e657860008201527f697374656e7420746f6b656e0000000000000000000000000000000000000000602082015250565b7f4f776e61626c653a2063616c6c6572206973206e6f7420746865206f776e6572600082015250565b7f4552433732313a20617070726f76616c20746f2063757272656e74206f776e6560008201527f7200000000000000000000000000000000000000000000000000000000000000602082015250565b7f4552433732313a207472616e736665722063616c6c6572206973206e6f74206f60008201527f776e6572206e6f7220617070726f766564000000000000000000000000000000602082015250565b7f496e697469616c697a61626c653a20636f6e7472616374206973206e6f74206960008201527f6e697469616c697a696e67000000000000000000000000000000000000000000602082015250565b61593f8161528f565b811461594a57600080fd5b50565b615956816152a1565b811461596157600080fd5b50565b61596d816152ad565b811461597857600080fd5b50565b615984816152f9565b811461598f57600080fd5b5056fe2a2a2a2a2a2a4d696e746564202573204e465420772f20746f6b656e4964202573202a2a2a2a2a2aa26469706673582212201d76f67762baac63b51c61d64643f41cb2a01ef4383ff6ed9ad6210a65350b7164736f6c63430008040033",
  "linkReferences": {},
  "deployedLinkReferences": {}
}