{
  "_format": "hh-sol-artifact-1",
  "contractName": "Phlote",
  "sourceName": "contracts/Phlote.sol",
  "abi": [
    {
      "inputs": [],
      "stateMutability": "nonpayable",
      "type": "constructor"
    },
    {
      "anonymous": false,
      "inputs": [
        {
          "indexed": true,
          "internalType": "address",
          "name": "owner",
          "type": "address"
        },
        {
          "indexed": true,
          "internalType": "address",
          "name": "approved",
          "type": "address"
        },
        {
          "indexed": true,
          "internalType": "uint256",
          "name": "tokenId",
          "type": "uint256"
        }
      ],
      "name": "Approval",
      "type": "event"
    },
    {
      "anonymous": false,
      "inputs": [
        {
          "indexed": true,
          "internalType": "address",
          "name": "owner",
          "type": "address"
        },
        {
          "indexed": true,
          "internalType": "address",
          "name": "operator",
          "type": "address"
        },
        {
          "indexed": false,
          "internalType": "bool",
          "name": "approved",
          "type": "bool"
        }
      ],
      "name": "ApprovalForAll",
      "type": "event"
    },
    {
      "anonymous": false,
      "inputs": [
        {
          "indexed": false,
          "internalType": "address",
          "name": "sender",
          "type": "address"
        },
        {
          "indexed": true,
          "internalType": "uint256",
          "name": "editionId",
          "type": "uint256"
        }
      ],
      "name": "EditionCreated",
      "type": "event"
    },
    {
      "anonymous": false,
      "inputs": [
        {
          "indexed": true,
          "internalType": "address",
          "name": "buyer",
          "type": "address"
        },
        {
          "indexed": false,
          "internalType": "uint256",
          "name": "tokenId",
          "type": "uint256"
        },
        {
          "indexed": false,
          "internalType": "uint256",
          "name": "numSold",
          "type": "uint256"
        }
      ],
      "name": "EditionMinted",
      "type": "event"
    },
    {
      "anonymous": false,
      "inputs": [
        {
          "indexed": true,
          "internalType": "address",
          "name": "from",
          "type": "address"
        },
        {
          "indexed": true,
          "internalType": "address",
          "name": "to",
          "type": "address"
        },
        {
          "indexed": true,
          "internalType": "uint256",
          "name": "tokenId",
          "type": "uint256"
        }
      ],
      "name": "Transfer",
      "type": "event"
    },
    {
      "inputs": [
        {
          "internalType": "address",
          "name": "to",
          "type": "address"
        },
        {
          "internalType": "uint256",
          "name": "tokenId",
          "type": "uint256"
        }
      ],
      "name": "approve",
      "outputs": [],
      "stateMutability": "nonpayable",
      "type": "function"
    },
    {
      "inputs": [
        {
          "internalType": "address",
          "name": "owner",
          "type": "address"
        }
      ],
      "name": "balanceOf",
      "outputs": [
        {
          "internalType": "uint256",
          "name": "",
          "type": "uint256"
        }
      ],
      "stateMutability": "view",
      "type": "function"
    },
    {
      "inputs": [],
      "name": "contractPrice",
      "outputs": [
        {
          "internalType": "uint256",
          "name": "",
          "type": "uint256"
        }
      ],
      "stateMutability": "view",
      "type": "function"
    },
    {
      "inputs": [
        {
          "internalType": "uint256",
          "name": "",
          "type": "uint256"
        }
      ],
      "name": "editions",
      "outputs": [
        {
          "internalType": "address",
          "name": "artistAddress",
          "type": "address"
        },
        {
          "internalType": "string",
          "name": "mediaURI",
          "type": "string"
        },
        {
          "internalType": "string",
          "name": "marketplace",
          "type": "string"
        },
        {
          "internalType": "string",
          "name": "artistName",
          "type": "string"
        },
        {
          "internalType": "string",
          "name": "mediaType",
          "type": "string"
        },
        {
          "internalType": "string",
          "name": "mediaTitle",
          "type": "string"
        },
        {
          "internalType": "uint256",
          "name": "numSold",
          "type": "uint256"
        },
        {
          "internalType": "string",
          "name": "tokenURI",
          "type": "string"
        }
      ],
      "stateMutability": "view",
      "type": "function"
    },
    {
      "inputs": [],
      "name": "getAllcontent",
      "outputs": [
        {
          "components": [
            {
              "internalType": "address",
              "name": "artistAddress",
              "type": "address"
            },
            {
              "internalType": "string",
              "name": "mediaURI",
              "type": "string"
            },
            {
              "internalType": "string",
              "name": "marketplace",
              "type": "string"
            },
            {
              "internalType": "string[]",
              "name": "tags",
              "type": "string[]"
            },
            {
              "internalType": "string",
              "name": "artistName",
              "type": "string"
            },
            {
              "internalType": "string",
              "name": "mediaType",
              "type": "string"
            },
            {
              "internalType": "string",
              "name": "mediaTitle",
              "type": "string"
            },
            {
              "internalType": "uint256",
              "name": "numSold",
              "type": "uint256"
            },
            {
              "internalType": "string",
              "name": "tokenURI",
              "type": "string"
            }
          ],
          "internalType": "struct Phlote.Edition[]",
          "name": "",
          "type": "tuple[]"
        }
      ],
      "stateMutability": "view",
      "type": "function"
    },
    {
      "inputs": [
        {
          "internalType": "uint256",
          "name": "tokenId",
          "type": "uint256"
        }
      ],
      "name": "getApproved",
      "outputs": [
        {
          "internalType": "address",
          "name": "",
          "type": "address"
        }
      ],
      "stateMutability": "view",
      "type": "function"
    },
    {
      "inputs": [
        {
          "internalType": "address",
          "name": "owner",
          "type": "address"
        },
        {
          "internalType": "address",
          "name": "operator",
          "type": "address"
        }
      ],
      "name": "isApprovedForAll",
      "outputs": [
        {
          "internalType": "bool",
          "name": "",
          "type": "bool"
        }
      ],
      "stateMutability": "view",
      "type": "function"
    },
    {
      "inputs": [
        {
          "internalType": "uint256",
          "name": "editionId",
          "type": "uint256"
        }
      ],
      "name": "mintEdition",
      "outputs": [],
      "stateMutability": "payable",
      "type": "function"
    },
    {
      "inputs": [],
      "name": "name",
      "outputs": [
        {
          "internalType": "string",
          "name": "",
          "type": "string"
        }
      ],
      "stateMutability": "view",
      "type": "function"
    },
    {
      "inputs": [
        {
          "internalType": "address",
          "name": "",
          "type": "address"
        }
      ],
      "name": "nftHolders",
      "outputs": [
        {
          "internalType": "uint256",
          "name": "",
          "type": "uint256"
        }
      ],
      "stateMutability": "view",
      "type": "function"
    },
    {
      "inputs": [
        {
          "internalType": "uint256",
          "name": "tokenId",
          "type": "uint256"
        }
      ],
      "name": "ownerOf",
      "outputs": [
        {
          "internalType": "address",
          "name": "",
          "type": "address"
        }
      ],
      "stateMutability": "view",
      "type": "function"
    },
    {
      "inputs": [
        {
          "internalType": "address",
          "name": "from",
          "type": "address"
        },
        {
          "internalType": "address",
          "name": "to",
          "type": "address"
        },
        {
          "internalType": "uint256",
          "name": "tokenId",
          "type": "uint256"
        }
      ],
      "name": "safeTransferFrom",
      "outputs": [],
      "stateMutability": "nonpayable",
      "type": "function"
    },
    {
      "inputs": [
        {
          "internalType": "address",
          "name": "from",
          "type": "address"
        },
        {
          "internalType": "address",
          "name": "to",
          "type": "address"
        },
        {
          "internalType": "uint256",
          "name": "tokenId",
          "type": "uint256"
        },
        {
          "internalType": "bytes",
          "name": "_data",
          "type": "bytes"
        }
      ],
      "name": "safeTransferFrom",
      "outputs": [],
      "stateMutability": "nonpayable",
      "type": "function"
    },
    {
      "inputs": [
        {
          "internalType": "address",
          "name": "operator",
          "type": "address"
        },
        {
          "internalType": "bool",
          "name": "approved",
          "type": "bool"
        }
      ],
      "name": "setApprovalForAll",
      "outputs": [],
      "stateMutability": "nonpayable",
      "type": "function"
    },
    {
      "inputs": [
        {
          "internalType": "address",
          "name": "_artist",
          "type": "address"
        },
        {
          "internalType": "string",
          "name": "_mediaURI",
          "type": "string"
        },
        {
          "internalType": "string",
          "name": "_marketplace",
          "type": "string"
        },
        {
          "internalType": "string[]",
          "name": "_tags",
          "type": "string[]"
        },
        {
          "internalType": "string",
          "name": "_artistName",
          "type": "string"
        },
        {
          "internalType": "string",
          "name": "_mediaType",
          "type": "string"
        },
        {
          "internalType": "string",
          "name": "_mediaTitle",
          "type": "string"
        },
        {
          "internalType": "string",
          "name": "_tokenURI",
          "type": "string"
        }
      ],
      "name": "submitPost",
      "outputs": [],
      "stateMutability": "nonpayable",
      "type": "function"
    },
    {
      "inputs": [
        {
          "internalType": "bytes4",
          "name": "interfaceId",
          "type": "bytes4"
        }
      ],
      "name": "supportsInterface",
      "outputs": [
        {
          "internalType": "bool",
          "name": "",
          "type": "bool"
        }
      ],
      "stateMutability": "view",
      "type": "function"
    },
    {
      "inputs": [],
      "name": "symbol",
      "outputs": [
        {
          "internalType": "string",
          "name": "",
          "type": "string"
        }
      ],
      "stateMutability": "view",
      "type": "function"
    },
    {
      "inputs": [
        {
          "internalType": "uint256",
          "name": "",
          "type": "uint256"
        }
      ],
      "name": "tokenToSong",
      "outputs": [
        {
          "internalType": "uint256",
          "name": "",
          "type": "uint256"
        }
      ],
      "stateMutability": "view",
      "type": "function"
    },
    {
      "inputs": [
        {
          "internalType": "uint256",
          "name": "_tokenId",
          "type": "uint256"
        }
      ],
      "name": "tokenURI",
      "outputs": [
        {
          "internalType": "string",
          "name": "",
          "type": "string"
        }
      ],
      "stateMutability": "view",
      "type": "function"
    },
    {
      "inputs": [
        {
          "internalType": "address",
          "name": "from",
          "type": "address"
        },
        {
          "internalType": "address",
          "name": "to",
          "type": "address"
        },
        {
          "internalType": "uint256",
          "name": "tokenId",
          "type": "uint256"
        }
      ],
      "name": "transferFrom",
      "outputs": [],
      "stateMutability": "nonpayable",
      "type": "function"
    },
    {
      "inputs": [
        {
          "internalType": "uint256",
          "name": "",
          "type": "uint256"
        }
      ],
      "name": "withdrawnForEdition",
      "outputs": [
        {
          "internalType": "uint256",
          "name": "",
          "type": "uint256"
        }
      ],
      "stateMutability": "view",
      "type": "function"
    }
  ],
  "bytecode": "0x608060405260016008553480156200001657600080fd5b506040518060400160405280600781526020017f636f6e74656e74000000000000000000000000000000000000000000000000008152506040518060400160405280600481526020017f534f4e470000000000000000000000000000000000000000000000000000000081525081600090805190602001906200009b929190620000ea565b508060019080519060200190620000b4929190620000ea565b505050620000ce6007620000d460201b62001d8d1760201c565b620001ff565b6001816000016000828254019250508190555050565b828054620000f8906200019a565b90600052602060002090601f0160209004810192826200011c576000855562000168565b82601f106200013757805160ff191683800117855562000168565b8280016001018555821562000168579182015b82811115620001675782518255916020019190600101906200014a565b5b5090506200017791906200017b565b5090565b5b80821115620001965760008160009055506001016200017c565b5090565b60006002820490506001821680620001b357607f821691505b60208210811415620001ca57620001c9620001d0565b5b50919050565b7f4e487b7100000000000000000000000000000000000000000000000000000000600052602260045260246000fd5b61406d806200020f6000396000f3fe60806040526004361061012a5760003560e01c80636352211e116100ab578063a22cb4651161006f578063a22cb46514610410578063b88d4fde14610439578063c87b56dd14610462578063d3bb05281461049f578063e2b18d3f146104dc578063e985e9c5146105195761012a565b80636352211e1461030357806370a08231146103405780637df124a11461037d57806395d89b41146103ba57806397e9a0bf146103e55761012a565b806323b872dd116100f257806323b872dd14610219578063279c806e1461024257806342842e0e1461028657806345c64853146102af57806357954dd1146102d85761012a565b806301ffc9a71461012f57806305322b741461016c57806306fdde0314610188578063081812fc146101b3578063095ea7b3146101f0575b600080fd5b34801561013b57600080fd5b5061015660048036038101906101519190612f5a565b610556565b60405161016391906135c4565b60405180910390f35b61018660048036038101906101819190612fac565b610638565b005b34801561019457600080fd5b5061019d61080d565b6040516101aa91906135df565b60405180910390f35b3480156101bf57600080fd5b506101da60048036038101906101d59190612fac565b61089f565b6040516101e79190613493565b60405180910390f35b3480156101fc57600080fd5b5061021760048036038101906102129190612f1e565b610924565b005b34801561022557600080fd5b50610240600480360381019061023b9190612cbe565b610a3c565b005b34801561024e57600080fd5b5061026960048036038101906102649190612fac565b610a9c565b60405161027d9897969594939291906134fa565b60405180910390f35b34801561029257600080fd5b506102ad60048036038101906102a89190612cbe565b610e34565b005b3480156102bb57600080fd5b506102d660048036038101906102d19190612dc4565b610e54565b005b3480156102e457600080fd5b506102ed611047565b6040516102fa91906135a2565b60405180910390f35b34801561030f57600080fd5b5061032a60048036038101906103259190612fac565b61154c565b6040516103379190613493565b60405180910390f35b34801561034c57600080fd5b5061036760048036038101906103629190612c59565b6115fe565b60405161037491906137e6565b60405180910390f35b34801561038957600080fd5b506103a4600480360381019061039f9190612c59565b6116b6565b6040516103b191906137e6565b60405180910390f35b3480156103c657600080fd5b506103cf6116ce565b6040516103dc91906135df565b60405180910390f35b3480156103f157600080fd5b506103fa611760565b60405161040791906137e6565b60405180910390f35b34801561041c57600080fd5b5061043760048036038101906104329190612d88565b611766565b005b34801561044557600080fd5b50610460600480360381019061045b9190612d0d565b61177c565b005b34801561046e57600080fd5b5061048960048036038101906104849190612fac565b6117de565b60405161049691906135df565b60405180910390f35b3480156104ab57600080fd5b506104c660048036038101906104c19190612fac565b611cc9565b6040516104d391906137e6565b60405180910390f35b3480156104e857600080fd5b5061050360048036038101906104fe9190612fac565b611ce1565b60405161051091906137e6565b60405180910390f35b34801561052557600080fd5b50610540600480360381019061053b9190612c82565b611cf9565b60405161054d91906135c4565b60405180910390f35b60007f80ac58cd000000000000000000000000000000000000000000000000000000007bffffffffffffffffffffffffffffffffffffffffffffffffffffffff1916827bffffffffffffffffffffffffffffffffffffffffffffffffffffffff1916148061062157507f5b5e139f000000000000000000000000000000000000000000000000000000007bffffffffffffffffffffffffffffffffffffffffffffffffffffffff1916827bffffffffffffffffffffffffffffffffffffffffffffffffffffffff1916145b80610631575061063082611da3565b5b9050919050565b60006106446007611e0d565b90506106503382611e1b565b61071160405180606001604052806028815260200161401060289139600a6000858152602001908152602001600020600601805461068d90613ad8565b80601f01602080910402602001604051908101604052809291908181526020018280546106b990613ad8565b80156107065780601f106106db57610100808354040283529160200191610706565b820191906000526020600020905b8154815290600101906020018083116106e957829003601f168201915b505050505083611e39565b80600b60003373ffffffffffffffffffffffffffffffffffffffff1673ffffffffffffffffffffffffffffffffffffffff1681526020019081526020016000208190555061075f6007611d8d565b600a6000838152602001908152602001600020600701600081548092919061078690613b3b565b919050555081600e6000838152602001908152602001600020819055503373ffffffffffffffffffffffffffffffffffffffff167fe1b60c9e07632933648666e5ede8b3b329ddfa2ab98c51b1a5b4b22ab4f1349c82600a600086815260200190815260200160002060070154604051610801929190613801565b60405180910390a25050565b60606000805461081c90613ad8565b80601f016020809104026020016040519081016040528092919081815260200182805461084890613ad8565b80156108955780601f1061086a57610100808354040283529160200191610895565b820191906000526020600020905b81548152906001019060200180831161087857829003601f168201915b5050505050905090565b60006108aa82611ed8565b6108e9576040517f08c379a00000000000000000000000000000000000000000000000000000000081526004016108e090613766565b60405180910390fd5b6004600083815260200190815260200160002060009054906101000a900473ffffffffffffffffffffffffffffffffffffffff169050919050565b600061092f8261154c565b90508073ffffffffffffffffffffffffffffffffffffffff168373ffffffffffffffffffffffffffffffffffffffff1614156109a0576040517f08c379a0000000000000000000000000000000000000000000000000000000008152600401610997906137a6565b60405180910390fd5b8073ffffffffffffffffffffffffffffffffffffffff166109bf611f44565b73ffffffffffffffffffffffffffffffffffffffff1614806109ee57506109ed816109e8611f44565b611cf9565b5b610a2d576040517f08c379a0000000000000000000000000000000000000000000000000000000008152600401610a24906136e6565b60405180910390fd5b610a378383611f4c565b505050565b610a4d610a47611f44565b82612005565b610a8c576040517f08c379a0000000000000000000000000000000000000000000000000000000008152600401610a83906137c6565b60405180910390fd5b610a978383836120e3565b505050565b600a6020528060005260406000206000915090508060000160009054906101000a900473ffffffffffffffffffffffffffffffffffffffff1690806001018054610ae590613ad8565b80601f0160208091040260200160405190810160405280929190818152602001828054610b1190613ad8565b8015610b5e5780601f10610b3357610100808354040283529160200191610b5e565b820191906000526020600020905b815481529060010190602001808311610b4157829003601f168201915b505050505090806002018054610b7390613ad8565b80601f0160208091040260200160405190810160405280929190818152602001828054610b9f90613ad8565b8015610bec5780601f10610bc157610100808354040283529160200191610bec565b820191906000526020600020905b815481529060010190602001808311610bcf57829003601f168201915b505050505090806004018054610c0190613ad8565b80601f0160208091040260200160405190810160405280929190818152602001828054610c2d90613ad8565b8015610c7a5780601f10610c4f57610100808354040283529160200191610c7a565b820191906000526020600020905b815481529060010190602001808311610c5d57829003601f168201915b505050505090806005018054610c8f90613ad8565b80601f0160208091040260200160405190810160405280929190818152602001828054610cbb90613ad8565b8015610d085780601f10610cdd57610100808354040283529160200191610d08565b820191906000526020600020905b815481529060010190602001808311610ceb57829003601f168201915b505050505090806006018054610d1d90613ad8565b80601f0160208091040260200160405190810160405280929190818152602001828054610d4990613ad8565b8015610d965780601f10610d6b57610100808354040283529160200191610d96565b820191906000526020600020905b815481529060010190602001808311610d7957829003601f168201915b505050505090806007015490806008018054610db190613ad8565b80601f0160208091040260200160405190810160405280929190818152602001828054610ddd90613ad8565b8015610e2a5780601f10610dff57610100808354040283529160200191610e2a565b820191906000526020600020905b815481529060010190602001808311610e0d57829003601f168201915b5050505050905088565b610e4f8383836040518060200160405280600081525061177c565b505050565b6040518061012001604052808973ffffffffffffffffffffffffffffffffffffffff1681526020018881526020018781526020018681526020018581526020018481526020018381526020016000815260200182815250600a6000600854815260200190815260200160002060008201518160000160006101000a81548173ffffffffffffffffffffffffffffffffffffffff021916908373ffffffffffffffffffffffffffffffffffffffff1602179055506020820151816001019080519060200190610f23929190612909565b506040820151816002019080519060200190610f40929190612909565b506060820151816003019080519060200190610f5d92919061298f565b506080820151816004019080519060200190610f7a929190612909565b5060a0820151816005019080519060200190610f97929190612909565b5060c0820151816006019080519060200190610fb4929190612909565b5060e08201518160070155610100820151816008019080519060200190610fdc929190612909565b509050506008547fa1cd98301e2a758f45871102b368fdcf3f56e13f8e8fd2886523ac87ca066ce0336040516110129190613493565b60405180910390a2611025600854610638565b6008600081548092919061103890613b3b565b91905055505050505050505050565b60606009805480602002602001604051908101604052809291908181526020016000905b828210156115435783829060005260206000209060090201604051806101200160405290816000820160009054906101000a900473ffffffffffffffffffffffffffffffffffffffff1673ffffffffffffffffffffffffffffffffffffffff1673ffffffffffffffffffffffffffffffffffffffff1681526020016001820180546110f590613ad8565b80601f016020809104026020016040519081016040528092919081815260200182805461112190613ad8565b801561116e5780601f106111435761010080835404028352916020019161116e565b820191906000526020600020905b81548152906001019060200180831161115157829003601f168201915b5050505050815260200160028201805461118790613ad8565b80601f01602080910402602001604051908101604052809291908181526020018280546111b390613ad8565b80156112005780601f106111d557610100808354040283529160200191611200565b820191906000526020600020905b8154815290600101906020018083116111e357829003601f168201915b5050505050815260200160038201805480602002602001604051908101604052809291908181526020016000905b828210156112da57838290600052602060002001805461124d90613ad8565b80601f016020809104026020016040519081016040528092919081815260200182805461127990613ad8565b80156112c65780601f1061129b576101008083540402835291602001916112c6565b820191906000526020600020905b8154815290600101906020018083116112a957829003601f168201915b50505050508152602001906001019061122e565b5050505081526020016004820180546112f290613ad8565b80601f016020809104026020016040519081016040528092919081815260200182805461131e90613ad8565b801561136b5780601f106113405761010080835404028352916020019161136b565b820191906000526020600020905b81548152906001019060200180831161134e57829003601f168201915b5050505050815260200160058201805461138490613ad8565b80601f01602080910402602001604051908101604052809291908181526020018280546113b090613ad8565b80156113fd5780601f106113d2576101008083540402835291602001916113fd565b820191906000526020600020905b8154815290600101906020018083116113e057829003601f168201915b5050505050815260200160068201805461141690613ad8565b80601f016020809104026020016040519081016040528092919081815260200182805461144290613ad8565b801561148f5780601f106114645761010080835404028352916020019161148f565b820191906000526020600020905b81548152906001019060200180831161147257829003601f168201915b50505050508152602001600782015481526020016008820180546114b290613ad8565b80601f01602080910402602001604051908101604052809291908181526020018280546114de90613ad8565b801561152b5780601f106115005761010080835404028352916020019161152b565b820191906000526020600020905b81548152906001019060200180831161150e57829003601f168201915b5050505050815250508152602001906001019061106b565b50505050905090565b6000806002600084815260200190815260200160002060009054906101000a900473ffffffffffffffffffffffffffffffffffffffff169050600073ffffffffffffffffffffffffffffffffffffffff168173ffffffffffffffffffffffffffffffffffffffff1614156115f5576040517f08c379a00000000000000000000000000000000000000000000000000000000081526004016115ec90613726565b60405180910390fd5b80915050919050565b60008073ffffffffffffffffffffffffffffffffffffffff168273ffffffffffffffffffffffffffffffffffffffff16141561166f576040517f08c379a000000000000000000000000000000000000000000000000000000000815260040161166690613706565b60405180910390fd5b600360008373ffffffffffffffffffffffffffffffffffffffff1673ffffffffffffffffffffffffffffffffffffffff168152602001908152602001600020549050919050565b600b6020528060005260406000206000915090505481565b6060600180546116dd90613ad8565b80601f016020809104026020016040519081016040528092919081815260200182805461170990613ad8565b80156117565780601f1061172b57610100808354040283529160200191611756565b820191906000526020600020905b81548152906001019060200180831161173957829003601f168201915b5050505050905090565b60065481565b611778611771611f44565b838361233f565b5050565b61178d611787611f44565b83612005565b6117cc576040517f08c379a00000000000000000000000000000000000000000000000000000000081526004016117c3906137c6565b60405180910390fd5b6117d8848484846124ac565b50505050565b60606000600a6000600e6000868152602001908152602001600020548152602001908152602001600020604051806101200160405290816000820160009054906101000a900473ffffffffffffffffffffffffffffffffffffffff1673ffffffffffffffffffffffffffffffffffffffff1673ffffffffffffffffffffffffffffffffffffffff16815260200160018201805461187a90613ad8565b80601f01602080910402602001604051908101604052809291908181526020018280546118a690613ad8565b80156118f35780601f106118c8576101008083540402835291602001916118f3565b820191906000526020600020905b8154815290600101906020018083116118d657829003601f168201915b5050505050815260200160028201805461190c90613ad8565b80601f016020809104026020016040519081016040528092919081815260200182805461193890613ad8565b80156119855780601f1061195a57610100808354040283529160200191611985565b820191906000526020600020905b81548152906001019060200180831161196857829003601f168201915b5050505050815260200160038201805480602002602001604051908101604052809291908181526020016000905b82821015611a5f5783829060005260206000200180546119d290613ad8565b80601f01602080910402602001604051908101604052809291908181526020018280546119fe90613ad8565b8015611a4b5780601f10611a2057610100808354040283529160200191611a4b565b820191906000526020600020905b815481529060010190602001808311611a2e57829003601f168201915b5050505050815260200190600101906119b3565b505050508152602001600482018054611a7790613ad8565b80601f0160208091040260200160405190810160405280929190818152602001828054611aa390613ad8565b8015611af05780601f10611ac557610100808354040283529160200191611af0565b820191906000526020600020905b815481529060010190602001808311611ad357829003601f168201915b50505050508152602001600582018054611b0990613ad8565b80601f0160208091040260200160405190810160405280929190818152602001828054611b3590613ad8565b8015611b825780601f10611b5757610100808354040283529160200191611b82565b820191906000526020600020905b815481529060010190602001808311611b6557829003601f168201915b50505050508152602001600682018054611b9b90613ad8565b80601f0160208091040260200160405190810160405280929190818152602001828054611bc790613ad8565b8015611c145780601f10611be957610100808354040283529160200191611c14565b820191906000526020600020905b815481529060010190602001808311611bf757829003601f168201915b5050505050815260200160078201548152602001600882018054611c3790613ad8565b80601f0160208091040260200160405190810160405280929190818152602001828054611c6390613ad8565b8015611cb05780601f10611c8557610100808354040283529160200191611cb0565b820191906000526020600020905b815481529060010190602001808311611c9357829003601f168201915b5050505050815250509050806101000151915050919050565b600d6020528060005260406000206000915090505481565b600e6020528060005260406000206000915090505481565b6000600560008473ffffffffffffffffffffffffffffffffffffffff1673ffffffffffffffffffffffffffffffffffffffff16815260200190815260200160002060008373ffffffffffffffffffffffffffffffffffffffff1673ffffffffffffffffffffffffffffffffffffffff16815260200190815260200160002060009054906101000a900460ff16905092915050565b6001816000016000828254019250508190555050565b60007f01ffc9a7000000000000000000000000000000000000000000000000000000007bffffffffffffffffffffffffffffffffffffffffffffffffffffffff1916827bffffffffffffffffffffffffffffffffffffffffffffffffffffffff1916149050919050565b600081600001549050919050565b611e35828260405180602001604052806000815250612508565b5050565b611ed3838383604051602401611e5193929190613601565b6040516020818303038152906040527ff362ca59000000000000000000000000000000000000000000000000000000007bffffffffffffffffffffffffffffffffffffffffffffffffffffffff19166020820180517bffffffffffffffffffffffffffffffffffffffffffffffffffffffff8381831617835250505050612563565b505050565b60008073ffffffffffffffffffffffffffffffffffffffff166002600084815260200190815260200160002060009054906101000a900473ffffffffffffffffffffffffffffffffffffffff1673ffffffffffffffffffffffffffffffffffffffff1614159050919050565b600033905090565b816004600083815260200190815260200160002060006101000a81548173ffffffffffffffffffffffffffffffffffffffff021916908373ffffffffffffffffffffffffffffffffffffffff160217905550808273ffffffffffffffffffffffffffffffffffffffff16611fbf8361154c565b73ffffffffffffffffffffffffffffffffffffffff167f8c5be1e5ebec7d5bd14f71427d1e84f3dd0314c0f7b2291e5b200ac8c7c3b92560405160405180910390a45050565b600061201082611ed8565b61204f576040517f08c379a0000000000000000000000000000000000000000000000000000000008152600401612046906136c6565b60405180910390fd5b600061205a8361154c565b90508073ffffffffffffffffffffffffffffffffffffffff168473ffffffffffffffffffffffffffffffffffffffff1614806120c957508373ffffffffffffffffffffffffffffffffffffffff166120b18461089f565b73ffffffffffffffffffffffffffffffffffffffff16145b806120da57506120d98185611cf9565b5b91505092915050565b8273ffffffffffffffffffffffffffffffffffffffff166121038261154c565b73ffffffffffffffffffffffffffffffffffffffff1614612159576040517f08c379a000000000000000000000000000000000000000000000000000000000815260040161215090613786565b60405180910390fd5b600073ffffffffffffffffffffffffffffffffffffffff168273ffffffffffffffffffffffffffffffffffffffff1614156121c9576040517f08c379a00000000000000000000000000000000000000000000000000000000081526004016121c090613686565b60405180910390fd5b6121d483838361258c565b6121df600082611f4c565b6001600360008573ffffffffffffffffffffffffffffffffffffffff1673ffffffffffffffffffffffffffffffffffffffff168152602001908152602001600020600082825461222f91906139ee565b925050819055506001600360008473ffffffffffffffffffffffffffffffffffffffff1673ffffffffffffffffffffffffffffffffffffffff16815260200190815260200160002060008282546122869190613998565b92505081905550816002600083815260200190815260200160002060006101000a81548173ffffffffffffffffffffffffffffffffffffffff021916908373ffffffffffffffffffffffffffffffffffffffff160217905550808273ffffffffffffffffffffffffffffffffffffffff168473ffffffffffffffffffffffffffffffffffffffff167fddf252ad1be2c89b69c2b068fc378daa952ba7f163c4a11628f55a4df523b3ef60405160405180910390a4505050565b8173ffffffffffffffffffffffffffffffffffffffff168373ffffffffffffffffffffffffffffffffffffffff1614156123ae576040517f08c379a00000000000000000000000000000000000000000000000000000000081526004016123a5906136a6565b60405180910390fd5b80600560008573ffffffffffffffffffffffffffffffffffffffff1673ffffffffffffffffffffffffffffffffffffffff16815260200190815260200160002060008473ffffffffffffffffffffffffffffffffffffffff1673ffffffffffffffffffffffffffffffffffffffff16815260200190815260200160002060006101000a81548160ff0219169083151502179055508173ffffffffffffffffffffffffffffffffffffffff168373ffffffffffffffffffffffffffffffffffffffff167f17307eab39ab6107e8899845ad3d59bd9653f200f220920489ca2b5937696c318360405161249f91906135c4565b60405180910390a3505050565b6124b78484846120e3565b6124c384848484612591565b612502576040517f08c379a00000000000000000000000000000000000000000000000000000000081526004016124f990613646565b60405180910390fd5b50505050565b6125128383612728565b61251f6000848484612591565b61255e576040517f08c379a000000000000000000000000000000000000000000000000000000000815260040161255590613646565b60405180910390fd5b505050565b60008151905060006a636f6e736f6c652e6c6f679050602083016000808483855afa5050505050565b505050565b60006125b28473ffffffffffffffffffffffffffffffffffffffff166128f6565b1561271b578373ffffffffffffffffffffffffffffffffffffffff1663150b7a026125db611f44565b8786866040518563ffffffff1660e01b81526004016125fd94939291906134ae565b602060405180830381600087803b15801561261757600080fd5b505af192505050801561264857506040513d601f19601f820116820180604052508101906126459190612f83565b60015b6126cb573d8060008114612678576040519150601f19603f3d011682016040523d82523d6000602084013e61267d565b606091505b506000815114156126c3576040517f08c379a00000000000000000000000000000000000000000000000000000000081526004016126ba90613646565b60405180910390fd5b805181602001fd5b63150b7a0260e01b7bffffffffffffffffffffffffffffffffffffffffffffffffffffffff1916817bffffffffffffffffffffffffffffffffffffffffffffffffffffffff191614915050612720565b600190505b949350505050565b600073ffffffffffffffffffffffffffffffffffffffff168273ffffffffffffffffffffffffffffffffffffffff161415612798576040517f08c379a000000000000000000000000000000000000000000000000000000000815260040161278f90613746565b60405180910390fd5b6127a181611ed8565b156127e1576040517f08c379a00000000000000000000000000000000000000000000000000000000081526004016127d890613666565b60405180910390fd5b6127ed6000838361258c565b6001600360008473ffffffffffffffffffffffffffffffffffffffff1673ffffffffffffffffffffffffffffffffffffffff168152602001908152602001600020600082825461283d9190613998565b92505081905550816002600083815260200190815260200160002060006101000a81548173ffffffffffffffffffffffffffffffffffffffff021916908373ffffffffffffffffffffffffffffffffffffffff160217905550808273ffffffffffffffffffffffffffffffffffffffff16600073ffffffffffffffffffffffffffffffffffffffff167fddf252ad1be2c89b69c2b068fc378daa952ba7f163c4a11628f55a4df523b3ef60405160405180910390a45050565b600080823b905060008111915050919050565b82805461291590613ad8565b90600052602060002090601f016020900481019282612937576000855561297e565b82601f1061295057805160ff191683800117855561297e565b8280016001018555821561297e579182015b8281111561297d578251825591602001919060010190612962565b5b50905061298b91906129ef565b5090565b8280548282559060005260206000209081019282156129de579160200282015b828111156129dd5782518290805190602001906129cd929190612909565b50916020019190600101906129af565b5b5090506129eb9190612a0c565b5090565b5b80821115612a085760008160009055506001016129f0565b5090565b5b80821115612a2c5760008181612a239190612a30565b50600101612a0d565b5090565b508054612a3c90613ad8565b6000825580601f10612a4e5750612a6d565b601f016020900490600052602060002090810190612a6c91906129ef565b5b50565b6000612a83612a7e8461384f565b61382a565b90508083825260208201905082856020860282011115612aa257600080fd5b60005b85811015612aec57813567ffffffffffffffff811115612ac457600080fd5b808601612ad18982612c1a565b85526020850194506020840193505050600181019050612aa5565b5050509392505050565b6000612b09612b048461387b565b61382a565b905082815260208101848484011115612b2157600080fd5b612b2c848285613a96565b509392505050565b6000612b47612b42846138ac565b61382a565b905082815260208101848484011115612b5f57600080fd5b612b6a848285613a96565b509392505050565b600081359050612b8181613fb3565b92915050565b600082601f830112612b9857600080fd5b8135612ba8848260208601612a70565b91505092915050565b600081359050612bc081613fca565b92915050565b600081359050612bd581613fe1565b92915050565b600081519050612bea81613fe1565b92915050565b600082601f830112612c0157600080fd5b8135612c11848260208601612af6565b91505092915050565b600082601f830112612c2b57600080fd5b8135612c3b848260208601612b34565b91505092915050565b600081359050612c5381613ff8565b92915050565b600060208284031215612c6b57600080fd5b6000612c7984828501612b72565b91505092915050565b60008060408385031215612c9557600080fd5b6000612ca385828601612b72565b9250506020612cb485828601612b72565b9150509250929050565b600080600060608486031215612cd357600080fd5b6000612ce186828701612b72565b9350506020612cf286828701612b72565b9250506040612d0386828701612c44565b9150509250925092565b60008060008060808587031215612d2357600080fd5b6000612d3187828801612b72565b9450506020612d4287828801612b72565b9350506040612d5387828801612c44565b925050606085013567ffffffffffffffff811115612d7057600080fd5b612d7c87828801612bf0565b91505092959194509250565b60008060408385031215612d9b57600080fd5b6000612da985828601612b72565b9250506020612dba85828601612bb1565b9150509250929050565b600080600080600080600080610100898b031215612de157600080fd5b6000612def8b828c01612b72565b985050602089013567ffffffffffffffff811115612e0c57600080fd5b612e188b828c01612c1a565b975050604089013567ffffffffffffffff811115612e3557600080fd5b612e418b828c01612c1a565b965050606089013567ffffffffffffffff811115612e5e57600080fd5b612e6a8b828c01612b87565b955050608089013567ffffffffffffffff811115612e8757600080fd5b612e938b828c01612c1a565b94505060a089013567ffffffffffffffff811115612eb057600080fd5b612ebc8b828c01612c1a565b93505060c089013567ffffffffffffffff811115612ed957600080fd5b612ee58b828c01612c1a565b92505060e089013567ffffffffffffffff811115612f0257600080fd5b612f0e8b828c01612c1a565b9150509295985092959890939650565b60008060408385031215612f3157600080fd5b6000612f3f85828601612b72565b9250506020612f5085828601612c44565b9150509250929050565b600060208284031215612f6c57600080fd5b6000612f7a84828501612bc6565b91505092915050565b600060208284031215612f9557600080fd5b6000612fa384828501612bdb565b91505092915050565b600060208284031215612fbe57600080fd5b6000612fcc84828501612c44565b91505092915050565b6000612fe1838361314d565b905092915050565b6000612ff58383613386565b905092915050565b61300681613a22565b82525050565b61301581613a22565b82525050565b6000613026826138fd565b6130308185613943565b935083602082028501613042856138dd565b8060005b8581101561307e578484038952815161305f8582612fd5565b945061306a83613929565b925060208a01995050600181019050613046565b50829750879550505050505092915050565b600061309b82613908565b6130a58185613954565b9350836020820285016130b7856138ed565b8060005b858110156130f357848403895281516130d48582612fe9565b94506130df83613936565b925060208a019950506001810190506130bb565b50829750879550505050505092915050565b61310e81613a34565b82525050565b600061311f82613913565b6131298185613965565b9350613139818560208601613aa5565b61314281613c11565b840191505092915050565b60006131588261391e565b6131628185613976565b9350613172818560208601613aa5565b61317b81613c11565b840191505092915050565b60006131918261391e565b61319b8185613987565b93506131ab818560208601613aa5565b6131b481613c11565b840191505092915050565b60006131cc603283613987565b91506131d782613c22565b604082019050919050565b60006131ef601c83613987565b91506131fa82613c71565b602082019050919050565b6000613212602483613987565b915061321d82613c9a565b604082019050919050565b6000613235601983613987565b915061324082613ce9565b602082019050919050565b6000613258602c83613987565b915061326382613d12565b604082019050919050565b600061327b603883613987565b915061328682613d61565b604082019050919050565b600061329e602a83613987565b91506132a982613db0565b604082019050919050565b60006132c1602983613987565b91506132cc82613dff565b604082019050919050565b60006132e4602083613987565b91506132ef82613e4e565b602082019050919050565b6000613307602c83613987565b915061331282613e77565b604082019050919050565b600061332a602983613987565b915061333582613ec6565b604082019050919050565b600061334d602183613987565b915061335882613f15565b604082019050919050565b6000613370603183613987565b915061337b82613f64565b604082019050919050565b60006101208301600083015161339f6000860182612ffd565b50602083015184820360208601526133b7828261314d565b915050604083015184820360408601526133d1828261314d565b915050606083015184820360608601526133eb828261301b565b91505060808301518482036080860152613405828261314d565b91505060a083015184820360a086015261341f828261314d565b91505060c083015184820360c0860152613439828261314d565b91505060e083015161344e60e0860182613475565b50610100830151848203610100860152613468828261314d565b9150508091505092915050565b61347e81613a8c565b82525050565b61348d81613a8c565b82525050565b60006020820190506134a8600083018461300c565b92915050565b60006080820190506134c3600083018761300c565b6134d0602083018661300c565b6134dd6040830185613484565b81810360608301526134ef8184613114565b905095945050505050565b600061010082019050613510600083018b61300c565b8181036020830152613522818a613186565b905081810360408301526135368189613186565b9050818103606083015261354a8188613186565b9050818103608083015261355e8187613186565b905081810360a08301526135728186613186565b905061358160c0830185613484565b81810360e08301526135938184613186565b90509998505050505050505050565b600060208201905081810360008301526135bc8184613090565b905092915050565b60006020820190506135d96000830184613105565b92915050565b600060208201905081810360008301526135f98184613186565b905092915050565b6000606082019050818103600083015261361b8186613186565b9050818103602083015261362f8185613186565b905061363e6040830184613484565b949350505050565b6000602082019050818103600083015261365f816131bf565b9050919050565b6000602082019050818103600083015261367f816131e2565b9050919050565b6000602082019050818103600083015261369f81613205565b9050919050565b600060208201905081810360008301526136bf81613228565b9050919050565b600060208201905081810360008301526136df8161324b565b9050919050565b600060208201905081810360008301526136ff8161326e565b9050919050565b6000602082019050818103600083015261371f81613291565b9050919050565b6000602082019050818103600083015261373f816132b4565b9050919050565b6000602082019050818103600083015261375f816132d7565b9050919050565b6000602082019050818103600083015261377f816132fa565b9050919050565b6000602082019050818103600083015261379f8161331d565b9050919050565b600060208201905081810360008301526137bf81613340565b9050919050565b600060208201905081810360008301526137df81613363565b9050919050565b60006020820190506137fb6000830184613484565b92915050565b60006040820190506138166000830185613484565b6138236020830184613484565b9392505050565b6000613834613845565b90506138408282613b0a565b919050565b6000604051905090565b600067ffffffffffffffff82111561386a57613869613be2565b5b602082029050602081019050919050565b600067ffffffffffffffff82111561389657613895613be2565b5b61389f82613c11565b9050602081019050919050565b600067ffffffffffffffff8211156138c7576138c6613be2565b5b6138d082613c11565b9050602081019050919050565b6000819050602082019050919050565b6000819050602082019050919050565b600081519050919050565b600081519050919050565b600081519050919050565b600081519050919050565b6000602082019050919050565b6000602082019050919050565b600082825260208201905092915050565b600082825260208201905092915050565b600082825260208201905092915050565b600082825260208201905092915050565b600082825260208201905092915050565b60006139a382613a8c565b91506139ae83613a8c565b9250827fffffffffffffffffffffffffffffffffffffffffffffffffffffffffffffffff038211156139e3576139e2613b84565b5b828201905092915050565b60006139f982613a8c565b9150613a0483613a8c565b925082821015613a1757613a16613b84565b5b828203905092915050565b6000613a2d82613a6c565b9050919050565b60008115159050919050565b60007fffffffff0000000000000000000000000000000000000000000000000000000082169050919050565b600073ffffffffffffffffffffffffffffffffffffffff82169050919050565b6000819050919050565b82818337600083830152505050565b60005b83811015613ac3578082015181840152602081019050613aa8565b83811115613ad2576000848401525b50505050565b60006002820490506001821680613af057607f821691505b60208210811415613b0457613b03613bb3565b5b50919050565b613b1382613c11565b810181811067ffffffffffffffff82111715613b3257613b31613be2565b5b80604052505050565b6000613b4682613a8c565b91507fffffffffffffffffffffffffffffffffffffffffffffffffffffffffffffffff821415613b7957613b78613b84565b5b600182019050919050565b7f4e487b7100000000000000000000000000000000000000000000000000000000600052601160045260246000fd5b7f4e487b7100000000000000000000000000000000000000000000000000000000600052602260045260246000fd5b7f4e487b7100000000000000000000000000000000000000000000000000000000600052604160045260246000fd5b6000601f19601f8301169050919050565b7f4552433732313a207472616e7366657220746f206e6f6e20455243373231526560008201527f63656976657220696d706c656d656e7465720000000000000000000000000000602082015250565b7f4552433732313a20746f6b656e20616c7265616479206d696e74656400000000600082015250565b7f4552433732313a207472616e7366657220746f20746865207a65726f2061646460008201527f7265737300000000000000000000000000000000000000000000000000000000602082015250565b7f4552433732313a20617070726f766520746f2063616c6c657200000000000000600082015250565b7f4552433732313a206f70657261746f7220717565727920666f72206e6f6e657860008201527f697374656e7420746f6b656e0000000000000000000000000000000000000000602082015250565b7f4552433732313a20617070726f76652063616c6c6572206973206e6f74206f7760008201527f6e6572206e6f7220617070726f76656420666f7220616c6c0000000000000000602082015250565b7f4552433732313a2062616c616e636520717565727920666f7220746865207a6560008201527f726f206164647265737300000000000000000000000000000000000000000000602082015250565b7f4552433732313a206f776e657220717565727920666f72206e6f6e657869737460008201527f656e7420746f6b656e0000000000000000000000000000000000000000000000602082015250565b7f4552433732313a206d696e7420746f20746865207a65726f2061646472657373600082015250565b7f4552433732313a20617070726f76656420717565727920666f72206e6f6e657860008201527f697374656e7420746f6b656e0000000000000000000000000000000000000000602082015250565b7f4552433732313a207472616e73666572206f6620746f6b656e2074686174206960008201527f73206e6f74206f776e0000000000000000000000000000000000000000000000602082015250565b7f4552433732313a20617070726f76616c20746f2063757272656e74206f776e6560008201527f7200000000000000000000000000000000000000000000000000000000000000602082015250565b7f4552433732313a207472616e736665722063616c6c6572206973206e6f74206f60008201527f776e6572206e6f7220617070726f766564000000000000000000000000000000602082015250565b613fbc81613a22565b8114613fc757600080fd5b50565b613fd381613a34565b8114613fde57600080fd5b50565b613fea81613a40565b8114613ff557600080fd5b50565b61400181613a8c565b811461400c57600080fd5b5056fe2a2a2a2a2a2a4d696e746564202573204e465420772f20746f6b656e4964202573202a2a2a2a2a2aa2646970667358221220b6e3f42e22947b7081b4e1128c9f697f2e9652b99ad9ab0693427308bbc9e62564736f6c63430008040033",
  "linkReferences": {},
  "deployedLinkReferences": {}
}