{
  "_format": "hh-sol-artifact-1",
  "contractName": "Phlote",
  "sourceName": "contracts/Phlote.sol",
  "abi": [
    {
      "inputs": [],
      "stateMutability": "nonpayable",
      "type": "constructor"
    },
    {
      "anonymous": false,
      "inputs": [
        {
          "indexed": true,
          "internalType": "address",
          "name": "owner",
          "type": "address"
        },
        {
          "indexed": true,
          "internalType": "address",
          "name": "approved",
          "type": "address"
        },
        {
          "indexed": true,
          "internalType": "uint256",
          "name": "tokenId",
          "type": "uint256"
        }
      ],
      "name": "Approval",
      "type": "event"
    },
    {
      "anonymous": false,
      "inputs": [
        {
          "indexed": true,
          "internalType": "address",
          "name": "owner",
          "type": "address"
        },
        {
          "indexed": true,
          "internalType": "address",
          "name": "operator",
          "type": "address"
        },
        {
          "indexed": false,
          "internalType": "bool",
          "name": "approved",
          "type": "bool"
        }
      ],
      "name": "ApprovalForAll",
      "type": "event"
    },
    {
      "anonymous": false,
      "inputs": [
        {
          "indexed": false,
          "internalType": "address",
          "name": "sender",
          "type": "address"
        },
        {
          "indexed": true,
          "internalType": "uint256",
          "name": "editionId",
          "type": "uint256"
        }
      ],
      "name": "EditionCreated",
      "type": "event"
    },
    {
      "anonymous": false,
      "inputs": [
        {
          "indexed": true,
          "internalType": "address",
          "name": "buyer",
          "type": "address"
        },
        {
          "indexed": false,
          "internalType": "uint256",
          "name": "tokenId",
          "type": "uint256"
        },
        {
          "indexed": false,
          "internalType": "uint256",
          "name": "numSold",
          "type": "uint256"
        }
      ],
      "name": "EditionMinted",
      "type": "event"
    },
    {
      "anonymous": false,
      "inputs": [
        {
          "indexed": true,
          "internalType": "address",
          "name": "previousOwner",
          "type": "address"
        },
        {
          "indexed": true,
          "internalType": "address",
          "name": "newOwner",
          "type": "address"
        }
      ],
      "name": "OwnershipTransferred",
      "type": "event"
    },
    {
      "anonymous": false,
      "inputs": [
        {
          "indexed": true,
          "internalType": "address",
          "name": "from",
          "type": "address"
        },
        {
          "indexed": true,
          "internalType": "address",
          "name": "to",
          "type": "address"
        },
        {
          "indexed": true,
          "internalType": "uint256",
          "name": "tokenId",
          "type": "uint256"
        }
      ],
      "name": "Transfer",
      "type": "event"
    },
    {
      "inputs": [
        {
          "internalType": "address",
          "name": "to",
          "type": "address"
        },
        {
          "internalType": "uint256",
          "name": "tokenId",
          "type": "uint256"
        }
      ],
      "name": "approve",
      "outputs": [],
      "stateMutability": "nonpayable",
      "type": "function"
    },
    {
      "inputs": [
        {
          "internalType": "address",
          "name": "owner",
          "type": "address"
        }
      ],
      "name": "balanceOf",
      "outputs": [
        {
          "internalType": "uint256",
          "name": "",
          "type": "uint256"
        }
      ],
      "stateMutability": "view",
      "type": "function"
    },
    {
      "inputs": [],
      "name": "contractPrice",
      "outputs": [
        {
          "internalType": "uint256",
          "name": "",
          "type": "uint256"
        }
      ],
      "stateMutability": "view",
      "type": "function"
    },
    {
      "inputs": [
        {
          "internalType": "address",
          "name": "",
          "type": "address"
        },
        {
          "internalType": "uint256",
          "name": "",
          "type": "uint256"
        }
      ],
      "name": "curatorSubmissions",
      "outputs": [
        {
          "internalType": "address",
          "name": "curatorWallet",
          "type": "address"
        },
        {
          "internalType": "address",
          "name": "artistWallet",
          "type": "address"
        },
        {
          "internalType": "string",
          "name": "mediaURI",
          "type": "string"
        },
        {
          "internalType": "string",
          "name": "marketplace",
          "type": "string"
        },
        {
          "internalType": "string",
          "name": "artistName",
          "type": "string"
        },
        {
          "internalType": "string",
          "name": "mediaType",
          "type": "string"
        },
        {
          "internalType": "string",
          "name": "mediaTitle",
          "type": "string"
        },
        {
          "internalType": "uint256",
          "name": "numSold",
          "type": "uint256"
        },
        {
          "internalType": "string",
          "name": "tokenURI",
          "type": "string"
        },
        {
          "internalType": "uint256",
          "name": "submissionTime",
          "type": "uint256"
        }
      ],
      "stateMutability": "view",
      "type": "function"
    },
    {
      "inputs": [
        {
          "internalType": "uint256",
          "name": "",
          "type": "uint256"
        }
      ],
      "name": "editions",
      "outputs": [
        {
          "internalType": "address",
          "name": "curatorWallet",
          "type": "address"
        },
        {
          "internalType": "address",
          "name": "artistWallet",
          "type": "address"
        },
        {
          "internalType": "string",
          "name": "mediaURI",
          "type": "string"
        },
        {
          "internalType": "string",
          "name": "marketplace",
          "type": "string"
        },
        {
          "internalType": "string",
          "name": "artistName",
          "type": "string"
        },
        {
          "internalType": "string",
          "name": "mediaType",
          "type": "string"
        },
        {
          "internalType": "string",
          "name": "mediaTitle",
          "type": "string"
        },
        {
          "internalType": "uint256",
          "name": "numSold",
          "type": "uint256"
        },
        {
          "internalType": "string",
          "name": "tokenURI",
          "type": "string"
        },
        {
          "internalType": "uint256",
          "name": "submissionTime",
          "type": "uint256"
        }
      ],
      "stateMutability": "view",
      "type": "function"
    },
    {
      "inputs": [],
      "name": "getAllCurations",
      "outputs": [
        {
          "components": [
            {
              "internalType": "address",
              "name": "curatorWallet",
              "type": "address"
            },
            {
              "internalType": "address",
              "name": "artistWallet",
              "type": "address"
            },
            {
              "internalType": "string",
              "name": "mediaURI",
              "type": "string"
            },
            {
              "internalType": "string",
              "name": "marketplace",
              "type": "string"
            },
            {
              "internalType": "string[]",
              "name": "tags",
              "type": "string[]"
            },
            {
              "internalType": "string",
              "name": "artistName",
              "type": "string"
            },
            {
              "internalType": "string",
              "name": "mediaType",
              "type": "string"
            },
            {
              "internalType": "string",
              "name": "mediaTitle",
              "type": "string"
            },
            {
              "internalType": "uint256",
              "name": "numSold",
              "type": "uint256"
            },
            {
              "internalType": "string",
              "name": "tokenURI",
              "type": "string"
            },
            {
              "internalType": "uint256",
              "name": "submissionTime",
              "type": "uint256"
            }
          ],
          "internalType": "struct Phlote.Edition[]",
          "name": "",
          "type": "tuple[]"
        }
      ],
      "stateMutability": "view",
      "type": "function"
    },
    {
      "inputs": [
        {
          "internalType": "uint256",
          "name": "tokenId",
          "type": "uint256"
        }
      ],
      "name": "getApproved",
      "outputs": [
        {
          "internalType": "address",
          "name": "",
          "type": "address"
        }
      ],
      "stateMutability": "view",
      "type": "function"
    },
    {
      "inputs": [
        {
          "internalType": "address",
          "name": "_curatorWallet",
          "type": "address"
        }
      ],
      "name": "getCuratorSubmissions",
      "outputs": [
        {
          "components": [
            {
              "internalType": "address",
              "name": "curatorWallet",
              "type": "address"
            },
            {
              "internalType": "address",
              "name": "artistWallet",
              "type": "address"
            },
            {
              "internalType": "string",
              "name": "mediaURI",
              "type": "string"
            },
            {
              "internalType": "string",
              "name": "marketplace",
              "type": "string"
            },
            {
              "internalType": "string[]",
              "name": "tags",
              "type": "string[]"
            },
            {
              "internalType": "string",
              "name": "artistName",
              "type": "string"
            },
            {
              "internalType": "string",
              "name": "mediaType",
              "type": "string"
            },
            {
              "internalType": "string",
              "name": "mediaTitle",
              "type": "string"
            },
            {
              "internalType": "uint256",
              "name": "numSold",
              "type": "uint256"
            },
            {
              "internalType": "string",
              "name": "tokenURI",
              "type": "string"
            },
            {
              "internalType": "uint256",
              "name": "submissionTime",
              "type": "uint256"
            }
          ],
          "internalType": "struct Phlote.Edition[]",
          "name": "",
          "type": "tuple[]"
        }
      ],
      "stateMutability": "view",
      "type": "function"
    },
    {
      "inputs": [
        {
          "internalType": "address",
          "name": "owner",
          "type": "address"
        },
        {
          "internalType": "address",
          "name": "operator",
          "type": "address"
        }
      ],
      "name": "isApprovedForAll",
      "outputs": [
        {
          "internalType": "bool",
          "name": "",
          "type": "bool"
        }
      ],
      "stateMutability": "view",
      "type": "function"
    },
    {
      "inputs": [
        {
          "internalType": "uint256",
          "name": "editionId",
          "type": "uint256"
        }
      ],
      "name": "mintEdition",
      "outputs": [],
      "stateMutability": "payable",
      "type": "function"
    },
    {
      "inputs": [],
      "name": "name",
      "outputs": [
        {
          "internalType": "string",
          "name": "",
          "type": "string"
        }
      ],
      "stateMutability": "view",
      "type": "function"
    },
    {
      "inputs": [
        {
          "internalType": "address",
          "name": "",
          "type": "address"
        }
      ],
      "name": "nftHolders",
      "outputs": [
        {
          "internalType": "uint256",
          "name": "",
          "type": "uint256"
        }
      ],
      "stateMutability": "view",
      "type": "function"
    },
    {
      "inputs": [],
      "name": "owner",
      "outputs": [
        {
          "internalType": "address",
          "name": "",
          "type": "address"
        }
      ],
      "stateMutability": "view",
      "type": "function"
    },
    {
      "inputs": [
        {
          "internalType": "uint256",
          "name": "tokenId",
          "type": "uint256"
        }
      ],
      "name": "ownerOf",
      "outputs": [
        {
          "internalType": "address",
          "name": "",
          "type": "address"
        }
      ],
      "stateMutability": "view",
      "type": "function"
    },
    {
      "inputs": [],
      "name": "renounceOwnership",
      "outputs": [],
      "stateMutability": "nonpayable",
      "type": "function"
    },
    {
      "inputs": [
        {
          "internalType": "address",
          "name": "from",
          "type": "address"
        },
        {
          "internalType": "address",
          "name": "to",
          "type": "address"
        },
        {
          "internalType": "uint256",
          "name": "tokenId",
          "type": "uint256"
        }
      ],
      "name": "safeTransferFrom",
      "outputs": [],
      "stateMutability": "nonpayable",
      "type": "function"
    },
    {
      "inputs": [
        {
          "internalType": "address",
          "name": "from",
          "type": "address"
        },
        {
          "internalType": "address",
          "name": "to",
          "type": "address"
        },
        {
          "internalType": "uint256",
          "name": "tokenId",
          "type": "uint256"
        },
        {
          "internalType": "bytes",
          "name": "_data",
          "type": "bytes"
        }
      ],
      "name": "safeTransferFrom",
      "outputs": [],
      "stateMutability": "nonpayable",
      "type": "function"
    },
    {
      "inputs": [
        {
          "internalType": "address",
          "name": "operator",
          "type": "address"
        },
        {
          "internalType": "bool",
          "name": "approved",
          "type": "bool"
        }
      ],
      "name": "setApprovalForAll",
      "outputs": [],
      "stateMutability": "nonpayable",
      "type": "function"
    },
    {
      "inputs": [
        {
          "internalType": "address",
          "name": "_curatorWallet",
          "type": "address"
        },
        {
          "internalType": "string",
          "name": "_mediaURI",
          "type": "string"
        },
        {
          "internalType": "string",
          "name": "_marketplace",
          "type": "string"
        },
        {
          "internalType": "string[]",
          "name": "_tags",
          "type": "string[]"
        },
        {
          "internalType": "string",
          "name": "_artistName",
          "type": "string"
        },
        {
          "internalType": "address",
          "name": "_artistWallet",
          "type": "address"
        },
        {
          "internalType": "string",
          "name": "_mediaType",
          "type": "string"
        },
        {
          "internalType": "string",
          "name": "_mediaTitle",
          "type": "string"
        },
        {
          "internalType": "string",
          "name": "_tokenURI",
          "type": "string"
        }
      ],
      "name": "submitPost",
      "outputs": [],
      "stateMutability": "nonpayable",
      "type": "function"
    },
    {
      "inputs": [
        {
          "internalType": "bytes4",
          "name": "interfaceId",
          "type": "bytes4"
        }
      ],
      "name": "supportsInterface",
      "outputs": [
        {
          "internalType": "bool",
          "name": "",
          "type": "bool"
        }
      ],
      "stateMutability": "view",
      "type": "function"
    },
    {
      "inputs": [],
      "name": "symbol",
      "outputs": [
        {
          "internalType": "string",
          "name": "",
          "type": "string"
        }
      ],
      "stateMutability": "view",
      "type": "function"
    },
    {
      "inputs": [
        {
          "internalType": "uint256",
          "name": "",
          "type": "uint256"
        }
      ],
      "name": "tokenToSong",
      "outputs": [
        {
          "internalType": "uint256",
          "name": "",
          "type": "uint256"
        }
      ],
      "stateMutability": "view",
      "type": "function"
    },
    {
      "inputs": [
        {
          "internalType": "uint256",
          "name": "_tokenId",
          "type": "uint256"
        }
      ],
      "name": "tokenURI",
      "outputs": [
        {
          "internalType": "string",
          "name": "",
          "type": "string"
        }
      ],
      "stateMutability": "view",
      "type": "function"
    },
    {
      "inputs": [
        {
          "internalType": "address",
          "name": "from",
          "type": "address"
        },
        {
          "internalType": "address",
          "name": "to",
          "type": "address"
        },
        {
          "internalType": "uint256",
          "name": "tokenId",
          "type": "uint256"
        }
      ],
      "name": "transferFrom",
      "outputs": [],
      "stateMutability": "nonpayable",
      "type": "function"
    },
    {
      "inputs": [
        {
          "internalType": "address",
          "name": "newOwner",
          "type": "address"
        }
      ],
      "name": "transferOwnership",
      "outputs": [],
      "stateMutability": "nonpayable",
      "type": "function"
    },
    {
      "inputs": [
        {
          "internalType": "uint256",
          "name": "",
          "type": "uint256"
        }
      ],
      "name": "withdrawnForEdition",
      "outputs": [
        {
          "internalType": "uint256",
          "name": "",
          "type": "uint256"
        }
      ],
      "stateMutability": "view",
      "type": "function"
    }
  ],
  "bytecode": "0x608060405260016009553480156200001657600080fd5b506040518060400160405280600781526020017f636f6e74656e74000000000000000000000000000000000000000000000000008152506040518060400160405280600481526020017f534f4e470000000000000000000000000000000000000000000000000000000081525081600090805190602001906200009b929190620001d8565b508060019080519060200190620000b4929190620001d8565b505050620000d7620000cb620000f460201b60201c565b620000fc60201b60201c565b620000ee6008620001c260201b62002ee41760201c565b620002ed565b600033905090565b6000600660009054906101000a900473ffffffffffffffffffffffffffffffffffffffff16905081600660006101000a81548173ffffffffffffffffffffffffffffffffffffffff021916908373ffffffffffffffffffffffffffffffffffffffff1602179055508173ffffffffffffffffffffffffffffffffffffffff168173ffffffffffffffffffffffffffffffffffffffff167f8be0079c531659141344cd1fd0a4f28419497f9722a3daafe3b4186f6b6457e060405160405180910390a35050565b6001816000016000828254019250508190555050565b828054620001e69062000288565b90600052602060002090601f0160209004810192826200020a576000855562000256565b82601f106200022557805160ff191683800117855562000256565b8280016001018555821562000256579182015b828111156200025557825182559160200191906001019062000238565b5b50905062000265919062000269565b5090565b5b80821115620002845760008160009055506001016200026a565b5090565b60006002820490506001821680620002a157607f821691505b60208210811415620002b857620002b7620002be565b5b50919050565b7f4e487b7100000000000000000000000000000000000000000000000000000000600052602260045260246000fd5b6153e480620002fd6000396000f3fe6080604052600436106101815760003560e01c806370a08231116100d1578063a22cb4651161008a578063d3bb052811610064578063d3bb0528146105bd578063e2b18d3f146105fa578063e985e9c514610637578063f2fde38b1461067457610181565b8063a22cb4651461052e578063b88d4fde14610557578063c87b56dd1461058057610181565b806370a082311461041c578063715018a6146104595780637df124a1146104705780638da5cb5b146104ad57806395d89b41146104d857806397e9a0bf1461050357610181565b80631cfbcd5b1161013e57806342842e0e1161011857806342842e0e1461035057806353301ecf146103795780636352211e146103b65780636b165854146103f357610181565b80631cfbcd5b146102b657806323b872dd146102e1578063279c806e1461030a57610181565b806301ffc9a71461018657806305322b74146101c357806306fdde03146101df578063081812fc1461020a578063095ea7b3146102475780631125c32014610270575b600080fd5b34801561019257600080fd5b506101ad60048036038101906101a8919061418b565b61069d565b6040516101ba9190614883565b60405180910390f35b6101dd60048036038101906101d891906141dd565b61077f565b005b3480156101eb57600080fd5b506101f4610954565b604051610201919061489e565b60405180910390f35b34801561021657600080fd5b50610231600480360381019061022c91906141dd565b6109e6565b60405161023e9190614734565b60405180910390f35b34801561025357600080fd5b5061026e6004803603810190610269919061414f565b610a6b565b005b34801561027c57600080fd5b506102976004803603810190610292919061414f565b610b83565b6040516102ad9a9998979695949392919061474f565b60405180910390f35b3480156102c257600080fd5b506102cb610f64565b6040516102d89190614861565b60405180910390f35b3480156102ed57600080fd5b5061030860048036038101906103039190613edb565b6114c9565b005b34801561031657600080fd5b50610331600480360381019061032c91906141dd565b611529565b6040516103479a9998979695949392919061474f565b60405180910390f35b34801561035c57600080fd5b5061037760048036038101906103729190613edb565b6118ed565b005b34801561038557600080fd5b506103a0600480360381019061039b9190613e76565b61190d565b6040516103ad9190614861565b60405180910390f35b3480156103c257600080fd5b506103dd60048036038101906103d891906141dd565b611eb1565b6040516103ea9190614734565b60405180910390f35b3480156103ff57600080fd5b5061041a60048036038101906104159190613fe1565b611f63565b005b34801561042857600080fd5b50610443600480360381019061043e9190613e76565b61254b565b6040516104509190614ae5565b60405180910390f35b34801561046557600080fd5b5061046e612603565b005b34801561047c57600080fd5b5061049760048036038101906104929190613e76565b61268b565b6040516104a49190614ae5565b60405180910390f35b3480156104b957600080fd5b506104c26126a3565b6040516104cf9190614734565b60405180910390f35b3480156104e457600080fd5b506104ed6126cd565b6040516104fa919061489e565b60405180910390f35b34801561050f57600080fd5b5061051861275f565b6040516105259190614ae5565b60405180910390f35b34801561053a57600080fd5b5061055560048036038101906105509190613fa5565b612765565b005b34801561056357600080fd5b5061057e60048036038101906105799190613f2a565b61277b565b005b34801561058c57600080fd5b506105a760048036038101906105a291906141dd565b6127dd565b6040516105b4919061489e565b60405180910390f35b3480156105c957600080fd5b506105e460048036038101906105df91906141dd565b612d28565b6040516105f19190614ae5565b60405180910390f35b34801561060657600080fd5b50610621600480360381019061061c91906141dd565b612d40565b60405161062e9190614ae5565b60405180910390f35b34801561064357600080fd5b5061065e60048036038101906106599190613e9f565b612d58565b60405161066b9190614883565b60405180910390f35b34801561068057600080fd5b5061069b60048036038101906106969190613e76565b612dec565b005b60007f80ac58cd000000000000000000000000000000000000000000000000000000007bffffffffffffffffffffffffffffffffffffffffffffffffffffffff1916827bffffffffffffffffffffffffffffffffffffffffffffffffffffffff1916148061076857507f5b5e139f000000000000000000000000000000000000000000000000000000007bffffffffffffffffffffffffffffffffffffffffffffffffffffffff1916827bffffffffffffffffffffffffffffffffffffffffffffffffffffffff1916145b80610778575061077782612efa565b5b9050919050565b600061078b6008612f64565b90506107973382612f72565b61085860405180606001604052806028815260200161538760289139600b600085815260200190815260200160002060070180546107d490614dd7565b80601f016020809104026020016040519081016040528092919081815260200182805461080090614dd7565b801561084d5780601f106108225761010080835404028352916020019161084d565b820191906000526020600020905b81548152906001019060200180831161083057829003601f168201915b505050505083612f90565b80600c60003373ffffffffffffffffffffffffffffffffffffffff1673ffffffffffffffffffffffffffffffffffffffff168152602001908152602001600020819055506108a66008612ee4565b600b600083815260200190815260200160002060080160008154809291906108cd90614e3a565b919050555081600f6000838152602001908152602001600020819055503373ffffffffffffffffffffffffffffffffffffffff167fe1b60c9e07632933648666e5ede8b3b329ddfa2ab98c51b1a5b4b22ab4f1349c82600b600086815260200190815260200160002060080154604051610948929190614b00565b60405180910390a25050565b60606000805461096390614dd7565b80601f016020809104026020016040519081016040528092919081815260200182805461098f90614dd7565b80156109dc5780601f106109b1576101008083540402835291602001916109dc565b820191906000526020600020905b8154815290600101906020018083116109bf57829003601f168201915b5050505050905090565b60006109f18261302f565b610a30576040517f08c379a0000000000000000000000000000000000000000000000000000000008152600401610a2790614a45565b60405180910390fd5b6004600083815260200190815260200160002060009054906101000a900473ffffffffffffffffffffffffffffffffffffffff169050919050565b6000610a7682611eb1565b90508073ffffffffffffffffffffffffffffffffffffffff168373ffffffffffffffffffffffffffffffffffffffff161415610ae7576040517f08c379a0000000000000000000000000000000000000000000000000000000008152600401610ade90614aa5565b60405180910390fd5b8073ffffffffffffffffffffffffffffffffffffffff16610b0661309b565b73ffffffffffffffffffffffffffffffffffffffff161480610b355750610b3481610b2f61309b565b612d58565b5b610b74576040517f08c379a0000000000000000000000000000000000000000000000000000000008152600401610b6b906149c5565b60405180910390fd5b610b7e83836130a3565b505050565b600d6020528160005260406000208181548110610b9f57600080fd5b90600052602060002090600b0201600091509150508060000160009054906101000a900473ffffffffffffffffffffffffffffffffffffffff16908060010160009054906101000a900473ffffffffffffffffffffffffffffffffffffffff1690806002018054610c0f90614dd7565b80601f0160208091040260200160405190810160405280929190818152602001828054610c3b90614dd7565b8015610c885780601f10610c5d57610100808354040283529160200191610c88565b820191906000526020600020905b815481529060010190602001808311610c6b57829003601f168201915b505050505090806003018054610c9d90614dd7565b80601f0160208091040260200160405190810160405280929190818152602001828054610cc990614dd7565b8015610d165780601f10610ceb57610100808354040283529160200191610d16565b820191906000526020600020905b815481529060010190602001808311610cf957829003601f168201915b505050505090806005018054610d2b90614dd7565b80601f0160208091040260200160405190810160405280929190818152602001828054610d5790614dd7565b8015610da45780601f10610d7957610100808354040283529160200191610da4565b820191906000526020600020905b815481529060010190602001808311610d8757829003601f168201915b505050505090806006018054610db990614dd7565b80601f0160208091040260200160405190810160405280929190818152602001828054610de590614dd7565b8015610e325780601f10610e0757610100808354040283529160200191610e32565b820191906000526020600020905b815481529060010190602001808311610e1557829003601f168201915b505050505090806007018054610e4790614dd7565b80601f0160208091040260200160405190810160405280929190818152602001828054610e7390614dd7565b8015610ec05780601f10610e9557610100808354040283529160200191610ec0565b820191906000526020600020905b815481529060010190602001808311610ea357829003601f168201915b505050505090806008015490806009018054610edb90614dd7565b80601f0160208091040260200160405190810160405280929190818152602001828054610f0790614dd7565b8015610f545780601f10610f2957610100808354040283529160200191610f54565b820191906000526020600020905b815481529060010190602001808311610f3757829003601f168201915b50505050509080600a015490508a565b6060600a805480602002602001604051908101604052809291908181526020016000905b828210156114c057838290600052602060002090600b0201604051806101600160405290816000820160009054906101000a900473ffffffffffffffffffffffffffffffffffffffff1673ffffffffffffffffffffffffffffffffffffffff1673ffffffffffffffffffffffffffffffffffffffff1681526020016001820160009054906101000a900473ffffffffffffffffffffffffffffffffffffffff1673ffffffffffffffffffffffffffffffffffffffff1673ffffffffffffffffffffffffffffffffffffffff16815260200160028201805461106890614dd7565b80601f016020809104026020016040519081016040528092919081815260200182805461109490614dd7565b80156110e15780601f106110b6576101008083540402835291602001916110e1565b820191906000526020600020905b8154815290600101906020018083116110c457829003601f168201915b505050505081526020016003820180546110fa90614dd7565b80601f016020809104026020016040519081016040528092919081815260200182805461112690614dd7565b80156111735780601f1061114857610100808354040283529160200191611173565b820191906000526020600020905b81548152906001019060200180831161115657829003601f168201915b5050505050815260200160048201805480602002602001604051908101604052809291908181526020016000905b8282101561124d5783829060005260206000200180546111c090614dd7565b80601f01602080910402602001604051908101604052809291908181526020018280546111ec90614dd7565b80156112395780601f1061120e57610100808354040283529160200191611239565b820191906000526020600020905b81548152906001019060200180831161121c57829003601f168201915b5050505050815260200190600101906111a1565b50505050815260200160058201805461126590614dd7565b80601f016020809104026020016040519081016040528092919081815260200182805461129190614dd7565b80156112de5780601f106112b3576101008083540402835291602001916112de565b820191906000526020600020905b8154815290600101906020018083116112c157829003601f168201915b505050505081526020016006820180546112f790614dd7565b80601f016020809104026020016040519081016040528092919081815260200182805461132390614dd7565b80156113705780601f1061134557610100808354040283529160200191611370565b820191906000526020600020905b81548152906001019060200180831161135357829003601f168201915b5050505050815260200160078201805461138990614dd7565b80601f01602080910402602001604051908101604052809291908181526020018280546113b590614dd7565b80156114025780601f106113d757610100808354040283529160200191611402565b820191906000526020600020905b8154815290600101906020018083116113e557829003601f168201915b505050505081526020016008820154815260200160098201805461142590614dd7565b80601f016020809104026020016040519081016040528092919081815260200182805461145190614dd7565b801561149e5780601f106114735761010080835404028352916020019161149e565b820191906000526020600020905b81548152906001019060200180831161148157829003601f168201915b50505050508152602001600a8201548152505081526020019060010190610f88565b50505050905090565b6114da6114d461309b565b8261315c565b611519576040517f08c379a000000000000000000000000000000000000000000000000000000000815260040161151090614ac5565b60405180910390fd5b61152483838361323a565b505050565b600b6020528060005260406000206000915090508060000160009054906101000a900473ffffffffffffffffffffffffffffffffffffffff16908060010160009054906101000a900473ffffffffffffffffffffffffffffffffffffffff169080600201805461159890614dd7565b80601f01602080910402602001604051908101604052809291908181526020018280546115c490614dd7565b80156116115780601f106115e657610100808354040283529160200191611611565b820191906000526020600020905b8154815290600101906020018083116115f457829003601f168201915b50505050509080600301805461162690614dd7565b80601f016020809104026020016040519081016040528092919081815260200182805461165290614dd7565b801561169f5780601f106116745761010080835404028352916020019161169f565b820191906000526020600020905b81548152906001019060200180831161168257829003601f168201915b5050505050908060050180546116b490614dd7565b80601f01602080910402602001604051908101604052809291908181526020018280546116e090614dd7565b801561172d5780601f106117025761010080835404028352916020019161172d565b820191906000526020600020905b81548152906001019060200180831161171057829003601f168201915b50505050509080600601805461174290614dd7565b80601f016020809104026020016040519081016040528092919081815260200182805461176e90614dd7565b80156117bb5780601f10611790576101008083540402835291602001916117bb565b820191906000526020600020905b81548152906001019060200180831161179e57829003601f168201915b5050505050908060070180546117d090614dd7565b80601f01602080910402602001604051908101604052809291908181526020018280546117fc90614dd7565b80156118495780601f1061181e57610100808354040283529160200191611849565b820191906000526020600020905b81548152906001019060200180831161182c57829003601f168201915b50505050509080600801549080600901805461186490614dd7565b80601f016020809104026020016040519081016040528092919081815260200182805461189090614dd7565b80156118dd5780601f106118b2576101008083540402835291602001916118dd565b820191906000526020600020905b8154815290600101906020018083116118c057829003601f168201915b50505050509080600a015490508a565b6119088383836040518060200160405280600081525061277b565b505050565b6060600d60008373ffffffffffffffffffffffffffffffffffffffff1673ffffffffffffffffffffffffffffffffffffffff168152602001908152602001600020805480602002602001604051908101604052809291908181526020016000905b82821015611ea657838290600052602060002090600b0201604051806101600160405290816000820160009054906101000a900473ffffffffffffffffffffffffffffffffffffffff1673ffffffffffffffffffffffffffffffffffffffff1673ffffffffffffffffffffffffffffffffffffffff1681526020016001820160009054906101000a900473ffffffffffffffffffffffffffffffffffffffff1673ffffffffffffffffffffffffffffffffffffffff1673ffffffffffffffffffffffffffffffffffffffff168152602001600282018054611a4e90614dd7565b80601f0160208091040260200160405190810160405280929190818152602001828054611a7a90614dd7565b8015611ac75780601f10611a9c57610100808354040283529160200191611ac7565b820191906000526020600020905b815481529060010190602001808311611aaa57829003601f168201915b50505050508152602001600382018054611ae090614dd7565b80601f0160208091040260200160405190810160405280929190818152602001828054611b0c90614dd7565b8015611b595780601f10611b2e57610100808354040283529160200191611b59565b820191906000526020600020905b815481529060010190602001808311611b3c57829003601f168201915b5050505050815260200160048201805480602002602001604051908101604052809291908181526020016000905b82821015611c33578382906000526020600020018054611ba690614dd7565b80601f0160208091040260200160405190810160405280929190818152602001828054611bd290614dd7565b8015611c1f5780601f10611bf457610100808354040283529160200191611c1f565b820191906000526020600020905b815481529060010190602001808311611c0257829003601f168201915b505050505081526020019060010190611b87565b505050508152602001600582018054611c4b90614dd7565b80601f0160208091040260200160405190810160405280929190818152602001828054611c7790614dd7565b8015611cc45780601f10611c9957610100808354040283529160200191611cc4565b820191906000526020600020905b815481529060010190602001808311611ca757829003601f168201915b50505050508152602001600682018054611cdd90614dd7565b80601f0160208091040260200160405190810160405280929190818152602001828054611d0990614dd7565b8015611d565780601f10611d2b57610100808354040283529160200191611d56565b820191906000526020600020905b815481529060010190602001808311611d3957829003601f168201915b50505050508152602001600782018054611d6f90614dd7565b80601f0160208091040260200160405190810160405280929190818152602001828054611d9b90614dd7565b8015611de85780601f10611dbd57610100808354040283529160200191611de8565b820191906000526020600020905b815481529060010190602001808311611dcb57829003601f168201915b5050505050815260200160088201548152602001600982018054611e0b90614dd7565b80601f0160208091040260200160405190810160405280929190818152602001828054611e3790614dd7565b8015611e845780601f10611e5957610100808354040283529160200191611e84565b820191906000526020600020905b815481529060010190602001808311611e6757829003601f168201915b50505050508152602001600a820154815250508152602001906001019061196e565b505050509050919050565b6000806002600084815260200190815260200160002060009054906101000a900473ffffffffffffffffffffffffffffffffffffffff169050600073ffffffffffffffffffffffffffffffffffffffff168173ffffffffffffffffffffffffffffffffffffffff161415611f5a576040517f08c379a0000000000000000000000000000000000000000000000000000000008152600401611f5190614a05565b60405180910390fd5b80915050919050565b60006040518061016001604052808b73ffffffffffffffffffffffffffffffffffffffff1681526020018673ffffffffffffffffffffffffffffffffffffffff1681526020018a815260200189815260200188815260200187815260200185815260200184815260200160008152602001838152602001428152509050600a8190806001815401808255809150506001900390600052602060002090600b020160009091909190915060008201518160000160006101000a81548173ffffffffffffffffffffffffffffffffffffffff021916908373ffffffffffffffffffffffffffffffffffffffff16021790555060208201518160010160006101000a81548173ffffffffffffffffffffffffffffffffffffffff021916908373ffffffffffffffffffffffffffffffffffffffff16021790555060408201518160020190805190602001906120b6929190613b26565b5060608201518160030190805190602001906120d3929190613b26565b5060808201518160040190805190602001906120f0929190613bac565b5060a082015181600501908051906020019061210d929190613b26565b5060c082015181600601908051906020019061212a929190613b26565b5060e0820151816007019080519060200190612147929190613b26565b506101008201518160080155610120820151816009019080519060200190612170929190613b26565b5061014082015181600a0155505080600b6000600954815260200190815260200160002060008201518160000160006101000a81548173ffffffffffffffffffffffffffffffffffffffff021916908373ffffffffffffffffffffffffffffffffffffffff16021790555060208201518160010160006101000a81548173ffffffffffffffffffffffffffffffffffffffff021916908373ffffffffffffffffffffffffffffffffffffffff160217905550604082015181600201908051906020019061223e929190613b26565b50606082015181600301908051906020019061225b929190613b26565b506080820151816004019080519060200190612278929190613bac565b5060a0820151816005019080519060200190612295929190613b26565b5060c08201518160060190805190602001906122b2929190613b26565b5060e08201518160070190805190602001906122cf929190613b26565b5061010082015181600801556101208201518160090190805190602001906122f8929190613b26565b5061014082015181600a0155905050600d60008b73ffffffffffffffffffffffffffffffffffffffff1673ffffffffffffffffffffffffffffffffffffffff1681526020019081526020016000208190806001815401808255809150506001900390600052602060002090600b020160009091909190915060008201518160000160006101000a81548173ffffffffffffffffffffffffffffffffffffffff021916908373ffffffffffffffffffffffffffffffffffffffff16021790555060208201518160010160006101000a81548173ffffffffffffffffffffffffffffffffffffffff021916908373ffffffffffffffffffffffffffffffffffffffff160217905550604082015181600201908051906020019061241a929190613b26565b506060820151816003019080519060200190612437929190613b26565b506080820151816004019080519060200190612454929190613bac565b5060a0820151816005019080519060200190612471929190613b26565b5060c082015181600601908051906020019061248e929190613b26565b5060e08201518160070190805190602001906124ab929190613b26565b5061010082015181600801556101208201518160090190805190602001906124d4929190613b26565b5061014082015181600a015550506009547fa1cd98301e2a758f45871102b368fdcf3f56e13f8e8fd2886523ac87ca066ce0336040516125149190614734565b60405180910390a261252760095461077f565b6009600081548092919061253a90614e3a565b919050555050505050505050505050565b60008073ffffffffffffffffffffffffffffffffffffffff168273ffffffffffffffffffffffffffffffffffffffff1614156125bc576040517f08c379a00000000000000000000000000000000000000000000000000000000081526004016125b3906149e5565b60405180910390fd5b600360008373ffffffffffffffffffffffffffffffffffffffff1673ffffffffffffffffffffffffffffffffffffffff168152602001908152602001600020549050919050565b61260b61309b565b73ffffffffffffffffffffffffffffffffffffffff166126296126a3565b73ffffffffffffffffffffffffffffffffffffffff161461267f576040517f08c379a000000000000000000000000000000000000000000000000000000000815260040161267690614a65565b60405180910390fd5b6126896000613496565b565b600c6020528060005260406000206000915090505481565b6000600660009054906101000a900473ffffffffffffffffffffffffffffffffffffffff16905090565b6060600180546126dc90614dd7565b80601f016020809104026020016040519081016040528092919081815260200182805461270890614dd7565b80156127555780601f1061272a57610100808354040283529160200191612755565b820191906000526020600020905b81548152906001019060200180831161273857829003601f168201915b5050505050905090565b60075481565b61277761277061309b565b838361355c565b5050565b61278c61278661309b565b8361315c565b6127cb576040517f08c379a00000000000000000000000000000000000000000000000000000000081526004016127c290614ac5565b60405180910390fd5b6127d7848484846136c9565b50505050565b60606000600b6000600f6000868152602001908152602001600020548152602001908152602001600020604051806101600160405290816000820160009054906101000a900473ffffffffffffffffffffffffffffffffffffffff1673ffffffffffffffffffffffffffffffffffffffff1673ffffffffffffffffffffffffffffffffffffffff1681526020016001820160009054906101000a900473ffffffffffffffffffffffffffffffffffffffff1673ffffffffffffffffffffffffffffffffffffffff1673ffffffffffffffffffffffffffffffffffffffff1681526020016002820180546128cf90614dd7565b80601f01602080910402602001604051908101604052809291908181526020018280546128fb90614dd7565b80156129485780601f1061291d57610100808354040283529160200191612948565b820191906000526020600020905b81548152906001019060200180831161292b57829003601f168201915b5050505050815260200160038201805461296190614dd7565b80601f016020809104026020016040519081016040528092919081815260200182805461298d90614dd7565b80156129da5780601f106129af576101008083540402835291602001916129da565b820191906000526020600020905b8154815290600101906020018083116129bd57829003601f168201915b5050505050815260200160048201805480602002602001604051908101604052809291908181526020016000905b82821015612ab4578382906000526020600020018054612a2790614dd7565b80601f0160208091040260200160405190810160405280929190818152602001828054612a5390614dd7565b8015612aa05780601f10612a7557610100808354040283529160200191612aa0565b820191906000526020600020905b815481529060010190602001808311612a8357829003601f168201915b505050505081526020019060010190612a08565b505050508152602001600582018054612acc90614dd7565b80601f0160208091040260200160405190810160405280929190818152602001828054612af890614dd7565b8015612b455780601f10612b1a57610100808354040283529160200191612b45565b820191906000526020600020905b815481529060010190602001808311612b2857829003601f168201915b50505050508152602001600682018054612b5e90614dd7565b80601f0160208091040260200160405190810160405280929190818152602001828054612b8a90614dd7565b8015612bd75780601f10612bac57610100808354040283529160200191612bd7565b820191906000526020600020905b815481529060010190602001808311612bba57829003601f168201915b50505050508152602001600782018054612bf090614dd7565b80601f0160208091040260200160405190810160405280929190818152602001828054612c1c90614dd7565b8015612c695780601f10612c3e57610100808354040283529160200191612c69565b820191906000526020600020905b815481529060010190602001808311612c4c57829003601f168201915b5050505050815260200160088201548152602001600982018054612c8c90614dd7565b80601f0160208091040260200160405190810160405280929190818152602001828054612cb890614dd7565b8015612d055780601f10612cda57610100808354040283529160200191612d05565b820191906000526020600020905b815481529060010190602001808311612ce857829003601f168201915b50505050508152602001600a820154815250509050806101200151915050919050565b600e6020528060005260406000206000915090505481565b600f6020528060005260406000206000915090505481565b6000600560008473ffffffffffffffffffffffffffffffffffffffff1673ffffffffffffffffffffffffffffffffffffffff16815260200190815260200160002060008373ffffffffffffffffffffffffffffffffffffffff1673ffffffffffffffffffffffffffffffffffffffff16815260200190815260200160002060009054906101000a900460ff16905092915050565b612df461309b565b73ffffffffffffffffffffffffffffffffffffffff16612e126126a3565b73ffffffffffffffffffffffffffffffffffffffff1614612e68576040517f08c379a0000000000000000000000000000000000000000000000000000000008152600401612e5f90614a65565b60405180910390fd5b600073ffffffffffffffffffffffffffffffffffffffff168173ffffffffffffffffffffffffffffffffffffffff161415612ed8576040517f08c379a0000000000000000000000000000000000000000000000000000000008152600401612ecf90614925565b60405180910390fd5b612ee181613496565b50565b6001816000016000828254019250508190555050565b60007f01ffc9a7000000000000000000000000000000000000000000000000000000007bffffffffffffffffffffffffffffffffffffffffffffffffffffffff1916827bffffffffffffffffffffffffffffffffffffffffffffffffffffffff1916149050919050565b600081600001549050919050565b612f8c828260405180602001604052806000815250613725565b5050565b61302a838383604051602401612fa8939291906148c0565b6040516020818303038152906040527ff362ca59000000000000000000000000000000000000000000000000000000007bffffffffffffffffffffffffffffffffffffffffffffffffffffffff19166020820180517bffffffffffffffffffffffffffffffffffffffffffffffffffffffff8381831617835250505050613780565b505050565b60008073ffffffffffffffffffffffffffffffffffffffff166002600084815260200190815260200160002060009054906101000a900473ffffffffffffffffffffffffffffffffffffffff1673ffffffffffffffffffffffffffffffffffffffff1614159050919050565b600033905090565b816004600083815260200190815260200160002060006101000a81548173ffffffffffffffffffffffffffffffffffffffff021916908373ffffffffffffffffffffffffffffffffffffffff160217905550808273ffffffffffffffffffffffffffffffffffffffff1661311683611eb1565b73ffffffffffffffffffffffffffffffffffffffff167f8c5be1e5ebec7d5bd14f71427d1e84f3dd0314c0f7b2291e5b200ac8c7c3b92560405160405180910390a45050565b60006131678261302f565b6131a6576040517f08c379a000000000000000000000000000000000000000000000000000000000815260040161319d906149a5565b60405180910390fd5b60006131b183611eb1565b90508073ffffffffffffffffffffffffffffffffffffffff168473ffffffffffffffffffffffffffffffffffffffff16148061322057508373ffffffffffffffffffffffffffffffffffffffff16613208846109e6565b73ffffffffffffffffffffffffffffffffffffffff16145b8061323157506132308185612d58565b5b91505092915050565b8273ffffffffffffffffffffffffffffffffffffffff1661325a82611eb1565b73ffffffffffffffffffffffffffffffffffffffff16146132b0576040517f08c379a00000000000000000000000000000000000000000000000000000000081526004016132a790614a85565b60405180910390fd5b600073ffffffffffffffffffffffffffffffffffffffff168273ffffffffffffffffffffffffffffffffffffffff161415613320576040517f08c379a000000000000000000000000000000000000000000000000000000000815260040161331790614965565b60405180910390fd5b61332b8383836137a9565b6133366000826130a3565b6001600360008573ffffffffffffffffffffffffffffffffffffffff1673ffffffffffffffffffffffffffffffffffffffff16815260200190815260200160002060008282546133869190614ced565b925050819055506001600360008473ffffffffffffffffffffffffffffffffffffffff1673ffffffffffffffffffffffffffffffffffffffff16815260200190815260200160002060008282546133dd9190614c97565b92505081905550816002600083815260200190815260200160002060006101000a81548173ffffffffffffffffffffffffffffffffffffffff021916908373ffffffffffffffffffffffffffffffffffffffff160217905550808273ffffffffffffffffffffffffffffffffffffffff168473ffffffffffffffffffffffffffffffffffffffff167fddf252ad1be2c89b69c2b068fc378daa952ba7f163c4a11628f55a4df523b3ef60405160405180910390a4505050565b6000600660009054906101000a900473ffffffffffffffffffffffffffffffffffffffff16905081600660006101000a81548173ffffffffffffffffffffffffffffffffffffffff021916908373ffffffffffffffffffffffffffffffffffffffff1602179055508173ffffffffffffffffffffffffffffffffffffffff168173ffffffffffffffffffffffffffffffffffffffff167f8be0079c531659141344cd1fd0a4f28419497f9722a3daafe3b4186f6b6457e060405160405180910390a35050565b8173ffffffffffffffffffffffffffffffffffffffff168373ffffffffffffffffffffffffffffffffffffffff1614156135cb576040517f08c379a00000000000000000000000000000000000000000000000000000000081526004016135c290614985565b60405180910390fd5b80600560008573ffffffffffffffffffffffffffffffffffffffff1673ffffffffffffffffffffffffffffffffffffffff16815260200190815260200160002060008473ffffffffffffffffffffffffffffffffffffffff1673ffffffffffffffffffffffffffffffffffffffff16815260200190815260200160002060006101000a81548160ff0219169083151502179055508173ffffffffffffffffffffffffffffffffffffffff168373ffffffffffffffffffffffffffffffffffffffff167f17307eab39ab6107e8899845ad3d59bd9653f200f220920489ca2b5937696c31836040516136bc9190614883565b60405180910390a3505050565b6136d484848461323a565b6136e0848484846137ae565b61371f576040517f08c379a000000000000000000000000000000000000000000000000000000000815260040161371690614905565b60405180910390fd5b50505050565b61372f8383613945565b61373c60008484846137ae565b61377b576040517f08c379a000000000000000000000000000000000000000000000000000000000815260040161377290614905565b60405180910390fd5b505050565b60008151905060006a636f6e736f6c652e6c6f679050602083016000808483855afa5050505050565b505050565b60006137cf8473ffffffffffffffffffffffffffffffffffffffff16613b13565b15613938578373ffffffffffffffffffffffffffffffffffffffff1663150b7a026137f861309b565b8786866040518563ffffffff1660e01b815260040161381a9493929190614815565b602060405180830381600087803b15801561383457600080fd5b505af192505050801561386557506040513d601f19601f8201168201806040525081019061386291906141b4565b60015b6138e8573d8060008114613895576040519150601f19603f3d011682016040523d82523d6000602084013e61389a565b606091505b506000815114156138e0576040517f08c379a00000000000000000000000000000000000000000000000000000000081526004016138d790614905565b60405180910390fd5b805181602001fd5b63150b7a0260e01b7bffffffffffffffffffffffffffffffffffffffffffffffffffffffff1916817bffffffffffffffffffffffffffffffffffffffffffffffffffffffff19161491505061393d565b600190505b949350505050565b600073ffffffffffffffffffffffffffffffffffffffff168273ffffffffffffffffffffffffffffffffffffffff1614156139b5576040517f08c379a00000000000000000000000000000000000000000000000000000000081526004016139ac90614a25565b60405180910390fd5b6139be8161302f565b156139fe576040517f08c379a00000000000000000000000000000000000000000000000000000000081526004016139f590614945565b60405180910390fd5b613a0a600083836137a9565b6001600360008473ffffffffffffffffffffffffffffffffffffffff1673ffffffffffffffffffffffffffffffffffffffff1681526020019081526020016000206000828254613a5a9190614c97565b92505081905550816002600083815260200190815260200160002060006101000a81548173ffffffffffffffffffffffffffffffffffffffff021916908373ffffffffffffffffffffffffffffffffffffffff160217905550808273ffffffffffffffffffffffffffffffffffffffff16600073ffffffffffffffffffffffffffffffffffffffff167fddf252ad1be2c89b69c2b068fc378daa952ba7f163c4a11628f55a4df523b3ef60405160405180910390a45050565b600080823b905060008111915050919050565b828054613b3290614dd7565b90600052602060002090601f016020900481019282613b545760008555613b9b565b82601f10613b6d57805160ff1916838001178555613b9b565b82800160010185558215613b9b579182015b82811115613b9a578251825591602001919060010190613b7f565b5b509050613ba89190613c0c565b5090565b828054828255906000526020600020908101928215613bfb579160200282015b82811115613bfa578251829080519060200190613bea929190613b26565b5091602001919060010190613bcc565b5b509050613c089190613c29565b5090565b5b80821115613c25576000816000905550600101613c0d565b5090565b5b80821115613c495760008181613c409190613c4d565b50600101613c2a565b5090565b508054613c5990614dd7565b6000825580601f10613c6b5750613c8a565b601f016020900490600052602060002090810190613c899190613c0c565b5b50565b6000613ca0613c9b84614b4e565b614b29565b90508083825260208201905082856020860282011115613cbf57600080fd5b60005b85811015613d0957813567ffffffffffffffff811115613ce157600080fd5b808601613cee8982613e37565b85526020850194506020840193505050600181019050613cc2565b5050509392505050565b6000613d26613d2184614b7a565b614b29565b905082815260208101848484011115613d3e57600080fd5b613d49848285614d95565b509392505050565b6000613d64613d5f84614bab565b614b29565b905082815260208101848484011115613d7c57600080fd5b613d87848285614d95565b509392505050565b600081359050613d9e8161532a565b92915050565b600082601f830112613db557600080fd5b8135613dc5848260208601613c8d565b91505092915050565b600081359050613ddd81615341565b92915050565b600081359050613df281615358565b92915050565b600081519050613e0781615358565b92915050565b600082601f830112613e1e57600080fd5b8135613e2e848260208601613d13565b91505092915050565b600082601f830112613e4857600080fd5b8135613e58848260208601613d51565b91505092915050565b600081359050613e708161536f565b92915050565b600060208284031215613e8857600080fd5b6000613e9684828501613d8f565b91505092915050565b60008060408385031215613eb257600080fd5b6000613ec085828601613d8f565b9250506020613ed185828601613d8f565b9150509250929050565b600080600060608486031215613ef057600080fd5b6000613efe86828701613d8f565b9350506020613f0f86828701613d8f565b9250506040613f2086828701613e61565b9150509250925092565b60008060008060808587031215613f4057600080fd5b6000613f4e87828801613d8f565b9450506020613f5f87828801613d8f565b9350506040613f7087828801613e61565b925050606085013567ffffffffffffffff811115613f8d57600080fd5b613f9987828801613e0d565b91505092959194509250565b60008060408385031215613fb857600080fd5b6000613fc685828601613d8f565b9250506020613fd785828601613dce565b9150509250929050565b60008060008060008060008060006101208a8c03121561400057600080fd5b600061400e8c828d01613d8f565b99505060208a013567ffffffffffffffff81111561402b57600080fd5b6140378c828d01613e37565b98505060408a013567ffffffffffffffff81111561405457600080fd5b6140608c828d01613e37565b97505060608a013567ffffffffffffffff81111561407d57600080fd5b6140898c828d01613da4565b96505060808a013567ffffffffffffffff8111156140a657600080fd5b6140b28c828d01613e37565b95505060a06140c38c828d01613d8f565b94505060c08a013567ffffffffffffffff8111156140e057600080fd5b6140ec8c828d01613e37565b93505060e08a013567ffffffffffffffff81111561410957600080fd5b6141158c828d01613e37565b9250506101008a013567ffffffffffffffff81111561413357600080fd5b61413f8c828d01613e37565b9150509295985092959850929598565b6000806040838503121561416257600080fd5b600061417085828601613d8f565b925050602061418185828601613e61565b9150509250929050565b60006020828403121561419d57600080fd5b60006141ab84828501613de3565b91505092915050565b6000602082840312156141c657600080fd5b60006141d484828501613df8565b91505092915050565b6000602082840312156141ef57600080fd5b60006141fd84828501613e61565b91505092915050565b6000614212838361437e565b905092915050565b600061422683836145fd565b905092915050565b61423781614d21565b82525050565b61424681614d21565b82525050565b600061425782614bfc565b6142618185614c42565b93508360208202850161427385614bdc565b8060005b858110156142af57848403895281516142908582614206565b945061429b83614c28565b925060208a01995050600181019050614277565b50829750879550505050505092915050565b60006142cc82614c07565b6142d68185614c53565b9350836020820285016142e885614bec565b8060005b858110156143245784840389528151614305858261421a565b945061431083614c35565b925060208a019950506001810190506142ec565b50829750879550505050505092915050565b61433f81614d33565b82525050565b600061435082614c12565b61435a8185614c64565b935061436a818560208601614da4565b61437381614f10565b840191505092915050565b600061438982614c1d565b6143938185614c75565b93506143a3818560208601614da4565b6143ac81614f10565b840191505092915050565b60006143c282614c1d565b6143cc8185614c86565b93506143dc818560208601614da4565b6143e581614f10565b840191505092915050565b60006143fd603283614c86565b915061440882614f21565b604082019050919050565b6000614420602683614c86565b915061442b82614f70565b604082019050919050565b6000614443601c83614c86565b915061444e82614fbf565b602082019050919050565b6000614466602483614c86565b915061447182614fe8565b604082019050919050565b6000614489601983614c86565b915061449482615037565b602082019050919050565b60006144ac602c83614c86565b91506144b782615060565b604082019050919050565b60006144cf603883614c86565b91506144da826150af565b604082019050919050565b60006144f2602a83614c86565b91506144fd826150fe565b604082019050919050565b6000614515602983614c86565b91506145208261514d565b604082019050919050565b6000614538602083614c86565b91506145438261519c565b602082019050919050565b600061455b602c83614c86565b9150614566826151c5565b604082019050919050565b600061457e602083614c86565b915061458982615214565b602082019050919050565b60006145a1602983614c86565b91506145ac8261523d565b604082019050919050565b60006145c4602183614c86565b91506145cf8261528c565b604082019050919050565b60006145e7603183614c86565b91506145f2826152db565b604082019050919050565b600061016083016000830151614616600086018261422e565b506020830151614629602086018261422e565b5060408301518482036040860152614641828261437e565b9150506060830151848203606086015261465b828261437e565b91505060808301518482036080860152614675828261424c565b91505060a083015184820360a086015261468f828261437e565b91505060c083015184820360c08601526146a9828261437e565b91505060e083015184820360e08601526146c3828261437e565b9150506101008301516146da610100860182614716565b506101208301518482036101208601526146f4828261437e565b91505061014083015161470b610140860182614716565b508091505092915050565b61471f81614d8b565b82525050565b61472e81614d8b565b82525050565b6000602082019050614749600083018461423d565b92915050565b600061014082019050614765600083018d61423d565b614772602083018c61423d565b8181036040830152614784818b6143b7565b90508181036060830152614798818a6143b7565b905081810360808301526147ac81896143b7565b905081810360a08301526147c081886143b7565b905081810360c08301526147d481876143b7565b90506147e360e0830186614725565b8181036101008301526147f681856143b7565b9050614806610120830184614725565b9b9a5050505050505050505050565b600060808201905061482a600083018761423d565b614837602083018661423d565b6148446040830185614725565b81810360608301526148568184614345565b905095945050505050565b6000602082019050818103600083015261487b81846142c1565b905092915050565b60006020820190506148986000830184614336565b92915050565b600060208201905081810360008301526148b881846143b7565b905092915050565b600060608201905081810360008301526148da81866143b7565b905081810360208301526148ee81856143b7565b90506148fd6040830184614725565b949350505050565b6000602082019050818103600083015261491e816143f0565b9050919050565b6000602082019050818103600083015261493e81614413565b9050919050565b6000602082019050818103600083015261495e81614436565b9050919050565b6000602082019050818103600083015261497e81614459565b9050919050565b6000602082019050818103600083015261499e8161447c565b9050919050565b600060208201905081810360008301526149be8161449f565b9050919050565b600060208201905081810360008301526149de816144c2565b9050919050565b600060208201905081810360008301526149fe816144e5565b9050919050565b60006020820190508181036000830152614a1e81614508565b9050919050565b60006020820190508181036000830152614a3e8161452b565b9050919050565b60006020820190508181036000830152614a5e8161454e565b9050919050565b60006020820190508181036000830152614a7e81614571565b9050919050565b60006020820190508181036000830152614a9e81614594565b9050919050565b60006020820190508181036000830152614abe816145b7565b9050919050565b60006020820190508181036000830152614ade816145da565b9050919050565b6000602082019050614afa6000830184614725565b92915050565b6000604082019050614b156000830185614725565b614b226020830184614725565b9392505050565b6000614b33614b44565b9050614b3f8282614e09565b919050565b6000604051905090565b600067ffffffffffffffff821115614b6957614b68614ee1565b5b602082029050602081019050919050565b600067ffffffffffffffff821115614b9557614b94614ee1565b5b614b9e82614f10565b9050602081019050919050565b600067ffffffffffffffff821115614bc657614bc5614ee1565b5b614bcf82614f10565b9050602081019050919050565b6000819050602082019050919050565b6000819050602082019050919050565b600081519050919050565b600081519050919050565b600081519050919050565b600081519050919050565b6000602082019050919050565b6000602082019050919050565b600082825260208201905092915050565b600082825260208201905092915050565b600082825260208201905092915050565b600082825260208201905092915050565b600082825260208201905092915050565b6000614ca282614d8b565b9150614cad83614d8b565b9250827fffffffffffffffffffffffffffffffffffffffffffffffffffffffffffffffff03821115614ce257614ce1614e83565b5b828201905092915050565b6000614cf882614d8b565b9150614d0383614d8b565b925082821015614d1657614d15614e83565b5b828203905092915050565b6000614d2c82614d6b565b9050919050565b60008115159050919050565b60007fffffffff0000000000000000000000000000000000000000000000000000000082169050919050565b600073ffffffffffffffffffffffffffffffffffffffff82169050919050565b6000819050919050565b82818337600083830152505050565b60005b83811015614dc2578082015181840152602081019050614da7565b83811115614dd1576000848401525b50505050565b60006002820490506001821680614def57607f821691505b60208210811415614e0357614e02614eb2565b5b50919050565b614e1282614f10565b810181811067ffffffffffffffff82111715614e3157614e30614ee1565b5b80604052505050565b6000614e4582614d8b565b91507fffffffffffffffffffffffffffffffffffffffffffffffffffffffffffffffff821415614e7857614e77614e83565b5b600182019050919050565b7f4e487b7100000000000000000000000000000000000000000000000000000000600052601160045260246000fd5b7f4e487b7100000000000000000000000000000000000000000000000000000000600052602260045260246000fd5b7f4e487b7100000000000000000000000000000000000000000000000000000000600052604160045260246000fd5b6000601f19601f8301169050919050565b7f4552433732313a207472616e7366657220746f206e6f6e20455243373231526560008201527f63656976657220696d706c656d656e7465720000000000000000000000000000602082015250565b7f4f776e61626c653a206e6577206f776e657220697320746865207a65726f206160008201527f6464726573730000000000000000000000000000000000000000000000000000602082015250565b7f4552433732313a20746f6b656e20616c7265616479206d696e74656400000000600082015250565b7f4552433732313a207472616e7366657220746f20746865207a65726f2061646460008201527f7265737300000000000000000000000000000000000000000000000000000000602082015250565b7f4552433732313a20617070726f766520746f2063616c6c657200000000000000600082015250565b7f4552433732313a206f70657261746f7220717565727920666f72206e6f6e657860008201527f697374656e7420746f6b656e0000000000000000000000000000000000000000602082015250565b7f4552433732313a20617070726f76652063616c6c6572206973206e6f74206f7760008201527f6e6572206e6f7220617070726f76656420666f7220616c6c0000000000000000602082015250565b7f4552433732313a2062616c616e636520717565727920666f7220746865207a6560008201527f726f206164647265737300000000000000000000000000000000000000000000602082015250565b7f4552433732313a206f776e657220717565727920666f72206e6f6e657869737460008201527f656e7420746f6b656e0000000000000000000000000000000000000000000000602082015250565b7f4552433732313a206d696e7420746f20746865207a65726f2061646472657373600082015250565b7f4552433732313a20617070726f76656420717565727920666f72206e6f6e657860008201527f697374656e7420746f6b656e0000000000000000000000000000000000000000602082015250565b7f4f776e61626c653a2063616c6c6572206973206e6f7420746865206f776e6572600082015250565b7f4552433732313a207472616e73666572206f6620746f6b656e2074686174206960008201527f73206e6f74206f776e0000000000000000000000000000000000000000000000602082015250565b7f4552433732313a20617070726f76616c20746f2063757272656e74206f776e6560008201527f7200000000000000000000000000000000000000000000000000000000000000602082015250565b7f4552433732313a207472616e736665722063616c6c6572206973206e6f74206f60008201527f776e6572206e6f7220617070726f766564000000000000000000000000000000602082015250565b61533381614d21565b811461533e57600080fd5b50565b61534a81614d33565b811461535557600080fd5b50565b61536181614d3f565b811461536c57600080fd5b50565b61537881614d8b565b811461538357600080fd5b5056fe2a2a2a2a2a2a4d696e746564202573204e465420772f20746f6b656e4964202573202a2a2a2a2a2aa264697066735822122032f35fa9abdd48c6e98158ab2fa6afd3c9d82f27823174395c72ea5b1664455164736f6c63430008040033",
  "linkReferences": {},
  "deployedLinkReferences": {}
}