{
  "_format": "hh-sol-artifact-1",
  "contractName": "Phlote",
  "sourceName": "contracts/Phlote.sol",
  "abi": [
    {
      "inputs": [],
      "stateMutability": "nonpayable",
      "type": "constructor"
    },
    {
      "anonymous": false,
      "inputs": [
        {
          "indexed": true,
          "internalType": "address",
          "name": "owner",
          "type": "address"
        },
        {
          "indexed": true,
          "internalType": "address",
          "name": "approved",
          "type": "address"
        },
        {
          "indexed": true,
          "internalType": "uint256",
          "name": "tokenId",
          "type": "uint256"
        }
      ],
      "name": "Approval",
      "type": "event"
    },
    {
      "anonymous": false,
      "inputs": [
        {
          "indexed": true,
          "internalType": "address",
          "name": "owner",
          "type": "address"
        },
        {
          "indexed": true,
          "internalType": "address",
          "name": "operator",
          "type": "address"
        },
        {
          "indexed": false,
          "internalType": "bool",
          "name": "approved",
          "type": "bool"
        }
      ],
      "name": "ApprovalForAll",
      "type": "event"
    },
    {
      "anonymous": false,
      "inputs": [
        {
          "indexed": false,
          "internalType": "address",
          "name": "sender",
          "type": "address"
        },
        {
          "indexed": true,
          "internalType": "uint256",
          "name": "editionId",
          "type": "uint256"
        }
      ],
      "name": "EditionCreated",
      "type": "event"
    },
    {
      "anonymous": false,
      "inputs": [
        {
          "indexed": true,
          "internalType": "address",
          "name": "buyer",
          "type": "address"
        },
        {
          "indexed": false,
          "internalType": "uint256",
          "name": "tokenId",
          "type": "uint256"
        },
        {
          "indexed": false,
          "internalType": "uint256",
          "name": "numSold",
          "type": "uint256"
        }
      ],
      "name": "EditionMinted",
      "type": "event"
    },
    {
      "anonymous": false,
      "inputs": [
        {
          "indexed": true,
          "internalType": "address",
          "name": "from",
          "type": "address"
        },
        {
          "indexed": true,
          "internalType": "address",
          "name": "to",
          "type": "address"
        },
        {
          "indexed": true,
          "internalType": "uint256",
          "name": "tokenId",
          "type": "uint256"
        }
      ],
      "name": "Transfer",
      "type": "event"
    },
    {
      "inputs": [
        {
          "internalType": "address",
          "name": "to",
          "type": "address"
        },
        {
          "internalType": "uint256",
          "name": "tokenId",
          "type": "uint256"
        }
      ],
      "name": "approve",
      "outputs": [],
      "stateMutability": "nonpayable",
      "type": "function"
    },
    {
      "inputs": [
        {
          "internalType": "address",
          "name": "owner",
          "type": "address"
        }
      ],
      "name": "balanceOf",
      "outputs": [
        {
          "internalType": "uint256",
          "name": "",
          "type": "uint256"
        }
      ],
      "stateMutability": "view",
      "type": "function"
    },
    {
      "inputs": [],
      "name": "contractPrice",
      "outputs": [
        {
          "internalType": "uint256",
          "name": "",
          "type": "uint256"
        }
      ],
      "stateMutability": "view",
      "type": "function"
    },
    {
      "inputs": [
        {
          "internalType": "uint256",
          "name": "",
          "type": "uint256"
        }
      ],
      "name": "editions",
      "outputs": [
        {
          "internalType": "address",
          "name": "artistAddress",
          "type": "address"
        },
        {
          "internalType": "string",
          "name": "mediaURI",
          "type": "string"
        },
        {
          "internalType": "string",
          "name": "marketplace",
          "type": "string"
        },
        {
          "internalType": "string",
          "name": "artistName",
          "type": "string"
        },
        {
          "internalType": "string",
          "name": "mediaTitle",
          "type": "string"
        },
        {
          "internalType": "uint256",
          "name": "numSold",
          "type": "uint256"
        }
      ],
      "stateMutability": "view",
      "type": "function"
    },
    {
      "inputs": [],
      "name": "getAllcontent",
      "outputs": [
        {
          "components": [
            {
              "internalType": "address",
              "name": "artistAddress",
              "type": "address"
            },
            {
              "internalType": "string",
              "name": "mediaURI",
              "type": "string"
            },
            {
              "internalType": "string",
              "name": "marketplace",
              "type": "string"
            },
            {
              "internalType": "string[]",
              "name": "tag",
              "type": "string[]"
            },
            {
              "internalType": "string",
              "name": "artistName",
              "type": "string"
            },
            {
              "internalType": "string[]",
              "name": "mediaType",
              "type": "string[]"
            },
            {
              "internalType": "string",
              "name": "mediaTitle",
              "type": "string"
            },
            {
              "internalType": "uint256",
              "name": "numSold",
              "type": "uint256"
            }
          ],
          "internalType": "struct Phlote.Edition[]",
          "name": "",
          "type": "tuple[]"
        }
      ],
      "stateMutability": "view",
      "type": "function"
    },
    {
      "inputs": [
        {
          "internalType": "uint256",
          "name": "tokenId",
          "type": "uint256"
        }
      ],
      "name": "getApproved",
      "outputs": [
        {
          "internalType": "address",
          "name": "",
          "type": "address"
        }
      ],
      "stateMutability": "view",
      "type": "function"
    },
    {
      "inputs": [
        {
          "internalType": "address",
          "name": "owner",
          "type": "address"
        },
        {
          "internalType": "address",
          "name": "operator",
          "type": "address"
        }
      ],
      "name": "isApprovedForAll",
      "outputs": [
        {
          "internalType": "bool",
          "name": "",
          "type": "bool"
        }
      ],
      "stateMutability": "view",
      "type": "function"
    },
    {
      "inputs": [
        {
          "internalType": "uint256",
          "name": "editionId",
          "type": "uint256"
        }
      ],
      "name": "mintEdition",
      "outputs": [],
      "stateMutability": "payable",
      "type": "function"
    },
    {
      "inputs": [],
      "name": "name",
      "outputs": [
        {
          "internalType": "string",
          "name": "",
          "type": "string"
        }
      ],
      "stateMutability": "view",
      "type": "function"
    },
    {
      "inputs": [
        {
          "internalType": "address",
          "name": "",
          "type": "address"
        }
      ],
      "name": "nftHolders",
      "outputs": [
        {
          "internalType": "uint256",
          "name": "",
          "type": "uint256"
        }
      ],
      "stateMutability": "view",
      "type": "function"
    },
    {
      "inputs": [
        {
          "internalType": "uint256",
          "name": "tokenId",
          "type": "uint256"
        }
      ],
      "name": "ownerOf",
      "outputs": [
        {
          "internalType": "address",
          "name": "",
          "type": "address"
        }
      ],
      "stateMutability": "view",
      "type": "function"
    },
    {
      "inputs": [
        {
          "internalType": "address",
          "name": "from",
          "type": "address"
        },
        {
          "internalType": "address",
          "name": "to",
          "type": "address"
        },
        {
          "internalType": "uint256",
          "name": "tokenId",
          "type": "uint256"
        }
      ],
      "name": "safeTransferFrom",
      "outputs": [],
      "stateMutability": "nonpayable",
      "type": "function"
    },
    {
      "inputs": [
        {
          "internalType": "address",
          "name": "from",
          "type": "address"
        },
        {
          "internalType": "address",
          "name": "to",
          "type": "address"
        },
        {
          "internalType": "uint256",
          "name": "tokenId",
          "type": "uint256"
        },
        {
          "internalType": "bytes",
          "name": "_data",
          "type": "bytes"
        }
      ],
      "name": "safeTransferFrom",
      "outputs": [],
      "stateMutability": "nonpayable",
      "type": "function"
    },
    {
      "inputs": [
        {
          "internalType": "address",
          "name": "operator",
          "type": "address"
        },
        {
          "internalType": "bool",
          "name": "approved",
          "type": "bool"
        }
      ],
      "name": "setApprovalForAll",
      "outputs": [],
      "stateMutability": "nonpayable",
      "type": "function"
    },
    {
      "inputs": [
        {
          "internalType": "address",
          "name": "_artist",
          "type": "address"
        },
        {
          "internalType": "string",
          "name": "_mediaURI",
          "type": "string"
        },
        {
          "internalType": "string",
          "name": "_marketplace",
          "type": "string"
        },
        {
          "internalType": "string[]",
          "name": "_tag",
          "type": "string[]"
        },
        {
          "internalType": "string",
          "name": "_artistName",
          "type": "string"
        },
        {
          "internalType": "string[]",
          "name": "_mediaType",
          "type": "string[]"
        },
        {
          "internalType": "string",
          "name": "_mediaTitle",
          "type": "string"
        }
      ],
      "name": "submitPost",
      "outputs": [
        {
          "internalType": "uint256",
          "name": "",
          "type": "uint256"
        }
      ],
      "stateMutability": "nonpayable",
      "type": "function"
    },
    {
      "inputs": [
        {
          "internalType": "bytes4",
          "name": "interfaceId",
          "type": "bytes4"
        }
      ],
      "name": "supportsInterface",
      "outputs": [
        {
          "internalType": "bool",
          "name": "",
          "type": "bool"
        }
      ],
      "stateMutability": "view",
      "type": "function"
    },
    {
      "inputs": [],
      "name": "symbol",
      "outputs": [
        {
          "internalType": "string",
          "name": "",
          "type": "string"
        }
      ],
      "stateMutability": "view",
      "type": "function"
    },
    {
      "inputs": [
        {
          "internalType": "uint256",
          "name": "",
          "type": "uint256"
        }
      ],
      "name": "tokenToSong",
      "outputs": [
        {
          "internalType": "uint256",
          "name": "",
          "type": "uint256"
        }
      ],
      "stateMutability": "view",
      "type": "function"
    },
    {
      "inputs": [
        {
          "internalType": "uint256",
          "name": "_tokenId",
          "type": "uint256"
        }
      ],
      "name": "tokenURI",
      "outputs": [
        {
          "internalType": "string",
          "name": "",
          "type": "string"
        }
      ],
      "stateMutability": "view",
      "type": "function"
    },
    {
      "inputs": [
        {
          "internalType": "address",
          "name": "from",
          "type": "address"
        },
        {
          "internalType": "address",
          "name": "to",
          "type": "address"
        },
        {
          "internalType": "uint256",
          "name": "tokenId",
          "type": "uint256"
        }
      ],
      "name": "transferFrom",
      "outputs": [],
      "stateMutability": "nonpayable",
      "type": "function"
    },
    {
      "inputs": [
        {
          "internalType": "uint256",
          "name": "",
          "type": "uint256"
        }
      ],
      "name": "withdrawnForEdition",
      "outputs": [
        {
          "internalType": "uint256",
          "name": "",
          "type": "uint256"
        }
      ],
      "stateMutability": "view",
      "type": "function"
    }
  ],
  "bytecode": "0x608060405260016008553480156200001657600080fd5b506040518060400160405280600781526020017f636f6e74656e74000000000000000000000000000000000000000000000000008152506040518060400160405280600481526020017f534f4e470000000000000000000000000000000000000000000000000000000081525081600090805190602001906200009b929190620000ea565b508060019080519060200190620000b4929190620000ea565b505050620000ce6007620000d460201b62001c391760201c565b620001ff565b6001816000016000828254019250508190555050565b828054620000f8906200019a565b90600052602060002090601f0160209004810192826200011c576000855562000168565b82601f106200013757805160ff191683800117855562000168565b8280016001018555821562000168579182015b82811115620001675782518255916020019190600101906200014a565b5b5090506200017791906200017b565b5090565b5b80821115620001965760008160009055506001016200017c565b5090565b60006002820490506001821680620001b357607f821691505b60208210811415620001ca57620001c9620001d0565b5b50919050565b7f4e487b7100000000000000000000000000000000000000000000000000000000600052602260045260246000fd5b614649806200020f6000396000f3fe60806040526004361061012a5760003560e01c806370a08231116100ab578063b88d4fde1161006f578063b88d4fde1461040e578063c87b56dd14610437578063d3bb052814610474578063dd805b71146104b1578063e2b18d3f146104ee578063e985e9c51461052b5761012a565b806370a08231146103155780637df124a11461035257806395d89b411461038f57806397e9a0bf146103ba578063a22cb465146103e55761012a565b806323b872dd116100f257806323b872dd14610219578063279c806e1461024257806342842e0e1461028457806357954dd1146102ad5780636352211e146102d85761012a565b806301ffc9a71461012f57806305322b741461016c57806306fdde0314610188578063081812fc146101b3578063095ea7b3146101f0575b600080fd5b34801561013b57600080fd5b5061015660048036038101906101519190613145565b610568565b6040516101639190613902565b60405180910390f35b61018660048036038101906101819190613197565b61064a565b005b34801561019457600080fd5b5061019d61081f565b6040516101aa919061391d565b60405180910390f35b3480156101bf57600080fd5b506101da60048036038101906101d59190613197565b6108b1565b6040516101e791906137fc565b60405180910390f35b3480156101fc57600080fd5b5061021760048036038101906102129190613109565b610936565b005b34801561022557600080fd5b50610240600480360381019061023b9190612ed5565b610a4e565b005b34801561024e57600080fd5b5061026960048036038101906102649190613197565b610aae565b60405161027b96959493929190613863565b60405180910390f35b34801561029057600080fd5b506102ab60048036038101906102a69190612ed5565b610d2a565b005b3480156102b957600080fd5b506102c2610d4a565b6040516102cf91906138e0565b60405180910390f35b3480156102e457600080fd5b506102ff60048036038101906102fa9190613197565b611204565b60405161030c91906137fc565b60405180910390f35b34801561032157600080fd5b5061033c60048036038101906103379190612e70565b6112b6565b6040516103499190613b24565b60405180910390f35b34801561035e57600080fd5b5061037960048036038101906103749190612e70565b61136e565b6040516103869190613b24565b60405180910390f35b34801561039b57600080fd5b506103a4611386565b6040516103b1919061391d565b60405180910390f35b3480156103c657600080fd5b506103cf611418565b6040516103dc9190613b24565b60405180910390f35b3480156103f157600080fd5b5061040c60048036038101906104079190612f9f565b61141e565b005b34801561041a57600080fd5b5061043560048036038101906104309190612f24565b611434565b005b34801561044357600080fd5b5061045e60048036038101906104599190613197565b611496565b60405161046b919061391d565b60405180910390f35b34801561048057600080fd5b5061049b60048036038101906104969190613197565b61199d565b6040516104a89190613b24565b60405180910390f35b3480156104bd57600080fd5b506104d860048036038101906104d39190612fdb565b6119b5565b6040516104e59190613b24565b60405180910390f35b3480156104fa57600080fd5b5061051560048036038101906105109190613197565b611b8d565b6040516105229190613b24565b60405180910390f35b34801561053757600080fd5b50610552600480360381019061054d9190612e99565b611ba5565b60405161055f9190613902565b60405180910390f35b60007f80ac58cd000000000000000000000000000000000000000000000000000000007bffffffffffffffffffffffffffffffffffffffffffffffffffffffff1916827bffffffffffffffffffffffffffffffffffffffffffffffffffffffff1916148061063357507f5b5e139f000000000000000000000000000000000000000000000000000000007bffffffffffffffffffffffffffffffffffffffffffffffffffffffff1916827bffffffffffffffffffffffffffffffffffffffffffffffffffffffff1916145b80610643575061064282611c4f565b5b9050919050565b60006106566007611cb9565b90506106623382611cc7565b6107236040518060600160405280602881526020016145ec60289139600a6000858152602001908152602001600020600601805461069f90613eac565b80601f01602080910402602001604051908101604052809291908181526020018280546106cb90613eac565b80156107185780601f106106ed57610100808354040283529160200191610718565b820191906000526020600020905b8154815290600101906020018083116106fb57829003601f168201915b505050505083611ce5565b80600b60003373ffffffffffffffffffffffffffffffffffffffff1673ffffffffffffffffffffffffffffffffffffffff168152602001908152602001600020819055506107716007611c39565b600a6000838152602001908152602001600020600701600081548092919061079890613f0f565b919050555081600e6000838152602001908152602001600020819055503373ffffffffffffffffffffffffffffffffffffffff167fe1b60c9e07632933648666e5ede8b3b329ddfa2ab98c51b1a5b4b22ab4f1349c82600a600086815260200190815260200160002060070154604051610813929190613b3f565b60405180910390a25050565b60606000805461082e90613eac565b80601f016020809104026020016040519081016040528092919081815260200182805461085a90613eac565b80156108a75780601f1061087c576101008083540402835291602001916108a7565b820191906000526020600020905b81548152906001019060200180831161088a57829003601f168201915b5050505050905090565b60006108bc82611d84565b6108fb576040517f08c379a00000000000000000000000000000000000000000000000000000000081526004016108f290613aa4565b60405180910390fd5b6004600083815260200190815260200160002060009054906101000a900473ffffffffffffffffffffffffffffffffffffffff169050919050565b600061094182611204565b90508073ffffffffffffffffffffffffffffffffffffffff168373ffffffffffffffffffffffffffffffffffffffff1614156109b2576040517f08c379a00000000000000000000000000000000000000000000000000000000081526004016109a990613ae4565b60405180910390fd5b8073ffffffffffffffffffffffffffffffffffffffff166109d1611df0565b73ffffffffffffffffffffffffffffffffffffffff161480610a0057506109ff816109fa611df0565b611ba5565b5b610a3f576040517f08c379a0000000000000000000000000000000000000000000000000000000008152600401610a3690613a24565b60405180910390fd5b610a498383611df8565b505050565b610a5f610a59611df0565b82611eb1565b610a9e576040517f08c379a0000000000000000000000000000000000000000000000000000000008152600401610a9590613b04565b60405180910390fd5b610aa9838383611f8f565b505050565b600a6020528060005260406000206000915090508060000160009054906101000a900473ffffffffffffffffffffffffffffffffffffffff1690806001018054610af790613eac565b80601f0160208091040260200160405190810160405280929190818152602001828054610b2390613eac565b8015610b705780601f10610b4557610100808354040283529160200191610b70565b820191906000526020600020905b815481529060010190602001808311610b5357829003601f168201915b505050505090806002018054610b8590613eac565b80601f0160208091040260200160405190810160405280929190818152602001828054610bb190613eac565b8015610bfe5780601f10610bd357610100808354040283529160200191610bfe565b820191906000526020600020905b815481529060010190602001808311610be157829003601f168201915b505050505090806004018054610c1390613eac565b80601f0160208091040260200160405190810160405280929190818152602001828054610c3f90613eac565b8015610c8c5780601f10610c6157610100808354040283529160200191610c8c565b820191906000526020600020905b815481529060010190602001808311610c6f57829003601f168201915b505050505090806006018054610ca190613eac565b80601f0160208091040260200160405190810160405280929190818152602001828054610ccd90613eac565b8015610d1a5780601f10610cef57610100808354040283529160200191610d1a565b820191906000526020600020905b815481529060010190602001808311610cfd57829003601f168201915b5050505050908060070154905086565b610d4583838360405180602001604052806000815250611434565b505050565b60606009805480602002602001604051908101604052809291908181526020016000905b828210156111fb5783829060005260206000209060080201604051806101000160405290816000820160009054906101000a900473ffffffffffffffffffffffffffffffffffffffff1673ffffffffffffffffffffffffffffffffffffffff1673ffffffffffffffffffffffffffffffffffffffff168152602001600182018054610df890613eac565b80601f0160208091040260200160405190810160405280929190818152602001828054610e2490613eac565b8015610e715780601f10610e4657610100808354040283529160200191610e71565b820191906000526020600020905b815481529060010190602001808311610e5457829003601f168201915b50505050508152602001600282018054610e8a90613eac565b80601f0160208091040260200160405190810160405280929190818152602001828054610eb690613eac565b8015610f035780601f10610ed857610100808354040283529160200191610f03565b820191906000526020600020905b815481529060010190602001808311610ee657829003601f168201915b5050505050815260200160038201805480602002602001604051908101604052809291908181526020016000905b82821015610fdd578382906000526020600020018054610f5090613eac565b80601f0160208091040260200160405190810160405280929190818152602001828054610f7c90613eac565b8015610fc95780601f10610f9e57610100808354040283529160200191610fc9565b820191906000526020600020905b815481529060010190602001808311610fac57829003601f168201915b505050505081526020019060010190610f31565b505050508152602001600482018054610ff590613eac565b80601f016020809104026020016040519081016040528092919081815260200182805461102190613eac565b801561106e5780601f106110435761010080835404028352916020019161106e565b820191906000526020600020905b81548152906001019060200180831161105157829003601f168201915b5050505050815260200160058201805480602002602001604051908101604052809291908181526020016000905b828210156111485783829060005260206000200180546110bb90613eac565b80601f01602080910402602001604051908101604052809291908181526020018280546110e790613eac565b80156111345780601f1061110957610100808354040283529160200191611134565b820191906000526020600020905b81548152906001019060200180831161111757829003601f168201915b50505050508152602001906001019061109c565b50505050815260200160068201805461116090613eac565b80601f016020809104026020016040519081016040528092919081815260200182805461118c90613eac565b80156111d95780601f106111ae576101008083540402835291602001916111d9565b820191906000526020600020905b8154815290600101906020018083116111bc57829003601f168201915b5050505050815260200160078201548152505081526020019060010190610d6e565b50505050905090565b6000806002600084815260200190815260200160002060009054906101000a900473ffffffffffffffffffffffffffffffffffffffff169050600073ffffffffffffffffffffffffffffffffffffffff168173ffffffffffffffffffffffffffffffffffffffff1614156112ad576040517f08c379a00000000000000000000000000000000000000000000000000000000081526004016112a490613a64565b60405180910390fd5b80915050919050565b60008073ffffffffffffffffffffffffffffffffffffffff168273ffffffffffffffffffffffffffffffffffffffff161415611327576040517f08c379a000000000000000000000000000000000000000000000000000000000815260040161131e90613a44565b60405180910390fd5b600360008373ffffffffffffffffffffffffffffffffffffffff1673ffffffffffffffffffffffffffffffffffffffff168152602001908152602001600020549050919050565b600b6020528060005260406000206000915090505481565b60606001805461139590613eac565b80601f01602080910402602001604051908101604052809291908181526020018280546113c190613eac565b801561140e5780601f106113e35761010080835404028352916020019161140e565b820191906000526020600020905b8154815290600101906020018083116113f157829003601f168201915b5050505050905090565b60065481565b611430611429611df0565b83836121eb565b5050565b61144561143f611df0565b83611eb1565b611484576040517f08c379a000000000000000000000000000000000000000000000000000000000815260040161147b90613b04565b60405180910390fd5b61149084848484612358565b50505050565b60606000600a6000600e6000868152602001908152602001600020548152602001908152602001600020604051806101000160405290816000820160009054906101000a900473ffffffffffffffffffffffffffffffffffffffff1673ffffffffffffffffffffffffffffffffffffffff1673ffffffffffffffffffffffffffffffffffffffff16815260200160018201805461153290613eac565b80601f016020809104026020016040519081016040528092919081815260200182805461155e90613eac565b80156115ab5780601f10611580576101008083540402835291602001916115ab565b820191906000526020600020905b81548152906001019060200180831161158e57829003601f168201915b505050505081526020016002820180546115c490613eac565b80601f01602080910402602001604051908101604052809291908181526020018280546115f090613eac565b801561163d5780601f106116125761010080835404028352916020019161163d565b820191906000526020600020905b81548152906001019060200180831161162057829003601f168201915b5050505050815260200160038201805480602002602001604051908101604052809291908181526020016000905b8282101561171757838290600052602060002001805461168a90613eac565b80601f01602080910402602001604051908101604052809291908181526020018280546116b690613eac565b80156117035780601f106116d857610100808354040283529160200191611703565b820191906000526020600020905b8154815290600101906020018083116116e657829003601f168201915b50505050508152602001906001019061166b565b50505050815260200160048201805461172f90613eac565b80601f016020809104026020016040519081016040528092919081815260200182805461175b90613eac565b80156117a85780601f1061177d576101008083540402835291602001916117a8565b820191906000526020600020905b81548152906001019060200180831161178b57829003601f168201915b5050505050815260200160058201805480602002602001604051908101604052809291908181526020016000905b828210156118825783829060005260206000200180546117f590613eac565b80601f016020809104026020016040519081016040528092919081815260200182805461182190613eac565b801561186e5780601f106118435761010080835404028352916020019161186e565b820191906000526020600020905b81548152906001019060200180831161185157829003601f168201915b5050505050815260200190600101906117d6565b50505050815260200160068201805461189a90613eac565b80601f01602080910402602001604051908101604052809291908181526020018280546118c690613eac565b80156119135780601f106118e857610100808354040283529160200191611913565b820191906000526020600020905b8154815290600101906020018083116118f657829003601f168201915b505050505081526020016007820154815250509050600061196c8260c0015161193b866123b4565b846020015185608001516040516020016119589493929190613765565b604051602081830303815290604052612561565b905060008160405160200161198191906137da565b6040516020818303038152906040529050809350505050919050565b600d6020528060005260406000206000915090505481565b60006040518061010001604052808973ffffffffffffffffffffffffffffffffffffffff1681526020018881526020018781526020018681526020018581526020018481526020018381526020016000815250600a6000600854815260200190815260200160002060008201518160000160006101000a81548173ffffffffffffffffffffffffffffffffffffffff021916908373ffffffffffffffffffffffffffffffffffffffff1602179055506020820151816001019080519060200190611a80929190612b20565b506040820151816002019080519060200190611a9d929190612b20565b506060820151816003019080519060200190611aba929190612ba6565b506080820151816004019080519060200190611ad7929190612b20565b5060a0820151816005019080519060200190611af4929190612ba6565b5060c0820151816006019080519060200190611b11929190612b20565b5060e082015181600701559050506008547fa1cd98301e2a758f45871102b368fdcf3f56e13f8e8fd2886523ac87ca066ce033604051611b5191906137fc565b60405180910390a260086000815480929190611b6c90613f0f565b91905055506001600854611b809190613dc2565b9050979650505050505050565b600e6020528060005260406000206000915090505481565b6000600560008473ffffffffffffffffffffffffffffffffffffffff1673ffffffffffffffffffffffffffffffffffffffff16815260200190815260200160002060008373ffffffffffffffffffffffffffffffffffffffff1673ffffffffffffffffffffffffffffffffffffffff16815260200190815260200160002060009054906101000a900460ff16905092915050565b6001816000016000828254019250508190555050565b60007f01ffc9a7000000000000000000000000000000000000000000000000000000007bffffffffffffffffffffffffffffffffffffffffffffffffffffffff1916827bffffffffffffffffffffffffffffffffffffffffffffffffffffffff1916149050919050565b600081600001549050919050565b611ce182826040518060200160405280600081525061271f565b5050565b611d7f838383604051602401611cfd9392919061393f565b6040516020818303038152906040527ff362ca59000000000000000000000000000000000000000000000000000000007bffffffffffffffffffffffffffffffffffffffffffffffffffffffff19166020820180517bffffffffffffffffffffffffffffffffffffffffffffffffffffffff838183161783525050505061277a565b505050565b60008073ffffffffffffffffffffffffffffffffffffffff166002600084815260200190815260200160002060009054906101000a900473ffffffffffffffffffffffffffffffffffffffff1673ffffffffffffffffffffffffffffffffffffffff1614159050919050565b600033905090565b816004600083815260200190815260200160002060006101000a81548173ffffffffffffffffffffffffffffffffffffffff021916908373ffffffffffffffffffffffffffffffffffffffff160217905550808273ffffffffffffffffffffffffffffffffffffffff16611e6b83611204565b73ffffffffffffffffffffffffffffffffffffffff167f8c5be1e5ebec7d5bd14f71427d1e84f3dd0314c0f7b2291e5b200ac8c7c3b92560405160405180910390a45050565b6000611ebc82611d84565b611efb576040517f08c379a0000000000000000000000000000000000000000000000000000000008152600401611ef290613a04565b60405180910390fd5b6000611f0683611204565b90508073ffffffffffffffffffffffffffffffffffffffff168473ffffffffffffffffffffffffffffffffffffffff161480611f7557508373ffffffffffffffffffffffffffffffffffffffff16611f5d846108b1565b73ffffffffffffffffffffffffffffffffffffffff16145b80611f865750611f858185611ba5565b5b91505092915050565b8273ffffffffffffffffffffffffffffffffffffffff16611faf82611204565b73ffffffffffffffffffffffffffffffffffffffff1614612005576040517f08c379a0000000000000000000000000000000000000000000000000000000008152600401611ffc90613ac4565b60405180910390fd5b600073ffffffffffffffffffffffffffffffffffffffff168273ffffffffffffffffffffffffffffffffffffffff161415612075576040517f08c379a000000000000000000000000000000000000000000000000000000000815260040161206c906139c4565b60405180910390fd5b6120808383836127a3565b61208b600082611df8565b6001600360008573ffffffffffffffffffffffffffffffffffffffff1673ffffffffffffffffffffffffffffffffffffffff16815260200190815260200160002060008282546120db9190613dc2565b925050819055506001600360008473ffffffffffffffffffffffffffffffffffffffff1673ffffffffffffffffffffffffffffffffffffffff16815260200190815260200160002060008282546121329190613ce1565b92505081905550816002600083815260200190815260200160002060006101000a81548173ffffffffffffffffffffffffffffffffffffffff021916908373ffffffffffffffffffffffffffffffffffffffff160217905550808273ffffffffffffffffffffffffffffffffffffffff168473ffffffffffffffffffffffffffffffffffffffff167fddf252ad1be2c89b69c2b068fc378daa952ba7f163c4a11628f55a4df523b3ef60405160405180910390a4505050565b8173ffffffffffffffffffffffffffffffffffffffff168373ffffffffffffffffffffffffffffffffffffffff16141561225a576040517f08c379a0000000000000000000000000000000000000000000000000000000008152600401612251906139e4565b60405180910390fd5b80600560008573ffffffffffffffffffffffffffffffffffffffff1673ffffffffffffffffffffffffffffffffffffffff16815260200190815260200160002060008473ffffffffffffffffffffffffffffffffffffffff1673ffffffffffffffffffffffffffffffffffffffff16815260200190815260200160002060006101000a81548160ff0219169083151502179055508173ffffffffffffffffffffffffffffffffffffffff168373ffffffffffffffffffffffffffffffffffffffff167f17307eab39ab6107e8899845ad3d59bd9653f200f220920489ca2b5937696c318360405161234b9190613902565b60405180910390a3505050565b612363848484611f8f565b61236f848484846127a8565b6123ae576040517f08c379a00000000000000000000000000000000000000000000000000000000081526004016123a590613984565b60405180910390fd5b50505050565b606060008214156123fc576040518060400160405280600181526020017f3000000000000000000000000000000000000000000000000000000000000000815250905061255c565b600082905060005b6000821461242e57808061241790613f0f565b915050600a826124279190613d37565b9150612404565b60008167ffffffffffffffff811115612470577f4e487b7100000000000000000000000000000000000000000000000000000000600052604160045260246000fd5b6040519080825280601f01601f1916602001820160405280156124a25781602001600182028036833780820191505090505b5090505b60008514612555576001826124bb9190613dc2565b9150600a856124ca9190613f58565b60306124d69190613ce1565b60f81b818381518110612512577f4e487b7100000000000000000000000000000000000000000000000000000000600052603260045260246000fd5b60200101907effffffffffffffffffffffffffffffffffffffffffffffffffffffffffffff1916908160001a905350600a8561254e9190613d37565b94506124a6565b8093505050505b919050565b6060600082519050600081141561258a576040518060200160405280600081525091505061271a565b6000600360028361259b9190613ce1565b6125a59190613d37565b60046125b19190613d68565b905060006020826125c29190613ce1565b67ffffffffffffffff811115612601577f4e487b7100000000000000000000000000000000000000000000000000000000600052604160045260246000fd5b6040519080825280601f01601f1916602001820160405280156126335781602001600182028036833780820191505090505b50905060006040518060600160405280604081526020016145ac604091399050600181016020830160005b868110156126d75760038101905062ffffff818a015116603f8160121c168401518060081b905060ff603f83600c1c1686015116810190508060081b905060ff603f8360061c1686015116810190508060081b905060ff603f831686015116810190508060e01b9050808452600484019350505061265e565b5060038606600181146126f157600281146127015761270c565b613d3d60f01b600283035261270c565b603d60f81b60018303525b508484525050819450505050505b919050565b612729838361293f565b61273660008484846127a8565b612775576040517f08c379a000000000000000000000000000000000000000000000000000000000815260040161276c90613984565b60405180910390fd5b505050565b60008151905060006a636f6e736f6c652e6c6f679050602083016000808483855afa5050505050565b505050565b60006127c98473ffffffffffffffffffffffffffffffffffffffff16612b0d565b15612932578373ffffffffffffffffffffffffffffffffffffffff1663150b7a026127f2611df0565b8786866040518563ffffffff1660e01b81526004016128149493929190613817565b602060405180830381600087803b15801561282e57600080fd5b505af192505050801561285f57506040513d601f19601f8201168201806040525081019061285c919061316e565b60015b6128e2573d806000811461288f576040519150601f19603f3d011682016040523d82523d6000602084013e612894565b606091505b506000815114156128da576040517f08c379a00000000000000000000000000000000000000000000000000000000081526004016128d190613984565b60405180910390fd5b805181602001fd5b63150b7a0260e01b7bffffffffffffffffffffffffffffffffffffffffffffffffffffffff1916817bffffffffffffffffffffffffffffffffffffffffffffffffffffffff191614915050612937565b600190505b949350505050565b600073ffffffffffffffffffffffffffffffffffffffff168273ffffffffffffffffffffffffffffffffffffffff1614156129af576040517f08c379a00000000000000000000000000000000000000000000000000000000081526004016129a690613a84565b60405180910390fd5b6129b881611d84565b156129f8576040517f08c379a00000000000000000000000000000000000000000000000000000000081526004016129ef906139a4565b60405180910390fd5b612a04600083836127a3565b6001600360008473ffffffffffffffffffffffffffffffffffffffff1673ffffffffffffffffffffffffffffffffffffffff1681526020019081526020016000206000828254612a549190613ce1565b92505081905550816002600083815260200190815260200160002060006101000a81548173ffffffffffffffffffffffffffffffffffffffff021916908373ffffffffffffffffffffffffffffffffffffffff160217905550808273ffffffffffffffffffffffffffffffffffffffff16600073ffffffffffffffffffffffffffffffffffffffff167fddf252ad1be2c89b69c2b068fc378daa952ba7f163c4a11628f55a4df523b3ef60405160405180910390a45050565b600080823b905060008111915050919050565b828054612b2c90613eac565b90600052602060002090601f016020900481019282612b4e5760008555612b95565b82601f10612b6757805160ff1916838001178555612b95565b82800160010185558215612b95579182015b82811115612b94578251825591602001919060010190612b79565b5b509050612ba29190612c06565b5090565b828054828255906000526020600020908101928215612bf5579160200282015b82811115612bf4578251829080519060200190612be4929190612b20565b5091602001919060010190612bc6565b5b509050612c029190612c23565b5090565b5b80821115612c1f576000816000905550600101612c07565b5090565b5b80821115612c435760008181612c3a9190612c47565b50600101612c24565b5090565b508054612c5390613eac565b6000825580601f10612c655750612c84565b601f016020900490600052602060002090810190612c839190612c06565b5b50565b6000612c9a612c9584613b8d565b613b68565b90508083825260208201905082856020860282011115612cb957600080fd5b60005b85811015612d0357813567ffffffffffffffff811115612cdb57600080fd5b808601612ce88982612e31565b85526020850194506020840193505050600181019050612cbc565b5050509392505050565b6000612d20612d1b84613bb9565b613b68565b905082815260208101848484011115612d3857600080fd5b612d43848285613e6a565b509392505050565b6000612d5e612d5984613bea565b613b68565b905082815260208101848484011115612d7657600080fd5b612d81848285613e6a565b509392505050565b600081359050612d988161454f565b92915050565b600082601f830112612daf57600080fd5b8135612dbf848260208601612c87565b91505092915050565b600081359050612dd781614566565b92915050565b600081359050612dec8161457d565b92915050565b600081519050612e018161457d565b92915050565b600082601f830112612e1857600080fd5b8135612e28848260208601612d0d565b91505092915050565b600082601f830112612e4257600080fd5b8135612e52848260208601612d4b565b91505092915050565b600081359050612e6a81614594565b92915050565b600060208284031215612e8257600080fd5b6000612e9084828501612d89565b91505092915050565b60008060408385031215612eac57600080fd5b6000612eba85828601612d89565b9250506020612ecb85828601612d89565b9150509250929050565b600080600060608486031215612eea57600080fd5b6000612ef886828701612d89565b9350506020612f0986828701612d89565b9250506040612f1a86828701612e5b565b9150509250925092565b60008060008060808587031215612f3a57600080fd5b6000612f4887828801612d89565b9450506020612f5987828801612d89565b9350506040612f6a87828801612e5b565b925050606085013567ffffffffffffffff811115612f8757600080fd5b612f9387828801612e07565b91505092959194509250565b60008060408385031215612fb257600080fd5b6000612fc085828601612d89565b9250506020612fd185828601612dc8565b9150509250929050565b600080600080600080600060e0888a031215612ff657600080fd5b60006130048a828b01612d89565b975050602088013567ffffffffffffffff81111561302157600080fd5b61302d8a828b01612e31565b965050604088013567ffffffffffffffff81111561304a57600080fd5b6130568a828b01612e31565b955050606088013567ffffffffffffffff81111561307357600080fd5b61307f8a828b01612d9e565b945050608088013567ffffffffffffffff81111561309c57600080fd5b6130a88a828b01612e31565b93505060a088013567ffffffffffffffff8111156130c557600080fd5b6130d18a828b01612d9e565b92505060c088013567ffffffffffffffff8111156130ee57600080fd5b6130fa8a828b01612e31565b91505092959891949750929550565b6000806040838503121561311c57600080fd5b600061312a85828601612d89565b925050602061313b85828601612e5b565b9150509250929050565b60006020828403121561315757600080fd5b600061316584828501612ddd565b91505092915050565b60006020828403121561318057600080fd5b600061318e84828501612df2565b91505092915050565b6000602082840312156131a957600080fd5b60006131b784828501612e5b565b91505092915050565b60006131cc8383613338565b905092915050565b60006131e08383613674565b905092915050565b6131f181613df6565b82525050565b61320081613df6565b82525050565b600061321182613c3b565b61321b8185613c81565b93508360208202850161322d85613c1b565b8060005b85811015613269578484038952815161324a85826131c0565b945061325583613c67565b925060208a01995050600181019050613231565b50829750879550505050505092915050565b600061328682613c46565b6132908185613c92565b9350836020820285016132a285613c2b565b8060005b858110156132de57848403895281516132bf85826131d4565b94506132ca83613c74565b925060208a019950506001810190506132a6565b50829750879550505050505092915050565b6132f981613e08565b82525050565b600061330a82613c51565b6133148185613ca3565b9350613324818560208601613e79565b61332d81614045565b840191505092915050565b600061334382613c5c565b61334d8185613cb4565b935061335d818560208601613e79565b61336681614045565b840191505092915050565b600061337c82613c5c565b6133868185613cc5565b9350613396818560208601613e79565b61339f81614045565b840191505092915050565b60006133b582613c5c565b6133bf8185613cd6565b93506133cf818560208601613e79565b80840191505092915050565b60006133e8600b83613cd6565b91506133f382614056565b600b82019050919050565b600061340b603283613cc5565b91506134168261407f565b604082019050919050565b600061342e601c83613cc5565b9150613439826140ce565b602082019050919050565b6000613451603c83613cd6565b915061345c826140f7565b603c82019050919050565b6000613474602483613cc5565b915061347f82614146565b604082019050919050565b6000613497601983613cc5565b91506134a282614195565b602082019050919050565b60006134ba602c83613cc5565b91506134c5826141be565b604082019050919050565b60006134dd603883613cc5565b91506134e88261420d565b604082019050919050565b6000613500602a83613cc5565b915061350b8261425c565b604082019050919050565b6000613523602983613cc5565b915061352e826142ab565b604082019050919050565b6000613546600483613cd6565b9150613551826142fa565b600482019050919050565b6000613569602083613cc5565b915061357482614323565b602082019050919050565b600061358c605283613cd6565b91506135978261434c565b605282019050919050565b60006135af602c83613cc5565b91506135ba826143c1565b604082019050919050565b60006135d2602983613cc5565b91506135dd82614410565b604082019050919050565b60006135f5600a83613cd6565b91506136008261445f565b600a82019050919050565b6000613618602183613cc5565b915061362382614488565b604082019050919050565b600061363b601d83613cd6565b9150613646826144d7565b601d82019050919050565b600061365e603183613cc5565b915061366982614500565b604082019050919050565b60006101008301600083015161368d60008601826131e8565b50602083015184820360208601526136a58282613338565b915050604083015184820360408601526136bf8282613338565b915050606083015184820360608601526136d98282613206565b915050608083015184820360808601526136f38282613338565b91505060a083015184820360a086015261370d8282613206565b91505060c083015184820360c08601526137278282613338565b91505060e083015161373c60e0860182613747565b508091505092915050565b61375081613e60565b82525050565b61375f81613e60565b82525050565b6000613770826135e8565b915061377c82876133aa565b9150613787826133db565b915061379382866133aa565b915061379e8261357f565b91506137aa82856133aa565b91506137b582613444565b91506137c182846133aa565b91506137cc82613539565b915081905095945050505050565b60006137e58261362e565b91506137f182846133aa565b915081905092915050565b600060208201905061381160008301846131f7565b92915050565b600060808201905061382c60008301876131f7565b61383960208301866131f7565b6138466040830185613756565b818103606083015261385881846132ff565b905095945050505050565b600060c08201905061387860008301896131f7565b818103602083015261388a8188613371565b9050818103604083015261389e8187613371565b905081810360608301526138b28186613371565b905081810360808301526138c68185613371565b90506138d560a0830184613756565b979650505050505050565b600060208201905081810360008301526138fa818461327b565b905092915050565b600060208201905061391760008301846132f0565b92915050565b600060208201905081810360008301526139378184613371565b905092915050565b600060608201905081810360008301526139598186613371565b9050818103602083015261396d8185613371565b905061397c6040830184613756565b949350505050565b6000602082019050818103600083015261399d816133fe565b9050919050565b600060208201905081810360008301526139bd81613421565b9050919050565b600060208201905081810360008301526139dd81613467565b9050919050565b600060208201905081810360008301526139fd8161348a565b9050919050565b60006020820190508181036000830152613a1d816134ad565b9050919050565b60006020820190508181036000830152613a3d816134d0565b9050919050565b60006020820190508181036000830152613a5d816134f3565b9050919050565b60006020820190508181036000830152613a7d81613516565b9050919050565b60006020820190508181036000830152613a9d8161355c565b9050919050565b60006020820190508181036000830152613abd816135a2565b9050919050565b60006020820190508181036000830152613add816135c5565b9050919050565b60006020820190508181036000830152613afd8161360b565b9050919050565b60006020820190508181036000830152613b1d81613651565b9050919050565b6000602082019050613b396000830184613756565b92915050565b6000604082019050613b546000830185613756565b613b616020830184613756565b9392505050565b6000613b72613b83565b9050613b7e8282613ede565b919050565b6000604051905090565b600067ffffffffffffffff821115613ba857613ba7614016565b5b602082029050602081019050919050565b600067ffffffffffffffff821115613bd457613bd3614016565b5b613bdd82614045565b9050602081019050919050565b600067ffffffffffffffff821115613c0557613c04614016565b5b613c0e82614045565b9050602081019050919050565b6000819050602082019050919050565b6000819050602082019050919050565b600081519050919050565b600081519050919050565b600081519050919050565b600081519050919050565b6000602082019050919050565b6000602082019050919050565b600082825260208201905092915050565b600082825260208201905092915050565b600082825260208201905092915050565b600082825260208201905092915050565b600082825260208201905092915050565b600081905092915050565b6000613cec82613e60565b9150613cf783613e60565b9250827fffffffffffffffffffffffffffffffffffffffffffffffffffffffffffffffff03821115613d2c57613d2b613f89565b5b828201905092915050565b6000613d4282613e60565b9150613d4d83613e60565b925082613d5d57613d5c613fb8565b5b828204905092915050565b6000613d7382613e60565b9150613d7e83613e60565b9250817fffffffffffffffffffffffffffffffffffffffffffffffffffffffffffffffff0483118215151615613db757613db6613f89565b5b828202905092915050565b6000613dcd82613e60565b9150613dd883613e60565b925082821015613deb57613dea613f89565b5b828203905092915050565b6000613e0182613e40565b9050919050565b60008115159050919050565b60007fffffffff0000000000000000000000000000000000000000000000000000000082169050919050565b600073ffffffffffffffffffffffffffffffffffffffff82169050919050565b6000819050919050565b82818337600083830152505050565b60005b83811015613e97578082015181840152602081019050613e7c565b83811115613ea6576000848401525b50505050565b60006002820490506001821680613ec457607f821691505b60208210811415613ed857613ed7613fe7565b5b50919050565b613ee782614045565b810181811067ffffffffffffffff82111715613f0657613f05614016565b5b80604052505050565b6000613f1a82613e60565b91507fffffffffffffffffffffffffffffffffffffffffffffffffffffffffffffffff821415613f4d57613f4c613f89565b5b600182019050919050565b6000613f6382613e60565b9150613f6e83613e60565b925082613f7e57613f7d613fb8565b5b828206905092915050565b7f4e487b7100000000000000000000000000000000000000000000000000000000600052601160045260246000fd5b7f4e487b7100000000000000000000000000000000000000000000000000000000600052601260045260246000fd5b7f4e487b7100000000000000000000000000000000000000000000000000000000600052602260045260246000fd5b7f4e487b7100000000000000000000000000000000000000000000000000000000600052604160045260246000fd5b6000601f19601f8301169050919050565b7f202d2d204e465420233a20000000000000000000000000000000000000000000600082015250565b7f4552433732313a207472616e7366657220746f206e6f6e20455243373231526560008201527f63656976657220696d706c656d656e7465720000000000000000000000000000602082015250565b7f4552433732313a20746f6b656e20616c7265616479206d696e74656400000000600082015250565b7f222c202261747472696275746573223a205b207b202274726169745f7479706560008201527f223a2022417274697374204e616d65222c202276616c7565223a202200000000602082015250565b7f4552433732313a207472616e7366657220746f20746865207a65726f2061646460008201527f7265737300000000000000000000000000000000000000000000000000000000602082015250565b7f4552433732313a20617070726f766520746f2063616c6c657200000000000000600082015250565b7f4552433732313a206f70657261746f7220717565727920666f72206e6f6e657860008201527f697374656e7420746f6b656e0000000000000000000000000000000000000000602082015250565b7f4552433732313a20617070726f76652063616c6c6572206973206e6f74206f7760008201527f6e6572206e6f7220617070726f76656420666f7220616c6c0000000000000000602082015250565b7f4552433732313a2062616c616e636520717565727920666f7220746865207a6560008201527f726f206164647265737300000000000000000000000000000000000000000000602082015250565b7f4552433732313a206f776e657220717565727920666f72206e6f6e657869737460008201527f656e7420746f6b656e0000000000000000000000000000000000000000000000602082015250565b7f7d205d7d00000000000000000000000000000000000000000000000000000000600082015250565b7f4552433732313a206d696e7420746f20746865207a65726f2061646472657373600082015250565b7f222c20226465736372697074696f6e223a202241207374617274657220736f6e60008201527f67207573656420746f20706c617920696e207468652050484c4f5445204a756b60208201527f65626f7821222c20226d65646961223a20220000000000000000000000000000604082015250565b7f4552433732313a20617070726f76656420717565727920666f72206e6f6e657860008201527f697374656e7420746f6b656e0000000000000000000000000000000000000000602082015250565b7f4552433732313a207472616e73666572206f6620746f6b656e2074686174206960008201527f73206e6f74206f776e0000000000000000000000000000000000000000000000602082015250565b7f7b226e616d65223a202200000000000000000000000000000000000000000000600082015250565b7f4552433732313a20617070726f76616c20746f2063757272656e74206f776e6560008201527f7200000000000000000000000000000000000000000000000000000000000000602082015250565b7f646174613a6170706c69636174696f6e2f6a736f6e3b6261736536342c000000600082015250565b7f4552433732313a207472616e736665722063616c6c6572206973206e6f74206f60008201527f776e6572206e6f7220617070726f766564000000000000000000000000000000602082015250565b61455881613df6565b811461456357600080fd5b50565b61456f81613e08565b811461457a57600080fd5b50565b61458681613e14565b811461459157600080fd5b50565b61459d81613e60565b81146145a857600080fd5b5056fe4142434445464748494a4b4c4d4e4f505152535455565758595a6162636465666768696a6b6c6d6e6f707172737475767778797a303132333435363738392b2f2a2a2a2a2a2a4d696e746564202573204e465420772f20746f6b656e4964202573202a2a2a2a2a2aa2646970667358221220e800c6ce831b20311ed2a17a2fb4011430f83ca44eb10c4af7c2acd2b5b9467964736f6c63430008040033",
  "linkReferences": {},
  "deployedLinkReferences": {}
}