{
  "_format": "hh-sol-artifact-1",
  "contractName": "Phlote",
  "sourceName": "contracts/Phlote.sol",
  "abi": [
    {
      "inputs": [],
      "stateMutability": "nonpayable",
      "type": "constructor"
    },
    {
      "anonymous": false,
      "inputs": [
        {
          "indexed": true,
          "internalType": "address",
          "name": "owner",
          "type": "address"
        },
        {
          "indexed": true,
          "internalType": "address",
          "name": "approved",
          "type": "address"
        },
        {
          "indexed": true,
          "internalType": "uint256",
          "name": "tokenId",
          "type": "uint256"
        }
      ],
      "name": "Approval",
      "type": "event"
    },
    {
      "anonymous": false,
      "inputs": [
        {
          "indexed": true,
          "internalType": "address",
          "name": "owner",
          "type": "address"
        },
        {
          "indexed": true,
          "internalType": "address",
          "name": "operator",
          "type": "address"
        },
        {
          "indexed": false,
          "internalType": "bool",
          "name": "approved",
          "type": "bool"
        }
      ],
      "name": "ApprovalForAll",
      "type": "event"
    },
    {
      "anonymous": false,
      "inputs": [
        {
          "indexed": false,
          "internalType": "uint256",
          "name": "price",
          "type": "uint256"
        },
        {
          "indexed": true,
          "internalType": "uint256",
          "name": "editionId",
          "type": "uint256"
        }
      ],
      "name": "SongNFTCreated",
      "type": "event"
    },
    {
      "anonymous": false,
      "inputs": [
        {
          "indexed": true,
          "internalType": "address",
          "name": "buyer",
          "type": "address"
        },
        {
          "indexed": false,
          "internalType": "uint256",
          "name": "tokenId",
          "type": "uint256"
        },
        {
          "indexed": false,
          "internalType": "uint256",
          "name": "numSold",
          "type": "uint256"
        }
      ],
      "name": "SongNFTMinted",
      "type": "event"
    },
    {
      "anonymous": false,
      "inputs": [
        {
          "indexed": true,
          "internalType": "address",
          "name": "from",
          "type": "address"
        },
        {
          "indexed": true,
          "internalType": "address",
          "name": "to",
          "type": "address"
        },
        {
          "indexed": true,
          "internalType": "uint256",
          "name": "tokenId",
          "type": "uint256"
        }
      ],
      "name": "Transfer",
      "type": "event"
    },
    {
      "inputs": [
        {
          "internalType": "address",
          "name": "to",
          "type": "address"
        },
        {
          "internalType": "uint256",
          "name": "tokenId",
          "type": "uint256"
        }
      ],
      "name": "approve",
      "outputs": [],
      "stateMutability": "nonpayable",
      "type": "function"
    },
    {
      "inputs": [
        {
          "internalType": "address",
          "name": "owner",
          "type": "address"
        }
      ],
      "name": "balanceOf",
      "outputs": [
        {
          "internalType": "uint256",
          "name": "",
          "type": "uint256"
        }
      ],
      "stateMutability": "view",
      "type": "function"
    },
    {
      "inputs": [],
      "name": "contractPrice",
      "outputs": [
        {
          "internalType": "uint256",
          "name": "",
          "type": "uint256"
        }
      ],
      "stateMutability": "view",
      "type": "function"
    },
    {
      "inputs": [
        {
          "internalType": "uint256",
          "name": "",
          "type": "uint256"
        }
      ],
      "name": "editions",
      "outputs": [
        {
          "internalType": "string",
          "name": "songName",
          "type": "string"
        },
        {
          "internalType": "string",
          "name": "songURI",
          "type": "string"
        },
        {
          "internalType": "string",
          "name": "artistName",
          "type": "string"
        },
        {
          "internalType": "uint256",
          "name": "numSold",
          "type": "uint256"
        },
        {
          "internalType": "uint256",
          "name": "songPrice",
          "type": "uint256"
        }
      ],
      "stateMutability": "view",
      "type": "function"
    },
    {
      "inputs": [],
      "name": "getAllsongs",
      "outputs": [
        {
          "components": [
            {
              "internalType": "string",
              "name": "songName",
              "type": "string"
            },
            {
              "internalType": "string",
              "name": "songURI",
              "type": "string"
            },
            {
              "internalType": "string",
              "name": "artistName",
              "type": "string"
            },
            {
              "internalType": "uint256",
              "name": "numSold",
              "type": "uint256"
            },
            {
              "internalType": "uint256",
              "name": "songPrice",
              "type": "uint256"
            }
          ],
          "internalType": "struct Phlote.SongNFT[]",
          "name": "",
          "type": "tuple[]"
        }
      ],
      "stateMutability": "view",
      "type": "function"
    },
    {
      "inputs": [
        {
          "internalType": "uint256",
          "name": "tokenId",
          "type": "uint256"
        }
      ],
      "name": "getApproved",
      "outputs": [
        {
          "internalType": "address",
          "name": "",
          "type": "address"
        }
      ],
      "stateMutability": "view",
      "type": "function"
    },
    {
      "inputs": [
        {
          "internalType": "address",
          "name": "owner",
          "type": "address"
        },
        {
          "internalType": "address",
          "name": "operator",
          "type": "address"
        }
      ],
      "name": "isApprovedForAll",
      "outputs": [
        {
          "internalType": "bool",
          "name": "",
          "type": "bool"
        }
      ],
      "stateMutability": "view",
      "type": "function"
    },
    {
      "inputs": [
        {
          "internalType": "address",
          "name": "",
          "type": "address"
        }
      ],
      "name": "lastShuffleTime",
      "outputs": [
        {
          "internalType": "uint256",
          "name": "",
          "type": "uint256"
        }
      ],
      "stateMutability": "view",
      "type": "function"
    },
    {
      "inputs": [
        {
          "internalType": "uint256",
          "name": "editionId",
          "type": "uint256"
        }
      ],
      "name": "mintsongNFT",
      "outputs": [],
      "stateMutability": "payable",
      "type": "function"
    },
    {
      "inputs": [],
      "name": "name",
      "outputs": [
        {
          "internalType": "string",
          "name": "",
          "type": "string"
        }
      ],
      "stateMutability": "view",
      "type": "function"
    },
    {
      "inputs": [
        {
          "internalType": "address",
          "name": "",
          "type": "address"
        }
      ],
      "name": "nftHolders",
      "outputs": [
        {
          "internalType": "uint256",
          "name": "",
          "type": "uint256"
        }
      ],
      "stateMutability": "view",
      "type": "function"
    },
    {
      "inputs": [
        {
          "internalType": "uint256",
          "name": "tokenId",
          "type": "uint256"
        }
      ],
      "name": "ownerOf",
      "outputs": [
        {
          "internalType": "address",
          "name": "",
          "type": "address"
        }
      ],
      "stateMutability": "view",
      "type": "function"
    },
    {
      "inputs": [
        {
          "internalType": "address",
          "name": "from",
          "type": "address"
        },
        {
          "internalType": "address",
          "name": "to",
          "type": "address"
        },
        {
          "internalType": "uint256",
          "name": "tokenId",
          "type": "uint256"
        }
      ],
      "name": "safeTransferFrom",
      "outputs": [],
      "stateMutability": "nonpayable",
      "type": "function"
    },
    {
      "inputs": [
        {
          "internalType": "address",
          "name": "from",
          "type": "address"
        },
        {
          "internalType": "address",
          "name": "to",
          "type": "address"
        },
        {
          "internalType": "uint256",
          "name": "tokenId",
          "type": "uint256"
        },
        {
          "internalType": "bytes",
          "name": "_data",
          "type": "bytes"
        }
      ],
      "name": "safeTransferFrom",
      "outputs": [],
      "stateMutability": "nonpayable",
      "type": "function"
    },
    {
      "inputs": [
        {
          "internalType": "address",
          "name": "operator",
          "type": "address"
        },
        {
          "internalType": "bool",
          "name": "approved",
          "type": "bool"
        }
      ],
      "name": "setApprovalForAll",
      "outputs": [],
      "stateMutability": "nonpayable",
      "type": "function"
    },
    {
      "inputs": [
        {
          "internalType": "string",
          "name": "_songName",
          "type": "string"
        },
        {
          "internalType": "string",
          "name": "_artistName",
          "type": "string"
        },
        {
          "internalType": "string",
          "name": "_songURI",
          "type": "string"
        },
        {
          "internalType": "uint256",
          "name": "_songPrice",
          "type": "uint256"
        }
      ],
      "name": "setSong",
      "outputs": [],
      "stateMutability": "nonpayable",
      "type": "function"
    },
    {
      "inputs": [
        {
          "internalType": "address",
          "name": "artist",
          "type": "address"
        },
        {
          "internalType": "string",
          "name": "mediaURI",
          "type": "string"
        },
        {
          "internalType": "string",
          "name": "marketplace",
          "type": "string"
        },
        {
          "internalType": "string",
          "name": "tag",
          "type": "string"
        },
        {
          "internalType": "string",
          "name": "_artistName",
          "type": "string"
        },
        {
          "internalType": "string",
          "name": "mediatype",
          "type": "string"
        },
        {
          "internalType": "string",
          "name": "mediaTitle",
          "type": "string"
        }
      ],
      "name": "submitMetadata",
      "outputs": [],
      "stateMutability": "nonpayable",
      "type": "function"
    },
    {
      "inputs": [
        {
          "internalType": "bytes4",
          "name": "interfaceId",
          "type": "bytes4"
        }
      ],
      "name": "supportsInterface",
      "outputs": [
        {
          "internalType": "bool",
          "name": "",
          "type": "bool"
        }
      ],
      "stateMutability": "view",
      "type": "function"
    },
    {
      "inputs": [],
      "name": "symbol",
      "outputs": [
        {
          "internalType": "string",
          "name": "",
          "type": "string"
        }
      ],
      "stateMutability": "view",
      "type": "function"
    },
    {
      "inputs": [
        {
          "internalType": "uint256",
          "name": "",
          "type": "uint256"
        }
      ],
      "name": "tokenToSong",
      "outputs": [
        {
          "internalType": "uint256",
          "name": "",
          "type": "uint256"
        }
      ],
      "stateMutability": "view",
      "type": "function"
    },
    {
      "inputs": [
        {
          "internalType": "uint256",
          "name": "_tokenId",
          "type": "uint256"
        }
      ],
      "name": "tokenURI",
      "outputs": [
        {
          "internalType": "string",
          "name": "",
          "type": "string"
        }
      ],
      "stateMutability": "view",
      "type": "function"
    },
    {
      "inputs": [
        {
          "internalType": "address",
          "name": "from",
          "type": "address"
        },
        {
          "internalType": "address",
          "name": "to",
          "type": "address"
        },
        {
          "internalType": "uint256",
          "name": "tokenId",
          "type": "uint256"
        }
      ],
      "name": "transferFrom",
      "outputs": [],
      "stateMutability": "nonpayable",
      "type": "function"
    },
    {
      "inputs": [
        {
          "internalType": "uint256",
          "name": "editionId",
          "type": "uint256"
        },
        {
          "internalType": "address payable",
          "name": "person",
          "type": "address"
        }
      ],
      "name": "withdrawFunds",
      "outputs": [],
      "stateMutability": "nonpayable",
      "type": "function"
    },
    {
      "inputs": [
        {
          "internalType": "uint256",
          "name": "",
          "type": "uint256"
        }
      ],
      "name": "withdrawnForEdition",
      "outputs": [
        {
          "internalType": "uint256",
          "name": "",
          "type": "uint256"
        }
      ],
      "stateMutability": "view",
      "type": "function"
    }
  ],
  "bytecode": "0x608060405260405180604001604052806040518060400160405280600a81526020017f6e6f2076697375616c730000000000000000000000000000000000000000000081525081526020016040518060400160405280601081526020017f736f6e6720776974682076697375616c0000000000000000000000000000000081525081525060069060026200009592919062000925565b5060405180604001604052806040518060600160405280603581526020016200505f6035913981526020016040518060600160405280603581526020016200502a603591398152506007906002620000ef92919062000925565b5060405180604001604052806040518060400160405280600781526020017f617274697374310000000000000000000000000000000000000000000000000081525081526020016040518060400160405280600781526020017f617274697374320000000000000000000000000000000000000000000000000081525081525060089060026200018192919062000925565b506001600b553480156200019457600080fd5b506040518060400160405280600581526020017f536f6e67730000000000000000000000000000000000000000000000000000008152506040518060400160405280600481526020017f534f4e47000000000000000000000000000000000000000000000000000000008152508160009080519060200190620002199291906200098c565b508060019080519060200190620002329291906200098c565b50505060005b6006805490508110156200081c57600c6040518060a00160405280600684815481106200028e577f4e487b7100000000000000000000000000000000000000000000000000000000600052603260045260246000fd5b906000526020600020018054620002a59062000c0d565b80601f0160208091040260200160405190810160405280929190818152602001828054620002d39062000c0d565b8015620003245780601f10620002f85761010080835404028352916020019162000324565b820191906000526020600020905b8154815290600101906020018083116200030657829003601f168201915b505050505081526020016007848154811062000369577f4e487b7100000000000000000000000000000000000000000000000000000000600052603260045260246000fd5b906000526020600020018054620003809062000c0d565b80601f0160208091040260200160405190810160405280929190818152602001828054620003ae9062000c0d565b8015620003ff5780601f10620003d357610100808354040283529160200191620003ff565b820191906000526020600020905b815481529060010190602001808311620003e157829003601f168201915b505050505081526020016008848154811062000444577f4e487b7100000000000000000000000000000000000000000000000000000000600052603260045260246000fd5b9060005260206000200180546200045b9062000c0d565b80601f0160208091040260200160405190810160405280929190818152602001828054620004899062000c0d565b8015620004da5780601f10620004ae57610100808354040283529160200191620004da565b820191906000526020600020905b815481529060010190602001808311620004bc57829003601f168201915b5050505050815260200160008152602001600081525090806001815401808255809150506001900390600052602060002090600502016000909190919091506000820151816000019080519060200190620005379291906200098c565b506020820151816001019080519060200190620005569291906200098c565b506040820151816002019080519060200190620005759291906200098c565b50606082015181600301556080820151816004015550506000600c8281548110620005c9577f4e487b7100000000000000000000000000000000000000000000000000000000600052603260045260246000fd5b90600052602060002090600502016040518060a0016040529081600082018054620005f49062000c0d565b80601f0160208091040260200160405190810160405280929190818152602001828054620006229062000c0d565b8015620006735780601f10620006475761010080835404028352916020019162000673565b820191906000526020600020905b8154815290600101906020018083116200065557829003601f168201915b505050505081526020016001820180546200068e9062000c0d565b80601f0160208091040260200160405190810160405280929190818152602001828054620006bc9062000c0d565b80156200070d5780601f10620006e1576101008083540402835291602001916200070d565b820191906000526020600020905b815481529060010190602001808311620006ef57829003601f168201915b50505050508152602001600282018054620007289062000c0d565b80601f0160208091040260200160405190810160405280929190818152602001828054620007569062000c0d565b8015620007a75780601f106200077b57610100808354040283529160200191620007a7565b820191906000526020600020905b8154815290600101906020018083116200078957829003601f168201915b505050505081526020016003820154815260200160048201548152505090506200080460405180608001604052806044815260200162005094604491398260000151836020015184604001516200083a60201b6200173b1760201c565b5060018162000814919062000b70565b905062000238565b5062000834600a620008e660201b620017dd1760201c565b62000cb2565b620008e08484848460405160240162000857949392919062000aeb565b6040516020818303038152906040527fde68f20a000000000000000000000000000000000000000000000000000000007bffffffffffffffffffffffffffffffffffffffffffffffffffffffff19166020820180517bffffffffffffffffffffffffffffffffffffffffffffffffffffffff8381831617835250505050620008fc60201b60201c565b50505050565b6001816000016000828254019250508190555050565b60008151905060006a636f6e736f6c652e6c6f679050602083016000808483855afa5050505050565b82805482825590600052602060002090810192821562000979579160200282015b8281111562000978578251829080519060200190620009679291906200098c565b509160200191906001019062000946565b5b50905062000988919062000a1d565b5090565b8280546200099a9062000c0d565b90600052602060002090601f016020900481019282620009be576000855562000a0a565b82601f10620009d957805160ff191683800117855562000a0a565b8280016001018555821562000a0a579182015b8281111562000a09578251825591602001919060010190620009ec565b5b50905062000a19919062000a45565b5090565b5b8082111562000a41576000818162000a37919062000a64565b5060010162000a1e565b5090565b5b8082111562000a6057600081600090555060010162000a46565b5090565b50805462000a729062000c0d565b6000825580601f1062000a86575062000aa7565b601f01602090049060005260206000209081019062000aa6919062000a45565b5b50565b600062000ab78262000b54565b62000ac3818562000b5f565b935062000ad581856020860162000bd7565b62000ae08162000ca1565b840191505092915050565b6000608082019050818103600083015262000b07818762000aaa565b9050818103602083015262000b1d818662000aaa565b9050818103604083015262000b33818562000aaa565b9050818103606083015262000b49818462000aaa565b905095945050505050565b600081519050919050565b600082825260208201905092915050565b600062000b7d8262000bcd565b915062000b8a8362000bcd565b9250827fffffffffffffffffffffffffffffffffffffffffffffffffffffffffffffffff0382111562000bc25762000bc162000c43565b5b828201905092915050565b6000819050919050565b60005b8381101562000bf757808201518184015260208101905062000bda565b8381111562000c07576000848401525b50505050565b6000600282049050600182168062000c2657607f821691505b6020821081141562000c3d5762000c3c62000c72565b5b50919050565b7f4e487b7100000000000000000000000000000000000000000000000000000000600052601160045260246000fd5b7f4e487b7100000000000000000000000000000000000000000000000000000000600052602260045260246000fd5b6000601f19601f8301169050919050565b6143688062000cc26000396000f3fe60806040526004361061014b5760003560e01c80637df124a1116100b6578063b88d4fde1161006f578063b88d4fde146104bb578063c87b56dd146104e4578063d3bb052814610521578063e2b18d3f1461055e578063e985e9c51461059b578063ec963524146105d85761014b565b80637df124a11461039957806381faff99146103d657806395d89b411461041357806397e9a0bf1461043e5780639c487c3614610469578063a22cb465146104925761014b565b806342842e0e1161010857806342842e0e1461028857806347dff470146102b15780635dfa1029146102da5780636352211e146102f657806370a0823114610333578063744bfe61146103705761014b565b806301ffc9a71461015057806306fdde031461018d578063081812fc146101b8578063095ea7b3146101f557806323b872dd1461021e578063279c806e14610247575b600080fd5b34801561015c57600080fd5b5061017760048036038101906101729190612c7e565b610603565b604051610184919061345f565b60405180910390f35b34801561019957600080fd5b506101a26106e5565b6040516101af919061347a565b60405180910390f35b3480156101c457600080fd5b506101df60048036038101906101da9190612d7b565b610777565b6040516101ec91906133d6565b60405180910390f35b34801561020157600080fd5b5061021c60048036038101906102179190612c42565b6107fc565b005b34801561022a57600080fd5b5061024560048036038101906102409190612a0e565b610914565b005b34801561025357600080fd5b5061026e60048036038101906102699190612d7b565b610974565b60405161027f9594939291906134fd565b60405180910390f35b34801561029457600080fd5b506102af60048036038101906102aa9190612a0e565b610b42565b005b3480156102bd57600080fd5b506102d860048036038101906102d39190612cd0565b610b62565b005b6102f460048036038101906102ef9190612d7b565b610c65565b005b34801561030257600080fd5b5061031d60048036038101906103189190612d7b565b610e92565b60405161032a91906133d6565b60405180910390f35b34801561033f57600080fd5b5061035a600480360381019061035591906129a9565b610f44565b60405161036791906137aa565b60405180910390f35b34801561037c57600080fd5b5061039760048036038101906103929190612da4565b610ffc565b005b3480156103a557600080fd5b506103c060048036038101906103bb91906129a9565b61108f565b6040516103cd91906137aa565b60405180910390f35b3480156103e257600080fd5b506103fd60048036038101906103f891906129a9565b6110a7565b60405161040a91906137aa565b60405180910390f35b34801561041f57600080fd5b506104286110bf565b604051610435919061347a565b60405180910390f35b34801561044a57600080fd5b50610453611151565b60405161046091906137aa565b60405180910390f35b34801561047557600080fd5b50610490600480360381019061048b9190612b14565b611157565b005b34801561049e57600080fd5b506104b960048036038101906104b49190612ad8565b611160565b005b3480156104c757600080fd5b506104e260048036038101906104dd9190612a5d565b611176565b005b3480156104f057600080fd5b5061050b60048036038101906105069190612d7b565b6111d8565b604051610518919061347a565b60405180910390f35b34801561052d57600080fd5b5061054860048036038101906105439190612d7b565b61144e565b60405161055591906137aa565b60405180910390f35b34801561056a57600080fd5b5061058560048036038101906105809190612d7b565b611466565b60405161059291906137aa565b60405180910390f35b3480156105a757600080fd5b506105c260048036038101906105bd91906129d2565b61147e565b6040516105cf919061345f565b60405180910390f35b3480156105e457600080fd5b506105ed611512565b6040516105fa919061343d565b60405180910390f35b60007f80ac58cd000000000000000000000000000000000000000000000000000000007bffffffffffffffffffffffffffffffffffffffffffffffffffffffff1916827bffffffffffffffffffffffffffffffffffffffffffffffffffffffff191614806106ce57507f5b5e139f000000000000000000000000000000000000000000000000000000007bffffffffffffffffffffffffffffffffffffffffffffffffffffffff1916827bffffffffffffffffffffffffffffffffffffffffffffffffffffffff1916145b806106de57506106dd826117f3565b5b9050919050565b6060600080546106f490613aea565b80601f016020809104026020016040519081016040528092919081815260200182805461072090613aea565b801561076d5780601f106107425761010080835404028352916020019161076d565b820191906000526020600020905b81548152906001019060200180831161075057829003601f168201915b5050505050905090565b60006107828261185d565b6107c1576040517f08c379a00000000000000000000000000000000000000000000000000000000081526004016107b89061370a565b60405180910390fd5b6004600083815260200190815260200160002060009054906101000a900473ffffffffffffffffffffffffffffffffffffffff169050919050565b600061080782610e92565b90508073ffffffffffffffffffffffffffffffffffffffff168373ffffffffffffffffffffffffffffffffffffffff161415610878576040517f08c379a000000000000000000000000000000000000000000000000000000000815260040161086f9061374a565b60405180910390fd5b8073ffffffffffffffffffffffffffffffffffffffff166108976118c9565b73ffffffffffffffffffffffffffffffffffffffff1614806108c657506108c5816108c06118c9565b61147e565b5b610905576040517f08c379a00000000000000000000000000000000000000000000000000000000081526004016108fc9061368a565b60405180910390fd5b61090f83836118d1565b505050565b61092561091f6118c9565b8261198a565b610964576040517f08c379a000000000000000000000000000000000000000000000000000000000815260040161095b9061376a565b60405180910390fd5b61096f838383611a68565b505050565b600d60205280600052604060002060009150905080600001805461099790613aea565b80601f01602080910402602001604051908101604052809291908181526020018280546109c390613aea565b8015610a105780601f106109e557610100808354040283529160200191610a10565b820191906000526020600020905b8154815290600101906020018083116109f357829003601f168201915b505050505090806001018054610a2590613aea565b80601f0160208091040260200160405190810160405280929190818152602001828054610a5190613aea565b8015610a9e5780601f10610a7357610100808354040283529160200191610a9e565b820191906000526020600020905b815481529060010190602001808311610a8157829003601f168201915b505050505090806002018054610ab390613aea565b80601f0160208091040260200160405190810160405280929190818152602001828054610adf90613aea565b8015610b2c5780601f10610b0157610100808354040283529160200191610b2c565b820191906000526020600020905b815481529060010190602001808311610b0f57829003601f168201915b5050505050908060030154908060040154905085565b610b5d83838360405180602001604052806000815250611176565b505050565b6040518060a001604052808581526020018381526020018481526020016000815260200182815250600d6000600b5481526020019081526020016000206000820151816000019080519060200190610bbb9291906127b8565b506020820151816001019080519060200190610bd89291906127b8565b506040820151816002019080519060200190610bf59291906127b8565b506060820151816003015560808201518160040155905050600b547fe43036141c85e043b53f1a8ab061dc7d277e4ae192472443838786c58a4e949f82604051610c3f91906137aa565b60405180910390a2600b6000815480929190610c5a90613b4d565b919050555050505050565b600d6000828152602001908152602001600020600401543414610cbd576040517f08c379a0000000000000000000000000000000000000000000000000000000008152600401610cb49061364a565b60405180910390fd5b6000610cc9600a611cc4565b9050610cd53382611cd2565b610d9660405180606001604052806028815260200161430b60289139600d60008581526020019081526020016000206000018054610d1290613aea565b80601f0160208091040260200160405190810160405280929190818152602001828054610d3e90613aea565b8015610d8b5780601f10610d6057610100808354040283529160200191610d8b565b820191906000526020600020905b815481529060010190602001808311610d6e57829003601f168201915b505050505083611cf0565b80600e60003373ffffffffffffffffffffffffffffffffffffffff1673ffffffffffffffffffffffffffffffffffffffff16815260200190815260200160002081905550610de4600a6117dd565b600d60008381526020019081526020016000206003016000815480929190610e0b90613b4d565b91905055508160136000838152602001908152602001600020819055503373ffffffffffffffffffffffffffffffffffffffff167f2edb7ac423fbf87a3fbaeda10e4c3e53e73d6e3658370682ee2794d10384f74e82600d600086815260200190815260200160002060030154604051610e869291906137c5565b60405180910390a25050565b6000806002600084815260200190815260200160002060009054906101000a900473ffffffffffffffffffffffffffffffffffffffff169050600073ffffffffffffffffffffffffffffffffffffffff168173ffffffffffffffffffffffffffffffffffffffff161415610f3b576040517f08c379a0000000000000000000000000000000000000000000000000000000008152600401610f32906136ca565b60405180910390fd5b80915050919050565b60008073ffffffffffffffffffffffffffffffffffffffff168273ffffffffffffffffffffffffffffffffffffffff161415610fb5576040517f08c379a0000000000000000000000000000000000000000000000000000000008152600401610fac906136aa565b60405180910390fd5b600360008373ffffffffffffffffffffffffffffffffffffffff1673ffffffffffffffffffffffffffffffffffffffff168152602001908152602001600020549050919050565b60006012600084815260200190815260200160002054600d600085815260200190815260200160002060030154600d60008681526020019081526020016000206004015461104a9190613994565b61105491906139ee565b905080601260008581526020019081526020016000206000828254611079919061390d565b9250508190555061108a8282611d8f565b505050565b600e6020528060005260406000206000915090505481565b60116020528060005260406000206000915090505481565b6060600180546110ce90613aea565b80601f01602080910402602001604051908101604052809291908181526020018280546110fa90613aea565b80156111475780601f1061111c57610100808354040283529160200191611147565b820191906000526020600020905b81548152906001019060200180831161112a57829003601f168201915b5050505050905090565b60095481565b50505050505050565b61117261116b6118c9565b8383611e83565b5050565b6111876111816118c9565b8361198a565b6111c6576040517f08c379a00000000000000000000000000000000000000000000000000000000081526004016111bd9061376a565b60405180910390fd5b6111d284848484611ff0565b50505050565b60606000600d6000601360008681526020019081526020016000205481526020019081526020016000206040518060a001604052908160008201805461121d90613aea565b80601f016020809104026020016040519081016040528092919081815260200182805461124990613aea565b80156112965780601f1061126b57610100808354040283529160200191611296565b820191906000526020600020905b81548152906001019060200180831161127957829003601f168201915b505050505081526020016001820180546112af90613aea565b80601f01602080910402602001604051908101604052809291908181526020018280546112db90613aea565b80156113285780601f106112fd57610100808354040283529160200191611328565b820191906000526020600020905b81548152906001019060200180831161130b57829003601f168201915b5050505050815260200160028201805461134190613aea565b80601f016020809104026020016040519081016040528092919081815260200182805461136d90613aea565b80156113ba5780601f1061138f576101008083540402835291602001916113ba565b820191906000526020600020905b81548152906001019060200180831161139d57829003601f168201915b50505050508152602001600382015481526020016004820154815250509050600061141d82600001516113ec8661204c565b84602001518560400151604051602001611409949392919061332a565b6040516020818303038152906040526121f9565b9050600081604051602001611432919061339f565b6040516020818303038152906040529050809350505050919050565b60126020528060005260406000206000915090505481565b60136020528060005260406000206000915090505481565b6000600560008473ffffffffffffffffffffffffffffffffffffffff1673ffffffffffffffffffffffffffffffffffffffff16815260200190815260200160002060008373ffffffffffffffffffffffffffffffffffffffff1673ffffffffffffffffffffffffffffffffffffffff16815260200190815260200160002060009054906101000a900460ff16905092915050565b6060600c805480602002602001604051908101604052809291908181526020016000905b8282101561173257838290600052602060002090600502016040518060a001604052908160008201805461156990613aea565b80601f016020809104026020016040519081016040528092919081815260200182805461159590613aea565b80156115e25780601f106115b7576101008083540402835291602001916115e2565b820191906000526020600020905b8154815290600101906020018083116115c557829003601f168201915b505050505081526020016001820180546115fb90613aea565b80601f016020809104026020016040519081016040528092919081815260200182805461162790613aea565b80156116745780601f1061164957610100808354040283529160200191611674565b820191906000526020600020905b81548152906001019060200180831161165757829003601f168201915b5050505050815260200160028201805461168d90613aea565b80601f01602080910402602001604051908101604052809291908181526020018280546116b990613aea565b80156117065780601f106116db57610100808354040283529160200191611706565b820191906000526020600020905b8154815290600101906020018083116116e957829003601f168201915b505050505081526020016003820154815260200160048201548152505081526020019060010190611536565b50505050905090565b6117d784848484604051602401611755949392919061349c565b6040516020818303038152906040527fde68f20a000000000000000000000000000000000000000000000000000000007bffffffffffffffffffffffffffffffffffffffffffffffffffffffff19166020820180517bffffffffffffffffffffffffffffffffffffffffffffffffffffffff83818316178352505050506123b7565b50505050565b6001816000016000828254019250508190555050565b60007f01ffc9a7000000000000000000000000000000000000000000000000000000007bffffffffffffffffffffffffffffffffffffffffffffffffffffffff1916827bffffffffffffffffffffffffffffffffffffffffffffffffffffffff1916149050919050565b60008073ffffffffffffffffffffffffffffffffffffffff166002600084815260200190815260200160002060009054906101000a900473ffffffffffffffffffffffffffffffffffffffff1673ffffffffffffffffffffffffffffffffffffffff1614159050919050565b600033905090565b816004600083815260200190815260200160002060006101000a81548173ffffffffffffffffffffffffffffffffffffffff021916908373ffffffffffffffffffffffffffffffffffffffff160217905550808273ffffffffffffffffffffffffffffffffffffffff1661194483610e92565b73ffffffffffffffffffffffffffffffffffffffff167f8c5be1e5ebec7d5bd14f71427d1e84f3dd0314c0f7b2291e5b200ac8c7c3b92560405160405180910390a45050565b60006119958261185d565b6119d4576040517f08c379a00000000000000000000000000000000000000000000000000000000081526004016119cb9061366a565b60405180910390fd5b60006119df83610e92565b90508073ffffffffffffffffffffffffffffffffffffffff168473ffffffffffffffffffffffffffffffffffffffff161480611a4e57508373ffffffffffffffffffffffffffffffffffffffff16611a3684610777565b73ffffffffffffffffffffffffffffffffffffffff16145b80611a5f5750611a5e818561147e565b5b91505092915050565b8273ffffffffffffffffffffffffffffffffffffffff16611a8882610e92565b73ffffffffffffffffffffffffffffffffffffffff1614611ade576040517f08c379a0000000000000000000000000000000000000000000000000000000008152600401611ad59061372a565b60405180910390fd5b600073ffffffffffffffffffffffffffffffffffffffff168273ffffffffffffffffffffffffffffffffffffffff161415611b4e576040517f08c379a0000000000000000000000000000000000000000000000000000000008152600401611b459061360a565b60405180910390fd5b611b598383836123e0565b611b646000826118d1565b6001600360008573ffffffffffffffffffffffffffffffffffffffff1673ffffffffffffffffffffffffffffffffffffffff1681526020019081526020016000206000828254611bb491906139ee565b925050819055506001600360008473ffffffffffffffffffffffffffffffffffffffff1673ffffffffffffffffffffffffffffffffffffffff1681526020019081526020016000206000828254611c0b919061390d565b92505081905550816002600083815260200190815260200160002060006101000a81548173ffffffffffffffffffffffffffffffffffffffff021916908373ffffffffffffffffffffffffffffffffffffffff160217905550808273ffffffffffffffffffffffffffffffffffffffff168473ffffffffffffffffffffffffffffffffffffffff167fddf252ad1be2c89b69c2b068fc378daa952ba7f163c4a11628f55a4df523b3ef60405160405180910390a4505050565b600081600001549050919050565b611cec8282604051806020016040528060008152506123e5565b5050565b611d8a838383604051602401611d0893929190613565565b6040516020818303038152906040527ff362ca59000000000000000000000000000000000000000000000000000000007bffffffffffffffffffffffffffffffffffffffffffffffffffffffff19166020820180517bffffffffffffffffffffffffffffffffffffffffffffffffffffffff83818316178352505050506123b7565b505050565b80471015611dd2576040517f08c379a0000000000000000000000000000000000000000000000000000000008152600401611dc9906135ca565b60405180910390fd5b60008273ffffffffffffffffffffffffffffffffffffffff1682604051611df8906133c1565b60006040518083038185875af1925050503d8060008114611e35576040519150601f19603f3d011682016040523d82523d6000602084013e611e3a565b606091505b5050905080611e7e576040517f08c379a0000000000000000000000000000000000000000000000000000000008152600401611e759061378a565b60405180910390fd5b505050565b8173ffffffffffffffffffffffffffffffffffffffff168373ffffffffffffffffffffffffffffffffffffffff161415611ef2576040517f08c379a0000000000000000000000000000000000000000000000000000000008152600401611ee99061362a565b60405180910390fd5b80600560008573ffffffffffffffffffffffffffffffffffffffff1673ffffffffffffffffffffffffffffffffffffffff16815260200190815260200160002060008473ffffffffffffffffffffffffffffffffffffffff1673ffffffffffffffffffffffffffffffffffffffff16815260200190815260200160002060006101000a81548160ff0219169083151502179055508173ffffffffffffffffffffffffffffffffffffffff168373ffffffffffffffffffffffffffffffffffffffff167f17307eab39ab6107e8899845ad3d59bd9653f200f220920489ca2b5937696c3183604051611fe3919061345f565b60405180910390a3505050565b611ffb848484611a68565b61200784848484612440565b612046576040517f08c379a000000000000000000000000000000000000000000000000000000000815260040161203d906135aa565b60405180910390fd5b50505050565b60606000821415612094576040518060400160405280600181526020017f300000000000000000000000000000000000000000000000000000000000000081525090506121f4565b600082905060005b600082146120c65780806120af90613b4d565b915050600a826120bf9190613963565b915061209c565b60008167ffffffffffffffff811115612108577f4e487b7100000000000000000000000000000000000000000000000000000000600052604160045260246000fd5b6040519080825280601f01601f19166020018201604052801561213a5781602001600182028036833780820191505090505b5090505b600085146121ed5760018261215391906139ee565b9150600a856121629190613b96565b603061216e919061390d565b60f81b8183815181106121aa577f4e487b7100000000000000000000000000000000000000000000000000000000600052603260045260246000fd5b60200101907effffffffffffffffffffffffffffffffffffffffffffffffffffffffffffff1916908160001a905350600a856121e69190613963565b945061213e565b8093505050505b919050565b6060600082519050600081141561222257604051806020016040528060008152509150506123b2565b60006003600283612233919061390d565b61223d9190613963565b60046122499190613994565b9050600060208261225a919061390d565b67ffffffffffffffff811115612299577f4e487b7100000000000000000000000000000000000000000000000000000000600052604160045260246000fd5b6040519080825280601f01601f1916602001820160405280156122cb5781602001600182028036833780820191505090505b50905060006040518060600160405280604081526020016142cb604091399050600181016020830160005b8681101561236f5760038101905062ffffff818a015116603f8160121c168401518060081b905060ff603f83600c1c1686015116810190508060081b905060ff603f8360061c1686015116810190508060081b905060ff603f831686015116810190508060e01b905080845260048401935050506122f6565b5060038606600181146123895760028114612399576123a4565b613d3d60f01b60028303526123a4565b603d60f81b60018303525b508484525050819450505050505b919050565b60008151905060006a636f6e736f6c652e6c6f679050602083016000808483855afa5050505050565b505050565b6123ef83836125d7565b6123fc6000848484612440565b61243b576040517f08c379a0000000000000000000000000000000000000000000000000000000008152600401612432906135aa565b60405180910390fd5b505050565b60006124618473ffffffffffffffffffffffffffffffffffffffff166127a5565b156125ca578373ffffffffffffffffffffffffffffffffffffffff1663150b7a0261248a6118c9565b8786866040518563ffffffff1660e01b81526004016124ac94939291906133f1565b602060405180830381600087803b1580156124c657600080fd5b505af19250505080156124f757506040513d601f19601f820116820180604052508101906124f49190612ca7565b60015b61257a573d8060008114612527576040519150601f19603f3d011682016040523d82523d6000602084013e61252c565b606091505b50600081511415612572576040517f08c379a0000000000000000000000000000000000000000000000000000000008152600401612569906135aa565b60405180910390fd5b805181602001fd5b63150b7a0260e01b7bffffffffffffffffffffffffffffffffffffffffffffffffffffffff1916817bffffffffffffffffffffffffffffffffffffffffffffffffffffffff1916149150506125cf565b600190505b949350505050565b600073ffffffffffffffffffffffffffffffffffffffff168273ffffffffffffffffffffffffffffffffffffffff161415612647576040517f08c379a000000000000000000000000000000000000000000000000000000000815260040161263e906136ea565b60405180910390fd5b6126508161185d565b15612690576040517f08c379a0000000000000000000000000000000000000000000000000000000008152600401612687906135ea565b60405180910390fd5b61269c600083836123e0565b6001600360008473ffffffffffffffffffffffffffffffffffffffff1673ffffffffffffffffffffffffffffffffffffffff16815260200190815260200160002060008282546126ec919061390d565b92505081905550816002600083815260200190815260200160002060006101000a81548173ffffffffffffffffffffffffffffffffffffffff021916908373ffffffffffffffffffffffffffffffffffffffff160217905550808273ffffffffffffffffffffffffffffffffffffffff16600073ffffffffffffffffffffffffffffffffffffffff167fddf252ad1be2c89b69c2b068fc378daa952ba7f163c4a11628f55a4df523b3ef60405160405180910390a45050565b600080823b905060008111915050919050565b8280546127c490613aea565b90600052602060002090601f0160209004810192826127e6576000855561282d565b82601f106127ff57805160ff191683800117855561282d565b8280016001018555821561282d579182015b8281111561282c578251825591602001919060010190612811565b5b50905061283a919061283e565b5090565b5b8082111561285757600081600090555060010161283f565b5090565b600061286e61286984613813565b6137ee565b90508281526020810184848401111561288657600080fd5b612891848285613aa8565b509392505050565b60006128ac6128a784613844565b6137ee565b9050828152602081018484840111156128c457600080fd5b6128cf848285613aa8565b509392505050565b6000813590506128e681614257565b92915050565b6000813590506128fb8161426e565b92915050565b60008135905061291081614285565b92915050565b6000813590506129258161429c565b92915050565b60008151905061293a8161429c565b92915050565b600082601f83011261295157600080fd5b813561296184826020860161285b565b91505092915050565b600082601f83011261297b57600080fd5b813561298b848260208601612899565b91505092915050565b6000813590506129a3816142b3565b92915050565b6000602082840312156129bb57600080fd5b60006129c9848285016128d7565b91505092915050565b600080604083850312156129e557600080fd5b60006129f3858286016128d7565b9250506020612a04858286016128d7565b9150509250929050565b600080600060608486031215612a2357600080fd5b6000612a31868287016128d7565b9350506020612a42868287016128d7565b9250506040612a5386828701612994565b9150509250925092565b60008060008060808587031215612a7357600080fd5b6000612a81878288016128d7565b9450506020612a92878288016128d7565b9350506040612aa387828801612994565b925050606085013567ffffffffffffffff811115612ac057600080fd5b612acc87828801612940565b91505092959194509250565b60008060408385031215612aeb57600080fd5b6000612af9858286016128d7565b9250506020612b0a85828601612901565b9150509250929050565b600080600080600080600060e0888a031215612b2f57600080fd5b6000612b3d8a828b016128d7565b975050602088013567ffffffffffffffff811115612b5a57600080fd5b612b668a828b0161296a565b965050604088013567ffffffffffffffff811115612b8357600080fd5b612b8f8a828b0161296a565b955050606088013567ffffffffffffffff811115612bac57600080fd5b612bb88a828b0161296a565b945050608088013567ffffffffffffffff811115612bd557600080fd5b612be18a828b0161296a565b93505060a088013567ffffffffffffffff811115612bfe57600080fd5b612c0a8a828b0161296a565b92505060c088013567ffffffffffffffff811115612c2757600080fd5b612c338a828b0161296a565b91505092959891949750929550565b60008060408385031215612c5557600080fd5b6000612c63858286016128d7565b9250506020612c7485828601612994565b9150509250929050565b600060208284031215612c9057600080fd5b6000612c9e84828501612916565b91505092915050565b600060208284031215612cb957600080fd5b6000612cc78482850161292b565b91505092915050565b60008060008060808587031215612ce657600080fd5b600085013567ffffffffffffffff811115612d0057600080fd5b612d0c8782880161296a565b945050602085013567ffffffffffffffff811115612d2957600080fd5b612d358782880161296a565b935050604085013567ffffffffffffffff811115612d5257600080fd5b612d5e8782880161296a565b9250506060612d6f87828801612994565b91505092959194509250565b600060208284031215612d8d57600080fd5b6000612d9b84828501612994565b91505092915050565b60008060408385031215612db757600080fd5b6000612dc585828601612994565b9250506020612dd6858286016128ec565b9150509250929050565b6000612dec8383613288565b905092915050565b612dfd81613a22565b82525050565b6000612e0e82613885565b612e1881856138b3565b935083602082028501612e2a85613875565b8060005b85811015612e665784840389528151612e478582612de0565b9450612e52836138a6565b925060208a01995050600181019050612e2e565b50829750879550505050505092915050565b612e8181613a46565b82525050565b6000612e9282613890565b612e9c81856138c4565b9350612eac818560208601613ab7565b612eb581613c83565b840191505092915050565b6000612ecb8261389b565b612ed581856138e0565b9350612ee5818560208601613ab7565b612eee81613c83565b840191505092915050565b6000612f048261389b565b612f0e81856138f1565b9350612f1e818560208601613ab7565b612f2781613c83565b840191505092915050565b6000612f3d8261389b565b612f478185613902565b9350612f57818560208601613ab7565b80840191505092915050565b6000612f70600b83613902565b9150612f7b82613c94565b600b82019050919050565b6000612f936032836138f1565b9150612f9e82613cbd565b604082019050919050565b6000612fb6601d836138f1565b9150612fc182613d0c565b602082019050919050565b6000612fd9601c836138f1565b9150612fe482613d35565b602082019050919050565b6000612ffc603c83613902565b915061300782613d5e565b603c82019050919050565b600061301f6024836138f1565b915061302a82613dad565b604082019050919050565b60006130426019836138f1565b915061304d82613dfc565b602082019050919050565b60006130656026836138f1565b915061307082613e25565b604082019050919050565b6000613088602c836138f1565b915061309382613e74565b604082019050919050565b60006130ab6038836138f1565b91506130b682613ec3565b604082019050919050565b60006130ce602a836138f1565b91506130d982613f12565b604082019050919050565b60006130f16029836138f1565b91506130fc82613f61565b604082019050919050565b6000613114600483613902565b915061311f82613fb0565b600482019050919050565b60006131376020836138f1565b915061314282613fd9565b602082019050919050565b600061315a605283613902565b915061316582614002565b605282019050919050565b600061317d602c836138f1565b915061318882614077565b604082019050919050565b60006131a06029836138f1565b91506131ab826140c6565b604082019050919050565b60006131c3600a83613902565b91506131ce82614115565b600a82019050919050565b60006131e66021836138f1565b91506131f18261413e565b604082019050919050565b6000613209601d83613902565b91506132148261418d565b601d82019050919050565b600061322c6000836138d5565b9150613237826141b6565b600082019050919050565b600061324f6031836138f1565b915061325a826141b9565b604082019050919050565b60006132726031836138f1565b915061327d82614208565b604082019050919050565b600060a08301600083015184820360008601526132a58282612ec0565b915050602083015184820360208601526132bf8282612ec0565b915050604083015184820360408601526132d98282612ec0565b91505060608301516132ee606086018261330c565b506080830151613301608086018261330c565b508091505092915050565b61331581613a9e565b82525050565b61332481613a9e565b82525050565b6000613335826131b6565b91506133418287612f32565b915061334c82612f63565b91506133588286612f32565b91506133638261314d565b915061336f8285612f32565b915061337a82612fef565b91506133868284612f32565b915061339182613107565b915081905095945050505050565b60006133aa826131fc565b91506133b68284612f32565b915081905092915050565b60006133cc8261321f565b9150819050919050565b60006020820190506133eb6000830184612df4565b92915050565b60006080820190506134066000830187612df4565b6134136020830186612df4565b613420604083018561331b565b81810360608301526134328184612e87565b905095945050505050565b600060208201905081810360008301526134578184612e03565b905092915050565b60006020820190506134746000830184612e78565b92915050565b600060208201905081810360008301526134948184612ef9565b905092915050565b600060808201905081810360008301526134b68187612ef9565b905081810360208301526134ca8186612ef9565b905081810360408301526134de8185612ef9565b905081810360608301526134f28184612ef9565b905095945050505050565b600060a08201905081810360008301526135178188612ef9565b9050818103602083015261352b8187612ef9565b9050818103604083015261353f8186612ef9565b905061354e606083018561331b565b61355b608083018461331b565b9695505050505050565b6000606082019050818103600083015261357f8186612ef9565b905081810360208301526135938185612ef9565b90506135a2604083018461331b565b949350505050565b600060208201905081810360008301526135c381612f86565b9050919050565b600060208201905081810360008301526135e381612fa9565b9050919050565b6000602082019050818103600083015261360381612fcc565b9050919050565b6000602082019050818103600083015261362381613012565b9050919050565b6000602082019050818103600083015261364381613035565b9050919050565b6000602082019050818103600083015261366381613058565b9050919050565b600060208201905081810360008301526136838161307b565b9050919050565b600060208201905081810360008301526136a38161309e565b9050919050565b600060208201905081810360008301526136c3816130c1565b9050919050565b600060208201905081810360008301526136e3816130e4565b9050919050565b600060208201905081810360008301526137038161312a565b9050919050565b6000602082019050818103600083015261372381613170565b9050919050565b6000602082019050818103600083015261374381613193565b9050919050565b60006020820190508181036000830152613763816131d9565b9050919050565b6000602082019050818103600083015261378381613242565b9050919050565b600060208201905081810360008301526137a381613265565b9050919050565b60006020820190506137bf600083018461331b565b92915050565b60006040820190506137da600083018561331b565b6137e7602083018461331b565b9392505050565b60006137f8613809565b90506138048282613b1c565b919050565b6000604051905090565b600067ffffffffffffffff82111561382e5761382d613c54565b5b61383782613c83565b9050602081019050919050565b600067ffffffffffffffff82111561385f5761385e613c54565b5b61386882613c83565b9050602081019050919050565b6000819050602082019050919050565b600081519050919050565b600081519050919050565b600081519050919050565b6000602082019050919050565b600082825260208201905092915050565b600082825260208201905092915050565b600081905092915050565b600082825260208201905092915050565b600082825260208201905092915050565b600081905092915050565b600061391882613a9e565b915061392383613a9e565b9250827fffffffffffffffffffffffffffffffffffffffffffffffffffffffffffffffff0382111561395857613957613bc7565b5b828201905092915050565b600061396e82613a9e565b915061397983613a9e565b92508261398957613988613bf6565b5b828204905092915050565b600061399f82613a9e565b91506139aa83613a9e565b9250817fffffffffffffffffffffffffffffffffffffffffffffffffffffffffffffffff04831182151516156139e3576139e2613bc7565b5b828202905092915050565b60006139f982613a9e565b9150613a0483613a9e565b925082821015613a1757613a16613bc7565b5b828203905092915050565b6000613a2d82613a7e565b9050919050565b6000613a3f82613a7e565b9050919050565b60008115159050919050565b60007fffffffff0000000000000000000000000000000000000000000000000000000082169050919050565b600073ffffffffffffffffffffffffffffffffffffffff82169050919050565b6000819050919050565b82818337600083830152505050565b60005b83811015613ad5578082015181840152602081019050613aba565b83811115613ae4576000848401525b50505050565b60006002820490506001821680613b0257607f821691505b60208210811415613b1657613b15613c25565b5b50919050565b613b2582613c83565b810181811067ffffffffffffffff82111715613b4457613b43613c54565b5b80604052505050565b6000613b5882613a9e565b91507fffffffffffffffffffffffffffffffffffffffffffffffffffffffffffffffff821415613b8b57613b8a613bc7565b5b600182019050919050565b6000613ba182613a9e565b9150613bac83613a9e565b925082613bbc57613bbb613bf6565b5b828206905092915050565b7f4e487b7100000000000000000000000000000000000000000000000000000000600052601160045260246000fd5b7f4e487b7100000000000000000000000000000000000000000000000000000000600052601260045260246000fd5b7f4e487b7100000000000000000000000000000000000000000000000000000000600052602260045260246000fd5b7f4e487b7100000000000000000000000000000000000000000000000000000000600052604160045260246000fd5b6000601f19601f8301169050919050565b7f202d2d204e465420233a20000000000000000000000000000000000000000000600082015250565b7f4552433732313a207472616e7366657220746f206e6f6e20455243373231526560008201527f63656976657220696d706c656d656e7465720000000000000000000000000000602082015250565b7f496e73756666696369656e742062616c616e636520666f722073656e64000000600082015250565b7f4552433732313a20746f6b656e20616c7265616479206d696e74656400000000600082015250565b7f222c202261747472696275746573223a205b207b202274726169745f7479706560008201527f223a2022417274697374204e616d65222c202276616c7565223a202200000000602082015250565b7f4552433732313a207472616e7366657220746f20746865207a65726f2061646460008201527f7265737300000000000000000000000000000000000000000000000000000000602082015250565b7f4552433732313a20617070726f766520746f2063616c6c657200000000000000600082015250565b7f706c656173652073656e6420656e6f75676820746f207075726368617365206560008201527f646974696f6e0000000000000000000000000000000000000000000000000000602082015250565b7f4552433732313a206f70657261746f7220717565727920666f72206e6f6e657860008201527f697374656e7420746f6b656e0000000000000000000000000000000000000000602082015250565b7f4552433732313a20617070726f76652063616c6c6572206973206e6f74206f7760008201527f6e6572206e6f7220617070726f76656420666f7220616c6c0000000000000000602082015250565b7f4552433732313a2062616c616e636520717565727920666f7220746865207a6560008201527f726f206164647265737300000000000000000000000000000000000000000000602082015250565b7f4552433732313a206f776e657220717565727920666f72206e6f6e657869737460008201527f656e7420746f6b656e0000000000000000000000000000000000000000000000602082015250565b7f7d205d7d00000000000000000000000000000000000000000000000000000000600082015250565b7f4552433732313a206d696e7420746f20746865207a65726f2061646472657373600082015250565b7f222c20226465736372697074696f6e223a202241207374617274657220736f6e60008201527f67207573656420746f20706c617920696e207468652050484c4f5445204a756b60208201527f65626f7821222c20226d65646961223a20220000000000000000000000000000604082015250565b7f4552433732313a20617070726f76656420717565727920666f72206e6f6e657860008201527f697374656e7420746f6b656e0000000000000000000000000000000000000000602082015250565b7f4552433732313a207472616e73666572206f6620746f6b656e2074686174206960008201527f73206e6f74206f776e0000000000000000000000000000000000000000000000602082015250565b7f7b226e616d65223a202200000000000000000000000000000000000000000000600082015250565b7f4552433732313a20617070726f76616c20746f2063757272656e74206f776e6560008201527f7200000000000000000000000000000000000000000000000000000000000000602082015250565b7f646174613a6170706c69636174696f6e2f6a736f6e3b6261736536342c000000600082015250565b50565b7f4552433732313a207472616e736665722063616c6c6572206973206e6f74206f60008201527f776e6572206e6f7220617070726f766564000000000000000000000000000000602082015250565b7f556e61626c6520746f2073656e642076616c75653a20726563697069656e742060008201527f6d61792068617665207265766572746564000000000000000000000000000000602082015250565b61426081613a22565b811461426b57600080fd5b50565b61427781613a34565b811461428257600080fd5b50565b61428e81613a46565b811461429957600080fd5b50565b6142a581613a52565b81146142b057600080fd5b50565b6142bc81613a9e565b81146142c757600080fd5b5056fe4142434445464748494a4b4c4d4e4f505152535455565758595a6162636465666768696a6b6c6d6e6f707172737475767778797a303132333435363738392b2f2a2a2a2a2a2a4d696e746564202573204e465420772f20746f6b656e4964202573202a2a2a2a2a2aa2646970667358221220b6e994857aa60e0a980e3821cc165f52cf163b63c8d92ec835e3d3c4b29b4c2d64736f6c63430008040033697066733a2f2f516d55416642733263564245626e61616a795a334531556a32636248394d6b576234634e61376142365343536852697066733a2f2f516d576e5a6a6f324e6d504a336b52627335446663774336734c474434377a7262456f4172596a344c42376a4b31446f6e6520696e697469616c697a696e67202573207468697320697320746865205552493a2025732c20544849532049532054484520415254495354204e414d45202573",
  "linkReferences": {},
  "deployedLinkReferences": {}
}