{
  "_format": "hh-sol-artifact-1",
  "contractName": "Phlote",
  "sourceName": "contracts/Phlote.sol",
  "abi": [
    {
      "inputs": [],
      "stateMutability": "nonpayable",
      "type": "constructor"
    },
    {
      "anonymous": false,
      "inputs": [
        {
          "indexed": true,
          "internalType": "address",
          "name": "owner",
          "type": "address"
        },
        {
          "indexed": true,
          "internalType": "address",
          "name": "approved",
          "type": "address"
        },
        {
          "indexed": true,
          "internalType": "uint256",
          "name": "tokenId",
          "type": "uint256"
        }
      ],
      "name": "Approval",
      "type": "event"
    },
    {
      "anonymous": false,
      "inputs": [
        {
          "indexed": true,
          "internalType": "address",
          "name": "owner",
          "type": "address"
        },
        {
          "indexed": true,
          "internalType": "address",
          "name": "operator",
          "type": "address"
        },
        {
          "indexed": false,
          "internalType": "bool",
          "name": "approved",
          "type": "bool"
        }
      ],
      "name": "ApprovalForAll",
      "type": "event"
    },
    {
      "anonymous": false,
      "inputs": [
        {
          "indexed": false,
          "internalType": "address",
          "name": "sender",
          "type": "address"
        },
        {
          "indexed": true,
          "internalType": "uint256",
          "name": "editionId",
          "type": "uint256"
        }
      ],
      "name": "EditionCreated",
      "type": "event"
    },
    {
      "anonymous": false,
      "inputs": [
        {
          "indexed": true,
          "internalType": "address",
          "name": "buyer",
          "type": "address"
        },
        {
          "indexed": false,
          "internalType": "uint256",
          "name": "tokenId",
          "type": "uint256"
        },
        {
          "indexed": false,
          "internalType": "uint256",
          "name": "numSold",
          "type": "uint256"
        }
      ],
      "name": "EditionMinted",
      "type": "event"
    },
    {
      "anonymous": false,
      "inputs": [
        {
          "indexed": true,
          "internalType": "address",
          "name": "from",
          "type": "address"
        },
        {
          "indexed": true,
          "internalType": "address",
          "name": "to",
          "type": "address"
        },
        {
          "indexed": true,
          "internalType": "uint256",
          "name": "tokenId",
          "type": "uint256"
        }
      ],
      "name": "Transfer",
      "type": "event"
    },
    {
      "inputs": [
        {
          "internalType": "address",
          "name": "to",
          "type": "address"
        },
        {
          "internalType": "uint256",
          "name": "tokenId",
          "type": "uint256"
        }
      ],
      "name": "approve",
      "outputs": [],
      "stateMutability": "nonpayable",
      "type": "function"
    },
    {
      "inputs": [
        {
          "internalType": "address",
          "name": "owner",
          "type": "address"
        }
      ],
      "name": "balanceOf",
      "outputs": [
        {
          "internalType": "uint256",
          "name": "",
          "type": "uint256"
        }
      ],
      "stateMutability": "view",
      "type": "function"
    },
    {
      "inputs": [],
      "name": "contractPrice",
      "outputs": [
        {
          "internalType": "uint256",
          "name": "",
          "type": "uint256"
        }
      ],
      "stateMutability": "view",
      "type": "function"
    },
    {
      "inputs": [
        {
          "internalType": "uint256",
          "name": "",
          "type": "uint256"
        }
      ],
      "name": "editions",
      "outputs": [
        {
          "internalType": "address",
          "name": "artistAddress",
          "type": "address"
        },
        {
          "internalType": "string",
          "name": "mediaURI",
          "type": "string"
        },
        {
          "internalType": "string",
          "name": "marketplace",
          "type": "string"
        },
        {
          "internalType": "string",
          "name": "artistName",
          "type": "string"
        },
        {
          "internalType": "string",
          "name": "mediaType",
          "type": "string"
        },
        {
          "internalType": "string",
          "name": "mediaTitle",
          "type": "string"
        },
        {
          "internalType": "uint256",
          "name": "numSold",
          "type": "uint256"
        }
      ],
      "stateMutability": "view",
      "type": "function"
    },
    {
      "inputs": [],
      "name": "getAllcontent",
      "outputs": [
        {
          "components": [
            {
              "internalType": "address",
              "name": "artistAddress",
              "type": "address"
            },
            {
              "internalType": "string",
              "name": "mediaURI",
              "type": "string"
            },
            {
              "internalType": "string",
              "name": "marketplace",
              "type": "string"
            },
            {
              "internalType": "string[]",
              "name": "tags",
              "type": "string[]"
            },
            {
              "internalType": "string",
              "name": "artistName",
              "type": "string"
            },
            {
              "internalType": "string",
              "name": "mediaType",
              "type": "string"
            },
            {
              "internalType": "string",
              "name": "mediaTitle",
              "type": "string"
            },
            {
              "internalType": "uint256",
              "name": "numSold",
              "type": "uint256"
            }
          ],
          "internalType": "struct Phlote.Edition[]",
          "name": "",
          "type": "tuple[]"
        }
      ],
      "stateMutability": "view",
      "type": "function"
    },
    {
      "inputs": [
        {
          "internalType": "uint256",
          "name": "tokenId",
          "type": "uint256"
        }
      ],
      "name": "getApproved",
      "outputs": [
        {
          "internalType": "address",
          "name": "",
          "type": "address"
        }
      ],
      "stateMutability": "view",
      "type": "function"
    },
    {
      "inputs": [
        {
          "internalType": "address",
          "name": "owner",
          "type": "address"
        },
        {
          "internalType": "address",
          "name": "operator",
          "type": "address"
        }
      ],
      "name": "isApprovedForAll",
      "outputs": [
        {
          "internalType": "bool",
          "name": "",
          "type": "bool"
        }
      ],
      "stateMutability": "view",
      "type": "function"
    },
    {
      "inputs": [
        {
          "internalType": "uint256",
          "name": "editionId",
          "type": "uint256"
        }
      ],
      "name": "mintEdition",
      "outputs": [],
      "stateMutability": "payable",
      "type": "function"
    },
    {
      "inputs": [],
      "name": "name",
      "outputs": [
        {
          "internalType": "string",
          "name": "",
          "type": "string"
        }
      ],
      "stateMutability": "view",
      "type": "function"
    },
    {
      "inputs": [
        {
          "internalType": "address",
          "name": "",
          "type": "address"
        }
      ],
      "name": "nftHolders",
      "outputs": [
        {
          "internalType": "uint256",
          "name": "",
          "type": "uint256"
        }
      ],
      "stateMutability": "view",
      "type": "function"
    },
    {
      "inputs": [
        {
          "internalType": "uint256",
          "name": "tokenId",
          "type": "uint256"
        }
      ],
      "name": "ownerOf",
      "outputs": [
        {
          "internalType": "address",
          "name": "",
          "type": "address"
        }
      ],
      "stateMutability": "view",
      "type": "function"
    },
    {
      "inputs": [
        {
          "internalType": "address",
          "name": "from",
          "type": "address"
        },
        {
          "internalType": "address",
          "name": "to",
          "type": "address"
        },
        {
          "internalType": "uint256",
          "name": "tokenId",
          "type": "uint256"
        }
      ],
      "name": "safeTransferFrom",
      "outputs": [],
      "stateMutability": "nonpayable",
      "type": "function"
    },
    {
      "inputs": [
        {
          "internalType": "address",
          "name": "from",
          "type": "address"
        },
        {
          "internalType": "address",
          "name": "to",
          "type": "address"
        },
        {
          "internalType": "uint256",
          "name": "tokenId",
          "type": "uint256"
        },
        {
          "internalType": "bytes",
          "name": "_data",
          "type": "bytes"
        }
      ],
      "name": "safeTransferFrom",
      "outputs": [],
      "stateMutability": "nonpayable",
      "type": "function"
    },
    {
      "inputs": [
        {
          "internalType": "address",
          "name": "operator",
          "type": "address"
        },
        {
          "internalType": "bool",
          "name": "approved",
          "type": "bool"
        }
      ],
      "name": "setApprovalForAll",
      "outputs": [],
      "stateMutability": "nonpayable",
      "type": "function"
    },
    {
      "inputs": [
        {
          "internalType": "address",
          "name": "_artist",
          "type": "address"
        },
        {
          "internalType": "string",
          "name": "_mediaURI",
          "type": "string"
        },
        {
          "internalType": "string",
          "name": "_marketplace",
          "type": "string"
        },
        {
          "internalType": "string[]",
          "name": "_tags",
          "type": "string[]"
        },
        {
          "internalType": "string",
          "name": "_artistName",
          "type": "string"
        },
        {
          "internalType": "string",
          "name": "_mediaType",
          "type": "string"
        },
        {
          "internalType": "string",
          "name": "_mediaTitle",
          "type": "string"
        }
      ],
      "name": "submitPost",
      "outputs": [],
      "stateMutability": "nonpayable",
      "type": "function"
    },
    {
      "inputs": [
        {
          "internalType": "bytes4",
          "name": "interfaceId",
          "type": "bytes4"
        }
      ],
      "name": "supportsInterface",
      "outputs": [
        {
          "internalType": "bool",
          "name": "",
          "type": "bool"
        }
      ],
      "stateMutability": "view",
      "type": "function"
    },
    {
      "inputs": [],
      "name": "symbol",
      "outputs": [
        {
          "internalType": "string",
          "name": "",
          "type": "string"
        }
      ],
      "stateMutability": "view",
      "type": "function"
    },
    {
      "inputs": [
        {
          "internalType": "uint256",
          "name": "",
          "type": "uint256"
        }
      ],
      "name": "tokenToSong",
      "outputs": [
        {
          "internalType": "uint256",
          "name": "",
          "type": "uint256"
        }
      ],
      "stateMutability": "view",
      "type": "function"
    },
    {
      "inputs": [
        {
          "internalType": "uint256",
          "name": "_tokenId",
          "type": "uint256"
        }
      ],
      "name": "tokenURI",
      "outputs": [
        {
          "internalType": "string",
          "name": "",
          "type": "string"
        }
      ],
      "stateMutability": "view",
      "type": "function"
    },
    {
      "inputs": [
        {
          "internalType": "address",
          "name": "from",
          "type": "address"
        },
        {
          "internalType": "address",
          "name": "to",
          "type": "address"
        },
        {
          "internalType": "uint256",
          "name": "tokenId",
          "type": "uint256"
        }
      ],
      "name": "transferFrom",
      "outputs": [],
      "stateMutability": "nonpayable",
      "type": "function"
    },
    {
      "inputs": [
        {
          "internalType": "uint256",
          "name": "",
          "type": "uint256"
        }
      ],
      "name": "withdrawnForEdition",
      "outputs": [
        {
          "internalType": "uint256",
          "name": "",
          "type": "uint256"
        }
      ],
      "stateMutability": "view",
      "type": "function"
    }
  ],
  "bytecode": "0x608060405260016008553480156200001657600080fd5b506040518060400160405280600781526020017f636f6e74656e74000000000000000000000000000000000000000000000000008152506040518060400160405280600481526020017f534f4e470000000000000000000000000000000000000000000000000000000081525081600090805190602001906200009b929190620000ea565b508060019080519060200190620000b4929190620000ea565b505050620000ce6007620000d460201b62001c1c1760201c565b620001ff565b6001816000016000828254019250508190555050565b828054620000f8906200019a565b90600052602060002090601f0160209004810192826200011c576000855562000168565b82601f106200013757805160ff191683800117855562000168565b8280016001018555821562000168579182015b82811115620001675782518255916020019190600101906200014a565b5b5090506200017791906200017b565b5090565b5b80821115620001965760008160009055506001016200017c565b5090565b60006002820490506001821680620001b357607f821691505b60208210811415620001ca57620001c9620001d0565b5b50919050565b7f4e487b7100000000000000000000000000000000000000000000000000000000600052602260045260246000fd5b614641806200020f6000396000f3fe60806040526004361061012a5760003560e01c806370a08231116100ab578063b88d4fde1161006f578063b88d4fde1461040f578063c87b56dd14610438578063d3bb052814610475578063e2b18d3f146104b2578063e838fe49146104ef578063e985e9c5146105185761012a565b806370a08231146103165780637df124a11461035357806395d89b411461039057806397e9a0bf146103bb578063a22cb465146103e65761012a565b806323b872dd116100f257806323b872dd14610219578063279c806e1461024257806342842e0e1461028557806357954dd1146102ae5780636352211e146102d95761012a565b806301ffc9a71461012f57806305322b741461016c57806306fdde0314610188578063081812fc146101b3578063095ea7b3146101f0575b600080fd5b34801561013b57600080fd5b5061015660048036038101906101519190613128565b610555565b60405161016391906138fa565b60405180910390f35b6101866004803603810190610181919061317a565b610637565b005b34801561019457600080fd5b5061019d61080c565b6040516101aa9190613915565b60405180910390f35b3480156101bf57600080fd5b506101da60048036038101906101d5919061317a565b61089e565b6040516101e791906137df565b60405180910390f35b3480156101fc57600080fd5b50610217600480360381019061021291906130ec565b610923565b005b34801561022557600080fd5b50610240600480360381019061023b9190612eb8565b610a3b565b005b34801561024e57600080fd5b506102696004803603810190610264919061317a565b610a9b565b60405161027c9796959493929190613846565b60405180910390f35b34801561029157600080fd5b506102ac60048036038101906102a79190612eb8565b610da5565b005b3480156102ba57600080fd5b506102c3610dc5565b6040516102d091906138d8565b60405180910390f35b3480156102e557600080fd5b5061030060048036038101906102fb919061317a565b611238565b60405161030d91906137df565b60405180910390f35b34801561032257600080fd5b5061033d60048036038101906103389190612e53565b6112ea565b60405161034a9190613b1c565b60405180910390f35b34801561035f57600080fd5b5061037a60048036038101906103759190612e53565b6113a2565b6040516103879190613b1c565b60405180910390f35b34801561039c57600080fd5b506103a56113ba565b6040516103b29190613915565b60405180910390f35b3480156103c757600080fd5b506103d061144c565b6040516103dd9190613b1c565b60405180910390f35b3480156103f257600080fd5b5061040d60048036038101906104089190612f82565b611452565b005b34801561041b57600080fd5b5061043660048036038101906104319190612f07565b611468565b005b34801561044457600080fd5b5061045f600480360381019061045a919061317a565b6114ca565b60405161046c9190613915565b60405180910390f35b34801561048157600080fd5b5061049c6004803603810190610497919061317a565b61198a565b6040516104a99190613b1c565b60405180910390f35b3480156104be57600080fd5b506104d960048036038101906104d4919061317a565b6119a2565b6040516104e69190613b1c565b60405180910390f35b3480156104fb57600080fd5b5061051660048036038101906105119190612fbe565b6119ba565b005b34801561052457600080fd5b5061053f600480360381019061053a9190612e7c565b611b88565b60405161054c91906138fa565b60405180910390f35b60007f80ac58cd000000000000000000000000000000000000000000000000000000007bffffffffffffffffffffffffffffffffffffffffffffffffffffffff1916827bffffffffffffffffffffffffffffffffffffffffffffffffffffffff1916148061062057507f5b5e139f000000000000000000000000000000000000000000000000000000007bffffffffffffffffffffffffffffffffffffffffffffffffffffffff1916827bffffffffffffffffffffffffffffffffffffffffffffffffffffffff1916145b80610630575061062f82611c32565b5b9050919050565b60006106436007611c9c565b905061064f3382611caa565b6107106040518060600160405280602881526020016145e460289139600a6000858152602001908152602001600020600601805461068c90613ea4565b80601f01602080910402602001604051908101604052809291908181526020018280546106b890613ea4565b80156107055780601f106106da57610100808354040283529160200191610705565b820191906000526020600020905b8154815290600101906020018083116106e857829003601f168201915b505050505083611cc8565b80600b60003373ffffffffffffffffffffffffffffffffffffffff1673ffffffffffffffffffffffffffffffffffffffff1681526020019081526020016000208190555061075e6007611c1c565b600a6000838152602001908152602001600020600701600081548092919061078590613f07565b919050555081600e6000838152602001908152602001600020819055503373ffffffffffffffffffffffffffffffffffffffff167fe1b60c9e07632933648666e5ede8b3b329ddfa2ab98c51b1a5b4b22ab4f1349c82600a600086815260200190815260200160002060070154604051610800929190613b37565b60405180910390a25050565b60606000805461081b90613ea4565b80601f016020809104026020016040519081016040528092919081815260200182805461084790613ea4565b80156108945780601f1061086957610100808354040283529160200191610894565b820191906000526020600020905b81548152906001019060200180831161087757829003601f168201915b5050505050905090565b60006108a982611d67565b6108e8576040517f08c379a00000000000000000000000000000000000000000000000000000000081526004016108df90613a9c565b60405180910390fd5b6004600083815260200190815260200160002060009054906101000a900473ffffffffffffffffffffffffffffffffffffffff169050919050565b600061092e82611238565b90508073ffffffffffffffffffffffffffffffffffffffff168373ffffffffffffffffffffffffffffffffffffffff16141561099f576040517f08c379a000000000000000000000000000000000000000000000000000000000815260040161099690613adc565b60405180910390fd5b8073ffffffffffffffffffffffffffffffffffffffff166109be611dd3565b73ffffffffffffffffffffffffffffffffffffffff1614806109ed57506109ec816109e7611dd3565b611b88565b5b610a2c576040517f08c379a0000000000000000000000000000000000000000000000000000000008152600401610a2390613a1c565b60405180910390fd5b610a368383611ddb565b505050565b610a4c610a46611dd3565b82611e94565b610a8b576040517f08c379a0000000000000000000000000000000000000000000000000000000008152600401610a8290613afc565b60405180910390fd5b610a96838383611f72565b505050565b600a6020528060005260406000206000915090508060000160009054906101000a900473ffffffffffffffffffffffffffffffffffffffff1690806001018054610ae490613ea4565b80601f0160208091040260200160405190810160405280929190818152602001828054610b1090613ea4565b8015610b5d5780601f10610b3257610100808354040283529160200191610b5d565b820191906000526020600020905b815481529060010190602001808311610b4057829003601f168201915b505050505090806002018054610b7290613ea4565b80601f0160208091040260200160405190810160405280929190818152602001828054610b9e90613ea4565b8015610beb5780601f10610bc057610100808354040283529160200191610beb565b820191906000526020600020905b815481529060010190602001808311610bce57829003601f168201915b505050505090806004018054610c0090613ea4565b80601f0160208091040260200160405190810160405280929190818152602001828054610c2c90613ea4565b8015610c795780601f10610c4e57610100808354040283529160200191610c79565b820191906000526020600020905b815481529060010190602001808311610c5c57829003601f168201915b505050505090806005018054610c8e90613ea4565b80601f0160208091040260200160405190810160405280929190818152602001828054610cba90613ea4565b8015610d075780601f10610cdc57610100808354040283529160200191610d07565b820191906000526020600020905b815481529060010190602001808311610cea57829003601f168201915b505050505090806006018054610d1c90613ea4565b80601f0160208091040260200160405190810160405280929190818152602001828054610d4890613ea4565b8015610d955780601f10610d6a57610100808354040283529160200191610d95565b820191906000526020600020905b815481529060010190602001808311610d7857829003601f168201915b5050505050908060070154905087565b610dc083838360405180602001604052806000815250611468565b505050565b60606009805480602002602001604051908101604052809291908181526020016000905b8282101561122f5783829060005260206000209060080201604051806101000160405290816000820160009054906101000a900473ffffffffffffffffffffffffffffffffffffffff1673ffffffffffffffffffffffffffffffffffffffff1673ffffffffffffffffffffffffffffffffffffffff168152602001600182018054610e7390613ea4565b80601f0160208091040260200160405190810160405280929190818152602001828054610e9f90613ea4565b8015610eec5780601f10610ec157610100808354040283529160200191610eec565b820191906000526020600020905b815481529060010190602001808311610ecf57829003601f168201915b50505050508152602001600282018054610f0590613ea4565b80601f0160208091040260200160405190810160405280929190818152602001828054610f3190613ea4565b8015610f7e5780601f10610f5357610100808354040283529160200191610f7e565b820191906000526020600020905b815481529060010190602001808311610f6157829003601f168201915b5050505050815260200160038201805480602002602001604051908101604052809291908181526020016000905b82821015611058578382906000526020600020018054610fcb90613ea4565b80601f0160208091040260200160405190810160405280929190818152602001828054610ff790613ea4565b80156110445780601f1061101957610100808354040283529160200191611044565b820191906000526020600020905b81548152906001019060200180831161102757829003601f168201915b505050505081526020019060010190610fac565b50505050815260200160048201805461107090613ea4565b80601f016020809104026020016040519081016040528092919081815260200182805461109c90613ea4565b80156110e95780601f106110be576101008083540402835291602001916110e9565b820191906000526020600020905b8154815290600101906020018083116110cc57829003601f168201915b5050505050815260200160058201805461110290613ea4565b80601f016020809104026020016040519081016040528092919081815260200182805461112e90613ea4565b801561117b5780601f106111505761010080835404028352916020019161117b565b820191906000526020600020905b81548152906001019060200180831161115e57829003601f168201915b5050505050815260200160068201805461119490613ea4565b80601f01602080910402602001604051908101604052809291908181526020018280546111c090613ea4565b801561120d5780601f106111e25761010080835404028352916020019161120d565b820191906000526020600020905b8154815290600101906020018083116111f057829003601f168201915b5050505050815260200160078201548152505081526020019060010190610de9565b50505050905090565b6000806002600084815260200190815260200160002060009054906101000a900473ffffffffffffffffffffffffffffffffffffffff169050600073ffffffffffffffffffffffffffffffffffffffff168173ffffffffffffffffffffffffffffffffffffffff1614156112e1576040517f08c379a00000000000000000000000000000000000000000000000000000000081526004016112d890613a5c565b60405180910390fd5b80915050919050565b60008073ffffffffffffffffffffffffffffffffffffffff168273ffffffffffffffffffffffffffffffffffffffff16141561135b576040517f08c379a000000000000000000000000000000000000000000000000000000000815260040161135290613a3c565b60405180910390fd5b600360008373ffffffffffffffffffffffffffffffffffffffff1673ffffffffffffffffffffffffffffffffffffffff168152602001908152602001600020549050919050565b600b6020528060005260406000206000915090505481565b6060600180546113c990613ea4565b80601f01602080910402602001604051908101604052809291908181526020018280546113f590613ea4565b80156114425780601f1061141757610100808354040283529160200191611442565b820191906000526020600020905b81548152906001019060200180831161142557829003601f168201915b5050505050905090565b60065481565b61146461145d611dd3565b83836121ce565b5050565b611479611473611dd3565b83611e94565b6114b8576040517f08c379a00000000000000000000000000000000000000000000000000000000081526004016114af90613afc565b60405180910390fd5b6114c48484848461233b565b50505050565b60606000600a6000600e6000868152602001908152602001600020548152602001908152602001600020604051806101000160405290816000820160009054906101000a900473ffffffffffffffffffffffffffffffffffffffff1673ffffffffffffffffffffffffffffffffffffffff1673ffffffffffffffffffffffffffffffffffffffff16815260200160018201805461156690613ea4565b80601f016020809104026020016040519081016040528092919081815260200182805461159290613ea4565b80156115df5780601f106115b4576101008083540402835291602001916115df565b820191906000526020600020905b8154815290600101906020018083116115c257829003601f168201915b505050505081526020016002820180546115f890613ea4565b80601f016020809104026020016040519081016040528092919081815260200182805461162490613ea4565b80156116715780601f1061164657610100808354040283529160200191611671565b820191906000526020600020905b81548152906001019060200180831161165457829003601f168201915b5050505050815260200160038201805480602002602001604051908101604052809291908181526020016000905b8282101561174b5783829060005260206000200180546116be90613ea4565b80601f01602080910402602001604051908101604052809291908181526020018280546116ea90613ea4565b80156117375780601f1061170c57610100808354040283529160200191611737565b820191906000526020600020905b81548152906001019060200180831161171a57829003601f168201915b50505050508152602001906001019061169f565b50505050815260200160048201805461176390613ea4565b80601f016020809104026020016040519081016040528092919081815260200182805461178f90613ea4565b80156117dc5780601f106117b1576101008083540402835291602001916117dc565b820191906000526020600020905b8154815290600101906020018083116117bf57829003601f168201915b505050505081526020016005820180546117f590613ea4565b80601f016020809104026020016040519081016040528092919081815260200182805461182190613ea4565b801561186e5780601f106118435761010080835404028352916020019161186e565b820191906000526020600020905b81548152906001019060200180831161185157829003601f168201915b5050505050815260200160068201805461188790613ea4565b80601f01602080910402602001604051908101604052809291908181526020018280546118b390613ea4565b80156119005780601f106118d557610100808354040283529160200191611900565b820191906000526020600020905b8154815290600101906020018083116118e357829003601f168201915b50505050508152602001600782015481525050905060006119598260c0015161192886612397565b846020015185608001516040516020016119459493929190613748565b604051602081830303815290604052612544565b905060008160405160200161196e91906137bd565b6040516020818303038152906040529050809350505050919050565b600d6020528060005260406000206000915090505481565b600e6020528060005260406000206000915090505481565b6040518061010001604052808873ffffffffffffffffffffffffffffffffffffffff1681526020018781526020018681526020018581526020018481526020018381526020018281526020016000815250600a6000600854815260200190815260200160002060008201518160000160006101000a81548173ffffffffffffffffffffffffffffffffffffffff021916908373ffffffffffffffffffffffffffffffffffffffff1602179055506020820151816001019080519060200190611a83929190612b03565b506040820151816002019080519060200190611aa0929190612b03565b506060820151816003019080519060200190611abd929190612b89565b506080820151816004019080519060200190611ada929190612b03565b5060a0820151816005019080519060200190611af7929190612b03565b5060c0820151816006019080519060200190611b14929190612b03565b5060e082015181600701559050506008547fa1cd98301e2a758f45871102b368fdcf3f56e13f8e8fd2886523ac87ca066ce033604051611b5491906137df565b60405180910390a2611b67600854610637565b60086000815480929190611b7a90613f07565b919050555050505050505050565b6000600560008473ffffffffffffffffffffffffffffffffffffffff1673ffffffffffffffffffffffffffffffffffffffff16815260200190815260200160002060008373ffffffffffffffffffffffffffffffffffffffff1673ffffffffffffffffffffffffffffffffffffffff16815260200190815260200160002060009054906101000a900460ff16905092915050565b6001816000016000828254019250508190555050565b60007f01ffc9a7000000000000000000000000000000000000000000000000000000007bffffffffffffffffffffffffffffffffffffffffffffffffffffffff1916827bffffffffffffffffffffffffffffffffffffffffffffffffffffffff1916149050919050565b600081600001549050919050565b611cc4828260405180602001604052806000815250612702565b5050565b611d62838383604051602401611ce093929190613937565b6040516020818303038152906040527ff362ca59000000000000000000000000000000000000000000000000000000007bffffffffffffffffffffffffffffffffffffffffffffffffffffffff19166020820180517bffffffffffffffffffffffffffffffffffffffffffffffffffffffff838183161783525050505061275d565b505050565b60008073ffffffffffffffffffffffffffffffffffffffff166002600084815260200190815260200160002060009054906101000a900473ffffffffffffffffffffffffffffffffffffffff1673ffffffffffffffffffffffffffffffffffffffff1614159050919050565b600033905090565b816004600083815260200190815260200160002060006101000a81548173ffffffffffffffffffffffffffffffffffffffff021916908373ffffffffffffffffffffffffffffffffffffffff160217905550808273ffffffffffffffffffffffffffffffffffffffff16611e4e83611238565b73ffffffffffffffffffffffffffffffffffffffff167f8c5be1e5ebec7d5bd14f71427d1e84f3dd0314c0f7b2291e5b200ac8c7c3b92560405160405180910390a45050565b6000611e9f82611d67565b611ede576040517f08c379a0000000000000000000000000000000000000000000000000000000008152600401611ed5906139fc565b60405180910390fd5b6000611ee983611238565b90508073ffffffffffffffffffffffffffffffffffffffff168473ffffffffffffffffffffffffffffffffffffffff161480611f5857508373ffffffffffffffffffffffffffffffffffffffff16611f408461089e565b73ffffffffffffffffffffffffffffffffffffffff16145b80611f695750611f688185611b88565b5b91505092915050565b8273ffffffffffffffffffffffffffffffffffffffff16611f9282611238565b73ffffffffffffffffffffffffffffffffffffffff1614611fe8576040517f08c379a0000000000000000000000000000000000000000000000000000000008152600401611fdf90613abc565b60405180910390fd5b600073ffffffffffffffffffffffffffffffffffffffff168273ffffffffffffffffffffffffffffffffffffffff161415612058576040517f08c379a000000000000000000000000000000000000000000000000000000000815260040161204f906139bc565b60405180910390fd5b612063838383612786565b61206e600082611ddb565b6001600360008573ffffffffffffffffffffffffffffffffffffffff1673ffffffffffffffffffffffffffffffffffffffff16815260200190815260200160002060008282546120be9190613dba565b925050819055506001600360008473ffffffffffffffffffffffffffffffffffffffff1673ffffffffffffffffffffffffffffffffffffffff16815260200190815260200160002060008282546121159190613cd9565b92505081905550816002600083815260200190815260200160002060006101000a81548173ffffffffffffffffffffffffffffffffffffffff021916908373ffffffffffffffffffffffffffffffffffffffff160217905550808273ffffffffffffffffffffffffffffffffffffffff168473ffffffffffffffffffffffffffffffffffffffff167fddf252ad1be2c89b69c2b068fc378daa952ba7f163c4a11628f55a4df523b3ef60405160405180910390a4505050565b8173ffffffffffffffffffffffffffffffffffffffff168373ffffffffffffffffffffffffffffffffffffffff16141561223d576040517f08c379a0000000000000000000000000000000000000000000000000000000008152600401612234906139dc565b60405180910390fd5b80600560008573ffffffffffffffffffffffffffffffffffffffff1673ffffffffffffffffffffffffffffffffffffffff16815260200190815260200160002060008473ffffffffffffffffffffffffffffffffffffffff1673ffffffffffffffffffffffffffffffffffffffff16815260200190815260200160002060006101000a81548160ff0219169083151502179055508173ffffffffffffffffffffffffffffffffffffffff168373ffffffffffffffffffffffffffffffffffffffff167f17307eab39ab6107e8899845ad3d59bd9653f200f220920489ca2b5937696c318360405161232e91906138fa565b60405180910390a3505050565b612346848484611f72565b6123528484848461278b565b612391576040517f08c379a00000000000000000000000000000000000000000000000000000000081526004016123889061397c565b60405180910390fd5b50505050565b606060008214156123df576040518060400160405280600181526020017f3000000000000000000000000000000000000000000000000000000000000000815250905061253f565b600082905060005b600082146124115780806123fa90613f07565b915050600a8261240a9190613d2f565b91506123e7565b60008167ffffffffffffffff811115612453577f4e487b7100000000000000000000000000000000000000000000000000000000600052604160045260246000fd5b6040519080825280601f01601f1916602001820160405280156124855781602001600182028036833780820191505090505b5090505b600085146125385760018261249e9190613dba565b9150600a856124ad9190613f50565b60306124b99190613cd9565b60f81b8183815181106124f5577f4e487b7100000000000000000000000000000000000000000000000000000000600052603260045260246000fd5b60200101907effffffffffffffffffffffffffffffffffffffffffffffffffffffffffffff1916908160001a905350600a856125319190613d2f565b9450612489565b8093505050505b919050565b6060600082519050600081141561256d57604051806020016040528060008152509150506126fd565b6000600360028361257e9190613cd9565b6125889190613d2f565b60046125949190613d60565b905060006020826125a59190613cd9565b67ffffffffffffffff8111156125e4577f4e487b7100000000000000000000000000000000000000000000000000000000600052604160045260246000fd5b6040519080825280601f01601f1916602001820160405280156126165781602001600182028036833780820191505090505b50905060006040518060600160405280604081526020016145a4604091399050600181016020830160005b868110156126ba5760038101905062ffffff818a015116603f8160121c168401518060081b905060ff603f83600c1c1686015116810190508060081b905060ff603f8360061c1686015116810190508060081b905060ff603f831686015116810190508060e01b90508084526004840193505050612641565b5060038606600181146126d457600281146126e4576126ef565b613d3d60f01b60028303526126ef565b603d60f81b60018303525b508484525050819450505050505b919050565b61270c8383612922565b612719600084848461278b565b612758576040517f08c379a000000000000000000000000000000000000000000000000000000000815260040161274f9061397c565b60405180910390fd5b505050565b60008151905060006a636f6e736f6c652e6c6f679050602083016000808483855afa5050505050565b505050565b60006127ac8473ffffffffffffffffffffffffffffffffffffffff16612af0565b15612915578373ffffffffffffffffffffffffffffffffffffffff1663150b7a026127d5611dd3565b8786866040518563ffffffff1660e01b81526004016127f794939291906137fa565b602060405180830381600087803b15801561281157600080fd5b505af192505050801561284257506040513d601f19601f8201168201806040525081019061283f9190613151565b60015b6128c5573d8060008114612872576040519150601f19603f3d011682016040523d82523d6000602084013e612877565b606091505b506000815114156128bd576040517f08c379a00000000000000000000000000000000000000000000000000000000081526004016128b49061397c565b60405180910390fd5b805181602001fd5b63150b7a0260e01b7bffffffffffffffffffffffffffffffffffffffffffffffffffffffff1916817bffffffffffffffffffffffffffffffffffffffffffffffffffffffff19161491505061291a565b600190505b949350505050565b600073ffffffffffffffffffffffffffffffffffffffff168273ffffffffffffffffffffffffffffffffffffffff161415612992576040517f08c379a000000000000000000000000000000000000000000000000000000000815260040161298990613a7c565b60405180910390fd5b61299b81611d67565b156129db576040517f08c379a00000000000000000000000000000000000000000000000000000000081526004016129d29061399c565b60405180910390fd5b6129e760008383612786565b6001600360008473ffffffffffffffffffffffffffffffffffffffff1673ffffffffffffffffffffffffffffffffffffffff1681526020019081526020016000206000828254612a379190613cd9565b92505081905550816002600083815260200190815260200160002060006101000a81548173ffffffffffffffffffffffffffffffffffffffff021916908373ffffffffffffffffffffffffffffffffffffffff160217905550808273ffffffffffffffffffffffffffffffffffffffff16600073ffffffffffffffffffffffffffffffffffffffff167fddf252ad1be2c89b69c2b068fc378daa952ba7f163c4a11628f55a4df523b3ef60405160405180910390a45050565b600080823b905060008111915050919050565b828054612b0f90613ea4565b90600052602060002090601f016020900481019282612b315760008555612b78565b82601f10612b4a57805160ff1916838001178555612b78565b82800160010185558215612b78579182015b82811115612b77578251825591602001919060010190612b5c565b5b509050612b859190612be9565b5090565b828054828255906000526020600020908101928215612bd8579160200282015b82811115612bd7578251829080519060200190612bc7929190612b03565b5091602001919060010190612ba9565b5b509050612be59190612c06565b5090565b5b80821115612c02576000816000905550600101612bea565b5090565b5b80821115612c265760008181612c1d9190612c2a565b50600101612c07565b5090565b508054612c3690613ea4565b6000825580601f10612c485750612c67565b601f016020900490600052602060002090810190612c669190612be9565b5b50565b6000612c7d612c7884613b85565b613b60565b90508083825260208201905082856020860282011115612c9c57600080fd5b60005b85811015612ce657813567ffffffffffffffff811115612cbe57600080fd5b808601612ccb8982612e14565b85526020850194506020840193505050600181019050612c9f565b5050509392505050565b6000612d03612cfe84613bb1565b613b60565b905082815260208101848484011115612d1b57600080fd5b612d26848285613e62565b509392505050565b6000612d41612d3c84613be2565b613b60565b905082815260208101848484011115612d5957600080fd5b612d64848285613e62565b509392505050565b600081359050612d7b81614547565b92915050565b600082601f830112612d9257600080fd5b8135612da2848260208601612c6a565b91505092915050565b600081359050612dba8161455e565b92915050565b600081359050612dcf81614575565b92915050565b600081519050612de481614575565b92915050565b600082601f830112612dfb57600080fd5b8135612e0b848260208601612cf0565b91505092915050565b600082601f830112612e2557600080fd5b8135612e35848260208601612d2e565b91505092915050565b600081359050612e4d8161458c565b92915050565b600060208284031215612e6557600080fd5b6000612e7384828501612d6c565b91505092915050565b60008060408385031215612e8f57600080fd5b6000612e9d85828601612d6c565b9250506020612eae85828601612d6c565b9150509250929050565b600080600060608486031215612ecd57600080fd5b6000612edb86828701612d6c565b9350506020612eec86828701612d6c565b9250506040612efd86828701612e3e565b9150509250925092565b60008060008060808587031215612f1d57600080fd5b6000612f2b87828801612d6c565b9450506020612f3c87828801612d6c565b9350506040612f4d87828801612e3e565b925050606085013567ffffffffffffffff811115612f6a57600080fd5b612f7687828801612dea565b91505092959194509250565b60008060408385031215612f9557600080fd5b6000612fa385828601612d6c565b9250506020612fb485828601612dab565b9150509250929050565b600080600080600080600060e0888a031215612fd957600080fd5b6000612fe78a828b01612d6c565b975050602088013567ffffffffffffffff81111561300457600080fd5b6130108a828b01612e14565b965050604088013567ffffffffffffffff81111561302d57600080fd5b6130398a828b01612e14565b955050606088013567ffffffffffffffff81111561305657600080fd5b6130628a828b01612d81565b945050608088013567ffffffffffffffff81111561307f57600080fd5b61308b8a828b01612e14565b93505060a088013567ffffffffffffffff8111156130a857600080fd5b6130b48a828b01612e14565b92505060c088013567ffffffffffffffff8111156130d157600080fd5b6130dd8a828b01612e14565b91505092959891949750929550565b600080604083850312156130ff57600080fd5b600061310d85828601612d6c565b925050602061311e85828601612e3e565b9150509250929050565b60006020828403121561313a57600080fd5b600061314884828501612dc0565b91505092915050565b60006020828403121561316357600080fd5b600061317184828501612dd5565b91505092915050565b60006020828403121561318c57600080fd5b600061319a84828501612e3e565b91505092915050565b60006131af838361331b565b905092915050565b60006131c38383613657565b905092915050565b6131d481613dee565b82525050565b6131e381613dee565b82525050565b60006131f482613c33565b6131fe8185613c79565b93508360208202850161321085613c13565b8060005b8581101561324c578484038952815161322d85826131a3565b945061323883613c5f565b925060208a01995050600181019050613214565b50829750879550505050505092915050565b600061326982613c3e565b6132738185613c8a565b93508360208202850161328585613c23565b8060005b858110156132c157848403895281516132a285826131b7565b94506132ad83613c6c565b925060208a01995050600181019050613289565b50829750879550505050505092915050565b6132dc81613e00565b82525050565b60006132ed82613c49565b6132f78185613c9b565b9350613307818560208601613e71565b6133108161403d565b840191505092915050565b600061332682613c54565b6133308185613cac565b9350613340818560208601613e71565b6133498161403d565b840191505092915050565b600061335f82613c54565b6133698185613cbd565b9350613379818560208601613e71565b6133828161403d565b840191505092915050565b600061339882613c54565b6133a28185613cce565b93506133b2818560208601613e71565b80840191505092915050565b60006133cb600b83613cce565b91506133d68261404e565b600b82019050919050565b60006133ee603283613cbd565b91506133f982614077565b604082019050919050565b6000613411601c83613cbd565b915061341c826140c6565b602082019050919050565b6000613434603c83613cce565b915061343f826140ef565b603c82019050919050565b6000613457602483613cbd565b91506134628261413e565b604082019050919050565b600061347a601983613cbd565b91506134858261418d565b602082019050919050565b600061349d602c83613cbd565b91506134a8826141b6565b604082019050919050565b60006134c0603883613cbd565b91506134cb82614205565b604082019050919050565b60006134e3602a83613cbd565b91506134ee82614254565b604082019050919050565b6000613506602983613cbd565b9150613511826142a3565b604082019050919050565b6000613529600483613cce565b9150613534826142f2565b600482019050919050565b600061354c602083613cbd565b91506135578261431b565b602082019050919050565b600061356f605283613cce565b915061357a82614344565b605282019050919050565b6000613592602c83613cbd565b915061359d826143b9565b604082019050919050565b60006135b5602983613cbd565b91506135c082614408565b604082019050919050565b60006135d8600a83613cce565b91506135e382614457565b600a82019050919050565b60006135fb602183613cbd565b915061360682614480565b604082019050919050565b600061361e601d83613cce565b9150613629826144cf565b601d82019050919050565b6000613641603183613cbd565b915061364c826144f8565b604082019050919050565b60006101008301600083015161367060008601826131cb565b5060208301518482036020860152613688828261331b565b915050604083015184820360408601526136a2828261331b565b915050606083015184820360608601526136bc82826131e9565b915050608083015184820360808601526136d6828261331b565b91505060a083015184820360a08601526136f0828261331b565b91505060c083015184820360c086015261370a828261331b565b91505060e083015161371f60e086018261372a565b508091505092915050565b61373381613e58565b82525050565b61374281613e58565b82525050565b6000613753826135cb565b915061375f828761338d565b915061376a826133be565b9150613776828661338d565b915061378182613562565b915061378d828561338d565b915061379882613427565b91506137a4828461338d565b91506137af8261351c565b915081905095945050505050565b60006137c882613611565b91506137d4828461338d565b915081905092915050565b60006020820190506137f460008301846131da565b92915050565b600060808201905061380f60008301876131da565b61381c60208301866131da565b6138296040830185613739565b818103606083015261383b81846132e2565b905095945050505050565b600060e08201905061385b600083018a6131da565b818103602083015261386d8189613354565b905081810360408301526138818188613354565b905081810360608301526138958187613354565b905081810360808301526138a98186613354565b905081810360a08301526138bd8185613354565b90506138cc60c0830184613739565b98975050505050505050565b600060208201905081810360008301526138f2818461325e565b905092915050565b600060208201905061390f60008301846132d3565b92915050565b6000602082019050818103600083015261392f8184613354565b905092915050565b600060608201905081810360008301526139518186613354565b905081810360208301526139658185613354565b90506139746040830184613739565b949350505050565b60006020820190508181036000830152613995816133e1565b9050919050565b600060208201905081810360008301526139b581613404565b9050919050565b600060208201905081810360008301526139d58161344a565b9050919050565b600060208201905081810360008301526139f58161346d565b9050919050565b60006020820190508181036000830152613a1581613490565b9050919050565b60006020820190508181036000830152613a35816134b3565b9050919050565b60006020820190508181036000830152613a55816134d6565b9050919050565b60006020820190508181036000830152613a75816134f9565b9050919050565b60006020820190508181036000830152613a958161353f565b9050919050565b60006020820190508181036000830152613ab581613585565b9050919050565b60006020820190508181036000830152613ad5816135a8565b9050919050565b60006020820190508181036000830152613af5816135ee565b9050919050565b60006020820190508181036000830152613b1581613634565b9050919050565b6000602082019050613b316000830184613739565b92915050565b6000604082019050613b4c6000830185613739565b613b596020830184613739565b9392505050565b6000613b6a613b7b565b9050613b768282613ed6565b919050565b6000604051905090565b600067ffffffffffffffff821115613ba057613b9f61400e565b5b602082029050602081019050919050565b600067ffffffffffffffff821115613bcc57613bcb61400e565b5b613bd58261403d565b9050602081019050919050565b600067ffffffffffffffff821115613bfd57613bfc61400e565b5b613c068261403d565b9050602081019050919050565b6000819050602082019050919050565b6000819050602082019050919050565b600081519050919050565b600081519050919050565b600081519050919050565b600081519050919050565b6000602082019050919050565b6000602082019050919050565b600082825260208201905092915050565b600082825260208201905092915050565b600082825260208201905092915050565b600082825260208201905092915050565b600082825260208201905092915050565b600081905092915050565b6000613ce482613e58565b9150613cef83613e58565b9250827fffffffffffffffffffffffffffffffffffffffffffffffffffffffffffffffff03821115613d2457613d23613f81565b5b828201905092915050565b6000613d3a82613e58565b9150613d4583613e58565b925082613d5557613d54613fb0565b5b828204905092915050565b6000613d6b82613e58565b9150613d7683613e58565b9250817fffffffffffffffffffffffffffffffffffffffffffffffffffffffffffffffff0483118215151615613daf57613dae613f81565b5b828202905092915050565b6000613dc582613e58565b9150613dd083613e58565b925082821015613de357613de2613f81565b5b828203905092915050565b6000613df982613e38565b9050919050565b60008115159050919050565b60007fffffffff0000000000000000000000000000000000000000000000000000000082169050919050565b600073ffffffffffffffffffffffffffffffffffffffff82169050919050565b6000819050919050565b82818337600083830152505050565b60005b83811015613e8f578082015181840152602081019050613e74565b83811115613e9e576000848401525b50505050565b60006002820490506001821680613ebc57607f821691505b60208210811415613ed057613ecf613fdf565b5b50919050565b613edf8261403d565b810181811067ffffffffffffffff82111715613efe57613efd61400e565b5b80604052505050565b6000613f1282613e58565b91507fffffffffffffffffffffffffffffffffffffffffffffffffffffffffffffffff821415613f4557613f44613f81565b5b600182019050919050565b6000613f5b82613e58565b9150613f6683613e58565b925082613f7657613f75613fb0565b5b828206905092915050565b7f4e487b7100000000000000000000000000000000000000000000000000000000600052601160045260246000fd5b7f4e487b7100000000000000000000000000000000000000000000000000000000600052601260045260246000fd5b7f4e487b7100000000000000000000000000000000000000000000000000000000600052602260045260246000fd5b7f4e487b7100000000000000000000000000000000000000000000000000000000600052604160045260246000fd5b6000601f19601f8301169050919050565b7f202d2d204e465420233a20000000000000000000000000000000000000000000600082015250565b7f4552433732313a207472616e7366657220746f206e6f6e20455243373231526560008201527f63656976657220696d706c656d656e7465720000000000000000000000000000602082015250565b7f4552433732313a20746f6b656e20616c7265616479206d696e74656400000000600082015250565b7f222c202261747472696275746573223a205b207b202274726169745f7479706560008201527f223a2022417274697374204e616d65222c202276616c7565223a202200000000602082015250565b7f4552433732313a207472616e7366657220746f20746865207a65726f2061646460008201527f7265737300000000000000000000000000000000000000000000000000000000602082015250565b7f4552433732313a20617070726f766520746f2063616c6c657200000000000000600082015250565b7f4552433732313a206f70657261746f7220717565727920666f72206e6f6e657860008201527f697374656e7420746f6b656e0000000000000000000000000000000000000000602082015250565b7f4552433732313a20617070726f76652063616c6c6572206973206e6f74206f7760008201527f6e6572206e6f7220617070726f76656420666f7220616c6c0000000000000000602082015250565b7f4552433732313a2062616c616e636520717565727920666f7220746865207a6560008201527f726f206164647265737300000000000000000000000000000000000000000000602082015250565b7f4552433732313a206f776e657220717565727920666f72206e6f6e657869737460008201527f656e7420746f6b656e0000000000000000000000000000000000000000000000602082015250565b7f7d205d7d00000000000000000000000000000000000000000000000000000000600082015250565b7f4552433732313a206d696e7420746f20746865207a65726f2061646472657373600082015250565b7f222c20226465736372697074696f6e223a202241207374617274657220736f6e60008201527f67207573656420746f20706c617920696e207468652050484c4f5445204a756b60208201527f65626f7821222c20226d65646961223a20220000000000000000000000000000604082015250565b7f4552433732313a20617070726f76656420717565727920666f72206e6f6e657860008201527f697374656e7420746f6b656e0000000000000000000000000000000000000000602082015250565b7f4552433732313a207472616e73666572206f6620746f6b656e2074686174206960008201527f73206e6f74206f776e0000000000000000000000000000000000000000000000602082015250565b7f7b226e616d65223a202200000000000000000000000000000000000000000000600082015250565b7f4552433732313a20617070726f76616c20746f2063757272656e74206f776e6560008201527f7200000000000000000000000000000000000000000000000000000000000000602082015250565b7f646174613a6170706c69636174696f6e2f6a736f6e3b6261736536342c000000600082015250565b7f4552433732313a207472616e736665722063616c6c6572206973206e6f74206f60008201527f776e6572206e6f7220617070726f766564000000000000000000000000000000602082015250565b61455081613dee565b811461455b57600080fd5b50565b61456781613e00565b811461457257600080fd5b50565b61457e81613e0c565b811461458957600080fd5b50565b61459581613e58565b81146145a057600080fd5b5056fe4142434445464748494a4b4c4d4e4f505152535455565758595a6162636465666768696a6b6c6d6e6f707172737475767778797a303132333435363738392b2f2a2a2a2a2a2a4d696e746564202573204e465420772f20746f6b656e4964202573202a2a2a2a2a2aa26469706673582212203cb291eb35909b95c4b4edbd5b7bcd599d72e556acc6f9a2fb77909a1dc4994a64736f6c63430008040033",
  "linkReferences": {},
  "deployedLinkReferences": {}
}