{
  "_format": "hh-sol-artifact-1",
  "contractName": "Phlote",
  "sourceName": "contracts/Phlote.sol",
  "abi": [
    {
      "anonymous": false,
      "inputs": [
        {
          "indexed": true,
          "internalType": "address",
          "name": "owner",
          "type": "address"
        },
        {
          "indexed": true,
          "internalType": "address",
          "name": "approved",
          "type": "address"
        },
        {
          "indexed": true,
          "internalType": "uint256",
          "name": "tokenId",
          "type": "uint256"
        }
      ],
      "name": "Approval",
      "type": "event"
    },
    {
      "anonymous": false,
      "inputs": [
        {
          "indexed": true,
          "internalType": "address",
          "name": "owner",
          "type": "address"
        },
        {
          "indexed": true,
          "internalType": "address",
          "name": "operator",
          "type": "address"
        },
        {
          "indexed": false,
          "internalType": "bool",
          "name": "approved",
          "type": "bool"
        }
      ],
      "name": "ApprovalForAll",
      "type": "event"
    },
    {
      "anonymous": false,
      "inputs": [
        {
          "indexed": false,
          "internalType": "address",
          "name": "sender",
          "type": "address"
        },
        {
          "indexed": true,
          "internalType": "uint256",
          "name": "editionId",
          "type": "uint256"
        }
      ],
      "name": "EditionCreated",
      "type": "event"
    },
    {
      "anonymous": false,
      "inputs": [
        {
          "indexed": true,
          "internalType": "address",
          "name": "buyer",
          "type": "address"
        },
        {
          "indexed": false,
          "internalType": "uint256",
          "name": "tokenId",
          "type": "uint256"
        },
        {
          "indexed": false,
          "internalType": "uint256",
          "name": "numSold",
          "type": "uint256"
        }
      ],
      "name": "EditionMinted",
      "type": "event"
    },
    {
      "anonymous": false,
      "inputs": [
        {
          "indexed": true,
          "internalType": "address",
          "name": "previousOwner",
          "type": "address"
        },
        {
          "indexed": true,
          "internalType": "address",
          "name": "newOwner",
          "type": "address"
        }
      ],
      "name": "OwnershipTransferred",
      "type": "event"
    },
    {
      "anonymous": false,
      "inputs": [
        {
          "indexed": true,
          "internalType": "address",
          "name": "from",
          "type": "address"
        },
        {
          "indexed": true,
          "internalType": "address",
          "name": "to",
          "type": "address"
        },
        {
          "indexed": true,
          "internalType": "uint256",
          "name": "tokenId",
          "type": "uint256"
        }
      ],
      "name": "Transfer",
      "type": "event"
    },
    {
      "inputs": [
        {
          "internalType": "address",
          "name": "to",
          "type": "address"
        },
        {
          "internalType": "uint256",
          "name": "tokenId",
          "type": "uint256"
        }
      ],
      "name": "approve",
      "outputs": [],
      "stateMutability": "nonpayable",
      "type": "function"
    },
    {
      "inputs": [
        {
          "internalType": "address",
          "name": "owner",
          "type": "address"
        }
      ],
      "name": "balanceOf",
      "outputs": [
        {
          "internalType": "uint256",
          "name": "",
          "type": "uint256"
        }
      ],
      "stateMutability": "view",
      "type": "function"
    },
    {
      "inputs": [],
      "name": "contractPrice",
      "outputs": [
        {
          "internalType": "uint256",
          "name": "",
          "type": "uint256"
        }
      ],
      "stateMutability": "view",
      "type": "function"
    },
    {
      "inputs": [
        {
          "internalType": "address",
          "name": "_curatorWallet",
          "type": "address"
        },
        {
          "internalType": "uint256",
          "name": "id",
          "type": "uint256"
        }
      ],
      "name": "cosign",
      "outputs": [],
      "stateMutability": "nonpayable",
      "type": "function"
    },
    {
      "inputs": [
        {
          "internalType": "address",
          "name": "",
          "type": "address"
        },
        {
          "internalType": "uint256",
          "name": "",
          "type": "uint256"
        }
      ],
      "name": "curatorSubmissions",
      "outputs": [
        {
          "internalType": "address",
          "name": "curatorWallet",
          "type": "address"
        },
        {
          "internalType": "address",
          "name": "artistWallet",
          "type": "address"
        },
        {
          "internalType": "string",
          "name": "mediaURI",
          "type": "string"
        },
        {
          "internalType": "string",
          "name": "marketplace",
          "type": "string"
        },
        {
          "internalType": "string",
          "name": "artistName",
          "type": "string"
        },
        {
          "internalType": "string",
          "name": "mediaType",
          "type": "string"
        },
        {
          "internalType": "string",
          "name": "mediaTitle",
          "type": "string"
        },
        {
          "internalType": "uint256",
          "name": "numSold",
          "type": "uint256"
        },
        {
          "internalType": "string",
          "name": "tokenURI",
          "type": "string"
        },
        {
          "internalType": "uint256",
          "name": "submissionTime",
          "type": "uint256"
        }
      ],
      "stateMutability": "view",
      "type": "function"
    },
    {
      "inputs": [
        {
          "internalType": "uint256",
          "name": "",
          "type": "uint256"
        },
        {
          "internalType": "uint256",
          "name": "",
          "type": "uint256"
        }
      ],
      "name": "editionToCosigners",
      "outputs": [
        {
          "internalType": "address",
          "name": "",
          "type": "address"
        }
      ],
      "stateMutability": "view",
      "type": "function"
    },
    {
      "inputs": [
        {
          "internalType": "uint256",
          "name": "",
          "type": "uint256"
        }
      ],
      "name": "editions",
      "outputs": [
        {
          "internalType": "address",
          "name": "curatorWallet",
          "type": "address"
        },
        {
          "internalType": "address",
          "name": "artistWallet",
          "type": "address"
        },
        {
          "internalType": "string",
          "name": "mediaURI",
          "type": "string"
        },
        {
          "internalType": "string",
          "name": "marketplace",
          "type": "string"
        },
        {
          "internalType": "string",
          "name": "artistName",
          "type": "string"
        },
        {
          "internalType": "string",
          "name": "mediaType",
          "type": "string"
        },
        {
          "internalType": "string",
          "name": "mediaTitle",
          "type": "string"
        },
        {
          "internalType": "uint256",
          "name": "numSold",
          "type": "uint256"
        },
        {
          "internalType": "string",
          "name": "tokenURI",
          "type": "string"
        },
        {
          "internalType": "uint256",
          "name": "submissionTime",
          "type": "uint256"
        }
      ],
      "stateMutability": "view",
      "type": "function"
    },
    {
      "inputs": [],
      "name": "getAllCurations",
      "outputs": [
        {
          "components": [
            {
              "internalType": "address",
              "name": "curatorWallet",
              "type": "address"
            },
            {
              "internalType": "address",
              "name": "artistWallet",
              "type": "address"
            },
            {
              "internalType": "string",
              "name": "mediaURI",
              "type": "string"
            },
            {
              "internalType": "string",
              "name": "marketplace",
              "type": "string"
            },
            {
              "internalType": "string[]",
              "name": "tags",
              "type": "string[]"
            },
            {
              "internalType": "string",
              "name": "artistName",
              "type": "string"
            },
            {
              "internalType": "string",
              "name": "mediaType",
              "type": "string"
            },
            {
              "internalType": "string",
              "name": "mediaTitle",
              "type": "string"
            },
            {
              "internalType": "uint256",
              "name": "numSold",
              "type": "uint256"
            },
            {
              "internalType": "string",
              "name": "tokenURI",
              "type": "string"
            },
            {
              "internalType": "uint256",
              "name": "submissionTime",
              "type": "uint256"
            }
          ],
          "internalType": "struct Phlote.Edition[]",
          "name": "",
          "type": "tuple[]"
        }
      ],
      "stateMutability": "view",
      "type": "function"
    },
    {
      "inputs": [
        {
          "internalType": "uint256",
          "name": "tokenId",
          "type": "uint256"
        }
      ],
      "name": "getApproved",
      "outputs": [
        {
          "internalType": "address",
          "name": "",
          "type": "address"
        }
      ],
      "stateMutability": "view",
      "type": "function"
    },
    {
      "inputs": [
        {
          "internalType": "address",
          "name": "_curatorWallet",
          "type": "address"
        }
      ],
      "name": "getCuratorSubmissions",
      "outputs": [
        {
          "components": [
            {
              "internalType": "address",
              "name": "curatorWallet",
              "type": "address"
            },
            {
              "internalType": "address",
              "name": "artistWallet",
              "type": "address"
            },
            {
              "internalType": "string",
              "name": "mediaURI",
              "type": "string"
            },
            {
              "internalType": "string",
              "name": "marketplace",
              "type": "string"
            },
            {
              "internalType": "string[]",
              "name": "tags",
              "type": "string[]"
            },
            {
              "internalType": "string",
              "name": "artistName",
              "type": "string"
            },
            {
              "internalType": "string",
              "name": "mediaType",
              "type": "string"
            },
            {
              "internalType": "string",
              "name": "mediaTitle",
              "type": "string"
            },
            {
              "internalType": "uint256",
              "name": "numSold",
              "type": "uint256"
            },
            {
              "internalType": "string",
              "name": "tokenURI",
              "type": "string"
            },
            {
              "internalType": "uint256",
              "name": "submissionTime",
              "type": "uint256"
            }
          ],
          "internalType": "struct Phlote.Edition[]",
          "name": "",
          "type": "tuple[]"
        }
      ],
      "stateMutability": "view",
      "type": "function"
    },
    {
      "inputs": [],
      "name": "initialize",
      "outputs": [],
      "stateMutability": "nonpayable",
      "type": "function"
    },
    {
      "inputs": [
        {
          "internalType": "address",
          "name": "owner",
          "type": "address"
        },
        {
          "internalType": "address",
          "name": "operator",
          "type": "address"
        }
      ],
      "name": "isApprovedForAll",
      "outputs": [
        {
          "internalType": "bool",
          "name": "",
          "type": "bool"
        }
      ],
      "stateMutability": "view",
      "type": "function"
    },
    {
      "inputs": [
        {
          "internalType": "uint256",
          "name": "editionId",
          "type": "uint256"
        }
      ],
      "name": "mintEdition",
      "outputs": [],
      "stateMutability": "payable",
      "type": "function"
    },
    {
      "inputs": [],
      "name": "name",
      "outputs": [
        {
          "internalType": "string",
          "name": "",
          "type": "string"
        }
      ],
      "stateMutability": "view",
      "type": "function"
    },
    {
      "inputs": [
        {
          "internalType": "address",
          "name": "",
          "type": "address"
        }
      ],
      "name": "nftHolders",
      "outputs": [
        {
          "internalType": "uint256",
          "name": "",
          "type": "uint256"
        }
      ],
      "stateMutability": "view",
      "type": "function"
    },
    {
      "inputs": [],
      "name": "owner",
      "outputs": [
        {
          "internalType": "address",
          "name": "",
          "type": "address"
        }
      ],
      "stateMutability": "view",
      "type": "function"
    },
    {
      "inputs": [
        {
          "internalType": "uint256",
          "name": "tokenId",
          "type": "uint256"
        }
      ],
      "name": "ownerOf",
      "outputs": [
        {
          "internalType": "address",
          "name": "",
          "type": "address"
        }
      ],
      "stateMutability": "view",
      "type": "function"
    },
    {
      "inputs": [],
      "name": "renounceOwnership",
      "outputs": [],
      "stateMutability": "nonpayable",
      "type": "function"
    },
    {
      "inputs": [
        {
          "internalType": "address",
          "name": "from",
          "type": "address"
        },
        {
          "internalType": "address",
          "name": "to",
          "type": "address"
        },
        {
          "internalType": "uint256",
          "name": "tokenId",
          "type": "uint256"
        }
      ],
      "name": "safeTransferFrom",
      "outputs": [],
      "stateMutability": "nonpayable",
      "type": "function"
    },
    {
      "inputs": [
        {
          "internalType": "address",
          "name": "from",
          "type": "address"
        },
        {
          "internalType": "address",
          "name": "to",
          "type": "address"
        },
        {
          "internalType": "uint256",
          "name": "tokenId",
          "type": "uint256"
        },
        {
          "internalType": "bytes",
          "name": "_data",
          "type": "bytes"
        }
      ],
      "name": "safeTransferFrom",
      "outputs": [],
      "stateMutability": "nonpayable",
      "type": "function"
    },
    {
      "inputs": [
        {
          "internalType": "address",
          "name": "operator",
          "type": "address"
        },
        {
          "internalType": "bool",
          "name": "approved",
          "type": "bool"
        }
      ],
      "name": "setApprovalForAll",
      "outputs": [],
      "stateMutability": "nonpayable",
      "type": "function"
    },
    {
      "inputs": [
        {
          "internalType": "address",
          "name": "_curatorWallet",
          "type": "address"
        },
        {
          "internalType": "string",
          "name": "_mediaURI",
          "type": "string"
        },
        {
          "internalType": "string",
          "name": "_marketplace",
          "type": "string"
        },
        {
          "internalType": "string[]",
          "name": "_tags",
          "type": "string[]"
        },
        {
          "internalType": "string",
          "name": "_artistName",
          "type": "string"
        },
        {
          "internalType": "address",
          "name": "_artistWallet",
          "type": "address"
        },
        {
          "internalType": "string",
          "name": "_mediaType",
          "type": "string"
        },
        {
          "internalType": "string",
          "name": "_mediaTitle",
          "type": "string"
        },
        {
          "internalType": "string",
          "name": "_tokenURI",
          "type": "string"
        }
      ],
      "name": "submitPost",
      "outputs": [],
      "stateMutability": "nonpayable",
      "type": "function"
    },
    {
      "inputs": [
        {
          "internalType": "bytes4",
          "name": "interfaceId",
          "type": "bytes4"
        }
      ],
      "name": "supportsInterface",
      "outputs": [
        {
          "internalType": "bool",
          "name": "",
          "type": "bool"
        }
      ],
      "stateMutability": "view",
      "type": "function"
    },
    {
      "inputs": [],
      "name": "symbol",
      "outputs": [
        {
          "internalType": "string",
          "name": "",
          "type": "string"
        }
      ],
      "stateMutability": "view",
      "type": "function"
    },
    {
      "inputs": [
        {
          "internalType": "uint256",
          "name": "",
          "type": "uint256"
        }
      ],
      "name": "tokenToSong",
      "outputs": [
        {
          "internalType": "uint256",
          "name": "",
          "type": "uint256"
        }
      ],
      "stateMutability": "view",
      "type": "function"
    },
    {
      "inputs": [
        {
          "internalType": "uint256",
          "name": "_tokenId",
          "type": "uint256"
        }
      ],
      "name": "tokenURI",
      "outputs": [
        {
          "internalType": "string",
          "name": "",
          "type": "string"
        }
      ],
      "stateMutability": "view",
      "type": "function"
    },
    {
      "inputs": [
        {
          "internalType": "address",
          "name": "from",
          "type": "address"
        },
        {
          "internalType": "address",
          "name": "to",
          "type": "address"
        },
        {
          "internalType": "uint256",
          "name": "tokenId",
          "type": "uint256"
        }
      ],
      "name": "transferFrom",
      "outputs": [],
      "stateMutability": "nonpayable",
      "type": "function"
    },
    {
      "inputs": [
        {
          "internalType": "address",
          "name": "newOwner",
          "type": "address"
        }
      ],
      "name": "transferOwnership",
      "outputs": [],
      "stateMutability": "nonpayable",
      "type": "function"
    },
    {
      "inputs": [
        {
          "internalType": "uint256",
          "name": "",
          "type": "uint256"
        }
      ],
      "name": "withdrawnForEdition",
      "outputs": [
        {
          "internalType": "uint256",
          "name": "",
          "type": "uint256"
        }
      ],
      "stateMutability": "view",
      "type": "function"
    }
  ],
  "bytecode": "0x608060405234801561001057600080fd5b5061594d80620000216000396000f3fe6080604052600436106101c25760003560e01c8063715018a6116100f7578063a22cb46511610095578063d3bb052811610064578063d3bb05281461067b578063e2b18d3f146106b8578063e985e9c5146106f5578063f2fde38b14610732576101c2565b8063a22cb465146105c3578063b88d4fde146105ec578063c328063414610615578063c87b56dd1461063e576101c2565b80638da5cb5b116100d15780638da5cb5b146105055780638fbbb2331461053057806395d89b411461056d57806397e9a0bf14610598576101c2565b8063715018a61461049a5780637df124a1146104b15780638129fc1c146104ee576101c2565b806323b872dd1161016457806353301ecf1161013e57806353301ecf146103ba5780636352211e146103f75780636b1658541461043457806370a082311461045d576101c2565b806323b872dd14610322578063279c806e1461034b57806342842e0e14610391576101c2565b8063081812fc116101a0578063081812fc1461024b578063095ea7b3146102885780631125c320146102b15780631cfbcd5b146102f7576101c2565b806301ffc9a7146101c757806305322b741461020457806306fdde0314610220575b600080fd5b3480156101d357600080fd5b506101ee60048036038101906101e99190614594565b61075b565b6040516101fb9190614d0e565b60405180910390f35b61021e600480360381019061021991906145e6565b61083d565b005b34801561022c57600080fd5b50610235610a12565b6040516102429190614d29565b60405180910390f35b34801561025757600080fd5b50610272600480360381019061026d91906145e6565b610aa4565b60405161027f9190614bbf565b60405180910390f35b34801561029457600080fd5b506102af60048036038101906102aa9190614558565b610b29565b005b3480156102bd57600080fd5b506102d860048036038101906102d39190614558565b610c41565b6040516102ee9a99989796959493929190614bda565b60405180910390f35b34801561030357600080fd5b5061030c611022565b6040516103199190614cec565b60405180910390f35b34801561032e57600080fd5b50610349600480360381019061034491906142e4565b611587565b005b34801561035757600080fd5b50610372600480360381019061036d91906145e6565b6115e7565b6040516103889a99989796959493929190614bda565b60405180910390f35b34801561039d57600080fd5b506103b860048036038101906103b391906142e4565b6119ab565b005b3480156103c657600080fd5b506103e160048036038101906103dc919061427f565b6119cb565b6040516103ee9190614cec565b60405180910390f35b34801561040357600080fd5b5061041e600480360381019061041991906145e6565b611f6f565b60405161042b9190614bbf565b60405180910390f35b34801561044057600080fd5b5061045b600480360381019061045691906143ea565b612021565b005b34801561046957600080fd5b50610484600480360381019061047f919061427f565b612609565b6040516104919190614fb0565b60405180910390f35b3480156104a657600080fd5b506104af6126c1565b005b3480156104bd57600080fd5b506104d860048036038101906104d3919061427f565b612749565b6040516104e59190614fb0565b60405180910390f35b3480156104fa57600080fd5b50610503612761565b005b34801561051157600080fd5b5061051a6128cb565b6040516105279190614bbf565b60405180910390f35b34801561053c57600080fd5b506105576004803603810190610552919061460f565b6128f5565b6040516105649190614bbf565b60405180910390f35b34801561057957600080fd5b50610582612943565b60405161058f9190614d29565b60405180910390f35b3480156105a457600080fd5b506105ad6129d5565b6040516105ba9190614fb0565b60405180910390f35b3480156105cf57600080fd5b506105ea60048036038101906105e591906143ae565b6129db565b005b3480156105f857600080fd5b50610613600480360381019061060e9190614333565b6129f1565b005b34801561062157600080fd5b5061063c60048036038101906106379190614558565b612a53565b005b34801561064a57600080fd5b50610665600480360381019061066091906145e6565b612acb565b6040516106729190614d29565b60405180910390f35b34801561068757600080fd5b506106a2600480360381019061069d91906145e6565b613016565b6040516106af9190614fb0565b60405180910390f35b3480156106c457600080fd5b506106df60048036038101906106da91906145e6565b61302e565b6040516106ec9190614fb0565b60405180910390f35b34801561070157600080fd5b5061071c600480360381019061071791906142a8565b613046565b6040516107299190614d0e565b60405180910390f35b34801561073e57600080fd5b506107596004803603810190610754919061427f565b6130da565b005b60007f80ac58cd000000000000000000000000000000000000000000000000000000007bffffffffffffffffffffffffffffffffffffffffffffffffffffffff1916827bffffffffffffffffffffffffffffffffffffffffffffffffffffffff1916148061082657507f5b5e139f000000000000000000000000000000000000000000000000000000007bffffffffffffffffffffffffffffffffffffffffffffffffffffffff1916827bffffffffffffffffffffffffffffffffffffffffffffffffffffffff1916145b806108365750610835826131d2565b5b9050919050565b600061084960ca61323c565b9050610855338261324a565b6109166040518060600160405280602881526020016158f06028913960cd60008581526020019081526020016000206007018054610892906152a2565b80601f01602080910402602001604051908101604052809291908181526020018280546108be906152a2565b801561090b5780601f106108e05761010080835404028352916020019161090b565b820191906000526020600020905b8154815290600101906020018083116108ee57829003601f168201915b505050505083613268565b8060ce60003373ffffffffffffffffffffffffffffffffffffffff1673ffffffffffffffffffffffffffffffffffffffff1681526020019081526020016000208190555061096460ca613307565b60cd6000838152602001908152602001600020600801600081548092919061098b90615305565b91905055508160d16000838152602001908152602001600020819055503373ffffffffffffffffffffffffffffffffffffffff167fe1b60c9e07632933648666e5ede8b3b329ddfa2ab98c51b1a5b4b22ab4f1349c8260cd600086815260200190815260200160002060080154604051610a06929190614fcb565b60405180910390a25050565b606060658054610a21906152a2565b80601f0160208091040260200160405190810160405280929190818152602001828054610a4d906152a2565b8015610a9a5780601f10610a6f57610100808354040283529160200191610a9a565b820191906000526020600020905b815481529060010190602001808311610a7d57829003601f168201915b5050505050905090565b6000610aaf8261331d565b610aee576040517f08c379a0000000000000000000000000000000000000000000000000000000008152600401610ae590614f10565b60405180910390fd5b6069600083815260200190815260200160002060009054906101000a900473ffffffffffffffffffffffffffffffffffffffff169050919050565b6000610b3482611f6f565b90508073ffffffffffffffffffffffffffffffffffffffff168373ffffffffffffffffffffffffffffffffffffffff161415610ba5576040517f08c379a0000000000000000000000000000000000000000000000000000000008152600401610b9c90614f50565b60405180910390fd5b8073ffffffffffffffffffffffffffffffffffffffff16610bc4613389565b73ffffffffffffffffffffffffffffffffffffffff161480610bf35750610bf281610bed613389565b613046565b5b610c32576040517f08c379a0000000000000000000000000000000000000000000000000000000008152600401610c2990614e70565b60405180910390fd5b610c3c8383613391565b505050565b60cf6020528160005260406000208181548110610c5d57600080fd5b90600052602060002090600b0201600091509150508060000160009054906101000a900473ffffffffffffffffffffffffffffffffffffffff16908060010160009054906101000a900473ffffffffffffffffffffffffffffffffffffffff1690806002018054610ccd906152a2565b80601f0160208091040260200160405190810160405280929190818152602001828054610cf9906152a2565b8015610d465780601f10610d1b57610100808354040283529160200191610d46565b820191906000526020600020905b815481529060010190602001808311610d2957829003601f168201915b505050505090806003018054610d5b906152a2565b80601f0160208091040260200160405190810160405280929190818152602001828054610d87906152a2565b8015610dd45780601f10610da957610100808354040283529160200191610dd4565b820191906000526020600020905b815481529060010190602001808311610db757829003601f168201915b505050505090806005018054610de9906152a2565b80601f0160208091040260200160405190810160405280929190818152602001828054610e15906152a2565b8015610e625780601f10610e3757610100808354040283529160200191610e62565b820191906000526020600020905b815481529060010190602001808311610e4557829003601f168201915b505050505090806006018054610e77906152a2565b80601f0160208091040260200160405190810160405280929190818152602001828054610ea3906152a2565b8015610ef05780601f10610ec557610100808354040283529160200191610ef0565b820191906000526020600020905b815481529060010190602001808311610ed357829003601f168201915b505050505090806007018054610f05906152a2565b80601f0160208091040260200160405190810160405280929190818152602001828054610f31906152a2565b8015610f7e5780601f10610f5357610100808354040283529160200191610f7e565b820191906000526020600020905b815481529060010190602001808311610f6157829003601f168201915b505050505090806008015490806009018054610f99906152a2565b80601f0160208091040260200160405190810160405280929190818152602001828054610fc5906152a2565b80156110125780601f10610fe757610100808354040283529160200191611012565b820191906000526020600020905b815481529060010190602001808311610ff557829003601f168201915b50505050509080600a015490508a565b606060cc805480602002602001604051908101604052809291908181526020016000905b8282101561157e57838290600052602060002090600b0201604051806101600160405290816000820160009054906101000a900473ffffffffffffffffffffffffffffffffffffffff1673ffffffffffffffffffffffffffffffffffffffff1673ffffffffffffffffffffffffffffffffffffffff1681526020016001820160009054906101000a900473ffffffffffffffffffffffffffffffffffffffff1673ffffffffffffffffffffffffffffffffffffffff1673ffffffffffffffffffffffffffffffffffffffff168152602001600282018054611126906152a2565b80601f0160208091040260200160405190810160405280929190818152602001828054611152906152a2565b801561119f5780601f106111745761010080835404028352916020019161119f565b820191906000526020600020905b81548152906001019060200180831161118257829003601f168201915b505050505081526020016003820180546111b8906152a2565b80601f01602080910402602001604051908101604052809291908181526020018280546111e4906152a2565b80156112315780601f1061120657610100808354040283529160200191611231565b820191906000526020600020905b81548152906001019060200180831161121457829003601f168201915b5050505050815260200160048201805480602002602001604051908101604052809291908181526020016000905b8282101561130b57838290600052602060002001805461127e906152a2565b80601f01602080910402602001604051908101604052809291908181526020018280546112aa906152a2565b80156112f75780601f106112cc576101008083540402835291602001916112f7565b820191906000526020600020905b8154815290600101906020018083116112da57829003601f168201915b50505050508152602001906001019061125f565b505050508152602001600582018054611323906152a2565b80601f016020809104026020016040519081016040528092919081815260200182805461134f906152a2565b801561139c5780601f106113715761010080835404028352916020019161139c565b820191906000526020600020905b81548152906001019060200180831161137f57829003601f168201915b505050505081526020016006820180546113b5906152a2565b80601f01602080910402602001604051908101604052809291908181526020018280546113e1906152a2565b801561142e5780601f106114035761010080835404028352916020019161142e565b820191906000526020600020905b81548152906001019060200180831161141157829003601f168201915b50505050508152602001600782018054611447906152a2565b80601f0160208091040260200160405190810160405280929190818152602001828054611473906152a2565b80156114c05780601f10611495576101008083540402835291602001916114c0565b820191906000526020600020905b8154815290600101906020018083116114a357829003601f168201915b50505050508152602001600882015481526020016009820180546114e3906152a2565b80601f016020809104026020016040519081016040528092919081815260200182805461150f906152a2565b801561155c5780601f106115315761010080835404028352916020019161155c565b820191906000526020600020905b81548152906001019060200180831161153f57829003601f168201915b50505050508152602001600a8201548152505081526020019060010190611046565b50505050905090565b611598611592613389565b8261344a565b6115d7576040517f08c379a00000000000000000000000000000000000000000000000000000000081526004016115ce90614f70565b60405180910390fd5b6115e2838383613528565b505050565b60cd6020528060005260406000206000915090508060000160009054906101000a900473ffffffffffffffffffffffffffffffffffffffff16908060010160009054906101000a900473ffffffffffffffffffffffffffffffffffffffff1690806002018054611656906152a2565b80601f0160208091040260200160405190810160405280929190818152602001828054611682906152a2565b80156116cf5780601f106116a4576101008083540402835291602001916116cf565b820191906000526020600020905b8154815290600101906020018083116116b257829003601f168201915b5050505050908060030180546116e4906152a2565b80601f0160208091040260200160405190810160405280929190818152602001828054611710906152a2565b801561175d5780601f106117325761010080835404028352916020019161175d565b820191906000526020600020905b81548152906001019060200180831161174057829003601f168201915b505050505090806005018054611772906152a2565b80601f016020809104026020016040519081016040528092919081815260200182805461179e906152a2565b80156117eb5780601f106117c0576101008083540402835291602001916117eb565b820191906000526020600020905b8154815290600101906020018083116117ce57829003601f168201915b505050505090806006018054611800906152a2565b80601f016020809104026020016040519081016040528092919081815260200182805461182c906152a2565b80156118795780601f1061184e57610100808354040283529160200191611879565b820191906000526020600020905b81548152906001019060200180831161185c57829003601f168201915b50505050509080600701805461188e906152a2565b80601f01602080910402602001604051908101604052809291908181526020018280546118ba906152a2565b80156119075780601f106118dc57610100808354040283529160200191611907565b820191906000526020600020905b8154815290600101906020018083116118ea57829003601f168201915b505050505090806008015490806009018054611922906152a2565b80601f016020809104026020016040519081016040528092919081815260200182805461194e906152a2565b801561199b5780601f106119705761010080835404028352916020019161199b565b820191906000526020600020905b81548152906001019060200180831161197e57829003601f168201915b50505050509080600a015490508a565b6119c6838383604051806020016040528060008152506129f1565b505050565b606060cf60008373ffffffffffffffffffffffffffffffffffffffff1673ffffffffffffffffffffffffffffffffffffffff168152602001908152602001600020805480602002602001604051908101604052809291908181526020016000905b82821015611f6457838290600052602060002090600b0201604051806101600160405290816000820160009054906101000a900473ffffffffffffffffffffffffffffffffffffffff1673ffffffffffffffffffffffffffffffffffffffff1673ffffffffffffffffffffffffffffffffffffffff1681526020016001820160009054906101000a900473ffffffffffffffffffffffffffffffffffffffff1673ffffffffffffffffffffffffffffffffffffffff1673ffffffffffffffffffffffffffffffffffffffff168152602001600282018054611b0c906152a2565b80601f0160208091040260200160405190810160405280929190818152602001828054611b38906152a2565b8015611b855780601f10611b5a57610100808354040283529160200191611b85565b820191906000526020600020905b815481529060010190602001808311611b6857829003601f168201915b50505050508152602001600382018054611b9e906152a2565b80601f0160208091040260200160405190810160405280929190818152602001828054611bca906152a2565b8015611c175780601f10611bec57610100808354040283529160200191611c17565b820191906000526020600020905b815481529060010190602001808311611bfa57829003601f168201915b5050505050815260200160048201805480602002602001604051908101604052809291908181526020016000905b82821015611cf1578382906000526020600020018054611c64906152a2565b80601f0160208091040260200160405190810160405280929190818152602001828054611c90906152a2565b8015611cdd5780601f10611cb257610100808354040283529160200191611cdd565b820191906000526020600020905b815481529060010190602001808311611cc057829003601f168201915b505050505081526020019060010190611c45565b505050508152602001600582018054611d09906152a2565b80601f0160208091040260200160405190810160405280929190818152602001828054611d35906152a2565b8015611d825780601f10611d5757610100808354040283529160200191611d82565b820191906000526020600020905b815481529060010190602001808311611d6557829003601f168201915b50505050508152602001600682018054611d9b906152a2565b80601f0160208091040260200160405190810160405280929190818152602001828054611dc7906152a2565b8015611e145780601f10611de957610100808354040283529160200191611e14565b820191906000526020600020905b815481529060010190602001808311611df757829003601f168201915b50505050508152602001600782018054611e2d906152a2565b80601f0160208091040260200160405190810160405280929190818152602001828054611e59906152a2565b8015611ea65780601f10611e7b57610100808354040283529160200191611ea6565b820191906000526020600020905b815481529060010190602001808311611e8957829003601f168201915b5050505050815260200160088201548152602001600982018054611ec9906152a2565b80601f0160208091040260200160405190810160405280929190818152602001828054611ef5906152a2565b8015611f425780601f10611f1757610100808354040283529160200191611f42565b820191906000526020600020905b815481529060010190602001808311611f2557829003601f168201915b50505050508152602001600a8201548152505081526020019060010190611a2c565b505050509050919050565b6000806067600084815260200190815260200160002060009054906101000a900473ffffffffffffffffffffffffffffffffffffffff169050600073ffffffffffffffffffffffffffffffffffffffff168173ffffffffffffffffffffffffffffffffffffffff161415612018576040517f08c379a000000000000000000000000000000000000000000000000000000000815260040161200f90614eb0565b60405180910390fd5b80915050919050565b60006040518061016001604052808b73ffffffffffffffffffffffffffffffffffffffff1681526020018673ffffffffffffffffffffffffffffffffffffffff1681526020018a81526020018981526020018881526020018781526020018581526020018481526020016000815260200183815260200142815250905060cc8190806001815401808255809150506001900390600052602060002090600b020160009091909190915060008201518160000160006101000a81548173ffffffffffffffffffffffffffffffffffffffff021916908373ffffffffffffffffffffffffffffffffffffffff16021790555060208201518160010160006101000a81548173ffffffffffffffffffffffffffffffffffffffff021916908373ffffffffffffffffffffffffffffffffffffffff1602179055506040820151816002019080519060200190612174929190613f2f565b506060820151816003019080519060200190612191929190613f2f565b5060808201518160040190805190602001906121ae929190613fb5565b5060a08201518160050190805190602001906121cb929190613f2f565b5060c08201518160060190805190602001906121e8929190613f2f565b5060e0820151816007019080519060200190612205929190613f2f565b50610100820151816008015561012082015181600901908051906020019061222e929190613f2f565b5061014082015181600a015550508060cd600060cb54815260200190815260200160002060008201518160000160006101000a81548173ffffffffffffffffffffffffffffffffffffffff021916908373ffffffffffffffffffffffffffffffffffffffff16021790555060208201518160010160006101000a81548173ffffffffffffffffffffffffffffffffffffffff021916908373ffffffffffffffffffffffffffffffffffffffff16021790555060408201518160020190805190602001906122fc929190613f2f565b506060820151816003019080519060200190612319929190613f2f565b506080820151816004019080519060200190612336929190613fb5565b5060a0820151816005019080519060200190612353929190613f2f565b5060c0820151816006019080519060200190612370929190613f2f565b5060e082015181600701908051906020019061238d929190613f2f565b5061010082015181600801556101208201518160090190805190602001906123b6929190613f2f565b5061014082015181600a015590505060cf60008b73ffffffffffffffffffffffffffffffffffffffff1673ffffffffffffffffffffffffffffffffffffffff1681526020019081526020016000208190806001815401808255809150506001900390600052602060002090600b020160009091909190915060008201518160000160006101000a81548173ffffffffffffffffffffffffffffffffffffffff021916908373ffffffffffffffffffffffffffffffffffffffff16021790555060208201518160010160006101000a81548173ffffffffffffffffffffffffffffffffffffffff021916908373ffffffffffffffffffffffffffffffffffffffff16021790555060408201518160020190805190602001906124d8929190613f2f565b5060608201518160030190805190602001906124f5929190613f2f565b506080820151816004019080519060200190612512929190613fb5565b5060a082015181600501908051906020019061252f929190613f2f565b5060c082015181600601908051906020019061254c929190613f2f565b5060e0820151816007019080519060200190612569929190613f2f565b506101008201518160080155610120820151816009019080519060200190612592929190613f2f565b5061014082015181600a0155505060cb547fa1cd98301e2a758f45871102b368fdcf3f56e13f8e8fd2886523ac87ca066ce0336040516125d29190614bbf565b60405180910390a26125e560cb5461083d565b60cb60008154809291906125f890615305565b919050555050505050505050505050565b60008073ffffffffffffffffffffffffffffffffffffffff168273ffffffffffffffffffffffffffffffffffffffff16141561267a576040517f08c379a000000000000000000000000000000000000000000000000000000000815260040161267190614e90565b60405180910390fd5b606860008373ffffffffffffffffffffffffffffffffffffffff1673ffffffffffffffffffffffffffffffffffffffff168152602001908152602001600020549050919050565b6126c9613389565b73ffffffffffffffffffffffffffffffffffffffff166126e76128cb565b73ffffffffffffffffffffffffffffffffffffffff161461273d576040517f08c379a000000000000000000000000000000000000000000000000000000000815260040161273490614f30565b60405180910390fd5b612747600061378f565b565b60ce6020528060005260406000206000915090505481565b600060019054906101000a900460ff166127895760008054906101000a900460ff1615612792565b612791613855565b5b6127d1576040517f08c379a00000000000000000000000000000000000000000000000000000000081526004016127c890614ed0565b60405180910390fd5b60008060019054906101000a900460ff161590508015612821576001600060016101000a81548160ff02191690831515021790555060016000806101000a81548160ff0219169083151502179055505b61282b60ca613307565b600160cb819055506128a76040518060400160405280600f81526020017f50686c6f7465204375726174696f6e00000000000000000000000000000000008152506040518060400160405280600681526020017f50484c4f54450000000000000000000000000000000000000000000000000000815250613866565b80156128c85760008060016101000a81548160ff0219169083151502179055505b50565b6000609760009054906101000a900473ffffffffffffffffffffffffffffffffffffffff16905090565b60d2602052816000526040600020818154811061291157600080fd5b906000526020600020016000915091509054906101000a900473ffffffffffffffffffffffffffffffffffffffff1681565b606060668054612952906152a2565b80601f016020809104026020016040519081016040528092919081815260200182805461297e906152a2565b80156129cb5780601f106129a0576101008083540402835291602001916129cb565b820191906000526020600020905b8154815290600101906020018083116129ae57829003601f168201915b5050505050905090565b60c95481565b6129ed6129e6613389565b83836138c3565b5050565b612a026129fc613389565b8361344a565b612a41576040517f08c379a0000000000000000000000000000000000000000000000000000000008152600401612a3890614f70565b60405180910390fd5b612a4d84848484613a30565b50505050565b60d26000828152602001908152602001600020829080600181540180825580915050600190039060005260206000200160009091909190916101000a81548173ffffffffffffffffffffffffffffffffffffffff021916908373ffffffffffffffffffffffffffffffffffffffff1602179055505050565b6060600060cd600060d16000868152602001908152602001600020548152602001908152602001600020604051806101600160405290816000820160009054906101000a900473ffffffffffffffffffffffffffffffffffffffff1673ffffffffffffffffffffffffffffffffffffffff1673ffffffffffffffffffffffffffffffffffffffff1681526020016001820160009054906101000a900473ffffffffffffffffffffffffffffffffffffffff1673ffffffffffffffffffffffffffffffffffffffff1673ffffffffffffffffffffffffffffffffffffffff168152602001600282018054612bbd906152a2565b80601f0160208091040260200160405190810160405280929190818152602001828054612be9906152a2565b8015612c365780601f10612c0b57610100808354040283529160200191612c36565b820191906000526020600020905b815481529060010190602001808311612c1957829003601f168201915b50505050508152602001600382018054612c4f906152a2565b80601f0160208091040260200160405190810160405280929190818152602001828054612c7b906152a2565b8015612cc85780601f10612c9d57610100808354040283529160200191612cc8565b820191906000526020600020905b815481529060010190602001808311612cab57829003601f168201915b5050505050815260200160048201805480602002602001604051908101604052809291908181526020016000905b82821015612da2578382906000526020600020018054612d15906152a2565b80601f0160208091040260200160405190810160405280929190818152602001828054612d41906152a2565b8015612d8e5780601f10612d6357610100808354040283529160200191612d8e565b820191906000526020600020905b815481529060010190602001808311612d7157829003601f168201915b505050505081526020019060010190612cf6565b505050508152602001600582018054612dba906152a2565b80601f0160208091040260200160405190810160405280929190818152602001828054612de6906152a2565b8015612e335780601f10612e0857610100808354040283529160200191612e33565b820191906000526020600020905b815481529060010190602001808311612e1657829003601f168201915b50505050508152602001600682018054612e4c906152a2565b80601f0160208091040260200160405190810160405280929190818152602001828054612e78906152a2565b8015612ec55780601f10612e9a57610100808354040283529160200191612ec5565b820191906000526020600020905b815481529060010190602001808311612ea857829003601f168201915b50505050508152602001600782018054612ede906152a2565b80601f0160208091040260200160405190810160405280929190818152602001828054612f0a906152a2565b8015612f575780601f10612f2c57610100808354040283529160200191612f57565b820191906000526020600020905b815481529060010190602001808311612f3a57829003601f168201915b5050505050815260200160088201548152602001600982018054612f7a906152a2565b80601f0160208091040260200160405190810160405280929190818152602001828054612fa6906152a2565b8015612ff35780601f10612fc857610100808354040283529160200191612ff3565b820191906000526020600020905b815481529060010190602001808311612fd657829003601f168201915b50505050508152602001600a820154815250509050806101200151915050919050565b60d06020528060005260406000206000915090505481565b60d16020528060005260406000206000915090505481565b6000606a60008473ffffffffffffffffffffffffffffffffffffffff1673ffffffffffffffffffffffffffffffffffffffff16815260200190815260200160002060008373ffffffffffffffffffffffffffffffffffffffff1673ffffffffffffffffffffffffffffffffffffffff16815260200190815260200160002060009054906101000a900460ff16905092915050565b6130e2613389565b73ffffffffffffffffffffffffffffffffffffffff166131006128cb565b73ffffffffffffffffffffffffffffffffffffffff1614613156576040517f08c379a000000000000000000000000000000000000000000000000000000000815260040161314d90614f30565b60405180910390fd5b600073ffffffffffffffffffffffffffffffffffffffff168173ffffffffffffffffffffffffffffffffffffffff1614156131c6576040517f08c379a00000000000000000000000000000000000000000000000000000000081526004016131bd90614db0565b60405180910390fd5b6131cf8161378f565b50565b60007f01ffc9a7000000000000000000000000000000000000000000000000000000007bffffffffffffffffffffffffffffffffffffffffffffffffffffffff1916827bffffffffffffffffffffffffffffffffffffffffffffffffffffffff1916149050919050565b600081600001549050919050565b613264828260405180602001604052806000815250613a8c565b5050565b61330283838360405160240161328093929190614d4b565b6040516020818303038152906040527ff362ca59000000000000000000000000000000000000000000000000000000007bffffffffffffffffffffffffffffffffffffffffffffffffffffffff19166020820180517bffffffffffffffffffffffffffffffffffffffffffffffffffffffff8381831617835250505050613ae7565b505050565b6001816000016000828254019250508190555050565b60008073ffffffffffffffffffffffffffffffffffffffff166067600084815260200190815260200160002060009054906101000a900473ffffffffffffffffffffffffffffffffffffffff1673ffffffffffffffffffffffffffffffffffffffff1614159050919050565b600033905090565b816069600083815260200190815260200160002060006101000a81548173ffffffffffffffffffffffffffffffffffffffff021916908373ffffffffffffffffffffffffffffffffffffffff160217905550808273ffffffffffffffffffffffffffffffffffffffff1661340483611f6f565b73ffffffffffffffffffffffffffffffffffffffff167f8c5be1e5ebec7d5bd14f71427d1e84f3dd0314c0f7b2291e5b200ac8c7c3b92560405160405180910390a45050565b60006134558261331d565b613494576040517f08c379a000000000000000000000000000000000000000000000000000000000815260040161348b90614e50565b60405180910390fd5b600061349f83611f6f565b90508073ffffffffffffffffffffffffffffffffffffffff168473ffffffffffffffffffffffffffffffffffffffff16148061350e57508373ffffffffffffffffffffffffffffffffffffffff166134f684610aa4565b73ffffffffffffffffffffffffffffffffffffffff16145b8061351f575061351e8185613046565b5b91505092915050565b8273ffffffffffffffffffffffffffffffffffffffff1661354882611f6f565b73ffffffffffffffffffffffffffffffffffffffff161461359e576040517f08c379a000000000000000000000000000000000000000000000000000000000815260040161359590614dd0565b60405180910390fd5b600073ffffffffffffffffffffffffffffffffffffffff168273ffffffffffffffffffffffffffffffffffffffff16141561360e576040517f08c379a000000000000000000000000000000000000000000000000000000000815260040161360590614e10565b60405180910390fd5b613619838383613b10565b613624600082613391565b6001606860008573ffffffffffffffffffffffffffffffffffffffff1673ffffffffffffffffffffffffffffffffffffffff168152602001908152602001600020600082825461367491906151b8565b925050819055506001606860008473ffffffffffffffffffffffffffffffffffffffff1673ffffffffffffffffffffffffffffffffffffffff16815260200190815260200160002060008282546136cb9190615162565b92505081905550816067600083815260200190815260200160002060006101000a81548173ffffffffffffffffffffffffffffffffffffffff021916908373ffffffffffffffffffffffffffffffffffffffff160217905550808273ffffffffffffffffffffffffffffffffffffffff168473ffffffffffffffffffffffffffffffffffffffff167fddf252ad1be2c89b69c2b068fc378daa952ba7f163c4a11628f55a4df523b3ef60405160405180910390a461378a838383613b15565b505050565b6000609760009054906101000a900473ffffffffffffffffffffffffffffffffffffffff16905081609760006101000a81548173ffffffffffffffffffffffffffffffffffffffff021916908373ffffffffffffffffffffffffffffffffffffffff1602179055508173ffffffffffffffffffffffffffffffffffffffff168173ffffffffffffffffffffffffffffffffffffffff167f8be0079c531659141344cd1fd0a4f28419497f9722a3daafe3b4186f6b6457e060405160405180910390a35050565b600061386030613b1a565b15905090565b600060019054906101000a900460ff166138b5576040517f08c379a00000000000000000000000000000000000000000000000000000000081526004016138ac90614f90565b60405180910390fd5b6138bf8282613b3d565b5050565b8173ffffffffffffffffffffffffffffffffffffffff168373ffffffffffffffffffffffffffffffffffffffff161415613932576040517f08c379a000000000000000000000000000000000000000000000000000000000815260040161392990614e30565b60405180910390fd5b80606a60008573ffffffffffffffffffffffffffffffffffffffff1673ffffffffffffffffffffffffffffffffffffffff16815260200190815260200160002060008473ffffffffffffffffffffffffffffffffffffffff1673ffffffffffffffffffffffffffffffffffffffff16815260200190815260200160002060006101000a81548160ff0219169083151502179055508173ffffffffffffffffffffffffffffffffffffffff168373ffffffffffffffffffffffffffffffffffffffff167f17307eab39ab6107e8899845ad3d59bd9653f200f220920489ca2b5937696c3183604051613a239190614d0e565b60405180910390a3505050565b613a3b848484613528565b613a4784848484613bbe565b613a86576040517f08c379a0000000000000000000000000000000000000000000000000000000008152600401613a7d90614d90565b60405180910390fd5b50505050565b613a968383613d55565b613aa36000848484613bbe565b613ae2576040517f08c379a0000000000000000000000000000000000000000000000000000000008152600401613ad990614d90565b60405180910390fd5b505050565b60008151905060006a636f6e736f6c652e6c6f679050602083016000808483855afa5050505050565b505050565b505050565b6000808273ffffffffffffffffffffffffffffffffffffffff163b119050919050565b600060019054906101000a900460ff16613b8c576040517f08c379a0000000000000000000000000000000000000000000000000000000008152600401613b8390614f90565b60405180910390fd5b8160659080519060200190613ba2929190613f2f565b508060669080519060200190613bb9929190613f2f565b505050565b6000613bdf8473ffffffffffffffffffffffffffffffffffffffff16613b1a565b15613d48578373ffffffffffffffffffffffffffffffffffffffff1663150b7a02613c08613389565b8786866040518563ffffffff1660e01b8152600401613c2a9493929190614ca0565b602060405180830381600087803b158015613c4457600080fd5b505af1925050508015613c7557506040513d601f19601f82011682018060405250810190613c7291906145bd565b60015b613cf8573d8060008114613ca5576040519150601f19603f3d011682016040523d82523d6000602084013e613caa565b606091505b50600081511415613cf0576040517f08c379a0000000000000000000000000000000000000000000000000000000008152600401613ce790614d90565b60405180910390fd5b805181602001fd5b63150b7a0260e01b7bffffffffffffffffffffffffffffffffffffffffffffffffffffffff1916817bffffffffffffffffffffffffffffffffffffffffffffffffffffffff191614915050613d4d565b600190505b949350505050565b600073ffffffffffffffffffffffffffffffffffffffff168273ffffffffffffffffffffffffffffffffffffffff161415613dc5576040517f08c379a0000000000000000000000000000000000000000000000000000000008152600401613dbc90614ef0565b60405180910390fd5b613dce8161331d565b15613e0e576040517f08c379a0000000000000000000000000000000000000000000000000000000008152600401613e0590614df0565b60405180910390fd5b613e1a60008383613b10565b6001606860008473ffffffffffffffffffffffffffffffffffffffff1673ffffffffffffffffffffffffffffffffffffffff1681526020019081526020016000206000828254613e6a9190615162565b92505081905550816067600083815260200190815260200160002060006101000a81548173ffffffffffffffffffffffffffffffffffffffff021916908373ffffffffffffffffffffffffffffffffffffffff160217905550808273ffffffffffffffffffffffffffffffffffffffff16600073ffffffffffffffffffffffffffffffffffffffff167fddf252ad1be2c89b69c2b068fc378daa952ba7f163c4a11628f55a4df523b3ef60405160405180910390a4613f2b60008383613b15565b5050565b828054613f3b906152a2565b90600052602060002090601f016020900481019282613f5d5760008555613fa4565b82601f10613f7657805160ff1916838001178555613fa4565b82800160010185558215613fa4579182015b82811115613fa3578251825591602001919060010190613f88565b5b509050613fb19190614015565b5090565b828054828255906000526020600020908101928215614004579160200282015b82811115614003578251829080519060200190613ff3929190613f2f565b5091602001919060010190613fd5565b5b5090506140119190614032565b5090565b5b8082111561402e576000816000905550600101614016565b5090565b5b8082111561405257600081816140499190614056565b50600101614033565b5090565b508054614062906152a2565b6000825580601f106140745750614093565b601f0160209004906000526020600020908101906140929190614015565b5b50565b60006140a96140a484615019565b614ff4565b905080838252602082019050828560208602820111156140c857600080fd5b60005b8581101561411257813567ffffffffffffffff8111156140ea57600080fd5b8086016140f78982614240565b855260208501945060208401935050506001810190506140cb565b5050509392505050565b600061412f61412a84615045565b614ff4565b90508281526020810184848401111561414757600080fd5b614152848285615260565b509392505050565b600061416d61416884615076565b614ff4565b90508281526020810184848401111561418557600080fd5b614190848285615260565b509392505050565b6000813590506141a781615893565b92915050565b600082601f8301126141be57600080fd5b81356141ce848260208601614096565b91505092915050565b6000813590506141e6816158aa565b92915050565b6000813590506141fb816158c1565b92915050565b600081519050614210816158c1565b92915050565b600082601f83011261422757600080fd5b813561423784826020860161411c565b91505092915050565b600082601f83011261425157600080fd5b813561426184826020860161415a565b91505092915050565b600081359050614279816158d8565b92915050565b60006020828403121561429157600080fd5b600061429f84828501614198565b91505092915050565b600080604083850312156142bb57600080fd5b60006142c985828601614198565b92505060206142da85828601614198565b9150509250929050565b6000806000606084860312156142f957600080fd5b600061430786828701614198565b935050602061431886828701614198565b92505060406143298682870161426a565b9150509250925092565b6000806000806080858703121561434957600080fd5b600061435787828801614198565b945050602061436887828801614198565b93505060406143798782880161426a565b925050606085013567ffffffffffffffff81111561439657600080fd5b6143a287828801614216565b91505092959194509250565b600080604083850312156143c157600080fd5b60006143cf85828601614198565b92505060206143e0858286016141d7565b9150509250929050565b60008060008060008060008060006101208a8c03121561440957600080fd5b60006144178c828d01614198565b99505060208a013567ffffffffffffffff81111561443457600080fd5b6144408c828d01614240565b98505060408a013567ffffffffffffffff81111561445d57600080fd5b6144698c828d01614240565b97505060608a013567ffffffffffffffff81111561448657600080fd5b6144928c828d016141ad565b96505060808a013567ffffffffffffffff8111156144af57600080fd5b6144bb8c828d01614240565b95505060a06144cc8c828d01614198565b94505060c08a013567ffffffffffffffff8111156144e957600080fd5b6144f58c828d01614240565b93505060e08a013567ffffffffffffffff81111561451257600080fd5b61451e8c828d01614240565b9250506101008a013567ffffffffffffffff81111561453c57600080fd5b6145488c828d01614240565b9150509295985092959850929598565b6000806040838503121561456b57600080fd5b600061457985828601614198565b925050602061458a8582860161426a565b9150509250929050565b6000602082840312156145a657600080fd5b60006145b4848285016141ec565b91505092915050565b6000602082840312156145cf57600080fd5b60006145dd84828501614201565b91505092915050565b6000602082840312156145f857600080fd5b60006146068482850161426a565b91505092915050565b6000806040838503121561462257600080fd5b60006146308582860161426a565b92505060206146418582860161426a565b9150509250929050565b600061465783836147c3565b905092915050565b600061466b8383614a88565b905092915050565b61467c816151ec565b82525050565b61468b816151ec565b82525050565b600061469c826150c7565b6146a6818561510d565b9350836020820285016146b8856150a7565b8060005b858110156146f457848403895281516146d5858261464b565b94506146e0836150f3565b925060208a019950506001810190506146bc565b50829750879550505050505092915050565b6000614711826150d2565b61471b818561511e565b93508360208202850161472d856150b7565b8060005b85811015614769578484038952815161474a858261465f565b945061475583615100565b925060208a01995050600181019050614731565b50829750879550505050505092915050565b614784816151fe565b82525050565b6000614795826150dd565b61479f818561512f565b93506147af81856020860161526f565b6147b8816153db565b840191505092915050565b60006147ce826150e8565b6147d88185615140565b93506147e881856020860161526f565b6147f1816153db565b840191505092915050565b6000614807826150e8565b6148118185615151565b935061482181856020860161526f565b61482a816153db565b840191505092915050565b6000614842603283615151565b915061484d826153ec565b604082019050919050565b6000614865602683615151565b91506148708261543b565b604082019050919050565b6000614888602583615151565b91506148938261548a565b604082019050919050565b60006148ab601c83615151565b91506148b6826154d9565b602082019050919050565b60006148ce602483615151565b91506148d982615502565b604082019050919050565b60006148f1601983615151565b91506148fc82615551565b602082019050919050565b6000614914602c83615151565b915061491f8261557a565b604082019050919050565b6000614937603883615151565b9150614942826155c9565b604082019050919050565b600061495a602a83615151565b915061496582615618565b604082019050919050565b600061497d602983615151565b915061498882615667565b604082019050919050565b60006149a0602e83615151565b91506149ab826156b6565b604082019050919050565b60006149c3602083615151565b91506149ce82615705565b602082019050919050565b60006149e6602c83615151565b91506149f18261572e565b604082019050919050565b6000614a09602083615151565b9150614a148261577d565b602082019050919050565b6000614a2c602183615151565b9150614a37826157a6565b604082019050919050565b6000614a4f603183615151565b9150614a5a826157f5565b604082019050919050565b6000614a72602b83615151565b9150614a7d82615844565b604082019050919050565b600061016083016000830151614aa16000860182614673565b506020830151614ab46020860182614673565b5060408301518482036040860152614acc82826147c3565b91505060608301518482036060860152614ae682826147c3565b91505060808301518482036080860152614b008282614691565b91505060a083015184820360a0860152614b1a82826147c3565b91505060c083015184820360c0860152614b3482826147c3565b91505060e083015184820360e0860152614b4e82826147c3565b915050610100830151614b65610100860182614ba1565b50610120830151848203610120860152614b7f82826147c3565b915050610140830151614b96610140860182614ba1565b508091505092915050565b614baa81615256565b82525050565b614bb981615256565b82525050565b6000602082019050614bd46000830184614682565b92915050565b600061014082019050614bf0600083018d614682565b614bfd602083018c614682565b8181036040830152614c0f818b6147fc565b90508181036060830152614c23818a6147fc565b90508181036080830152614c3781896147fc565b905081810360a0830152614c4b81886147fc565b905081810360c0830152614c5f81876147fc565b9050614c6e60e0830186614bb0565b818103610100830152614c8181856147fc565b9050614c91610120830184614bb0565b9b9a5050505050505050505050565b6000608082019050614cb56000830187614682565b614cc26020830186614682565b614ccf6040830185614bb0565b8181036060830152614ce1818461478a565b905095945050505050565b60006020820190508181036000830152614d068184614706565b905092915050565b6000602082019050614d23600083018461477b565b92915050565b60006020820190508181036000830152614d4381846147fc565b905092915050565b60006060820190508181036000830152614d6581866147fc565b90508181036020830152614d7981856147fc565b9050614d886040830184614bb0565b949350505050565b60006020820190508181036000830152614da981614835565b9050919050565b60006020820190508181036000830152614dc981614858565b9050919050565b60006020820190508181036000830152614de98161487b565b9050919050565b60006020820190508181036000830152614e098161489e565b9050919050565b60006020820190508181036000830152614e29816148c1565b9050919050565b60006020820190508181036000830152614e49816148e4565b9050919050565b60006020820190508181036000830152614e6981614907565b9050919050565b60006020820190508181036000830152614e898161492a565b9050919050565b60006020820190508181036000830152614ea98161494d565b9050919050565b60006020820190508181036000830152614ec981614970565b9050919050565b60006020820190508181036000830152614ee981614993565b9050919050565b60006020820190508181036000830152614f09816149b6565b9050919050565b60006020820190508181036000830152614f29816149d9565b9050919050565b60006020820190508181036000830152614f49816149fc565b9050919050565b60006020820190508181036000830152614f6981614a1f565b9050919050565b60006020820190508181036000830152614f8981614a42565b9050919050565b60006020820190508181036000830152614fa981614a65565b9050919050565b6000602082019050614fc56000830184614bb0565b92915050565b6000604082019050614fe06000830185614bb0565b614fed6020830184614bb0565b9392505050565b6000614ffe61500f565b905061500a82826152d4565b919050565b6000604051905090565b600067ffffffffffffffff821115615034576150336153ac565b5b602082029050602081019050919050565b600067ffffffffffffffff8211156150605761505f6153ac565b5b615069826153db565b9050602081019050919050565b600067ffffffffffffffff821115615091576150906153ac565b5b61509a826153db565b9050602081019050919050565b6000819050602082019050919050565b6000819050602082019050919050565b600081519050919050565b600081519050919050565b600081519050919050565b600081519050919050565b6000602082019050919050565b6000602082019050919050565b600082825260208201905092915050565b600082825260208201905092915050565b600082825260208201905092915050565b600082825260208201905092915050565b600082825260208201905092915050565b600061516d82615256565b915061517883615256565b9250827fffffffffffffffffffffffffffffffffffffffffffffffffffffffffffffffff038211156151ad576151ac61534e565b5b828201905092915050565b60006151c382615256565b91506151ce83615256565b9250828210156151e1576151e061534e565b5b828203905092915050565b60006151f782615236565b9050919050565b60008115159050919050565b60007fffffffff0000000000000000000000000000000000000000000000000000000082169050919050565b600073ffffffffffffffffffffffffffffffffffffffff82169050919050565b6000819050919050565b82818337600083830152505050565b60005b8381101561528d578082015181840152602081019050615272565b8381111561529c576000848401525b50505050565b600060028204905060018216806152ba57607f821691505b602082108114156152ce576152cd61537d565b5b50919050565b6152dd826153db565b810181811067ffffffffffffffff821117156152fc576152fb6153ac565b5b80604052505050565b600061531082615256565b91507fffffffffffffffffffffffffffffffffffffffffffffffffffffffffffffffff8214156153435761534261534e565b5b600182019050919050565b7f4e487b7100000000000000000000000000000000000000000000000000000000600052601160045260246000fd5b7f4e487b7100000000000000000000000000000000000000000000000000000000600052602260045260246000fd5b7f4e487b7100000000000000000000000000000000000000000000000000000000600052604160045260246000fd5b6000601f19601f8301169050919050565b7f4552433732313a207472616e7366657220746f206e6f6e20455243373231526560008201527f63656976657220696d706c656d656e7465720000000000000000000000000000602082015250565b7f4f776e61626c653a206e6577206f776e657220697320746865207a65726f206160008201527f6464726573730000000000000000000000000000000000000000000000000000602082015250565b7f4552433732313a207472616e736665722066726f6d20696e636f72726563742060008201527f6f776e6572000000000000000000000000000000000000000000000000000000602082015250565b7f4552433732313a20746f6b656e20616c7265616479206d696e74656400000000600082015250565b7f4552433732313a207472616e7366657220746f20746865207a65726f2061646460008201527f7265737300000000000000000000000000000000000000000000000000000000602082015250565b7f4552433732313a20617070726f766520746f2063616c6c657200000000000000600082015250565b7f4552433732313a206f70657261746f7220717565727920666f72206e6f6e657860008201527f697374656e7420746f6b656e0000000000000000000000000000000000000000602082015250565b7f4552433732313a20617070726f76652063616c6c6572206973206e6f74206f7760008201527f6e6572206e6f7220617070726f76656420666f7220616c6c0000000000000000602082015250565b7f4552433732313a2062616c616e636520717565727920666f7220746865207a6560008201527f726f206164647265737300000000000000000000000000000000000000000000602082015250565b7f4552433732313a206f776e657220717565727920666f72206e6f6e657869737460008201527f656e7420746f6b656e0000000000000000000000000000000000000000000000602082015250565b7f496e697469616c697a61626c653a20636f6e747261637420697320616c72656160008201527f647920696e697469616c697a6564000000000000000000000000000000000000602082015250565b7f4552433732313a206d696e7420746f20746865207a65726f2061646472657373600082015250565b7f4552433732313a20617070726f76656420717565727920666f72206e6f6e657860008201527f697374656e7420746f6b656e0000000000000000000000000000000000000000602082015250565b7f4f776e61626c653a2063616c6c6572206973206e6f7420746865206f776e6572600082015250565b7f4552433732313a20617070726f76616c20746f2063757272656e74206f776e6560008201527f7200000000000000000000000000000000000000000000000000000000000000602082015250565b7f4552433732313a207472616e736665722063616c6c6572206973206e6f74206f60008201527f776e6572206e6f7220617070726f766564000000000000000000000000000000602082015250565b7f496e697469616c697a61626c653a20636f6e7472616374206973206e6f74206960008201527f6e697469616c697a696e67000000000000000000000000000000000000000000602082015250565b61589c816151ec565b81146158a757600080fd5b50565b6158b3816151fe565b81146158be57600080fd5b50565b6158ca8161520a565b81146158d557600080fd5b50565b6158e181615256565b81146158ec57600080fd5b5056fe2a2a2a2a2a2a4d696e746564202573204e465420772f20746f6b656e4964202573202a2a2a2a2a2aa2646970667358221220c5728c4b5b9c9aa295fda63fcdea6e362827b340909ae1e86a32b3d94edf330064736f6c63430008040033",
  "linkReferences": {},
  "deployedLinkReferences": {}
}