{
  "_format": "hh-sol-artifact-1",
  "contractName": "Phlote",
  "sourceName": "contracts/Phlote.sol",
  "abi": [
    {
      "anonymous": false,
      "inputs": [
        {
          "indexed": true,
          "internalType": "address",
          "name": "owner",
          "type": "address"
        },
        {
          "indexed": true,
          "internalType": "address",
          "name": "approved",
          "type": "address"
        },
        {
          "indexed": true,
          "internalType": "uint256",
          "name": "tokenId",
          "type": "uint256"
        }
      ],
      "name": "Approval",
      "type": "event"
    },
    {
      "anonymous": false,
      "inputs": [
        {
          "indexed": true,
          "internalType": "address",
          "name": "owner",
          "type": "address"
        },
        {
          "indexed": true,
          "internalType": "address",
          "name": "operator",
          "type": "address"
        },
        {
          "indexed": false,
          "internalType": "bool",
          "name": "approved",
          "type": "bool"
        }
      ],
      "name": "ApprovalForAll",
      "type": "event"
    },
    {
      "anonymous": false,
      "inputs": [
        {
          "indexed": false,
          "internalType": "address",
          "name": "cosigner",
          "type": "address"
        },
        {
          "indexed": true,
          "internalType": "uint256",
          "name": "editionId",
          "type": "uint256"
        }
      ],
      "name": "EditionCosigned",
      "type": "event"
    },
    {
      "anonymous": false,
      "inputs": [
        {
          "indexed": false,
          "internalType": "address",
          "name": "sender",
          "type": "address"
        },
        {
          "indexed": true,
          "internalType": "uint256",
          "name": "editionId",
          "type": "uint256"
        }
      ],
      "name": "EditionCreated",
      "type": "event"
    },
    {
      "anonymous": false,
      "inputs": [
        {
          "indexed": true,
          "internalType": "address",
          "name": "buyer",
          "type": "address"
        },
        {
          "indexed": false,
          "internalType": "uint256",
          "name": "tokenId",
          "type": "uint256"
        },
        {
          "indexed": false,
          "internalType": "uint256",
          "name": "numSold",
          "type": "uint256"
        }
      ],
      "name": "EditionMinted",
      "type": "event"
    },
    {
      "anonymous": false,
      "inputs": [
        {
          "indexed": true,
          "internalType": "address",
          "name": "previousOwner",
          "type": "address"
        },
        {
          "indexed": true,
          "internalType": "address",
          "name": "newOwner",
          "type": "address"
        }
      ],
      "name": "OwnershipTransferred",
      "type": "event"
    },
    {
      "anonymous": false,
      "inputs": [
        {
          "indexed": true,
          "internalType": "address",
          "name": "from",
          "type": "address"
        },
        {
          "indexed": true,
          "internalType": "address",
          "name": "to",
          "type": "address"
        },
        {
          "indexed": true,
          "internalType": "uint256",
          "name": "tokenId",
          "type": "uint256"
        }
      ],
      "name": "Transfer",
      "type": "event"
    },
    {
      "inputs": [
        {
          "internalType": "address",
          "name": "to",
          "type": "address"
        },
        {
          "internalType": "uint256",
          "name": "tokenId",
          "type": "uint256"
        }
      ],
      "name": "approve",
      "outputs": [],
      "stateMutability": "nonpayable",
      "type": "function"
    },
    {
      "inputs": [
        {
          "internalType": "address",
          "name": "owner",
          "type": "address"
        }
      ],
      "name": "balanceOf",
      "outputs": [
        {
          "internalType": "uint256",
          "name": "",
          "type": "uint256"
        }
      ],
      "stateMutability": "view",
      "type": "function"
    },
    {
      "inputs": [],
      "name": "contractPrice",
      "outputs": [
        {
          "internalType": "uint256",
          "name": "",
          "type": "uint256"
        }
      ],
      "stateMutability": "view",
      "type": "function"
    },
    {
      "inputs": [
        {
          "internalType": "uint256",
          "name": "editionId",
          "type": "uint256"
        }
      ],
      "name": "cosign",
      "outputs": [],
      "stateMutability": "payable",
      "type": "function"
    },
    {
      "inputs": [
        {
          "internalType": "address",
          "name": "",
          "type": "address"
        },
        {
          "internalType": "uint256",
          "name": "",
          "type": "uint256"
        }
      ],
      "name": "curatorHasCosigned",
      "outputs": [
        {
          "internalType": "bool",
          "name": "",
          "type": "bool"
        }
      ],
      "stateMutability": "view",
      "type": "function"
    },
    {
      "inputs": [
        {
          "internalType": "address",
          "name": "",
          "type": "address"
        },
        {
          "internalType": "uint256",
          "name": "",
          "type": "uint256"
        }
      ],
      "name": "curatorSubmissions",
      "outputs": [
        {
          "internalType": "uint256",
          "name": "id",
          "type": "uint256"
        },
        {
          "internalType": "address",
          "name": "curatorWallet",
          "type": "address"
        },
        {
          "internalType": "address",
          "name": "artistWallet",
          "type": "address"
        },
        {
          "internalType": "string",
          "name": "mediaURI",
          "type": "string"
        },
        {
          "internalType": "string",
          "name": "marketplace",
          "type": "string"
        },
        {
          "internalType": "string",
          "name": "artistName",
          "type": "string"
        },
        {
          "internalType": "string",
          "name": "mediaType",
          "type": "string"
        },
        {
          "internalType": "string",
          "name": "mediaTitle",
          "type": "string"
        },
        {
          "internalType": "uint256",
          "name": "numSold",
          "type": "uint256"
        },
        {
          "internalType": "string",
          "name": "tokenURI",
          "type": "string"
        },
        {
          "internalType": "uint256",
          "name": "submissionTime",
          "type": "uint256"
        }
      ],
      "stateMutability": "view",
      "type": "function"
    },
    {
      "inputs": [
        {
          "internalType": "uint256",
          "name": "",
          "type": "uint256"
        },
        {
          "internalType": "uint256",
          "name": "",
          "type": "uint256"
        }
      ],
      "name": "editionIdToCosigns",
      "outputs": [
        {
          "internalType": "address",
          "name": "",
          "type": "address"
        }
      ],
      "stateMutability": "view",
      "type": "function"
    },
    {
      "inputs": [
        {
          "internalType": "uint256",
          "name": "",
          "type": "uint256"
        }
      ],
      "name": "editions",
      "outputs": [
        {
          "internalType": "uint256",
          "name": "id",
          "type": "uint256"
        },
        {
          "internalType": "address",
          "name": "curatorWallet",
          "type": "address"
        },
        {
          "internalType": "address",
          "name": "artistWallet",
          "type": "address"
        },
        {
          "internalType": "string",
          "name": "mediaURI",
          "type": "string"
        },
        {
          "internalType": "string",
          "name": "marketplace",
          "type": "string"
        },
        {
          "internalType": "string",
          "name": "artistName",
          "type": "string"
        },
        {
          "internalType": "string",
          "name": "mediaType",
          "type": "string"
        },
        {
          "internalType": "string",
          "name": "mediaTitle",
          "type": "string"
        },
        {
          "internalType": "uint256",
          "name": "numSold",
          "type": "uint256"
        },
        {
          "internalType": "string",
          "name": "tokenURI",
          "type": "string"
        },
        {
          "internalType": "uint256",
          "name": "submissionTime",
          "type": "uint256"
        }
      ],
      "stateMutability": "view",
      "type": "function"
    },
    {
      "inputs": [],
      "name": "getAllCurations",
      "outputs": [
        {
          "components": [
            {
              "internalType": "uint256",
              "name": "id",
              "type": "uint256"
            },
            {
              "internalType": "address",
              "name": "curatorWallet",
              "type": "address"
            },
            {
              "internalType": "address",
              "name": "artistWallet",
              "type": "address"
            },
            {
              "internalType": "string",
              "name": "mediaURI",
              "type": "string"
            },
            {
              "internalType": "string",
              "name": "marketplace",
              "type": "string"
            },
            {
              "internalType": "string[]",
              "name": "tags",
              "type": "string[]"
            },
            {
              "internalType": "string",
              "name": "artistName",
              "type": "string"
            },
            {
              "internalType": "string",
              "name": "mediaType",
              "type": "string"
            },
            {
              "internalType": "string",
              "name": "mediaTitle",
              "type": "string"
            },
            {
              "internalType": "uint256",
              "name": "numSold",
              "type": "uint256"
            },
            {
              "internalType": "string",
              "name": "tokenURI",
              "type": "string"
            },
            {
              "internalType": "uint256",
              "name": "submissionTime",
              "type": "uint256"
            }
          ],
          "internalType": "struct Phlote.Edition[]",
          "name": "",
          "type": "tuple[]"
        }
      ],
      "stateMutability": "view",
      "type": "function"
    },
    {
      "inputs": [
        {
          "internalType": "uint256",
          "name": "tokenId",
          "type": "uint256"
        }
      ],
      "name": "getApproved",
      "outputs": [
        {
          "internalType": "address",
          "name": "",
          "type": "address"
        }
      ],
      "stateMutability": "view",
      "type": "function"
    },
    {
      "inputs": [
        {
          "internalType": "uint256",
          "name": "editionId",
          "type": "uint256"
        }
      ],
      "name": "getCosigns",
      "outputs": [
        {
          "internalType": "address[]",
          "name": "",
          "type": "address[]"
        }
      ],
      "stateMutability": "view",
      "type": "function"
    },
    {
      "inputs": [
        {
          "internalType": "address",
          "name": "_curatorWallet",
          "type": "address"
        }
      ],
      "name": "getCuratorSubmissions",
      "outputs": [
        {
          "components": [
            {
              "internalType": "uint256",
              "name": "id",
              "type": "uint256"
            },
            {
              "internalType": "address",
              "name": "curatorWallet",
              "type": "address"
            },
            {
              "internalType": "address",
              "name": "artistWallet",
              "type": "address"
            },
            {
              "internalType": "string",
              "name": "mediaURI",
              "type": "string"
            },
            {
              "internalType": "string",
              "name": "marketplace",
              "type": "string"
            },
            {
              "internalType": "string[]",
              "name": "tags",
              "type": "string[]"
            },
            {
              "internalType": "string",
              "name": "artistName",
              "type": "string"
            },
            {
              "internalType": "string",
              "name": "mediaType",
              "type": "string"
            },
            {
              "internalType": "string",
              "name": "mediaTitle",
              "type": "string"
            },
            {
              "internalType": "uint256",
              "name": "numSold",
              "type": "uint256"
            },
            {
              "internalType": "string",
              "name": "tokenURI",
              "type": "string"
            },
            {
              "internalType": "uint256",
              "name": "submissionTime",
              "type": "uint256"
            }
          ],
          "internalType": "struct Phlote.Edition[]",
          "name": "",
          "type": "tuple[]"
        }
      ],
      "stateMutability": "view",
      "type": "function"
    },
    {
      "inputs": [],
      "name": "initialize",
      "outputs": [],
      "stateMutability": "nonpayable",
      "type": "function"
    },
    {
      "inputs": [
        {
          "internalType": "address",
          "name": "owner",
          "type": "address"
        },
        {
          "internalType": "address",
          "name": "operator",
          "type": "address"
        }
      ],
      "name": "isApprovedForAll",
      "outputs": [
        {
          "internalType": "bool",
          "name": "",
          "type": "bool"
        }
      ],
      "stateMutability": "view",
      "type": "function"
    },
    {
      "inputs": [
        {
          "internalType": "uint256",
          "name": "editionId",
          "type": "uint256"
        }
      ],
      "name": "mintEdition",
      "outputs": [],
      "stateMutability": "payable",
      "type": "function"
    },
    {
      "inputs": [],
      "name": "name",
      "outputs": [
        {
          "internalType": "string",
          "name": "",
          "type": "string"
        }
      ],
      "stateMutability": "view",
      "type": "function"
    },
    {
      "inputs": [
        {
          "internalType": "address",
          "name": "",
          "type": "address"
        }
      ],
      "name": "nftHolders",
      "outputs": [
        {
          "internalType": "uint256",
          "name": "",
          "type": "uint256"
        }
      ],
      "stateMutability": "view",
      "type": "function"
    },
    {
      "inputs": [],
      "name": "owner",
      "outputs": [
        {
          "internalType": "address",
          "name": "",
          "type": "address"
        }
      ],
      "stateMutability": "view",
      "type": "function"
    },
    {
      "inputs": [
        {
          "internalType": "uint256",
          "name": "tokenId",
          "type": "uint256"
        }
      ],
      "name": "ownerOf",
      "outputs": [
        {
          "internalType": "address",
          "name": "",
          "type": "address"
        }
      ],
      "stateMutability": "view",
      "type": "function"
    },
    {
      "inputs": [],
      "name": "renounceOwnership",
      "outputs": [],
      "stateMutability": "nonpayable",
      "type": "function"
    },
    {
      "inputs": [
        {
          "internalType": "address",
          "name": "from",
          "type": "address"
        },
        {
          "internalType": "address",
          "name": "to",
          "type": "address"
        },
        {
          "internalType": "uint256",
          "name": "tokenId",
          "type": "uint256"
        }
      ],
      "name": "safeTransferFrom",
      "outputs": [],
      "stateMutability": "nonpayable",
      "type": "function"
    },
    {
      "inputs": [
        {
          "internalType": "address",
          "name": "from",
          "type": "address"
        },
        {
          "internalType": "address",
          "name": "to",
          "type": "address"
        },
        {
          "internalType": "uint256",
          "name": "tokenId",
          "type": "uint256"
        },
        {
          "internalType": "bytes",
          "name": "_data",
          "type": "bytes"
        }
      ],
      "name": "safeTransferFrom",
      "outputs": [],
      "stateMutability": "nonpayable",
      "type": "function"
    },
    {
      "inputs": [
        {
          "internalType": "address",
          "name": "operator",
          "type": "address"
        },
        {
          "internalType": "bool",
          "name": "approved",
          "type": "bool"
        }
      ],
      "name": "setApprovalForAll",
      "outputs": [],
      "stateMutability": "nonpayable",
      "type": "function"
    },
    {
      "inputs": [
        {
          "internalType": "address",
          "name": "_curatorWallet",
          "type": "address"
        },
        {
          "internalType": "string",
          "name": "_mediaURI",
          "type": "string"
        },
        {
          "internalType": "string",
          "name": "_marketplace",
          "type": "string"
        },
        {
          "internalType": "string[]",
          "name": "_tags",
          "type": "string[]"
        },
        {
          "internalType": "string",
          "name": "_artistName",
          "type": "string"
        },
        {
          "internalType": "address",
          "name": "_artistWallet",
          "type": "address"
        },
        {
          "internalType": "string",
          "name": "_mediaType",
          "type": "string"
        },
        {
          "internalType": "string",
          "name": "_mediaTitle",
          "type": "string"
        },
        {
          "internalType": "string",
          "name": "_tokenURI",
          "type": "string"
        }
      ],
      "name": "submitPost",
      "outputs": [],
      "stateMutability": "nonpayable",
      "type": "function"
    },
    {
      "inputs": [
        {
          "internalType": "bytes4",
          "name": "interfaceId",
          "type": "bytes4"
        }
      ],
      "name": "supportsInterface",
      "outputs": [
        {
          "internalType": "bool",
          "name": "",
          "type": "bool"
        }
      ],
      "stateMutability": "view",
      "type": "function"
    },
    {
      "inputs": [],
      "name": "symbol",
      "outputs": [
        {
          "internalType": "string",
          "name": "",
          "type": "string"
        }
      ],
      "stateMutability": "view",
      "type": "function"
    },
    {
      "inputs": [
        {
          "internalType": "uint256",
          "name": "",
          "type": "uint256"
        }
      ],
      "name": "tokenToSong",
      "outputs": [
        {
          "internalType": "uint256",
          "name": "",
          "type": "uint256"
        }
      ],
      "stateMutability": "view",
      "type": "function"
    },
    {
      "inputs": [
        {
          "internalType": "uint256",
          "name": "_tokenId",
          "type": "uint256"
        }
      ],
      "name": "tokenURI",
      "outputs": [
        {
          "internalType": "string",
          "name": "",
          "type": "string"
        }
      ],
      "stateMutability": "view",
      "type": "function"
    },
    {
      "inputs": [
        {
          "internalType": "address",
          "name": "from",
          "type": "address"
        },
        {
          "internalType": "address",
          "name": "to",
          "type": "address"
        },
        {
          "internalType": "uint256",
          "name": "tokenId",
          "type": "uint256"
        }
      ],
      "name": "transferFrom",
      "outputs": [],
      "stateMutability": "nonpayable",
      "type": "function"
    },
    {
      "inputs": [
        {
          "internalType": "address",
          "name": "newOwner",
          "type": "address"
        }
      ],
      "name": "transferOwnership",
      "outputs": [],
      "stateMutability": "nonpayable",
      "type": "function"
    },
    {
      "inputs": [
        {
          "internalType": "uint256",
          "name": "",
          "type": "uint256"
        }
      ],
      "name": "withdrawnForEdition",
      "outputs": [
        {
          "internalType": "uint256",
          "name": "",
          "type": "uint256"
        }
      ],
      "stateMutability": "view",
      "type": "function"
    }
  ],
  "bytecode": "0x608060405234801561001057600080fd5b50615ea480620000216000396000f3fe6080604052600436106101d85760003560e01c8063715018a611610102578063a22cb46511610095578063e2b18d3f11610064578063e2b18d3f14610700578063e985e9c51461073d578063f2fde38b1461077a578063fa990ce5146107a3576101d8565b8063a22cb46514610634578063b88d4fde1461065d578063c87b56dd14610686578063d3bb0528146106c3576101d8565b80638129fc1c116100d15780638129fc1c1461059c5780638da5cb5b146105b357806395d89b41146105de57806397e9a0bf14610609576101d8565b8063715018a6146104ef57806379f7e04a146105065780637df124a1146105435780637f504fdf14610580576101d8565b806323b872dd1161017a57806353301ecf1161014957806353301ecf1461040f5780636352211e1461044c5780636b1658541461048957806370a08231146104b2576101d8565b806323b872dd14610339578063279c806e1461036257806342842e0e146103a957806351cc34a4146103d2576101d8565b8063081812fc116101b6578063081812fc14610261578063095ea7b31461029e5780631125c320146102c75780631cfbcd5b1461030e576101d8565b806301ffc9a7146101dd57806305322b741461021a57806306fdde0314610236575b600080fd5b3480156101e957600080fd5b5061020460048036038101906101ff91906148d2565b6107e0565b6040516102119190615079565b60405180910390f35b610234600480360381019061022f9190614924565b6108c2565b005b34801561024257600080fd5b5061024b610a97565b6040516102589190615094565b60405180910390f35b34801561026d57600080fd5b5061028860048036038101906102839190614924565b610b29565b6040516102959190614fce565b60405180910390f35b3480156102aa57600080fd5b506102c560048036038101906102c09190614896565b610bae565b005b3480156102d357600080fd5b506102ee60048036038101906102e99190614896565b610cc6565b6040516103059b9a99989796959493929190615376565b60405180910390f35b34801561031a57600080fd5b506103236110ad565b6040516103309190615057565b60405180910390f35b34801561034557600080fd5b50610360600480360381019061035b9190614622565b61161c565b005b34801561036e57600080fd5b5061038960048036038101906103849190614924565b61167c565b6040516103a09b9a99989796959493929190615376565b60405180910390f35b3480156103b557600080fd5b506103d060048036038101906103cb9190614622565b611a46565b005b3480156103de57600080fd5b506103f960048036038101906103f49190614896565b611a66565b6040516104069190615079565b60405180910390f35b34801561041b57600080fd5b50610436600480360381019061043191906145bd565b611a95565b6040516104439190615057565b60405180910390f35b34801561045857600080fd5b50610473600480360381019061046e9190614924565b612043565b6040516104809190614fce565b60405180910390f35b34801561049557600080fd5b506104b060048036038101906104ab9190614728565b6120f5565b005b3480156104be57600080fd5b506104d960048036038101906104d491906145bd565b612706565b6040516104e6919061535b565b60405180910390f35b3480156104fb57600080fd5b506105046127be565b005b34801561051257600080fd5b5061052d6004803603810190610528919061494d565b612846565b60405161053a9190614fce565b60405180910390f35b34801561054f57600080fd5b5061056a600480360381019061056591906145bd565b612894565b604051610577919061535b565b60405180910390f35b61059a60048036038101906105959190614924565b6128ac565b005b3480156105a857600080fd5b506105b1612aba565b005b3480156105bf57600080fd5b506105c8612c24565b6040516105d59190614fce565b60405180910390f35b3480156105ea57600080fd5b506105f3612c4e565b6040516106009190615094565b60405180910390f35b34801561061557600080fd5b5061061e612ce0565b60405161062b919061535b565b60405180910390f35b34801561064057600080fd5b5061065b600480360381019061065691906146ec565b612ce6565b005b34801561066957600080fd5b50610684600480360381019061067f9190614671565b612cfc565b005b34801561069257600080fd5b506106ad60048036038101906106a89190614924565b612d5e565b6040516106ba9190615094565b60405180910390f35b3480156106cf57600080fd5b506106ea60048036038101906106e59190614924565b6132b3565b6040516106f7919061535b565b60405180910390f35b34801561070c57600080fd5b5061072760048036038101906107229190614924565b6132cb565b604051610734919061535b565b60405180910390f35b34801561074957600080fd5b50610764600480360381019061075f91906145e6565b6132e3565b6040516107719190615079565b60405180910390f35b34801561078657600080fd5b506107a1600480360381019061079c91906145bd565b613377565b005b3480156107af57600080fd5b506107ca60048036038101906107c59190614924565b61346f565b6040516107d79190615035565b60405180910390f35b60007f80ac58cd000000000000000000000000000000000000000000000000000000007bffffffffffffffffffffffffffffffffffffffffffffffffffffffff1916827bffffffffffffffffffffffffffffffffffffffffffffffffffffffff191614806108ab57507f5b5e139f000000000000000000000000000000000000000000000000000000007bffffffffffffffffffffffffffffffffffffffffffffffffffffffff1916827bffffffffffffffffffffffffffffffffffffffffffffffffffffffff1916145b806108bb57506108ba82613510565b5b9050919050565b60006108ce60ca61357a565b90506108da3382613588565b61099b604051806060016040528060288152602001615e476028913960cd600085815260200190815260200160002060080180546109179061575b565b80601f01602080910402602001604051908101604052809291908181526020018280546109439061575b565b80156109905780601f1061096557610100808354040283529160200191610990565b820191906000526020600020905b81548152906001019060200180831161097357829003601f168201915b5050505050836135a6565b8060ce60003373ffffffffffffffffffffffffffffffffffffffff1673ffffffffffffffffffffffffffffffffffffffff168152602001908152602001600020819055506109e960ca613645565b60cd60008381526020019081526020016000206009016000815480929190610a10906157be565b91905055508160d16000838152602001908152602001600020819055503373ffffffffffffffffffffffffffffffffffffffff167fe1b60c9e07632933648666e5ede8b3b329ddfa2ab98c51b1a5b4b22ab4f1349c8260cd600086815260200190815260200160002060090154604051610a8b92919061544b565b60405180910390a25050565b606060658054610aa69061575b565b80601f0160208091040260200160405190810160405280929190818152602001828054610ad29061575b565b8015610b1f5780601f10610af457610100808354040283529160200191610b1f565b820191906000526020600020905b815481529060010190602001808311610b0257829003601f168201915b5050505050905090565b6000610b348261365b565b610b73576040517f08c379a0000000000000000000000000000000000000000000000000000000008152600401610b6a9061529b565b60405180910390fd5b6069600083815260200190815260200160002060009054906101000a900473ffffffffffffffffffffffffffffffffffffffff169050919050565b6000610bb982612043565b90508073ffffffffffffffffffffffffffffffffffffffff168373ffffffffffffffffffffffffffffffffffffffff161415610c2a576040517f08c379a0000000000000000000000000000000000000000000000000000000008152600401610c21906152db565b60405180910390fd5b8073ffffffffffffffffffffffffffffffffffffffff16610c496136c7565b73ffffffffffffffffffffffffffffffffffffffff161480610c785750610c7781610c726136c7565b6132e3565b5b610cb7576040517f08c379a0000000000000000000000000000000000000000000000000000000008152600401610cae906151fb565b60405180910390fd5b610cc183836136cf565b505050565b60cf6020528160005260406000208181548110610ce257600080fd5b90600052602060002090600c0201600091509150508060000154908060010160009054906101000a900473ffffffffffffffffffffffffffffffffffffffff16908060020160009054906101000a900473ffffffffffffffffffffffffffffffffffffffff1690806003018054610d589061575b565b80601f0160208091040260200160405190810160405280929190818152602001828054610d849061575b565b8015610dd15780601f10610da657610100808354040283529160200191610dd1565b820191906000526020600020905b815481529060010190602001808311610db457829003601f168201915b505050505090806004018054610de69061575b565b80601f0160208091040260200160405190810160405280929190818152602001828054610e129061575b565b8015610e5f5780601f10610e3457610100808354040283529160200191610e5f565b820191906000526020600020905b815481529060010190602001808311610e4257829003601f168201915b505050505090806006018054610e749061575b565b80601f0160208091040260200160405190810160405280929190818152602001828054610ea09061575b565b8015610eed5780601f10610ec257610100808354040283529160200191610eed565b820191906000526020600020905b815481529060010190602001808311610ed057829003601f168201915b505050505090806007018054610f029061575b565b80601f0160208091040260200160405190810160405280929190818152602001828054610f2e9061575b565b8015610f7b5780601f10610f5057610100808354040283529160200191610f7b565b820191906000526020600020905b815481529060010190602001808311610f5e57829003601f168201915b505050505090806008018054610f909061575b565b80601f0160208091040260200160405190810160405280929190818152602001828054610fbc9061575b565b80156110095780601f10610fde57610100808354040283529160200191611009565b820191906000526020600020905b815481529060010190602001808311610fec57829003601f168201915b50505050509080600901549080600a0180546110249061575b565b80601f01602080910402602001604051908101604052809291908181526020018280546110509061575b565b801561109d5780601f106110725761010080835404028352916020019161109d565b820191906000526020600020905b81548152906001019060200180831161108057829003601f168201915b50505050509080600b015490508b565b606060cc805480602002602001604051908101604052809291908181526020016000905b8282101561161357838290600052602060002090600c020160405180610180016040529081600082015481526020016001820160009054906101000a900473ffffffffffffffffffffffffffffffffffffffff1673ffffffffffffffffffffffffffffffffffffffff1673ffffffffffffffffffffffffffffffffffffffff1681526020016002820160009054906101000a900473ffffffffffffffffffffffffffffffffffffffff1673ffffffffffffffffffffffffffffffffffffffff1673ffffffffffffffffffffffffffffffffffffffff1681526020016003820180546111bb9061575b565b80601f01602080910402602001604051908101604052809291908181526020018280546111e79061575b565b80156112345780601f1061120957610100808354040283529160200191611234565b820191906000526020600020905b81548152906001019060200180831161121757829003601f168201915b5050505050815260200160048201805461124d9061575b565b80601f01602080910402602001604051908101604052809291908181526020018280546112799061575b565b80156112c65780601f1061129b576101008083540402835291602001916112c6565b820191906000526020600020905b8154815290600101906020018083116112a957829003601f168201915b5050505050815260200160058201805480602002602001604051908101604052809291908181526020016000905b828210156113a05783829060005260206000200180546113139061575b565b80601f016020809104026020016040519081016040528092919081815260200182805461133f9061575b565b801561138c5780601f106113615761010080835404028352916020019161138c565b820191906000526020600020905b81548152906001019060200180831161136f57829003601f168201915b5050505050815260200190600101906112f4565b5050505081526020016006820180546113b89061575b565b80601f01602080910402602001604051908101604052809291908181526020018280546113e49061575b565b80156114315780601f1061140657610100808354040283529160200191611431565b820191906000526020600020905b81548152906001019060200180831161141457829003601f168201915b5050505050815260200160078201805461144a9061575b565b80601f01602080910402602001604051908101604052809291908181526020018280546114769061575b565b80156114c35780601f10611498576101008083540402835291602001916114c3565b820191906000526020600020905b8154815290600101906020018083116114a657829003601f168201915b505050505081526020016008820180546114dc9061575b565b80601f01602080910402602001604051908101604052809291908181526020018280546115089061575b565b80156115555780601f1061152a57610100808354040283529160200191611555565b820191906000526020600020905b81548152906001019060200180831161153857829003601f168201915b5050505050815260200160098201548152602001600a820180546115789061575b565b80601f01602080910402602001604051908101604052809291908181526020018280546115a49061575b565b80156115f15780601f106115c6576101008083540402835291602001916115f1565b820191906000526020600020905b8154815290600101906020018083116115d457829003601f168201915b50505050508152602001600b82015481525050815260200190600101906110d1565b50505050905090565b61162d6116276136c7565b82613788565b61166c576040517f08c379a0000000000000000000000000000000000000000000000000000000008152600401611663906152fb565b60405180910390fd5b611677838383613866565b505050565b60cd6020528060005260406000206000915090508060000154908060010160009054906101000a900473ffffffffffffffffffffffffffffffffffffffff16908060020160009054906101000a900473ffffffffffffffffffffffffffffffffffffffff16908060030180546116f19061575b565b80601f016020809104026020016040519081016040528092919081815260200182805461171d9061575b565b801561176a5780601f1061173f5761010080835404028352916020019161176a565b820191906000526020600020905b81548152906001019060200180831161174d57829003601f168201915b50505050509080600401805461177f9061575b565b80601f01602080910402602001604051908101604052809291908181526020018280546117ab9061575b565b80156117f85780601f106117cd576101008083540402835291602001916117f8565b820191906000526020600020905b8154815290600101906020018083116117db57829003601f168201915b50505050509080600601805461180d9061575b565b80601f01602080910402602001604051908101604052809291908181526020018280546118399061575b565b80156118865780601f1061185b57610100808354040283529160200191611886565b820191906000526020600020905b81548152906001019060200180831161186957829003601f168201915b50505050509080600701805461189b9061575b565b80601f01602080910402602001604051908101604052809291908181526020018280546118c79061575b565b80156119145780601f106118e957610100808354040283529160200191611914565b820191906000526020600020905b8154815290600101906020018083116118f757829003601f168201915b5050505050908060080180546119299061575b565b80601f01602080910402602001604051908101604052809291908181526020018280546119559061575b565b80156119a25780601f10611977576101008083540402835291602001916119a2565b820191906000526020600020905b81548152906001019060200180831161198557829003601f168201915b50505050509080600901549080600a0180546119bd9061575b565b80601f01602080910402602001604051908101604052809291908181526020018280546119e99061575b565b8015611a365780601f10611a0b57610100808354040283529160200191611a36565b820191906000526020600020905b815481529060010190602001808311611a1957829003601f168201915b50505050509080600b015490508b565b611a6183838360405180602001604052806000815250612cfc565b505050565b60d36020528160005260406000206020528060005260406000206000915091509054906101000a900460ff1681565b606060cf60008373ffffffffffffffffffffffffffffffffffffffff1673ffffffffffffffffffffffffffffffffffffffff168152602001908152602001600020805480602002602001604051908101604052809291908181526020016000905b8282101561203857838290600052602060002090600c020160405180610180016040529081600082015481526020016001820160009054906101000a900473ffffffffffffffffffffffffffffffffffffffff1673ffffffffffffffffffffffffffffffffffffffff1673ffffffffffffffffffffffffffffffffffffffff1681526020016002820160009054906101000a900473ffffffffffffffffffffffffffffffffffffffff1673ffffffffffffffffffffffffffffffffffffffff1673ffffffffffffffffffffffffffffffffffffffff168152602001600382018054611be09061575b565b80601f0160208091040260200160405190810160405280929190818152602001828054611c0c9061575b565b8015611c595780601f10611c2e57610100808354040283529160200191611c59565b820191906000526020600020905b815481529060010190602001808311611c3c57829003601f168201915b50505050508152602001600482018054611c729061575b565b80601f0160208091040260200160405190810160405280929190818152602001828054611c9e9061575b565b8015611ceb5780601f10611cc057610100808354040283529160200191611ceb565b820191906000526020600020905b815481529060010190602001808311611cce57829003601f168201915b5050505050815260200160058201805480602002602001604051908101604052809291908181526020016000905b82821015611dc5578382906000526020600020018054611d389061575b565b80601f0160208091040260200160405190810160405280929190818152602001828054611d649061575b565b8015611db15780601f10611d8657610100808354040283529160200191611db1565b820191906000526020600020905b815481529060010190602001808311611d9457829003601f168201915b505050505081526020019060010190611d19565b505050508152602001600682018054611ddd9061575b565b80601f0160208091040260200160405190810160405280929190818152602001828054611e099061575b565b8015611e565780601f10611e2b57610100808354040283529160200191611e56565b820191906000526020600020905b815481529060010190602001808311611e3957829003601f168201915b50505050508152602001600782018054611e6f9061575b565b80601f0160208091040260200160405190810160405280929190818152602001828054611e9b9061575b565b8015611ee85780601f10611ebd57610100808354040283529160200191611ee8565b820191906000526020600020905b815481529060010190602001808311611ecb57829003601f168201915b50505050508152602001600882018054611f019061575b565b80601f0160208091040260200160405190810160405280929190818152602001828054611f2d9061575b565b8015611f7a5780601f10611f4f57610100808354040283529160200191611f7a565b820191906000526020600020905b815481529060010190602001808311611f5d57829003601f168201915b5050505050815260200160098201548152602001600a82018054611f9d9061575b565b80601f0160208091040260200160405190810160405280929190818152602001828054611fc99061575b565b80156120165780601f10611feb57610100808354040283529160200191612016565b820191906000526020600020905b815481529060010190602001808311611ff957829003601f168201915b50505050508152602001600b8201548152505081526020019060010190611af6565b505050509050919050565b6000806067600084815260200190815260200160002060009054906101000a900473ffffffffffffffffffffffffffffffffffffffff169050600073ffffffffffffffffffffffffffffffffffffffff168173ffffffffffffffffffffffffffffffffffffffff1614156120ec576040517f08c379a00000000000000000000000000000000000000000000000000000000081526004016120e39061523b565b60405180910390fd5b80915050919050565b600060405180610180016040528060cb5481526020018b73ffffffffffffffffffffffffffffffffffffffff1681526020018673ffffffffffffffffffffffffffffffffffffffff1681526020018a81526020018981526020018881526020018781526020018581526020018481526020016000815260200183815260200142815250905060cc8190806001815401808255809150506001900390600052602060002090600c02016000909190919091506000820151816000015560208201518160010160006101000a81548173ffffffffffffffffffffffffffffffffffffffff021916908373ffffffffffffffffffffffffffffffffffffffff16021790555060408201518160020160006101000a81548173ffffffffffffffffffffffffffffffffffffffff021916908373ffffffffffffffffffffffffffffffffffffffff160217905550606082015181600301908051906020019061225a92919061426d565b50608082015181600401908051906020019061227792919061426d565b5060a08201518160050190805190602001906122949291906142f3565b5060c08201518160060190805190602001906122b192919061426d565b5060e08201518160070190805190602001906122ce92919061426d565b506101008201518160080190805190602001906122ec92919061426d565b50610120820151816009015561014082015181600a01908051906020019061231592919061426d565b5061016082015181600b015550508060cd600060cb5481526020019081526020016000206000820151816000015560208201518160010160006101000a81548173ffffffffffffffffffffffffffffffffffffffff021916908373ffffffffffffffffffffffffffffffffffffffff16021790555060408201518160020160006101000a81548173ffffffffffffffffffffffffffffffffffffffff021916908373ffffffffffffffffffffffffffffffffffffffff16021790555060608201518160030190805190602001906123ed92919061426d565b50608082015181600401908051906020019061240a92919061426d565b5060a08201518160050190805190602001906124279291906142f3565b5060c082015181600601908051906020019061244492919061426d565b5060e082015181600701908051906020019061246192919061426d565b5061010082015181600801908051906020019061247f92919061426d565b50610120820151816009015561014082015181600a0190805190602001906124a892919061426d565b5061016082015181600b015590505060cf60008b73ffffffffffffffffffffffffffffffffffffffff1673ffffffffffffffffffffffffffffffffffffffff1681526020019081526020016000208190806001815401808255809150506001900390600052602060002090600c02016000909190919091506000820151816000015560208201518160010160006101000a81548173ffffffffffffffffffffffffffffffffffffffff021916908373ffffffffffffffffffffffffffffffffffffffff16021790555060408201518160020160006101000a81548173ffffffffffffffffffffffffffffffffffffffff021916908373ffffffffffffffffffffffffffffffffffffffff16021790555060608201518160030190805190602001906125d492919061426d565b5060808201518160040190805190602001906125f192919061426d565b5060a082015181600501908051906020019061260e9291906142f3565b5060c082015181600601908051906020019061262b92919061426d565b5060e082015181600701908051906020019061264892919061426d565b5061010082015181600801908051906020019061266692919061426d565b50610120820151816009015561014082015181600a01908051906020019061268f92919061426d565b5061016082015181600b0155505060cb547fa1cd98301e2a758f45871102b368fdcf3f56e13f8e8fd2886523ac87ca066ce0336040516126cf9190614fce565b60405180910390a26126e260cb546108c2565b60cb60008154809291906126f5906157be565b919050555050505050505050505050565b60008073ffffffffffffffffffffffffffffffffffffffff168273ffffffffffffffffffffffffffffffffffffffff161415612777576040517f08c379a000000000000000000000000000000000000000000000000000000000815260040161276e9061521b565b60405180910390fd5b606860008373ffffffffffffffffffffffffffffffffffffffff1673ffffffffffffffffffffffffffffffffffffffff168152602001908152602001600020549050919050565b6127c66136c7565b73ffffffffffffffffffffffffffffffffffffffff166127e4612c24565b73ffffffffffffffffffffffffffffffffffffffff161461283a576040517f08c379a0000000000000000000000000000000000000000000000000000000008152600401612831906152bb565b60405180910390fd5b6128446000613acd565b565b60d2602052816000526040600020818154811061286257600080fd5b906000526020600020016000915091509054906101000a900473ffffffffffffffffffffffffffffffffffffffff1681565b60ce6020528060005260406000206000915090505481565b600560d260008381526020019081526020016000208054905010612905576040517f08c379a00000000000000000000000000000000000000000000000000000000081526004016128fc906151db565b60405180910390fd5b60d360003373ffffffffffffffffffffffffffffffffffffffff1673ffffffffffffffffffffffffffffffffffffffff168152602001908152602001600020600082815260200190815260200160002060009054906101000a900460ff166129a2576040517f08c379a00000000000000000000000000000000000000000000000000000000081526004016129999061531b565b60405180910390fd5b60d26000828152602001908152602001600020339080600181540180825580915050600190039060005260206000200160009091909190916101000a81548173ffffffffffffffffffffffffffffffffffffffff021916908373ffffffffffffffffffffffffffffffffffffffff160217905550600160d360003373ffffffffffffffffffffffffffffffffffffffff1673ffffffffffffffffffffffffffffffffffffffff168152602001908152602001600020600083815260200190815260200160002060006101000a81548160ff021916908315150217905550807f415c5c8a626ad1819c82e5a7dc9b2dc5a12dd6cbd6c063f565d47aaa852d761633604051612aaf9190614fce565b60405180910390a250565b600060019054906101000a900460ff16612ae25760008054906101000a900460ff1615612aeb565b612aea613b93565b5b612b2a576040517f08c379a0000000000000000000000000000000000000000000000000000000008152600401612b219061525b565b60405180910390fd5b60008060019054906101000a900460ff161590508015612b7a576001600060016101000a81548160ff02191690831515021790555060016000806101000a81548160ff0219169083151502179055505b612b8460ca613645565b600160cb81905550612c006040518060400160405280600f81526020017f50686c6f7465204375726174696f6e00000000000000000000000000000000008152506040518060400160405280600681526020017f50484c4f54450000000000000000000000000000000000000000000000000000815250613ba4565b8015612c215760008060016101000a81548160ff0219169083151502179055505b50565b6000609760009054906101000a900473ffffffffffffffffffffffffffffffffffffffff16905090565b606060668054612c5d9061575b565b80601f0160208091040260200160405190810160405280929190818152602001828054612c899061575b565b8015612cd65780601f10612cab57610100808354040283529160200191612cd6565b820191906000526020600020905b815481529060010190602001808311612cb957829003601f168201915b5050505050905090565b60c95481565b612cf8612cf16136c7565b8383613c01565b5050565b612d0d612d076136c7565b83613788565b612d4c576040517f08c379a0000000000000000000000000000000000000000000000000000000008152600401612d43906152fb565b60405180910390fd5b612d5884848484613d6e565b50505050565b6060600060cd600060d1600086815260200190815260200160002054815260200190815260200160002060405180610180016040529081600082015481526020016001820160009054906101000a900473ffffffffffffffffffffffffffffffffffffffff1673ffffffffffffffffffffffffffffffffffffffff1673ffffffffffffffffffffffffffffffffffffffff1681526020016002820160009054906101000a900473ffffffffffffffffffffffffffffffffffffffff1673ffffffffffffffffffffffffffffffffffffffff1673ffffffffffffffffffffffffffffffffffffffff168152602001600382018054612e5a9061575b565b80601f0160208091040260200160405190810160405280929190818152602001828054612e869061575b565b8015612ed35780601f10612ea857610100808354040283529160200191612ed3565b820191906000526020600020905b815481529060010190602001808311612eb657829003601f168201915b50505050508152602001600482018054612eec9061575b565b80601f0160208091040260200160405190810160405280929190818152602001828054612f189061575b565b8015612f655780601f10612f3a57610100808354040283529160200191612f65565b820191906000526020600020905b815481529060010190602001808311612f4857829003601f168201915b5050505050815260200160058201805480602002602001604051908101604052809291908181526020016000905b8282101561303f578382906000526020600020018054612fb29061575b565b80601f0160208091040260200160405190810160405280929190818152602001828054612fde9061575b565b801561302b5780601f106130005761010080835404028352916020019161302b565b820191906000526020600020905b81548152906001019060200180831161300e57829003601f168201915b505050505081526020019060010190612f93565b5050505081526020016006820180546130579061575b565b80601f01602080910402602001604051908101604052809291908181526020018280546130839061575b565b80156130d05780601f106130a5576101008083540402835291602001916130d0565b820191906000526020600020905b8154815290600101906020018083116130b357829003601f168201915b505050505081526020016007820180546130e99061575b565b80601f01602080910402602001604051908101604052809291908181526020018280546131159061575b565b80156131625780601f1061313757610100808354040283529160200191613162565b820191906000526020600020905b81548152906001019060200180831161314557829003601f168201915b5050505050815260200160088201805461317b9061575b565b80601f01602080910402602001604051908101604052809291908181526020018280546131a79061575b565b80156131f45780601f106131c9576101008083540402835291602001916131f4565b820191906000526020600020905b8154815290600101906020018083116131d757829003601f168201915b5050505050815260200160098201548152602001600a820180546132179061575b565b80601f01602080910402602001604051908101604052809291908181526020018280546132439061575b565b80156132905780601f1061326557610100808354040283529160200191613290565b820191906000526020600020905b81548152906001019060200180831161327357829003601f168201915b50505050508152602001600b820154815250509050806101400151915050919050565b60d06020528060005260406000206000915090505481565b60d16020528060005260406000206000915090505481565b6000606a60008473ffffffffffffffffffffffffffffffffffffffff1673ffffffffffffffffffffffffffffffffffffffff16815260200190815260200160002060008373ffffffffffffffffffffffffffffffffffffffff1673ffffffffffffffffffffffffffffffffffffffff16815260200190815260200160002060009054906101000a900460ff16905092915050565b61337f6136c7565b73ffffffffffffffffffffffffffffffffffffffff1661339d612c24565b73ffffffffffffffffffffffffffffffffffffffff16146133f3576040517f08c379a00000000000000000000000000000000000000000000000000000000081526004016133ea906152bb565b60405180910390fd5b600073ffffffffffffffffffffffffffffffffffffffff168173ffffffffffffffffffffffffffffffffffffffff161415613463576040517f08c379a000000000000000000000000000000000000000000000000000000000815260040161345a9061511b565b60405180910390fd5b61346c81613acd565b50565b606060d2600083815260200190815260200160002080548060200260200160405190810160405280929190818152602001828054801561350457602002820191906000526020600020905b8160009054906101000a900473ffffffffffffffffffffffffffffffffffffffff1673ffffffffffffffffffffffffffffffffffffffff16815260200190600101908083116134ba575b50505050509050919050565b60007f01ffc9a7000000000000000000000000000000000000000000000000000000007bffffffffffffffffffffffffffffffffffffffffffffffffffffffff1916827bffffffffffffffffffffffffffffffffffffffffffffffffffffffff1916149050919050565b600081600001549050919050565b6135a2828260405180602001604052806000815250613dca565b5050565b6136408383836040516024016135be939291906150b6565b6040516020818303038152906040527ff362ca59000000000000000000000000000000000000000000000000000000007bffffffffffffffffffffffffffffffffffffffffffffffffffffffff19166020820180517bffffffffffffffffffffffffffffffffffffffffffffffffffffffff8381831617835250505050613e25565b505050565b6001816000016000828254019250508190555050565b60008073ffffffffffffffffffffffffffffffffffffffff166067600084815260200190815260200160002060009054906101000a900473ffffffffffffffffffffffffffffffffffffffff1673ffffffffffffffffffffffffffffffffffffffff1614159050919050565b600033905090565b816069600083815260200190815260200160002060006101000a81548173ffffffffffffffffffffffffffffffffffffffff021916908373ffffffffffffffffffffffffffffffffffffffff160217905550808273ffffffffffffffffffffffffffffffffffffffff1661374283612043565b73ffffffffffffffffffffffffffffffffffffffff167f8c5be1e5ebec7d5bd14f71427d1e84f3dd0314c0f7b2291e5b200ac8c7c3b92560405160405180910390a45050565b60006137938261365b565b6137d2576040517f08c379a00000000000000000000000000000000000000000000000000000000081526004016137c9906151bb565b60405180910390fd5b60006137dd83612043565b90508073ffffffffffffffffffffffffffffffffffffffff168473ffffffffffffffffffffffffffffffffffffffff16148061384c57508373ffffffffffffffffffffffffffffffffffffffff1661383484610b29565b73ffffffffffffffffffffffffffffffffffffffff16145b8061385d575061385c81856132e3565b5b91505092915050565b8273ffffffffffffffffffffffffffffffffffffffff1661388682612043565b73ffffffffffffffffffffffffffffffffffffffff16146138dc576040517f08c379a00000000000000000000000000000000000000000000000000000000081526004016138d39061513b565b60405180910390fd5b600073ffffffffffffffffffffffffffffffffffffffff168273ffffffffffffffffffffffffffffffffffffffff16141561394c576040517f08c379a00000000000000000000000000000000000000000000000000000000081526004016139439061517b565b60405180910390fd5b613957838383613e4e565b6139626000826136cf565b6001606860008573ffffffffffffffffffffffffffffffffffffffff1673ffffffffffffffffffffffffffffffffffffffff16815260200190815260200160002060008282546139b29190615671565b925050819055506001606860008473ffffffffffffffffffffffffffffffffffffffff1673ffffffffffffffffffffffffffffffffffffffff1681526020019081526020016000206000828254613a09919061561b565b92505081905550816067600083815260200190815260200160002060006101000a81548173ffffffffffffffffffffffffffffffffffffffff021916908373ffffffffffffffffffffffffffffffffffffffff160217905550808273ffffffffffffffffffffffffffffffffffffffff168473ffffffffffffffffffffffffffffffffffffffff167fddf252ad1be2c89b69c2b068fc378daa952ba7f163c4a11628f55a4df523b3ef60405160405180910390a4613ac8838383613e53565b505050565b6000609760009054906101000a900473ffffffffffffffffffffffffffffffffffffffff16905081609760006101000a81548173ffffffffffffffffffffffffffffffffffffffff021916908373ffffffffffffffffffffffffffffffffffffffff1602179055508173ffffffffffffffffffffffffffffffffffffffff168173ffffffffffffffffffffffffffffffffffffffff167f8be0079c531659141344cd1fd0a4f28419497f9722a3daafe3b4186f6b6457e060405160405180910390a35050565b6000613b9e30613e58565b15905090565b600060019054906101000a900460ff16613bf3576040517f08c379a0000000000000000000000000000000000000000000000000000000008152600401613bea9061533b565b60405180910390fd5b613bfd8282613e7b565b5050565b8173ffffffffffffffffffffffffffffffffffffffff168373ffffffffffffffffffffffffffffffffffffffff161415613c70576040517f08c379a0000000000000000000000000000000000000000000000000000000008152600401613c679061519b565b60405180910390fd5b80606a60008573ffffffffffffffffffffffffffffffffffffffff1673ffffffffffffffffffffffffffffffffffffffff16815260200190815260200160002060008473ffffffffffffffffffffffffffffffffffffffff1673ffffffffffffffffffffffffffffffffffffffff16815260200190815260200160002060006101000a81548160ff0219169083151502179055508173ffffffffffffffffffffffffffffffffffffffff168373ffffffffffffffffffffffffffffffffffffffff167f17307eab39ab6107e8899845ad3d59bd9653f200f220920489ca2b5937696c3183604051613d619190615079565b60405180910390a3505050565b613d79848484613866565b613d8584848484613efc565b613dc4576040517f08c379a0000000000000000000000000000000000000000000000000000000008152600401613dbb906150fb565b60405180910390fd5b50505050565b613dd48383614093565b613de16000848484613efc565b613e20576040517f08c379a0000000000000000000000000000000000000000000000000000000008152600401613e17906150fb565b60405180910390fd5b505050565b60008151905060006a636f6e736f6c652e6c6f679050602083016000808483855afa5050505050565b505050565b505050565b6000808273ffffffffffffffffffffffffffffffffffffffff163b119050919050565b600060019054906101000a900460ff16613eca576040517f08c379a0000000000000000000000000000000000000000000000000000000008152600401613ec19061533b565b60405180910390fd5b8160659080519060200190613ee092919061426d565b508060669080519060200190613ef792919061426d565b505050565b6000613f1d8473ffffffffffffffffffffffffffffffffffffffff16613e58565b15614086578373ffffffffffffffffffffffffffffffffffffffff1663150b7a02613f466136c7565b8786866040518563ffffffff1660e01b8152600401613f689493929190614fe9565b602060405180830381600087803b158015613f8257600080fd5b505af1925050508015613fb357506040513d601f19601f82011682018060405250810190613fb091906148fb565b60015b614036573d8060008114613fe3576040519150601f19603f3d011682016040523d82523d6000602084013e613fe8565b606091505b5060008151141561402e576040517f08c379a0000000000000000000000000000000000000000000000000000000008152600401614025906150fb565b60405180910390fd5b805181602001fd5b63150b7a0260e01b7bffffffffffffffffffffffffffffffffffffffffffffffffffffffff1916817bffffffffffffffffffffffffffffffffffffffffffffffffffffffff19161491505061408b565b600190505b949350505050565b600073ffffffffffffffffffffffffffffffffffffffff168273ffffffffffffffffffffffffffffffffffffffff161415614103576040517f08c379a00000000000000000000000000000000000000000000000000000000081526004016140fa9061527b565b60405180910390fd5b61410c8161365b565b1561414c576040517f08c379a00000000000000000000000000000000000000000000000000000000081526004016141439061515b565b60405180910390fd5b61415860008383613e4e565b6001606860008473ffffffffffffffffffffffffffffffffffffffff1673ffffffffffffffffffffffffffffffffffffffff16815260200190815260200160002060008282546141a8919061561b565b92505081905550816067600083815260200190815260200160002060006101000a81548173ffffffffffffffffffffffffffffffffffffffff021916908373ffffffffffffffffffffffffffffffffffffffff160217905550808273ffffffffffffffffffffffffffffffffffffffff16600073ffffffffffffffffffffffffffffffffffffffff167fddf252ad1be2c89b69c2b068fc378daa952ba7f163c4a11628f55a4df523b3ef60405160405180910390a461426960008383613e53565b5050565b8280546142799061575b565b90600052602060002090601f01602090048101928261429b57600085556142e2565b82601f106142b457805160ff19168380011785556142e2565b828001600101855582156142e2579182015b828111156142e15782518255916020019190600101906142c6565b5b5090506142ef9190614353565b5090565b828054828255906000526020600020908101928215614342579160200282015b8281111561434157825182908051906020019061433192919061426d565b5091602001919060010190614313565b5b50905061434f9190614370565b5090565b5b8082111561436c576000816000905550600101614354565b5090565b5b8082111561439057600081816143879190614394565b50600101614371565b5090565b5080546143a09061575b565b6000825580601f106143b257506143d1565b601f0160209004906000526020600020908101906143d09190614353565b5b50565b60006143e76143e284615499565b615474565b9050808382526020820190508285602086028201111561440657600080fd5b60005b8581101561445057813567ffffffffffffffff81111561442857600080fd5b808601614435898261457e565b85526020850194506020840193505050600181019050614409565b5050509392505050565b600061446d614468846154c5565b615474565b90508281526020810184848401111561448557600080fd5b614490848285615719565b509392505050565b60006144ab6144a6846154f6565b615474565b9050828152602081018484840111156144c357600080fd5b6144ce848285615719565b509392505050565b6000813590506144e581615dea565b92915050565b600082601f8301126144fc57600080fd5b813561450c8482602086016143d4565b91505092915050565b60008135905061452481615e01565b92915050565b60008135905061453981615e18565b92915050565b60008151905061454e81615e18565b92915050565b600082601f83011261456557600080fd5b813561457584826020860161445a565b91505092915050565b600082601f83011261458f57600080fd5b813561459f848260208601614498565b91505092915050565b6000813590506145b781615e2f565b92915050565b6000602082840312156145cf57600080fd5b60006145dd848285016144d6565b91505092915050565b600080604083850312156145f957600080fd5b6000614607858286016144d6565b9250506020614618858286016144d6565b9150509250929050565b60008060006060848603121561463757600080fd5b6000614645868287016144d6565b9350506020614656868287016144d6565b9250506040614667868287016145a8565b9150509250925092565b6000806000806080858703121561468757600080fd5b6000614695878288016144d6565b94505060206146a6878288016144d6565b93505060406146b7878288016145a8565b925050606085013567ffffffffffffffff8111156146d457600080fd5b6146e087828801614554565b91505092959194509250565b600080604083850312156146ff57600080fd5b600061470d858286016144d6565b925050602061471e85828601614515565b9150509250929050565b60008060008060008060008060006101208a8c03121561474757600080fd5b60006147558c828d016144d6565b99505060208a013567ffffffffffffffff81111561477257600080fd5b61477e8c828d0161457e565b98505060408a013567ffffffffffffffff81111561479b57600080fd5b6147a78c828d0161457e565b97505060608a013567ffffffffffffffff8111156147c457600080fd5b6147d08c828d016144eb565b96505060808a013567ffffffffffffffff8111156147ed57600080fd5b6147f98c828d0161457e565b95505060a061480a8c828d016144d6565b94505060c08a013567ffffffffffffffff81111561482757600080fd5b6148338c828d0161457e565b93505060e08a013567ffffffffffffffff81111561485057600080fd5b61485c8c828d0161457e565b9250506101008a013567ffffffffffffffff81111561487a57600080fd5b6148868c828d0161457e565b9150509295985092959850929598565b600080604083850312156148a957600080fd5b60006148b7858286016144d6565b92505060206148c8858286016145a8565b9150509250929050565b6000602082840312156148e457600080fd5b60006148f28482850161452a565b91505092915050565b60006020828403121561490d57600080fd5b600061491b8482850161453f565b91505092915050565b60006020828403121561493657600080fd5b6000614944848285016145a8565b91505092915050565b6000806040838503121561496057600080fd5b600061496e858286016145a8565b925050602061497f858286016145a8565b9150509250929050565b600061499583836149c9565b60208301905092915050565b60006149ad8383614b77565b905092915050565b60006149c18383614e82565b905092915050565b6149d2816156a5565b82525050565b6149e1816156a5565b82525050565b60006149f282615557565b6149fc81856155b5565b9350614a0783615527565b8060005b83811015614a38578151614a1f8882614989565b9750614a2a8361558e565b925050600181019050614a0b565b5085935050505092915050565b6000614a5082615562565b614a5a81856155c6565b935083602082028501614a6c85615537565b8060005b85811015614aa85784840389528151614a8985826149a1565b9450614a948361559b565b925060208a01995050600181019050614a70565b50829750879550505050505092915050565b6000614ac58261556d565b614acf81856155d7565b935083602082028501614ae185615547565b8060005b85811015614b1d5784840389528151614afe85826149b5565b9450614b09836155a8565b925060208a01995050600181019050614ae5565b50829750879550505050505092915050565b614b38816156b7565b82525050565b6000614b4982615578565b614b5381856155e8565b9350614b63818560208601615728565b614b6c81615894565b840191505092915050565b6000614b8282615583565b614b8c81856155f9565b9350614b9c818560208601615728565b614ba581615894565b840191505092915050565b6000614bbb82615583565b614bc5818561560a565b9350614bd5818560208601615728565b614bde81615894565b840191505092915050565b6000614bf660328361560a565b9150614c01826158a5565b604082019050919050565b6000614c1960268361560a565b9150614c24826158f4565b604082019050919050565b6000614c3c60258361560a565b9150614c4782615943565b604082019050919050565b6000614c5f601c8361560a565b9150614c6a82615992565b602082019050919050565b6000614c8260248361560a565b9150614c8d826159bb565b604082019050919050565b6000614ca560198361560a565b9150614cb082615a0a565b602082019050919050565b6000614cc8602c8361560a565b9150614cd382615a33565b604082019050919050565b6000614ceb60258361560a565b9150614cf682615a82565b604082019050919050565b6000614d0e60388361560a565b9150614d1982615ad1565b604082019050919050565b6000614d31602a8361560a565b9150614d3c82615b20565b604082019050919050565b6000614d5460298361560a565b9150614d5f82615b6f565b604082019050919050565b6000614d77602e8361560a565b9150614d8282615bbe565b604082019050919050565b6000614d9a60208361560a565b9150614da582615c0d565b602082019050919050565b6000614dbd602c8361560a565b9150614dc882615c36565b604082019050919050565b6000614de060208361560a565b9150614deb82615c85565b602082019050919050565b6000614e0360218361560a565b9150614e0e82615cae565b604082019050919050565b6000614e2660318361560a565b9150614e3182615cfd565b604082019050919050565b6000614e4960268361560a565b9150614e5482615d4c565b604082019050919050565b6000614e6c602b8361560a565b9150614e7782615d9b565b604082019050919050565b600061018083016000830151614e9b6000860182614fb0565b506020830151614eae60208601826149c9565b506040830151614ec160408601826149c9565b5060608301518482036060860152614ed98282614b77565b91505060808301518482036080860152614ef38282614b77565b91505060a083015184820360a0860152614f0d8282614a45565b91505060c083015184820360c0860152614f278282614b77565b91505060e083015184820360e0860152614f418282614b77565b915050610100830151848203610100860152614f5d8282614b77565b915050610120830151614f74610120860182614fb0565b50610140830151848203610140860152614f8e8282614b77565b915050610160830151614fa5610160860182614fb0565b508091505092915050565b614fb98161570f565b82525050565b614fc88161570f565b82525050565b6000602082019050614fe360008301846149d8565b92915050565b6000608082019050614ffe60008301876149d8565b61500b60208301866149d8565b6150186040830185614fbf565b818103606083015261502a8184614b3e565b905095945050505050565b6000602082019050818103600083015261504f81846149e7565b905092915050565b600060208201905081810360008301526150718184614aba565b905092915050565b600060208201905061508e6000830184614b2f565b92915050565b600060208201905081810360008301526150ae8184614bb0565b905092915050565b600060608201905081810360008301526150d08186614bb0565b905081810360208301526150e48185614bb0565b90506150f36040830184614fbf565b949350505050565b6000602082019050818103600083015261511481614be9565b9050919050565b6000602082019050818103600083015261513481614c0c565b9050919050565b6000602082019050818103600083015261515481614c2f565b9050919050565b6000602082019050818103600083015261517481614c52565b9050919050565b6000602082019050818103600083015261519481614c75565b9050919050565b600060208201905081810360008301526151b481614c98565b9050919050565b600060208201905081810360008301526151d481614cbb565b9050919050565b600060208201905081810360008301526151f481614cde565b9050919050565b6000602082019050818103600083015261521481614d01565b9050919050565b6000602082019050818103600083015261523481614d24565b9050919050565b6000602082019050818103600083015261525481614d47565b9050919050565b6000602082019050818103600083015261527481614d6a565b9050919050565b6000602082019050818103600083015261529481614d8d565b9050919050565b600060208201905081810360008301526152b481614db0565b9050919050565b600060208201905081810360008301526152d481614dd3565b9050919050565b600060208201905081810360008301526152f481614df6565b9050919050565b6000602082019050818103600083015261531481614e19565b9050919050565b6000602082019050818103600083015261533481614e3c565b9050919050565b6000602082019050818103600083015261535481614e5f565b9050919050565b60006020820190506153706000830184614fbf565b92915050565b60006101608201905061538c600083018e614fbf565b615399602083018d6149d8565b6153a6604083018c6149d8565b81810360608301526153b8818b614bb0565b905081810360808301526153cc818a614bb0565b905081810360a08301526153e08189614bb0565b905081810360c08301526153f48188614bb0565b905081810360e08301526154088187614bb0565b9050615418610100830186614fbf565b81810361012083015261542b8185614bb0565b905061543b610140830184614fbf565b9c9b505050505050505050505050565b60006040820190506154606000830185614fbf565b61546d6020830184614fbf565b9392505050565b600061547e61548f565b905061548a828261578d565b919050565b6000604051905090565b600067ffffffffffffffff8211156154b4576154b3615865565b5b602082029050602081019050919050565b600067ffffffffffffffff8211156154e0576154df615865565b5b6154e982615894565b9050602081019050919050565b600067ffffffffffffffff82111561551157615510615865565b5b61551a82615894565b9050602081019050919050565b6000819050602082019050919050565b6000819050602082019050919050565b6000819050602082019050919050565b600081519050919050565b600081519050919050565b600081519050919050565b600081519050919050565b600081519050919050565b6000602082019050919050565b6000602082019050919050565b6000602082019050919050565b600082825260208201905092915050565b600082825260208201905092915050565b600082825260208201905092915050565b600082825260208201905092915050565b600082825260208201905092915050565b600082825260208201905092915050565b60006156268261570f565b91506156318361570f565b9250827fffffffffffffffffffffffffffffffffffffffffffffffffffffffffffffffff0382111561566657615665615807565b5b828201905092915050565b600061567c8261570f565b91506156878361570f565b92508282101561569a57615699615807565b5b828203905092915050565b60006156b0826156ef565b9050919050565b60008115159050919050565b60007fffffffff0000000000000000000000000000000000000000000000000000000082169050919050565b600073ffffffffffffffffffffffffffffffffffffffff82169050919050565b6000819050919050565b82818337600083830152505050565b60005b8381101561574657808201518184015260208101905061572b565b83811115615755576000848401525b50505050565b6000600282049050600182168061577357607f821691505b6020821081141561578757615786615836565b5b50919050565b61579682615894565b810181811067ffffffffffffffff821117156157b5576157b4615865565b5b80604052505050565b60006157c98261570f565b91507fffffffffffffffffffffffffffffffffffffffffffffffffffffffffffffffff8214156157fc576157fb615807565b5b600182019050919050565b7f4e487b7100000000000000000000000000000000000000000000000000000000600052601160045260246000fd5b7f4e487b7100000000000000000000000000000000000000000000000000000000600052602260045260246000fd5b7f4e487b7100000000000000000000000000000000000000000000000000000000600052604160045260246000fd5b6000601f19601f8301169050919050565b7f4552433732313a207472616e7366657220746f206e6f6e20455243373231526560008201527f63656976657220696d706c656d656e7465720000000000000000000000000000602082015250565b7f4f776e61626c653a206e6577206f776e657220697320746865207a65726f206160008201527f6464726573730000000000000000000000000000000000000000000000000000602082015250565b7f4552433732313a207472616e736665722066726f6d20696e636f72726563742060008201527f6f776e6572000000000000000000000000000000000000000000000000000000602082015250565b7f4552433732313a20746f6b656e20616c7265616479206d696e74656400000000600082015250565b7f4552433732313a207472616e7366657220746f20746865207a65726f2061646460008201527f7265737300000000000000000000000000000000000000000000000000000000602082015250565b7f4552433732313a20617070726f766520746f2063616c6c657200000000000000600082015250565b7f4552433732313a206f70657261746f7220717565727920666f72206e6f6e657860008201527f697374656e7420746f6b656e0000000000000000000000000000000000000000602082015250565b7f41207375626d697373696f6e2063616e206f6e6c792068617665203520636f7360008201527f69676e7321000000000000000000000000000000000000000000000000000000602082015250565b7f4552433732313a20617070726f76652063616c6c6572206973206e6f74206f7760008201527f6e6572206e6f7220617070726f76656420666f7220616c6c0000000000000000602082015250565b7f4552433732313a2062616c616e636520717565727920666f7220746865207a6560008201527f726f206164647265737300000000000000000000000000000000000000000000602082015250565b7f4552433732313a206f776e657220717565727920666f72206e6f6e657869737460008201527f656e7420746f6b656e0000000000000000000000000000000000000000000000602082015250565b7f496e697469616c697a61626c653a20636f6e747261637420697320616c72656160008201527f647920696e697469616c697a6564000000000000000000000000000000000000602082015250565b7f4552433732313a206d696e7420746f20746865207a65726f2061646472657373600082015250565b7f4552433732313a20617070726f76656420717565727920666f72206e6f6e657860008201527f697374656e7420746f6b656e0000000000000000000000000000000000000000602082015250565b7f4f776e61626c653a2063616c6c6572206973206e6f7420746865206f776e6572600082015250565b7f4552433732313a20617070726f76616c20746f2063757272656e74206f776e6560008201527f7200000000000000000000000000000000000000000000000000000000000000602082015250565b7f4552433732313a207472616e736665722063616c6c6572206973206e6f74206f60008201527f776e6572206e6f7220617070726f766564000000000000000000000000000000602082015250565b7f596f752063616e206f6e6c7920636f7369676e2061207375626d697373696f6e60008201527f206f6e6365210000000000000000000000000000000000000000000000000000602082015250565b7f496e697469616c697a61626c653a20636f6e7472616374206973206e6f74206960008201527f6e697469616c697a696e67000000000000000000000000000000000000000000602082015250565b615df3816156a5565b8114615dfe57600080fd5b50565b615e0a816156b7565b8114615e1557600080fd5b50565b615e21816156c3565b8114615e2c57600080fd5b50565b615e388161570f565b8114615e4357600080fd5b5056fe2a2a2a2a2a2a4d696e746564202573204e465420772f20746f6b656e4964202573202a2a2a2a2a2aa2646970667358221220194c8729816fa520657efa9122e1e5006aa45f69ae452899b24e8f684f1200c864736f6c63430008040033",
  "linkReferences": {},
  "deployedLinkReferences": {}
}