{
  "address": "0x3f221418f9be93e17Be5E32550184040E97C4C93",
  "abi": [
    {
      "inputs": [],
      "stateMutability": "nonpayable",
      "type": "constructor"
    },
    {
      "anonymous": false,
      "inputs": [
        {
          "indexed": true,
          "internalType": "address",
          "name": "previousOwner",
          "type": "address"
        },
        {
          "indexed": true,
          "internalType": "address",
          "name": "newOwner",
          "type": "address"
        }
      ],
      "name": "OwnershipTransferred",
      "type": "event"
    },
    {
      "anonymous": false,
      "inputs": [
        {
          "indexed": false,
          "internalType": "address",
          "name": "account",
          "type": "address"
        }
      ],
      "name": "Paused",
      "type": "event"
    },
    {
      "anonymous": false,
      "inputs": [
        {
          "indexed": true,
          "internalType": "address",
          "name": "cosigner",
          "type": "address"
        },
        {
          "indexed": false,
          "internalType": "contract Hotdrop",
          "name": "hotdrop",
          "type": "address"
        },
        {
          "indexed": false,
          "internalType": "uint256",
          "name": "generation",
          "type": "uint256"
        }
      ],
      "name": "Phlote",
      "type": "event"
    },
    {
      "anonymous": false,
      "inputs": [
        {
          "indexed": true,
          "internalType": "bytes32",
          "name": "role",
          "type": "bytes32"
        },
        {
          "indexed": true,
          "internalType": "bytes32",
          "name": "previousAdminRole",
          "type": "bytes32"
        },
        {
          "indexed": true,
          "internalType": "bytes32",
          "name": "newAdminRole",
          "type": "bytes32"
        }
      ],
      "name": "RoleAdminChanged",
      "type": "event"
    },
    {
      "anonymous": false,
      "inputs": [
        {
          "indexed": true,
          "internalType": "bytes32",
          "name": "role",
          "type": "bytes32"
        },
        {
          "indexed": true,
          "internalType": "address",
          "name": "account",
          "type": "address"
        },
        {
          "indexed": true,
          "internalType": "address",
          "name": "sender",
          "type": "address"
        }
      ],
      "name": "RoleGranted",
      "type": "event"
    },
    {
      "anonymous": false,
      "inputs": [
        {
          "indexed": true,
          "internalType": "bytes32",
          "name": "role",
          "type": "bytes32"
        },
        {
          "indexed": true,
          "internalType": "address",
          "name": "account",
          "type": "address"
        },
        {
          "indexed": true,
          "internalType": "address",
          "name": "sender",
          "type": "address"
        }
      ],
      "name": "RoleRevoked",
      "type": "event"
    },
    {
      "anonymous": false,
      "inputs": [
        {
          "indexed": true,
          "internalType": "address",
          "name": "submitter",
          "type": "address"
        },
        {
          "indexed": false,
          "internalType": "contract Hotdrop",
          "name": "hotdrop",
          "type": "address"
        }
      ],
      "name": "Submit",
      "type": "event"
    },
    {
      "anonymous": false,
      "inputs": [
        {
          "indexed": false,
          "internalType": "address",
          "name": "account",
          "type": "address"
        }
      ],
      "name": "Unpaused",
      "type": "event"
    },
    {
      "inputs": [],
      "name": "CURATOR",
      "outputs": [
        {
          "internalType": "bytes32",
          "name": "",
          "type": "bytes32"
        }
      ],
      "stateMutability": "view",
      "type": "function"
    },
    {
      "inputs": [],
      "name": "CURATOR_ADMIN",
      "outputs": [
        {
          "internalType": "bytes32",
          "name": "",
          "type": "bytes32"
        }
      ],
      "stateMutability": "view",
      "type": "function"
    },
    {
      "inputs": [],
      "name": "DEFAULT_ADMIN_ROLE",
      "outputs": [
        {
          "internalType": "bytes32",
          "name": "",
          "type": "bytes32"
        }
      ],
      "stateMutability": "view",
      "type": "function"
    },
    {
      "inputs": [
        {
          "internalType": "contract Hotdrop",
          "name": "_hotdrop",
          "type": "address"
        }
      ],
      "name": "curate",
      "outputs": [],
      "stateMutability": "nonpayable",
      "type": "function"
    },
    {
      "inputs": [],
      "name": "curatorAdmin",
      "outputs": [
        {
          "internalType": "address",
          "name": "",
          "type": "address"
        }
      ],
      "stateMutability": "view",
      "type": "function"
    },
    {
      "inputs": [],
      "name": "curatorTokenMinimum",
      "outputs": [
        {
          "internalType": "uint256",
          "name": "",
          "type": "uint256"
        }
      ],
      "stateMutability": "view",
      "type": "function"
    },
    {
      "inputs": [
        {
          "internalType": "bytes32",
          "name": "role",
          "type": "bytes32"
        }
      ],
      "name": "getRoleAdmin",
      "outputs": [
        {
          "internalType": "bytes32",
          "name": "",
          "type": "bytes32"
        }
      ],
      "stateMutability": "view",
      "type": "function"
    },
    {
      "inputs": [
        {
          "internalType": "bytes32",
          "name": "role",
          "type": "bytes32"
        },
        {
          "internalType": "uint256",
          "name": "index",
          "type": "uint256"
        }
      ],
      "name": "getRoleMember",
      "outputs": [
        {
          "internalType": "address",
          "name": "",
          "type": "address"
        }
      ],
      "stateMutability": "view",
      "type": "function"
    },
    {
      "inputs": [
        {
          "internalType": "bytes32",
          "name": "role",
          "type": "bytes32"
        }
      ],
      "name": "getRoleMemberCount",
      "outputs": [
        {
          "internalType": "uint256",
          "name": "",
          "type": "uint256"
        }
      ],
      "stateMutability": "view",
      "type": "function"
    },
    {
      "inputs": [
        {
          "internalType": "address",
          "name": "_newCurator",
          "type": "address"
        }
      ],
      "name": "grantCuratorRole",
      "outputs": [],
      "stateMutability": "nonpayable",
      "type": "function"
    },
    {
      "inputs": [
        {
          "internalType": "bytes32",
          "name": "role",
          "type": "bytes32"
        },
        {
          "internalType": "address",
          "name": "account",
          "type": "address"
        }
      ],
      "name": "grantRole",
      "outputs": [],
      "stateMutability": "nonpayable",
      "type": "function"
    },
    {
      "inputs": [
        {
          "internalType": "bytes32",
          "name": "role",
          "type": "bytes32"
        },
        {
          "internalType": "address",
          "name": "account",
          "type": "address"
        }
      ],
      "name": "hasRole",
      "outputs": [
        {
          "internalType": "bool",
          "name": "",
          "type": "bool"
        }
      ],
      "stateMutability": "view",
      "type": "function"
    },
    {
      "inputs": [
        {
          "internalType": "contract PhloteVote",
          "name": "_vote",
          "type": "address"
        },
        {
          "internalType": "address",
          "name": "_treasury",
          "type": "address"
        },
        {
          "internalType": "address",
          "name": "_curatorAdmin",
          "type": "address"
        }
      ],
      "name": "initialize",
      "outputs": [],
      "stateMutability": "nonpayable",
      "type": "function"
    },
    {
      "inputs": [
        {
          "internalType": "contract PhloteVote",
          "name": "_vote",
          "type": "address"
        },
        {
          "internalType": "address",
          "name": "_treasury",
          "type": "address"
        },
        {
          "internalType": "address",
          "name": "_curatorAdmin",
          "type": "address"
        }
      ],
      "name": "onUpgrade",
      "outputs": [],
      "stateMutability": "nonpayable",
      "type": "function"
    },
    {
      "inputs": [],
      "name": "owner",
      "outputs": [
        {
          "internalType": "address",
          "name": "",
          "type": "address"
        }
      ],
      "stateMutability": "view",
      "type": "function"
    },
    {
      "inputs": [],
      "name": "pause",
      "outputs": [],
      "stateMutability": "nonpayable",
      "type": "function"
    },
    {
      "inputs": [],
      "name": "paused",
      "outputs": [
        {
          "internalType": "bool",
          "name": "",
          "type": "bool"
        }
      ],
      "stateMutability": "view",
      "type": "function"
    },
    {
      "inputs": [],
      "name": "renounceOwnership",
      "outputs": [],
      "stateMutability": "nonpayable",
      "type": "function"
    },
    {
      "inputs": [
        {
          "internalType": "bytes32",
          "name": "role",
          "type": "bytes32"
        },
        {
          "internalType": "address",
          "name": "account",
          "type": "address"
        }
      ],
      "name": "renounceRole",
      "outputs": [],
      "stateMutability": "nonpayable",
      "type": "function"
    },
    {
      "inputs": [
        {
          "internalType": "address",
          "name": "_oldCurator",
          "type": "address"
        }
      ],
      "name": "revokeCuratorRole",
      "outputs": [],
      "stateMutability": "nonpayable",
      "type": "function"
    },
    {
      "inputs": [
        {
          "internalType": "bytes32",
          "name": "role",
          "type": "bytes32"
        },
        {
          "internalType": "address",
          "name": "account",
          "type": "address"
        }
      ],
      "name": "revokeRole",
      "outputs": [],
      "stateMutability": "nonpayable",
      "type": "function"
    },
    {
      "inputs": [
        {
          "internalType": "string",
          "name": "_ipfsURI",
          "type": "string"
        }
      ],
      "name": "submit",
      "outputs": [
        {
          "internalType": "contract Hotdrop",
          "name": "hotdrop",
          "type": "address"
        }
      ],
      "stateMutability": "nonpayable",
      "type": "function"
    },
    {
      "inputs": [
        {
          "internalType": "bytes4",
          "name": "interfaceId",
          "type": "bytes4"
        }
      ],
      "name": "supportsInterface",
      "outputs": [
        {
          "internalType": "bool",
          "name": "",
          "type": "bool"
        }
      ],
      "stateMutability": "view",
      "type": "function"
    },
    {
      "inputs": [
        {
          "internalType": "address",
          "name": "newOwner",
          "type": "address"
        }
      ],
      "name": "transferOwnership",
      "outputs": [],
      "stateMutability": "nonpayable",
      "type": "function"
    },
    {
      "inputs": [],
      "name": "treasury",
      "outputs": [
        {
          "internalType": "address",
          "name": "",
          "type": "address"
        }
      ],
      "stateMutability": "view",
      "type": "function"
    },
    {
      "inputs": [],
      "name": "unpause",
      "outputs": [],
      "stateMutability": "nonpayable",
      "type": "function"
    },
    {
      "inputs": [],
      "name": "vote",
      "outputs": [
        {
          "internalType": "contract PhloteVote",
          "name": "",
          "type": "address"
        }
      ],
      "stateMutability": "view",
      "type": "function"
    },
    {
      "inputs": [
        {
          "internalType": "uint256",
          "name": "_amount",
          "type": "uint256"
        }
      ],
      "name": "withdraw",
      "outputs": [],
      "stateMutability": "nonpayable",
      "type": "function"
    },
    {
      "inputs": [],
      "name": "withdraw",
      "outputs": [],
      "stateMutability": "nonpayable",
      "type": "function"
    },
    {
      "inputs": [
        {
          "internalType": "contract IERC20",
          "name": "_token",
          "type": "address"
        },
        {
          "internalType": "uint256",
          "name": "_amount",
          "type": "uint256"
        }
      ],
      "name": "withdraw",
      "outputs": [],
      "stateMutability": "nonpayable",
      "type": "function"
    }
  ],
  "transactionHash": "0xc94f3cd845267dbedf303af6fbbd84c6a149e408bc3f72f052a90c30a233126d",
  "args": [],
  "numDeployments": 1,
  "solcInputHash": "fddb215fb15412a8e654d1d6d3da32da",
  "bytecode": "0x60806040523480156200001157600080fd5b50600054610100900460ff166200002f5760005460ff161562000039565b62000039620000de565b620000a15760405162461bcd60e51b815260206004820152602e60248201527f496e697469616c697a61626c653a20636f6e747261637420697320616c72656160448201526d191e481a5b9a5d1a585b1a5e995960921b606482015260840160405180910390fd5b600054610100900460ff16158015620000c4576000805461ffff19166101011790555b8015620000d7576000805461ff00191690555b506200010b565b6000620000f630620000fc60201b620014981760201c565b15905090565b6001600160a01b03163b151590565b614d51806200011b6000396000f3fe60806040523480156200001157600080fd5b5060043610620002015760003560e01c80638456cb591162000119578063b5ceeb4811620000af578063d99a8dc3116200007a578063d99a8dc31462000446578063e52582db146200045d578063f2fde38b1462000474578063f3fef3a3146200048b57600080fd5b8063b5ceeb4814620003ea578063c0c53b8b1462000401578063ca15c8731462000418578063d547741f146200042f57600080fd5b80639010d07c11620000f05780639010d07c146200039e57806391d1485414620003b55780639faff07014620003cc578063a217fddf14620003e157600080fd5b80638456cb59146200036b5780638da5cb5b14620003755780638e9c0fe2146200038757600080fd5b80633f4ba83a116200019b578063632a9a521162000166578063632a9a52146200031e5780636977dca11462000333578063715018a6146200034a57806373e9fbb7146200035457600080fd5b80633f4ba83a14620002c35780635a65275814620002cd5780635c975abb14620002e457806361d027b314620002f057600080fd5b80632e1a7d4d11620001dc5780632e1a7d4d14620002725780632f2ff15d146200028b57806336568abe14620002a25780633ccfd60b14620002b957600080fd5b806301ffc9a714620002065780631260ecf41462000232578063248a9ca3146200024c575b600080fd5b6200021d6200021736600462001d58565b620004a2565b60405190151581526020015b60405180910390f35b6200023d61012f5481565b60405190815260200162000229565b6200023d6200025d36600462001d84565b600090815260c9602052604090206001015490565b620002896200028336600462001d84565b620004d0565b005b620002896200029c36600462001db4565b620005d9565b62000289620002b336600462001db4565b62000608565b6200028962000686565b620002896200073b565b62000289620002de36600462001de7565b62000774565b60335460ff166200021d565b61012e5462000305906001600160a01b031681565b6040516001600160a01b03909116815260200162000229565b61012d5462000305906001600160a01b031681565b620002896200034436600462001e07565b62000d28565b6200028962000d62565b620002896200036536600462001de7565b62000d9b565b6200028962000dd2565b6065546001600160a01b031662000305565b620002896200039836600462001de7565b62000e09565b62000305620003af36600462001e59565b62000f0c565b6200021d620003c636600462001db4565b62000f2d565b6101305462000305906001600160a01b031681565b6200023d600081565b6200023d60008051602062004cdc83398151915281565b620002896200041236600462001e07565b62000f58565b6200023d6200042936600462001d84565b620010b2565b620002896200044036600462001db4565b620010cb565b620003056200045736600462001e92565b620010f5565b6200023d60008051602062004cfc83398151915281565b620002896200048536600462001de7565b6200122d565b620002896200049c36600462001f4d565b620012cc565b60006001600160e01b03198216635a05180f60e01b1480620004ca5750620004ca82620014a7565b92915050565b6065546001600160a01b03163314620005065760405162461bcd60e51b8152600401620004fd9062001f7c565b60405180910390fd5b60004711620005515760405162461bcd60e51b81526020600482015260166024820152756e6565642066756e647320746f20776974686472617760501b6044820152606401620004fd565b478111156200059a5760405162461bcd60e51b81526020600482015260146024820152730c8dedc4ee840d0c2ecca40e8d0c2e840daeac6d60631b6044820152606401620004fd565b6065546040516001600160a01b039091169082156108fc029083906000818181858888f19350505050158015620005d5573d6000803e3d6000fd5b5050565b600082815260c96020526040902060010154620005f78133620014de565b6200060383836200154d565b505050565b6001600160a01b03811633146200067a5760405162461bcd60e51b815260206004820152602f60248201527f416363657373436f6e74726f6c3a2063616e206f6e6c792072656e6f756e636560448201526e103937b632b9903337b91039b2b63360891b6064820152608401620004fd565b620005d5828262001573565b6065546001600160a01b03163314620006b35760405162461bcd60e51b8152600401620004fd9062001f7c565b60004711620006fe5760405162461bcd60e51b81526020600482015260166024820152756e6565642066756e647320746f20776974686472617760501b6044820152606401620004fd565b6065546040516001600160a01b03909116904780156108fc02916000818181858888f1935050505015801562000738573d6000803e3d6000fd5b50565b6065546001600160a01b03163314620007685760405162461bcd60e51b8152600401620004fd9062001f7c565b6200077262001599565b565b60008051602062004cfc833981519152620007908133620014de565b6000826001600160a01b0316633d4327fb6040518163ffffffff1660e01b8152600401602060405180830381600087803b158015620007ce57600080fd5b505af1158015620007e3573d6000803e3d6000fd5b505050506040513d601f19601f8201168201806040525081019062000809919062001fb1565b90506000836001600160a01b031663cf42d4d96040518163ffffffff1660e01b815260040160206040518083038186803b1580156200084757600080fd5b505afa1580156200085c573d6000803e3d6000fd5b505050506040513d601f19601f8201168201806040525081019062000882919062001fb1565b6200088e908362001fe1565b6040516370166af760e01b8152600481018490526001600160a01b038616906370166af79060240160206040518083038186803b158015620008cf57600080fd5b505afa158015620008e4573d6000803e3d6000fd5b505050506040513d601f19601f820116820180604052508101906200090a919062001fb1565b62000916919062002003565b61012d5461012e5460405163a9059cbb60e01b81526001600160a01b03918216600482015260248101849052929350169063a9059cbb90604401602060405180830381600087803b1580156200096b57600080fd5b505af115801562000980573d6000803e3d6000fd5b505050506040513d601f19601f82011682018060405250810190620009a691906200201d565b5061012d60009054906101000a90046001600160a01b03166001600160a01b031663a9059cbb856001600160a01b0316638dc45d9a6040518163ffffffff1660e01b815260040160206040518083038186803b15801562000a0657600080fd5b505afa15801562000a1b573d6000803e3d6000fd5b505050506040513d601f19601f8201168201806040525081019062000a41919062002041565b866001600160a01b031663cf42d4d96040518163ffffffff1660e01b815260040160206040518083038186803b15801562000a7b57600080fd5b505afa15801562000a90573d6000803e3d6000fd5b505050506040513d601f19601f8201168201806040525081019062000ab6919062001fb1565b6040516001600160e01b031960e085901b1681526001600160a01b0390921660048301526024820152604401602060405180830381600087803b15801562000afd57600080fd5b505af115801562000b12573d6000803e3d6000fd5b505050506040513d601f19601f8201168201806040525081019062000b3891906200201d565b5060005b8281101562000cdd5761012d54604051630a20c39d60e31b8152600481018390526001600160a01b039182169163a9059cbb91908816906351061ce89060240160206040518083038186803b15801562000b9557600080fd5b505afa15801562000baa573d6000803e3d6000fd5b505050506040513d601f19601f8201168201806040525081019062000bd0919062002041565b876001600160a01b031663cf42d4d96040518163ffffffff1660e01b815260040160206040518083038186803b15801562000c0a57600080fd5b505afa15801562000c1f573d6000803e3d6000fd5b505050506040513d601f19601f8201168201806040525081019062000c45919062001fb1565b6040516001600160e01b031960e085901b1681526001600160a01b0390921660048301526024820152604401602060405180830381600087803b15801562000c8c57600080fd5b505af115801562000ca1573d6000803e3d6000fd5b505050506040513d601f19601f8201168201806040525081019062000cc791906200201d565b508062000cd48162002061565b91505062000b3c565b50604080516001600160a01b03861681526020810184905233917f926d849ad756dace5fd2d3be7814fe6832ed0634595db617736aa68c22fbe57a910160405180910390a250505050565b6065546001600160a01b0316331462000d555760405162461bcd60e51b8152600401620004fd9062001f7c565b620006038383836200162e565b6065546001600160a01b0316331462000d8f5760405162461bcd60e51b8152600401620004fd9062001f7c565b620007726000620016ba565b60008051602062004cdc83398151915262000db78133620014de565b620005d560008051602062004cfc83398151915283620010cb565b6065546001600160a01b0316331462000dff5760405162461bcd60e51b8152600401620004fd9062001f7c565b620007726200170c565b60008051602062004cdc83398151915262000e258133620014de565b61012f5461012d546040516370a0823160e01b81526001600160a01b038581166004830152909116906370a082319060240160206040518083038186803b15801562000e7057600080fd5b505afa15801562000e85573d6000803e3d6000fd5b505050506040513d601f19601f8201168201806040525081019062000eab919062001fb1565b101562000ef15760405162461bcd60e51b8152602060048201526013602482015272746f6f2066657720766f746520746f6b656e7360681b6044820152606401620004fd565b620005d560008051602062004cfc83398151915283620005d9565b600082815260fb6020526040812062000f2690836200178a565b9392505050565b600091825260c9602090815260408084206001600160a01b0393909316845291905290205460ff1690565b600054610100900460ff1662000f755760005460ff161562000f79565b303b155b62000fde5760405162461bcd60e51b815260206004820152602e60248201527f496e697469616c697a61626c653a20636f6e747261637420697320616c72656160448201526d191e481a5b9a5d1a585b1a5e995960921b6064820152608401620004fd565b600054610100900460ff1615801562001001576000805461ffff19166101011790555b6200100e6000336200154d565b6200102960008051602062004cdc833981519152336200154d565b6200105360008051602062004cdc83398151915260008051602062004cfc83398151915262001798565b6200106e60008051602062004cfc833981519152336200154d565b6200107b8484846200162e565b62001085620017e3565b6200108f62001817565b620010996200184b565b8015620010ac576000805461ff00191690555b50505050565b600081815260fb60205260408120620004ca9062001875565b600082815260c96020526040902060010154620010e98133620014de565b62000603838362001573565b6000604051620011059062001d4a565b604051809103906000f08015801562001122573d6000803e3d6000fd5b50604051631ec5a31160e31b81529091506001600160a01b0382169063f62d18889062001154908590600401620020ae565b600060405180830381600087803b1580156200116f57600080fd5b505af115801562001184573d6000803e3d6000fd5b505060405163a22cb46560e01b8152306004820152600160248201526001600160a01b038416925063a22cb4659150604401600060405180830381600087803b158015620011d157600080fd5b505af1158015620011e6573d6000803e3d6000fd5b50506040516001600160a01b03841681523392507f2979df6ee3d88280fffe5948f0a0b5174cf6db924588b47fd9dc35d378de52db915060200160405180910390a2919050565b6065546001600160a01b031633146200125a5760405162461bcd60e51b8152600401620004fd9062001f7c565b6001600160a01b038116620012c15760405162461bcd60e51b815260206004820152602660248201527f4f776e61626c653a206e6577206f776e657220697320746865207a65726f206160448201526564647265737360d01b6064820152608401620004fd565b6200073881620016ba565b6065546001600160a01b03163314620012f95760405162461bcd60e51b8152600401620004fd9062001f7c565b6040516370a0823160e01b81523060048201526000906001600160a01b038416906370a082319060240160206040518083038186803b1580156200133c57600080fd5b505afa15801562001351573d6000803e3d6000fd5b505050506040513d601f19601f8201168201806040525081019062001377919062001fb1565b905060008111620013cb5760405162461bcd60e51b815260206004820152601860248201527f6e6565642062616c616e636520746f20776974686472617700000000000000006044820152606401620004fd565b80821115620014145760405162461bcd60e51b81526020600482015260146024820152730c8dedc4ee840d0c2ecca40e8d0c2e840daeac6d60631b6044820152606401620004fd565b60405163a9059cbb60e01b8152336004820152602481018290526001600160a01b0384169063a9059cbb90604401602060405180830381600087803b1580156200145d57600080fd5b505af115801562001472573d6000803e3d6000fd5b505050506040513d601f19601f82011682018060405250810190620010ac91906200201d565b6001600160a01b03163b151590565b60006001600160e01b03198216637965db0b60e01b1480620004ca57506301ffc9a760e01b6001600160e01b0319831614620004ca565b620014ea828262000f2d565b620005d55762001505816001600160a01b0316601462001880565b6200151283602062001880565b60405160200162001525929190620020e3565b60408051601f198184030181529082905262461bcd60e51b8252620004fd91600401620020ae565b62001559828262001a3a565b600082815260fb6020526040902062000603908262001ac4565b6200157f828262001adb565b600082815260fb6020526040902062000603908262001b45565b60335460ff16620015e45760405162461bcd60e51b815260206004820152601460248201527314185d5cd8589b194e881b9bdd081c185d5cd95960621b6044820152606401620004fd565b6033805460ff191690557f5db9ee0a495bf2e6ff9c91a7834c1ba4fdd244a5e8aa4e537bd38aeae4b073aa335b6040516001600160a01b03909116815260200160405180910390a1565b61012d80546001600160a01b038086166001600160a01b03199283161790925561012e80548584169216919091179055610130546200167f9160008051602062004cdc8339815191529116620010cb565b61013080546001600160a01b0319166001600160a01b038316908117909155620006039060008051602062004cdc83398151915290620005d9565b606580546001600160a01b038381166001600160a01b0319831681179093556040519116919082907f8be0079c531659141344cd1fd0a4f28419497f9722a3daafe3b4186f6b6457e090600090a35050565b60335460ff1615620017545760405162461bcd60e51b815260206004820152601060248201526f14185d5cd8589b194e881c185d5cd95960821b6044820152606401620004fd565b6033805460ff191660011790557f62e78cea01bee320cd4e420270b5ea74000d11b0c9f74754ebdbfc544b05a258620016113390565b600062000f26838362001b5c565b600082815260c96020526040808220600101805490849055905190918391839186917fbd79b86ffe0ab8e8776151514217cd7cacd52c909f66475c3af44e129f0b00ff9190a4505050565b600054610100900460ff166200180d5760405162461bcd60e51b8152600401620004fd906200215c565b6200077262001b89565b600054610100900460ff16620018415760405162461bcd60e51b8152600401620004fd906200215c565b6200077262001bbf565b600054610100900460ff16620007725760405162461bcd60e51b8152600401620004fd906200215c565b6000620004ca825490565b606060006200189183600262001fe1565b6200189e906002620021a7565b67ffffffffffffffff811115620018b957620018b962001e7c565b6040519080825280601f01601f191660200182016040528015620018e4576020820181803683370190505b509050600360fc1b81600081518110620019025762001902620021c2565b60200101906001600160f81b031916908160001a905350600f60fb1b81600181518110620019345762001934620021c2565b60200101906001600160f81b031916908160001a90535060006200195a84600262001fe1565b62001967906001620021a7565b90505b6001811115620019e9576f181899199a1a9b1b9c1cb0b131b232b360811b85600f16601081106200199f576200199f620021c2565b1a60f81b828281518110620019b857620019b8620021c2565b60200101906001600160f81b031916908160001a90535060049490941c93620019e181620021d8565b90506200196a565b50831562000f265760405162461bcd60e51b815260206004820181905260248201527f537472696e67733a20686578206c656e67746820696e73756666696369656e746044820152606401620004fd565b62001a46828262000f2d565b620005d557600082815260c9602090815260408083206001600160a01b03851684529091529020805460ff1916600117905562001a803390565b6001600160a01b0316816001600160a01b0316837f2f8788117e7eff1d82e926ec794901d17c78024a50270940304540a733656f0d60405160405180910390a45050565b600062000f26836001600160a01b03841662001bf4565b62001ae7828262000f2d565b15620005d557600082815260c9602090815260408083206001600160a01b0385168085529252808320805460ff1916905551339285917ff6391f5c32d9c69d2a47ea670b442974b53935d1edc7fd64eb21e047a839171b9190a45050565b600062000f26836001600160a01b03841662001c46565b600082600001828154811062001b765762001b76620021c2565b9060005260206000200154905092915050565b600054610100900460ff1662001bb35760405162461bcd60e51b8152600401620004fd906200215c565b6033805460ff19169055565b600054610100900460ff1662001be95760405162461bcd60e51b8152600401620004fd906200215c565b6200077233620016ba565b600081815260018301602052604081205462001c3d57508154600181810184556000848152602080822090930184905584548482528286019093526040902091909155620004ca565b506000620004ca565b6000818152600183016020526040812054801562001d3f57600062001c6d60018362002003565b855490915060009062001c839060019062002003565b905081811462001cef57600086600001828154811062001ca75762001ca7620021c2565b906000526020600020015490508087600001848154811062001ccd5762001ccd620021c2565b6000918252602080832090910192909255918252600188019052604090208390555b855486908062001d035762001d03620021f2565b600190038181906000526020600020016000905590558560010160008681526020019081526020016000206000905560019350505050620004ca565b6000915050620004ca565b612ad3806200220983390190565b60006020828403121562001d6b57600080fd5b81356001600160e01b03198116811462000f2657600080fd5b60006020828403121562001d9757600080fd5b5035919050565b6001600160a01b03811681146200073857600080fd5b6000806040838503121562001dc857600080fd5b82359150602083013562001ddc8162001d9e565b809150509250929050565b60006020828403121562001dfa57600080fd5b813562000f268162001d9e565b60008060006060848603121562001e1d57600080fd5b833562001e2a8162001d9e565b9250602084013562001e3c8162001d9e565b9150604084013562001e4e8162001d9e565b809150509250925092565b6000806040838503121562001e6d57600080fd5b50508035926020909101359150565b634e487b7160e01b600052604160045260246000fd5b60006020828403121562001ea557600080fd5b813567ffffffffffffffff8082111562001ebe57600080fd5b818401915084601f83011262001ed357600080fd5b81358181111562001ee85762001ee862001e7c565b604051601f8201601f19908116603f0116810190838211818310171562001f135762001f1362001e7c565b8160405282815287602084870101111562001f2d57600080fd5b826020860160208301376000928101602001929092525095945050505050565b6000806040838503121562001f6157600080fd5b823562001f6e8162001d9e565b946020939093013593505050565b6020808252818101527f4f776e61626c653a2063616c6c6572206973206e6f7420746865206f776e6572604082015260600190565b60006020828403121562001fc457600080fd5b5051919050565b634e487b7160e01b600052601160045260246000fd5b600081600019048311821515161562001ffe5762001ffe62001fcb565b500290565b60008282101562002018576200201862001fcb565b500390565b6000602082840312156200203057600080fd5b8151801515811462000f2657600080fd5b6000602082840312156200205457600080fd5b815162000f268162001d9e565b600060001982141562002078576200207862001fcb565b5060010190565b60005b838110156200209c57818101518382015260200162002082565b83811115620010ac5750506000910152565b6020815260008251806020840152620020cf8160408501602087016200207f565b601f01601f19169190910160400192915050565b7f416363657373436f6e74726f6c3a206163636f756e74200000000000000000008152600083516200211d8160178501602088016200207f565b7001034b99036b4b9b9b4b733903937b6329607d1b6017918401918201528351620021508160288401602088016200207f565b01602801949350505050565b6020808252602b908201527f496e697469616c697a61626c653a20636f6e7472616374206973206e6f74206960408201526a6e697469616c697a696e6760a81b606082015260800190565b60008219821115620021bd57620021bd62001fcb565b500190565b634e487b7160e01b600052603260045260246000fd5b600081620021ea57620021ea62001fcb565b506000190190565b634e487b7160e01b600052603160045260246000fdfe600061015f5567d02ab486cedc0000610161556101206040526802b5e3af16b18800006080908152680340aad21b3b70000060a0526803cb71f51fc558000060c0526804563918244f40000060e0526804e1003b28d9280000610100526200006d9061016290600562000186565b50600561016c5561016d805460ff191690553480156200008c57600080fd5b50600054610100900460ff16620000aa5760005460ff1615620000b4565b620000b462000159565b6200011c5760405162461bcd60e51b815260206004820152602e60248201527f496e697469616c697a61626c653a20636f6e747261637420697320616c72656160448201526d191e481a5b9a5d1a585b1a5e995960921b606482015260840160405180910390fd5b600054610100900460ff161580156200013f576000805461ffff19166101011790555b801562000152576000805461ff00191690555b50620001eb565b600062000171306200017760201b62000d741760201c565b15905090565b6001600160a01b03163b151590565b8260058101928215620001c2579160200282015b82811115620001c257825182906001600160481b03169055916020019190600101906200019a565b50620001d0929150620001d4565b5090565b5b80821115620001d05760008155600101620001d5565b6128d880620001fb6000396000f3fe608060405234801561001057600080fd5b50600436106101ef5760003560e01c806370166af71161010f578063bd85b039116100a2578063f2fde38b11610071578063f2fde38b14610455578063f4fdccf814610468578063f5298aca14610472578063f62d18881461048557600080fd5b8063bd85b039146103db578063cf42d4d9146103fc578063e985e9c514610406578063f242432a1461044257600080fd5b806389275407116100de57806389275407146103955780638da5cb5b146103a35780638dc45d9a146103b4578063a22cb465146103c857600080fd5b806370166af71461035f578063715018a614610372578063731133e91461037a5780638456cb591461038d57600080fd5b80633f4ba83a116101875780634f558e79116101565780634f558e79146102f357806351061ce8146103165780635c975abb146103415780636b20c4541461034c57600080fd5b80633f4ba83a146102a8578063404d2195146102b05780634ba7db30146102ba5780634e1273f4146102d357600080fd5b80631824a46b116101c35780631824a46b146102725780631f7fdffa1461027a5780632eb2c2d61461028d5780633d4327fb146102a057600080fd5b8062fdd58e146101f457806301ffc9a71461021a57806302fe53051461023d5780630e89341c14610252575b600080fd5b610207610202366004611d24565b610498565b6040519081526020015b60405180910390f35b61022d610228366004611d64565b610531565b6040519015158152602001610211565b61025061024b366004611e29565b610583565b005b610265610260366004611e7a565b6105b9565b6040516102119190611ee0565b61025061064d565b610250610288366004611fa8565b610679565b61025061029b366004612041565b6106f1565b610207610788565b61025061082f565b61020761016c5481565b61015f54600090815261012d6020526040902054610207565b6102e66102e13660046120eb565b610861565b60405161021191906121f1565b61022d610301366004611e7a565b600090815261012d6020526040902054151590565b610329610324366004611e7a565b61098b565b6040516001600160a01b039091168152602001610211565b60c95460ff1661022d565b61025061035a366004612204565b6109ac565b61020761036d366004611e7a565b6109f4565b610250610a0c565b610250610388366004612278565b610a40565b610250610b1e565b61016d5461022d9060ff1681565b6097546001600160a01b0316610329565b61016054610329906001600160a01b031681565b6102506103d63660046122cd565b610b50565b6102076103e9366004611e7a565b600090815261012d602052604090205490565b6102076101615481565b61022d610414366004612309565b6001600160a01b03918216600090815260666020908152604080832093909416825291909152205460ff1690565b61025061045036600461233c565b610b5f565b6102506104633660046123a1565b610ba4565b61020761015f5481565b6102506104803660046123bc565b610c3c565b610250610493366004611e29565b610c7f565b60006001600160a01b0383166105095760405162461bcd60e51b815260206004820152602b60248201527f455243313135353a2062616c616e636520717565727920666f7220746865207a60448201526a65726f206164647265737360a81b60648201526084015b60405180910390fd5b5060009081526065602090815260408083206001600160a01b03949094168352929052205490565b60006001600160e01b03198216636cdb3d1360e11b148061056257506001600160e01b031982166303a24d0760e21b145b8061057d57506301ffc9a760e01b6001600160e01b03198316145b92915050565b6097546001600160a01b031633146105ad5760405162461bcd60e51b8152600401610500906123ef565b6105b681610d83565b50565b6060606780546105c890612424565b80601f01602080910402602001604051908101604052809291908181526020018280546105f490612424565b80156106415780601f1061061657610100808354040283529160200191610641565b820191906000526020600020905b81548152906001019060200180831161062457829003601f168201915b50505050509050919050565b6097546001600160a01b031633146106775760405162461bcd60e51b8152600401610500906123ef565b565b6097546001600160a01b031633146106a35760405162461bcd60e51b8152600401610500906123ef565b60405162461bcd60e51b815260206004820152601f60248201527f64697361626c656420666f72206e6f772e20757365205f6d696e74282e2e29006044820152606401610500565b50505050565b6001600160a01b03851633148061070d575061070d8533610414565b6107745760405162461bcd60e51b815260206004820152603260248201527f455243313135353a207472616e736665722063616c6c6572206973206e6f74206044820152711bdddb995c881b9bdc88185c1c1c9bdd995960721b6064820152608401610500565b6107818585858585610e97565b5050505050565b6097546000906001600160a01b031633146107b55760405162461bcd60e51b8152600401610500906123ef565b61016d805460ff1916600117905561015f54600090815261012d60205260408120546107e2906001612475565b6040516020016107f491815260200190565b60405160208183030381529060405290506108153361015f54600184611044565b505061015f54600090815261012d60205260409020545b90565b6097546001600160a01b031633146108595760405162461bcd60e51b8152600401610500906123ef565b610677611156565b606081518351146108c65760405162461bcd60e51b815260206004820152602960248201527f455243313135353a206163636f756e747320616e6420696473206c656e677468604482015268040dad2e6dac2e8c6d60bb1b6064820152608401610500565b6000835167ffffffffffffffff8111156108e2576108e2611d88565b60405190808252806020026020018201604052801561090b578160200160208202803683370190505b50905060005b84518110156109835761095685828151811061092f5761092f61248d565b60200260200101518583815181106109495761094961248d565b6020026020010151610498565b8282815181106109685761096861248d565b602090810291909101015261097c816124a3565b9050610911565b509392505050565b610167816005811061099c57600080fd5b01546001600160a01b0316905081565b6001600160a01b0383163314806109c857506109c88333610414565b6109e45760405162461bcd60e51b8152600401610500906124be565b6109ef8383836111e9565b505050565b6101628160058110610a0557600080fd5b0154905081565b6097546001600160a01b03163314610a365760405162461bcd60e51b8152600401610500906123ef565b610677600061137a565b6097546001600160a01b03163314610a6a5760405162461bcd60e51b8152600401610500906123ef565b6005610a8661015f54600090815261012d602052604090205490565b10610ac55760405162461bcd60e51b815260206004820152600f60248201526e63616e2774206d696e74206d6f726560881b6044820152606401610500565b83610167610ae361015f54600090815261012d602052604090205490565b60058110610af357610af361248d565b0180546001600160a01b0319166001600160a01b03929092169190911790556106eb84848484611044565b6097546001600160a01b03163314610b485760405162461bcd60e51b8152600401610500906123ef565b6106776113cc565b610b5b338383611447565b5050565b6001600160a01b038516331480610b7b5750610b7b8533610414565b610b975760405162461bcd60e51b8152600401610500906124be565b6107818585858585611528565b6097546001600160a01b03163314610bce5760405162461bcd60e51b8152600401610500906123ef565b6001600160a01b038116610c335760405162461bcd60e51b815260206004820152602660248201527f4f776e61626c653a206e6577206f776e657220697320746865207a65726f206160448201526564647265737360d01b6064820152608401610500565b6105b68161137a565b6001600160a01b038316331480610c585750610c588333610414565b610c745760405162461bcd60e51b8152600401610500906124be565b6109ef838383611649565b600054610100900460ff16610c9a5760005460ff1615610c9e565b303b155b610d015760405162461bcd60e51b815260206004820152602e60248201527f496e697469616c697a61626c653a20636f6e747261637420697320616c72656160448201526d191e481a5b9a5d1a585b1a5e995960921b6064820152608401610500565b600054610100900460ff16158015610d23576000805461ffff19166101011790555b610d2c8261174e565b610d3461177e565b610d3c6117ad565b610d446117dc565b610d4c6117dc565b61016080546001600160a01b031916331790558015610b5b576000805461ff00191690555050565b6001600160a01b03163b151590565b8051610b5b906067906020840190611c6f565b8451811015610e2f57838181518110610db157610db161248d565b602002602001015160656000878481518110610dcf57610dcf61248d565b602002602001015181526020019081526020016000206000886001600160a01b03166001600160a01b031681526020019081526020016000206000828254610e179190612475565b90915550819050610e27816124a3565b915050610d96565b50846001600160a01b031660006001600160a01b0316826001600160a01b03167f4a39dc06d4c0dbc64b70af90fd698a233a518aa5d07e595d983b8c0526c8f7fb8787604051610e8092919061254f565b60405180910390a461078181600087878787611857565b8151835114610eb85760405162461bcd60e51b815260040161050090612507565b6001600160a01b038416610ede5760405162461bcd60e51b81526004016105009061257d565b33610eed818787878787611803565b60005b8451811015610fd6576000858281518110610f0d57610f0d61248d565b602002602001015190506000858381518110610f2b57610f2b61248d565b60209081029190910181015160008481526065835260408082206001600160a01b038e168352909352919091205490915081811015610f7c5760405162461bcd60e51b8152600401610500906125c2565b60008381526065602090815260408083206001600160a01b038e8116855292528083208585039055908b16825281208054849290610fbb908490612475565b9250508190555050505080610fcf906124a3565b9050610ef0565b50846001600160a01b0316866001600160a01b0316826001600160a01b03167f4a39dc06d4c0dbc64b70af90fd698a233a518aa5d07e595d983b8c0526c8f7fb878760405161102692919061254f565b60405180910390a461103c818787878787611857565b505050505050565b6001600160a01b0384166110a45760405162461bcd60e51b815260206004820152602160248201527f455243313135353a206d696e7420746f20746865207a65726f206164647265736044820152607360f81b6064820152608401610500565b336110c4816000876110b5886119c2565b6110be886119c2565b87611803565b60008481526065602090815260408083206001600160a01b0389168452909152812080548592906110f6908490612475565b909155505060408051858152602081018590526001600160a01b0380881692600092918516917fc3d58168c5ae7397731d063d5bbf3d657854427343f4c083240f7aacaa2d0f62910160405180910390a461078181600087878787611a0d565b60c95460ff1661119f5760405162461bcd60e51b815260206004820152601460248201527314185d5cd8589b194e881b9bdd081c185d5cd95960621b6044820152606401610500565b60c9805460ff191690557f5db9ee0a495bf2e6ff9c91a7834c1ba4fdd244a5e8aa4e537bd38aeae4b073aa335b6040516001600160a01b03909116815260200160405180910390a1565b6001600160a01b03831661120f5760405162461bcd60e51b81526004016105009061260c565b80518251146112305760405162461bcd60e51b815260040161050090612507565b600033905061125381856000868660405180602001604052806000815250611803565b60005b835181101561131b5760008482815181106112735761127361248d565b6020026020010151905060008483815181106112915761129161248d565b60209081029190910181015160008481526065835260408082206001600160a01b038c1683529093529190912054909150818110156112e25760405162461bcd60e51b81526004016105009061264f565b60009283526065602090815260408085206001600160a01b038b1686529091529092209103905580611313816124a3565b915050611256565b5060006001600160a01b0316846001600160a01b0316826001600160a01b03167f4a39dc06d4c0dbc64b70af90fd698a233a518aa5d07e595d983b8c0526c8f7fb868660405161136c92919061254f565b60405180910390a450505050565b609780546001600160a01b038381166001600160a01b0319831681179093556040519116919082907f8be0079c531659141344cd1fd0a4f28419497f9722a3daafe3b4186f6b6457e090600090a35050565b60c95460ff16156114125760405162461bcd60e51b815260206004820152601060248201526f14185d5cd8589b194e881c185d5cd95960821b6044820152606401610500565b60c9805460ff191660011790557f62e78cea01bee320cd4e420270b5ea74000d11b0c9f74754ebdbfc544b05a2586111cc3390565b816001600160a01b0316836001600160a01b031614156114bb5760405162461bcd60e51b815260206004820152602960248201527f455243313135353a2073657474696e6720617070726f76616c20737461747573604482015268103337b91039b2b63360b91b6064820152608401610500565b6001600160a01b03838116600081815260666020908152604080832094871680845294825291829020805460ff191686151590811790915591519182527f17307eab39ab6107e8899845ad3d59bd9653f200f220920489ca2b5937696c31910160405180910390a3505050565b6001600160a01b03841661154e5760405162461bcd60e51b81526004016105009061257d565b3361155e8187876110b5886119c2565b60008481526065602090815260408083206001600160a01b038a168452909152902054838110156115a15760405162461bcd60e51b8152600401610500906125c2565b60008581526065602090815260408083206001600160a01b038b81168552925280832087850390559088168252812080548692906115e0908490612475565b909155505060408051868152602081018690526001600160a01b03808916928a821692918616917fc3d58168c5ae7397731d063d5bbf3d657854427343f4c083240f7aacaa2d0f62910160405180910390a4611640828888888888611a0d565b50505050505050565b6001600160a01b03831661166f5760405162461bcd60e51b81526004016105009061260c565b3361169e81856000611680876119c2565b611689876119c2565b60405180602001604052806000815250611803565b60008381526065602090815260408083206001600160a01b0388168452909152902054828110156116e15760405162461bcd60e51b81526004016105009061264f565b60008481526065602090815260408083206001600160a01b03898116808652918452828520888703905582518981529384018890529092908616917fc3d58168c5ae7397731d063d5bbf3d657854427343f4c083240f7aacaa2d0f62910160405180910390a45050505050565b600054610100900460ff166117755760405162461bcd60e51b815260040161050090612693565b6105b681611ad7565b600054610100900460ff166117a55760405162461bcd60e51b815260040161050090612693565b610677611afe565b600054610100900460ff166117d45760405162461bcd60e51b815260040161050090612693565b610677611b2e565b600054610100900460ff166106775760405162461bcd60e51b815260040161050090612693565b60c95460ff16156118495760405162461bcd60e51b815260206004820152601060248201526f14185d5cd8589b194e881c185d5cd95960821b6044820152606401610500565b61103c868686868686611b61565b6001600160a01b0384163b1561103c5760405163bc197c8160e01b81526001600160a01b0385169063bc197c819061189b90899089908890889088906004016126de565b602060405180830381600087803b1580156118b557600080fd5b505af19250505080156118e5575060408051601f3d908101601f191682019092526118e29181019061273c565b60015b611992576118f1612759565b806308c379a0141561192b5750611906612774565b80611911575061192d565b8060405162461bcd60e51b81526004016105009190611ee0565b505b60405162461bcd60e51b815260206004820152603460248201527f455243313135353a207472616e7366657220746f206e6f6e20455243313135356044820152732932b1b2b4bb32b91034b6b83632b6b2b73a32b960611b6064820152608401610500565b6001600160e01b0319811663bc197c8160e01b146116405760405162461bcd60e51b8152600401610500906127fe565b604080516001808252818301909252606091600091906020808301908036833701905050905082816000815181106119fc576119fc61248d565b602090810291909101015292915050565b6001600160a01b0384163b1561103c5760405163f23a6e6160e01b81526001600160a01b0385169063f23a6e6190611a519089908990889088908890600401612846565b602060405180830381600087803b158015611a6b57600080fd5b505af1925050508015611a9b575060408051601f3d908101601f19168201909252611a989181019061273c565b60015b611aa7576118f1612759565b6001600160e01b0319811663f23a6e6160e01b146116405760405162461bcd60e51b8152600401610500906127fe565b600054610100900460ff166105ad5760405162461bcd60e51b815260040161050090612693565b600054610100900460ff16611b255760405162461bcd60e51b815260040161050090612693565b6106773361137a565b600054610100900460ff16611b555760405162461bcd60e51b815260040161050090612693565b60c9805460ff19169055565b6001600160a01b038516611be95760005b8351811015611be757828181518110611b8d57611b8d61248d565b602002602001015161012d6000868481518110611bac57611bac61248d565b602002602001015181526020019081526020016000206000828254611bd19190612475565b90915550611be09050816124a3565b9050611b72565b505b6001600160a01b03841661103c5760005b835181101561164057828181518110611c1557611c1561248d565b602002602001015161012d6000868481518110611c3457611c3461248d565b602002602001015181526020019081526020016000206000828254611c59919061288b565b90915550611c689050816124a3565b9050611bfa565b828054611c7b90612424565b90600052602060002090601f016020900481019282611c9d5760008555611ce3565b82601f10611cb657805160ff1916838001178555611ce3565b82800160010185558215611ce3579182015b82811115611ce3578251825591602001919060010190611cc8565b50611cef929150611cf3565b5090565b5b80821115611cef5760008155600101611cf4565b80356001600160a01b0381168114611d1f57600080fd5b919050565b60008060408385031215611d3757600080fd5b611d4083611d08565b946020939093013593505050565b6001600160e01b0319811681146105b657600080fd5b600060208284031215611d7657600080fd5b8135611d8181611d4e565b9392505050565b634e487b7160e01b600052604160045260246000fd5b601f8201601f1916810167ffffffffffffffff81118282101715611dc457611dc4611d88565b6040525050565b600067ffffffffffffffff831115611de557611de5611d88565b604051611dfc601f8501601f191660200182611d9e565b809150838152848484011115611e1157600080fd5b83836020830137600060208583010152509392505050565b600060208284031215611e3b57600080fd5b813567ffffffffffffffff811115611e5257600080fd5b8201601f81018413611e6357600080fd5b611e7284823560208401611dcb565b949350505050565b600060208284031215611e8c57600080fd5b5035919050565b6000815180845260005b81811015611eb957602081850181015186830182015201611e9d565b81811115611ecb576000602083870101525b50601f01601f19169290920160200192915050565b602081526000611d816020830184611e93565b600067ffffffffffffffff821115611f0d57611f0d611d88565b5060051b60200190565b600082601f830112611f2857600080fd5b81356020611f3582611ef3565b604051611f428282611d9e565b83815260059390931b8501820192828101915086841115611f6257600080fd5b8286015b84811015611f7d5780358352918301918301611f66565b509695505050505050565b600082601f830112611f9957600080fd5b611d8183833560208501611dcb565b60008060008060808587031215611fbe57600080fd5b611fc785611d08565b9350602085013567ffffffffffffffff80821115611fe457600080fd5b611ff088838901611f17565b9450604087013591508082111561200657600080fd5b61201288838901611f17565b9350606087013591508082111561202857600080fd5b5061203587828801611f88565b91505092959194509250565b600080600080600060a0868803121561205957600080fd5b61206286611d08565b945061207060208701611d08565b9350604086013567ffffffffffffffff8082111561208d57600080fd5b61209989838a01611f17565b945060608801359150808211156120af57600080fd5b6120bb89838a01611f17565b935060808801359150808211156120d157600080fd5b506120de88828901611f88565b9150509295509295909350565b600080604083850312156120fe57600080fd5b823567ffffffffffffffff8082111561211657600080fd5b818501915085601f83011261212a57600080fd5b8135602061213782611ef3565b6040516121448282611d9e565b83815260059390931b850182019282810191508984111561216457600080fd5b948201945b838610156121895761217a86611d08565b82529482019490820190612169565b9650508601359250508082111561219f57600080fd5b506121ac85828601611f17565b9150509250929050565b600081518084526020808501945080840160005b838110156121e6578151875295820195908201906001016121ca565b509495945050505050565b602081526000611d8160208301846121b6565b60008060006060848603121561221957600080fd5b61222284611d08565b9250602084013567ffffffffffffffff8082111561223f57600080fd5b61224b87838801611f17565b9350604086013591508082111561226157600080fd5b5061226e86828701611f17565b9150509250925092565b6000806000806080858703121561228e57600080fd5b61229785611d08565b93506020850135925060408501359150606085013567ffffffffffffffff8111156122c157600080fd5b61203587828801611f88565b600080604083850312156122e057600080fd5b6122e983611d08565b9150602083013580151581146122fe57600080fd5b809150509250929050565b6000806040838503121561231c57600080fd5b61232583611d08565b915061233360208401611d08565b90509250929050565b600080600080600060a0868803121561235457600080fd5b61235d86611d08565b945061236b60208701611d08565b93506040860135925060608601359150608086013567ffffffffffffffff81111561239557600080fd5b6120de88828901611f88565b6000602082840312156123b357600080fd5b611d8182611d08565b6000806000606084860312156123d157600080fd5b6123da84611d08565b95602085013595506040909401359392505050565b6020808252818101527f4f776e61626c653a2063616c6c6572206973206e6f7420746865206f776e6572604082015260600190565b600181811c9082168061243857607f821691505b6020821081141561245957634e487b7160e01b600052602260045260246000fd5b50919050565b634e487b7160e01b600052601160045260246000fd5b600082198211156124885761248861245f565b500190565b634e487b7160e01b600052603260045260246000fd5b60006000198214156124b7576124b761245f565b5060010190565b60208082526029908201527f455243313135353a2063616c6c6572206973206e6f74206f776e6572206e6f7260408201526808185c1c1c9bdd995960ba1b606082015260800190565b60208082526028908201527f455243313135353a2069647320616e6420616d6f756e7473206c656e677468206040820152670dad2e6dac2e8c6d60c31b606082015260800190565b60408152600061256260408301856121b6565b828103602084015261257481856121b6565b95945050505050565b60208082526025908201527f455243313135353a207472616e7366657220746f20746865207a65726f206164604082015264647265737360d81b606082015260800190565b6020808252602a908201527f455243313135353a20696e73756666696369656e742062616c616e636520666f60408201526939103a3930b739b332b960b11b606082015260800190565b60208082526023908201527f455243313135353a206275726e2066726f6d20746865207a65726f206164647260408201526265737360e81b606082015260800190565b60208082526024908201527f455243313135353a206275726e20616d6f756e7420657863656564732062616c604082015263616e636560e01b606082015260800190565b6020808252602b908201527f496e697469616c697a61626c653a20636f6e7472616374206973206e6f74206960408201526a6e697469616c697a696e6760a81b606082015260800190565b6001600160a01b0386811682528516602082015260a06040820181905260009061270a908301866121b6565b828103606084015261271c81866121b6565b905082810360808401526127308185611e93565b98975050505050505050565b60006020828403121561274e57600080fd5b8151611d8181611d4e565b600060033d111561082c5760046000803e5060005160e01c90565b600060443d10156127825790565b6040516003193d81016004833e81513d67ffffffffffffffff81602484011181841117156127b257505050505090565b82850191508151818111156127ca5750505050505090565b843d87010160208285010111156127e45750505050505090565b6127f360208286010187611d9e565b509095945050505050565b60208082526028908201527f455243313135353a204552433131353552656365697665722072656a656374656040820152676420746f6b656e7360c01b606082015260800190565b6001600160a01b03868116825285166020820152604081018490526060810183905260a06080820181905260009061288090830184611e93565b979650505050505050565b60008282101561289d5761289d61245f565b50039056fea2646970667358221220e86cf6c04dcb76f34676312d56888989bfee23bcc052525c7ebf0c4c304564c864736f6c63430008090033ef14a10db1c6a9e9bc0361fb487716acd51f68d6d1b2831e0d8878dc26e2faae0aec9b08bc8c2cb62a91f52d33e3d77da4b3f3a63fc8b542a93abe3902ba929ca26469706673582212200c4619c20c3cb47deaaa10fc8bf9734d808be4ae3ed963d5c511f2c86d13a31e64736f6c63430008090033",
  "devdoc": {
    "author": "Zachary Fogg <me@zfo.gg>",
    "custom:security-contact": "nohackplz@phlote.xyz",
    "details": "Please check the tests for this contract when making changes!",
    "kind": "dev",
    "methods": {
      "constructor": {
        "custom:oz-upgrades-unsafe-allow": "constructor"
      },
      "curate(address)": {
        "details": "Curate a Hotdrop NFT (un-curated) that was submitted to us.",
        "params": {
          "_hotdrop": "The address of the hotdrop to curate."
        }
      },
      "getRoleAdmin(bytes32)": {
        "details": "Returns the admin role that controls `role`. See {grantRole} and {revokeRole}. To change a role's admin, use {_setRoleAdmin}."
      },
      "getRoleMember(bytes32,uint256)": {
        "details": "Returns one of the accounts that have `role`. `index` must be a value between 0 and {getRoleMemberCount}, non-inclusive. Role bearers are not sorted in any particular way, and their ordering may change at any point. WARNING: When using {getRoleMember} and {getRoleMemberCount}, make sure you perform all queries on the same block. See the following https://forum.openzeppelin.com/t/iterating-over-elements-on-enumerableset-in-openzeppelin-contracts/2296[forum post] for more information."
      },
      "getRoleMemberCount(bytes32)": {
        "details": "Returns the number of accounts that have `role`. Can be used together with {getRoleMember} to enumerate all bearers of a role."
      },
      "grantCuratorRole(address)": {
        "details": "Give an address the `CURATOR` role.",
        "params": {
          "_newCurator": "The address of the curator who has enough PhloteVote tokes to curate for us."
        }
      },
      "grantRole(bytes32,address)": {
        "details": "Grants `role` to `account`. If `account` had not been already granted `role`, emits a {RoleGranted} event. Requirements: - the caller must have ``role``'s admin role."
      },
      "hasRole(bytes32,address)": {
        "details": "Returns `true` if `account` has been granted `role`."
      },
      "initialize(address,address,address)": {
        "details": "The constructor function. It also calls the upgrade function.",
        "params": {
          "_vote": "Phlote's ERC20 DAO token."
        }
      },
      "onUpgrade(address,address,address)": {
        "details": "The upgrade function. To be called by the constructor as well.",
        "params": {
          "_vote": "Phlote's ERC20 DAO token."
        }
      },
      "owner()": {
        "details": "Returns the address of the current owner."
      },
      "pause()": {
        "details": "To allow functionality via contract owner action."
      },
      "paused()": {
        "details": "Returns true if the contract is paused, and false otherwise."
      },
      "renounceOwnership()": {
        "details": "Leaves the contract without owner. It will not be possible to call `onlyOwner` functions anymore. Can only be called by the current owner. NOTE: Renouncing ownership will leave the contract without an owner, thereby removing any functionality that is only available to the owner."
      },
      "renounceRole(bytes32,address)": {
        "details": "Revokes `role` from the calling account. Roles are often managed via {grantRole} and {revokeRole}: this function's purpose is to provide a mechanism for accounts to lose their privileges if they are compromised (such as when a trusted device is misplaced). If the calling account had been revoked `role`, emits a {RoleRevoked} event. Requirements: - the caller must be `account`."
      },
      "revokeCuratorRole(address)": {
        "details": "Revoke an address's `CURATOR` role.",
        "params": {
          "_oldCurator": "The address of the curator to disallow from Phlote curation."
        }
      },
      "revokeRole(bytes32,address)": {
        "details": "Revokes `role` from `account`. If `account` had been granted `role`, emits a {RoleRevoked} event. Requirements: - the caller must have ``role``'s admin role."
      },
      "submit(string)": {
        "details": "Create an NFT (\"Hotdrop\") of your musical internet findings that may be curated in the future.",
        "params": {
          "_ipfsURI": "The ipfs://Qm... URI of the metadata for this submission."
        },
        "returns": {
          "hotdrop": "The address of the new Hotdrop contract that was deployed from this submission."
        }
      },
      "supportsInterface(bytes4)": {
        "details": "See {IERC165-supportsInterface}."
      },
      "transferOwnership(address)": {
        "details": "Transfers ownership of the contract to a new account (`newOwner`). Can only be called by the current owner."
      },
      "unpause()": {
        "details": "To disallow functionality via contract owner action."
      },
      "withdraw()": {
        "details": "The owner may withdraw all of the native funds."
      },
      "withdraw(address,uint256)": {
        "details": "The owner may withdraw any ERC20 token.",
        "params": {
          "_amount": "The balance of native currency to withdraw.",
          "_token": "An ERC20 token of which we have a balance."
        }
      },
      "withdraw(uint256)": {
        "details": "The owner may withdraw some of the native funds.",
        "params": {
          "_amount": "The balance of native currency to withdraw."
        }
      }
    },
    "title": "A factor and manager for \"Hotdrop\" NFTs (Phlote user-submitted-content).",
    "version": 1
  },
  "userdoc": {
    "kind": "user",
    "methods": {},
    "notice": "This contract's events should be indexed for use by front-ends.",
    "version": 1
  },
  "storageLayout": {
    "storage": [
      {
        "astId": 780,
        "contract": "contracts/Curator.sol:Curator",
        "label": "_initialized",
        "offset": 0,
        "slot": "0",
        "type": "t_bool"
      },
      {
        "astId": 783,
        "contract": "contracts/Curator.sol:Curator",
        "label": "_initializing",
        "offset": 1,
        "slot": "0",
        "type": "t_bool"
      },
      {
        "astId": 4672,
        "contract": "contracts/Curator.sol:Curator",
        "label": "__gap",
        "offset": 0,
        "slot": "1",
        "type": "t_array(t_uint256)50_storage"
      },
      {
        "astId": 868,
        "contract": "contracts/Curator.sol:Curator",
        "label": "_paused",
        "offset": 0,
        "slot": "51",
        "type": "t_bool"
      },
      {
        "astId": 957,
        "contract": "contracts/Curator.sol:Curator",
        "label": "__gap",
        "offset": 0,
        "slot": "52",
        "type": "t_array(t_uint256)49_storage"
      },
      {
        "astId": 582,
        "contract": "contracts/Curator.sol:Curator",
        "label": "_owner",
        "offset": 0,
        "slot": "101",
        "type": "t_address"
      },
      {
        "astId": 694,
        "contract": "contracts/Curator.sol:Curator",
        "label": "__gap",
        "offset": 0,
        "slot": "102",
        "type": "t_array(t_uint256)49_storage"
      },
      {
        "astId": 5550,
        "contract": "contracts/Curator.sol:Curator",
        "label": "__gap",
        "offset": 0,
        "slot": "151",
        "type": "t_array(t_uint256)50_storage"
      },
      {
        "astId": 184,
        "contract": "contracts/Curator.sol:Curator",
        "label": "_roles",
        "offset": 0,
        "slot": "201",
        "type": "t_mapping(t_bytes32,t_struct(RoleData)179_storage)"
      },
      {
        "astId": 472,
        "contract": "contracts/Curator.sol:Curator",
        "label": "__gap",
        "offset": 0,
        "slot": "202",
        "type": "t_array(t_uint256)49_storage"
      },
      {
        "astId": 33,
        "contract": "contracts/Curator.sol:Curator",
        "label": "_roleMembers",
        "offset": 0,
        "slot": "251",
        "type": "t_mapping(t_bytes32,t_struct(AddressSet)6668_storage)"
      },
      {
        "astId": 143,
        "contract": "contracts/Curator.sol:Curator",
        "label": "__gap",
        "offset": 0,
        "slot": "252",
        "type": "t_array(t_uint256)49_storage"
      },
      {
        "astId": 7227,
        "contract": "contracts/Curator.sol:Curator",
        "label": "vote",
        "offset": 0,
        "slot": "301",
        "type": "t_contract(PhloteVote)8153"
      },
      {
        "astId": 7229,
        "contract": "contracts/Curator.sol:Curator",
        "label": "treasury",
        "offset": 0,
        "slot": "302",
        "type": "t_address"
      },
      {
        "astId": 7231,
        "contract": "contracts/Curator.sol:Curator",
        "label": "curatorTokenMinimum",
        "offset": 0,
        "slot": "303",
        "type": "t_uint256"
      },
      {
        "astId": 7233,
        "contract": "contracts/Curator.sol:Curator",
        "label": "curatorAdmin",
        "offset": 0,
        "slot": "304",
        "type": "t_address"
      }
    ],
    "types": {
      "t_address": {
        "encoding": "inplace",
        "label": "address",
        "numberOfBytes": "20"
      },
      "t_array(t_bytes32)dyn_storage": {
        "base": "t_bytes32",
        "encoding": "dynamic_array",
        "label": "bytes32[]",
        "numberOfBytes": "32"
      },
      "t_array(t_uint256)49_storage": {
        "base": "t_uint256",
        "encoding": "inplace",
        "label": "uint256[49]",
        "numberOfBytes": "1568"
      },
      "t_array(t_uint256)50_storage": {
        "base": "t_uint256",
        "encoding": "inplace",
        "label": "uint256[50]",
        "numberOfBytes": "1600"
      },
      "t_bool": {
        "encoding": "inplace",
        "label": "bool",
        "numberOfBytes": "1"
      },
      "t_bytes32": {
        "encoding": "inplace",
        "label": "bytes32",
        "numberOfBytes": "32"
      },
      "t_contract(PhloteVote)8153": {
        "encoding": "inplace",
        "label": "contract PhloteVote",
        "numberOfBytes": "20"
      },
      "t_mapping(t_address,t_bool)": {
        "encoding": "mapping",
        "key": "t_address",
        "label": "mapping(address => bool)",
        "numberOfBytes": "32",
        "value": "t_bool"
      },
      "t_mapping(t_bytes32,t_struct(AddressSet)6668_storage)": {
        "encoding": "mapping",
        "key": "t_bytes32",
        "label": "mapping(bytes32 => struct EnumerableSetUpgradeable.AddressSet)",
        "numberOfBytes": "32",
        "value": "t_struct(AddressSet)6668_storage"
      },
      "t_mapping(t_bytes32,t_struct(RoleData)179_storage)": {
        "encoding": "mapping",
        "key": "t_bytes32",
        "label": "mapping(bytes32 => struct AccessControlUpgradeable.RoleData)",
        "numberOfBytes": "32",
        "value": "t_struct(RoleData)179_storage"
      },
      "t_mapping(t_bytes32,t_uint256)": {
        "encoding": "mapping",
        "key": "t_bytes32",
        "label": "mapping(bytes32 => uint256)",
        "numberOfBytes": "32",
        "value": "t_uint256"
      },
      "t_struct(AddressSet)6668_storage": {
        "encoding": "inplace",
        "label": "struct EnumerableSetUpgradeable.AddressSet",
        "members": [
          {
            "astId": 6667,
            "contract": "contracts/Curator.sol:Curator",
            "label": "_inner",
            "offset": 0,
            "slot": "0",
            "type": "t_struct(Set)6367_storage"
          }
        ],
        "numberOfBytes": "64"
      },
      "t_struct(RoleData)179_storage": {
        "encoding": "inplace",
        "label": "struct AccessControlUpgradeable.RoleData",
        "members": [
          {
            "astId": 176,
            "contract": "contracts/Curator.sol:Curator",
            "label": "members",
            "offset": 0,
            "slot": "0",
            "type": "t_mapping(t_address,t_bool)"
          },
          {
            "astId": 178,
            "contract": "contracts/Curator.sol:Curator",
            "label": "adminRole",
            "offset": 0,
            "slot": "1",
            "type": "t_bytes32"
          }
        ],
        "numberOfBytes": "64"
      },
      "t_struct(Set)6367_storage": {
        "encoding": "inplace",
        "label": "struct EnumerableSetUpgradeable.Set",
        "members": [
          {
            "astId": 6362,
            "contract": "contracts/Curator.sol:Curator",
            "label": "_values",
            "offset": 0,
            "slot": "0",
            "type": "t_array(t_bytes32)dyn_storage"
          },
          {
            "astId": 6366,
            "contract": "contracts/Curator.sol:Curator",
            "label": "_indexes",
            "offset": 0,
            "slot": "1",
            "type": "t_mapping(t_bytes32,t_uint256)"
          }
        ],
        "numberOfBytes": "64"
      },
      "t_uint256": {
        "encoding": "inplace",
        "label": "uint256",
        "numberOfBytes": "32"
      }
    }
  }
}