{
  "address": "0xFd9cebbed34f9127391af8468125Ad3f8C223A9B",
  "abi": [
    {
      "inputs": [],
      "stateMutability": "nonpayable",
      "type": "constructor"
    },
    {
      "anonymous": false,
      "inputs": [
        {
          "indexed": true,
          "internalType": "address",
          "name": "account",
          "type": "address"
        },
        {
          "indexed": true,
          "internalType": "address",
          "name": "operator",
          "type": "address"
        },
        {
          "indexed": false,
          "internalType": "bool",
          "name": "approved",
          "type": "bool"
        }
      ],
      "name": "ApprovalForAll",
      "type": "event"
    },
    {
      "anonymous": false,
      "inputs": [
        {
          "indexed": true,
          "internalType": "address",
          "name": "previousOwner",
          "type": "address"
        },
        {
          "indexed": true,
          "internalType": "address",
          "name": "newOwner",
          "type": "address"
        }
      ],
      "name": "OwnershipTransferred",
      "type": "event"
    },
    {
      "anonymous": false,
      "inputs": [
        {
          "indexed": false,
          "internalType": "address",
          "name": "account",
          "type": "address"
        }
      ],
      "name": "Paused",
      "type": "event"
    },
    {
      "anonymous": false,
      "inputs": [
        {
          "indexed": true,
          "internalType": "address",
          "name": "operator",
          "type": "address"
        },
        {
          "indexed": true,
          "internalType": "address",
          "name": "from",
          "type": "address"
        },
        {
          "indexed": true,
          "internalType": "address",
          "name": "to",
          "type": "address"
        },
        {
          "indexed": false,
          "internalType": "uint256[]",
          "name": "ids",
          "type": "uint256[]"
        },
        {
          "indexed": false,
          "internalType": "uint256[]",
          "name": "values",
          "type": "uint256[]"
        }
      ],
      "name": "TransferBatch",
      "type": "event"
    },
    {
      "anonymous": false,
      "inputs": [
        {
          "indexed": true,
          "internalType": "address",
          "name": "operator",
          "type": "address"
        },
        {
          "indexed": true,
          "internalType": "address",
          "name": "from",
          "type": "address"
        },
        {
          "indexed": true,
          "internalType": "address",
          "name": "to",
          "type": "address"
        },
        {
          "indexed": false,
          "internalType": "uint256",
          "name": "id",
          "type": "uint256"
        },
        {
          "indexed": false,
          "internalType": "uint256",
          "name": "value",
          "type": "uint256"
        }
      ],
      "name": "TransferSingle",
      "type": "event"
    },
    {
      "anonymous": false,
      "inputs": [
        {
          "indexed": false,
          "internalType": "string",
          "name": "value",
          "type": "string"
        },
        {
          "indexed": true,
          "internalType": "uint256",
          "name": "id",
          "type": "uint256"
        }
      ],
      "name": "URI",
      "type": "event"
    },
    {
      "anonymous": false,
      "inputs": [
        {
          "indexed": false,
          "internalType": "address",
          "name": "account",
          "type": "address"
        }
      ],
      "name": "Unpaused",
      "type": "event"
    },
    {
      "inputs": [
        {
          "internalType": "address",
          "name": "account",
          "type": "address"
        },
        {
          "internalType": "uint256",
          "name": "id",
          "type": "uint256"
        }
      ],
      "name": "balanceOf",
      "outputs": [
        {
          "internalType": "uint256",
          "name": "",
          "type": "uint256"
        }
      ],
      "stateMutability": "view",
      "type": "function"
    },
    {
      "inputs": [
        {
          "internalType": "address[]",
          "name": "accounts",
          "type": "address[]"
        },
        {
          "internalType": "uint256[]",
          "name": "ids",
          "type": "uint256[]"
        }
      ],
      "name": "balanceOfBatch",
      "outputs": [
        {
          "internalType": "uint256[]",
          "name": "",
          "type": "uint256[]"
        }
      ],
      "stateMutability": "view",
      "type": "function"
    },
    {
      "inputs": [
        {
          "internalType": "address",
          "name": "account",
          "type": "address"
        },
        {
          "internalType": "uint256",
          "name": "id",
          "type": "uint256"
        },
        {
          "internalType": "uint256",
          "name": "value",
          "type": "uint256"
        }
      ],
      "name": "burn",
      "outputs": [],
      "stateMutability": "nonpayable",
      "type": "function"
    },
    {
      "inputs": [
        {
          "internalType": "address",
          "name": "account",
          "type": "address"
        },
        {
          "internalType": "uint256[]",
          "name": "ids",
          "type": "uint256[]"
        },
        {
          "internalType": "uint256[]",
          "name": "values",
          "type": "uint256[]"
        }
      ],
      "name": "burnBatch",
      "outputs": [],
      "stateMutability": "nonpayable",
      "type": "function"
    },
    {
      "inputs": [
        {
          "internalType": "uint256",
          "name": "id",
          "type": "uint256"
        }
      ],
      "name": "exists",
      "outputs": [
        {
          "internalType": "bool",
          "name": "",
          "type": "bool"
        }
      ],
      "stateMutability": "view",
      "type": "function"
    },
    {
      "inputs": [],
      "name": "initialize",
      "outputs": [],
      "stateMutability": "nonpayable",
      "type": "function"
    },
    {
      "inputs": [
        {
          "internalType": "address",
          "name": "account",
          "type": "address"
        },
        {
          "internalType": "address",
          "name": "operator",
          "type": "address"
        }
      ],
      "name": "isApprovedForAll",
      "outputs": [
        {
          "internalType": "bool",
          "name": "",
          "type": "bool"
        }
      ],
      "stateMutability": "view",
      "type": "function"
    },
    {
      "inputs": [
        {
          "internalType": "address",
          "name": "account",
          "type": "address"
        },
        {
          "internalType": "uint256",
          "name": "id",
          "type": "uint256"
        },
        {
          "internalType": "uint256",
          "name": "amount",
          "type": "uint256"
        },
        {
          "internalType": "bytes",
          "name": "data",
          "type": "bytes"
        }
      ],
      "name": "mint",
      "outputs": [],
      "stateMutability": "nonpayable",
      "type": "function"
    },
    {
      "inputs": [
        {
          "internalType": "address",
          "name": "to",
          "type": "address"
        },
        {
          "internalType": "uint256[]",
          "name": "ids",
          "type": "uint256[]"
        },
        {
          "internalType": "uint256[]",
          "name": "amounts",
          "type": "uint256[]"
        },
        {
          "internalType": "bytes",
          "name": "data",
          "type": "bytes"
        }
      ],
      "name": "mintBatch",
      "outputs": [],
      "stateMutability": "nonpayable",
      "type": "function"
    },
    {
      "inputs": [],
      "name": "onUpgrade",
      "outputs": [],
      "stateMutability": "nonpayable",
      "type": "function"
    },
    {
      "inputs": [],
      "name": "owner",
      "outputs": [
        {
          "internalType": "address",
          "name": "",
          "type": "address"
        }
      ],
      "stateMutability": "view",
      "type": "function"
    },
    {
      "inputs": [],
      "name": "pause",
      "outputs": [],
      "stateMutability": "nonpayable",
      "type": "function"
    },
    {
      "inputs": [],
      "name": "paused",
      "outputs": [
        {
          "internalType": "bool",
          "name": "",
          "type": "bool"
        }
      ],
      "stateMutability": "view",
      "type": "function"
    },
    {
      "inputs": [],
      "name": "renounceOwnership",
      "outputs": [],
      "stateMutability": "nonpayable",
      "type": "function"
    },
    {
      "inputs": [
        {
          "internalType": "address",
          "name": "from",
          "type": "address"
        },
        {
          "internalType": "address",
          "name": "to",
          "type": "address"
        },
        {
          "internalType": "uint256[]",
          "name": "ids",
          "type": "uint256[]"
        },
        {
          "internalType": "uint256[]",
          "name": "amounts",
          "type": "uint256[]"
        },
        {
          "internalType": "bytes",
          "name": "data",
          "type": "bytes"
        }
      ],
      "name": "safeBatchTransferFrom",
      "outputs": [],
      "stateMutability": "nonpayable",
      "type": "function"
    },
    {
      "inputs": [
        {
          "internalType": "address",
          "name": "from",
          "type": "address"
        },
        {
          "internalType": "address",
          "name": "to",
          "type": "address"
        },
        {
          "internalType": "uint256",
          "name": "id",
          "type": "uint256"
        },
        {
          "internalType": "uint256",
          "name": "amount",
          "type": "uint256"
        },
        {
          "internalType": "bytes",
          "name": "data",
          "type": "bytes"
        }
      ],
      "name": "safeTransferFrom",
      "outputs": [],
      "stateMutability": "nonpayable",
      "type": "function"
    },
    {
      "inputs": [
        {
          "internalType": "address",
          "name": "operator",
          "type": "address"
        },
        {
          "internalType": "bool",
          "name": "approved",
          "type": "bool"
        }
      ],
      "name": "setApprovalForAll",
      "outputs": [],
      "stateMutability": "nonpayable",
      "type": "function"
    },
    {
      "inputs": [
        {
          "internalType": "string",
          "name": "newuri",
          "type": "string"
        }
      ],
      "name": "setURI",
      "outputs": [],
      "stateMutability": "nonpayable",
      "type": "function"
    },
    {
      "inputs": [
        {
          "internalType": "bytes4",
          "name": "interfaceId",
          "type": "bytes4"
        }
      ],
      "name": "supportsInterface",
      "outputs": [
        {
          "internalType": "bool",
          "name": "",
          "type": "bool"
        }
      ],
      "stateMutability": "view",
      "type": "function"
    },
    {
      "inputs": [
        {
          "internalType": "uint256",
          "name": "id",
          "type": "uint256"
        }
      ],
      "name": "totalSupply",
      "outputs": [
        {
          "internalType": "uint256",
          "name": "",
          "type": "uint256"
        }
      ],
      "stateMutability": "view",
      "type": "function"
    },
    {
      "inputs": [
        {
          "internalType": "address",
          "name": "newOwner",
          "type": "address"
        }
      ],
      "name": "transferOwnership",
      "outputs": [],
      "stateMutability": "nonpayable",
      "type": "function"
    },
    {
      "inputs": [],
      "name": "unpause",
      "outputs": [],
      "stateMutability": "nonpayable",
      "type": "function"
    },
    {
      "inputs": [
        {
          "internalType": "uint256",
          "name": "",
          "type": "uint256"
        }
      ],
      "name": "uri",
      "outputs": [
        {
          "internalType": "string",
          "name": "",
          "type": "string"
        }
      ],
      "stateMutability": "view",
      "type": "function"
    }
  ],
  "transactionHash": "0xeedda8ecede7b4f2ee074e4ebec47862275f7d7d001a13993d1f360aa3f53196",
  "args": [],
  "numDeployments": 1,
  "solcInputHash": "5ea55c137c24c0711f3d0b7189d8875d",
  "bytecode": "0x60806040523480156200001157600080fd5b50600054610100900460ff166200002f5760005460ff161562000039565b62000039620000de565b620000a15760405162461bcd60e51b815260206004820152602e60248201527f496e697469616c697a61626c653a20636f6e747261637420697320616c72656160448201526d191e481a5b9a5d1a585b1a5e995960921b606482015260840160405180910390fd5b600054610100900460ff16158015620000c4576000805461ffff19166101011790555b8015620000d7576000805461ff00191690555b506200010b565b6000620000f630620000fc60201b62000a711760201c565b15905090565b6001600160a01b03163b151590565b612660806200011b6000396000f3fe608060405234801561001057600080fd5b506004361061014c5760003560e01c80636b20c454116100c3578063a22cb4651161007c578063a22cb465146102ac578063bd85b039146102bf578063e985e9c5146102e0578063f242432a1461031c578063f2fde38b1461032f578063f5298aca1461034257600080fd5b80636b20c45414610253578063715018a614610266578063731133e91461026e5780638129fc1c146102815780638456cb59146102895780638da5cb5b1461029157600080fd5b80631f7fdffa116101155780631f7fdffa146101d75780632eb2c2d6146101ea5780633f4ba83a146101fd5780634e1273f4146102055780634f558e79146102255780635c975abb1461024857600080fd5b8062fdd58e1461015157806301ffc9a71461017757806302fe53051461019a5780630e89341c146101af5780631824a46b146101cf575b600080fd5b61016461015f366004611a41565b610355565b6040519081526020015b60405180910390f35b61018a610185366004611a81565b6103ee565b604051901515815260200161016e565b6101ad6101a8366004611b46565b610440565b005b6101c26101bd366004611b97565b610476565b60405161016e9190611bfd565b6101ad61050a565b6101ad6101e5366004611cc5565b610536565b6101ad6101f8366004611d5e565b610572565b6101ad610609565b610218610213366004611e08565b61063b565b60405161016e9190611f0e565b61018a610233366004611b97565b600090815261012d6020526040902054151590565b60c95460ff1661018a565b6101ad610261366004611f21565b610765565b6101ad6107ad565b6101ad61027c366004611f95565b6107e1565b6101ad610817565b6101ad610910565b6097546040516001600160a01b03909116815260200161016e565b6101ad6102ba366004611fea565b610942565b6101646102cd366004611b97565b600090815261012d602052604090205490565b61018a6102ee366004612026565b6001600160a01b03918216600090815260666020908152604080832093909416825291909152205460ff1690565b6101ad61032a366004612059565b610951565b6101ad61033d3660046120be565b610996565b6101ad6103503660046120d9565b610a2e565b60006001600160a01b0383166103c65760405162461bcd60e51b815260206004820152602b60248201527f455243313135353a2062616c616e636520717565727920666f7220746865207a60448201526a65726f206164647265737360a81b60648201526084015b60405180910390fd5b5060009081526065602090815260408083206001600160a01b03949094168352929052205490565b60006001600160e01b03198216636cdb3d1360e11b148061041f57506001600160e01b031982166303a24d0760e21b145b8061043a57506301ffc9a760e01b6001600160e01b03198316145b92915050565b6097546001600160a01b0316331461046a5760405162461bcd60e51b81526004016103bd9061210c565b61047381610a80565b50565b60606067805461048590612141565b80601f01602080910402602001604051908101604052809291908181526020018280546104b190612141565b80156104fe5780601f106104d3576101008083540402835291602001916104fe565b820191906000526020600020905b8154815290600101906020018083116104e157829003601f168201915b50505050509050919050565b6097546001600160a01b031633146105345760405162461bcd60e51b81526004016103bd9061210c565b565b6097546001600160a01b031633146105605760405162461bcd60e51b81526004016103bd9061210c565b61056c84848484610a93565b50505050565b6001600160a01b03851633148061058e575061058e85336102ee565b6105f55760405162461bcd60e51b815260206004820152603260248201527f455243313135353a207472616e736665722063616c6c6572206973206e6f74206044820152711bdddb995c881b9bdc88185c1c1c9bdd995960721b60648201526084016103bd565b6106028585858585610bee565b5050505050565b6097546001600160a01b031633146106335760405162461bcd60e51b81526004016103bd9061210c565b610534610d9b565b606081518351146106a05760405162461bcd60e51b815260206004820152602960248201527f455243313135353a206163636f756e747320616e6420696473206c656e677468604482015268040dad2e6dac2e8c6d60bb1b60648201526084016103bd565b6000835167ffffffffffffffff8111156106bc576106bc611aa5565b6040519080825280602002602001820160405280156106e5578160200160208202803683370190505b50905060005b845181101561075d576107308582815181106107095761070961217c565b60200260200101518583815181106107235761072361217c565b6020026020010151610355565b8282815181106107425761074261217c565b6020908102919091010152610756816121a8565b90506106eb565b509392505050565b6001600160a01b038316331480610781575061078183336102ee565b61079d5760405162461bcd60e51b81526004016103bd906121c3565b6107a8838383610e2e565b505050565b6097546001600160a01b031633146107d75760405162461bcd60e51b81526004016103bd9061210c565b6105346000610fbf565b6097546001600160a01b0316331461080b5760405162461bcd60e51b81526004016103bd9061210c565b61056c84848484611011565b600054610100900460ff166108325760005460ff1615610836565b303b155b6108995760405162461bcd60e51b815260206004820152602e60248201527f496e697469616c697a61626c653a20636f6e747261637420697320616c72656160448201526d191e481a5b9a5d1a585b1a5e995960921b60648201526084016103bd565b600054610100900460ff161580156108bb576000805461ffff19166101011790555b6108dc604051806060016040528060298152602001612602602991396110e9565b6108e4611119565b6108ec611148565b6108f4611177565b6108fc611177565b8015610473576000805461ff001916905550565b6097546001600160a01b0316331461093a5760405162461bcd60e51b81526004016103bd9061210c565b61053461119e565b61094d338383611219565b5050565b6001600160a01b03851633148061096d575061096d85336102ee565b6109895760405162461bcd60e51b81526004016103bd906121c3565b61060285858585856112fa565b6097546001600160a01b031633146109c05760405162461bcd60e51b81526004016103bd9061210c565b6001600160a01b038116610a255760405162461bcd60e51b815260206004820152602660248201527f4f776e61626c653a206e6577206f776e657220697320746865207a65726f206160448201526564647265737360d01b60648201526084016103bd565b61047381610fbf565b6001600160a01b038316331480610a4a5750610a4a83336102ee565b610a665760405162461bcd60e51b81526004016103bd906121c3565b6107a883838361141b565b6001600160a01b03163b151590565b805161094d90606790602084019061198c565b6001600160a01b038416610ab95760405162461bcd60e51b81526004016103bd9061220c565b8151835114610ada5760405162461bcd60e51b81526004016103bd9061224d565b33610aea81600087878787611520565b60005b8451811015610b8657838181518110610b0857610b0861217c565b602002602001015160656000878481518110610b2657610b2661217c565b602002602001015181526020019081526020016000206000886001600160a01b03166001600160a01b031681526020019081526020016000206000828254610b6e9190612295565b90915550819050610b7e816121a8565b915050610aed565b50846001600160a01b031660006001600160a01b0316826001600160a01b03167f4a39dc06d4c0dbc64b70af90fd698a233a518aa5d07e595d983b8c0526c8f7fb8787604051610bd79291906122ad565b60405180910390a461060281600087878787611574565b8151835114610c0f5760405162461bcd60e51b81526004016103bd9061224d565b6001600160a01b038416610c355760405162461bcd60e51b81526004016103bd906122db565b33610c44818787878787611520565b60005b8451811015610d2d576000858281518110610c6457610c6461217c565b602002602001015190506000858381518110610c8257610c8261217c565b60209081029190910181015160008481526065835260408082206001600160a01b038e168352909352919091205490915081811015610cd35760405162461bcd60e51b81526004016103bd90612320565b60008381526065602090815260408083206001600160a01b038e8116855292528083208585039055908b16825281208054849290610d12908490612295565b9250508190555050505080610d26906121a8565b9050610c47565b50846001600160a01b0316866001600160a01b0316826001600160a01b03167f4a39dc06d4c0dbc64b70af90fd698a233a518aa5d07e595d983b8c0526c8f7fb8787604051610d7d9291906122ad565b60405180910390a4610d93818787878787611574565b505050505050565b60c95460ff16610de45760405162461bcd60e51b815260206004820152601460248201527314185d5cd8589b194e881b9bdd081c185d5cd95960621b60448201526064016103bd565b60c9805460ff191690557f5db9ee0a495bf2e6ff9c91a7834c1ba4fdd244a5e8aa4e537bd38aeae4b073aa335b6040516001600160a01b03909116815260200160405180910390a1565b6001600160a01b038316610e545760405162461bcd60e51b81526004016103bd9061236a565b8051825114610e755760405162461bcd60e51b81526004016103bd9061224d565b6000339050610e9881856000868660405180602001604052806000815250611520565b60005b8351811015610f60576000848281518110610eb857610eb861217c565b602002602001015190506000848381518110610ed657610ed661217c565b60209081029190910181015160008481526065835260408082206001600160a01b038c168352909352919091205490915081811015610f275760405162461bcd60e51b81526004016103bd906123ad565b60009283526065602090815260408085206001600160a01b038b1686529091529092209103905580610f58816121a8565b915050610e9b565b5060006001600160a01b0316846001600160a01b0316826001600160a01b03167f4a39dc06d4c0dbc64b70af90fd698a233a518aa5d07e595d983b8c0526c8f7fb8686604051610fb19291906122ad565b60405180910390a450505050565b609780546001600160a01b038381166001600160a01b0319831681179093556040519116919082907f8be0079c531659141344cd1fd0a4f28419497f9722a3daafe3b4186f6b6457e090600090a35050565b6001600160a01b0384166110375760405162461bcd60e51b81526004016103bd9061220c565b3361105781600087611048886116df565b611051886116df565b87611520565b60008481526065602090815260408083206001600160a01b038916845290915281208054859290611089908490612295565b909155505060408051858152602081018590526001600160a01b0380881692600092918516917fc3d58168c5ae7397731d063d5bbf3d657854427343f4c083240f7aacaa2d0f62910160405180910390a46106028160008787878761172a565b600054610100900460ff166111105760405162461bcd60e51b81526004016103bd906123f1565b610473816117f4565b600054610100900460ff166111405760405162461bcd60e51b81526004016103bd906123f1565b61053461181b565b600054610100900460ff1661116f5760405162461bcd60e51b81526004016103bd906123f1565b61053461184b565b600054610100900460ff166105345760405162461bcd60e51b81526004016103bd906123f1565b60c95460ff16156111e45760405162461bcd60e51b815260206004820152601060248201526f14185d5cd8589b194e881c185d5cd95960821b60448201526064016103bd565b60c9805460ff191660011790557f62e78cea01bee320cd4e420270b5ea74000d11b0c9f74754ebdbfc544b05a258610e113390565b816001600160a01b0316836001600160a01b0316141561128d5760405162461bcd60e51b815260206004820152602960248201527f455243313135353a2073657474696e6720617070726f76616c20737461747573604482015268103337b91039b2b63360b91b60648201526084016103bd565b6001600160a01b03838116600081815260666020908152604080832094871680845294825291829020805460ff191686151590811790915591519182527f17307eab39ab6107e8899845ad3d59bd9653f200f220920489ca2b5937696c31910160405180910390a3505050565b6001600160a01b0384166113205760405162461bcd60e51b81526004016103bd906122db565b33611330818787611048886116df565b60008481526065602090815260408083206001600160a01b038a168452909152902054838110156113735760405162461bcd60e51b81526004016103bd90612320565b60008581526065602090815260408083206001600160a01b038b81168552925280832087850390559088168252812080548692906113b2908490612295565b909155505060408051868152602081018690526001600160a01b03808916928a821692918616917fc3d58168c5ae7397731d063d5bbf3d657854427343f4c083240f7aacaa2d0f62910160405180910390a461141282888888888861172a565b50505050505050565b6001600160a01b0383166114415760405162461bcd60e51b81526004016103bd9061236a565b3361147081856000611452876116df565b61145b876116df565b60405180602001604052806000815250611520565b60008381526065602090815260408083206001600160a01b0388168452909152902054828110156114b35760405162461bcd60e51b81526004016103bd906123ad565b60008481526065602090815260408083206001600160a01b03898116808652918452828520888703905582518981529384018890529092908616917fc3d58168c5ae7397731d063d5bbf3d657854427343f4c083240f7aacaa2d0f62910160405180910390a45050505050565b60c95460ff16156115665760405162461bcd60e51b815260206004820152601060248201526f14185d5cd8589b194e881c185d5cd95960821b60448201526064016103bd565b610d9386868686868661187e565b6001600160a01b0384163b15610d935760405163bc197c8160e01b81526001600160a01b0385169063bc197c81906115b8908990899088908890889060040161243c565b602060405180830381600087803b1580156115d257600080fd5b505af1925050508015611602575060408051601f3d908101601f191682019092526115ff9181019061249a565b60015b6116af5761160e6124b7565b806308c379a0141561164857506116236124d3565b8061162e575061164a565b8060405162461bcd60e51b81526004016103bd9190611bfd565b505b60405162461bcd60e51b815260206004820152603460248201527f455243313135353a207472616e7366657220746f206e6f6e20455243313135356044820152732932b1b2b4bb32b91034b6b83632b6b2b73a32b960611b60648201526084016103bd565b6001600160e01b0319811663bc197c8160e01b146114125760405162461bcd60e51b81526004016103bd9061255d565b604080516001808252818301909252606091600091906020808301908036833701905050905082816000815181106117195761171961217c565b602090810291909101015292915050565b6001600160a01b0384163b15610d935760405163f23a6e6160e01b81526001600160a01b0385169063f23a6e619061176e90899089908890889088906004016125a5565b602060405180830381600087803b15801561178857600080fd5b505af19250505080156117b8575060408051601f3d908101601f191682019092526117b59181019061249a565b60015b6117c45761160e6124b7565b6001600160e01b0319811663f23a6e6160e01b146114125760405162461bcd60e51b81526004016103bd9061255d565b600054610100900460ff1661046a5760405162461bcd60e51b81526004016103bd906123f1565b600054610100900460ff166118425760405162461bcd60e51b81526004016103bd906123f1565b61053433610fbf565b600054610100900460ff166118725760405162461bcd60e51b81526004016103bd906123f1565b60c9805460ff19169055565b6001600160a01b0385166119065760005b8351811015611904578281815181106118aa576118aa61217c565b602002602001015161012d60008684815181106118c9576118c961217c565b6020026020010151815260200190815260200160002060008282546118ee9190612295565b909155506118fd9050816121a8565b905061188f565b505b6001600160a01b038416610d935760005b8351811015611412578281815181106119325761193261217c565b602002602001015161012d60008684815181106119515761195161217c565b60200260200101518152602001908152602001600020600082825461197691906125ea565b909155506119859050816121a8565b9050611917565b82805461199890612141565b90600052602060002090601f0160209004810192826119ba5760008555611a00565b82601f106119d357805160ff1916838001178555611a00565b82800160010185558215611a00579182015b82811115611a005782518255916020019190600101906119e5565b50611a0c929150611a10565b5090565b5b80821115611a0c5760008155600101611a11565b80356001600160a01b0381168114611a3c57600080fd5b919050565b60008060408385031215611a5457600080fd5b611a5d83611a25565b946020939093013593505050565b6001600160e01b03198116811461047357600080fd5b600060208284031215611a9357600080fd5b8135611a9e81611a6b565b9392505050565b634e487b7160e01b600052604160045260246000fd5b601f8201601f1916810167ffffffffffffffff81118282101715611ae157611ae1611aa5565b6040525050565b600067ffffffffffffffff831115611b0257611b02611aa5565b604051611b19601f8501601f191660200182611abb565b809150838152848484011115611b2e57600080fd5b83836020830137600060208583010152509392505050565b600060208284031215611b5857600080fd5b813567ffffffffffffffff811115611b6f57600080fd5b8201601f81018413611b8057600080fd5b611b8f84823560208401611ae8565b949350505050565b600060208284031215611ba957600080fd5b5035919050565b6000815180845260005b81811015611bd657602081850181015186830182015201611bba565b81811115611be8576000602083870101525b50601f01601f19169290920160200192915050565b602081526000611a9e6020830184611bb0565b600067ffffffffffffffff821115611c2a57611c2a611aa5565b5060051b60200190565b600082601f830112611c4557600080fd5b81356020611c5282611c10565b604051611c5f8282611abb565b83815260059390931b8501820192828101915086841115611c7f57600080fd5b8286015b84811015611c9a5780358352918301918301611c83565b509695505050505050565b600082601f830112611cb657600080fd5b611a9e83833560208501611ae8565b60008060008060808587031215611cdb57600080fd5b611ce485611a25565b9350602085013567ffffffffffffffff80821115611d0157600080fd5b611d0d88838901611c34565b94506040870135915080821115611d2357600080fd5b611d2f88838901611c34565b93506060870135915080821115611d4557600080fd5b50611d5287828801611ca5565b91505092959194509250565b600080600080600060a08688031215611d7657600080fd5b611d7f86611a25565b9450611d8d60208701611a25565b9350604086013567ffffffffffffffff80821115611daa57600080fd5b611db689838a01611c34565b94506060880135915080821115611dcc57600080fd5b611dd889838a01611c34565b93506080880135915080821115611dee57600080fd5b50611dfb88828901611ca5565b9150509295509295909350565b60008060408385031215611e1b57600080fd5b823567ffffffffffffffff80821115611e3357600080fd5b818501915085601f830112611e4757600080fd5b81356020611e5482611c10565b604051611e618282611abb565b83815260059390931b8501820192828101915089841115611e8157600080fd5b948201945b83861015611ea657611e9786611a25565b82529482019490820190611e86565b96505086013592505080821115611ebc57600080fd5b50611ec985828601611c34565b9150509250929050565b600081518084526020808501945080840160005b83811015611f0357815187529582019590820190600101611ee7565b509495945050505050565b602081526000611a9e6020830184611ed3565b600080600060608486031215611f3657600080fd5b611f3f84611a25565b9250602084013567ffffffffffffffff80821115611f5c57600080fd5b611f6887838801611c34565b93506040860135915080821115611f7e57600080fd5b50611f8b86828701611c34565b9150509250925092565b60008060008060808587031215611fab57600080fd5b611fb485611a25565b93506020850135925060408501359150606085013567ffffffffffffffff811115611fde57600080fd5b611d5287828801611ca5565b60008060408385031215611ffd57600080fd5b61200683611a25565b91506020830135801515811461201b57600080fd5b809150509250929050565b6000806040838503121561203957600080fd5b61204283611a25565b915061205060208401611a25565b90509250929050565b600080600080600060a0868803121561207157600080fd5b61207a86611a25565b945061208860208701611a25565b93506040860135925060608601359150608086013567ffffffffffffffff8111156120b257600080fd5b611dfb88828901611ca5565b6000602082840312156120d057600080fd5b611a9e82611a25565b6000806000606084860312156120ee57600080fd5b6120f784611a25565b95602085013595506040909401359392505050565b6020808252818101527f4f776e61626c653a2063616c6c6572206973206e6f7420746865206f776e6572604082015260600190565b600181811c9082168061215557607f821691505b6020821081141561217657634e487b7160e01b600052602260045260246000fd5b50919050565b634e487b7160e01b600052603260045260246000fd5b634e487b7160e01b600052601160045260246000fd5b60006000198214156121bc576121bc612192565b5060010190565b60208082526029908201527f455243313135353a2063616c6c6572206973206e6f74206f776e6572206e6f7260408201526808185c1c1c9bdd995960ba1b606082015260800190565b60208082526021908201527f455243313135353a206d696e7420746f20746865207a65726f206164647265736040820152607360f81b606082015260800190565b60208082526028908201527f455243313135353a2069647320616e6420616d6f756e7473206c656e677468206040820152670dad2e6dac2e8c6d60c31b606082015260800190565b600082198211156122a8576122a8612192565b500190565b6040815260006122c06040830185611ed3565b82810360208401526122d28185611ed3565b95945050505050565b60208082526025908201527f455243313135353a207472616e7366657220746f20746865207a65726f206164604082015264647265737360d81b606082015260800190565b6020808252602a908201527f455243313135353a20696e73756666696369656e742062616c616e636520666f60408201526939103a3930b739b332b960b11b606082015260800190565b60208082526023908201527f455243313135353a206275726e2066726f6d20746865207a65726f206164647260408201526265737360e81b606082015260800190565b60208082526024908201527f455243313135353a206275726e20616d6f756e7420657863656564732062616c604082015263616e636560e01b606082015260800190565b6020808252602b908201527f496e697469616c697a61626c653a20636f6e7472616374206973206e6f74206960408201526a6e697469616c697a696e6760a81b606082015260800190565b6001600160a01b0386811682528516602082015260a06040820181905260009061246890830186611ed3565b828103606084015261247a8186611ed3565b9050828103608084015261248e8185611bb0565b98975050505050505050565b6000602082840312156124ac57600080fd5b8151611a9e81611a6b565b600060033d11156124d05760046000803e5060005160e01c5b90565b600060443d10156124e15790565b6040516003193d81016004833e81513d67ffffffffffffffff816024840111818411171561251157505050505090565b82850191508151818111156125295750505050505090565b843d87010160208285010111156125435750505050505090565b61255260208286010187611abb565b509095945050505050565b60208082526028908201527f455243313135353a204552433131353552656365697665722072656a656374656040820152676420746f6b656e7360c01b606082015260800190565b6001600160a01b03868116825285166020820152604081018490526060810183905260a0608082018190526000906125df90830184611bb0565b979650505050505050565b6000828210156125fc576125fc612192565b50039056fe68747470733a2f2f697066732e70686c6f74652e78797a2f686f7464726f702f7b69647d2e6a736f6ea264697066735822122036cebb76956cb5e38b51dc03e99acad29506142ceb2c73d5cb2f624a46a08f9e64736f6c63430008090033",
  "devdoc": {
    "custom:security-contact": "nohackplz@phlote.xyz",
    "kind": "dev",
    "methods": {
      "balanceOf(address,uint256)": {
        "details": "See {IERC1155-balanceOf}. Requirements: - `account` cannot be the zero address."
      },
      "balanceOfBatch(address[],uint256[])": {
        "details": "See {IERC1155-balanceOfBatch}. Requirements: - `accounts` and `ids` must have the same length."
      },
      "constructor": {
        "custom:oz-upgrades-unsafe-allow": "constructor"
      },
      "exists(uint256)": {
        "details": "Indicates whether any token exist with a given id, or not."
      },
      "isApprovedForAll(address,address)": {
        "details": "See {IERC1155-isApprovedForAll}."
      },
      "owner()": {
        "details": "Returns the address of the current owner."
      },
      "paused()": {
        "details": "Returns true if the contract is paused, and false otherwise."
      },
      "renounceOwnership()": {
        "details": "Leaves the contract without owner. It will not be possible to call `onlyOwner` functions anymore. Can only be called by the current owner. NOTE: Renouncing ownership will leave the contract without an owner, thereby removing any functionality that is only available to the owner."
      },
      "safeBatchTransferFrom(address,address,uint256[],uint256[],bytes)": {
        "details": "See {IERC1155-safeBatchTransferFrom}."
      },
      "safeTransferFrom(address,address,uint256,uint256,bytes)": {
        "details": "See {IERC1155-safeTransferFrom}."
      },
      "setApprovalForAll(address,bool)": {
        "details": "See {IERC1155-setApprovalForAll}."
      },
      "supportsInterface(bytes4)": {
        "details": "See {IERC165-supportsInterface}."
      },
      "totalSupply(uint256)": {
        "details": "Total amount of tokens in with a given id."
      },
      "transferOwnership(address)": {
        "details": "Transfers ownership of the contract to a new account (`newOwner`). Can only be called by the current owner."
      },
      "uri(uint256)": {
        "details": "See {IERC1155MetadataURI-uri}. This implementation returns the same URI for *all* token types. It relies on the token type ID substitution mechanism https://eips.ethereum.org/EIPS/eip-1155#metadata[defined in the EIP]. Clients calling this function must replace the `\\{id\\}` substring with the actual token type ID."
      }
    },
    "version": 1
  },
  "userdoc": {
    "kind": "user",
    "methods": {},
    "version": 1
  },
  "storageLayout": {
    "storage": [
      {
        "astId": 208,
        "contract": "contracts/Hotdrop.sol:Hotdrop",
        "label": "_initialized",
        "offset": 0,
        "slot": "0",
        "type": "t_bool"
      },
      {
        "astId": 211,
        "contract": "contracts/Hotdrop.sol:Hotdrop",
        "label": "_initializing",
        "offset": 1,
        "slot": "0",
        "type": "t_bool"
      },
      {
        "astId": 3876,
        "contract": "contracts/Hotdrop.sol:Hotdrop",
        "label": "__gap",
        "offset": 0,
        "slot": "1",
        "type": "t_array(t_uint256)50_storage"
      },
      {
        "astId": 4754,
        "contract": "contracts/Hotdrop.sol:Hotdrop",
        "label": "__gap",
        "offset": 0,
        "slot": "51",
        "type": "t_array(t_uint256)50_storage"
      },
      {
        "astId": 415,
        "contract": "contracts/Hotdrop.sol:Hotdrop",
        "label": "_balances",
        "offset": 0,
        "slot": "101",
        "type": "t_mapping(t_uint256,t_mapping(t_address,t_uint256))"
      },
      {
        "astId": 421,
        "contract": "contracts/Hotdrop.sol:Hotdrop",
        "label": "_operatorApprovals",
        "offset": 0,
        "slot": "102",
        "type": "t_mapping(t_address,t_mapping(t_address,t_bool))"
      },
      {
        "astId": 423,
        "contract": "contracts/Hotdrop.sol:Hotdrop",
        "label": "_uri",
        "offset": 0,
        "slot": "103",
        "type": "t_string_storage"
      },
      {
        "astId": 1503,
        "contract": "contracts/Hotdrop.sol:Hotdrop",
        "label": "__gap",
        "offset": 0,
        "slot": "104",
        "type": "t_array(t_uint256)47_storage"
      },
      {
        "astId": 10,
        "contract": "contracts/Hotdrop.sol:Hotdrop",
        "label": "_owner",
        "offset": 0,
        "slot": "151",
        "type": "t_address"
      },
      {
        "astId": 122,
        "contract": "contracts/Hotdrop.sol:Hotdrop",
        "label": "__gap",
        "offset": 0,
        "slot": "152",
        "type": "t_array(t_uint256)49_storage"
      },
      {
        "astId": 296,
        "contract": "contracts/Hotdrop.sol:Hotdrop",
        "label": "_paused",
        "offset": 0,
        "slot": "201",
        "type": "t_bool"
      },
      {
        "astId": 385,
        "contract": "contracts/Hotdrop.sol:Hotdrop",
        "label": "__gap",
        "offset": 0,
        "slot": "202",
        "type": "t_array(t_uint256)49_storage"
      },
      {
        "astId": 1755,
        "contract": "contracts/Hotdrop.sol:Hotdrop",
        "label": "__gap",
        "offset": 0,
        "slot": "251",
        "type": "t_array(t_uint256)50_storage"
      },
      {
        "astId": 1781,
        "contract": "contracts/Hotdrop.sol:Hotdrop",
        "label": "_totalSupply",
        "offset": 0,
        "slot": "301",
        "type": "t_mapping(t_uint256,t_uint256)"
      },
      {
        "astId": 1908,
        "contract": "contracts/Hotdrop.sol:Hotdrop",
        "label": "__gap",
        "offset": 0,
        "slot": "302",
        "type": "t_array(t_uint256)49_storage"
      }
    ],
    "types": {
      "t_address": {
        "encoding": "inplace",
        "label": "address",
        "numberOfBytes": "20"
      },
      "t_array(t_uint256)47_storage": {
        "base": "t_uint256",
        "encoding": "inplace",
        "label": "uint256[47]",
        "numberOfBytes": "1504"
      },
      "t_array(t_uint256)49_storage": {
        "base": "t_uint256",
        "encoding": "inplace",
        "label": "uint256[49]",
        "numberOfBytes": "1568"
      },
      "t_array(t_uint256)50_storage": {
        "base": "t_uint256",
        "encoding": "inplace",
        "label": "uint256[50]",
        "numberOfBytes": "1600"
      },
      "t_bool": {
        "encoding": "inplace",
        "label": "bool",
        "numberOfBytes": "1"
      },
      "t_mapping(t_address,t_bool)": {
        "encoding": "mapping",
        "key": "t_address",
        "label": "mapping(address => bool)",
        "numberOfBytes": "32",
        "value": "t_bool"
      },
      "t_mapping(t_address,t_mapping(t_address,t_bool))": {
        "encoding": "mapping",
        "key": "t_address",
        "label": "mapping(address => mapping(address => bool))",
        "numberOfBytes": "32",
        "value": "t_mapping(t_address,t_bool)"
      },
      "t_mapping(t_address,t_uint256)": {
        "encoding": "mapping",
        "key": "t_address",
        "label": "mapping(address => uint256)",
        "numberOfBytes": "32",
        "value": "t_uint256"
      },
      "t_mapping(t_uint256,t_mapping(t_address,t_uint256))": {
        "encoding": "mapping",
        "key": "t_uint256",
        "label": "mapping(uint256 => mapping(address => uint256))",
        "numberOfBytes": "32",
        "value": "t_mapping(t_address,t_uint256)"
      },
      "t_mapping(t_uint256,t_uint256)": {
        "encoding": "mapping",
        "key": "t_uint256",
        "label": "mapping(uint256 => uint256)",
        "numberOfBytes": "32",
        "value": "t_uint256"
      },
      "t_string_storage": {
        "encoding": "bytes",
        "label": "string",
        "numberOfBytes": "32"
      },
      "t_uint256": {
        "encoding": "inplace",
        "label": "uint256",
        "numberOfBytes": "32"
      }
    }
  }
}