{
  "address": "0x757DcAF59A788085744329bEa87a6cb43862C3Af",
  "abi": [
    {
      "inputs": [],
      "stateMutability": "nonpayable",
      "type": "constructor"
    },
    {
      "anonymous": false,
      "inputs": [
        {
          "indexed": true,
          "internalType": "address",
          "name": "owner",
          "type": "address"
        },
        {
          "indexed": true,
          "internalType": "address",
          "name": "spender",
          "type": "address"
        },
        {
          "indexed": false,
          "internalType": "uint256",
          "name": "value",
          "type": "uint256"
        }
      ],
      "name": "Approval",
      "type": "event"
    },
    {
      "anonymous": false,
      "inputs": [
        {
          "indexed": true,
          "internalType": "address",
          "name": "delegator",
          "type": "address"
        },
        {
          "indexed": true,
          "internalType": "address",
          "name": "fromDelegate",
          "type": "address"
        },
        {
          "indexed": true,
          "internalType": "address",
          "name": "toDelegate",
          "type": "address"
        }
      ],
      "name": "DelegateChanged",
      "type": "event"
    },
    {
      "anonymous": false,
      "inputs": [
        {
          "indexed": true,
          "internalType": "address",
          "name": "delegate",
          "type": "address"
        },
        {
          "indexed": false,
          "internalType": "uint256",
          "name": "previousBalance",
          "type": "uint256"
        },
        {
          "indexed": false,
          "internalType": "uint256",
          "name": "newBalance",
          "type": "uint256"
        }
      ],
      "name": "DelegateVotesChanged",
      "type": "event"
    },
    {
      "anonymous": false,
      "inputs": [
        {
          "indexed": true,
          "internalType": "address",
          "name": "previousOwner",
          "type": "address"
        },
        {
          "indexed": true,
          "internalType": "address",
          "name": "newOwner",
          "type": "address"
        }
      ],
      "name": "OwnershipTransferred",
      "type": "event"
    },
    {
      "anonymous": false,
      "inputs": [
        {
          "indexed": false,
          "internalType": "address",
          "name": "account",
          "type": "address"
        }
      ],
      "name": "Paused",
      "type": "event"
    },
    {
      "anonymous": false,
      "inputs": [
        {
          "indexed": true,
          "internalType": "address",
          "name": "from",
          "type": "address"
        },
        {
          "indexed": true,
          "internalType": "address",
          "name": "to",
          "type": "address"
        },
        {
          "indexed": false,
          "internalType": "uint256",
          "name": "value",
          "type": "uint256"
        }
      ],
      "name": "Transfer",
      "type": "event"
    },
    {
      "anonymous": false,
      "inputs": [
        {
          "indexed": false,
          "internalType": "address",
          "name": "account",
          "type": "address"
        }
      ],
      "name": "Unpaused",
      "type": "event"
    },
    {
      "inputs": [],
      "name": "DOMAIN_SEPARATOR",
      "outputs": [
        {
          "internalType": "bytes32",
          "name": "",
          "type": "bytes32"
        }
      ],
      "stateMutability": "view",
      "type": "function"
    },
    {
      "inputs": [
        {
          "internalType": "address",
          "name": "owner",
          "type": "address"
        },
        {
          "internalType": "address",
          "name": "spender",
          "type": "address"
        }
      ],
      "name": "allowance",
      "outputs": [
        {
          "internalType": "uint256",
          "name": "",
          "type": "uint256"
        }
      ],
      "stateMutability": "view",
      "type": "function"
    },
    {
      "inputs": [
        {
          "internalType": "address",
          "name": "spender",
          "type": "address"
        },
        {
          "internalType": "uint256",
          "name": "amount",
          "type": "uint256"
        }
      ],
      "name": "approve",
      "outputs": [
        {
          "internalType": "bool",
          "name": "",
          "type": "bool"
        }
      ],
      "stateMutability": "nonpayable",
      "type": "function"
    },
    {
      "inputs": [
        {
          "internalType": "address",
          "name": "account",
          "type": "address"
        }
      ],
      "name": "balanceOf",
      "outputs": [
        {
          "internalType": "uint256",
          "name": "",
          "type": "uint256"
        }
      ],
      "stateMutability": "view",
      "type": "function"
    },
    {
      "inputs": [
        {
          "internalType": "uint256",
          "name": "amount",
          "type": "uint256"
        }
      ],
      "name": "burn",
      "outputs": [],
      "stateMutability": "nonpayable",
      "type": "function"
    },
    {
      "inputs": [
        {
          "internalType": "address",
          "name": "account",
          "type": "address"
        },
        {
          "internalType": "uint256",
          "name": "amount",
          "type": "uint256"
        }
      ],
      "name": "burnFrom",
      "outputs": [],
      "stateMutability": "nonpayable",
      "type": "function"
    },
    {
      "inputs": [
        {
          "internalType": "address",
          "name": "account",
          "type": "address"
        },
        {
          "internalType": "uint32",
          "name": "pos",
          "type": "uint32"
        }
      ],
      "name": "checkpoints",
      "outputs": [
        {
          "components": [
            {
              "internalType": "uint32",
              "name": "fromBlock",
              "type": "uint32"
            },
            {
              "internalType": "uint224",
              "name": "votes",
              "type": "uint224"
            }
          ],
          "internalType": "struct ERC20VotesUpgradeable.Checkpoint",
          "name": "",
          "type": "tuple"
        }
      ],
      "stateMutability": "view",
      "type": "function"
    },
    {
      "inputs": [],
      "name": "decimals",
      "outputs": [
        {
          "internalType": "uint8",
          "name": "",
          "type": "uint8"
        }
      ],
      "stateMutability": "view",
      "type": "function"
    },
    {
      "inputs": [
        {
          "internalType": "address",
          "name": "spender",
          "type": "address"
        },
        {
          "internalType": "uint256",
          "name": "subtractedValue",
          "type": "uint256"
        }
      ],
      "name": "decreaseAllowance",
      "outputs": [
        {
          "internalType": "bool",
          "name": "",
          "type": "bool"
        }
      ],
      "stateMutability": "nonpayable",
      "type": "function"
    },
    {
      "inputs": [
        {
          "internalType": "address",
          "name": "delegatee",
          "type": "address"
        }
      ],
      "name": "delegate",
      "outputs": [],
      "stateMutability": "nonpayable",
      "type": "function"
    },
    {
      "inputs": [
        {
          "internalType": "address",
          "name": "delegatee",
          "type": "address"
        },
        {
          "internalType": "uint256",
          "name": "nonce",
          "type": "uint256"
        },
        {
          "internalType": "uint256",
          "name": "expiry",
          "type": "uint256"
        },
        {
          "internalType": "uint8",
          "name": "v",
          "type": "uint8"
        },
        {
          "internalType": "bytes32",
          "name": "r",
          "type": "bytes32"
        },
        {
          "internalType": "bytes32",
          "name": "s",
          "type": "bytes32"
        }
      ],
      "name": "delegateBySig",
      "outputs": [],
      "stateMutability": "nonpayable",
      "type": "function"
    },
    {
      "inputs": [
        {
          "internalType": "address",
          "name": "account",
          "type": "address"
        }
      ],
      "name": "delegates",
      "outputs": [
        {
          "internalType": "address",
          "name": "",
          "type": "address"
        }
      ],
      "stateMutability": "view",
      "type": "function"
    },
    {
      "inputs": [
        {
          "internalType": "uint256",
          "name": "blockNumber",
          "type": "uint256"
        }
      ],
      "name": "getPastTotalSupply",
      "outputs": [
        {
          "internalType": "uint256",
          "name": "",
          "type": "uint256"
        }
      ],
      "stateMutability": "view",
      "type": "function"
    },
    {
      "inputs": [
        {
          "internalType": "address",
          "name": "account",
          "type": "address"
        },
        {
          "internalType": "uint256",
          "name": "blockNumber",
          "type": "uint256"
        }
      ],
      "name": "getPastVotes",
      "outputs": [
        {
          "internalType": "uint256",
          "name": "",
          "type": "uint256"
        }
      ],
      "stateMutability": "view",
      "type": "function"
    },
    {
      "inputs": [
        {
          "internalType": "address",
          "name": "account",
          "type": "address"
        }
      ],
      "name": "getVotes",
      "outputs": [
        {
          "internalType": "uint256",
          "name": "",
          "type": "uint256"
        }
      ],
      "stateMutability": "view",
      "type": "function"
    },
    {
      "inputs": [
        {
          "internalType": "address",
          "name": "spender",
          "type": "address"
        },
        {
          "internalType": "uint256",
          "name": "addedValue",
          "type": "uint256"
        }
      ],
      "name": "increaseAllowance",
      "outputs": [
        {
          "internalType": "bool",
          "name": "",
          "type": "bool"
        }
      ],
      "stateMutability": "nonpayable",
      "type": "function"
    },
    {
      "inputs": [],
      "name": "initialize",
      "outputs": [],
      "stateMutability": "nonpayable",
      "type": "function"
    },
    {
      "inputs": [
        {
          "internalType": "address",
          "name": "to",
          "type": "address"
        },
        {
          "internalType": "uint256",
          "name": "amount",
          "type": "uint256"
        }
      ],
      "name": "mint",
      "outputs": [],
      "stateMutability": "nonpayable",
      "type": "function"
    },
    {
      "inputs": [],
      "name": "name",
      "outputs": [
        {
          "internalType": "string",
          "name": "",
          "type": "string"
        }
      ],
      "stateMutability": "view",
      "type": "function"
    },
    {
      "inputs": [
        {
          "internalType": "address",
          "name": "owner",
          "type": "address"
        }
      ],
      "name": "nonces",
      "outputs": [
        {
          "internalType": "uint256",
          "name": "",
          "type": "uint256"
        }
      ],
      "stateMutability": "view",
      "type": "function"
    },
    {
      "inputs": [
        {
          "internalType": "address",
          "name": "account",
          "type": "address"
        }
      ],
      "name": "numCheckpoints",
      "outputs": [
        {
          "internalType": "uint32",
          "name": "",
          "type": "uint32"
        }
      ],
      "stateMutability": "view",
      "type": "function"
    },
    {
      "inputs": [],
      "name": "onUpgrade",
      "outputs": [],
      "stateMutability": "nonpayable",
      "type": "function"
    },
    {
      "inputs": [],
      "name": "owner",
      "outputs": [
        {
          "internalType": "address",
          "name": "",
          "type": "address"
        }
      ],
      "stateMutability": "view",
      "type": "function"
    },
    {
      "inputs": [],
      "name": "pause",
      "outputs": [],
      "stateMutability": "nonpayable",
      "type": "function"
    },
    {
      "inputs": [],
      "name": "paused",
      "outputs": [
        {
          "internalType": "bool",
          "name": "",
          "type": "bool"
        }
      ],
      "stateMutability": "view",
      "type": "function"
    },
    {
      "inputs": [
        {
          "internalType": "address",
          "name": "owner",
          "type": "address"
        },
        {
          "internalType": "address",
          "name": "spender",
          "type": "address"
        },
        {
          "internalType": "uint256",
          "name": "value",
          "type": "uint256"
        },
        {
          "internalType": "uint256",
          "name": "deadline",
          "type": "uint256"
        },
        {
          "internalType": "uint8",
          "name": "v",
          "type": "uint8"
        },
        {
          "internalType": "bytes32",
          "name": "r",
          "type": "bytes32"
        },
        {
          "internalType": "bytes32",
          "name": "s",
          "type": "bytes32"
        }
      ],
      "name": "permit",
      "outputs": [],
      "stateMutability": "nonpayable",
      "type": "function"
    },
    {
      "inputs": [],
      "name": "renounceOwnership",
      "outputs": [],
      "stateMutability": "nonpayable",
      "type": "function"
    },
    {
      "inputs": [],
      "name": "symbol",
      "outputs": [
        {
          "internalType": "string",
          "name": "",
          "type": "string"
        }
      ],
      "stateMutability": "view",
      "type": "function"
    },
    {
      "inputs": [],
      "name": "totalSupply",
      "outputs": [
        {
          "internalType": "uint256",
          "name": "",
          "type": "uint256"
        }
      ],
      "stateMutability": "view",
      "type": "function"
    },
    {
      "inputs": [
        {
          "internalType": "address",
          "name": "to",
          "type": "address"
        },
        {
          "internalType": "uint256",
          "name": "amount",
          "type": "uint256"
        }
      ],
      "name": "transfer",
      "outputs": [
        {
          "internalType": "bool",
          "name": "",
          "type": "bool"
        }
      ],
      "stateMutability": "nonpayable",
      "type": "function"
    },
    {
      "inputs": [
        {
          "internalType": "address",
          "name": "from",
          "type": "address"
        },
        {
          "internalType": "address",
          "name": "to",
          "type": "address"
        },
        {
          "internalType": "uint256",
          "name": "amount",
          "type": "uint256"
        }
      ],
      "name": "transferFrom",
      "outputs": [
        {
          "internalType": "bool",
          "name": "",
          "type": "bool"
        }
      ],
      "stateMutability": "nonpayable",
      "type": "function"
    },
    {
      "inputs": [
        {
          "internalType": "address",
          "name": "newOwner",
          "type": "address"
        }
      ],
      "name": "transferOwnership",
      "outputs": [],
      "stateMutability": "nonpayable",
      "type": "function"
    },
    {
      "inputs": [],
      "name": "unpause",
      "outputs": [],
      "stateMutability": "nonpayable",
      "type": "function"
    }
  ],
  "transactionHash": "0xf0299e061ff6923627f0132b59c2aa5a11d1958b654aba33be53d2a05cdfc905",
  "args": [],
  "numDeployments": 1,
  "solcInputHash": "5ea55c137c24c0711f3d0b7189d8875d",
  "bytecode": "0x60806040523480156200001157600080fd5b50600054610100900460ff166200002f5760005460ff161562000039565b62000039620000de565b620000a15760405162461bcd60e51b815260206004820152602e60248201527f496e697469616c697a61626c653a20636f6e747261637420697320616c72656160448201526d191e481a5b9a5d1a585b1a5e995960921b606482015260840160405180910390fd5b600054610100900460ff16158015620000c4576000805461ffff19166101011790555b8015620000d7576000805461ff00191690555b506200010b565b6000620000f630620000fc60201b62000e8d1760201c565b15905090565b6001600160a01b03163b151590565b612798806200011b6000396000f3fe608060405234801561001057600080fd5b50600436106101fb5760003560e01c806370a082311161011a57806395d89b41116100ad578063c3cda5201161007c578063c3cda52014610432578063d505accf14610445578063dd62ed3e14610458578063f1127ed814610491578063f2fde38b146104ce57600080fd5b806395d89b41146103f15780639ab24eb0146103f9578063a457c2d71461040c578063a9059cbb1461041f57600080fd5b80638129fc1c116100e95780638129fc1c146103bd5780638456cb59146103c55780638da5cb5b146103cd5780638e539e8c146103de57600080fd5b806370a0823114610366578063715018a61461038f57806379cc6790146103975780637ecebe00146103aa57600080fd5b80633a46b1a811610192578063587cde1e11610161578063587cde1e146102db5780635c19a95c146103205780635c975abb146103335780636fcfff451461033e57600080fd5b80633a46b1a81461029a5780633f4ba83a146102ad57806340c10f19146102b557806342966c68146102c857600080fd5b806323b872dd116101ce57806323b872dd1461025d578063313ce567146102705780633644e5151461027f578063395093511461028757600080fd5b806306fdde0314610200578063095ea7b31461021e57806318160ddd146102415780631824a46b14610253575b600080fd5b6102086104e1565b60405161021591906122b7565b60405180910390f35b61023161022c366004612328565b610573565b6040519015158152602001610215565b6035545b604051908152602001610215565b61025b61058d565b005b61023161026b366004612352565b6105c2565b60405160128152602001610215565b6102456105e6565b610231610295366004612328565b6105f5565b6102456102a8366004612328565b610634565b61025b6106af565b61025b6102c3366004612328565b6106e1565b61025b6102d636600461238e565b610719565b6103086102e93660046123a7565b6001600160a01b03908116600090815261016260205260409020541690565b6040516001600160a01b039091168152602001610215565b61025b61032e3660046123a7565b610726565b60975460ff16610231565b61035161034c3660046123a7565b610730565b60405163ffffffff9091168152602001610215565b6102456103743660046123a7565b6001600160a01b031660009081526033602052604090205490565b61025b610753565b61025b6103a5366004612328565b610787565b6102456103b83660046123a7565b61079c565b61025b6107bb565b61025b61092c565b60c9546001600160a01b0316610308565b6102456103ec36600461238e565b61095e565b6102086109bb565b6102456104073660046123a7565b6109ca565b61023161041a366004612328565b610a53565b61023161042d366004612328565b610ae5565b61025b6104403660046123d3565b610af3565b61025b61045336600461242b565b610c29565b610245610466366004612495565b6001600160a01b03918216600090815260346020908152604080832093909416825291909152205490565b6104a461049f3660046124c8565b610d70565b60408051825163ffffffff1681526020928301516001600160e01b03169281019290925201610215565b61025b6104dc3660046123a7565b610df5565b6060603680546104f090612508565b80601f016020809104026020016040519081016040528092919081815260200182805461051c90612508565b80156105695780601f1061053e57610100808354040283529160200191610569565b820191906000526020600020905b81548152906001019060200180831161054c57829003601f168201915b5050505050905090565b600033610581818585610e9c565b60019150505b92915050565b60c9546001600160a01b031633146105c05760405162461bcd60e51b81526004016105b79061253d565b60405180910390fd5b565b6000336105d0858285610fc0565b6105db858585611052565b506001949350505050565b60006105f0611231565b905090565b3360008181526034602090815260408083206001600160a01b0387168452909152812054909190610581908290869061062f908790612588565b610e9c565b60004382106106855760405162461bcd60e51b815260206004820152601f60248201527f4552433230566f7465733a20626c6f636b206e6f7420796574206d696e65640060448201526064016105b7565b6001600160a01b0383166000908152610163602052604090206106a890836112ac565b9392505050565b60c9546001600160a01b031633146106d95760405162461bcd60e51b81526004016105b79061253d565b6105c0611369565b60c9546001600160a01b0316331461070b5760405162461bcd60e51b81526004016105b79061253d565b61071582826113fc565b5050565b6107233382611406565b50565b6107233382611410565b6001600160a01b038116600090815261016360205260408120546105879061148b565b60c9546001600160a01b0316331461077d5760405162461bcd60e51b81526004016105b79061253d565b6105c060006114f4565b610792823383610fc0565b6107158282611406565b6001600160a01b038116600090815261012f6020526040812054610587565b600054610100900460ff166107d65760005460ff16156107da565b303b155b61083d5760405162461bcd60e51b815260206004820152602e60248201527f496e697469616c697a61626c653a20636f6e747261637420697320616c72656160448201526d191e481a5b9a5d1a585b1a5e995960921b60648201526084016105b7565b600054610100900460ff1615801561085f576000805461ffff19166101011790555b6108aa6040518060400160405280600b81526020016a50686c6f746520566f746560a81b8152506040518060400160405280600681526020016550484c4f544560d01b815250611546565b6108b2611577565b6108ba61159e565b6108c26115cd565b6108f66040518060400160405280601381526020017250686c6f746520566f7465202874657374352960681b8152506115fc565b610918336109066012600a612684565b61091390620222e0612693565b6113fc565b8015610723576000805461ff001916905550565b60c9546001600160a01b031633146109565760405162461bcd60e51b81526004016105b79061253d565b6105c061164f565b60004382106109af5760405162461bcd60e51b815260206004820152601f60248201527f4552433230566f7465733a20626c6f636b206e6f7420796574206d696e65640060448201526064016105b7565b610587610164836112ac565b6060603780546104f090612508565b6001600160a01b038116600090815261016360205260408120548015610a40576001600160a01b038316600090815261016360205260409020610a0e6001836126b2565b81548110610a1e57610a1e6126c9565b60009182526020909120015464010000000090046001600160e01b0316610a43565b60005b6001600160e01b03169392505050565b3360008181526034602090815260408083206001600160a01b038716845290915281205490919083811015610ad85760405162461bcd60e51b815260206004820152602560248201527f45524332303a2064656372656173656420616c6c6f77616e63652062656c6f77604482015264207a65726f60d81b60648201526084016105b7565b6105db8286868403610e9c565b600033610581818585611052565b83421115610b435760405162461bcd60e51b815260206004820152601d60248201527f4552433230566f7465733a207369676e6174757265206578706972656400000060448201526064016105b7565b604080517fe48329057bfd03d55e49b547132e39cffd9c1820ad7b9d4c5307691425d15adf60208201526001600160a01b038816918101919091526060810186905260808101859052600090610bbd90610bb59060a001604051602081830303815290604052805190602001206116ca565b858585611718565b9050610bc881611740565b8614610c165760405162461bcd60e51b815260206004820152601960248201527f4552433230566f7465733a20696e76616c6964206e6f6e63650000000000000060448201526064016105b7565b610c208188611410565b50505050505050565b83421115610c795760405162461bcd60e51b815260206004820152601d60248201527f45524332305065726d69743a206578706972656420646561646c696e6500000060448201526064016105b7565b600061013054888888610c8b8c611740565b6040805160208101969096526001600160a01b0394851690860152929091166060840152608083015260a082015260c0810186905260e0016040516020818303038152906040528051906020012090506000610ce6826116ca565b90506000610cf682878787611718565b9050896001600160a01b0316816001600160a01b031614610d595760405162461bcd60e51b815260206004820152601e60248201527f45524332305065726d69743a20696e76616c6964207369676e6174757265000060448201526064016105b7565b610d648a8a8a610e9c565b50505050505050505050565b60408051808201909152600080825260208201526001600160a01b038316600090815261016360205260409020805463ffffffff8416908110610db557610db56126c9565b60009182526020918290206040805180820190915291015463ffffffff8116825264010000000090046001600160e01b0316918101919091529392505050565b60c9546001600160a01b03163314610e1f5760405162461bcd60e51b81526004016105b79061253d565b6001600160a01b038116610e845760405162461bcd60e51b815260206004820152602660248201527f4f776e61626c653a206e6577206f776e657220697320746865207a65726f206160448201526564647265737360d01b60648201526084016105b7565b610723816114f4565b6001600160a01b03163b151590565b6001600160a01b038316610efe5760405162461bcd60e51b8152602060048201526024808201527f45524332303a20617070726f76652066726f6d20746865207a65726f206164646044820152637265737360e01b60648201526084016105b7565b6001600160a01b038216610f5f5760405162461bcd60e51b815260206004820152602260248201527f45524332303a20617070726f766520746f20746865207a65726f206164647265604482015261737360f01b60648201526084016105b7565b6001600160a01b0383811660008181526034602090815260408083209487168084529482529182902085905590518481527f8c5be1e5ebec7d5bd14f71427d1e84f3dd0314c0f7b2291e5b200ac8c7c3b925910160405180910390a3505050565b6001600160a01b03838116600090815260346020908152604080832093861683529290522054600019811461104c578181101561103f5760405162461bcd60e51b815260206004820152601d60248201527f45524332303a20696e73756666696369656e7420616c6c6f77616e636500000060448201526064016105b7565b61104c8484848403610e9c565b50505050565b6001600160a01b0383166110b65760405162461bcd60e51b815260206004820152602560248201527f45524332303a207472616e736665722066726f6d20746865207a65726f206164604482015264647265737360d81b60648201526084016105b7565b6001600160a01b0382166111185760405162461bcd60e51b815260206004820152602360248201527f45524332303a207472616e7366657220746f20746865207a65726f206164647260448201526265737360e81b60648201526084016105b7565b611123838383611769565b6001600160a01b0383166000908152603360205260409020548181101561119b5760405162461bcd60e51b815260206004820152602660248201527f45524332303a207472616e7366657220616d6f756e7420657863656564732062604482015265616c616e636560d01b60648201526084016105b7565b6001600160a01b038085166000908152603360205260408082208585039055918516815290812080548492906111d2908490612588565b92505081905550826001600160a01b0316846001600160a01b03167fddf252ad1be2c89b69c2b068fc378daa952ba7f163c4a11628f55a4df523b3ef8460405161121e91815260200190565b60405180910390a361104c8484846117b4565b60006105f07f8b73c3c69bb8fe3d512ecc4cf759cc79239f7b179b0ffacaa9a75d522b39400f61126060fb5490565b60fc546040805160208101859052908101839052606081018290524660808201523060a082015260009060c0016040516020818303038152906040528051906020012090509392505050565b8154600090815b818110156113105760006112c782846117bf565b9050848682815481106112dc576112dc6126c9565b60009182526020909120015463ffffffff1611156112fc5780925061130a565b611307816001612588565b91505b506112b3565b811561135457846113226001846126b2565b81548110611332576113326126c9565b60009182526020909120015464010000000090046001600160e01b0316611357565b60005b6001600160e01b031695945050505050565b60975460ff166113b25760405162461bcd60e51b815260206004820152601460248201527314185d5cd8589b194e881b9bdd081c185d5cd95960621b60448201526064016105b7565b6097805460ff191690557f5db9ee0a495bf2e6ff9c91a7834c1ba4fdd244a5e8aa4e537bd38aeae4b073aa335b6040516001600160a01b03909116815260200160405180910390a1565b61071582826117da565b6107158282611865565b6001600160a01b0382811660008181526101626020818152604080842080546033845282862054949093528787166001600160a01b03198416811790915590519190951694919391928592917f3134e8a2e6d97e929a7e54011ea5485d7d196dd5f0ba4d4ef95803e8e3fc257f9190a461104c82848361187e565b600063ffffffff8211156114f05760405162461bcd60e51b815260206004820152602660248201527f53616665436173743a2076616c756520646f65736e27742066697420696e203360448201526532206269747360d01b60648201526084016105b7565b5090565b60c980546001600160a01b038381166001600160a01b0319831681179093556040519116919082907f8be0079c531659141344cd1fd0a4f28419497f9722a3daafe3b4186f6b6457e090600090a35050565b600054610100900460ff1661156d5760405162461bcd60e51b81526004016105b7906126df565b61071582826119bd565b600054610100900460ff166105c05760405162461bcd60e51b81526004016105b7906126df565b600054610100900460ff166115c55760405162461bcd60e51b81526004016105b7906126df565b6105c0611a0b565b600054610100900460ff166115f45760405162461bcd60e51b81526004016105b7906126df565b6105c0611a3e565b600054610100900460ff166116235760405162461bcd60e51b81526004016105b7906126df565b61164681604051806040016040528060018152602001603160f81b815250611a6e565b61072381611aaf565b60975460ff16156116955760405162461bcd60e51b815260206004820152601060248201526f14185d5cd8589b194e881c185d5cd95960821b60448201526064016105b7565b6097805460ff191660011790557f62e78cea01bee320cd4e420270b5ea74000d11b0c9f74754ebdbfc544b05a2586113df3390565b60006105876116d7611231565b8360405161190160f01b6020820152602281018390526042810182905260009060620160405160208183030381529060405280519060200120905092915050565b600080600061172987878787611afe565b9150915061173681611beb565b5095945050505050565b6001600160a01b038116600090815261012f602052604090208054600181018255905b50919050565b60975460ff16156117af5760405162461bcd60e51b815260206004820152601060248201526f14185d5cd8589b194e881c185d5cd95960821b60448201526064016105b7565b505050565b6117af838383611da6565b60006117ce600284841861272a565b6106a890848416612588565b6117e48282611dd9565b6035546001600160e01b0310156118565760405162461bcd60e51b815260206004820152603060248201527f4552433230566f7465733a20746f74616c20737570706c79207269736b73206f60448201526f766572666c6f77696e6720766f74657360801b60648201526084016105b7565b61104c610164611ecc83611ed8565b61186f8282612051565b61104c6101646121b283611ed8565b816001600160a01b0316836001600160a01b0316141580156118a05750600081115b156117af576001600160a01b0383161561192f576001600160a01b03831660009081526101636020526040812081906118dc906121b285611ed8565b91509150846001600160a01b03167fdec2bacdd2f05b59de34da9b523dff8be42e5e38e818c82fdb0bae774387a7248383604051611924929190918252602082015260400190565b60405180910390a250505b6001600160a01b038216156117af576001600160a01b038216600090815261016360205260408120819061196690611ecc85611ed8565b91509150836001600160a01b03167fdec2bacdd2f05b59de34da9b523dff8be42e5e38e818c82fdb0bae774387a72483836040516119ae929190918252602082015260400190565b60405180910390a25050505050565b600054610100900460ff166119e45760405162461bcd60e51b81526004016105b7906126df565b81516119f7906036906020850190612227565b5080516117af906037906020840190612227565b600054610100900460ff16611a325760405162461bcd60e51b81526004016105b7906126df565b6097805460ff19169055565b600054610100900460ff16611a655760405162461bcd60e51b81526004016105b7906126df565b6105c0336114f4565b600054610100900460ff16611a955760405162461bcd60e51b81526004016105b7906126df565b81516020928301208151919092012060fb9190915560fc55565b600054610100900460ff16611ad65760405162461bcd60e51b81526004016105b7906126df565b507f6e71edae12b1b97f4d1f60370fef10105fa2faae0126114a169c64845d6126c961013055565b6000807f7fffffffffffffffffffffffffffffff5d576e7357a4501ddfe92f46681b20a0831115611b355750600090506003611be2565b8460ff16601b14158015611b4d57508460ff16601c14155b15611b5e5750600090506004611be2565b6040805160008082526020820180845289905260ff881692820192909252606081018690526080810185905260019060a0016020604051602081039080840390855afa158015611bb2573d6000803e3d6000fd5b5050604051601f1901519150506001600160a01b038116611bdb57600060019250925050611be2565b9150600090505b94509492505050565b6000816004811115611bff57611bff61274c565b1415611c085750565b6001816004811115611c1c57611c1c61274c565b1415611c6a5760405162461bcd60e51b815260206004820152601860248201527f45434453413a20696e76616c6964207369676e6174757265000000000000000060448201526064016105b7565b6002816004811115611c7e57611c7e61274c565b1415611ccc5760405162461bcd60e51b815260206004820152601f60248201527f45434453413a20696e76616c6964207369676e6174757265206c656e6774680060448201526064016105b7565b6003816004811115611ce057611ce061274c565b1415611d395760405162461bcd60e51b815260206004820152602260248201527f45434453413a20696e76616c6964207369676e6174757265202773272076616c604482015261756560f01b60648201526084016105b7565b6004816004811115611d4d57611d4d61274c565b14156107235760405162461bcd60e51b815260206004820152602260248201527f45434453413a20696e76616c6964207369676e6174757265202776272076616c604482015261756560f01b60648201526084016105b7565b6001600160a01b03838116600090815261016260205260408082205485841683529120546117af9291821691168361187e565b6001600160a01b038216611e2f5760405162461bcd60e51b815260206004820152601f60248201527f45524332303a206d696e7420746f20746865207a65726f20616464726573730060448201526064016105b7565b611e3b60008383611769565b8060356000828254611e4d9190612588565b90915550506001600160a01b03821660009081526033602052604081208054839290611e7a908490612588565b90915550506040518181526001600160a01b038316906000907fddf252ad1be2c89b69c2b068fc378daa952ba7f163c4a11628f55a4df523b3ef9060200160405180910390a3610715600083836117b4565b60006106a88284612588565b825460009081908015611f235785611ef16001836126b2565b81548110611f0157611f016126c9565b60009182526020909120015464010000000090046001600160e01b0316611f26565b60005b6001600160e01b03169250611f3f83858763ffffffff16565b9150600081118015611f7d57504386611f596001846126b2565b81548110611f6957611f696126c9565b60009182526020909120015463ffffffff16145b15611fdd57611f8b826121be565b86611f976001846126b2565b81548110611fa757611fa76126c9565b9060005260206000200160000160046101000a8154816001600160e01b0302191690836001600160e01b03160217905550612048565b856040518060400160405280611ff24361148b565b63ffffffff168152602001612006856121be565b6001600160e01b0390811690915282546001810184556000938452602093849020835194909301519091166401000000000263ffffffff909316929092179101555b50935093915050565b6001600160a01b0382166120b15760405162461bcd60e51b815260206004820152602160248201527f45524332303a206275726e2066726f6d20746865207a65726f206164647265736044820152607360f81b60648201526084016105b7565b6120bd82600083611769565b6001600160a01b038216600090815260336020526040902054818110156121315760405162461bcd60e51b815260206004820152602260248201527f45524332303a206275726e20616d6f756e7420657863656564732062616c616e604482015261636560f01b60648201526084016105b7565b6001600160a01b03831660009081526033602052604081208383039055603580548492906121609084906126b2565b90915550506040518281526000906001600160a01b038516907fddf252ad1be2c89b69c2b068fc378daa952ba7f163c4a11628f55a4df523b3ef9060200160405180910390a36117af836000846117b4565b60006106a882846126b2565b60006001600160e01b038211156114f05760405162461bcd60e51b815260206004820152602760248201527f53616665436173743a2076616c756520646f65736e27742066697420696e20326044820152663234206269747360c81b60648201526084016105b7565b82805461223390612508565b90600052602060002090601f016020900481019282612255576000855561229b565b82601f1061226e57805160ff191683800117855561229b565b8280016001018555821561229b579182015b8281111561229b578251825591602001919060010190612280565b506114f09291505b808211156114f057600081556001016122a3565b600060208083528351808285015260005b818110156122e4578581018301518582016040015282016122c8565b818111156122f6576000604083870101525b50601f01601f1916929092016040019392505050565b80356001600160a01b038116811461232357600080fd5b919050565b6000806040838503121561233b57600080fd5b6123448361230c565b946020939093013593505050565b60008060006060848603121561236757600080fd5b6123708461230c565b925061237e6020850161230c565b9150604084013590509250925092565b6000602082840312156123a057600080fd5b5035919050565b6000602082840312156123b957600080fd5b6106a88261230c565b803560ff8116811461232357600080fd5b60008060008060008060c087890312156123ec57600080fd5b6123f58761230c565b95506020870135945060408701359350612411606088016123c2565b92506080870135915060a087013590509295509295509295565b600080600080600080600060e0888a03121561244657600080fd5b61244f8861230c565b965061245d6020890161230c565b95506040880135945060608801359350612479608089016123c2565b925060a0880135915060c0880135905092959891949750929550565b600080604083850312156124a857600080fd5b6124b18361230c565b91506124bf6020840161230c565b90509250929050565b600080604083850312156124db57600080fd5b6124e48361230c565b9150602083013563ffffffff811681146124fd57600080fd5b809150509250929050565b600181811c9082168061251c57607f821691505b6020821081141561176357634e487b7160e01b600052602260045260246000fd5b6020808252818101527f4f776e61626c653a2063616c6c6572206973206e6f7420746865206f776e6572604082015260600190565b634e487b7160e01b600052601160045260246000fd5b6000821982111561259b5761259b612572565b500190565b600181815b808511156125db5781600019048211156125c1576125c1612572565b808516156125ce57918102915b93841c93908002906125a5565b509250929050565b6000826125f257506001610587565b816125ff57506000610587565b8160018114612615576002811461261f5761263b565b6001915050610587565b60ff84111561263057612630612572565b50506001821b610587565b5060208310610133831016604e8410600b841016171561265e575081810a610587565b61266883836125a0565b806000190482111561267c5761267c612572565b029392505050565b60006106a860ff8416836125e3565b60008160001904831182151516156126ad576126ad612572565b500290565b6000828210156126c4576126c4612572565b500390565b634e487b7160e01b600052603260045260246000fd5b6020808252602b908201527f496e697469616c697a61626c653a20636f6e7472616374206973206e6f74206960408201526a6e697469616c697a696e6760a81b606082015260800190565b60008261274757634e487b7160e01b600052601260045260246000fd5b500490565b634e487b7160e01b600052602160045260246000fdfea2646970667358221220ae5041054210c537106f7702dfce989047861ecda07cd69349782b4a08bff70b64736f6c63430008090033",
  "devdoc": {
    "custom:security-contact": "nohackplz@phlote.xyz",
    "kind": "dev",
    "methods": {
      "DOMAIN_SEPARATOR()": {
        "details": "See {IERC20Permit-DOMAIN_SEPARATOR}."
      },
      "allowance(address,address)": {
        "details": "See {IERC20-allowance}."
      },
      "approve(address,uint256)": {
        "details": "See {IERC20-approve}. NOTE: If `amount` is the maximum `uint256`, the allowance is not updated on `transferFrom`. This is semantically equivalent to an infinite approval. Requirements: - `spender` cannot be the zero address."
      },
      "balanceOf(address)": {
        "details": "See {IERC20-balanceOf}."
      },
      "burn(uint256)": {
        "details": "Destroys `amount` tokens from the caller. See {ERC20-_burn}."
      },
      "burnFrom(address,uint256)": {
        "details": "Destroys `amount` tokens from `account`, deducting from the caller's allowance. See {ERC20-_burn} and {ERC20-allowance}. Requirements: - the caller must have allowance for ``accounts``'s tokens of at least `amount`."
      },
      "checkpoints(address,uint32)": {
        "details": "Get the `pos`-th checkpoint for `account`."
      },
      "constructor": {
        "custom:oz-upgrades-unsafe-allow": "constructor"
      },
      "decimals()": {
        "details": "Returns the number of decimals used to get its user representation. For example, if `decimals` equals `2`, a balance of `505` tokens should be displayed to a user as `5.05` (`505 / 10 ** 2`). Tokens usually opt for a value of 18, imitating the relationship between Ether and Wei. This is the value {ERC20} uses, unless this function is overridden; NOTE: This information is only used for _display_ purposes: it in no way affects any of the arithmetic of the contract, including {IERC20-balanceOf} and {IERC20-transfer}."
      },
      "decreaseAllowance(address,uint256)": {
        "details": "Atomically decreases the allowance granted to `spender` by the caller. This is an alternative to {approve} that can be used as a mitigation for problems described in {IERC20-approve}. Emits an {Approval} event indicating the updated allowance. Requirements: - `spender` cannot be the zero address. - `spender` must have allowance for the caller of at least `subtractedValue`."
      },
      "delegate(address)": {
        "details": "Delegate votes from the sender to `delegatee`."
      },
      "delegateBySig(address,uint256,uint256,uint8,bytes32,bytes32)": {
        "details": "Delegates votes from signer to `delegatee`"
      },
      "delegates(address)": {
        "details": "Get the address `account` is currently delegating to."
      },
      "getPastTotalSupply(uint256)": {
        "details": "Retrieve the `totalSupply` at the end of `blockNumber`. Note, this value is the sum of all balances. It is but NOT the sum of all the delegated votes! Requirements: - `blockNumber` must have been already mined"
      },
      "getPastVotes(address,uint256)": {
        "details": "Retrieve the number of votes for `account` at the end of `blockNumber`. Requirements: - `blockNumber` must have been already mined"
      },
      "getVotes(address)": {
        "details": "Gets the current votes balance for `account`"
      },
      "increaseAllowance(address,uint256)": {
        "details": "Atomically increases the allowance granted to `spender` by the caller. This is an alternative to {approve} that can be used as a mitigation for problems described in {IERC20-approve}. Emits an {Approval} event indicating the updated allowance. Requirements: - `spender` cannot be the zero address."
      },
      "name()": {
        "details": "Returns the name of the token."
      },
      "nonces(address)": {
        "details": "See {IERC20Permit-nonces}."
      },
      "numCheckpoints(address)": {
        "details": "Get number of checkpoints for `account`."
      },
      "owner()": {
        "details": "Returns the address of the current owner."
      },
      "paused()": {
        "details": "Returns true if the contract is paused, and false otherwise."
      },
      "permit(address,address,uint256,uint256,uint8,bytes32,bytes32)": {
        "details": "See {IERC20Permit-permit}."
      },
      "renounceOwnership()": {
        "details": "Leaves the contract without owner. It will not be possible to call `onlyOwner` functions anymore. Can only be called by the current owner. NOTE: Renouncing ownership will leave the contract without an owner, thereby removing any functionality that is only available to the owner."
      },
      "symbol()": {
        "details": "Returns the symbol of the token, usually a shorter version of the name."
      },
      "totalSupply()": {
        "details": "See {IERC20-totalSupply}."
      },
      "transfer(address,uint256)": {
        "details": "See {IERC20-transfer}. Requirements: - `to` cannot be the zero address. - the caller must have a balance of at least `amount`."
      },
      "transferFrom(address,address,uint256)": {
        "details": "See {IERC20-transferFrom}. Emits an {Approval} event indicating the updated allowance. This is not required by the EIP. See the note at the beginning of {ERC20}. NOTE: Does not update the allowance if the current allowance is the maximum `uint256`. Requirements: - `from` and `to` cannot be the zero address. - `from` must have a balance of at least `amount`. - the caller must have allowance for ``from``'s tokens of at least `amount`."
      },
      "transferOwnership(address)": {
        "details": "Transfers ownership of the contract to a new account (`newOwner`). Can only be called by the current owner."
      }
    },
    "version": 1
  },
  "userdoc": {
    "kind": "user",
    "methods": {},
    "version": 1
  },
  "storageLayout": {
    "storage": [
      {
        "astId": 208,
        "contract": "contracts/PhloteVote.sol:PhloteVote",
        "label": "_initialized",
        "offset": 0,
        "slot": "0",
        "type": "t_bool"
      },
      {
        "astId": 211,
        "contract": "contracts/PhloteVote.sol:PhloteVote",
        "label": "_initializing",
        "offset": 1,
        "slot": "0",
        "type": "t_bool"
      },
      {
        "astId": 3876,
        "contract": "contracts/PhloteVote.sol:PhloteVote",
        "label": "__gap",
        "offset": 0,
        "slot": "1",
        "type": "t_array(t_uint256)50_storage"
      },
      {
        "astId": 1943,
        "contract": "contracts/PhloteVote.sol:PhloteVote",
        "label": "_balances",
        "offset": 0,
        "slot": "51",
        "type": "t_mapping(t_address,t_uint256)"
      },
      {
        "astId": 1949,
        "contract": "contracts/PhloteVote.sol:PhloteVote",
        "label": "_allowances",
        "offset": 0,
        "slot": "52",
        "type": "t_mapping(t_address,t_mapping(t_address,t_uint256))"
      },
      {
        "astId": 1951,
        "contract": "contracts/PhloteVote.sol:PhloteVote",
        "label": "_totalSupply",
        "offset": 0,
        "slot": "53",
        "type": "t_uint256"
      },
      {
        "astId": 1953,
        "contract": "contracts/PhloteVote.sol:PhloteVote",
        "label": "_name",
        "offset": 0,
        "slot": "54",
        "type": "t_string_storage"
      },
      {
        "astId": 1955,
        "contract": "contracts/PhloteVote.sol:PhloteVote",
        "label": "_symbol",
        "offset": 0,
        "slot": "55",
        "type": "t_string_storage"
      },
      {
        "astId": 2536,
        "contract": "contracts/PhloteVote.sol:PhloteVote",
        "label": "__gap",
        "offset": 0,
        "slot": "56",
        "type": "t_array(t_uint256)45_storage"
      },
      {
        "astId": 2678,
        "contract": "contracts/PhloteVote.sol:PhloteVote",
        "label": "__gap",
        "offset": 0,
        "slot": "101",
        "type": "t_array(t_uint256)50_storage"
      },
      {
        "astId": 296,
        "contract": "contracts/PhloteVote.sol:PhloteVote",
        "label": "_paused",
        "offset": 0,
        "slot": "151",
        "type": "t_bool"
      },
      {
        "astId": 385,
        "contract": "contracts/PhloteVote.sol:PhloteVote",
        "label": "__gap",
        "offset": 0,
        "slot": "152",
        "type": "t_array(t_uint256)49_storage"
      },
      {
        "astId": 10,
        "contract": "contracts/PhloteVote.sol:PhloteVote",
        "label": "_owner",
        "offset": 0,
        "slot": "201",
        "type": "t_address"
      },
      {
        "astId": 122,
        "contract": "contracts/PhloteVote.sol:PhloteVote",
        "label": "__gap",
        "offset": 0,
        "slot": "202",
        "type": "t_array(t_uint256)49_storage"
      },
      {
        "astId": 4570,
        "contract": "contracts/PhloteVote.sol:PhloteVote",
        "label": "_HASHED_NAME",
        "offset": 0,
        "slot": "251",
        "type": "t_bytes32"
      },
      {
        "astId": 4572,
        "contract": "contracts/PhloteVote.sol:PhloteVote",
        "label": "_HASHED_VERSION",
        "offset": 0,
        "slot": "252",
        "type": "t_bytes32"
      },
      {
        "astId": 4710,
        "contract": "contracts/PhloteVote.sol:PhloteVote",
        "label": "__gap",
        "offset": 0,
        "slot": "253",
        "type": "t_array(t_uint256)50_storage"
      },
      {
        "astId": 3387,
        "contract": "contracts/PhloteVote.sol:PhloteVote",
        "label": "_nonces",
        "offset": 0,
        "slot": "303",
        "type": "t_mapping(t_address,t_struct(Counter)3883_storage)"
      },
      {
        "astId": 3389,
        "contract": "contracts/PhloteVote.sol:PhloteVote",
        "label": "_PERMIT_TYPEHASH",
        "offset": 0,
        "slot": "304",
        "type": "t_bytes32"
      },
      {
        "astId": 3555,
        "contract": "contracts/PhloteVote.sol:PhloteVote",
        "label": "__gap",
        "offset": 0,
        "slot": "305",
        "type": "t_array(t_uint256)49_storage"
      },
      {
        "astId": 2720,
        "contract": "contracts/PhloteVote.sol:PhloteVote",
        "label": "_delegates",
        "offset": 0,
        "slot": "354",
        "type": "t_mapping(t_address,t_address)"
      },
      {
        "astId": 2726,
        "contract": "contracts/PhloteVote.sol:PhloteVote",
        "label": "_checkpoints",
        "offset": 0,
        "slot": "355",
        "type": "t_mapping(t_address,t_array(t_struct(Checkpoint)2711_storage)dyn_storage)"
      },
      {
        "astId": 2730,
        "contract": "contracts/PhloteVote.sol:PhloteVote",
        "label": "_totalSupplyCheckpoints",
        "offset": 0,
        "slot": "356",
        "type": "t_array(t_struct(Checkpoint)2711_storage)dyn_storage"
      },
      {
        "astId": 3335,
        "contract": "contracts/PhloteVote.sol:PhloteVote",
        "label": "__gap",
        "offset": 0,
        "slot": "357",
        "type": "t_array(t_uint256)47_storage"
      }
    ],
    "types": {
      "t_address": {
        "encoding": "inplace",
        "label": "address",
        "numberOfBytes": "20"
      },
      "t_array(t_struct(Checkpoint)2711_storage)dyn_storage": {
        "base": "t_struct(Checkpoint)2711_storage",
        "encoding": "dynamic_array",
        "label": "struct ERC20VotesUpgradeable.Checkpoint[]",
        "numberOfBytes": "32"
      },
      "t_array(t_uint256)45_storage": {
        "base": "t_uint256",
        "encoding": "inplace",
        "label": "uint256[45]",
        "numberOfBytes": "1440"
      },
      "t_array(t_uint256)47_storage": {
        "base": "t_uint256",
        "encoding": "inplace",
        "label": "uint256[47]",
        "numberOfBytes": "1504"
      },
      "t_array(t_uint256)49_storage": {
        "base": "t_uint256",
        "encoding": "inplace",
        "label": "uint256[49]",
        "numberOfBytes": "1568"
      },
      "t_array(t_uint256)50_storage": {
        "base": "t_uint256",
        "encoding": "inplace",
        "label": "uint256[50]",
        "numberOfBytes": "1600"
      },
      "t_bool": {
        "encoding": "inplace",
        "label": "bool",
        "numberOfBytes": "1"
      },
      "t_bytes32": {
        "encoding": "inplace",
        "label": "bytes32",
        "numberOfBytes": "32"
      },
      "t_mapping(t_address,t_address)": {
        "encoding": "mapping",
        "key": "t_address",
        "label": "mapping(address => address)",
        "numberOfBytes": "32",
        "value": "t_address"
      },
      "t_mapping(t_address,t_array(t_struct(Checkpoint)2711_storage)dyn_storage)": {
        "encoding": "mapping",
        "key": "t_address",
        "label": "mapping(address => struct ERC20VotesUpgradeable.Checkpoint[])",
        "numberOfBytes": "32",
        "value": "t_array(t_struct(Checkpoint)2711_storage)dyn_storage"
      },
      "t_mapping(t_address,t_mapping(t_address,t_uint256))": {
        "encoding": "mapping",
        "key": "t_address",
        "label": "mapping(address => mapping(address => uint256))",
        "numberOfBytes": "32",
        "value": "t_mapping(t_address,t_uint256)"
      },
      "t_mapping(t_address,t_struct(Counter)3883_storage)": {
        "encoding": "mapping",
        "key": "t_address",
        "label": "mapping(address => struct CountersUpgradeable.Counter)",
        "numberOfBytes": "32",
        "value": "t_struct(Counter)3883_storage"
      },
      "t_mapping(t_address,t_uint256)": {
        "encoding": "mapping",
        "key": "t_address",
        "label": "mapping(address => uint256)",
        "numberOfBytes": "32",
        "value": "t_uint256"
      },
      "t_string_storage": {
        "encoding": "bytes",
        "label": "string",
        "numberOfBytes": "32"
      },
      "t_struct(Checkpoint)2711_storage": {
        "encoding": "inplace",
        "label": "struct ERC20VotesUpgradeable.Checkpoint",
        "members": [
          {
            "astId": 2708,
            "contract": "contracts/PhloteVote.sol:PhloteVote",
            "label": "fromBlock",
            "offset": 0,
            "slot": "0",
            "type": "t_uint32"
          },
          {
            "astId": 2710,
            "contract": "contracts/PhloteVote.sol:PhloteVote",
            "label": "votes",
            "offset": 4,
            "slot": "0",
            "type": "t_uint224"
          }
        ],
        "numberOfBytes": "32"
      },
      "t_struct(Counter)3883_storage": {
        "encoding": "inplace",
        "label": "struct CountersUpgradeable.Counter",
        "members": [
          {
            "astId": 3882,
            "contract": "contracts/PhloteVote.sol:PhloteVote",
            "label": "_value",
            "offset": 0,
            "slot": "0",
            "type": "t_uint256"
          }
        ],
        "numberOfBytes": "32"
      },
      "t_uint224": {
        "encoding": "inplace",
        "label": "uint224",
        "numberOfBytes": "28"
      },
      "t_uint256": {
        "encoding": "inplace",
        "label": "uint256",
        "numberOfBytes": "32"
      },
      "t_uint32": {
        "encoding": "inplace",
        "label": "uint32",
        "numberOfBytes": "4"
      }
    }
  }
}